:020000040800F2
:1000000000000820AD2F00089D2D0008A52D000838
:10001000AD2D0008B52D0008BD2D00080000000022
:10002000000000000000000000000000C52D0008D6
:10003000D32D000800000000E12D0008EF2D00087E
:10004000FD2F0008FD2F0008FD2F0008FD2F0008E0
:10005000FD2F0008FD2F0008FD2F0008FD2F0008D0
:10006000FD2F0008FD2F0008FD2F0008FD2F0008C0
:10007000E97A0008FD2F0008FD2F0008FD2F000879
:10008000FD2F0008FD2F0008FD2F0008FD2F0008A0
:10009000FD2F0008FD2F0008FD2F0008FD2F000890
:1000A000FD2F00082D7C0008FD2F0008FD2F000803
:1000B000797C0008FD2F0008FD2F0008FD2F0008A7
:1000C000FD2F0008FD2F0008FD2F0008FD2F000860
:1000D000FD2F0008FD2F0008FD2F000831C100088A
:1000E000FD2F0008FD2F0008FD2F0008FD2F000840
:1000F000FD2F0008FD2F0008FD2F0008FD2F000830
:10010000FD2F0008FD2F0008FD2F0008FD2F00081F
:10011000FD2F0008FD2F0008FD2F0008FD2F00080F
:1001200061710008FD2F000815700008FD2F000800
:10013000FD2F0008FD2F0008FD2F0008FD2F0008EF
:10014000FD2F0008FD2F0008FD2F0008FD2F0008DF
:10015000FD2F00083D7E0008FD2F00081152000809
:10016000FD2F0008FD2F0008FD2F0008FD2F0008BF
:10017000FD2F0008FD2F0008FD2F000800000000E3
:10018000FD2F0008FD2F00083D3A0008FD2F000854
:10019000FD2F0008FD2F0008FD2F0008FD2F00088F
:1001A0000000000000000000FD2F0008FD2F0008E7
:1001B000FD2F0008FD2F0008FD2F0008FD2F00086F
:1001C000FD2F0008FD2F000800000000FD2F000893
:1001D000FD2F0008FD2F0008FD2F0008FD2F00084F
:1001E000FD2F0008FD2F0008FD2F0008FD2F00083F
:0801F00000000000FD2F0008D3
:1002000010B5054C237833B9044B13B10448AFF350
:1002100000800123237010BD9043002000000000E7
:100220006C0B010808B5034B1BB103490348AFF33E
:10023000008008BD00000000944300206C0B010802
:1002400010F8012B11F8013B012A28BF9A42F7D080
:10025000D01A7047000000000000000000000000FD
:1002600001F0FF01102A2BDB10F0070F08D010F867
:10027000013B013A8B422DD010F0070F42B3F6D16B
:10028000F0B441EA012141EA014122F007047FF084
:1002900000070023F0E80256083C85EA010586EADB
:1002A000010685FA47F5A3FA87F586FA47F6A5FA17
:1002B00087F68EB9EED1F0BC01F0FF0102F0070223
:1002C00032B110F8013B013A83EA010313B1F8D1CE
:1002D0000020704701387047002D06BF35460338AF
:1002E000073815F0010F07D1013015F4807F02BFE8
:1002F000013015F4C03F0130F0BC0138704700BF39
:10030000034613F8012B002AFBD1181A0138704755
:100310007BB972B90029BEBF00204FF0004106E052
:1003200008BF00281CBF6FF000414FF0FF3000F005
:10033000BBB9ADF1080C6DE904CE002909DB002B37
:100340001ADB00F035F8DDF804E0DDE9022304B043
:100350007047404261EB4101002B1BDB00F028F8A5
:10036000DDF804E0DDE9022304B0404261EB410125
:10037000524263EB43037047524263EB430300F086
:1003800017F8DDF804E0DDE9022304B0404261EB38
:1003900041017047524263EB430300F009F8DDF876
:1003A00004E0DDE9022304B0524263EB43037047EB
:1003B0002DE9F047089D8E4604468846002B4AD119
:1003C0008A42174662D9B2FA82F64EB1C6F12003CC
:1003D00001FA06F820FA03F3B74043EA0808B440EC
:1003E0004FEA174E1FFA87FCB8FBFEF1230C0EFBF9
:1003F000118843EA084301FB0CF29A4209D9FB1821
:1004000001F1FF3080F0EA809A4240F2E780023941
:100410003B449A1AA3B2B2FBFEF00EFB102243EA51
:10042000024300FB0CFC9C4509D9FB1800F1FF328C
:1004300080F0D6809C4540F2D3803B44023840EAAD
:100440000140A3EB0C0300211DB1F3400022C5E9DC
:100450000032BDE8F0878B4205D90DB1C5E9000136
:1004600000210846F5E7B3FA83F1002946D1734528
:1004700002D3824200F20581841A6EEB030201204E
:100480009046002DE5D0C5E90048E2E7002A00F0DB
:100490009080B2FA82F6002E40F0A4808A1A030CF3
:1004A0004FEA174E80B2BCB20121B2FBFEFC0EFB3C
:1004B0001C2243EA024304FB0CF29A4207D9FB18C0
:1004C0000CF1FF3802D29A4200F2E080C4469B1A37
:1004D000B3FBFEF20EFB123340EA034302FB04F4CB
:1004E0009C4207D9FB1802F1FF3002D29C4200F275
:1004F000CA8002461B1B42EA0C40A5E7C1F1200658
:100500008B4022FA06F71F430EFA01F420FA06F395
:100510002EFA06FE4FEA1749234300FA01F81FFAA4
:1005200087FCBEFBF9F01C0C09FB10EE44EA0E44FC
:1005300000FB0CFEA64502FA01F209D93C1900F1B4
:10054000FF3A80F09C80A64540F2998002383C44F6
:10055000A4EB0E041FFA83FEB4FBF9F309FB13446A
:100560004EEA044403FB0CFCA44508D93C1903F1F2
:10057000FF3E80F08280A4457FD9023B3C4443EAA1
:100580000040A4EB0C04A0FB02EC64457346E1467A
:1005900062D35FD05DB1B8EB030264EB090404FAE7
:1005A00006F622FA01F31E43CC40C5E9006400219F
:1005B0004FE7B1FBF2FC010C41EA0E4180B240EA88
:1005C00001423B4638463C46B846BE462026B1FB73
:1005D000F7F1A2EB080241EA0C4166E7014618E791
:1005E00010462CE7C6F120022EFA02F3B740B140C4
:1005F00020FA02F24FEA174E0A43B3FBFEF8BCB2F0
:100600000EFB1833110C41EA034108FB04F9B0401A
:1006100089454FEA104380B23ED9791808F1FF3C72
:1006200001D289451FD8A1EB0901B1FBFEF909FBF5
:1006300004F80EFB191192B242EA0142424529D256
:10064000BA1809F1FF31C4D24245C2D2A9F1020160
:100650003A44BEE7F0459DD2BEEB02036CEB070CBB
:100660000138E14696E7A7EB09094944A8F1020CD5
:10067000B1FBFEF909FB04F8DBE773467FE7504660
:1006800066E70846FDE63B44023A33E7ACF1020C6C
:100690003B441CE749469CE7A1EB0901C446B1FB7A
:1006A000FEF909FB04F8C4E7704700BF80B485B0C9
:1006B00000AF78607B6803F00703FB600B4BDB68DF
:1006C000BB60BA684FF6FF031340BB60FB681A02B9
:1006D000BB681A43064B1343BB60044ABB68D36034
:1006E00000BF1437BD465DF8047B704700ED00E0A5
:1006F0000000FA0580B400AF044BDB681B0A03F06E
:1007000007031846BD465DF8047B704700ED00E026
:1007100080B483B000AF0346FB7197F90730002B1C
:100720000BDBFB7903F01F02074997F907305B09E0
:10073000012000FA02F241F8232000BF0C37BD4629
:100740005DF8047B704700BF00E100E080B483B037
:1007500000AF03463960FB7197F90730002B0ADBC5
:100760003B68DAB20C4997F907301201D2B20B4458
:1007700083F800230AE03B68DAB20849FB7903F00A
:100780000F03043B1201D2B20B441A7600BF0C37A0
:10079000BD465DF8047B704700E100E000ED00E03D
:1007A00080B489B000AFF860B9607A60FB6803F08C
:1007B0000703FB61FB69C3F10703042B28BF042374
:1007C000BB61FB690433062B02D9FB69033B00E0E4
:1007D00000237B614FF0FF32BB6902FA03F3DA4377
:1007E000BB681A407B699A404FF0FF317B6901FA80
:1007F00003F3D9437B680B40134318462437BD46A7
:100800005DF8047B704780B489B000AFF860B960D0
:100810007A60FB682C331946BB6803F440734FF4CD
:100820004072BA61BA6992FAA2F27A617A69B2FA4E
:1008300082F2D2B2D3409B000B44FB61FB691A6881
:10084000BB6803F01F031F2101FA03F3DB431A40C7
:100850007B6803F01F01BB6803F01F0301FA03F379
:100860001A43FB691A6000BF2437BD465DF8047B5C
:10087000704780B483B000AF786039607B689B6854
:1008800023F480623B681A437B689A6000BF0C3790
:10089000BD465DF8047B704780B48DB000AFF86052
:1008A000B9607A60FB680C331946BB6803F00073CB
:1008B0004FF00072BA61BA6992FAA2F27A617A696B
:1008C000B2FA82F2D2B2D3409B000B44FB62FB6AC5
:1008D0001A68BB6803F0F8734FF0F8713962396A2F
:1008E00091FAA1F1F961F969B1FA81F1C9B2CB408C
:1008F000072101FA03F3DB431A40BB6803F0F873E6
:100900004FF0F871B962B96A91FAA1F17962796A26
:10091000B1FA81F1C9B2CB40796801FA03F31A4305
:10092000FB6A1A6000BF3437BD465DF8047B704730
:1009300080B485B000AFF860B9607A600D4ABB68DA
:1009400013441B781A46FB6813441B6823F0C0024B
:100950000849BB680B441B781946FB680B441946D1
:100960007B6813430B6000BF1437BD465DF8047B02
:10097000704700BFD423010880B485B000AFF86091
:10098000B9607A600D4ABB6813441B781A46FB684D
:1009900013441B6823F490720849BB680B441B780E
:1009A0001946FB680B4419467B6813430B6000BF74
:1009B0001437BD465DF8047B704700BFD42301089F
:1009C00080B485B000AFF860B9607A600D4ABB684A
:1009D00013441B781A46FB6813441B6823F4007207
:1009E0000849BB680B441B781946FB680B44194641
:1009F0007B6813430B6000BF1437BD465DF8047B72
:100A0000704700BFD423010880B485B000AFF86000
:100A1000B9607A600D4ABB6813441B781A46FB68BC
:100A200013441B6823F480620849BB680B441B789D
:100A30001946FB680B4419467B6813430B6000BFE3
:100A40001437BD465DF8047B704700BFD42301080E
:100A500080B485B000AFF860B9607A600D4ABB68B9
:100A600013441B781A46FB6813441B6823F4C052D6
:100A70000849BB680B441B781946FB680B441946B0
:100A80007B6813430B6000BF1437BD465DF8047BE1
:100A9000704700BFD423010880B485B000AFF86070
:100AA000B9607A600D4ABB6813441B781A46FB682C
:100AB00013441B6823F4C0420849BB680B441B78ED
:100AC0001946FB680B4419467B6813430B6000BF53
:100AD0001437BD465DF8047B704700BFD42301087E
:100AE00080B485B000AFF860B9607A600D4ABB6829
:100AF00013441B781A46FB6813441B6823F44032E6
:100B00000849BB680B441B781946FB680B4419461F
:100B10007B6813430B6000BF1437BD465DF8047B50
:100B2000704700BFD423010880B485B000AFF860DF
:100B3000B9607A600D4ABB6813441B781A46FB689B
:100B400013441B6823F0F0520849BB680B441B7820
:100B50001946FB680B4419467B6813430B6000BFC2
:100B60001437BD465DF8047B704700BFD4230108ED
:100B700080B483B000AF786039600C4A3B6813449E
:100B80001B781A467B6813445B6908493A680A4433
:100B9000127811467A680A4423F00403536100BFB7
:100BA0000C37BD465DF8047B704700BFD4230108B5
:100BB00080B483B000AF78607B681B6843F00102AB
:100BC0007B681A6000BF0C37BD465DF8047B704738
:100BD00080B483B000AF78607B681B6823F4003278
:100BE0007B681A6000BF0C37BD465DF8047B704718
:100BF00080B483B000AF78607B681B6823F4002268
:100C00007B681A6000BF0C37BD465DF8047B7047F7
:100C100080B485B000AFF860B9607A60FB68DA68CC
:100C2000064B1340B9687A680A431A43FB68DA60D6
:100C300000BF1437BD465DF8047B704701F8FFFF25
:100C400080B483B000AF78607B68DB6823F4004237
:100C50007B68DA6000BF0C37BD465DF8047B7047E7
:100C600080B483B000AF78607B685B6843F000724B
:100C70007B685A6000BF0C37BD465DF8047B704747
:100C800080B400AF054B1B68044A43F48033136003
:100C900000BFBD465DF8047B704700BF00380240CE
:100CA00080B400AF074B1B6803F40033B3F5003F7B
:100CB0000CBF01230023DBB21846BD465DF8047B60
:100CC000704700BF0038024080B483B000AF786046
:100CD000064B9B6823F0030204497B6813438B6037
:100CE00000BF0C37BD465DF8047B704700380240FA
:100CF00080B400AF044B9B6803F00C031846BD465C
:100D00005DF8047B704700BF0038024080B483B0B8
:100D100000AF7860064B9B6823F0F00204497B68C3
:100D200013438B6000BF0C37BD465DF8047B7047F2
:100D30000038024080B483B000AF7860064B9B68F7
:100D400023F4E05204497B6813438B6000BF0C37E7
:100D5000BD465DF8047B70470038024080B483B024
:100D600000AF7860064B9B6823F4604204497B68BF
:100D700013438B6000BF0C37BD465DF8047B7047A2
:100D80000038024080B483B000AF7860094BD3F8DC
:100D900090207B681B0CDB431A407B689BB20549A3
:100DA0001343C1F8903000BF0C37BD465DF8047B9B
:100DB000704700BF0038024080B483B000AF786055
:100DC000094BD3F890207B681B0CDB431A407B68EF
:100DD0009BB205491343C1F8903000BF0C37BD46A4
:100DE0005DF8047B704700BF0038024080B483B0D8
:100DF00000AF7860094BD3F890207968084B0B401E
:100E0000DB431A407B681B0404491343C1F890304C
:100E100000BF0C37BD465DF8047B704700380240C8
:100E20000000FFFF80B483B000AF7860074BD3F8B9
:100E30008C3023F0807205497B681343C1F88C30F5
:100E400000BF0C37BD465DF8047B70470038024098
:100E500080B400AF054B1B68044A43F080731360F5
:100E600000BFBD465DF8047B704700BF00380240FC
:100E700080B400AF074B1B6803F00073B3F1007F31
:100E80000CBF01230023DBB21846BD465DF8047B8E
:100E9000704700BF0038024080B485B000AFF860F2
:100EA000B9607A603B600A4B5A680A4B1340F96894
:100EB000BA6811437A68920111433A680A430449B7
:100EC00013434B6000BF1437BD465DF8047B704789
:100ED000003802400080BCFF80B485B000AF78606D
:100EE000084B1A6B07497B6813430B63054B1A6B5E
:100EF0007B681340FB60FB6800BF1437BD465DF89C
:100F0000047B70470038024080B485B000AF786041
:100F1000084B1A6C07497B6813430B64054B1A6C2A
:100F20007B681340FB60FB6800BF1437BD465DF86B
:100F3000047B70470038024080B485B000AF786011
:100F4000084B5A6C07497B6813434B64054B5A6C3A
:100F50007B681340FB60FB6800BF1437BD465DF83B
:100F6000047B70470038024080B483B000AF7860E3
:100F7000064B1B6823F00F0204497B6813430B6088
:100F800000BF0C37BD465DF8047B7047003C024053
:100F900080B400AF044B1B6803F00F031846BD4636
:100FA0005DF8047B704700BF003C024080B400AF96
:100FB000054B1B68044A43F48033136000BFBD46F1
:100FC0005DF8047B704700BF0070004080B483B0C0
:100FD00000AF7860064B1B6823F4404204497B68ED
:100FE00013430B6000BF0C37BD465DF8047B7047B0
:100FF0000070004080B400AF074B5B6803F480438F
:10100000B3F5804F0CBF01230023DBB21846BD4669
:101010005DF8047B704700BF0070004080B483B06F
:1010200000AF78607B681B6843F040027B681A6001
:1010300000BF0C37BD465DF8047B704780B483B0B9
:1010400000AF786039607B685B6823F010023B6812
:101050001A437B685A6000BF0C37BD465DF8047BBD
:10106000704780B483B000AF78607B685B6843F002
:1010700008027B685A6000BF0C37BD465DF8047BF0
:10108000704780B483B000AF78607B685B6823F002
:1010900008027B685A6000BF0C37BD465DF8047BD0
:1010A000704780B483B000AF78607B681B6823F022
:1010B00080027B681A6000BF0C37BD465DF8047B78
:1010C0007047000080B485B000AF786039603B683D
:1010D000012B28D03B68042B23D03B68102B1ED05B
:1010E0003B68402B19D03B68B3F5807F13D03B6839
:1010F000B3F5806F0DD03B68B3F5805F07D03B68D8
:10110000B3F5803F01D107230EE008230CE006234E
:101110000AE0052308E0042306E0032304E0022399
:1011200002E0012300E00023FB737B6818331946BB
:10113000FB7B0B4AD35C0B44BB60BB681A68FB7B30
:101140000849CB5C194604238B40DB431A40BB683B
:101150001A6000BF1437BD465DF8047B704700BFBE
:10116000DC230108E823010880B485B000AF786073
:1011700039603B68012B28D03B68042B23D03B68A7
:10118000102B1ED03B68402B19D03B68B3F5807FF5
:1011900013D03B68B3F5806F0DD03B68B3F5805F2B
:1011A00007D03B68B3F5803F01D107230EE0082349
:1011B0000CE006230AE0052308E0042306E00323ED
:1011C00004E0022302E0012300E00023FB737B68BC
:1011D00018331946FB7B0A4AD35C0B44BB60BB68DF
:1011E0001A68FB7B0749CB5C194608238B401A43DE
:1011F000BB681A6000BF1437BD465DF8047B7047BA
:10120000DC230108E823010880B483B000AF7860D4
:1012100039607B689A68064B13403A681A437B68CA
:101220009A6000BF0C37BD465DF8047B704700BF75
:10123000F8BFFEFF80B483B000AF786039607B6890
:101240005B6823F070023B681A437B685A6000BFFA
:101250000C37BD465DF8047B704780B483B000AFA7
:10126000786039607B685B6823F470023B681A43DE
:101270007B685A6000BF0C37BD465DF8047B704741
:1012800080B483B000AF78607B689B6823F08002F5
:101290007B689A6000BF0C37BD465DF8047B7047E1
:1012A00080B483B000AF78607B681B6843F00102B4
:1012B0007B681A6000BF0C37BD465DF8047B704741
:1012C00080B483B000AF786039607B681B6823F41A
:1012D000F8123B681B041A437B681A6000BF0C3786
:1012E000BD465DF8047B704780B483B000AF786082
:1012F00039607B681B6823F078723B685B051A4392
:101300007B681A6000BF0C37BD465DF8047B7047F0
:1013100080B483B000AF78607B689B6843F4804200
:101320007B689A6000BF0C37BD465DF8047B704750
:1013300080B483B000AF786039607B689B6823F429
:1013400000423B681A437B689A6000BF0C37BD4679
:101350005DF8047B704780B483B000AF78607B6831
:101360005B6823F490427B685A607B689B6823F03B
:101370002A027B689A6000BF0C37BD465DF8047B8B
:10138000704780B483B000AF78607B685B6823F4FB
:1013900090427B685A607B689B6823F022027B68DE
:1013A0009A607B689B6843F008027B689A6000BF84
:1013B0000C37BD465DF8047B704780B483B000AF46
:1013C000786039607B683A689A6100BF0C37BD4627
:1013D0005DF8047B704780B483B000AF78603960FB
:1013E0003B681A047B689A6100BF0C37BD465DF804
:1013F000047B704780B500AF4FF08050FFF784FD4D
:101400004FF48040FFF798FD0320FFF74FF9FFF7F7
:1014100071F9034600220F211846FFF7C1F9034670
:1014200019464FF0FF30FFF791F900F02DF801F069
:10143000FFF901F0A1F900F0DDFA00F04FFB00F038
:10144000D9FB00F089FC00F06FF800F003FD00F01C
:10145000E3FE00F0BBFF00F07BFD01F02DF801F092
:1014600017F900F0B5F900F063FA00F04DFE00F056
:1014700091FE01F0A9F801F09FFE01F0ABFE01F032
:10148000BCFE00BFFDE7000080B500AF0620FFF7FF
:101490006BFD00BFFFF77CFD0346062BFAD14FF42E
:1014A0004040FFF793FDFFF781FDFFF7E9FB00BF29
:1014B000FFF7F6FB0346012BFAD10023C0220C21D3
:1014C0004FF48000FFF7E8FCFFF7C2FC00BFFFF716
:1014D000CFFC0346012BFAD100BFFFF78BFD03467B
:1014E000002BFAD00020FFF711FC4FF4A050FFF7BB
:1014F00021FC4FF40040FFF731FC0220FFF7E4FB32
:1015000000BFFFF7F5FB0346082BFAD105480CF0A6
:10151000D1FB04480CF002FC0020FFF783FC00BF65
:1015200080BD00BF00C2EB0B80B592B000AF07F1E9
:101530003C0300221A605A609A6007F128030022D7
:101540001A605A609A60DA601A6107F11803002283
:101550001A605A609A60DA603B4600221A605A604C
:101560009A60DA601A615A614FF48070FFF7E4FC08
:101570000420FFF7B1FC0220FFF7AEFC01233B6023
:1015800003237B6000233B613B46194684480BF0F4
:101590003AF902233B6003237B6000233B613B4617
:1015A00019467F480BF02FF904233B6003237B602F
:1015B00000233B613B46194679480BF024F9082388
:1015C0003B6003237B6000233B613B461946744824
:1015D0000BF019F910233B6003237B6000233B6170
:1015E0003B4619466E480BF00EF920233B6003235F
:1015F0007B6000233B613B46194669480BF003F9C9
:1016000001233B6003237B6000233B613B4619467B
:1016100064480BF0F8F802233B6003237B6000234F
:101620003B613B4619465F480BF0EDF80022002174
:101630005D48FFF779FA002200215B48FFF778F94F
:10164000002200215848FFF74BFA4FF48072002126
:101650005548FFF791F9002200215348FFF7B0F9F0
:101660004FF4806200215048FFF7CEF94FF400623A
:1016700000214D48FFF7ECF94FF4005200214A4891
:10168000FFF70AFA00214848FFF772FA0023FB63CC
:1016900000233B644FF480737B6407F13C031946DD
:1016A00042480AF037FF0023BB624FF4E003FB62BD
:1016B00000233B6300237B634FF44073BB6307F15C
:1016C0002803194639480AF051FF00213748FFF72F
:1016D000D0F84FF48033BB610023FB6107F118039E
:1016E000194633480AF0CEFE0A224FF400712F4803
:1016F000FFF789F801220A212C48FFF7CDF82D4A7F
:1017000040F205212948FFF77EF8012229492748A0
:10171000FFF7C2F8284A40F20A212448FFF773F87D
:10172000012225492148FFF7B7F8244A40F20F214A
:101730001E48FFF768F8012220491C48FFF7ACF863
:101740001F4A4FF405711948FFF75DF801221C4943
:101750001648FFF7A1F81B4A40F219211348FFF77A
:1017600052F8012217491148FFF796F8164A4FF42C
:1017700080710E48FFF747F8012213490B48FFF725
:101780008BF8124A40F205110848FFF73CF8012295
:101790000E490648FFF780F800BF4837BD4680BDB8
:1017A00000080240000402400064024000200140A2
:1017B000002301400B0030000C0060000D00900081
:1017C0000E00C0000F00F000080080030900B00305
:1017D00080B58EB000AF07F12C0300221A605A606A
:1017E0009A6007F1180300221A605A609A60DA6062
:1017F0001A613B4600221A605A609A60DA601A61E8
:101800005A614FF40070FFF797FB0120FFF764FB6C
:1018100004233B6003237B6000233B613B46194666
:101820003E480AF0F0FF08233B6003237B6000235F
:101830003B613B46194639480AF0E5FF4FF000721C
:1018400002213748FFF770F9002202213448FFF7E0
:101850006FF8002202213248FFF742F94FF48072FC
:1018600002212F48FFF788F8002202212C48FFF7B9
:10187000A7F84FF4806202212948FFF7C5F84FF41A
:10188000006202212648FFF7E3F84FF400520221DC
:101890002348FFF701F902212148FFF769F90023E6
:1018A000FB6200233B634FF480737B6307F12C03DF
:1018B00019461C480AF02EFE0023BB614FF480132A
:1018C000FB6100233B6200237B624FF44073BB62E9
:1018D00007F11803194613480AF048FE4FF48061D7
:1018E0001048FEF7C6FF104A4FF400710D48FEF78E
:1018F0008AFF01220C490B48FEF7CEFF0B4A40F24B
:1019000005210848FEF77FFF012208490548FEF738
:10191000C3FF00BF3837BD4680BD00BF0000024096
:1019200000640240002101400300900202006002B6
:1019300080B58EB000AF07F12C0300221A605A6008
:101940009A6007F1180300221A605A609A60DA6000
:101950001A613B4600221A605A609A60DA601A6186
:101960005A614FF48060FFF7E7FA0120FFF7B4FAFD
:1019700002233B6003237B6000233B613B46194607
:1019800019480AF040FF0023FB6200233B63002359
:101990007B6307F12C03194614480AF0BBFD0023B2
:1019A000BB610023FB6100233B6200237B620023B9
:1019B000BB6207F1180319460C480AF0D7FD4FF433
:1019C00080610A48FEF755FF094A4FF40071074845
:1019D000FEF719FF002206490448FEF75DFF00BF2D
:1019E0003837BD4680BD00BF0000024000220140E4
:1019F0000100300280B58EB000AF07F11C03002259
:101A00001A605A609A60DA601A615A619A613B1DE5
:101A100000221A605A609A60DA601A615A614FF4C3
:101A20004030FFF7E3F90220FFF756FA40237B60CE
:101A30000223BB600323FB6001233B6100237B6126
:101A40000423BB613B1D194621480AF0DCFE8023BC
:101A50007B600223BB600323FB6001233B61002307
:101A60007B610423BB613B1D194619480AF0CBFE7C
:101A70004FF40010FFF748FA1648FFF7F1F800227C
:101A800000211448FFF7C4F81248FFF7D9F81148AD
:101A9000FFF7AEF80F48FFF79BF80023FB610E4BF2
:101AA0003B6200237B620023BB620023FB620023B6
:101AB0003B6300237B6307F11C03194605480AF0CA
:101AC000B9FF0448FFF774F800BF3837BD4680BD42
:101AD0000004024000540040FF63106080B590B0E5
:101AE00000AF07F118032822002118460DF084F8F2
:101AF0003B4600221A605A609A60DA601A615A61A5
:101B00004FF48050FFF718FA0120FFF7E5F9102392
:101B10003B6002237B600323BB600023FB60002348
:101B20003B6105237B613B46194630480AF06BFE5A
:101B300020233B6002237B600323BB600023FB6008
:101B400000233B6105237B613B46194627480AF089
:101B50005AFE40233B6002237B600323BB600023CB
:101B6000FB6000233B6105237B613B4619461F4810
:101B70000AF049FE80233B6002237B600323BB60A5
:101B80000023FB6000233B6105237B613B46194634
:101B900016480AF038FE0023BB614FF48273FB61E4
:101BA0004FF4E0633B6200237B620023BB620023AF
:101BB000FB6200233B6300237B630023BB6307239B
:101BC000FB6307F11803194609480BF00BFB0021D2
:101BD0000748FFF733FA0648FFF743FA0448FFF7D0
:101BE0001DFA00BF4037BD4680BD00BF0000024067
:101BF0000030014080B590B000AF07F118032822F3
:101C0000002118460CF0F8FF3B4600221A605A608B
:101C10009A60DA601A615A614FF48040FFF774F9F4
:101C20000220FFF759F94FF400533B6002237B6019
:101C30000323BB600023FB6000233B6105237B6122
:101C40003B46194641480AF0DEFD4FF480433B60B5
:101C500002237B600323BB600023FB6000233B6106
:101C600005237B613B46194638480AF0CCFD4FF40A
:101C700000433B6002237B600323BB600023FB60C7
:101C800000233B6105237B613B4619462F480AF040
:101C9000BAFD4FF0905201212D48FEF745FF00227A
:101CA00001212B48FEF744FE4FF440320121284821
:101CB000FEF716FF4FF4807201212548FEF75CFE07
:101CC000002201212248FEF77BFE4FF480620121B1
:101CD0001F48FEF799FE4FF4006201211C48FEF7F1
:101CE000B7FE4FF4005201211948FEF7D5FE01213D
:101CF0001748FEF73DFF0023BB614FF48273FB6181
:101D00004FF470633B6200237B620023BB624FF49D
:101D10000073FB6200233B6300237B630023BB63F0
:101D20000723FB6307F1180319460A480BF05AFA18
:101D300000210848FFF782F90648FFF792F90548A5
:101D4000FFF76CF900BF4037BD4680BD000402407C
:101D5000006002400038004080B590B000AF07F14D
:101D600018032822002118460CF046FF3B460022AB
:101D70001A605A609A60DA601A615A614FF4004042
:101D8000FFF7C2F80420FFF7A7F84FF480633B6029
:101D900002237B600323BB600023FB6000233B61C5
:101DA00006237B613B46194628480AF02CFD4FF478
:101DB00000633B6002237B600323BB600023FB6066
:101DC00000233B6106237B613B4619461F480AF00E
:101DD0001AFD4FF480533B6002237B600323BB60FA
:101DE0000023FB6000233B6106237B613B461946D1
:101DF00016480AF008FD0023BB614FF48273FB61B3
:101E00004FF4E0633B6200237B620023BB624FF42C
:101E10000073FB6200233B6300237B630023BB63EF
:101E20000723FB6307F11803194609480BF0DAF999
:101E300000210748FFF702F90548FFF712F90448A7
:101E4000FFF7ECF800BF4037BD4680BD00080240F8
:101E5000003C004080B590B000AF07F11803282285
:101E6000002118460CF0C8FE3B4600221A605A605A
:101E70009A60DA601A615A614FF40050FFF75CF81B
:101E80001020FFF729F84FF480533B6002237B605A
:101E90000323BB600023FB6000233B6105237B61C0
:101EA0003B46194628480AF0AEFC4FF400533B600D
:101EB00002237B600323BB600023FB6000233B61A4
:101EC00005237B613B4619461F480AF09CFC4FF4F2
:101ED00080433B6002237B600323BB600023FB60E5
:101EE00000233B6105237B613B46194616480AF0F7
:101EF0008AFC0023BB614FF48273FB614FF4E06303
:101F00003B6200237B620123BB624FF40073FB62E0
:101F100020233B6300237B630023BB630723FB6316
:101F200007F11803194609480BF05CF9002107482E
:101F3000FFF784F80548FFF7A4F80448FFF76EF8A8
:101F400000BF4037BD4680BD001002400034014054
:101F500080B590B000AF07F1180328220021184681
:101F60000CF04AFE3B4600221A605A609A60DA6022
:101F70001A615A614FF40010FEF7DEFF0220FEF7EF
:101F8000ABFF08233B6002237B600323BB6000237D
:101F9000FB6000233B6108237B613B4619465748A1
:101FA0000AF031FC10233B6002237B600323BB60FB
:101FB0000023FB6000233B6108237B613B461946FD
:101FC0004E480AF020FC20233B6002237B60032361
:101FD000BB600023FB6000233B6108237B613B4621
:101FE000194646480AF00FFC4FF00072052144489C
:101FF000FEF79AFD402205214148FEF799FC4FF477
:10200000403205213E48FEF76BFD002205213C4889
:10201000FEF7B2FC002205213948FEF7D1FC4FF44F
:10202000806205213648FEF7EFFC00220521344886
:10203000FEF70EFD002205213148FEF72DFD05219A
:102040002F48FEF795FD4FF0007206212C48FEF751
:102050006BFD002206212A48FEF76AFC4FF440324D
:1020600006212748FEF73CFD002206212448FEF702
:1020700083FC002206212248FEF7A2FC4FF4806276
:1020800006211F48FEF7C0FC002206211C48FEF76F
:10209000DFFC002206211A48FEF7FEFC0621184844
:1020A000FEF766FD0023BB614FF48273FB614FF4C2
:1020B000E0633B6200237B620023BB624FF400734A
:1020C000FB6200233B6300237B630023BB63072386
:1020D000FB6307F1180319460A480BF083F8002147
:1020E0000848FEF7ABFF0748FEF7BBFF0548FEF7C1
:1020F00095FF00BF4037BD4680BD00BF00040240D1
:10210000006402400054014080B586B000AF3B1D22
:1021100000221A605A609A60DA601A610120FEF7A4
:102120000BFFFEF7E7FA0346002200211846FEF7F0
:1021300037FB034619461920FEF708FB1920FEF766
:10214000E7FA0023BB800023BB604FF6FF73FB6000
:1021500000233B6100237B613B1D19460C480BF0BB
:1021600035F90B48FEF79DFF00210948FFF74CF8B1
:1021700000210748FFF75EF800210548FFF76DF8DA
:102180000348FFF77DF800BF1837BD4680BD00BF8C
:102190000000014080B586B000AF3B1D00221A60F0
:1021A0005A609A60DA601A610120FEF7ADFEFEF710
:1021B000A1FA0346002202211846FEF7F1FA03466F
:1021C00019461C20FEF7C2FA1C20FEF7A1FA0023D4
:1021D000BB800023BB604FF0FF33FB6000233B61FB
:1021E0003B1D19464FF080400BF0F0F84FF0804057
:1021F000FEF757FF00214FF08040FFF705F8002160
:102200004FF08040FFF716F84FF08040FFF738F8A6
:1022100000BF1837BD4680BD80B594B000AF07F150
:102220003C0300221A605A609A60DA601A6107F172
:102230001C032022002118460CF0DEFC3B1D00226E
:102240001A605A609A60DA601A615A610420FEF7D7
:102250005BFE0A23BB8700233B644CF250337B6454
:102260004FF40073BB6407F13C03194655480BF06B
:10227000ADF85448FEF715FF00215248FEF7C4FFA1
:1022800001215048FEF770FF6023FB6100233B6291
:1022900000237B620023BB620023FB6207F11C0367
:1022A0001A46012147480BF02BF901214548FEF75A
:1022B00009FF10214348FEF757FF07F11C031A4698
:1022C000102140480BF01CF910213E48FEF7FAFEA1
:1022D0004FF480713B48FEF747FF07F11C031A4695
:1022E0004FF4807137480BF00BF94FF4807135488B
:1022F000FEF7E8FE4FF480513248FEF735FF07F154
:102300001C031A464FF480512E480BF0F9F84FF495
:1023100080512C48FEF7D6FE00212A48FEF78AFF9E
:102320002848FEF7ADFF0820FEF7D6FD4FF4805396
:102330007B600223BB600023FB6000233B61002322
:102340007B610223BB613B1D19461F480AF05BFA03
:102350004FF400537B600223BB600023FB6000232B
:102360003B6100237B610223BB613B1D194616487C
:102370000AF049FA4FF480437B600223BB600023DC
:10238000FB6000233B6100237B610223BB613B1D9B
:1023900019460D480AF037FA4FF400437B600223D8
:1023A000BB600023FB6000233B6100237B610223B1
:1023B000BB613B1D194604480AF025FA00BF50379F
:1023C000BD4680BD00080040000C024080B58EB0C4
:1023D00000AF07F11C0300221A605A609A60DA60AD
:1023E0001A615A619A613B1D00221A605A609A6014
:1023F000DA601A615A614FF04050FEF7DDFC4FF091
:102400008040FEF781FD1020FEF766FD80237B6093
:102410000223BB600323FB6000233B6100237B613D
:102420000823BB613B1D194621480AF0ECF94FF423
:1024300080737B600223BB600323FB6000233B614E
:1024400000237B610823BB613B1D194618480AF035
:10245000DAF9FEF74FF9034600220B211846FEF782
:102460009FF9034619465220FEF770F95220FEF7F5
:102470004FF94FF4E133FB6100233B6200237B62A1
:102480000023BB620C23FB6200233B6300237B63BE
:1024900007F11C03194607480BF052FB0548FEF7ED
:1024A0005AFF0448FEF7FCFE00BF3837BD4680BD2A
:1024B000001002400078004080B58EB000AF07F1F8
:1024C0001C0300221A605A609A60DA601A615A612D
:1024D0009A613B1D00221A605A609A60DA601A61A4
:1024E0005A614FF44030FEF74DFC1020FEF724FDFA
:1024F0000120FEF7F1FC4FF400737B600223BB6008
:102500000323FB6000233B6100237B610723BB6146
:102510003B1D19462A480AF076F94FF480637B6028
:102520000223BB600323FB6000233B6100237B612C
:102530000723BB613B1D194621480AF064F94FF49B
:1025400080537B600223BB600323FB6000233B615D
:1025500000237B610723BB613B1D194618480AF025
:1025600052F94FF4E133FB6100233B6200237B62AD
:102570000023BB620C23FB6200233B6300237B63CD
:1025800007F11C0319460F480BF0DAFA0D48FEF765
:10259000BFFE00210B48FEF7CBFE00210948FEF7E5
:1025A000A3FE00210748FEF78BFE0648FEF7D3FE88
:1025B0000448FEF775FE00BF3837BD4680BD00BF3A
:1025C000000002400010014080B58EB000AF07F15E
:1025D0001C0300221A605A609A60DA601A615A611C
:1025E0009A613B1D00221A605A609A60DA601A6193
:1025F0005A614FF44010FEF7C5FB4FF48020FEF700
:1026000083FC0220FEF768FC4FF480637B600223AA
:10261000BB600323FB6001233B6100237B61072335
:10262000BB613B1D194618480AF0EDF8FEF762F849
:102630000346002200211846FEF7B2F80346194669
:102640002720FEF783F82720FEF762F84FF4E133E6
:10265000FB6100233B6200237B620023BB620823F3
:10266000FB6200237B6307F11C03194607480BF04C
:1026700067FA0648FEF785FE0448FEF711FE00BF24
:102680003837BD4680BD00BF00040240004800400E
:1026900080B58EB000AF07F11C0300221A605A60AB
:1026A0009A60DA601A615A619A613B1D00221A60D1
:1026B0005A609A60DA601A615A614FF04060FEF722
:1026C00061FB2020FEF738FC0420FEF705FC4023C8
:1026D0007B600223BB600323FB6000233B6100237C
:1026E0007B610823BB613B1D194621480AF08BF82A
:1026F00080237B600223BB600323FB6000233B61DC
:1027000000237B610823BB613B1D194618480AF072
:102710007AF8FDF7EFFF034600220B211846FEF77B
:102720003FF8034619464720FEF710F84720FDF70B
:10273000EFFF4FF4E133FB6100233B6200237B6238
:102740000023BB620C23FB6200233B6300237B63FB
:1027500007F11C03194607480BF0F2F90548FEF78C
:10276000FAFD0448FEF79CFD00BF3837BD4680BD2A
:10277000000802400014014080B500AF4FF4800013
:10278000FEF7AAFB4FF40010FEF7A6FBFDF7B2FF21
:102790000346002200211846FEF702F803461946B8
:1027A0000C20FDF7D3FF0C20FDF7B2FFFDF7A2FFD1
:1027B000034600220A211846FDF7F2FF0346194698
:1027C0003820FDF7C3FF3820FDF7A2FFFDF792FF89
:1027D000034600220A211846FDF7E2FF0346194688
:1027E0003A20FDF7B3FF3A20FDF792FFFDF782FF95
:1027F0000346002209211846FDF7D2FF0346194679
:102800004420FDF7A3FF4420FDF782FFFDF772FF90
:102810000346002201211846FDF7C2FF0346194670
:102820004520FDF793FF4520FDF772FF00BF80BDF7
:1028300080B586B000AF3B4600221A605A609A60AD
:10284000DA601A615A611020FEF746FB0420FEF799
:1028500043FB8020FEF740FB0120FEF73DFB0220FA
:10286000FEF73AFB0820FEF737FB0421BF48FEF7CE
:10287000B2FD0821BD48FEF7AEFD1021BB48FEF7B2
:10288000AAFD2021B948FEF7A6FD4021B748FEF772
:10289000A2FD4FF40051B648FEF79DFD4FF4804174
:1028A000B348FEF798FD4FF40041B148FEF793FDA1
:1028B0004FF40061AD48FEF78EFD4FF40061AD4866
:1028C000FEF789FD4FF40041AA48FEF784FD01217F
:1028D000A948FEF780FD0221A748FEF77CFD1021E4
:1028E000A548FEF778FD2021A348FEF774FD40219E
:1028F000A148FEF770FD0421A048FEF75EFD4FF4ED
:1029000080619A48FEF759FD4FF400419748FEF761
:1029100054FD4FF480519948FEF74FFD4FF48071FC
:102920009548FEF74AFD4FF400719348FEF745FDC8
:102930004FF480619048FEF740FD04218E48FEF779
:102940003CFD80218C48FEF738FD4FF480718B48A8
:10295000FEF733FD4FF400718848FEF72EFD01218C
:102960008248FEF72AFD02218048FEF726FD042357
:102970003B6001237B600023BB600023FB600023DE
:102980003B613B461946794809F03DFF08233B600F
:1029900001237B600023BB600023FB6000233B61BD
:1029A0003B461946714809F02EFF10233B60012376
:1029B0007B600023BB600023FB6000233B613B4640
:1029C00019466A4809F01FFF20233B6001237B6002
:1029D0000023BB600023FB6000233B613B4619469C
:1029E000624809F010FF40233B6001237B60002315
:1029F000BB600023FB6000233B613B4619465B48FC
:102A000009F001FF4FF400533B6001237B6000237A
:102A1000BB600023FB6000233B613B4619465448E2
:102A200009F0F1FE4FF480433B6001237B600023FB
:102A3000BB600023FB6000233B613B4619464C48CA
:102A400009F0E1FE4FF400433B6001237B6000236B
:102A5000BB600023FB6000233B613B4619464448B2
:102A600009F0D1FE04233B6001237B600023BB609F
:102A70000023FB6000233B613B4619463F4809F0B9
:102A8000C2FE4FF480633B6001237B600023BB6088
:102A90000023FB6000233B613B461946334809F0A5
:102AA000B2FE4FF400633B6001237B600023BB60F8
:102AB0000023FB6000233B613B4619462B4809F08D
:102AC000A2FE4FF400433B6001237B600023BB6008
:102AD0000023FB6000233B613B461946234809F075
:102AE00092FE4FF480533B6001237B600023BB6068
:102AF0000023FB6000233B613B4619461F4809F059
:102B000082FE4FF480733B6001237B600323BB6034
:102B10000023FB6000233B613B461946164809F041
:102B200072FE4FF400733B6001237B600323BB60A4
:102B30000023FB6000233B613B4619460E4809F029
:102B400062FE4FF480633B6001237B600323BB6024
:102B50000023FB6000233B613B461946064809F011
:102B600052FE4FF400633B600AE000BF00100240D9
:102B70000008024000000240000C02400004024035
:102B800000237B6000233B613B4619467E4809F0E9
:102B90003AFE4FF480733B6000237B6000233B616F
:102BA0003B461946794809F02EFE4FF400733B600E
:102BB00000237B6000233B613B461946734809F0C4
:102BC00022FE4FF480733B6000237B6000233B6157
:102BD0003B4619466E4809F016FE4FF400633B6011
:102BE00001237B600023BB600023FB6000233B616B
:102BF0003B461946664809F006FE4FF400433B6029
:102C000001237B600023BB600023FB6000233B614A
:102C10003B4619465E4809F0F6FD01233B6001235F
:102C20007B600023BB600023FB6000233B613B46CD
:102C30001946554809F0E7FD02233B6001237B60FC
:102C40000023BB600023FB6000233B613B46194629
:102C50004D4809F0D8FD04233B6001237B6000232D
:102C6000BB600023FB6000233B613B46194646489E
:102C700009F0C9FD08233B6000237B6000233B6112
:102C80003B461946404809F0BEFD10233B60012336
:102C90007B600023BB600023FB6000233B613B465D
:102CA0001946394809F0AFFD20233B6001237B60C2
:102CB0000023BB600023FB6000233B613B461946B9
:102CC000314809F0A0FD40233B6001237B600023D5
:102CD000BB600023FB6000233B613B4619462A484A
:102CE00009F091FD80233B6001237B600023BB60E2
:102CF0000023FB6000233B613B461946224809F054
:102D000082FD4FF480733B6001237B600023BB6036
:102D10000023FB6000233B613B4619461D4809F038
:102D200072FD4FF400733B6001237B600023BB60A6
:102D30000023FB6000233B613B461946154809F020
:102D400062FD01233B6001237B600023BB60002305
:102D5000FB6000233B613B4619460F4809F053FDD9
:102D600002233B6001237B600023BB600023FB60E8
:102D700000233B613B461946074809F044FD00BF6C
:102D80001837BD4680BD00BF000C0240000802405D
:102D900000000240000402400010024080B400AF76
:102DA00000BFFDE780B400AF00BFFDE780B400AF17
:102DB00000BFFDE780B400AF00BFFDE780B400AF07
:102DC00000BFFDE780B400AF00BFBD465DF8047BE7
:102DD000704780B400AF00BFBD465DF8047B70470C
:102DE00080B400AF00BFBD465DF8047B704780B57E
:102DF00000AF09F0C7FA00BF80BD80B400AF012367
:102E00001846BD465DF8047B704780B582B000AFC0
:102E1000786039600BF050FF034616221A604FF0BD
:102E2000FF3318460837BD4680BD80B582B000AF7D
:102E300078604FF0FF317868FFF7E7FF00BFFDE7EC
:102E400080B586B000AFF860B9607A6000237B611E
:102E50000AE0AFF300800146BB685A1CBA60CAB2F0
:102E60001A707B6901337B617A697B689A42F0DB77
:102E70007B6818461837BD4680BD80B586B000AF68
:102E8000F860B9607A6000237B6109E0BB685A1C76
:102E9000BA601B781846AFF300807B6901337B6111
:102EA0007A697B689A42F1DB7B6818461837BD4621
:102EB00080BD80B483B000AF78604FF0FF33184618
:102EC0000C37BD465DF8047B704780B483B000AF1B
:102ED000786039603B684FF400525A60002318460E
:102EE0000C37BD465DF8047B704780B483B000AFFB
:102EF0007860012318460C37BD465DF8047B7047A7
:102F000080B485B000AFF860B9607A6000231846DD
:102F10001437BD465DF8047B7047000080B586B06D
:102F200000AF7860144A154BD31A7B617B693B6113
:102F3000134B1B68002B02D1114B124A1A60104B25
:102F40001A687B6813443A699A4207D20BF0B4FEC0
:102F500003460C221A604FF0FF3309E0084B1B6850
:102F6000FB60074B1A687B681344054A1360FB68D3
:102F700018461837BD4680BD000008200004000038
:102F8000AC430020B812012080B400AF064BD3F848
:102F90008830054A43F47003C2F8883000BFBD464C
:102FA0005DF8047B704700BF00ED00E0DFF834D02F
:102FB000FFF7EAFF0C480D490D4A002302E0D45800
:102FC000C4500433C4188C42F9D30A4A0A4C002373
:102FD00001E013600432A242FBD30BF073FEFEF754
:102FE00009FA7047000008200000002090430020EC
:102FF000882E010890430020B4120120FEE780B51E
:1030000082B000AF7860396004F088F803F0B4FF54
:103010007B6814330A220A21184609F06FF900BFB1
:103020000837BD4680BD000080B584B002AF78602F
:1030300039607B68002B03D100210E4803F0CCFBE4
:1030400078683B685A683B689B68009313460A4A55
:103050000A4909F0C5F87B6814337A6815211846C7
:1030600009F02AF93B681A687B685A6200BF083782
:10307000BD4680BD0C240108E5300008FF2F000884
:1030800080B586B002AF02230093042308220949C9
:10309000094808F0A1FC094A3B1D07CA83E807005C
:1030A0003B1D19460648FFF7BFFF00BF1037BD465E
:1030B00080BD00BFF0430020F8430020880B0108CA
:1030C000B043002080B582B000AF0346FB71FB79AE
:1030D0001946034809F09EF800BF0837BD4680BD79
:1030E000B043002090B585B000AF786039603B6890
:1030F0001B88152B06D0152B35DC132B08D0142B71
:103100001DD030E004F014F803F07AFF01232BE027
:103110000023FB730EE0FB7BFC7B184604F00EF8EB
:10312000034619467B6804F1140223F81210FB7B56
:103130000133FB73FB7B072BEDD9012314E0002344
:10314000BB730DE0BB7B184603F002FF0346BA7B5E
:1031500019B27B681C3223F81210BB7B0133BB739E
:10316000BB7B012BEED9022318461437BD4690BD18
:1031700080B483B000AF7860054A7B681C3332F9B5
:10318000133018460C37BD465DF8047B704700BF0E
:10319000B043002080B483B000AF7860054A7B68FC
:1031A000143332F9133018460C37BD465DF8047BF2
:1031B000704700BFB043002080B500AF01F00EFFA4
:1031C00002F078FCFFF75CFF00F08EF802F0F8FAEE
:1031D00000BF80BD80B500AF012000F0A7F804203B
:1031E00001F02EFF022002F08BFC0320FFF76AFFA4
:1031F000062002F021FB00BF80BD80B500AF08F0C3
:10320000A1FF00BF80BD80B582B000AF786039609B
:1032100003F0E0FD04F0B8FD04F066FA7B680122DB
:1032200083F855207B68002283F85A2000BF0837B6
:10323000BD4680BD80B584B000AF786039607B68E2
:103240005B69FB607B685B6939687868984703460F
:10325000FB72FB7A002B08D1FB6806497868984717
:103260007B685B6904497868984700BF1037BD46A2
:1032700080BD00BF3C2401082824010880B584B02B
:1032800002AF786039607B68002B03D100211348BE
:1032900003F0A2FA78683B685A683B689B68009321
:1032A00013460F4A0F4908F09BFF3B681A687B687A
:1032B0005A617B6818337A681621184608F0FCFFBB
:1032C0007B681833184609F039F83B681A7B7B682D
:1032D00083F8502000BF0837BD4680BD1824010880
:1032E000353200080732000890B587B002AF1223CC
:1032F0000093022324220949094808F06DFB094B79
:103300003C460FCB84E80F003B4619460648FFF7C2
:10331000B5FF00BF1437BD4690BD00BFA0640020BC
:10332000C4640020940B01081444002080B582B0CE
:1033300000AF0346FB71FB791946034808F06AFFAA
:1033400000BF0837BD4680BD1444002080B582B060
:1033500000AF786039603B681B88182B12D0182B9F
:1033600015DC012B02D0172B07D010E07B68183337
:10337000184608F0E3FF01230AE07B68064A5A6119
:10338000002305E07B68054A5A61002300E0022320
:1033900018460837BD4680BDA133000865350008D2
:1033A00080B58CB002AF786039603B681B88013B08
:1033B0001A2B00F2C58001A252F823F0293400082C
:1033C00041350008A73400084135000841350008A0
:1033D00041350008413500084135000841350008F5
:1033E00041350008413500084135000841350008E5
:1033F00041350008413500084135000841350008D5
:1034000041350008413500084135000841350008C4
:103410002F3500084135000841350008B534000853
:10342000D5340008F5340008484B3B6284230093F0
:10343000474B3A6A4749484808F044FA7B681833D2
:10344000002244F62061184608F058FF7B6893F884
:103450002A301946786800F044FA786800F05AFA81
:103460007B68DB6AFB607B681B6B3B617B685B6B2B
:103470007B617B681B8DBB617B6893F82A30FB61A5
:103480007B6893F82B30184603F00EFD07F10C0310
:10349000184604F0F1F804F0DBFA7B68002283F8A8
:1034A000502001234DE07B681833184608F046FF92
:1034B000012346E07B6893F85030002B04D17B68F1
:1034C000012283F8502003E07B68032283F8502018
:1034D000012336E07B6893F85030012B04D17B68E0
:1034E000022283F8502003E07B68032283F85020F7
:1034F000012326E07B6893F85030022B04D17B68CF
:10350000052283F8502003E07B68032283F85020D3
:103510000E4B7B62BC2300930D4B7A6A0F490E4819
:1035200008F0D0F97B680E4A5A61002309E07B68F5
:10353000042283F850207B68094A5A61002300E086
:10354000022318462837BD4680BD00BFA40B0108E2
:10355000AC0B0108D40B0108B8650020F40B01087E
:103560004D33000880B582B000AF786039603B68A9
:103570001B88013B1D2B00F2A88001A252F823F00A
:10358000F9350008CB360008CB360008CB360008EA
:10359000CB360008CB360008CB360008CB36000807
:1035A000CB360008CB360008CB360008CB360008F7
:1035B000CB360008CB360008CB360008CB360008E7
:1035C000CB360008CB360008CB360008CB360008D7
:1035D000CB360008CB360008CB360008CB360008C7
:1035E000CB360008CB360008CB3600084D36000835
:1035F000673600081F3600087B681833184608F045
:103600009DFE7B689B6C334A93607B685B6C314AA0
:1036100053603149314808F027FE012356E02D4B15
:103620009B68B3F5805F28BF4FF480539AB22C4B50
:103630001A80284B5B685B00294A128852001146A9
:10364000284A184604F0D2FB01233FE0264B1868B5
:10365000234B1B881A467B6893F84D30214902F0B2
:103660005FF8012332E01B4B9B681D4A12889B1AAE
:10367000184A9360174B5B68194A12881344154A1D
:103680005360144B9B68002B16D0124B9B68B3F50C
:10369000805F28BF4FF480539AB2114B1A800D4BB4
:1036A0005B685B000E4A1288520011460D4A1846AC
:1036B00004F09CFB012309E00C49084808F0D4FD04
:1036C0007B680B4A5A61002300E002231846083742
:1036D000BD4680BD7844002078240108186500208C
:1036E0008864002088440020040000207C24010815
:1036F0004D33000880B584B000AFF860B9607A60DF
:10370000FB70FB687A681A64FB68BA685A64FB68E5
:103710007A689A64FB68FA7883F84D20074B1B6837
:103720004FF6FF72A3F84220FB680549184608F0DF
:103730009BFD002318461037BD4680BD04000020C5
:103740006424010880B582B000AF78607B68DA6DD0
:103750007B681A647B6800225A647B68DA6D7B6838
:103760009A647B68012283F84D20084B1B684FF652
:10377000FF72A3F842207B680549184608F074FDE3
:10378000002318460837BD4680BD00BF0400002056
:103790006424010880B584B000AFF860B9607A6035
:1037A000BB68012B02D87B68642B01D9062318E083
:1037B000FB6893F85530002B06D0002003F0C6FAC2
:1037C000FB68002283F855207968B86803F0ACFBE9
:1037D0007B68D9B2FA68BB68134451330A461A7041
:1037E000002318461037BD4680BD80B582B000AFBB
:1037F000786039603B68242B01D9062314E07B688C
:1038000093F85530012B06D0012003F09FFA7B6816
:10381000012283F85520386803F012FB3B68DAB2C6
:103820007B6883F85320002318460837BD4680BDC7
:1038300080B582B000AF78607B6893F85530012B7B
:1038400006D0012003F082FA7B68012283F855201C
:1038500003F006FB7B68FF2283F853200023184601
:103860000837BD4680BD80B582B000AF7860396052
:103870003B68082B01D9062314E07B6893F8553088
:10388000012B06D0012003F061FA7B68012283F846
:103890005520386803F0EEFA3B68DAB27B6883F8AB
:1038A0005420002318460837BD4680BD80B582B03D
:1038B00000AF78607B6893F85530012B06D001206B
:1038C00003F044FA7B68012283F8552003F0E2FA02
:1038D0007B68FF2283F85420002318460837BD4632
:1038E00080BD80B582B000AF786039603B68242B22
:1038F00001D906230AE003F087FF386803F0ACFF24
:103900003B68DAB27B6883F85620002318460837F4
:10391000BD4680BD80B582B000AF786003F088FFFF
:10392000002318460837BD4680BDB0B483B000AF51
:10393000786039603B681B88002B04D03B681B888B
:10394000B3F57A7F01D9062328E03B689B78002BEA
:1039500003D03B689B78242B01D906231EE03B68EB
:10396000DB78642B01D9062318E03B681B69B3F5AB
:10397000006F01D9062311E03B685B69002B01D180
:1039800006230BE07B683A6803F1280415460FCD47
:103990000FC495E8030084E80300002318460C37A1
:1039A000BD46B0BC7047B0B483B000AF786039603A
:1039B0003A687B68154603F128040FCC0FC594E8DC
:1039C000030085E8030000BF0C37BD46B0BC70475C
:1039D00080B584B000AF78607B682833FB60FB68FB
:1039E0001B88002B04D0FB681B88B3F57A7F01D9B4
:1039F00006231CE0FB689B78002B03D0FB689B78B8
:103A0000242B01D9062312E0FB68DB78642B01D953
:103A100006230CE0FB681B69B3F5006F01D9062390
:103A200005E07B680449184608F01EFC0023184690
:103A30001037BD4680BD00BF5024010880B500AFDF
:103A4000054BDB69184607F072FF034BDB6918462C
:103A500007F08FFF00BF80BDE064002080B400AF9E
:103A6000BFF34F8F00BF064BDB6803F4E0620449ED
:103A7000044B1343CB60BFF34F8F00BF00BFFDE784
:103A800000ED00E00400FA0580B588B000AFF860F2
:103A9000B9607A6007F11403074A0A2118460AF050
:103AA00025FF07F114031946F86806F0D4FA00BFA1
:103AB0002037BD4680BD00BF0415010880B584B025
:103AC00000AFF860B9607A60FFF7C8FF80B588B0D2
:103AD00000AFF860B9607A600023BB610023FB820D
:103AE000B86806F0A9FB03467B757B7D012B04D0EB
:103AF0002E49F86807F026FD54E00121B86806F069
:103B000065FB38613B691B78612B22D10023FB7771
:103B10001BE0FB7F1846FFF73DFB0346FB82B7F92E
:103B2000163013F5004F06D1FB7F1A462049F8687E
:103B300007F008FD06E0FA7FB7F916301D49F8686E
:103B400007F000FDFB7F0133FB77FB7F072BE0D9FC
:103B500028E03B691B782F2B20D93B691B78372B3A
:103B60001CD838690AF0EAF80346BB61B869FFF768
:103B700011FB0346FB82B7F9163013F5004F05D150
:103B8000BA690B49F86807F0DDFC0BE0B7F91630AD
:103B9000BA690849F86807F0D5FC03E00649F868F7
:103BA00007F0D0FC2037BD4680BD00BF0C150108D2
:103BB0002C150108401501085415010880B588B07E
:103BC00000AFF860B9607A60B86806F035FB03466C
:103BD000FB61FB69012B04D01549F86807F0B2FCC2
:103BE00023E0144B1B68184602F0F4FA034683F0F6
:103BF0000103DBB2002B04D00F49F86807F0A2FCE8
:103C000013E00121B86806F0E1FAB861B8690AF07A
:103C100095F803467B61074B1B687969184602F0EB
:103C200098FD0649F86807F08DFC2037BD4680BD39
:103C30000C1501080800002068150108B4150108DA
:103C400080B584B000AFF860B9607A600A4B1B6839
:103C5000184602F097FD0346002B04D00749F86888
:103C600007F070FC03E00649F86807F06BFC00BF42
:103C70001037BD4680BD00BF08000020B415010804
:103C8000BC15010880B588B000AFF860B9607A60F3
:103C9000B86806F0D1FA0346BB61BB69012B04D0BA
:103CA0003849F86807F04EFC69E0374B1B68184646
:103CB00002F090FA034683F00103DBB2002B04D03C
:103CC0003249F86807F03EFC59E00121B86806F077
:103CD0007DFA786100233B617B691B78612B25D1DC
:103CE0000023FB611EE0284B1B68F969184602F0AF
:103CF0002CFA38613B69002B0CD1234B1B68002246
:103D0000F969184602F041FAFA692149F86807F0A2
:103D100019FC04E0FA691F49F86807F013FCFB6915
:103D20000133FB61FB69032BDDD928E07B691B783C
:103D30002F2B24D97B691B78332B20D8786909F085
:103D4000FDFF0346FB61104B1B68F969184602F042
:103D5000FCF938613B69002B0CD10B4B1B6800222E
:103D6000F969184602F011FAFA690949F86807F08A
:103D7000E9FB04E0FA690749F86807F0E3FB20373C
:103D8000BD4680BD0C15010808000020C4150108BF
:103D90000C1601082016010880B588B000AFF86045
:103DA000B9607A60B86806F047FA0346FB61FB69C0
:103DB000012B04D01549F86807F0C4FB22E001216B
:103DC000B86806F003FAB861B86909F0B7FF0346AE
:103DD000FB82FB8AB3F5FA7F04D3FB8A40F6B83244
:103DE000934204D90A49F86807F0ACFB0AE0094B92
:103DF0001B68FA8A1146184602F05BFB0649F86810
:103E000007F0A0FB2037BD4680BD00BF3816010873
:103E10006016010808000020B415010880B586B0BE
:103E200000AFF860B9607A60084B1B68184602F072
:103E30007CF80346FB82FB8A1A460549F86807F0BE
:103E400081FB00BF1837BD4680BD00BF08000020C1
:103E50009416010880B588B000AFF860B9607A6048
:103E6000B86806F0E9F90346BB61BB69042B04D0CE
:103E70003149F86807F066FB5BE0304B1B68184679
:103E800002F0ACFA0346FB750023FB614AE0FB69D4
:103E90009BB201339BB21946B86806F097F9034606
:103EA000184609F04BFF0346D9B207F11002FB692F
:103EB00013440A461A7007F11002FB6913441B7879
:103EC000012B05D9FA691E49F86807F03BFB30E081
:103ED00007F11002FB6913441B78002B08D1174B24
:103EE0001B68FA69D2B21146184602F0B2FA16E01F
:103EF000FB7DFA699A4205D1FA691249F86807F020
:103F000021FB0CE00D4B1B68FA69D2B21146184632
:103F100002F07EFAFA690C49F86807F013FBFB69B6
:103F20000133FB61FB69032BB1D90849F86807F03D
:103F300009FB2037BD4680BDB816010808000020E7
:103F4000DC1601080417010828170108B415010838
:103F500080B586B000AFF860B9607A60134B1B681B
:103F6000184602F099FA0346FB7400237B6115E0C2
:103F7000FA7C7B6942FA03F303F00103002B05D0BE
:103F80007A690B49F86807F0DDFA04E07A690949B3
:103F9000F86807F0D7FA7B6901337B617B69032BF3
:103FA000E6D900BF00BF1837BD4680BD080000201D
:103FB000281701084017010880B58CB000AFF860E1
:103FC000B9607A60354B1B68184602F003F9034666
:103FD00083F00103DBB2002B04D03149F86807F00D
:103FE000B1FA58E0B86806F027F90346FB62FB6AAD
:103FF000032B04D02B49F86807F0A4FA4BE0012109
:10400000B86806F0E3F8B862B86A09F097FE0346AC
:104010007B627B6A032B04D92349F86807F092FA84
:1040200039E00221B86806F0D1F83862386A09F040
:1040300085FE0346FB61FB69012B04D91B49F86827
:1040400007F080FA27E00321B86806F0BFF8B861EE
:10405000B86909F073FE0346FB82FB8A40F6B8326A
:10406000934204D91249F86807F06CFA13E00B4B3D
:104070001868FB8AFA69796A02F0EBFA38613B69E1
:10408000002B04D00B49F86807F05CFA03E00A49FA
:10409000F86807F057FA3037BD4680BD08000020A9
:1040A000581701087C170108A8170108CC17010848
:1040B000F0170108BC150108B415010880B58AB0D5
:1040C00000AFF860B9607A602A4B1B68184602F0AE
:1040D00081F8034683F00103DBB2002B04D02649AC
:1040E000F86807F02FFA41E0B86806F0A5F8034633
:1040F0007B627B6A022B04D02049F86807F022FA21
:1041000034E00121B86806F061F83862386A09F0D5
:1041100015FE0346FB61FB69032B04D91849F868B7
:1041200007F010FA22E00221B86806F04FF8B861F3
:10413000B86909F003FE03467B610E4B18687B6982
:10414000002B14BF01230023DBB21A46F96902F0E9
:104150001CF838613B69002B04D00A49F86807F065
:10416000F1F903E00849F86807F0ECF92837BD4693
:1041700080BD00BF08000020581701081C18010866
:10418000A8170108BC150108B415010880B58AB04C
:1041900000AFF860B9607A60B86806F04DF8034681
:1041A0003B623B6A022B04D03549F86807F0CAF934
:1041B00062E00121B86806F009F8F861314B1B682C
:1041C000184602F069F90346FB76FB691B786F2BF2
:1041D00007D1042387F827302B49F86807F0B2F994
:1041E0001EE0FB691B782F2B1AD9FB691B78332B38
:1041F00016D8F86909F0A2FD034687F82730FA7E41
:1042000097F8273042FA03F303F00103002B07D09D
:1042100097F827301A461D49F86807F093F92BE004
:104220000221B86805F0D2FF7861786909F086FD4F
:1042300003463B613B69B3F5FA7F04D33B6940F623
:10424000B832934204D91249F86807F07BF913E0B9
:104250000C4B1B6897F827201146184601F0CEFF3B
:10426000084B1B683A6992B21146184601F0DCFF10
:104270000849F86807F066F92837BD4680BD00BFD9
:104280003C18010808000020641801087C18010887
:1042900060160108B415010880B584B000AFF8605D
:1042A000B9607A60064B1B68184601F0E0FF0549CB
:1042B000F86807F047F900BF1037BD4680BD00BF62
:1042C00008000020B415010880B584B000AFF86084
:1042D000B9607A60064B1B68184602F059F8054928
:1042E000F86807F02FF900BF1037BD4680BD00BF4A
:1042F00008000020B415010880B586B000AFF86052
:10430000B9607A600F4B1B68184602F067F80346E5
:10431000FB750C4B1B68184602F06DF80346BB8218
:10432000FB7D042B04D10849F86807F00BF905E080
:10433000FA7DBB8A0549F86807F004F91837BD46CD
:1043400080BD00BF0800002064180108A018010803
:1043500080B588B000AFF860B9607A60B86805F0E1
:104360006BFF0346FB61FB69012B04D01249F8681F
:1043700007F0E8F81CE00121B86805F027FFB861F4
:10438000B86909F0DBFC0346FB75FB7D642B04D99F
:104390000A49F86807F0D6F80AE0094B1B68FA7D6D
:1043A0001146184602F0A1F80649F86807F0CAF865
:1043B0002037BD4680BD00BFCC180108F0180108A9
:1043C00008000020B415010880B586B000AFF86081
:1043D000B9607A60084B1B68184602F09CF80346E7
:1043E000FB75FB7D1A460549F86807F0ABF800BF7E
:1043F0001837BD4680BD00BF080000201419010811
:1044000080B588B000AFF860B9607A60B86805F030
:1044100013FF0346BB61BB69042B04D02649F8682F
:1044200007F090F845E00023FB613BE0FB699BB29D
:1044300001339BB21946B86805F0C8FE034618461A
:1044400009F07CFC0346D9B207F11402FB6913445E
:104450000A461A7007F11402FB6913441B78012BFA
:1044600005D9FA691549F86807F06CF821E007F1F9
:104470001402FB6913441B78002B08D1104B1B68F6
:10448000FA69D2B21146184602F073F807E00C4BF5
:104490001B68FA69D2B21146184602F049F8FB6966
:1044A0000133FB61FB69032BC0D90649F86807F0AB
:1044B00049F82037BD4680BD30190108DC160108D7
:1044C00008000020B415010880B586B000AFF86080
:1044D000B9607A60124B1B68184602F06DF803460B
:1044E000FB7400237B6113E0FA7C7B6942FA03F3DF
:1044F00003F00103002B04D00A49F86807F022F802
:1045000003E00949F86807F01DF87B6901337B6116
:104510007B69032BE8D900BF00BF1837BD4680BDBB
:1045200008000020581901087019010880B588B0EA
:1045300000AFF860B9607A60B86805F07DFE0346A8
:10454000FB61FB69012B04D00E49F86806F0FAFF05
:1045500015E00121B86805F039FEB861B86909F0C5
:10456000EDFB0346FB82084B1B68B7F9162011468A
:10457000184602F044F80549F86806F0E3FF2037D2
:10458000BD4680BD8C19010808000020B415010843
:1045900080B586B000AFF860B9607A600E4B1B68DA
:1045A000184602F03CF80346FB82B7F9163007EED6
:1045B000903AB8EEE77AF2EE046AC7EE267AB7EEE2
:1045C000E77A53EC172B0549F86806F0BBFF00BFEC
:1045D0001837BD4680BD00BF08000020B41901088F
:1045E00080B588B000AFF860B9607A60B86805F04F
:1045F00023FE0346FB61FB69012B04D01249F868D6
:1046000006F0A0FF1DE00121B86805F0DFFDB861EC
:10461000B86909F093FB03467B617B69072B04D9DA
:104620000A49F86806F08EFF0BE0094B1B687A69AF
:10463000D2B21146184601F0CCFF0649F86806F0E0
:1046400081FF2037BD4680BDD8190108F019010847
:1046500008000020B415010880B586B000AFF860EE
:10466000B9607A600023FB75084B1B68184601F09F
:10467000E3FF0346FB75FB7D1A460549F86806F023
:1046800061FF00BF1837BD4680BD00BF0800002095
:10469000101A010880B584B000AFF860B9607A6084
:1046A000064B1B68184601F04DFC0549F86806F0FA
:1046B00049FF00BF1037BD4680BD00BF0800002085
:1046C000B415010880B584B000AFF860B9607A60B5
:1046D000064B1B68184601F051FC0549F86806F0C6
:1046E00031FF00BF1037BD4680BD00BF080000206D
:1046F000B415010880B588B000AFF860B9607A6081
:10470000B86805F099FD0346FB61FB69012B04D0F5
:104710001349F86806F016FF1EE00121B86805F09D
:1047200055FDB861B86909F009FB0346FB82B7F98A
:104730001630642B04DD0B49F86806F003FF0BE02C
:10474000094B1B68B7F9162000211846FFF722F81D
:104750000649F86806F0F6FE2037BD4680BD00BF6A
:10476000201A0108481A01080C000020B41501089D
:1047700080B588B000AFF860B9607A60B86805F0BD
:104780005BFD0346FB61FB69012B04D01349F8680C
:1047900006F0D8FE1EE00121B86805F017FDB861EB
:1047A000B86909F0CBFA0346FB82B7F91630642BDF
:1047B00004DD0B49F86806F0C5FE0BE0094B1B68E9
:1047C000B7F9162001211846FEF7E4FF0649F868FC
:1047D00006F0B8FE2037BD4680BD00BF6C1A010848
:1047E000481A01080C000020B415010880B588B0F3
:1047F00000AFF860B9607A600023BB83B86805F049
:104800001BFD0346FB76FB7E012B04D02749F8688D
:1048100006F098FE46E00121B86805F0D7FC786103
:104820007B691B78612B1AD10023FB7713E0FB7F98
:104830001846FEF79DFC0346BB83FB7F002B01D18E
:104840001B4A00E01B4ABB8B1B49F86806F07AFE46
:10485000FB7F0133FB77FB7F012BE8D922E07B69EB
:104860001B782F2B1AD97B691B78312B16D87869C6
:1048700009F064FA0346FB74FB7C1846FEF778FCEB
:104880000346BB83FB7C002B01D1094A00E0094AA7
:10489000BB8B0949F86806F055FE03E00749F86844
:1048A00006F050FE2037BD4680BD00BF0C15010844
:1048B000B41A0108B81A0108BC1A010854150108F5
:1048C00080B588B000AFF860B9607A60B86805F06C
:1048D000B3FC0346FB61FB69012B04D01349F86864
:1048E00006F030FE1EE00121B86805F06FFCB861EB
:1048F000B86909F023FA78617B69242B02DC7B69B3
:10490000002B04DC0A49F86806F01CFE0AE0094B9B
:104910001B687A6911461846FEF767FF0649F86872
:1049200006F010FE2037BD4680BD00BFD81A010832
:10493000FC1A01080C000020B415010880B588B0ED
:1049400000AFF860B9607A60B86805F075FC03469E
:10495000FB61FB69012B04D01349F86806F0F2FDF6
:104960001EE00121B86805F031FCB861B86909F0B2
:10497000E5F978617B69082B02DC7B69002B04DC9C
:104980000A49F86806F0DEFD0AE0094B1B687A69FF
:1049900011461846FEF767FF0649F86806F0D2FD93
:1049A0002037BD4680BD00BF201B0108441B010805
:1049B0000C000020B415010880B584B000AFF86089
:1049C000B9607A60064B1B681846FEF731FF05494F
:1049D000F86806F0B7FD00BF1037BD4680BD00BFC8
:1049E0000C000020B415010880B584B000AFF86059
:1049F000B9607A60064B1B681846FEF757FF0549F9
:104A0000F86806F09FFD00BF1037BD4680BD00BFAF
:104A10000C000020B415010880B592B000AFF8601A
:104A2000B9607A60B86805F007FC03467B647B6C6C
:104A3000062B04D06949F86806F084FDCBE001211B
:104A4000B86805F0C3FB0346184609F077F903463A
:104A50003B643B6CB3F57A7F03D33B6C604A934273
:104A600004D96049F86806F06DFDB4E03B6C5E4A1D
:104A7000A2FB03239B093B640221B86805F0A6FB57
:104A80000346184609F05AF90346FB63FB6B002BFB
:104A900002D0FB6B242B04D95449F86806F052FD70
:104AA00099E00321B86805F091FB0346184609F028
:104AB00045F90346BB63BB6B642B04D94C49F868CA
:104AC00006F040FD87E00421B86805F07FFB03464F
:104AD000184609F033F903467B637B6B002B04D146
:104AE0004449F86806F02EFD75E07B6B4FF47A724E
:104AF00002FB03F37B630521B86805F067FB0346FF
:104B0000184609F01BF903463B633B6B002B04D1AD
:104B10003949F86806F016FD5DE03B6B4FF47A7298
:104B200002FB03F33B630621B86805F04FFB034625
:104B3000184609F003F90346FB62FB6A002B04D117
:104B40002E49F86806F0FEFC45E0FB6A4FF47A72E5
:104B500002FB03F3FB627A6B3B6B1A44FB6A134460
:104B60003A6C02FB03F3264AA2FB03239B0CBB62B5
:104B7000BB6AB3F5006F04D92249F86806F0E2FC7D
:104B800029E03B6C9BB23B82FB6BDBB2BB74BB6B23
:104B9000DBB2FB747B6B7B613B6BBB61FB6AFB61D4
:104BA000BB6A3B62184A3B6CB2FBF3F37B62174B68
:104BB0001B6807F1100211461846FEF7B6FE0346C1
:104BC000002B04D11249F86806F0BCFC03E011493F
:104BD000F86806F0B7FC4837BD4680BD641B010885
:104BE00000350C00C41B0108D34D6210EC1B0108FA
:104BF000081C0108281C01084C1C0108741C010831
:104C000083DE1B43981C010840420F000C0000206B
:104C1000B4150108BC150108F0B591B006AFF860F5
:104C2000B9607A60184B1B6807F1100211461846EC
:104C3000FEF7B9FE3B8A1A464FF47A7303FB02F47F
:104C4000BB7C1E46FB7C1D467B69104AA2FB0323EE
:104C50009B09BA690D49A1FB02129209F9690B4837
:104C6000A0FB01018909386A049003910292019323
:104C70000095334622460649F86806F063FC00BFFB
:104C80002C37BD46F0BD00BF0C000020D34D621094
:104C9000C01C010880B584B000AFF860B9607A60CC
:104CA000094B1B681846FEF793FE0346002B04D001
:104CB0000649F86806F046FC02E0054B01221A702E
:104CC00000BF1037BD4680BD0C0000205C1D0108F0
:104CD0001465002080B588B000AFF860B9607A60D4
:104CE000B86805F0A9FA0346FB61FB69032B04D001
:104CF0003349F86806F026FC5FE0324B1B6893F8F6
:104D00005030052B10D02F4B1B6893F85030032BDD
:104D10000AD02C4B1B6893F85030042B04D02A493E
:104D2000F86806F00FFC48E00121B86805F04EFA7B
:104D30000346184609F002F80346BB61BB69B3F5A8
:104D4000001F04D32149F86806F0FCFB35E002217E
:104D5000B86805F03BFA0346184608F0EFFF034633
:104D60007B61BB69C3F500137A699A4203D87B69FA
:104D7000B3F5007F08D2BB69C3F500131A46144986
:104D8000F86806F0DFFB18E00321B86805F01EFAAA
:104D90000346184608F0D2FF0346FB74FB7C012B48
:104DA00004D90C49F86806F0CDFB06E0054B1868FD
:104DB000FB7C7A69B969FEF79DFC2037BD4680BD52
:104DC0007C1D01080C000020B41D0108D41D010841
:104DD000001E01082C1E010880B584B000AFF860E9
:104DE000B9607A60084B1B78002B05D0074B1B6815
:104DF0001846FEF7A7FC04E00549F86806F0A2FB98
:104E000000BF1037BD4680BD146500200C00002097
:104E1000641E010880B400AF024B1846BD465DF821
:104E2000047B70478024010880B400AF2723184614
:104E3000BD465DF8047B704780B483B000AF7860F6
:104E40007B68DB6903F02003202B01D1012300E004
:104E5000002318460C37BD465DF8047B704780B4CC
:104E600083B000AF78607B685B6ADBB218460C37B2
:104E7000BD465DF8047B704780B500AF4FF480629B
:104E80000849094806F0CEFE4FF480520749084809
:104E900006F0C8FE064B044A0649074806F049FCDE
:104EA00000BF80BDF0650020C8650020F0690020CB
:104EB000DC65002000140140B8650020B0B588B062
:104EC00000AF1B4B3C1D1D460FCD0FC495E80700DE
:104ED00084E80700FFF79EFF0346BB61FFF7A4FFCE
:104EE0000346BB833B1D184604F073FF0346114A7B
:104EF0001360104B1B68002B05D101210E4801F0F7
:104F00006BFC012310E00B4B1B680C4A1A60094B29
:104F10001C683B1D184604F02BFF03461A4608493F
:104F2000204606F00FFB002318462037BD46B0BDD3
:104F3000A81E0108F479002028280108454F000820
:104F4000881E010880B582B000AF78600B46FB7008
:104F5000FB781946034806F06FFC00BF0837BD46D2
:104F600080BD00BFB865002080B584B002AF786016
:104F700039607B68002B03D10021154801F02CFC1F
:104F800078683B68DA683B681B6900931346114AEE
:104F9000114907F025F97B6820337A680621184605
:104FA00007F08AF93B685A687B68DA613B689A685F
:104FB0007B689A613B681A687B685A617B6820331A
:104FC000184607F0BBF900BF0837BD4680BD00BFDB
:104FD000282801089D5000086150000880B588B05D
:104FE00002AFFFF749FF022300931E233C220D4925
:104FF0000D4806F0F1FCFFF761FF0C4B7B600C4B9A
:105000001B68BB600B4BFB600B4B3B61064B7B6132
:105010003B1D19460948FFF7A7FF00BF1837BD46DB
:1050200080BD00BF606500209C650020E550000841
:10503000F4790020B86500205C6500201865002028
:1050400080B582B000AF0346FB71FB791946034877
:1050500007F0E0F800BF0837BD4680BD18650020A6
:1050600080B582B000AF786039607B68002B03D1D7
:105070000721094801F0B0FB7B689B69184606F0E0
:1050800074FB7B6820330A220A21184607F036F9A0
:1050900000BF0837BD4680BD2828010880B584B010
:1050A00000AF786039607B685B69FB607B685B6937
:1050B0003968786898470346FB72FB7A002B08D161
:1050C000FB680649786898477B685B69044978689B
:1050D000984700BF1037BD4680BD00BF3428010887
:1050E0003028010880B582B000AF786039607B68F5
:1050F000002B03D10321244801F06EFB3B68002BF9
:1051000003D10421204801F067FB3B681B88013B69
:10511000072B34D801A252F823F000BF3D510008FC
:105120007F5100084F5100087F5100087F5100084F
:105130005D5100086B510008755100087B682033F1
:105140000A220A21184607F0D9F8012318E07B68E3
:105150002033184607F0F2F8012311E00B4B1B68CF
:10516000184604F0E8FE01230AE07B68084A5A6109
:10517000002305E07B68074A5A61002300E0022310
:1051800018460837BD4680BD28280108F47900205C
:10519000295200083953000880B582B000AF0B488F
:1051A000FFF74AFE0346002B0BD00848FFF757FED7
:1051B0000346FB71064B1B68FA791146184604F04A
:1051C00097FE00BF0837BD4680BD00BF00140140F8
:1051D000F479002080B584B000AF78607B689B696B
:1051E000184606F0C6FBF860FB68002B08D0064B9B
:1051F0001B78002B04D07B680449184607F034F86C
:1052000000BF1037BD4680BDF07900203828010866
:1052100080B500AFFFF7C0FF0248FFF7DBFF00BF1C
:1052200080BD00BF1865002080B584B000AF7860F5
:1052300039600023FB603B681B88012B27D0092BBA
:1052400046D074E0786800F00BFA1BE07B689A693E
:105250007B6893F83D3019467B680B4493F83830EF
:105260001946104606F0E8FAF860FB68002B01D0FA
:1052700001235DE07B6893F83D300133DAB27B684F
:1052800083F83D207B6893F83D30042BDED97B68A2
:105290005B6B002BD6D11BE07B689A697B6893F827
:1052A0003D3019467B680B4493F838301946104658
:1052B00006F0C2FAF860FB68002B01D0012337E04A
:1052C0007B6893F83D300133DAB27B6883F83D2088
:1052D0007B6893F83D30042BDED924E0786800F039
:1052E000BFF91BE07B689A697B6893F83D301946EB
:1052F0007B680B4493F838301946104606F09CFA48
:10530000F860FB68002B01D0012311E07B6893F863
:105310003D300133DAB27B6883F83D207B6893F837
:105320003D30042BDED97B685B6B002BD6D102238A
:1053300018461037BD4680BD80B586B000AF786096
:1053400039603B681B88013B0A2B00F2FD8001A2FB
:1053500052F823F0815300084955000849550008C8
:1053600049550008495500084955000849550008A5
:10537000495500088954000829540008FF540008C2
:10538000744B1B6C5B00744A1A40744B13433B61B3
:105390003B691B0CDBB23B733B691B0ADBB27B73C3
:1053A0003B69DBB2BB730023FB750DE07B689A6938
:1053B000FB7D18333B4413F80C3C1946104606F0AD
:1053C0003BFAFB7D0133FB75FB7D022BEED9644973
:1053D000604806F049FF0123B7E0786800F015F94E
:1053E0001DE07B689A697B6893F8403019467B68BA
:1053F0000B4493F83E301946104606F01DFA03465A
:10540000002B04D0574B01221A7001239DE07B68CA
:1054100093F840300133DAB27B6883F840207B6830
:1054200093F84030012BDCD97B685B6B002BD4D127
:105430004D49484806F018FF012386E07B689A69C9
:105440007B6893F8403019467B680B4493F83E30F4
:105450001946104606F0F0F90346002B01D001234F
:1054600073E07B6893F840300133DAB27B6883F8ED
:1054700040207B685B6B002B06D13A4B00221A70F0
:105480003949344806F0F0FE7B6893F84030012B30
:10549000D4D92EE0786800F0B8F81AE07B689A69F1
:1054A0007B6893F8403019467B680B4493F83E3094
:1054B0001946104606F0C0F90346002B01D001231F
:1054C00043E07B6893F840300133DAB27B6883F8BD
:1054D00040207B6893F84030012BDFD97B685B6B01
:1054E000002B06D11F4B00221A701F49194806F0E5
:1054F000BBFE7B685B6B002BCCD1012325E07B6876
:10550000B3F842301B0A9BB2DBB23B737B68B3F843
:105510004230DBB27B730023BB750DE07B689A6978
:10552000BB7D18333B4413F80C3C1946104606F07B
:1055300083F9BB7D0133BB75BB7D012BEED97B6845
:105540000A4A5A61002300E0022318461837BD4674
:1055500080BD00BF14440020FEFF3F000000C0FFDC
:1055600044280108F079002058280108E550000877
:1055700080B485B000AF78600B467B807B881B0AC7
:105580009BB2DBB23B737B88DBB27B730023FB7384
:1055900031E07B681B881AB2FB7B10333B4413F865
:1055A000043C1BB21B021BB253401BB29AB27B6875
:1055B0001A800023BB7318E07B681B881BB2002B8A
:1055C0000ADA7B681B881BB25B001AB241F2210326
:1055D00053401BB29BB203E07B681B885B009BB20D
:1055E0007A681380BB7B0133BB73BB7B072BE3D98A
:1055F000FB7B0133FB73FB7B012BCAD900BF00BFD0
:105600001437BD465DF8047B704780B584B000AFA9
:1056100078607B681B6B991C7A6811631B88FB811F
:105620007B685B6B5A1E7B685A637B684233FA89DE
:1056300011461846FFF79CFFFB891B0A9BB2DAB2A2
:105640007B6883F83E20FB89DAB27B6883F83F20D1
:105650007B68002283F8402000BF1037BD4680BD24
:10566000B0B588B000AF78602A4B07F10C041D4636
:105670000FCD0FC42B6823707B681B6B991C7A6855
:1056800011631B88FB837B685B6B5A1E7B685A63C4
:10569000FB8B1B0B9BB203F00F0320333B4413F82F
:1056A000142C7B6883F83820FB8B1B0A9BB203F019
:1056B0000F0320333B4413F8142C7B6883F8392004
:1056C000FB8B1B099BB203F00F0320333B4413F801
:1056D000142C7B6883F83A20FB8B03F00F032033F4
:1056E0003B4413F8142C7B6883F83B207B68202212
:1056F00083F83C207B68002283F83D207B685B6B4D
:10570000002B03D10449054806F0AEFD00BF203749
:10571000BD46B0BDC41E010858280108144400202D
:1057200080B584B000AFF860B9607A60FB70FB6848
:10573000BA681A63FB687A685A63FB78002B05D055
:10574000FB680749184606F08FFD04E0FB68054931
:10575000184606F089FD00BF1037BD4680BD00BF6A
:10576000402801083C28010880B584B002AF786069
:10577000396078683B685A683B689B6800931346B9
:105780000D4A0E4906F02CFD7B6814337A681F2100
:10579000184606F091FD3B681A687B685A627B6880
:1057A0004FF47A729A627B681433184606F0C6FD8D
:1057B00000BF0837BD4680BD595800080958000889
:1057C00080B586B002AF0C4A3B1D07CA83E80700CC
:1057D00002230093012302220849094806F0FCF83D
:1057E00006F04EFB3B1D19460648FFF7BDFF00BF04
:1057F0001037BD4680BD00BFD81E0108288A002092
:105800002C8A0020F889002080B582B000AF786033
:10581000396006F04DFB7B6803F114007B689B6ADE
:1058200099B27B689B6A9BB21A4606F067FD00BF7F
:105830000837BD4680BD000080B582B000AF03468A
:10584000FB71FB791946034806F0E4FC00BF0837FA
:10585000BD4680BDF889002080B582B000AF786079
:1058600039603B681B881F2B01D100F005F801232C
:1058700018460837BD4680BD2DE9F0419AB00EAFFD
:1058800006F0CEFD064606F0CBFD03461C0A06F0E8
:10589000C7FD03461D0C06F0C3FD03461B0E009317
:1058A0002B4622463146012006F012FBB7F91C3088
:1058B0009E46B7F91C304FEA132CB7F91E309846B4
:1058C000B7F91E30180AB7F920307B61B7F92030DC
:1058D0001C0AB7F922303B61B7F922301D0AB7F92B
:1058E0002430FB60B7F924301E0AB7F92630BB60BC
:1058F000B7F926301A0A7A60B7F928303B60B7F951
:1059000028301A0AB7F92A301946B7F92A301B0A83
:105910000C930B910A92396809917A680892BA68D7
:1059200007920696FA68059204953A6903920294E2
:105930007B6901930090434662467146022006F05F
:10594000C7FA0023FB6211E0F86AFDF723FC034667
:105950001C46F86AFDF71EFC03461B0A2246F96A3C
:10596000032006F0B5FAFB6A0133FB62FB6A072BE2
:10597000EAD900BF00BF3037BD46BDE8F08180B531
:1059800082B000AF7860396002F0C0FA7B68012213
:1059900083F83020786800F0BDFB786800F09EFB4B
:1059A000786800F0ACFA7B682033184606F0C6FC35
:1059B00000BF0837BD4680BD80B584B000AF7860B9
:1059C00039607B685B69FB607B685B693968786814
:1059D00098470346FB72FB7A002B08D1FB68064907
:1059E000786898477B685B6904497868984700BF86
:1059F0001037BD4680BD00BF8C28010878280108FB
:105A000080B586B002AF786039607B68002B03D127
:105A10000021254800F0E0FE78683B685A683B6842
:105A20009B6800931346214A214906F0D9FB7B6805
:105A300020337A681121184606F03EFC3B681A684C
:105A40007B685A617B68002283F830207B680022E3
:105A500083F844207B68002283F847207B6800227B
:105A600083F848207B68042283F84E200023FB60E3
:105A70000EE03A68FB6802339B0013445A68796869
:105A8000FB680C339B000B445A60FB680133FB60DE
:105A9000FB68032BEDD97B682033184606F04EFCDB
:105AA00000BF1037BD4680BD6C280108B9590008F9
:105AB0007F590008B0B58AB002AF122300930223C9
:105AC00024220B490B4805F087FF0B4B3C1D1D465C
:105AD0000FCD0FC495E8070084E807003B1D194669
