:020000040800F2
:1000000000000820AD2F00089D2D0008A52D000838
:10001000AD2D0008B52D0008BD2D00080000000022
:10002000000000000000000000000000C52D0008D6
:10003000D32D000800000000E12D0008EF2D00087E
:10004000FD2F0008FD2F0008FD2F0008FD2F0008E0
:10005000FD2F0008FD2F0008FD2F0008FD2F0008D0
:10006000FD2F0008FD2F0008FD2F0008FD2F0008C0
:10007000ED870008FD2F0008FD2F0008FD2F000868
:10008000FD2F0008FD2F0008FD2F0008FD2F0008A0
:10009000FD2F0008FD2F0008FD2F0008FD2F000890
:1000A000FD2F000831890008FD2F0008FD2F0008F2
:1000B0007D890008FD2F0008FD2F0008FD2F000896
:1000C000FD2F0008FD2F0008FD2F0008FD2F000860
:1000D000FD2F0008FD2F0008FD2F0008C9DD0008D6
:1000E000FD2F0008FD2F0008FD2F0008FD2F000840
:1000F000FD2F0008FD2F0008FD2F0008FD2F000830
:10010000FD2F0008FD2F0008FD2F0008FD2F00081F
:10011000FD2F0008FD2F0008FD2F0008FD2F00080F
:10012000657E0008FD2F0008197D00080991000870
:10013000FD2F0008FD2F0008FD2F0008FD2F0008EF
:10014000FD2F0008FD2F0008FD2F0008FD2F0008DF
:10015000FD2F0008418B0008FD2F000829610008D1
:10016000FD2F0008FD2F0008FD2F0008FD2F0008BF
:10017000FD2F0008FD2F0008FD2F000800000000E3
:10018000FD2F0008FD2F0008413F0008FD2F00084B
:10019000FD2F0008FD2F0008FD2F0008FD2F00088F
:1001A0000000000000000000FD2F0008FD2F0008E7
:1001B000FD2F0008FD2F0008FD2F0008FD2F00086F
:1001C000FD2F0008FD2F000800000000FD2F000893
:1001D000FD2F0008FD2F0008FD2F0008FD2F00084F
:1001E000FD2F0008FD2F0008FD2F0008FD2F00083F
:0801F00000000000FD2F0008D3
:1002000010B5054C237833B9044B13B10448AFF350
:1002100000800123237010BDA8830020000000008F
:100220000428010808B5034B1BB103490348AFF389
:10023000008008BD00000000AC83002004280108F5
:1002400010F8012B11F8013B012A28BF9A42F7D080
:10025000D01A7047000000000000000000000000FD
:1002600001F0FF01102A2BDB10F0070F08D010F867
:10027000013B013A8B422DD010F0070F42B3F6D16B
:10028000F0B441EA012141EA014122F007047FF084
:1002900000070023F0E80256083C85EA010586EADB
:1002A000010685FA47F5A3FA87F586FA47F6A5FA17
:1002B00087F68EB9EED1F0BC01F0FF0102F0070223
:1002C00032B110F8013B013A83EA010313B1F8D1CE
:1002D0000020704701387047002D06BF35460338AF
:1002E000073815F0010F07D1013015F4807F02BFE8
:1002F000013015F4C03F0130F0BC0138704700BF39
:10030000034613F8012B002AFBD1181A0138704755
:100310007BB972B90029BEBF00204FF0004106E052
:1003200008BF00281CBF6FF000414FF0FF3000F005
:10033000BBB9ADF1080C6DE904CE002909DB002B37
:100340001ADB00F035F8DDF804E0DDE9022304B043
:100350007047404261EB4101002B1BDB00F028F8A5
:10036000DDF804E0DDE9022304B0404261EB410125
:10037000524263EB43037047524263EB430300F086
:1003800017F8DDF804E0DDE9022304B0404261EB38
:1003900041017047524263EB430300F009F8DDF876
:1003A00004E0DDE9022304B0524263EB43037047EB
:1003B0002DE9F047089D8E4604468846002B4AD119
:1003C0008A42174662D9B2FA82F64EB1C6F12003CC
:1003D00001FA06F820FA03F3B74043EA0808B440EC
:1003E0004FEA174E1FFA87FCB8FBFEF1230C0EFBF9
:1003F000118843EA084301FB0CF29A4209D9FB1821
:1004000001F1FF3080F0EA809A4240F2E780023941
:100410003B449A1AA3B2B2FBFEF00EFB102243EA51
:10042000024300FB0CFC9C4509D9FB1800F1FF328C
:1004300080F0D6809C4540F2D3803B44023840EAAD
:100440000140A3EB0C0300211DB1F3400022C5E9DC
:100450000032BDE8F0878B4205D90DB1C5E9000136
:1004600000210846F5E7B3FA83F1002946D1734528
:1004700002D3824200F20581841A6EEB030201204E
:100480009046002DE5D0C5E90048E2E7002A00F0DB
:100490009080B2FA82F6002E40F0A4808A1A030CF3
:1004A0004FEA174E80B2BCB20121B2FBFEFC0EFB3C
:1004B0001C2243EA024304FB0CF29A4207D9FB18C0
:1004C0000CF1FF3802D29A4200F2E080C4469B1A37
:1004D000B3FBFEF20EFB123340EA034302FB04F4CB
:1004E0009C4207D9FB1802F1FF3002D29C4200F275
:1004F000CA8002461B1B42EA0C40A5E7C1F1200658
:100500008B4022FA06F71F430EFA01F420FA06F395
:100510002EFA06FE4FEA1749234300FA01F81FFAA4
:1005200087FCBEFBF9F01C0C09FB10EE44EA0E44FC
:1005300000FB0CFEA64502FA01F209D93C1900F1B4
:10054000FF3A80F09C80A64540F2998002383C44F6
:10055000A4EB0E041FFA83FEB4FBF9F309FB13446A
:100560004EEA044403FB0CFCA44508D93C1903F1F2
:10057000FF3E80F08280A4457FD9023B3C4443EAA1
:100580000040A4EB0C04A0FB02EC64457346E1467A
:1005900062D35FD05DB1B8EB030264EB090404FAE7
:1005A00006F622FA01F31E43CC40C5E9006400219F
:1005B0004FE7B1FBF2FC010C41EA0E4180B240EA88
:1005C00001423B4638463C46B846BE462026B1FB73
:1005D000F7F1A2EB080241EA0C4166E7014618E791
:1005E00010462CE7C6F120022EFA02F3B740B140C4
:1005F00020FA02F24FEA174E0A43B3FBFEF8BCB2F0
:100600000EFB1833110C41EA034108FB04F9B0401A
:1006100089454FEA104380B23ED9791808F1FF3C72
:1006200001D289451FD8A1EB0901B1FBFEF909FBF5
:1006300004F80EFB191192B242EA0142424529D256
:10064000BA1809F1FF31C4D24245C2D2A9F1020160
:100650003A44BEE7F0459DD2BEEB02036CEB070CBB
:100660000138E14696E7A7EB09094944A8F1020CD5
:10067000B1FBFEF909FB04F8DBE773467FE7504660
:1006800066E70846FDE63B44023A33E7ACF1020C6C
:100690003B441CE749469CE7A1EB0901C446B1FB7A
:1006A000FEF909FB04F8C4E7704700BF80B485B0C9
:1006B00000AF78607B6803F00703FB600B4BDB68DF
:1006C000BB60BA684FF6FF031340BB60FB681A02B9
:1006D000BB681A43064B1343BB60044ABB68D36034
:1006E00000BF1437BD465DF8047B704700ED00E0A5
:1006F0000000FA0580B400AF044BDB681B0A03F06E
:1007000007031846BD465DF8047B704700ED00E026
:1007100080B483B000AF0346FB7197F90730002B1C
:100720000BDBFB7903F01F02074997F907305B09E0
:10073000012000FA02F241F8232000BF0C37BD4629
:100740005DF8047B704700BF00E100E080B483B037
:1007500000AF03463960FB7197F90730002B0ADBC5
:100760003B68DAB20C4997F907301201D2B20B4458
:1007700083F800230AE03B68DAB20849FB7903F00A
:100780000F03043B1201D2B20B441A7600BF0C37A0
:10079000BD465DF8047B704700E100E000ED00E03D
:1007A00080B489B000AFF860B9607A60FB6803F08C
:1007B0000703FB61FB69C3F10703042B28BF042374
:1007C000BB61FB690433062B02D9FB69033B00E0E4
:1007D00000237B614FF0FF32BB6902FA03F3DA4377
:1007E000BB681A407B699A404FF0FF317B6901FA80
:1007F00003F3D9437B680B40134318462437BD46A7
:100800005DF8047B704780B489B000AFF860B960D0
:100810007A60FB682C331946BB6803F440734FF4CD
:100820004072BA61BA6992FAA2F27A617A69B2FA4E
:1008300082F2D2B2D3409B000B44FB61FB691A6881
:10084000BB6803F01F031F2101FA03F3DB431A40C7
:100850007B6803F01F01BB6803F01F0301FA03F379
:100860001A43FB691A6000BF2437BD465DF8047B5C
:10087000704780B483B000AF786039607B689B6854
:1008800023F480623B681A437B689A6000BF0C3790
:10089000BD465DF8047B704780B48DB000AFF86052
:1008A000B9607A60FB680C331946BB6803F00073CB
:1008B0004FF00072BA61BA6992FAA2F27A617A696B
:1008C000B2FA82F2D2B2D3409B000B44FB62FB6AC5
:1008D0001A68BB6803F0F8734FF0F8713962396A2F
:1008E00091FAA1F1F961F969B1FA81F1C9B2CB408C
:1008F000072101FA03F3DB431A40BB6803F0F873E6
:100900004FF0F871B962B96A91FAA1F17962796A26
:10091000B1FA81F1C9B2CB40796801FA03F31A4305
:10092000FB6A1A6000BF3437BD465DF8047B704730
:1009300080B485B000AFF860B9607A600D4ABB68DA
:1009400013441B781A46FB6813441B6823F0C0024B
:100950000849BB680B441B781946FB680B441946D1
:100960007B6813430B6000BF1437BD465DF8047B02
:10097000704700BF2842010880B485B000AFF8601E
:10098000B9607A600D4ABB6813441B781A46FB684D
:1009900013441B6823F490720849BB680B441B780E
:1009A0001946FB680B4419467B6813430B6000BF74
:1009B0001437BD465DF8047B704700BF284201082C
:1009C00080B485B000AFF860B9607A600D4ABB684A
:1009D00013441B781A46FB6813441B6823F4007207
:1009E0000849BB680B441B781946FB680B44194641
:1009F0007B6813430B6000BF1437BD465DF8047B72
:100A0000704700BF2842010880B485B000AFF8608D
:100A1000B9607A600D4ABB6813441B781A46FB68BC
:100A200013441B6823F480620849BB680B441B789D
:100A30001946FB680B4419467B6813430B6000BFE3
:100A40001437BD465DF8047B704700BF284201089B
:100A500080B485B000AFF860B9607A600D4ABB68B9
:100A600013441B781A46FB6813441B6823F4C052D6
:100A70000849BB680B441B781946FB680B441946B0
:100A80007B6813430B6000BF1437BD465DF8047BE1
:100A9000704700BF2842010880B485B000AFF860FD
:100AA000B9607A600D4ABB6813441B781A46FB682C
:100AB00013441B6823F4C0420849BB680B441B78ED
:100AC0001946FB680B4419467B6813430B6000BF53
:100AD0001437BD465DF8047B704700BF284201080B
:100AE00080B485B000AFF860B9607A600D4ABB6829
:100AF00013441B781A46FB6813441B6823F44032E6
:100B00000849BB680B441B781946FB680B4419461F
:100B10007B6813430B6000BF1437BD465DF8047B50
:100B2000704700BF2842010880B485B000AFF8606C
:100B3000B9607A600D4ABB6813441B781A46FB689B
:100B400013441B6823F0F0520849BB680B441B7820
:100B50001946FB680B4419467B6813430B6000BFC2
:100B60001437BD465DF8047B704700BF284201087A
:100B700080B483B000AF786039600C4A3B6813449E
:100B80001B781A467B6813445B6908493A680A4433
:100B9000127811467A680A4423F00403536100BFB7
:100BA0000C37BD465DF8047B704700BF2842010842
:100BB00080B483B000AF78607B681B6843F00102AB
:100BC0007B681A6000BF0C37BD465DF8047B704738
:100BD00080B483B000AF78607B681B6823F4003278
:100BE0007B681A6000BF0C37BD465DF8047B704718
:100BF00080B483B000AF78607B681B6823F4002268
:100C00007B681A6000BF0C37BD465DF8047B7047F7
:100C100080B485B000AFF860B9607A60FB68DA68CC
:100C2000064B1340B9687A680A431A43FB68DA60D6
:100C300000BF1437BD465DF8047B704701F8FFFF25
:100C400080B483B000AF78607B68DB6823F4004237
:100C50007B68DA6000BF0C37BD465DF8047B7047E7
:100C600080B483B000AF78607B685B6843F000724B
:100C70007B685A6000BF0C37BD465DF8047B704747
:100C800080B400AF054B1B68044A43F48033136003
:100C900000BFBD465DF8047B704700BF00380240CE
:100CA00080B400AF074B1B6803F40033B3F5003F7B
:100CB0000CBF01230023DBB21846BD465DF8047B60
:100CC000704700BF0038024080B483B000AF786046
:100CD000064B9B6823F0030204497B6813438B6037
:100CE00000BF0C37BD465DF8047B704700380240FA
:100CF00080B400AF044B9B6803F00C031846BD465C
:100D00005DF8047B704700BF0038024080B483B0B8
:100D100000AF7860064B9B6823F0F00204497B68C3
:100D200013438B6000BF0C37BD465DF8047B7047F2
:100D30000038024080B483B000AF7860064B9B68F7
:100D400023F4E05204497B6813438B6000BF0C37E7
:100D5000BD465DF8047B70470038024080B483B024
:100D600000AF7860064B9B6823F4604204497B68BF
:100D700013438B6000BF0C37BD465DF8047B7047A2
:100D80000038024080B483B000AF7860094BD3F8DC
:100D900090207B681B0CDB431A407B689BB20549A3
:100DA0001343C1F8903000BF0C37BD465DF8047B9B
:100DB000704700BF0038024080B483B000AF786055
:100DC000094BD3F890207B681B0CDB431A407B68EF
:100DD0009BB205491343C1F8903000BF0C37BD46A4
:100DE0005DF8047B704700BF0038024080B483B0D8
:100DF00000AF7860094BD3F890207968084B0B401E
:100E0000DB431A407B681B0404491343C1F890304C
:100E100000BF0C37BD465DF8047B704700380240C8
:100E20000000FFFF80B483B000AF7860074BD3F8B9
:100E30008C3023F0807205497B681343C1F88C30F5
:100E400000BF0C37BD465DF8047B70470038024098
:100E500080B400AF054B1B68044A43F080731360F5
:100E600000BFBD465DF8047B704700BF00380240FC
:100E700080B400AF074B1B6803F00073B3F1007F31
:100E80000CBF01230023DBB21846BD465DF8047B8E
:100E9000704700BF0038024080B485B000AFF860F2
:100EA000B9607A603B600A4B5A680A4B1340F96894
:100EB000BA6811437A68920111433A680A430449B7
:100EC00013434B6000BF1437BD465DF8047B704789
:100ED000003802400080BCFF80B485B000AF78606D
:100EE000084B1A6B07497B6813430B63054B1A6B5E
:100EF0007B681340FB60FB6800BF1437BD465DF89C
:100F0000047B70470038024080B485B000AF786041
:100F1000084B1A6C07497B6813430B64054B1A6C2A
:100F20007B681340FB60FB6800BF1437BD465DF86B
:100F3000047B70470038024080B485B000AF786011
:100F4000084B5A6C07497B6813434B64054B5A6C3A
:100F50007B681340FB60FB6800BF1437BD465DF83B
:100F6000047B70470038024080B483B000AF7860E3
:100F7000064B1B6823F00F0204497B6813430B6088
:100F800000BF0C37BD465DF8047B7047003C024053
:100F900080B400AF044B1B6803F00F031846BD4636
:100FA0005DF8047B704700BF003C024080B400AF96
:100FB000054B1B68044A43F48033136000BFBD46F1
:100FC0005DF8047B704700BF0070004080B483B0C0
:100FD00000AF7860064B1B6823F4404204497B68ED
:100FE00013430B6000BF0C37BD465DF8047B7047B0
:100FF0000070004080B400AF074B5B6803F480438F
:10100000B3F5804F0CBF01230023DBB21846BD4669
:101010005DF8047B704700BF0070004080B483B06F
:1010200000AF78607B681B6843F040027B681A6001
:1010300000BF0C37BD465DF8047B704780B483B0B9
:1010400000AF786039607B685B6823F010023B6812
:101050001A437B685A6000BF0C37BD465DF8047BBD
:10106000704780B483B000AF78607B685B6843F002
:1010700008027B685A6000BF0C37BD465DF8047BF0
:10108000704780B483B000AF78607B685B6823F002
:1010900008027B685A6000BF0C37BD465DF8047BD0
:1010A000704780B483B000AF78607B681B6823F022
:1010B00080027B681A6000BF0C37BD465DF8047B78
:1010C0007047000080B485B000AF786039603B683D
:1010D000012B28D03B68042B23D03B68102B1ED05B
:1010E0003B68402B19D03B68B3F5807F13D03B6839
:1010F000B3F5806F0DD03B68B3F5805F07D03B68D8
:10110000B3F5803F01D107230EE008230CE006234E
:101110000AE0052308E0042306E0032304E0022399
:1011200002E0012300E00023FB737B6818331946BB
:10113000FB7B0B4AD35C0B44BB60BB681A68FB7B30
:101140000849CB5C194604238B40DB431A40BB683B
:101150001A6000BF1437BD465DF8047B704700BFBE
:10116000304201083C42010880B485B000AF78608D
:1011700039603B68012B28D03B68042B23D03B68A7
:10118000102B1ED03B68402B19D03B68B3F5807FF5
:1011900013D03B68B3F5806F0DD03B68B3F5805F2B
:1011A00007D03B68B3F5803F01D107230EE0082349
:1011B0000CE006230AE0052308E0042306E00323ED
:1011C00004E0022302E0012300E00023FB737B68BC
:1011D00018331946FB7B0A4AD35C0B44BB60BB68DF
:1011E0001A68FB7B0749CB5C194608238B401A43DE
:1011F000BB681A6000BF1437BD465DF8047B7047BA
:10120000304201083C42010880B483B000AF7860EE
:1012100039607B689A68064B13403A681A437B68CA
:101220009A6000BF0C37BD465DF8047B704700BF75
:10123000F8BFFEFF80B483B000AF786039607B6890
:101240005B6823F070023B681A437B685A6000BFFA
:101250000C37BD465DF8047B704780B483B000AFA7
:10126000786039607B685B6823F470023B681A43DE
:101270007B685A6000BF0C37BD465DF8047B704741
:1012800080B483B000AF78607B689B6823F08002F5
:101290007B689A6000BF0C37BD465DF8047B7047E1
:1012A00080B483B000AF78607B681B6843F00102B4
:1012B0007B681A6000BF0C37BD465DF8047B704741
:1012C00080B483B000AF786039607B681B6823F41A
:1012D000F8123B681B041A437B681A6000BF0C3786
:1012E000BD465DF8047B704780B483B000AF786082
:1012F00039607B681B6823F078723B685B051A4392
:101300007B681A6000BF0C37BD465DF8047B7047F0
:1013100080B483B000AF78607B689B6843F4804200
:101320007B689A6000BF0C37BD465DF8047B704750
:1013300080B483B000AF786039607B689B6823F429
:1013400000423B681A437B689A6000BF0C37BD4679
:101350005DF8047B704780B483B000AF78607B6831
:101360005B6823F490427B685A607B689B6823F03B
:101370002A027B689A6000BF0C37BD465DF8047B8B
:10138000704780B483B000AF78607B685B6823F4FB
:1013900090427B685A607B689B6823F022027B68DE
:1013A0009A607B689B6843F008027B689A6000BF84
:1013B0000C37BD465DF8047B704780B483B000AF46
:1013C000786039607B683A689A6100BF0C37BD4627
:1013D0005DF8047B704780B483B000AF78603960FB
:1013E0003B681A047B689A6100BF0C37BD465DF804
:1013F000047B704780B500AF4FF08050FFF784FD4D
:101400004FF48040FFF798FD0320FFF74FF9FFF7F7
:1014100071F9034600220F211846FFF7C1F9034670
:1014200019464FF0FF30FFF791F900F02DF801F069
:10143000FFF901F0A1F900F0DDFA00F04FFB00F038
:10144000D9FB00F089FC00F06FF800F003FD00F01C
:10145000E3FE00F0BBFF00F07BFD01F02DF801F092
:1014600017F900F0B5F900F063FA00F04DFE00F056
:1014700091FE01F0A9F801F09FFE01F0ABFE01F032
:10148000BCFE00BFFDE7000080B500AF0620FFF7FF
:101490006BFD00BFFFF77CFD0346062BFAD14FF42E
:1014A0004040FFF793FDFFF781FDFFF7E9FB00BF29
:1014B000FFF7F6FB0346012BFAD10023C0220C21D3
:1014C0004FF48000FFF7E8FCFFF7C2FC00BFFFF716
:1014D000CFFC0346012BFAD100BFFFF78BFD03467B
:1014E000002BFAD00020FFF711FC4FF4A050FFF7BB
:1014F00021FC4FF40040FFF731FC0220FFF7E4FB32
:1015000000BFFFF7F5FB0346082BFAD105480EF0A4
:101510001DFA04480EF04EFA0020FFF783FC00BFCE
:1015200080BD00BF00C2EB0B80B592B000AF07F1E9
:101530003C0300221A605A609A6007F128030022D7
:101540001A605A609A60DA601A6107F11803002283
:101550001A605A609A60DA603B4600221A605A604C
:101560009A60DA601A615A614FF48070FFF7E4FC08
:101570000420FFF7B1FC0220FFF7AEFC01233B6023
:1015800003237B6000233B613B46194684480CF0F3
:1015900086FF02233B6003237B6000233B613B46C5
:1015A00019467F480CF07BFF04233B6003237B60DC
:1015B00000233B613B46194679480CF070FF082335
:1015C0003B6003237B6000233B613B461946744824
:1015D0000CF065FF10233B6003237B6000233B611D
:1015E0003B4619466E480CF05AFF20233B6003230C
:1015F0007B6000233B613B46194669480CF04FFF76
:1016000001233B6003237B6000233B613B4619467B
:1016100064480CF044FF02233B6003237B600023FB
:101620003B613B4619465F480CF039FF0022002120
:101630005D48FFF779FA002200215B48FFF778F94F
:10164000002200215848FFF74BFA4FF48072002126
:101650005548FFF791F9002200215348FFF7B0F9F0
:101660004FF4806200215048FFF7CEF94FF400623A
:1016700000214D48FFF7ECF94FF4005200214A4891
:10168000FFF70AFA00214848FFF772FA0023FB63CC
:1016900000233B644FF480737B6407F13C031946DD
:1016A00042480CF083FD0023BB624FF4E003FB6271
:1016B00000233B6300237B634FF44073BB6307F15C
:1016C0002803194639480CF09DFD00213748FFF7E3
:1016D000D0F84FF48033BB610023FB6107F118039E
:1016E000194633480CF01AFD0A224FF400712F48B6
:1016F000FFF789F801220A212C48FFF7CDF82D4A7F
:1017000040F205212948FFF77EF8012229492748A0
:10171000FFF7C2F8284A40F20A212448FFF773F87D
:10172000012225492148FFF7B7F8244A40F20F214A
:101730001E48FFF768F8012220491C48FFF7ACF863
:101740001F4A4FF405711948FFF75DF801221C4943
:101750001648FFF7A1F81B4A40F219211348FFF77A
:1017600052F8012217491148FFF796F8164A4FF42C
:1017700080710E48FFF747F8012213490B48FFF725
:101780008BF8124A40F205110848FFF73CF8012295
:101790000E490648FFF780F800BF4837BD4680BDB8
:1017A00000080240000402400064024000200140A2
:1017B000002301400B0030000C0060000D00900081
:1017C0000E00C0000F00F000080080030900B00305
:1017D00080B58EB000AF07F12C0300221A605A606A
:1017E0009A6007F1180300221A605A609A60DA6062
:1017F0001A613B4600221A605A609A60DA601A61E8
:101800005A614FF40070FFF797FB0120FFF764FB6C
:1018100004233B6003237B6000233B613B46194666
:101820003E480CF03CFE08233B6003237B60002312
:101830003B613B46194639480CF031FE4FF00072CF
:1018400002213748FFF770F9002202213448FFF7E0
:101850006FF8002202213248FFF742F94FF48072FC
:1018600002212F48FFF788F8002202212C48FFF7B9
:10187000A7F84FF4806202212948FFF7C5F84FF41A
:10188000006202212648FFF7E3F84FF400520221DC
:101890002348FFF701F902212148FFF769F90023E6
:1018A000FB6200233B634FF480737B6307F12C03DF
:1018B00019461C480CF07AFC0023BB614FF48013DE
:1018C000FB6100233B6200237B624FF44073BB62E9
:1018D00007F11803194613480CF094FC4FF480618B
:1018E0001048FEF7C6FF104A4FF400710D48FEF78E
:1018F0008AFF01220C490B48FEF7CEFF0B4A40F24B
:1019000005210848FEF77FFF012208490548FEF738
:10191000C3FF00BF3837BD4680BD00BF0000024096
:1019200000640240002101400300900202006002B6
:1019300080B58EB000AF07F12C0300221A605A6008
:101940009A6007F1180300221A605A609A60DA6000
:101950001A613B4600221A605A609A60DA601A6186
:101960005A614FF48060FFF7E7FA0120FFF7B4FAFD
:1019700002233B6003237B6000233B613B46194607
:1019800019480CF08CFD0023FB6200233B6300230D
:101990007B6307F12C03194614480CF007FC002365
:1019A000BB610023FB6100233B6200237B620023B9
:1019B000BB6207F1180319460C480CF023FC4FF4E6
:1019C00080610A48FEF755FF094A4FF40071074845
:1019D000FEF719FF002206490448FEF75DFF00BF2D
:1019E0003837BD4680BD00BF0000024000220140E4
:1019F0000100300280B58EB000AF07F11C03002259
:101A00001A605A609A60DA601A615A619A613B1DE5
:101A100000221A605A609A60DA601A615A614FF4C3
:101A20004030FFF7E3F90220FFF756FA40237B60CE
:101A30000223BB600323FB6001233B6100237B6126
:101A40000423BB613B1D194621480CF028FD80236F
:101A50007B600223BB600323FB6001233B61002307
:101A60007B610423BB613B1D194619480CF017FD2F
:101A70004FF40010FFF748FA1648FFF7F1F800227C
:101A800000211448FFF7C4F81248FFF7D9F81148AD
:101A9000FFF7AEF80F48FFF79BF80023FB610E4BF2
:101AA0003B6200237B620023BB620023FB620023B6
:101AB0003B6300237B6307F11C03194605480CF0C8
:101AC00005FE0448FFF774F800BF3837BD4680BDF7
:101AD0000004024000540040FF63106080B590B0E5
:101AE00000AF07F118032822002118460EF0D0FE9F
:101AF0003B4600221A605A609A60DA601A615A61A5
:101B00004FF48050FFF718FA0120FFF7E5F9102392
:101B10003B6002237B600323BB600023FB60002348
:101B20003B6105237B613B46194630480CF0B7FC0E
:101B300020233B6002237B600323BB600023FB6008
:101B400000233B6105237B613B46194627480CF087
:101B5000A6FC40233B6002237B600323BB60002381
:101B6000FB6000233B6105237B613B4619461F4810
:101B70000CF095FC80233B6002237B600323BB6059
:101B80000023FB6000233B6105237B613B46194634
:101B900016480CF084FC0023BB614FF48273FB6198
:101BA0004FF4E0633B6200237B620023BB620023AF
:101BB000FB6200233B6300237B630023BB6307239B
:101BC000FB6307F11803194609480DF057F9002186
:101BD0000748FFF733FA0648FFF743FA0448FFF7D0
:101BE0001DFA00BF4037BD4680BD00BF0000024067
:101BF0000030014080B590B000AF07F118032822F3
:101C0000002118460EF044FE3B4600221A605A603E
:101C10009A60DA601A615A614FF48040FFF774F9F4
:101C20000220FFF759F94FF400533B6002237B6019
:101C30000323BB600023FB6000233B6105237B6122
:101C40003B46194641480CF02AFC4FF480433B6068
:101C500002237B600323BB600023FB6000233B6106
:101C600005237B613B46194638480CF018FC4FF4BD
:101C700000433B6002237B600323BB600023FB60C7
:101C800000233B6105237B613B4619462F480CF03E
:101C900006FC4FF0905201212D48FEF745FF00222F
:101CA00001212B48FEF744FE4FF440320121284821
:101CB000FEF716FF4FF4807201212548FEF75CFE07
:101CC000002201212248FEF77BFE4FF480620121B1
:101CD0001F48FEF799FE4FF4006201211C48FEF7F1
:101CE000B7FE4FF4005201211948FEF7D5FE01213D
:101CF0001748FEF73DFF0023BB614FF48273FB6181
:101D00004FF470633B6200237B620023BB624FF49D
:101D10000073FB6200233B6300237B630023BB63F0
:101D20000723FB6307F1180319460A480DF0A6F8CC
:101D300000210848FFF782F90648FFF792F90548A5
:101D4000FFF76CF900BF4037BD4680BD000402407C
:101D5000006002400038004080B590B000AF07F14D
:101D600018032822002118460EF092FD3B4600225F
:101D70001A605A609A60DA601A615A614FF4004042
:101D8000FFF7C2F80420FFF7A7F84FF480633B6029
:101D900002237B600323BB600023FB6000233B61C5
:101DA00006237B613B46194628480CF078FB4FF42C
:101DB00000633B6002237B600323BB600023FB6066
:101DC00000233B6106237B613B4619461F480CF00C
:101DD00066FB4FF480533B6002237B600323BB60B0
:101DE0000023FB6000233B6106237B613B461946D1
:101DF00016480CF054FB0023BB614FF48273FB6167
:101E00004FF4E0633B6200237B620023BB624FF42C
:101E10000073FB6200233B6300237B630023BB63EF
:101E20000723FB6307F11803194609480DF026F84C
:101E300000210748FFF702F90548FFF712F90448A7
:101E4000FFF7ECF800BF4037BD4680BD00080240F8
:101E5000003C004080B590B000AF07F11803282285
:101E6000002118460EF014FD3B4600221A605A600D
:101E70009A60DA601A615A614FF40050FFF75CF81B
:101E80001020FFF729F84FF480533B6002237B605A
:101E90000323BB600023FB6000233B6105237B61C0
:101EA0003B46194628480CF0FAFA4FF400533B60C1
:101EB00002237B600323BB600023FB6000233B61A4
:101EC00005237B613B4619461F480CF0E8FA4FF4A6
:101ED00080433B6002237B600323BB600023FB60E5
:101EE00000233B6105237B613B46194616480CF0F5
:101EF000D6FA0023BB614FF48273FB614FF4E063B9
:101F00003B6200237B620123BB624FF40073FB62E0
:101F100020233B6300237B630023BB630723FB6316
:101F200007F11803194609480CF0A8FF00210748DB
:101F3000FFF784F80548FFF7A4F80448FFF76EF8A8
:101F400000BF4037BD4680BD001002400034014054
:101F500080B590B000AF07F1180328220021184681
:101F60000EF096FC3B4600221A605A609A60DA60D6
:101F70001A615A614FF40010FEF7DEFF0220FEF7EF
:101F8000ABFF08233B6002237B600323BB6000237D
:101F9000FB6000233B6108237B613B4619465748A1
:101FA0000CF07DFA10233B6002237B600323BB60AF
:101FB0000023FB6000233B6108237B613B461946FD
:101FC0004E480CF06CFA20233B6002237B60032315
:101FD000BB600023FB6000233B6108237B613B4621
:101FE000194646480CF05BFA4FF000720521444850
:101FF000FEF79AFD402205214148FEF799FC4FF477
:10200000403205213E48FEF76BFD002205213C4889
:10201000FEF7B2FC002205213948FEF7D1FC4FF44F
:10202000806205213648FEF7EFFC00220521344886
:10203000FEF70EFD002205213148FEF72DFD05219A
:102040002F48FEF795FD4FF0007206212C48FEF751
:102050006BFD002206212A48FEF76AFC4FF440324D
:1020600006212748FEF73CFD002206212448FEF702
:1020700083FC002206212248FEF7A2FC4FF4806276
:1020800006211F48FEF7C0FC002206211C48FEF76F
:10209000DFFC002206211A48FEF7FEFC0621184844
:1020A000FEF766FD0023BB614FF48273FB614FF4C2
:1020B000E0633B6200237B620023BB624FF400734A
:1020C000FB6200233B6300237B630023BB63072386
:1020D000FB6307F1180319460A480CF0CFFE0021F4
:1020E0000848FEF7ABFF0748FEF7BBFF0548FEF7C1
:1020F00095FF00BF4037BD4680BD00BF00040240D1
:10210000006402400054014080B586B000AF3B1D22
:1021100000221A605A609A60DA601A610120FEF7A4
:102120000BFFFEF7E7FA0346002200211846FEF7F0
:1021300037FB034619461920FEF708FB1920FEF766
:10214000E7FA0023BB800023BB604FF6FF73FB6000
:1021500000233B6100237B613B1D19460C480CF0BA
:1021600081FF0B48FEF79DFF00210948FFF74CF85F
:1021700000210748FFF75EF800210548FFF76DF8DA
:102180000348FFF77DF800BF1837BD4680BD00BF8C
:102190000000014080B586B000AF3B1D00221A60F0
:1021A0005A609A60DA601A610120FEF7ADFEFEF710
:1021B000A1FA0346002202211846FEF7F1FA03466F
:1021C00019461C20FEF7C2FA1C20FEF7A1FA0023D4
:1021D000BB800023BB604FF0FF33FB6000233B61FB
:1021E0003B1D19464FF080400CF03CFF4FF0804003
:1021F000FEF757FF00214FF08040FFF705F8002160
:102200004FF08040FFF716F84FF08040FFF738F8A6
:1022100000BF1837BD4680BD80B594B000AF07F150
:102220003C0300221A605A609A60DA601A6107F172
:102230001C032022002118460EF02AFB3B1D002221
:102240001A605A609A60DA601A615A610420FEF7D7
:102250005BFE0A23BB8700233B644CF250337B6454
:102260004FF40073BB6407F13C03194655480CF06A
:10227000F9FE5448FEF715FF00215248FEF7C4FF4F
:1022800001215048FEF770FF6023FB6100233B6291
:1022900000237B620023BB620023FB6207F11C0367
:1022A0001A46012147480CF077FF01214548FEF707
:1022B00009FF10214348FEF757FF07F11C031A4698
:1022C000102140480CF068FF10213E48FEF7FAFE4E
:1022D0004FF480713B48FEF747FF07F11C031A4695
:1022E0004FF4807137480CF057FF4FF48071354838
:1022F000FEF7E8FE4FF480513248FEF735FF07F154
:102300001C031A464FF480512E480CF045FF4FF441
:1023100080512C48FEF7D6FE00212A48FEF78AFF9E
:102320002848FEF7ADFF0820FEF7D6FD4FF4805396
:102330007B600223BB600023FB6000233B61002322
:102340007B610223BB613B1D19461F480CF0A7F8B7
:102350004FF400537B600223BB600023FB6000232B
:102360003B6100237B610223BB613B1D194616487C
:102370000CF095F84FF480437B600223BB60002390
:10238000FB6000233B6100237B610223BB613B1D9B
:1023900019460D480CF083F84FF400437B6002238C
:1023A000BB600023FB6000233B6100237B610223B1
:1023B000BB613B1D194604480CF071F800BF503753
:1023C000BD4680BD00080040000C024080B58EB0C4
:1023D00000AF07F11C0300221A605A609A60DA60AD
:1023E0001A615A619A613B1D00221A605A609A6014
:1023F000DA601A615A614FF04050FEF7DDFC4FF091
:102400008040FEF781FD1020FEF766FD80237B6093
:102410000223BB600323FB6000233B6101237B613C
:102420000823BB613B1D194621480CF038F84FF4D6
:1024300080737B600223BB600323FB6000233B614E
:1024400000237B610823BB613B1D194618480CF033
:1024500026F8FEF74FF9034600220B211846FEF737
:102460009FF9034619465220FEF770F95220FEF7F5
:102470004FF94FF4E133FB6100233B6200237B62A1
:102480000023BB620C23FB6200233B6300237B63BE
:1024900007F11C03194607480DF09EF90548FEF7A1
:1024A0005AFF0448FEF7FCFE00BF3837BD4680BD2A
:1024B000001002400078004080B58EB000AF07F1F8
:1024C0001C0300221A605A609A60DA601A615A612D
:1024D0009A613B1D00221A605A609A60DA601A61A4
:1024E0005A614FF44030FEF74DFC1020FEF724FDFA
:1024F0000120FEF7F1FC4FF400737B600223BB6008
:102500000323FB6000233B6100237B610723BB6146
:102510003B1D19462A480BF0C2FF4FF480637B60D5
:102520000223BB600323FB6000233B6100237B612C
:102530000723BB613B1D194621480BF0B0FF4FF448
:1025400080537B600223BB600323FB6000233B615D
:1025500000237B610723BB613B1D194618480BF024
:102560009EFF4FF4E133FB6100233B6200237B625B
:102570000023BB620C23FB6200233B6300237B63CD
:1025800007F11C0319460F480DF026F90D48FEF718
:10259000BFFE00210B48FEF7CBFE00210948FEF7E5
:1025A000A3FE00210748FEF78BFE0648FEF7D3FE88
:1025B0000448FEF775FE00BF3837BD4680BD00BF3A
:1025C000000002400010014080B58EB000AF07F15E
:1025D0001C0300221A605A609A60DA601A615A611C
:1025E0009A613B1D00221A605A609A60DA601A6193
:1025F0005A614FF44010FEF7C5FB4FF48020FEF700
:1026000083FC0220FEF768FC4FF480637B600223AA
:10261000BB600323FB6001233B6100237B61072335
:10262000BB613B1D194618480BF039FFFEF762F8F5
:102630000346002200211846FEF7B2F80346194669
:102640002720FEF783F82720FEF762F84FF4E133E6
:10265000FB6100233B6200237B620023BB620823F3
:10266000FB6200237B6307F11C03194607480DF04A
:10267000B3F80648FEF785FE0448FEF711FE00BFDA
:102680003837BD4680BD00BF00040240004800400E
:1026900080B58EB000AF07F11C0300221A605A60AB
:1026A0009A60DA601A615A619A613B1D00221A60D1
:1026B0005A609A60DA601A615A614FF04060FEF722
:1026C00061FB2020FEF738FC0420FEF705FC4023C8
:1026D0007B600223BB600323FB6000233B6100237C
:1026E0007B610823BB613B1D194621480BF0D7FED7
:1026F00080237B600223BB600323FB6000233B61DC
:1027000000237B610823BB613B1D194618480BF071
:10271000C6FEFDF7EFFF034600220B211846FEF729
:102720003FF8034619464720FEF710F84720FDF70B
:10273000EFFF4FF4E133FB6100233B6200237B6238
:102740000023BB620C23FB6200233B6300237B63FB
:1027500007F11C03194607480DF03EF80548FEF73F
:10276000FAFD0448FEF79CFD00BF3837BD4680BD2A
:10277000000802400014014080B500AF4FF4800013
:10278000FEF7AAFB4FF40010FEF7A6FBFDF7B2FF21
:102790000346002200211846FEF702F803461946B8
:1027A0000C20FDF7D3FF0C20FDF7B2FFFDF7A2FFD1
:1027B000034600220A211846FDF7F2FF0346194698
:1027C0003820FDF7C3FF3820FDF7A2FFFDF792FF89
:1027D000034600220A211846FDF7E2FF0346194688
:1027E0003A20FDF7B3FF3A20FDF792FFFDF782FF95
:1027F0000346002209211846FDF7D2FF0346194679
:102800004420FDF7A3FF4420FDF782FFFDF772FF90
:102810000346002201211846FDF7C2FF0346194670
:102820004520FDF793FF4520FDF772FF00BF80BDF7
:1028300080B586B000AF3B4600221A605A609A60AD
:10284000DA601A615A611020FEF746FB0420FEF799
:1028500043FB8020FEF740FB0120FEF73DFB0220FA
:10286000FEF73AFB0820FEF737FB0421BF48FEF7CE
:10287000B2FD0821BD48FEF7AEFD1021BB48FEF7B2
:10288000AAFD2021B948FEF7A6FD4021B748FEF772
:10289000A2FD4FF40051B648FEF79DFD4FF4804174
:1028A000B348FEF798FD4FF40041B148FEF793FDA1
:1028B0004FF40061AD48FEF78EFD4FF40061AD4866
:1028C000FEF789FD4FF40041AA48FEF784FD01217F
:1028D000A948FEF780FD0221A748FEF77CFD1021E4
:1028E000A548FEF778FD2021A348FEF774FD40219E
:1028F000A148FEF770FD0421A048FEF75EFD4FF4ED
:1029000080619A48FEF759FD4FF400419748FEF761
:1029100054FD4FF480519948FEF74FFD4FF48071FC
:102920009548FEF74AFD4FF400719348FEF745FDC8
:102930004FF480619048FEF740FD04218E48FEF779
:102940003CFD80218C48FEF738FD4FF480718B48A8
:10295000FEF733FD4FF400718848FEF72EFD01218C
:102960008248FEF72AFD02218048FEF726FD042357
:102970003B6001237B600023BB600023FB600023DE
:102980003B613B46194679480BF089FD08233B60C3
:1029900001237B600023BB600023FB6000233B61BD
:1029A0003B46194671480BF07AFD10233B6001232A
:1029B0007B600023BB600023FB6000233B613B4640
:1029C00019466A480BF06BFD20233B6001237B60B6
:1029D0000023BB600023FB6000233B613B4619469C
:1029E00062480BF05CFD40233B6001237B600023C9
:1029F000BB600023FB6000233B613B4619465B48FC
:102A00000BF04DFD4FF400533B6001237B6000232E
:102A1000BB600023FB6000233B613B4619465448E2
:102A20000BF03DFD4FF480433B6001237B600023AE
:102A3000BB600023FB6000233B613B4619464C48CA
:102A40000BF02DFD4FF400433B6001237B6000231E
:102A5000BB600023FB6000233B613B4619464448B2
:102A60000BF01DFD04233B6001237B600023BB6052
:102A70000023FB6000233B613B4619463F480BF0B7
:102A80000EFD4FF480633B6001237B600023BB603D
:102A90000023FB6000233B613B46194633480BF0A3
:102AA000FEFC4FF400633B6001237B600023BB60AE
:102AB0000023FB6000233B613B4619462B480BF08B
:102AC000EEFC4FF400433B6001237B600023BB60BE
:102AD0000023FB6000233B613B46194623480BF073
:102AE000DEFC4FF480533B6001237B600023BB601E
:102AF0000023FB6000233B613B4619461F480BF057
:102B0000CEFC4FF480733B6001237B600323BB60EA
:102B10000023FB6000233B613B46194616480BF03F
:102B2000BEFC4FF400733B6001237B600323BB605A
:102B30000023FB6000233B613B4619460E480BF027
:102B4000AEFC4FF480633B6001237B600323BB60DA
:102B50000023FB6000233B613B46194606480BF00F
:102B60009EFC4FF400633B600AE000BF001002408F
:102B70000008024000000240000C02400004024035
:102B800000237B6000233B613B4619467E480BF0E7
:102B900086FC4FF480733B6000237B6000233B6125
:102BA0003B46194679480BF07AFC4FF400733B60C2
:102BB00000237B6000233B613B46194673480BF0C2
:102BC0006EFC4FF480733B6000237B6000233B610D
:102BD0003B4619466E480BF062FC4FF400633B60C5
:102BE00001237B600023BB600023FB6000233B616B
:102BF0003B46194666480BF052FC4FF400433B60DD
:102C000001237B600023BB600023FB6000233B614A
:102C10003B4619465E480BF042FC01233B60012312
:102C20007B600023BB600023FB6000233B613B46CD
:102C3000194655480BF033FC02233B6001237B60AF
:102C40000023BB600023FB6000233B613B46194629
:102C50004D480BF024FC04233B6001237B600023E0
:102C6000BB600023FB6000233B613B46194646489E
:102C70000BF015FC08233B6000237B6000233B61C5
:102C80003B46194640480BF00AFC10233B600123E9
:102C90007B600023BB600023FB6000233B613B465D
:102CA000194639480BF0FBFB20233B6001237B6076
:102CB0000023BB600023FB6000233B613B461946B9
:102CC00031480BF0ECFB40233B6001237B60002389
:102CD000BB600023FB6000233B613B4619462A484A
:102CE0000BF0DDFB80233B6001237B600023BB6096
:102CF0000023FB6000233B613B46194622480BF052
:102D0000CEFB4FF480733B6001237B600023BB60EC
:102D10000023FB6000233B613B4619461D480BF036
:102D2000BEFB4FF400733B6001237B600023BB605C
:102D30000023FB6000233B613B46194615480BF01E
:102D4000AEFB01233B6001237B600023BB600023BB
:102D5000FB6000233B613B4619460F480BF09FFB8D
:102D600002233B6001237B600023BB600023FB60E8
:102D700000233B613B46194607480BF090FB00BF20
:102D80001837BD4680BD00BF000C0240000802405D
:102D900000000240000402400010024080B400AF76
:102DA00000BFFDE780B400AF00BFFDE780B400AF17
:102DB00000BFFDE780B400AF00BFFDE780B400AF07
:102DC00000BFFDE780B400AF00BFBD465DF8047BE7
:102DD000704780B400AF00BFBD465DF8047B70470C
:102DE00080B400AF00BFBD465DF8047B704780B57E
:102DF00000AF0BF013F900BF80BD80B400AF01231A
:102E00001846BD465DF8047B704780B582B000AFC0
:102E1000786039600DF09CFD034616221A604FF071
:102E2000FF3318460837BD4680BD80B582B000AF7D
:102E300078604FF0FF317868FFF7E7FF00BFFDE7EC
:102E400080B586B000AFF860B9607A6000237B611E
:102E50000AE0AFF300800146BB685A1CBA60CAB2F0
:102E60001A707B6901337B617A697B689A42F0DB77
:102E70007B6818461837BD4680BD80B586B000AF68
:102E8000F860B9607A6000237B6109E0BB685A1C76
:102E9000BA601B781846AFF300807B6901337B6111
:102EA0007A697B689A42F1DB7B6818461837BD4621
:102EB00080BD80B483B000AF78604FF0FF33184618
:102EC0000C37BD465DF8047B704780B483B000AF1B
:102ED000786039603B684FF400525A60002318460E
:102EE0000C37BD465DF8047B704780B483B000AFFB
:102EF0007860012318460C37BD465DF8047B7047A7
:102F000080B485B000AFF860B9607A6000231846DD
:102F10001437BD465DF8047B7047000080B586B06D
:102F200000AF7860144A154BD31A7B617B693B6113
:102F3000134B1B68002B02D1114B124A1A60104B25
:102F40001A687B6813443A699A4207D20DF000FD73
:102F500003460C221A604FF0FF3309E0084B1B6850
:102F6000FB60074B1A687B681344054A1360FB68D3
:102F700018461837BD4680BD000008200004000038
:102F8000C48300207057012080B400AF064BD3F8F3
:102F90008830054A43F47003C2F8883000BFBD464C
:102FA0005DF8047B704700BF00ED00E0DFF834D02F
:102FB000FFF7EAFF0C480D490D4A002302E0D45800
:102FC000C4500433C4188C42F9D30A4A0A4C002373
:102FD00001E013600432A242FBD30DF0BFFCFEF708
:102FE00009FA70470000082000000020A883002094
:102FF000D04B0108A883002070570120FEE780B560
:1030000082B000AF7860396004F00AFF04F036FE49
:103010007B6814330A220A2118460AF0BBFF00BF5E
:103020000837BD4680BD000080B584B002AF78602F
:1030300039607B68002B03D100210E4804F04EFA62
:1030400078683B685A683B689B68009313460A4A55
:103050000A490AF011FF7B6814337A681521184673
:103060000AF076FF3B681A687B685A6200BF08372F
:10307000BD4680BD60420108E5300008FF2F000812
:1030800080B586B002AF02230093042308220949C9
:1030900009480AF050FC094A3B1D07CA83E80700AB
:1030A0003B1D19460648FFF7BFFF00BF1037BD465E
:1030B00080BD00BF08840020108400202028010863
:1030C000C883002080B582B000AF0346FB71FB7956
:1030D000194603480AF0EAFE00BF0837BD4680BD26
:1030E000C883002090B585B000AF786039603B6838
:1030F0001B88152B06D0152B35DC132B08D0142B71
:103100001DD030E004F096FE04F0FCFD01232BE01E
:103110000023FB730EE0FB7BFC7B184604F090FE63
:10312000034619467B6804F1140223F81210FB7B56
:103130000133FB73FB7B072BEDD9012314E0002344
:10314000BB730DE0BB7B184604F084FD0346BA7BDD
:1031500019B27B681C3223F81210BB7B0133BB739E
:10316000BB7B012BEED9022318461437BD4690BD18
:1031700080B483B000AF7860054A7B681C3332F9B5
:10318000133018460C37BD465DF8047B704700BF0E
:10319000C883002080B483B000AF7860054A7B68A4
:1031A000143332F9133018460C37BD465DF8047BF2
:1031B000704700BFC883002080B500AF02F09AFEC0
:1031C00003F0FAFAFFF75CFF00F08EF800F0AEFDB6
:1031D00000BF80BD80B500AF012000F0A7F804203B
:1031E00002F0BAFE022003F00DFB0320FFF76AFF96
:1031F000052000F0C1FD00BF80BD80B500AF0AF022
:10320000EDFD00BF80BD80B582B000AF7860396051
:1032100004F062FC05F03AFC05F0E8F87B68012256
:1032200083F855207B68002283F85A2000BF0837B6
:10323000BD4680BD80B584B000AF786039607B68E2
:103240005B69FB607B685B6939687868984703460F
:10325000FB72FB7A002B08D1FB6806497868984717
:103260007B685B6904497868984700BF1037BD46A2
:1032700080BD00BF904201087C42010880B584B047
:1032800002AF786039607B68002B03D100211348BE
:1032900004F024F978683B685A683B689B6800939F
:1032A00013460F4A0F490AF0E7FD3B681A687B682E
:1032B0005A617B6818337A68162118460AF048FE6E
:1032C0007B68183318460AF085FE3B681A7B7B68DA
:1032D00083F8502000BF0837BD4680BD6C4201080E
:1032E000353200080732000890B587B002AF1223CC
:1032F000009302232422094909480AF01CFB094BC8
:103300003C460FCB84E80F003B4619460648FFF7C2
:10331000B5FF00BF1437BD4690BD00BFB8A4002064
:10332000DCA400202C2801082C84002080B582B069
:1033300000AF0346FB71FB79194603480AF0B6FD5E
:1033400000BF0837BD4680BD2C84002080B582B008
:1033500000AF786039603B681B88182B12D0182B9F
:1033600015DC012B02D0172B07D010E07B68183337
:1033700018460AF02FFE01230AE07B68064A5A61CC
:10338000002305E07B68054A5A61002300E0022320
:1033900018460837BD4680BDA133000865350008D2
:1033A00080B58CB002AF786039603B681B88013B08
:1033B0001A2B00F2C58001A252F823F0293400082C
:1033C00041350008A73400084135000841350008A0
:1033D00041350008413500084135000841350008F5
:1033E00041350008413500084135000841350008E5
:1033F00041350008413500084135000841350008D5
:1034000041350008413500084135000841350008C4
:103410002F3500084135000841350008B534000853
:10342000D5340008F5340008484B3B6284230093F0
:10343000474B3A6A474948480AF0F3F97B68183322
:10344000002244F6206118460AF0A4FD7B6893F838
:103450002A301946786800F044FA786800F05AFA81
:103460007B68DB6AFB607B681B6B3B617B685B6B2B
:103470007B617B681B8DBB617B6893F82A30FB61A5
:103480007B6893F82B30184604F090FB07F10C038F
:10349000184604F073FF05F05DF97B68002283F89D
:1034A000502001234DE07B68183318460AF092FD46
:1034B000012346E07B6893F85030002B04D17B68F1
:1034C000012283F8502003E07B68032283F8502018
:1034D000012336E07B6893F85030012B04D17B68E0
:1034E000022283F8502003E07B68032283F85020F7
:1034F000012326E07B6893F85030022B04D17B68CF
:10350000052283F8502003E07B68032283F85020D3
:103510000E4B7B62BC2300930D4B7A6A0F490E4819
:103520000AF07FF97B680E4A5A61002309E07B6844
:10353000042283F850207B68094A5A61002300E086
:10354000022318462837BD4680BD00BF3C2801082D
:10355000442801086C280108C8AB00208C28010809
:103560004D33000880B582B000AF786039603B68A9
:103570001B88013B1D2B00F2A88001A252F823F00A
:10358000F9350008CB360008CB360008CB360008EA
:10359000CB360008CB360008CB360008CB36000807
:1035A000CB360008CB360008CB360008CB360008F7
:1035B000CB360008CB360008CB360008CB360008E7
:1035C000CB360008CB360008CB360008CB360008D7
:1035D000CB360008CB360008CB360008CB360008C7
:1035E000CB360008CB360008CB3600084D36000835
:1035F000673600081F3600087B68183318460AF043
:10360000E9FC7B689B6C334A93607B685B6C314A56
:103610005360314931480AF073FC012356E02D4BC9
:103620009B68B3F5805F28BF4FF480539AB22C4B50
:103630001A80284B5B685B00294A128852001146A9
:10364000284A184605F054FA01233FE0264B186833
:10365000234B1B881A467B6893F84D30214902F0B2
:10366000EBFF012332E01B4B9B681D4A12889B1A1B
:10367000184A9360174B5B68194A12881344154A1D
:103680005360144B9B68002B16D0124B9B68B3F50C
:10369000805F28BF4FF480539AB2114B1A800D4BB4
:1036A0005B685B000E4A1288520011460D4A1846AC
:1036B00005F01EFA012309E00C4908480AF020FC35
:1036C0007B680B4A5A61002300E002231846083742
:1036D000BD4680BD90840020CC42010828AB00206C
:1036E000A0A40020A084002004000020D0420108F3
:1036F0004D33000880B584B000AFF860B9607A60DF
:10370000FB70FB687A681A64FB68BA685A64FB68E5
:103710007A689A64FB68FA7883F84D20074B1B6837
:103720004FF6FF72A3F84220FB68054918460AF0DD
:10373000E7FB002318461037BD4680BD040000207B
:10374000B842010880B582B000AF78607B68DA6D5E
:103750007B681A647B6800225A647B68DA6D7B6838
:103760009A647B68012283F84D20084B1B684FF652
:10377000FF72A3F842207B68054918460AF0C0FB97
:10378000002318460837BD4680BD00BF0400002056
:10379000B842010880B584B000AFF860B9607A60C3
:1037A000BB68012B02D87B68642B01D9062318E083
:1037B000FB6893F85530002B06D0002004F048F940
:1037C000FB68002283F855207968B86804F02EFA67
:1037D0007B68D9B2FA68BB68134451330A461A7041
:1037E000002318461037BD4680BD80B582B000AFBB
:1037F000786039603B68242B01D9062314E07B688C
:1038000093F85530012B06D0012004F021F97B6894
:10381000012283F85520386804F094F93B68DAB245
:103820007B6883F85320002318460837BD4680BDC7
:1038300080B582B000AF78607B6893F85530012B7B
:1038400006D0012004F004F97B68012283F855209A
:1038500004F088F97B68FF2283F853200023184680
:103860000837BD4680BD80B582B000AF7860396052
:103870003B68082B01D9062314E07B6893F8553088
:10388000012B06D0012004F0E3F87B68012283F8C5
:103890005520386804F070F93B68DAB27B6883F829
:1038A0005420002318460837BD4680BD80B582B03D
:1038B00000AF78607B6893F85530012B06D001206B
:1038C00004F0C6F87B68012283F8552004F064F9FF
:1038D0007B68FF2283F85420002318460837BD4632
:1038E00080BD80B582B000AF786039603B68242B22
:1038F00001D906230AE004F009FE386804F02EFE20
:103900003B68DAB27B6883F85620002318460837F4
:10391000BD4680BD80B582B000AF786004F00AFE7D
:10392000002318460837BD4680BDB0B483B000AF51
:10393000786039603B681B88002B04D03B681B888B
:10394000B3F57A7F01D9062328E03B689B78002BEA
:1039500003D03B689B78242B01D906231EE03B68EB
:10396000DB78642B01D9062318E03B681B69B3F5AB
:10397000006F01D9062311E03B685B69002B01D180
:1039800006230BE07B683A6803F1280415460FCD47
:103990000FC495E8030084E80300002318460C37A1
:1039A000BD46B0BC7047B0B483B000AF786039603A
:1039B0003A687B68154603F128040FCC0FC594E8DC
:1039C000030085E8030000BF0C37BD46B0BC70475C
:1039D00080B584B000AF78607B682833FB60FB68FB
:1039E0001B88002B04D0FB681B88B3F57A7F01D9B4
:1039F00006231CE0FB689B78002B03D0FB689B78B8
:103A0000242B01D9062312E0FB68DB78642B01D953
:103A100006230CE0FB681B69B3F5006F01D9062390
:103A200005E07B68044918460AF06AFA0023184644
:103A30001037BD4680BD00BFA442010880B582B0EA
:103A400000AF78600B46FB707B68FA781146184629
:103A500009F000FD7B680121184609F0A3F900F088
:103A60000BFA02467B68C3F804227B68002283F8C5
:103A70000C227B68012283F80D22FB78032B04D8EB
:103A8000FB7804497A6841F8232000BF0837BD4617
:103A900080BD00BF3CA7002080B582B000AF786039
:103AA0007A687B6893F800321946104609F0D2FC18
:103AB0007B680121184609F075F900F0DDF902462E
:103AC0007B68C3F804227B68002283F80C2200BFC5
:103AD0000837BD4680BD80B483B000AF78603960E0
:103AE0007B683A68C3F8082200BF0C37BD465DF812
:103AF000047B704780B586B000AFF860B9607A602B
:103B0000FB687A68B968184609F004FC00F0B4F95B
:103B10007861FB6893F8E230002B35D0FB6893F8AE
:103B2000E4301A4613465B0013449B00FA681344C2
:103B30003B613B691B687A69D31A40F6B8329342FD
:103B40001ED9FB6893F80C3283F00103DBB2002B23
:103B50001AD0FB68D3F80832002B04D0FB68D3F8E6
:103B60000832F8689847FB68012283F80C22FB684A
:103B700093F80D32002B07D0F868FFF78DFF03E0B4
:103B8000FB68002283F80C22FB687A69C3F80422E0
:103B900000BF1837BD4680BD80B483B000AF7860E9
:103BA00000BF0C37BD465DF8047B704780B500AFA1
:103BB0004FF480720849094809F0E2FF4FF480721F
:103BC0000749084809F0DCFF064B044A0649074844
:103BD00009F026FD00BF80BD14A90020ECA800203C
:103BE00014AA002000A900200078004014AB002097
:103BF00080B582B000AF786039607B68002B03D15C
:103C000001210F4803F06AFC7B680E4A9A617B68C9
:103C10009B6900211846FFF711FF0B490948FFF780
:103C20005AFF7B6824330A220A2118460AF0B2F9A7
:103C3000064809F011FD00BF0837BD4680BD00BF32
:103C4000D44201082CA50020993B000814AB0020A9
:103C500080B584B000AF786039607B68002B03D1F9
:103C60000421124803F03AFC3B68002B03D10521E4
:103C70000E4803F033FC7B685B69FB607B685B6923
:103C80003968786898470346FB72FB7A002B08D1A5
:103C9000FB680749786898477B685B6905497868DD
:103CA000984700BF1037BD4680BD00BFD442010811
:103CB000EC420108E042010880B584B002AF7860B0
:103CC00039607B68002B03D10221154803F006FC04
:103CD00078683B68DA683B681B6900931346114AB1
:103CE00011490AF0C9F87B6824337A680D21184617
:103CF0000AF02EF93B681A687B685A613B685A687B
:103D00007B689A613B689A687B68DA617B682433D8
:103D100018460AF05FF900BF0837BD4680BD00BFF6
:103D2000D4420108513C0008F13B0008B0B588B00E
:103D300002AFFFF73BFF0C2300930A2378220A49C6
:103D40000A4809F0F8FD0A4B3C1D1D460FCD0FC473
:103D50002B6823603B1D19460648FFF7ADFF00BFE7
:103D60001837BD46B0BD00BF58A70020D0A700201F
:103D7000A8280108F8A4002080B582B000AF03464F
:103D8000FB71FB79194603480AF090F800BF083729
:103D9000BD4680BDF8A4002080B582B000AF786039
:103DA00039607B68002B03D103211B4803F096FB8D
:103DB0003B681B88012B02D00D2B09D027E07B68C4
:103DC00024330A220A2118460AF0E4F801231FE0EE
:103DD000124B4FF480721A607B68DB690F4A1049FE
:103DE000184609F059FC0346002B07D07B689B69F5
:103DF0000A4A12680A491846FFF77CFE7B689B69ED
:103E0000002200211846FFF775FE012300E002237F
:103E100018460837BD4680BDD4420108080000207E
:103E2000ECA7002080B582B000AF0346FB71064BC3
:103E3000DB695B68184609F0ABFF03469BB2184686
:103E40000837BD4680BD00BFF8A4002080B582B011
:103E500000AF03460A46FB711346BB71054BDB6995
:103E6000BA791146184609F096FC00BF0837BD46DE
:103E700080BD00BFF8A4002080B500AF0AF01CF997
:103E80000346184680BD000080B586B000AF39609B
:103E900011461A460346FB710B46BB7113467B71F4
:103EA0007B79032B27D87B79154A52F823303B6165
:103EB00000F04EFDF86000F055FDB86000237B6116
:103EC00014E07B69DB00FA6813441B78FA799A42A4
:103ED00009D17B69DB00FA6813445B68BA793968F9
:103EE0003869984708E07B6901337B617A69BB6870
:103EF0009A42E6DB00E000BF1837BD4680BD00BF38
:103F00003CA7002080B584B000AFF8607A601A4604
:103F10000B46FB721346BB72FB68BA7A1146184611
:103F200008F09CFF0346002B05D0F868BB7AF97AAD
:103F30007A6808F04BFF00BF1037BD4680BD000017
:103F400080B500AF054BDB69184609F09FFC034BB9
:103F5000DB69184609F0BCFC00BF80BDF8A4002056
:103F600080B588B002AFF860B9601346FB710B4BA7
:103F70007B61FB79019334230093094B7A690949EA
:103F8000094809F04EFCFB79BA680221F868FFF78E
:103F9000B9FF00BF1837BD4680BD00BFBC2801086F
:103FA000C4280108F0280108C8AB002080B485B0FF
:103FB00000AFF860B9601346FB7100BF1437BD460F
:103FC0005DF8047B7047000080B588B002AFF860F0
:103FD000B9601346FB71FF23FB740D4B7B619B2380
:103FE00000930C4B7A690C490C4809F01AFC0C4BF5
:103FF0001B68184602F028FE07F113020123062170
:10400000F868FFF77FFF00BF1837BD4680BD00BFCF
:10401000BC280108C428010824290108C8AB0020D5
:104020000C00002080B588B002AFF860B96013467C
:10403000FB71FF23FB740D4B7B61A32300930C4B9F
:104040007A690C490C4809F0ECFB0C4B1B681846CC
:1040500002F016FE07F1130201230821F868FFF7AA
:1040600051FF00BF1837BD4680BD00BFBC28010806
:10407000C428010850290108C8AB00200C0000200A
:1040800080B590B002AFF860B9601346FB710023B1
:10409000FB86BB681B7887F83530BB6801331B781B
:1040A0001BB21B021AB2BB6802331B781BB213434C
:1040B0001BB27B86464BFB62B0230093454BFA6AEA
:1040C0004549464809F0ADFB97F83530042B0CD92B
:1040D000FB8E0133FB863E4BBB62B52300933D4B09
:1040E000BA6A3F493D4809F09CFB7B8EB3F5FA7FE5
:1040F00004D37B8E40F6B83293420ED9FB8E013347
:10410000FB86334B7B627B8E0193BA230093314B4A
:104110007A6A3449314809F084FB334B1B681846EE
:1041200003F03CF8034687F8233097F83530032B2B
:1041300019D897F8232097F8353042FA03F303F0A3
:104140000103002B0FD0224BFB6197F83530019310
:10415000C22300931F4BFA692449204809F061FBF0
:10416000FB8E0133FB86FB8E002B21D197F8353077
:10417000042B09D1164BBB61CA230093154BBA69B6
:104180001B49164809F04DFB174B1B6897F8352063
:104190001146184602F0B4FE134B1B687A8E114686
:1041A000184602F0C3FE3F233B75FF237B7503E0F7
:1041B0003E233B753E237B7507F1140202230A213F
:1041C000F868FFF79FFE00BF3837BD4680BD00BFCF
:1041D000BC280108C42801087C290108C8AB0020BC
:1041E000A8290108D42901080C000020082A010888
:1041F000342A010880B588B002AFF860B960134670
:10420000FB71FF23FB740D4B7B61DD2300930C4B93
:104210007A690C490C4809F004FB0C4B1B681846E2
:1042200002F0A7FE07F1130201230C21F868FFF743
:1042300069FE00BF1837BD4680BD00BFBC2801081D
:10424000C4280108542A0108C8AB00200C00002033
:1042500080B588B002AFF860B9601346FB71FF23E8
:10426000FB740D4B7B61E52300930C4B7A690C4981
:104270000C4809F0D6FA0C4B1B68184602F00AFFEE
:1042800007F1130201230E21F868FFF73BFE00BF80
:104290001837BD4680BD00BFBC280108C4280108EE
:1042A000782A0108C8AB00200C00002080B59CB023
:1042B00002AFF860B9601346FB71B24B3B66ED2369
:1042C0000093B14B3A6EB149B14809F0AAFA002304
:1042D000A7F86630BB681B781BB21B021AB2BB681A
:1042E00001331B781BB213431BB2A7F85E30BB68C7
:1042F00002331B7887F85D30BB6803331B7887F87F
:104300005C30BB6804331B781BB21B021AB2BB685B
:1043100005331B781BB213431BB2A7F85A30BB6896
:1043200006331B781BB21B021AB2BB6807331B781B
:104330001BB213431BB2A7F85830BB6808331B7875
:104340001BB21B021AB2BB6809331B781BB21343A2
:104350001BB2A7F85630B7F85E30B3F57A7F0ED2AD
:10436000B7F866300133A7F86630864B3B65FA2311
:104370000093854B3A6D8749854809F052FAB7F8A2
:104380005E30854AA2FB03239B09A7F85E3097F8AD
:104390005D30002B03D097F85D30242B0FD9B7F890
:1043A00066300133A7F86630764BFB6440F20113A8
:1043B0000093754BFA6C7949754809F032FA97F811
:1043C0005C30642B0FD9B7F866300133A7F866303C
:1043D0006C4BBB644FF4837300936B4BBA6C7049A6
:1043E0006B4809F01EFAB7F85A30002B0FD1B7F816
:1043F00066300133A7F86630624B7B644FF48673F6
:104400000093614B7A6C6749614809F00AFAB7F882
:104410005A301A465201D21A92001344DB00A7F810
:104420005A30B7F85830002B0FD1B7F86630013347
:10443000A7F86630534B3B6440F213130093524B82
:104440003A6C5949524809F0ECF9B7F858301A4615
:104450005201D21A92001344DB00A7F85830B7F883
:104460005630002B0FD1B7F866300133A7F866300D
:10447000444BFB634FF48D730093434BFA6B4B49F2
:10448000434809F0CEF9B7F856301A465201D21A0D
:1044900092001344DB00A7F85630B7F85A20B7F85B
:1044A00058301A44B7F856301344B7F85E2002FB70
:1044B00003F33F4A82FB03129214DB17D31ABB6348
:1044C000BB6BB3F5006F0FD9B7F866300133A7F8AF
:1044D00066302C4B7B634FF4917300932A4B7A6BBD
:1044E00034492B4809F09DF9B7F86630002B6BD1A1
:1044F000B7F85E303B8297F85D30BB7497F85C305C
:10450000FB74B7F85A307B61B7F85830BB61B7F825
:104510005630FB61BB6B3B62B7F85E30264A92FBBC
:10452000F3F37B62254B1B6807F110021146184616
:10453000FFF7FBF90346002B11D13F2387F8283002
:10454000FF2387F829300F4BFB624FF49A730093D7
:104550000D4BFA6A1A490E4809F063F93AE03E2316
:1045600087F828303E2387F82930064B3B634FF409
:104570009D730093044B3A6B1249054809F051F9B9
:1045800028E000BFBC280108C42801089C2A0108B3
:10459000C8AB0020C42A0108D34D6210F82A0108D4
:1045A000242B0108502B0108802B0108B02B010897
:1045B00083DE1B43E02B010840420F001000002067
:1045C000142C01083C2C01083E2387F828303E2398
:1045D00087F8293007F1280202231221F868FFF733
:1045E00091FC00BF6837BD4680BD00BF80B58AB072
:1045F00002AFF860B9601346FB714FF63F733B8220
:10460000BB681B78FB77FB7F642B16D93E233B747A
:104610003E237B7407F1100202231421F868FFF790
:1046200071FC154B7B614FF4A7730093134B7A69B0
:104630001349144809F0F5F81AE007F110020223B3
:104640001421F868FFF75EFC0F4B1B68FA7F00210E
:104650001846FFF79FF8084BBB61FB7F019340F2C0
:1046600053130093054BBA690849064809F0D9F875
:104670002037BD4680BD00BFBC280108C428010802
:10468000642C0108C8AB002010000020942C010805
:1046900080B58AB002AFF860B9601346FB714FF67F
:1046A0003F733B82BB681B78FB77FB7F242B02D8D0
:1046B000FB7F002B16D13E233B743E237B7407F116
:1046C000100202231621F868FFF71CFC144B7B61D3
:1046D0004FF4AF730093134B7A691349134809F0F1
:1046E000A0F81AE007F1100202231621F868FFF77C
:1046F00009FC0F4B1B68FA7F11461846FFF775F847
:10470000074BBB61FB7F019340F263130093054BA2
:10471000BA690849054809F084F82037BD4680BDCC
:10472000BC280108C4280108C02C0108C8AB00201F
:1047300010000020EC2C010880B58AB002AFF860B0
:10474000B9601346FB713F233B75194B1B68184634
:10475000FFF73EF90346002B14D03E233B7507F1CB
:10476000140201231821F868FFF7CCFB114BBB6141
:1047700040F26B130093104BBA691049104809F0CE
:1047800050F811E007F1140201231821F868FFF72F
:10479000B9FB084BFB6140F271130093064BFA69B9
:1047A0000849074809F03DF800BF2037BD4680BDE5
:1047B00010000020BC280108C4280108202D010891
:1047C000C8AB0020482D010880B58EB002AFF8605C
:1047D000B9601346FB714FF63F733B85124B1B6864
:1047E00007F1100211461846FFF7DDF83B6A1B0976
:1047F000DBB287F8283007F1280202231A21F86873
:10480000FFF780FB094BFB6297F82830019340F2D9
:104810007B130093064BFA6A0649074809F001F832
:1048200000BF3037BD4680BD10000020BC28010805
:10483000C4280108682D0108C8AB002080B590B0DD
:1048400002AFF860B9601346FB714FF63F733B85CA
:10485000BB681B7887F83730234B1B6807F11002C1
:1048600011461846FFF79FF83B6A1B0987F8363058
:1048700097F8372097F836309A4218D33E2387F8B6
:1048800028303E2387F8293007F1280202231C2113
:10489000F868FFF737FB154BFB624FF4C4730093C6
:1048A000134BFA6A1349144808F0BBFF18E007F1EC
:1048B000280202231C21F868FFF724FB04F032FBD6
:1048C00004F056FB094B3B6397F8373001934FF4E4
:1048D000C7730093064B3A6B0849074808F0A1FFDD
:1048E00000BF3837BD4680BD10000020BC2801083D
:1048F000C4280108882D0108C8AB0020B02D01088C
:1049000080B485B000AFF860B9601346FB7100BF9A
:104910001437BD465DF8047B704780B485B000AFA6
:10492000F860B9601346FB7100BF1437BD465DF8EF
:10493000047B704780B485B000AFF860B96013465F
:10494000FB7100BF1437BD465DF8047B7047000063
:1049500080B400AF024B1846BD465DF8047B70473B
:10496000F842010880B400AF10231846BD465DF838
:10497000047B704780B400AFBFF34F8F00BF064B7E
:10498000DB6803F4E0620449044B1343CB60BFF3DC
:104990004F8F00BF00BFFDE700ED00E00400FA0507
:1049A00080B588B000AFF860B9607A6007F1140391
:1049B000074A0A2118460BF0E5FD07F114031946D2
:1049C000F86806F0A8FC00BF2037BD4680BD00BFD8
:1049D000E836010880B584B000AFF860B9607A604D
:1049E000FFF7C8FF80B588B000AFF860B9607A60A3
:1049F0000023BB610023FB82B86806F07DFD0346FF
:104A00007B757B7D012B04D02E49F86807F0FAFEF8
:104A100054E00121B86806F039FD38613B691B7824
:104A2000612B22D10023FB771BE0FB7F1846FEF7AA
:104A3000B1FB0346FB82B7F9163013F5004F06D1E0
:104A4000FB7F1A462049F86807F0DCFE06E0FA7F93
:104A5000B7F916301D49F86807F0D4FEFB7F013323
:104A6000FB77FB7F072BE0D928E03B691B782F2BD6
:104A700020D93B691B78372B1CD838690AF0AAFF6C
:104A80000346BB61B869FEF785FB0346FB82B7F9B5
:104A9000163013F5004F05D1BA690B49F86807F0D5
:104AA000B1FE0BE0B7F91630BA690849F86807F0AB
:104AB000A9FE03E00649F86807F0A4FE2037BD46CA
:104AC00080BD00BFF0360108103701082437010807
:104AD0003837010880B588B000AFF860B9607A60F7
:104AE000B86806F009FD0346FB61FB69012B04D0A1
:104AF0001549F86807F086FE23E0144B1B6818463A
:104B000002F0EAF9034683F00103DBB2002B04D084
:104B10000F49F86807F076FE13E00121B86806F047
:104B2000B5FCB861B8690AF055FF03467B61074BD5
:104B30001B687969184602F08EFC0649F86807F090
:104B400061FE2037BD4680BDF0360108140000200C
:104B50004C3701089837010880B584B000AFF86081
:104B6000B9607A600A4B1B68184602F08DFC034658
:104B7000002B04D00749F86807F044FE03E006491B
:104B8000F86807F03FFE00BF1037BD4680BD00BF8C
:104B90001400002098370108A037010880B588B0BC
:104BA00000AFF860B9607A60B86806F0A5FC03460B
:104BB000BB61BB69012B04D03849F86807F022FEBD
:104BC00069E0374B1B68184602F086F9034683F00C
:104BD0000103DBB2002B04D03249F86807F012FE63
:104BE00059E00121B86806F051FC786100233B616F
:104BF0007B691B78612B25D10023FB611EE0284BCC
:104C00001B68F969184602F022F938613B69002BEC
:104C10000CD1234B1B680022F969184602F037F9C2
:104C2000FA692149F86807F0EDFD04E0FA691F49C7
:104C3000F86807F0E7FDFB690133FB61FB69032BB3
:104C4000DDD928E07B691B782F2B24D97B691B7861
:104C5000332B20D878690AF0BDFE0346FB61104B68
:104C60001B68F969184602F0F2F838613B69002BBD
:104C70000CD10B4B1B680022F969184602F007F9AA
:104C8000FA690949F86807F0BDFD04E0FA690749C7
:104C9000F86807F0B7FD2037BD4680BDF036010843
:104CA00014000020A8370108F03701080438010873
:104CB00080B588B000AFF860B9607A60B86806F077
:104CC0001BFC0346FB61FB69012B04D01549F86806
:104CD00007F098FD22E00121B86806F0D7FBB86123
:104CE000B8690AF077FE0346FB82FB8AB3F5FA7FC8
:104CF00004D3FB8A40F6B832934204D90A49F868D3
:104D000007F080FD0AE0094B1B68FA8A1146184635
:104D100002F051FA0649F86807F074FD2037BD46E5
:104D200080BD00BF1C380108443801081400002071
:104D30009837010880B586B000AFF860B9607A6036
:104D4000084B1B68184601F072FF0346FB82FB8A82
:104D50001A460549F86807F055FD00BF1837BD46EB
:104D600080BD00BF140000207838010880B588B0ED
:104D700000AFF860B9607A60B86806F0BDFB034622
:104D8000BB61BB69042B04D03149F86807F03AFDD8
:104D90005BE0304B1B68184602F0A2F90346FB7536
:104DA0000023FB614AE0FB699BB201339BB21946C9
:104DB000B86806F06BFB034618460AF00BFE034684
:104DC000D9B207F11002FB6913440A461A7007F1C1
:104DD0001002FB6913441B78012B05D9FA691E499F
:104DE000F86807F00FFD30E007F11002FB6913448B
:104DF0001B78002B08D1174B1B68FA69D2B21146F9
:104E0000184602F0A8F916E0FB7DFA699A4205D12E
:104E1000FA691249F86807F0F5FC0CE00D4B1B68C5
:104E2000FA69D2B21146184602F074F9FA690C49CF
:104E3000F86807F0E7FCFB690133FB61FB69032BB2
:104E4000B1D90849F86807F0DDFC2037BD4680BDC0
:104E50009C38010814000020C0380108E838010817
:104E60000C3901089837010880B586B000AFF860AA
:104E7000B9607A60134B1B68184602F08FF903463D
:104E8000FB7400237B6115E0FA7C7B6942FA03F333
:104E900003F00103002B05D07A690B49F86807F08D
:104EA000B1FC04E07A690949F86807F0ABFC7B695A
:104EB00001337B617B69032BE6D900BF00BF183744
:104EC000BD4680BD140000200C39010824390108BA
:104ED00080B58CB000AFF860B9607A60354B1B6864
:104EE000184601F0F9FF034683F00103DBB2002B03
:104EF00004D03149F86807F085FC58E0B86806F03E
:104F0000FBFA0346FB62FB6A032B04D02B49F868CB
:104F100007F078FC4BE00121B86806F0B7FAB862F8
:104F2000B86A0AF057FD03467B627B6A032B04D9FB
:104F30002349F86807F066FC39E00221B86806F0FA
:104F4000A5FA3862386A0AF045FD0346FB61FB6941
:104F5000012B04D91B49F86807F054FC27E0032112
:104F6000B86806F093FAB861B8690AF033FD0346F1
:104F7000FB82FB8A40F6B832934204D91249F868A2
:104F800007F040FC13E00B4B1868FB8AFA69796A5A
:104F900002F0E1F938613B69002B04D00B49F86855
:104FA00007F030FC03E00A49F86807F02BFC3037C3
:104FB000BD4680BD140000203C390108603901085D
:104FC0008C390108B0390108D4390108A03701082B
:104FD0009837010880B58AB000AFF860B9607A6090
:104FE0002A4B1B68184601F077FF034683F0010344
:104FF000DBB2002B04D02649F86807F003FC41E03F
:10500000B86806F079FA03467B627B6A022B04D00B
:105010002049F86807F0F6FB34E00121B86806F093
:1050200035FA3862386A0AF0D5FC0346FB61FB6941
:10503000032B04D91849F86807F0E4FB22E00221A9
:10504000B86806F023FAB861B8690AF0C3FC0346F1
:105050007B610E4B18687B69002B14BF0123002372
:10506000DBB21A46F96901F012FF38613B69002B87
:1050700004D00A49F86807F0C5FB03E00849F8685E
:1050800007F0C0FB2837BD4680BD00BF14000020DC
:105090003C390108003A01088C390108A0370108A1
:1050A0009837010880B58AB000AFF860B9607A60BF
:1050B000B86806F021FA03463B623B6A022B04D033
:1050C0003549F86807F09EFB62E00121B86806F0F8
:1050D000DDF9F861314B1B68184602F05FF80346B2
:1050E000FB76FB691B786F2B07D1042387F82730E9
:1050F0002B49F86807F086FB1EE0FB691B782F2B15
:105100001AD9FB691B78332B16D8F8690AF062FCB0
:10511000034687F82730FA7E97F8273042FA03F3E0
:1051200003F00103002B07D097F827301A461D49DA
:10513000F86807F067FB2BE00221B86806F0A6F9D3
:10514000786178690AF046FC03463B613B69B3F538
:10515000FA7F04D33B6940F6B832934204D912492E
:10516000F86807F04FFB13E00C4B1B6897F82720FB
:105170001146184601F0C4FE084B1B683A6992B20A
:105180001146184601F0D2FE0849F86807F03AFBCC
:105190002837BD4680BD00BF203A0108140000201A
:1051A000483A0108603A0108443801089837010874
:1051B00080B584B000AFF860B9607A60064B1B68B8
:1051C000184601F0D6FE0549F86807F01BFB00BF42
:1051D0001037BD4680BD00BF14000020983701087D
:1051E00080B584B000AFF860B9607A60064B1B6888
:1051F000184601F04FFF0549F86807F003FB00BFB0
:105200001037BD4680BD00BF14000020983701084C
:1052100080B586B000AFF860B9607A600F4B1B684C
:10522000184601F05DFF0346FB750C4B1B681846E2
:1052300001F063FF0346BB82FB7D042B04D10849C8
:10524000F86807F0DFFA05E0FA7DBB8A0549F868DF
:1052500007F0D8FA1837BD4680BD00BF1400002003
:10526000483A0108843A010880B588B000AFF86078
:10527000B9607A60B86806F03FF90346FB61FB69E4
:10528000012B04D01249F86807F0BCFA1CE0012198
:10529000B86806F0FBF8B861B8690AF09BFB0346F2
:1052A000FB75FB7D642B04D90A49F86807F0AAFA5C
:1052B0000AE0094B1B68FA7D1146184601F097FF7A
:1052C0000649F86807F09EFA2037BD4680BD00BF4A
:1052D000B03A0108D43A01081400002098370108B8
:1052E00080B586B000AFF860B9607A60084B1B6883
:1052F000184601F092FF0346FB75FB7D1A460549EF
:10530000F86807F07FFA00BF1837BD4680BD00BFC0
:1053100014000020F83A010880B588B000AFF860AA
:10532000B9607A60B86806F0E7F80346BB61BB690C
:10533000042B04D02649F86807F064FA45E00023FE
:10534000FB613BE0FB699BB201339BB21946B86835
:1053500006F09CF8034618460AF03CFB0346D9B217
:1053600007F11402FB6913440A461A7007F114028C
:10537000FB6913441B78012B05D9FA691549F868B4
:1053800007F040FA21E007F11402FB6913441B788F
:10539000002B08D1104B1B68FA69D2B2114618468F
:1053A00001F069FF07E00C4B1B68FA69D2B21146A5
:1053B000184601F03FFFFB690133FB61FB69032BDA
:1053C000C0D90649F86807F01DFA2037BD4680BDF0
:1053D000143B0108C0380108140000209837010868
:1053E00080B586B000AFF860B9607A60124B1B6878
:1053F000184601F063FF0346FB7400237B6113E052
:10540000FA7C7B6942FA03F303F00103002B04D01A
:105410000A49F86807F0F6F903E00949F86807F067
:10542000F1F97B6901337B617B69032BE8D900BF0C
:1054300000BF1837BD4680BD140000203C3B01086A
:10544000543B010880B588B000AFF860B9607A605D
:10545000B86806F051F80346FB61FB69012B04D0E4
:105460000E49F86807F0CEF915E00121B86806F09A
:105470000DF8B861B8690AF0ADFA0346FB82084B33
:105480001B68B7F916201146184601F03AFF054986
:10549000F86807F0B7F92037BD4680BD703B0108BA
:1054A000140000209837010880B586B000AFF8607E
:1054B000B9607A600E4B1B68184601F032FF034654
:1054C000FB82B7F9163007EE903AB8EEE77AF2EEC3
:1054D000046AC7EE267AB7EEE77A53EC172B054934
:1054E000F86807F08FF900BF1837BD4680BD00BFD0
:1054F00014000020983B010880B588B000AFF86028
:10550000B9607A60B86805F0F7FF0346FB61FB6994
:10551000012B04D01249F86807F074F91DE001214D
:10552000B86805F0B3FFB861B8690AF053FA0346EA
:105530007B617B69072B04D90A49F86807F062F997
:105540000BE0094B1B687A69D2B21146184601F08C
:10555000C2FE0649F86807F055F92037BD4680BD00
:10556000BC3B0108D43B0108140000209837010817
:1055700080B586B000AFF860B9607A600023FB7533
:10558000084B1B68184601F0D9FE0346FB75FB7DEE
:105590001A460549F86807F035F900BF1837BD46C7
:1055A00080BD00BF14000020F43B010880B584B02A
:1055B00000AFF860B9607A60064B1B68184601F0CE
:1055C00043FB0549F86807F01DF900BF1037BD46D9
:1055D00080BD00BF140000209837010880B584B05A
:1055E00000AFF860B9607A60064B1B68184601F09E
:1055F00047FB0549F86807F005F900BF1037BD46BD
:1056000080BD00BF140000209837010880B588B025
:1056100000AFF860B9607A60B86805F06DFF0346C6
:10562000FB61FB69012B04D01349F86807F0EAF825
:105630001EE00121B86805F029FFB861B8690AF0D9
:10564000C9F90346FB82B7F91630642B04DD0B4918
:10565000F86807F0D7F80BE0094B1B68B7F916207C
:1056600000211846FEF796F80649F86807F0CAF8D0
:105670002037BD4680BD00BF043C01082C3C01081A
:10568000180000209837010880B588B000AFF86096
:10569000B9607A60B86805F02FFF0346FB61FB69CB
:1056A000012B04D01349F86807F0ACF81EE0012183
:1056B000B86805F0EBFEB861B8690AF08BF90346EB
:1056C000FB82B7F91630642B04DD0B49F86807F04C
:1056D00099F80BE0094B1B68B7F916200121184611
:1056E000FEF758F80649F86807F08CF82037BD46F1
:1056F00080BD00BF503C01082C3C01081800002070
:105700009837010880B588B000AFF860B9607A605A
:105710000023BB83B86805F0EFFE0346FB76FB7EF3
:10572000012B04D02749F86807F06CF846E0012106
:10573000B86805F0ABFE78617B691B78612B1AD1E4
:105740000023FB7713E0FB7F1846FDF711FD0346AE
:10575000BB83FB7F002B01D11B4A00E01B4ABB8BA4
:105760001B49F86807F04EF8FB7F0133FB77FB7F9E
:10577000012BE8D922E07B691B782F2B1AD97B6992
:105780001B78312B16D878690AF024F90346FB748C
:10579000FB7C1846FDF7ECFC0346BB83FB7C002B2F
:1057A00001D1094A00E0094ABB8B0949F86807F0B2
:1057B00029F803E00749F86807F024F82037BD46C8
:1057C00080BD00BFF0360108983C01089C3C0108F0
:1057D000A03C01083837010880B588B000AFF860F8
:1057E000B9607A60B86805F087FE0346FB61FB6923
:1057F000012B04D01349F86807F004F81EE00121DA
:10580000B86805F043FEB861B8690AF0E3F878615A
:105810007B69242B02DC7B69002B04DC0A49F868D5
:1058200006F0F0FF0AE0094B1B687A69114618463A
:10583000FDF7DBFF0649F86806F0E4FF2037BD46B8
:1058400080BD00BFBC3C0108E03C010818000020FE
:105850009837010880B588B000AFF860B9607A6009
:10586000B86805F049FE0346FB61FB69012B04D0D3
:105870001349F86806F0C6FF1EE00121B86805F07C
:1058800005FEB861B8690AF0A5F878617B69082B54
:1058900002DC7B69002B04DC0A49F86806F0B2FFE1
:1058A0000AE0094B1B687A6911461846FDF7DBFFD1
:1058B0000649F86806F0A6FF2037BD4680BD00BF48
:1058C000043D0108283D0108180000209837010810
:1058D00080B584B000AFF860B9607A60064B1B6891
:1058E0001846FDF7A5FF0549F86806F08BFF00BFD5
:1058F0001037BD4680BD00BF180000209837010852
:1059000080B584B000AFF860B9607A60064B1B6860
:105910001846FDF7CBFF0549F86806F073FF00BF96
:105920001037BD4680BD00BF180000209837010821
:1059300080B592B000AFF860B9607A60B86805F0E1
:10594000DBFD03467B647B6C062B04D06949F86859
:1059500006F058FFCBE00121B86805F097FD03463B
:1059600018460AF037F803463B643B6CB3F57A7F80
:1059700003D33B6C604A934204D96049F86806F04F
:1059800041FFB4E03B6C5E4AA2FB03239B093B64EE
:105990000221B86805F07AFD034618460AF01AF8A5
:1059A0000346FB63FB6B002B02D0FB6B242B04D95B
:1059B0005449F86806F026FF99E00321B86805F01D
:1059C00065FD034618460AF005F80346BB63BB6B4A
:1059D000642B04D94C49F86806F014FF87E00421D1
:1059E000B86805F053FD0346184609F0F3FF034677
:1059F0007B637B6B002B04D14449F86806F002FFFF
:105A000075E07B6B4FF47A7202FB03F37B63052135
:105A1000B86805F03BFD0346184609F0DBFF034676
:105A20003B633B6B002B04D13949F86806F0EAFE72
:105A30005DE03B6B4FF47A7202FB03F33B6306219C
:105A4000B86805F023FD0346184609F0C3FF034676
:105A5000FB62FB6A002B04D12E49F86806F0D2FEE7
:105A600045E0FB6A4FF47A7202FB03F3FB627A6B48
:105A70003B6B1A44FB6A13443A6C02FB03F3264A5D
:105A8000A2FB03239B0CBB62BB6AB3F5006F04D976
:105A90002249F86806F0B6FE29E03B6C9BB23B82D7
:105AA000FB6BDBB2BB74BB6BDBB2FB747B6B7B61F0
:105AB0003B6BBB61FB6AFB61BB6A3B62184A3B6C98
:105AC000B2FBF3F37B62174B1B6807F11002114620
:105AD0001846FDF72AFF0346002B04D11249F86847
