:020000040800F2
:1000000000000820B92F0008952D00089D2D00083C
:10001000A52D0008AD2D0008B52D0008000000003A
:10002000000000000000000000000000BD2D0008DE
:10003000CB2D000800000000D92D0008E72D000896
:1000400009300008093000080930000809300008AC
:10005000093000080930000809300008093000089C
:10006000093000080930000809300008093000088C
:100070009DA4000809300008093000080930000874
:10008000093000080930000809300008093000086C
:10009000093000080930000809300008093000085C
:1000A00009300008E1A500080930000809300008FF
:1000B0002DA60008093000080930000809300008A2
:1000C000093000080930000809300008FB2D00083D
:1000D000093000080930000809300008093000081C
:1000E000093000080930000809300008093000080C
:1000F00009300008093000080930000809300008FC
:1001000009300008093000080930000809300008EB
:1001100009300008093000080930000809300008DB
:10012000119B0008E19900086D9A000891AE000843
:1001300009300008093000080930000809300008BB
:1001400009300008093000080930000809300008AB
:100150000930000801A8000809300008A172000851
:10016000093000080930000809300008093000088B
:1001700009300008093000080930000800000000BC
:1001800009300008093000086944000809300008F7
:10019000093000080930000809300008093000085B
:1001A00000000000000000000930000809300008CD
:1001B000093000080930000809300008093000083B
:1001C000093000080930000800000000093000086C
:1001D000093000080930000809300008093000081B
:1001E000093000080930000809300008093000080B
:0801F0000000000009300008C6
:1002000010B5054C237833B9044B13B10448AFF350
:1002100000800123237010BDE44300200000000093
:100220004C54010808B5034B1BB103490348AFF315
:10023000008008BD00000000E84300204C54010885
:1002400010F8012B11F8013B012A28BF9A42F7D080
:10025000D01A7047000000000000000000000000FD
:1002600001F0FF01102A2BDB10F0070F08D010F867
:10027000013B013A8B422DD010F0070F42B3F6D16B
:10028000F0B441EA012141EA014122F007047FF084
:1002900000070023F0E80256083C85EA010586EADB
:1002A000010685FA47F5A3FA87F586FA47F6A5FA17
:1002B00087F68EB9EED1F0BC01F0FF0102F0070223
:1002C00032B110F8013B013A83EA010313B1F8D1CE
:1002D0000020704701387047002D06BF35460338AF
:1002E000073815F0010F07D1013015F4807F02BFE8
:1002F000013015F4C03F0130F0BC0138704700BF39
:10030000034613F8012B002AFBD1181A0138704755
:100310007BB972B90029BEBF00204FF0004106E052
:1003200008BF00281CBF6FF000414FF0FF3000F005
:10033000BBB9ADF1080C6DE904CE002909DB002B37
:100340001ADB00F035F8DDF804E0DDE9022304B043
:100350007047404261EB4101002B1BDB00F028F8A5
:10036000DDF804E0DDE9022304B0404261EB410125
:10037000524263EB43037047524263EB430300F086
:1003800017F8DDF804E0DDE9022304B0404261EB38
:1003900041017047524263EB430300F009F8DDF876
:1003A00004E0DDE9022304B0524263EB43037047EB
:1003B0002DE9F047089D8E4604468846002B4AD119
:1003C0008A42174662D9B2FA82F64EB1C6F12003CC
:1003D00001FA06F820FA03F3B74043EA0808B440EC
:1003E0004FEA174E1FFA87FCB8FBFEF1230C0EFBF9
:1003F000118843EA084301FB0CF29A4209D9FB1821
:1004000001F1FF3080F0EA809A4240F2E780023941
:100410003B449A1AA3B2B2FBFEF00EFB102243EA51
:10042000024300FB0CFC9C4509D9FB1800F1FF328C
:1004300080F0D6809C4540F2D3803B44023840EAAD
:100440000140A3EB0C0300211DB1F3400022C5E9DC
:100450000032BDE8F0878B4205D90DB1C5E9000136
:1004600000210846F5E7B3FA83F1002946D1734528
:1004700002D3824200F20581841A6EEB030201204E
:100480009046002DE5D0C5E90048E2E7002A00F0DB
:100490009080B2FA82F6002E40F0A4808A1A030CF3
:1004A0004FEA174E80B2BCB20121B2FBFEFC0EFB3C
:1004B0001C2243EA024304FB0CF29A4207D9FB18C0
:1004C0000CF1FF3802D29A4200F2E080C4469B1A37
:1004D000B3FBFEF20EFB123340EA034302FB04F4CB
:1004E0009C4207D9FB1802F1FF3002D29C4200F275
:1004F000CA8002461B1B42EA0C40A5E7C1F1200658
:100500008B4022FA06F71F430EFA01F420FA06F395
:100510002EFA06FE4FEA1749234300FA01F81FFAA4
:1005200087FCBEFBF9F01C0C09FB10EE44EA0E44FC
:1005300000FB0CFEA64502FA01F209D93C1900F1B4
:10054000FF3A80F09C80A64540F2998002383C44F6
:10055000A4EB0E041FFA83FEB4FBF9F309FB13446A
:100560004EEA044403FB0CFCA44508D93C1903F1F2
:10057000FF3E80F08280A4457FD9023B3C4443EAA1
:100580000040A4EB0C04A0FB02EC64457346E1467A
:1005900062D35FD05DB1B8EB030264EB090404FAE7
:1005A00006F622FA01F31E43CC40C5E9006400219F
:1005B0004FE7B1FBF2FC010C41EA0E4180B240EA88
:1005C00001423B4638463C46B846BE462026B1FB73
:1005D000F7F1A2EB080241EA0C4166E7014618E791
:1005E00010462CE7C6F120022EFA02F3B740B140C4
:1005F00020FA02F24FEA174E0A43B3FBFEF8BCB2F0
:100600000EFB1833110C41EA034108FB04F9B0401A
:1006100089454FEA104380B23ED9791808F1FF3C72
:1006200001D289451FD8A1EB0901B1FBFEF909FBF5
:1006300004F80EFB191192B242EA0142424529D256
:10064000BA1809F1FF31C4D24245C2D2A9F1020160
:100650003A44BEE7F0459DD2BEEB02036CEB070CBB
:100660000138E14696E7A7EB09094944A8F1020CD5
:10067000B1FBFEF909FB04F8DBE773467FE7504660
:1006800066E70846FDE63B44023A33E7ACF1020C6C
:100690003B441CE749469CE7A1EB0901C446B1FB7A
:1006A000FEF909FB04F8C4E7704700BF80B400AF4F
:1006B000044BDB681B0A03F007031846BD465DF8D0
:1006C000047B704700ED00E080B483B000AF0346C8
:1006D000FB7197F90730002B0BDBFB7903F01F024E
:1006E000074997F907305B09012000FA02F241F847
:1006F000232000BF0C37BD465DF8047B704700BF68
:1007000000E100E080B483B000AF03463960FB71C4
:1007100097F90730002B0ADB3B68DAB20C4997F9EE
:1007200007301201D2B20B4483F800230AE03B6881
:10073000DAB20849FB7903F00F03043B1201D2B28D
:100740000B441A7600BF0C37BD465DF8047B70473A
:1007500000E100E000ED00E080B489B000AFF86097
:10076000B9607A60FB6803F00703FB61FB69C3F1C2
:100770000703042B28BF0423BB61FB690433062B4A
:1007800002D9FB69033B00E000237B614FF0FF329D
:10079000BB6902FA03F3DA43BB681A407B699A40EB
:1007A0004FF0FF317B6901FA03F3D9437B680B40BB
:1007B000134318462437BD465DF8047B704780B468
:1007C00089B000AFF860B9607A60FB682C331946D5
:1007D000BB6803F440734FF44072BA61BA6992FA8D
:1007E000A2F27A617A69B2FA82F2D2B2D3409B0065
:1007F0000B44FB61FB691A68BB6803F01F031F21F0
:1008000001FA03F3DB431A407B6803F01F01BB6866
:1008100003F01F0301FA03F31A43FB691A6000BFD8
:100820002437BD465DF8047B704780B483B000AFC9
:10083000786039607B689B6823F480623B681A4368
:100840007B689A6000BF0C37BD465DF8047B70473B
:1008500080B48DB000AFF860B9607A60FB680C338B
:100860001946BB6803F000734FF00072BA61BA69B1
:1008700092FAA2F27A617A69B2FA82F2D2B2D340E3
:100880009B000B44FB62FB6A1A68BB6803F0F873B9
:100890004FF0F8713962396A91FAA1F1F961F96999
:1008A000B1FA81F1C9B2CB40072101FA03F3DB436E
:1008B0001A40BB6803F0F8734FF0F871B962B96A77
:1008C00091FAA1F17962796AB1FA81F1C9B2CB40AA
:1008D000796801FA03F31A43FB6A1A6000BF3437E0
:1008E000BD465DF8047B704780B485B000AFF8600A
:1008F000B9607A600D4ABB6813441B781A46FB68DE
:1009000013441B6823F0C0020849BB680B441B78E2
:100910001946FB680B4419467B6813430B6000BF04
:100920001437BD465DF8047B704700BF7C7B01082F
:1009300080B485B000AFF860B9607A600D4ABB68DA
:1009400013441B781A46FB6813441B6823F4907207
:100950000849BB680B441B781946FB680B441946D1
:100960007B6813430B6000BF1437BD465DF8047B02
:10097000704700BF7C7B010880B485B000AFF86091
:10098000B9607A600D4ABB6813441B781A46FB684D
:1009900013441B6823F400720849BB680B441B789E
:1009A0001946FB680B4419467B6813430B6000BF74
:1009B0001437BD465DF8047B704700BF7C7B01089F
:1009C00080B485B000AFF860B9607A600D4ABB684A
:1009D00013441B781A46FB6813441B6823F4806297
:1009E0000849BB680B441B781946FB680B44194641
:1009F0007B6813430B6000BF1437BD465DF8047B72
:100A0000704700BF7C7B010880B485B000AFF86000
:100A1000B9607A600D4ABB6813441B781A46FB68BC
:100A200013441B6823F4C0520849BB680B441B786D
:100A30001946FB680B4419467B6813430B6000BFE3
:100A40001437BD465DF8047B704700BF7C7B01080E
:100A500080B485B000AFF860B9607A600D4ABB68B9
:100A600013441B781A46FB6813441B6823F4C042E6
:100A70000849BB680B441B781946FB680B441946B0
:100A80007B6813430B6000BF1437BD465DF8047BE1
:100A9000704700BF7C7B010880B485B000AFF86070
:100AA000B9607A600D4ABB6813441B781A46FB682C
:100AB00013441B6823F440320849BB680B441B787D
:100AC0001946FB680B4419467B6813430B6000BF53
:100AD0001437BD465DF8047B704700BF7C7B01087E
:100AE00080B485B000AFF860B9607A600D4ABB6829
:100AF00013441B781A46FB6813441B6823F0F0521A
:100B00000849BB680B441B781946FB680B4419461F
:100B10007B6813430B6000BF1437BD465DF8047B50
:100B2000704700BF7C7B010880B483B000AF786061
:100B300039600C4A3B6813441B781A467B6813449F
:100B40005B6908493A680A44127811467A680A448F
:100B500023F00403536100BF0C37BD465DF8047BEE
:100B6000704700BF7C7B010880B483B000AF786021
:100B70007B681B6843F001027B681A6000BF0C377A
:100B8000BD465DF8047B704780B483B000AF7860E9
:100B90007B681B6823F400327B681A6000BF0C3747
:100BA000BD465DF8047B704780B483B000AF7860C9
:100BB0007B681B6823F400227B681A6000BF0C3737
:100BC000BD465DF8047B704780B485B000AFF86027
:100BD000B9607A60FB68DA68064B1340B9687A68D6
:100BE0000A431A43FB68DA6000BF1437BD465DF85C
:100BF000047B704701F8FFFF80B483B000AF7860DA
:100C00007B68DB6823F400427B68DA6000BF0C3746
:100C1000BD465DF8047B704780B483B000AF786058
:100C20007B685B6843F000727B685A6000BF0C37DA
:100C3000BD465DF8047B704780B400AF054B1B6870
:100C4000044A43F48033136000BFBD465DF8047B63
:100C5000704700BF0038024080B400AF074B1B68EC
:100C600003F40033B3F5003F0CBF01230023DBB2D4
:100C70001846BD465DF8047B704700BF003802404F
:100C800080B483B000AF7860064B9B6823F003020A
:100C900004497B6813438B6000BF0C37BD465DF889
:100CA000047B70470038024080B400AF044B9B685F
:100CB00003F00C031846BD465DF8047B704700BF87
:100CC0000038024080B483B000AF7860064B9B6868
:100CD00023F0F00204497B6813438B6000BF0C379C
:100CE000BD465DF8047B70470038024080B483B095
:100CF00000AF7860064B9B6823F4E05204497B68A0
:100D000013438B6000BF0C37BD465DF8047B704712
:100D10000038024080B483B000AF7860064B9B6817
:100D200023F4604204497B6813438B6000BF0C3797
:100D3000BD465DF8047B70470038024080B483B044
:100D400000AF7860094BD3F890207B681B0CDB4325
:100D50001A407B689BB205491343C1F8903000BF2D
:100D60000C37BD465DF8047B704700BF0038024079
:100D700080B483B000AF7860094BD3F890207B68D3
:100D80001B0CDB431A407B689BB205491343C1F837
:100D9000903000BF0C37BD465DF8047B704700BF44
:100DA0000038024080B483B000AF7860094BD3F8BC
:100DB00090207968084B0B40DB431A407B681B048A
:100DC00004491343C1F8903000BF0C37BD465DF8AD
:100DD000047B7047003802400000FFFF80B483B0FE
:100DE00000AF7860074BD3F88C3023F08072054950
:100DF0007B681343C1F88C3000BF0C37BD465DF8EB
:100E0000047B70470038024080B400AF054B1B687C
:100E1000044A43F08073136000BFBD465DF8047B55
:100E2000704700BF0038024080B400AF074B1B681A
:100E300003F00073B3F1007F0CBF01230023DBB28A
:100E40001846BD465DF8047B704700BF003802407D
:100E500080B485B000AFF860B9607A603B600A4B3F
:100E60005A680A4B1340F968BA6811437A689201CC
:100E700011433A680A43044913434B6000BF1437D7
:100E8000BD465DF8047B7047003802400080BCFF1F
:100E900080B485B000AF7860084B1A6B07497B6857
:100EA00013430B63054B1A6B7B681340FB60FB68B5
:100EB00000BF1437BD465DF8047B70470038024020
:100EC00080B485B000AF7860084B1A6C07497B6826
:100ED00013430B64054B1A6C7B681340FB60FB6883
:100EE00000BF1437BD465DF8047B704700380240F0
:100EF00080B485B000AF7860084B5A6C07497B68B6
:100F000013434B64054B5A6C7B681340FB60FB68D2
:100F100000BF1437BD465DF8047B704700380240BF
:100F200080B483B000AF7860064B1B6823F00F02DB
:100F300004497B6813430B6000BF0C37BD465DF866
:100F4000047B7047003C024080B400AF044B1B6838
:100F500003F00F031846BD465DF8047B704700BFE1
:100F6000003C024080B400AF054B1B68044A43F4C8
:100F70008033136000BFBD465DF8047B704700BF3F
:100F80000070004080B483B000AF7860064B1B68EF
:100F900023F4404204497B6813430B6000BF0C37C5
:100FA000BD465DF8047B70470070004080B400AF20
:100FB000074B5B6803F48043B3F5804F0CBF0123FC
:100FC0000023DBB21846BD465DF8047B704700BFC6
:100FD0000070004080B483B000AF78607B681B680D
:100FE00043F040027B681A6000BF0C37BD465DF8D5
:100FF000047B704780B483B000AF786039607B6851
:101000005B6823F010023B681A437B685A6000BF9C
:101010000C37BD465DF8047B704780B483B000AFE9
:1010200078607B685B6843F008027B685A6000BFA9
:101030000C37BD465DF8047B704780B483B000AFC9
:1010400078607B685B6823F008027B685A6000BFA9
:101050000C37BD465DF8047B704780B483B000AFA9
:1010600078607B681B6843F080027B681A6000BF71
:101070000C37BD465DF8047B704780B483B000AF89
:1010800078607B681B6823F080027B681A6000BF71
:101090000C37BD465DF8047B7047000080B485B016
:1010A00000AF786039603B68012B28D03B68042B87
:1010B00023D03B68102B1ED03B68402B19D03B68D7
:1010C000B3F5807F13D03B68B3F5806F0DD03B68DC
:1010D000B3F5805F07D03B68B3F5803F01D10723AC
:1010E0000EE008230CE006230AE0052308E00423B1
:1010F00006E0032304E0022302E0012300E00023D2
:10110000FB737B6818331946FB7B0B4AD35C0B449B
:10111000BB60BB681A68FB7B0849CB5C194604239B
:101120008B40DB431A40BB681A6000BF1437BD46D2
:101130005DF8047B704700BF847B0108907B010849
:1011400080B485B000AF786039603B68012B28D04F
:101150003B68042B23D03B68102B1ED03B68402BF0
:1011600019D03B68B3F5807F13D03B68B3F5806F2F
:101170000DD03B68B3F5805F07D03B68B3F5803F87
:1011800001D107230EE008230CE006230AE0052323
:1011900008E0042306E0032304E0022302E0012325
:1011A00000E00023FB737B6818331946FB7B0A4A77
:1011B000D35C0B44BB60BB681A68FB7B0749CB5C04
:1011C000194608238B401A43BB681A6000BF1437C6
:1011D000BD465DF8047B7047847B0108907B010865
:1011E00080B483B000AF786039607B689A68064B42
:1011F00013403A681A437B689A6000BF0C37BD46BB
:101200005DF8047B704700BFF8BFFEFF80B483B079
:1012100000AF786039607B685B6823F070023B68E0
:101220001A437B685A6000BF0C37BD465DF8047BEB
:10123000704780B483B000AF786039607B685B68CA
:1012400023F470023B681A437B685A6000BF0C3776
:10125000BD465DF8047B704780B483B000AF786012
:101260007B689B6823F080027B689A6000BF0C3724
:10127000BD465DF8047B704780B483B000AF7860F2
:101280007B681B6843F001027B681A6000BF0C3763
:10129000BD465DF8047B704780B483B000AF7860D2
:1012A00039607B681B6823F4F8123B681B041A43FF
:1012B0007B681A6000BF0C37BD465DF8047B704741
:1012C00080B483B000AF786039607B681B6823F01E
:1012D00078723B685B051A437B681A6000BF0C3765
:1012E000BD465DF8047B704780B483B000AF786082
:1012F0007B689B6843F480427B689A6000BF0C3730
:10130000BD465DF8047B704780B483B000AF786061
:1013100039607B689B6823F400423B681A437B6812
:101320009A6000BF0C37BD465DF8047B704780B4FF
:1013300083B000AF78607B685B6823F490427B6881
:101340005A607B689B6823F02A027B689A6000BF22
:101350000C37BD465DF8047B704780B483B000AFA6
:10136000786039607B683A689A6100BF0C37BD4687
:101370005DF8047B704780B483B000AF786039605B
:101380003B681A047B689A6100BF0C37BD465DF864
:10139000047B704780B500AF0FF0B4F800F02AF876
:1013A00001F0E6F901F078F900F0DEFA00F050FB08
:1013B00000F014FC00F0C4FC00F070F800F03EFDFA
:1013C00000F01EFF00F0F6FF00F0B6FD01F068F837
:1013D00001F0EEF800F0B6F900F064FA00F088FED3
:1013E00000F0CCFE01F01EFF01F032FF01F04FFFD4
:1013F00000BFFDE780B500AF0620FFF791FD00BFFD
:10140000FFF7A2FD0346062BFAD14FF44040FFF749
:10141000B9FDFFF7A7FDFFF70FFC00BFFFF71CFCAE
:101420000346012BFAD10023C0220C214FF4800087
:10143000FFF70EFDFFF7E8FC00BFFFF7F5FC0346E2
:10144000012BFAD100BFFFF7B1FD0346002BFAD004
:101450000020FFF737FC4FF4A050FFF747FC4FF494
:101460000040FFF757FC0220FFF70AFC00BFFFF720
:101470001BFC0346082BFAD1074811F0BDF80F20DA
:101480000FF082F80346002B01D001F059FC002038
:10149000FFF7A4FC00BF80BD00C2EB0B80B592B08B
:1014A00000AF07F13C0300221A605A609A6007F10E
:1014B000280300221A605A609A60DA601A6107F104
:1014C000180300221A605A609A60DA603B460022D4
:1014D0001A605A609A60DA601A615A614FF480703B
:1014E000FFF706FD0420FFF7D3FC0220FFF7D0FC36
:1014F00001233B6003237B6000233B613B4619468D
:1015000084480FF016FE02233B6003237B60002318
:101510003B613B4619467F480FF00BFE04233B60BE
:1015200003237B6000233B613B46194679480FF05B
:1015300000FE08233B6003237B6000233B613B46A6
:10154000194674480FF0F5FD10233B6003237B60C0
:1015500000233B613B4619466E480FF0EAFD20230D
:101560003B6003237B6000233B613B46194669488F
:101570000FF0DFFD01233B6003237B6000233B6111
:101580003B46194664480FF0D4FD02233B60032319
:101590007B6000233B613B4619465F480FF0C9FD65
:1015A000002200215D48FFF79BFA002200215B48E2
:1015B000FFF79AF9002200215848FFF76DFA4FF41F
:1015C000807200215548FFF7B3F9002200215348EB
:1015D000FFF7D2F94FF4806200215048FFF7F0F98D
:1015E0004FF4006200214D48FFF70EFA4FF400520D
:1015F00000214A48FFF72CFA00214848FFF794FAE7
:101600000023FB6300233B644FF480737B6407F18A
:101610003C03194642480FF013FC0023BB624FF411
:10162000E003FB6200233B6300237B634FF44073C2
:10163000BB6307F12803194639480FF02DFC002140
:101640003748FFF7F2F84FF48033BB610023FB61AA
:1016500007F11803194633480FF0AAFB0A224FF48A
:1016600000712F48FFF7ABF801220A212C48FFF741
:10167000EFF82D4A40F205212948FFF7A0F8012292
:1016800029492748FFF7E4F8284A40F20A2124486C
:10169000FFF795F8012225492148FFF7D9F8244A98
:1016A00040F20F211E48FFF78AF8012220491C480A
:1016B000FFF7CEF81F4A4FF405711948FFF77FF87E
:1016C00001221C491648FFF7C3F81B4A40F21921B2
:1016D0001348FFF774F8012217491148FFF7B8F8CB
:1016E000164A4FF480710E48FFF769F8012213493A
:1016F0000B48FFF7ADF8124A40F205110848FFF712
:101700005EF801220E490648FFF7A2F800BF4837ED
:10171000BD4680BD00080240000402400064024053
:1017200000200140002301400B0030000C0060004D
:101730000D0090000E00C0000F00F00008008003B4
:101740000900B00380B58EB000AF07F12C03002272
:101750001A605A609A6007F1180300221A605A60F2
:101760009A60DA601A613B4600221A605A609A60F9
:10177000DA601A615A614FF40070FFF7B9FB01207B
:10178000FFF786FB04233B6003237B6000233B6160
:101790003B4619463E480FF0CCFC08233B60032330
:1017A0007B6000233B613B46194639480FF0C1FC82
:1017B0004FF0007202213748FFF792F90022022110
:1017C0003448FFF791F8002202213248FFF764F90C
:1017D0004FF4807202212F48FFF7AAF8002202215D
:1017E0002C48FFF7C9F84FF4806202212948FFF71F
:1017F000E7F84FF4006202212648FFF705F94FF49D
:10180000005202212348FFF723F902212148FFF764
:101810008BF90023FB6200233B634FF480737B63EF
:1018200007F12C0319461C480FF00AFB0023BB618B
:101830004FF48013FB6100233B6200237B624FF473
:101840004073BB6207F11803194613480FF024FBDD
:101850004FF480611048FEF7E8FF104A4FF4007122
:101860000D48FEF7ACFF01220C490B48FEF7F0FFD4
:101870000B4A40F205210848FEF7A1FF0122084962
:101880000548FEF7E5FF00BF3837BD4680BD00BF05
:101890000000024000640240002101400300900269
:1018A0000200600280B58EB000AF07F12C03002269
:1018B0001A605A609A6007F1180300221A605A6091
:1018C0009A60DA601A613B4600221A605A609A6098
:1018D000DA601A615A614FF48060FFF709FB01205A
:1018E000FFF7D6FA02233B6003237B6000233B61B2
:1018F0003B46194619480FF01CFC0023FB620023ED
:101900003B6300237B6307F12C03194614480FF057
:1019100097FA0023BB610023FB6100233B62002395
:101920007B620023BB6207F1180319460C480FF0D5
:10193000B3FA4FF480610A48FEF777FF094A4FF483
:1019400000710748FEF73BFF002206490448FEF7F6
:101950007FFF00BF3837BD4680BD00BF000002409A
:10196000002201400100300280B58EB000AF07F1C7
:101970001C0300221A605A609A60DA601A615A6188
:101980009A613B1D00221A605A609A60DA601A61FF
:101990005A614FF44030FFF705FA0220FFF778FA5A
:1019A00040237B600223BB600323FB6001233B6178
:1019B00000237B610423BB613B1D194621480FF0C6
:1019C000B8FB80237B600223BB600323FB60012301
:1019D0003B6100237B610423BB613B1D1946194811
:1019E0000FF0A7FB4FF40010FFF76AFA1648FFF755
:1019F00013F9002200211448FFF7E6F81248FFF718
:101A0000FBF81148FFF7D0F80F48FFF7BDF80023A7
:101A1000FB610E4B3B6200237B620023BB62002311
:101A2000FB6200233B6300237B6307F11C03194621
:101A300005480FF095FC0448FFF796F800BF3837CB
:101A4000BD4680BD0004024000540040FF631060AA
:101A500080B590B000AF07F1180328220021184686
:101A600011F03AFD3B4600221A605A609A60DA6033
:101A70001A615A614FF48050FFF73AFA0120FFF7DC
:101A800007FA10233B6002237B600323BB60002323
:101A9000FB6000233B6105237B613B4619464C48B4
:101AA0000FF047FB20233B6002237B600323BB60D6
:101AB0000023FB6000233B6105237B613B46194605
:101AC00043480FF036FB40233B6002237B60032337
:101AD000BB600023FB6000233B6105237B613B4629
:101AE00019463B480FF025FB80233B6002237B60B7
:101AF0000323BB600023FB6000233B6105237B6164
:101B00003B46194632480FF014FB4FF0C0620321E8
:101B10003048FEF7E5FF402203212E48FEF7E4FEA1
:101B20004FF4003203212B48FEF7B6FF00220321B9
:101B30002848FEF7FDFE002203212648FEF71CFF81
:101B40004FF4806203212348FEF73AFF002203216D
:101B50002048FEF759FF002203211E48FEF778FFB8
:101B600003211C48FEF7E0FFFEF7A0FD034600221C
:101B700000211846FEF7F0FD034619462320FEF724
:101B8000C1FD2320FEF7A0FD0023BB610023FB6104
:101B90004FF4E0633B6202237B620023BB620023BD
:101BA000FB6200237B630023BB630723FB6307F116
:101BB0001803194608480FF0ABFF00210648FFF74D
:101BC00019FA0548FFF739FA00BF4037BD4680BD16
:101BD00000000240006402400030014080B590B037
:101BE00000AF07F1180328220021184611F074FCF9
:101BF0003B4600221A605A609A60DA601A615A61A4
:101C00004FF48040FFF75CF90220FFF741F94FF4F1
:101C100000533B6002237B600323BB600023FB6017
:101C200000233B6105237B613B46194641480FF089
:101C300080FA4FF480433B6002237B600323BB6048
:101C40000023FB6000233B6105237B613B46194673
:101C500038480FF06EFA4FF400433B6002237B607C
:101C60000323BB600023FB6000233B6105237B61F2
:101C70003B4619462F480FF05CFA4FF09052012175
:101C80002D48FEF72DFF002201212B48FEF72CFEE8
:101C90004FF4403201212848FEF7FEFE4FF48072D7
:101CA00001212548FEF744FE002201212248FEF7CB
:101CB00063FE4FF4806201211F48FEF781FE4FF45E
:101CC000006201211C48FEF79FFE4FF400520121E3
:101CD0001948FEF7BDFE01211748FEF725FF002336
:101CE000BB614FF48273FB614FF470633B6200236E
:101CF0007B620023BB624FF40073FB6200233B63F3
:101D000000237B630023BB630723FB6307F11803F6
:101D100019460A480FF0FCFE00210848FFF76AF94F
:101D20000648FFF77AF90548FFF754F900BF403736
:101D3000BD4680BD00040240006002400038004003
:101D400080B590B000AF07F1180328220021184693
:101D500011F0C2FB3B4600221A605A609A60DA60BA
:101D60001A615A614FF40040FFF7AAF80420FFF708
:101D70008FF84FF480633B6002237B600323BB60DA
:101D80000023FB6000233B6106237B613B46194631
:101D900028480FF0CEF94FF400633B6002237B60CC
:101DA0000323BB600023FB6000233B6106237B61B0
:101DB0003B4619461F480FF0BCF94FF480533B6077
:101DC00002237B600323BB600023FB6000233B6195
:101DD00006237B613B46194616480FF0AAF90023FB
:101DE000BB614FF48273FB614FF4E0633B620023FD
:101DF0007B620023BB624FF40073FB6200233B63F2
:101E000000237B630023BB630723FB6307F11803F5
:101E1000194609480FF07CFE00210748FFF7EAF851
:101E20000548FFF7FAF80448FFF7D4F800BF403739
:101E3000BD4680BD00080240003C004080B590B027
:101E400000AF07F1180328220021184611F044FBC7
:101E50003B4600221A605A609A60DA601A615A6141
:101E60004FF40050FFF744F81020FFF711F84FF43B
:101E700080533B6002237B600323BB600023FB6035
:101E800000233B6105237B613B46194628480FF040
:101E900050F94FF400533B6002237B600323BB6087
:101EA0000023FB6000233B6105237B613B46194611
:101EB0001F480FF03EF94FF480433B6002237B60E4
:101EC0000323BB600023FB6000233B6105237B6190
:101ED0003B46194616480FF02CF90023BB614FF41E
:101EE0008273FB614FF4E0633B6200237B6201235A
:101EF000BB624FF40073FB6220233B6300237B63D0
:101F00000023BB630723FB6307F118031946094845
:101F10000FF0FEFD00210748FFF76CF80548FFF7BA
:101F20008CF80448FFF756F800BF4037BD4680BD27
:101F3000001002400034014080B590B000AF07F1BE
:101F4000180328220021184611F0C6FA3B46002249
:101F50001A605A609A60DA601A615A614FF4001090
:101F6000FEF7C6FF0220FEF793FF08233B60022323
:101F70007B600323BB600023FB6000233B610823DD
:101F80007B613B46194657480FF0D3F810233B605E
:101F900002237B600323BB600023FB6000233B61C3
:101FA00008237B613B4619464E480FF0C2F82023B8
:101FB0003B6002237B600323BB600023FB600023A4
:101FC0003B6108237B613B46194646480FF0B1F858
:101FD0004FF0007205214448FEF782FD40220521A2
:101FE0004148FEF781FC4FF4403205213E48FEF7A0
:101FF00053FD002205213C48FEF79AFC00220521F2
:102000003948FEF7B9FC4FF4806205213648FEF7E7
:10201000D7FC002205213448FEF7F6FC00220521FA
:102020003148FEF715FD05212F48FEF77DFD4FF0E5
:10203000007206212C48FEF753FD002206212A4893
:10204000FEF752FC4FF4403206212748FEF724FDEC
:10205000002206212448FEF76BFC002206212248BC
:10206000FEF78AFC4FF4806206211F48FEF7A8FCA9
:10207000002206211C48FEF7C7FC002206211A4850
:10208000FEF7E6FC06211848FEF74EFD0023BB6173
:102090004FF48273FB614FF4E0633B6200237B6289
:1020A0000023BB624FF40073FB6200233B630023F9
:1020B0007B630023BB630723FB6307F11803194607
:1020C0000A480FF025FD00210848FEF793FF074856
:1020D000FEF7A3FF0548FEF77DFF00BF4037BD4672
:1020E00080BD00BF00040240006402400054014073
:1020F00080B586B000AF3B1D00221A605A609A601E
:10210000DA601A610120FEF7F3FEFEF7CFFA03460C
:10211000002200211846FEF71FFB0346194619202E
:10212000FEF7F0FA1920FEF7CFFA0023BB80002358
:10213000BB604FF6FF73FB6000233B6100237B61B4
:102140003B1D19460C480FF0D7FD0B48FEF795FFD5
:1021500000210948FFF744F800210748FFF756F827
:1021600000210548FFF765F80348FFF775F800BF41
:102170001837BD4680BD00BF0000014080B586B065
:1021800000AF3B1D00221A605A609A60DA601A6143
:102190000120FEF795FEFEF789FA03460022022190
:1021A0001846FEF7D9FA034619461C20FEF7AAFA8C
:1021B0001C20FEF789FA0023BB800023BB604FF090
:1021C000FF33FB6000233B613B1D19464FF080400D
:1021D0000FF092FD4FF08040FEF73FFF00214FF0DF
:1021E0008040FEF7FDFF00214FF08040FFF70EF822
:1021F0004FF08040FFF730F800BF1837BD4680BD74
:1022000080B594B000AF07F13C0300221A605A6019
:102210009A60DA601A6107F11C0320220021184637
:1022200011F05AF93B1D00221A605A609A60DA6078
:102230001A615A610420FEF743FE0A23BB8700237C
:102240003B644CF250337B644FF40073BB6407F182
:102250003C03194655480FF04FFD5448FEF70DFF5B
:1022600000215248FEF7BCFF01215048FEF768FFED
:102270006023FB6100233B6200237B620023BB627F
:102280000023FB6207F11C031A46012147480FF0A7
:10229000CDFD01214548FEF701FF10214348FEF71F
:1022A0004FFF07F11C031A46102140480FF0BEFDF6
:1022B00010213E48FEF7F2FE4FF480713B48FEF7D6
:1022C0003FFF07F11C031A464FF4807137480FF0A7
:1022D000ADFD4FF480713548FEF7E0FE4FF48051BC
:1022E0003248FEF72DFF07F11C031A464FF48051C8
:1022F0002E480FF09BFD4FF480512C48FEF7CEFE88
:1023000000212A48FEF782FF2848FEF7A5FF082093
:10231000FEF7BEFD4FF480537B600223BB600023B9
:10232000FB6000233B6100237B610223BB613B1DFB
:1023300019461F480EF0FDFE4FF400537B60022348
:10234000BB600023FB6000233B6100237B61022311
:10235000BB613B1D194616480EF0EBFE4FF480435F
:102360007B600223BB600023FB6000233B610023F2
:102370007B610223BB613B1D19460D480EF0D9FE5F
:102380004FF400437B600223BB600023FB6000230B
:102390003B6100237B610223BB613B1D194604485E
:1023A0000EF0C7FE00BF5037BD4680BD000800409C
:1023B000000C024080B58EB000AF07F11C03002274
:1023C0001A605A609A60DA601A615A619A613B1D1C
:1023D00000221A605A609A60DA601A615A614FF0FE
:1023E0004050FEF7C5FC4FF08040FEF769FD10201D
:1023F000FEF74EFD80237B600223BB600323FB605E
:1024000000233B6101237B610823BB613B1D19460F
:1024100021480EF08EFE4FF480737B600223BB6078
:102420000323FB6000233B6100237B610823BB6126
:102430003B1D194618480EF07CFEFEF737F903469F
:1024400000220B211846FEF787F903461946522051
:10245000FEF758F95220FEF737F94FF4E133FB61EC
:1024600000233B6200237B620023BB620C23FB62E0
:1024700000233B6300237B6307F11C0319460748D5
:102480000FF0F4FF0548FEF752FF0448FEF7F4FE94
:1024900000BF3837BD4680BD0010024000780040C4
:1024A00080B58EB000AF07F11C0300221A605A609D
:1024B0009A60DA601A615A619A613B1D00221A60C3
:1024C0005A609A60DA601A615A614FF44030FEF740
:1024D00035FC1020FEF70CFD0120FEF7D9FC4FF46F
:1024E00000737B600223BB600323FB6000233B611E
:1024F00000237B610723BB613B1D19462A480EF070
:1025000018FE4FF480637B600223BB600323FB60F3
:1025100000233B6100237B610723BB613B1D194600
:1025200021480EF006FE4FF480537B600223BB600F
:102530000323FB6000233B6100237B610723BB6116
:102540003B1D194618480EF0F4FD4FF4E133FB61D2
:1025500000233B6200237B620023BB620C23FB62EF
:1025600000233B6300237B6307F11C0319460F48DC
:102570000FF07CFF0D48FEF7B7FE00210B48FEF779
:10258000C3FE00210948FEF79BFE00210748FEF725
:1025900083FE0648FEF7CBFE0448FEF76DFE00BF43
:1025A0003837BD4680BD00BF00000240001001402A
:1025B00080B58EB000AF07F11C0300221A605A608C
:1025C0009A60DA601A615A619A613B1D00221A60B2
:1025D0005A609A60DA601A615A614FF04060FEF703
:1025E000ADFB2020FEF784FC0420FEF751FC4023C5
:1025F0007B600223BB600323FB6000233B6100235D
:102600007B610823BB613B1D194621480EF091FDFB
:1026100080237B600223BB600323FB6000233B61BC
:1026200000237B610823BB613B1D194618480EF04F
:1026300080FDFEF73BF8034600220B211846FEF70B
:102640008BF8034619464720FEF75CF84720FEF753
:102650003BF84FF4E133FB6100233B6200237B62D4
:102660000023BB620C23FB6200233B6300237B63DC
:1026700007F11C03194607480FF0F8FE0548FEF75E
:1026800056FE0448FEF7F8FD00BF3837BD4680BD52
:10269000000802400014014080B500AF4FF48000F4
:1026A000FEF7F6FB4FF40010FEF7F2FBFDF7FEFF1E
:1026B0000346002200211846FEF74EF8034619464D
:1026C0000C20FEF71FF80C20FDF7FEFFFDF7EEFFD4
:1026D000034600220A211846FEF73EF80346194633
:1026E0003820FEF70FF83820FDF7EEFFFDF7DEFF8C
:1026F000034600220A211846FEF72EF80346194623
:102700003A20FDF7FFFF3A20FDF7DEFFFDF7CEFF91
:102710000346002200211846FEF71EF8034619461C
:102720003B20FDF7EFFF3B20FDF7CEFFFDF7BEFF9F
:102730000346002209211846FEF70EF80346194603
:102740004420FDF7DFFF4420FDF7BEFFFDF7AEFF9D
:102750000346002201211846FDF7FEFF03461946F5
:102760004520FDF7CFFF4520FDF7AEFF00BF80BD40
:1027700080B586B000AF3B4600221A605A609A606E
:10278000DA601A615A611020FEF782FB0420FEF71E
:102790007FFB8020FEF77CFB0120FEF779FB022007
:1027A000FEF776FB0820FEF773FB0421C048FEF716
:1027B000E2FD0821BE48FEF7DEFD1021BC48FEF711
:1027C000DAFD2021BA48FEF7D6FD4021B848FEF7D1
:1027D000D2FD4FF40051B748FEF7CDFD4FF48041D4
:1027E000B448FEF7C8FD4FF40041B248FEF7C3FD00
:1027F0004FF40061AE48FEF7BEFD4FF48061AE4875
:10280000FEF7B9FD4FF40061AB48FEF7B4FD4FF49D
:102810008071A848FEF7AFFD4FF40061A748FEF7AE
:10282000AAFD4FF40041A548FEF7A5FD0121A448EB
:10283000FEF7A1FD0221A248FEF79DFD1021A04850
:10284000FEF799FD20219E48FEF795FD40219C480A
:10285000FEF791FD04219848FEF77FFD4FF480615B
:102860009348FEF77AFD4FF400419148FEF775FD5D
:102870004FF480519048FEF770FD4FF480719048FE
:10288000FEF76BFD4FF400718D48FEF766FD4FF4C7
:1028900080618B48FEF761FD04218948FEF75DFDEC
:1028A00080218748FEF759FD4FF480718248FEF77A
:1028B00054FD4FF400718048FEF74FFD01217C4824
:1028C000FEF74BFD02217A48FEF747FD04233B60EB
:1028D00001237B600023BB600023FB6000233B617E
:1028E0003B46194672480EF024FC08233B60012346
:1028F0007B600023BB600023FB6000233B613B4601
:1029000019466B480EF015FC10233B6001237B60D9
:102910000023BB600023FB6000233B613B4619465C
:1029200063480EF006FC20233B6001237B600023FC
:10293000BB600023FB6000233B613B4619465C48BB
:102940000EF0F7FB40233B6001237B600023BB605C
:102950000023FB6000233B613B46194654480EF0C0
:10296000E8FB4FF400533B6001237B600023BB6016
:102970000023FB6000233B613B4619464D480EF0A7
:10298000D8FB4FF480433B6001237B600023BB6096
:102990000023FB6000233B613B46194645480EF08F
:1029A000C8FB4FF400433B6001237B600023BB6006
:1029B0000023FB6000233B613B4619463D480EF077
:1029C000B8FB04233B6001237B600023BB60002332
:1029D000FB6000233B613B46194637480EF0A9FBDC
:1029E0004FF480633B6001237B600023BB600023C6
:1029F000FB6000233B613B4619462D480EF099FBD6
:102A00004FF400633B6001237B600023BB60002325
:102A1000FB6000233B613B46194625480EF089FBCD
:102A20004FF400433B6001237B600023BB60002325
:102A3000FB6000233B613B4619461D480EF079FBC5
:102A40004FF480633B6001237B600023BB60002365
:102A5000FB6002233B613B46194617480EF069FBB9
:102A60004FF400633B6001237B600023BB600023C5
:102A7000FB6002233B613B4619460F480EF059FBB1
:102A80004FF480533B6001237B600023BB60002335
:102A9000FB6000233B613B46194607480EF049FBAB
:102AA0004FF480733B6001237B6003230AE000BF87
:102AB00000100240000802400004024000000240F2
:102AC000000C0240BB600023FB6000233B613B46DF
:102AD000194696480EF02DFB4FF400733B6001231E
:102AE0007B600323BB600023FB6000233B613B460C
:102AF00019468E480EF01DFB4FF480633B600123A6
:102B00007B600323BB600023FB6000233B613B46EB
:102B1000194686480EF00DFB4FF400633B6000231E
:102B20007B6000233B613B46194680480EF001FB69
:102B30004FF480733B6001237B600023BB60002364
:102B4000FB6002233B613B46194679480EF0F1FADF
:102B50004FF400733B6000237B6000233B613B46E6
:102B6000194673480EF0E5FA4FF480733B6000237A
:102B70007B6000233B613B4619466E480EF0D9FA54
:102B80004FF400633B6001237B600023BB600023A4
:102B9000FB6000233B613B46194666480EF0C9FACC
:102BA0004FF400433B6001237B600023BB600023A4
:102BB000FB6000233B613B4619465E480EF0B9FAC4
:102BC00001233B6001237B600023BB600023FB608B
:102BD00000233B613B46194654480EF0AAFA0223F3
:102BE0003B6001237B600023BB600023FB6000236C
:102BF0003B613B4619464D480EF09BFA04233B606F
:102C000001237B600023BB600023FB6000233B614A
:102C10003B46194645480EF08CFA08233B600023DA
:102C20007B6000233B613B46194640480EF081FA29
:102C300010233B6001237B600023BB600023FB600B
:102C400000233B613B46194638480EF072FA2023B8
:102C50003B6001237B600023BB600023FB600023FB
:102C60003B613B46194631480EF063FA40233B6016
:102C700001237B600023BB600023FB6000233B61DA
:102C80003B46194629480EF054FA80233B60012345
:102C90007B600023BB600023FB6000233B613B465D
:102CA000194622480EF045FA4FF480733B60012329
:102CB0007B600023BB600023FB6000233B613B463D
:102CC00019461D480EF035FA4FF400733B6001239E
:102CD0007B600023BB600023FB6000233B613B461D
:102CE000194615480EF025FA01233B6001237B604D
:102CF0000023BB600023FB6000233B613B46194679
:102D00000E480EF016FA02233B6001237B6000237D
:102D1000BB600023FB6000233B613B46194607482C
:102D20000EF007FA00BF1837BD4680BD000C024008
:102D3000000802400000024000040240001002406F
:102D400080B400AF72B600BF00BFFDE780B483B0AF
:102D500000AF0F4B1B6C0E4A43F0805313640C4BB7
:102D60001B6C03F080537B607B68094B5B6C084AEB
:102D700043F480435364064B5B6C03F480433B6035
:102D80003B6800BF0C37BD465DF8047B704700BF51
:102D90000038024080B400AF00BFFDE780B400AF50
:102DA00000BFFDE780B400AF00BFFDE780B400AF17
:102DB00000BFFDE780B400AF00BFFDE780B400AF07
:102DC00000BFBD465DF8047B704780B400AF00BF14
:102DD000BD465DF8047B704780B400AF00BFBD46C0
:102DE0005DF8047B704780B500AF0DF031FB0DF04E
:102DF000FBFB08F0EDF900BF80BD80B400AF00BF61
:102E0000BD465DF8047B704780B400AF01231846CF
:102E1000BD465DF8047B704780B582B000AF786036
:102E2000396010F0B9FB034616221A604FF0FF33E9
:102E300018460837BD4680BD80B582B000AF7860C7
:102E40004FF0FF317868FFF7E7FF00BFFDE780B57F
:102E500086B000AFF860B9607A6000237B610AE059
:102E6000AFF300800146BB685A1CBA60CAB21A7040
:102E70007B6901337B617A697B689A42F0DB7B680E
:102E800018461837BD4680BD80B586B000AFF860E3
:102E9000B9607A6000237B6109E0BB685A1CBA60A4
:102EA0001B781846AFF300807B6901337B617A6938
:102EB0007B689A42F1DB7B6818461837BD4680BDB7
:102EC00080B483B000AF78604FF0FF3318460C3702
:102ED000BD465DF8047B704780B483B000AF786076
:102EE00039603B684FF400525A60002318460C3793
:102EF000BD465DF8047B704780B483B000AF786056
:102F0000012318460C37BD465DF8047B704780B43A
:102F100085B000AFF860B9607A60002318461437B6
:102F2000BD465DF8047B704780B586B000AF786021
:102F3000144A154BD31A7B617B693B61134B1B68A9
:102F4000002B02D1114B124A1A60104B1A687B6891
:102F500013443A699A4207D210F01EFB03460C2232
:102F60001A604FF0FF3309E0084B1B68FB60074B0A
:102F70001A687B681344054A1360FB6818461837C3
:102F8000BD4680BD00000820000400000044002071
:102F9000107A022080B400AF064BD3F88830054A7F
:102FA00043F47003C2F8883000BFBD465DF8047B6F
:102FB000704700BF00ED00E0DFF834D0FFF7EAFF14
:102FC0000C480D490D4A002302E0D458C450043384
:102FD000C4188C42F9D30A4A0A4C002301E013605A
:102FE0000432A242FBD310F0DDFAFEF7D3F97047AA
:102FF0000000082000000020E4430020D0870108E2
:10300000E44300200C7A0220FEE780B582B000AFD6
:103010007860396006F05AFD06F050FC7B68143386
:103020000A220A2118460DF0CFF900BF0837BD4625
:1030300080BD000080B584B002AF786039607B68E5
:10304000002B03D10021104806F070F878683B6827
:103050005A683B689B68009313460C4A0C490DF074
:1030600025F97B6814337A68192118460DF08AF91E
:103070003B681A687B685A627B6800221A8700BF27
:103080000837BD4680BD00BFB47B0108F930000899
:103090000B30000880B586B002AF022300930423F2
:1030A0000822094909480CF0CAFC094A3B1D07CA15
:1030B00083E807003B1D19460648FFF7BBFF00BF2A
:1030C0001037BD4680BD00BF604400204044002052
:1030D000685401080444002080B582B000AF034664
:1030E000FB71FB79194603480DF0FAF800BF083769
:1030F000BD4680BD0444002090B585B000AF786027
:1031000039603B681B88192B06D0192B27DC172B3D
:1031100008D0182B1DD022E006F0E2FC06F04CFC93
:1031200001231DE00023FB730EE0FB7BFC7B1846B4
:1031300006F0DCFC034619467B6804F1140223F810
:103140001210FB7B0133FB73FB7B072BEDD90123B3
:1031500006E006F09BFB03461AB27B685A870223FF
:1031600018461437BD4690BD80B483B000AF786078
:10317000054A7B681C3332F9133018460C37BD46BC
:103180005DF8047B704700BF0444002080B487B022
:1031900000AFF860B96011461A460B46FB80134633
:1031A000BB80164AFB68143332F91330BB82134AD2
:1031B000BB68143332F91330FB82B7F91430B7F916
:1031C00004209A4210DCB7F91430B7F906209A426D
:1031D0000ADBB7F914301A46B7F91630D31A002BA8
:1031E000B8BF5B42322B01DD012300E0002318460B
:1031F0001C37BD465DF8047B704700BF04440020C7
:1032000080B483B000AF7860054A7B68143332F92C
:10321000133018460C37BD465DF8047B704700BF7D
:103220000444002080B500AF00F0B4F803F01EFFA6
:1032300004F09CFEFFF72EFF02F0D2FA00F070FFC0
:1032400004F040FC04F04AFD04F056FB00BF80BDD2
:1032500080B500AF012000F0BFF8042003F038FF74
:10326000022004F0A9FE0320FFF736FF052002F03C
:10327000D9FA062004F060FC072000F077FF082050
:1032800004F07AFB0A2004F061FD00BF80BD80B528
:1032900000AF0CF0BDFF00BF80BD80B582B000AFB5
:1032A0007860396006F034FA07F050FA06F0F6FE5E
:1032B0007B68012283F85D207B68002283F862200E
:1032C00000BF0837BD4680BD80B584B000AF7860D0
:1032D00039607B685B69FB607B685B69396878682B
:1032E00098470346FB72FB7A002B08D1FB6806491E
:1032F000786898477B685B6904497868984700BF9D
:103300001037BD4680BD00BFE47B0108D07B0108BB
:1033100080B584B002AF786039607B68002B03D140
:103320000021194805F002FF78683B685A683B683D
:103330009B6800931346154A15490CF0B7FF3B688C
:103340001A687B685A617B6818337A681A211846B4
:103350000DF018F87B6828337A68242118460DF0A0
:1033600011F87B68283318460DF04EF87B68183347
:1033700018460DF049F83B681A7B7B6883F85820A3
:1033800000BF0837BD4680BDC07B0108C9320008B8
:103390009B32000890B587B002AF1223009302233E
:1033A0002422094909480CF04AFB094B3C460FCB43
:1033B00084E80F003B4619460648FFF7A9FF00BF07
:1033C0001437BD4690BD00BF04450020D444002002
:1033D000745401086844002080B582B000AF0346F1
:1033E000FB71FB79194603480CF07AFF00BF0837E0
:1033F000BD4680BD6844002080B582B000AF7860D3
:1034000039603B681B88013B1C2B53D801A252F842
:1034100023F000BF89340008B5340008B534000833
:10342000B5340008B5340008B5340008B5340008D8
:10343000B5340008B5340008B5340008B5340008C8
:10344000B5340008B5340008B5340008B5340008B8
:10345000B5340008B5340008B5340008B5340008A8
:10346000B5340008B5340008B5340008B534000898
:10347000B5340008B5340008B534000897340008A6
:10348000A1340008AB3400087B68183318460CF0F0
:10349000BBFF01230FE07B68094A5A6100230AE061
:1034A0007B68084A5A61002305E07B68064A5A6136
:1034B000002300E0022318460837BD4680BD00BF48
:1034C000CD3400086D3700088938000890B58FB0FA
:1034D00002AF786039603B681B88013B232B00F208
:1034E000288101A252F823F079350008333700080B
:1034F0000F36000833370008333700083337000829
:1035000033370008333700083337000833370008F3
:1035100033370008333700083337000833370008E3
:1035200033370008333700083337000833370008D3
:1035300033370008333700083337000833370008C3
:10354000333700083337000833370008E736000800
:1035500033370008333700083337000827360008B0
:103560005B3600088F360008333700083337000811
:1035700033370008F9360008704BFB619D23009338
:103580006F4BFA696F4970480CF0CFF97B681833BC
:10359000002244F6206118460CF016FF7B6893F871
:1035A0003C301946786800F0C6FA786800F0DCFA1A
:1035B0007B68DB8FBB607B68B3F84030FB607B6867
:1035C000B3F842303B617B689B6B7B617B6893F80F
:1035D0003C30BB617B6893F83D30184606F002F939
:1035E00007F10803184606F01FFD7B682833012207
:1035F000012118460CF0E8FE544B00221A8006F018
:1036000001FF7B68002283F85820012392E07B6849
:10361000183318460CF0F8FE7B68283318460CF077
:10362000F3FE012386E0454B3B62C0230093444BED
:103630003A6A474944480CF078F97B6893F8583067
:10364000002B04D17B68012283F8582003E07B68BB
:10365000032283F8582001236CE0384B7B62CB2394
:103660000093374B7A6A3B4937480CF05EF97B6828
:1036700093F85830012B04D17B68022283F858203C
:1036800003E07B68032283F85820012352E02B4B90
:10369000FB62D52300932A4BFA6A2F492A480CF083
:1036A00044F97B6893F85830022B04D17B680522DB
:1036B00083F8582003E07B68032283F858201F4BCF
:1036C000BB62DB2300931E4BBA6A24491E480CF0F0
:1036D0002CF9234B1B68184600F020FE7B68214A1A
:1036E0005A61002326E07B68042283F858207B6817
:1036F0001C4A5A6100231DE0144B1B88B3F5804F10
:1037000010D2124B1B885A1C91B2104A11801C46D1
:1037100006F0C8F803461A46134B23F8142006F0A7
:1037200055F904E07B68283318460CF06DFE012340
:1037300000E0022318463437BD4690BD845401088A
:103740008C540108B45401089C4C012038450120D8
:10375000D4540108005501082855010854550108A2
:1037600008000020F933000838C5002080B582B079
:1037700000AF786039603B681B88232B1ED0232B59
:1037800073DC222B3ED0222B6FDC012B02D0212BAD
:103790002BD06AE07B68183318460CF035FE7B6846
:1037A0001B6D344A53607B68DB6C324A1360324BCA
:1037B0001B68184604F022F8012357E02D4B5B6884
:1037C000B3F5804F28BF4FF480439AB22B4B1A8039
:1037D000284B1B685B00294A128852001146284A70
:1037E000184606F0E5FF012340E0234B1868234B01
:1037F0001B881A467B6893F85530214903F0DAFF9D
:10380000012333E01B4B5B681C4A12889B1A194A40
:103810005360184B1B68194A12881344154A1360E9
:10382000144B5B68002B16D0124B5B68B3F5804FCE
:1038300028BF4FF480439AB2104B1A800D4B1B687F
:103840005B000E4A1288520011460D4A184606F0D7
:10385000AFFF01230AE0084B1B68184603F0DEFFA8
:103860007B68084A5A61002300E0022318460837A3
:10387000BD4680BD284500200400002034C500203E
:1038800034450020F933000880B582B000AF78607D
:1038900039603B681B88012B02D0212B12D01DE020
:1038A0007B68183318460CF0AFFD7B68DB6C0E4A62
:1038B0004FF48041184606F07BFF0B4807F0ACF947
:1038C00001230CE007F016FA084B1B68184604F0B9
:1038D000A1F87B68064A5A61002300E002231846DB
:1038E0000837BD4680BD00BF344500200C000020D5
:1038F000F933000880B584B000AFF860B9607A6031
:10390000FB70FB68BA68DA64FB687A681A65FB6862
:10391000FA7883F85520084B1B684FF6FF72A3F81E
:103920004220FB68054918460CF004FD00231846A8
:103930001037BD4680BD00BF040000200C7C01088C
:1039400080B582B000AF78607B680022DA647B6863
:103950005A6E7B681A657B68012283F85520084BF4
:103960001B684FF6FF72A3F842207B680549184692
:103970000CF0E0FC002318460837BD4680BD00BFB0
:10398000040000200C7C010880B582B000AF786094
:103990007B68044918460CF0CDFC00231846083714
:1039A000BD4680BD347C010880B582B000AF786030
:1039B0007B68044918460CF0BDFC00231846083704
:1039C000BD4680BD487C010880B582B000AF7860FC
:1039D0007B68044918460CF0ADFC002318460837F4
:1039E000BD4680BD5C7C010880B584B000AFF86046
:1039F000B9607A60BB68012B02D87B68642B01D95F
:103A0000062318E0FB6893F85D30002B06D00020F9
:103A100005F03AFEFB68002283F85D207968B868FB
:103A200005F020FF7B68D9B2FA68BB6813445933AC
:103A30000A461A70002318461037BD4680BD80B56F
:103A400082B000AF786039603B68242B01D906232F
:103A500014E07B6893F85D30012B06D0012005F05F
:103A600013FE7B68012283F85D20386805F086FE2E
:103A70003B68DAB27B6883F85B200023184608377E
:103A8000BD4680BD80B582B000AF78607B6893F89A
:103A90005D30012B06D0012005F0F6FD7B68012288
:103AA00083F85D2005F07AFE7B68FF2283F85B20B7
:103AB000002318460837BD4680BD80B582B000AFF0
:103AC000786039603B68082B01D9062314E07B68D5
:103AD00093F85D30012B06D0012005F0D5FD7B6801
:103AE000012283F85D20386805F062FE3B68DAB297
:103AF0007B6883F85C20002318460837BD4680BDEC
:103B000080B582B000AF78607B6893F85D30012BA0
:103B100006D0012005F0B8FD7B68012283F85D2006
:103B200005F056FE7B68FF2283F85C2000231846D0
:103B30000837BD4680BD80B582B000AF786039607F
:103B40003B68242B01D906230AE006F037FB3868CE
:103B500006F05CFB3B68DAB27B6883F85E200023EA
:103B600018460837BD4680BD80B582B000AF78608A
:103B700006F038FB002318460837BD4680BD00001C
:103B800080B483B000AF786039603B681B68002B5D
:103B900004D03B681B68164A934201D9062321E0F2
:103BA0003B68DB68B3F5006F01D906231AE03B6878
:103BB0001A687B689A633B68DA887B68DA873B68B7
:103BC0001A897B68A3F840203B685A897B68A3F870
:103BD00042203B68DA687B685A643B681A697B68F4
:103BE0009A64002318460C37BD465DF8047B704785
:103BF00000350C0080B483B000AF786039603B685A
:103C00005B79642B01D9062305E03B685A797B6810
:103C100083F83D20002318460C37BD465DF8047B31
:103C2000704780B483B000AF786039603B681B791F
:103C3000002B03D03B681B79242B01D9062305E018
:103C40003B681A797B6883F83C20002318460C37C0
:103C5000BD465DF8047B7047B0B483B000AF7860B8
:103C600039603B681B68002B04D03B681B68184A0E
:103C7000934201D9062326E03B681B79002B03D031
:103C80003B681B79242B01D906231CE03B685B7938
:103C9000642B01D9062316E03B68DB68B3F5006F9F
:103CA00001D906230FE03B681B69002B01D10623D5
:103CB00009E07B683A6803F1380415460FCD0FC45C
:103CC0002B682360002318460C37BD46B0BC7047F4
:103CD00000350C00B0B483B000AF786039603A684A
:103CE0007B68154603F138040FCC0FC523682B60A1
:103CF00000BF0C37BD46B0BC7047000080B584B033
:103D000000AF78607B683833FB60FB681B68002B72
:103D100004D0FB681B68134A934201D906231CE0B8
:103D2000FB681B79002B03D0FB681B79242B01D97E
:103D3000062312E0FB685B79642B01D906230CE0B3
:103D4000FB68DB68B3F5006F01D9062305E07B68EB
:103D5000054918460CF0EEFA002318461037BD4608
:103D600080BD00BF00350C00F87B010880B582B033
:103D700000AF78600B467B807B889B031A467B688C
:103D8000DA647B684FF480421A657B68012283F80D
:103D900054207B68044918460CF0CCFA00231846DE
:103DA0000837BD4680BD00BF207C010880B582B0C9
:103DB00000AF7860074806F02FFF06F09BFF064B28
:103DC0001B68184603F026FE002318460837BD4638
:103DD00080BD00BF38C500200C00002080B483B037
:103DE00000AF786039607B683A689A6100BF0C3731
:103DF000BD465DF8047B704780B483B000AF786047
:103E000039603B681A047B689A6100BF0C37BD4675
:103E10005DF8047B7047000080B582B000AF786029
:103E20000B46FB707B68FA78114618460BF096FB40
:103E30007B68012118460BF039F800F0B1FA024610
:103E40007B68C3F804227B68002283F80C227B681D
:103E5000012283F80D22FB78032B04D8FB78044958
:103E60007A6841F8232000BF0837BD4680BD00BFF7
:103E70003048012080B582B000AF78607A687B68F6
:103E800093F80032194610460BF068FB7B6801215D
:103E900018460BF00BF800F083FA02467B68C3F873
:103EA00004227B68002283F80C2200BF0837BD463D
:103EB00080BD80B483B000AF786039607B683A68B9
:103EC000C3F8082200BF0C37BD465DF8047B70477D
:103ED00080B586B000AFF860B9607A60FB687A6838
:103EE000B96818460BF09AFA00F05AFA7861FB6844
:103EF00093F8E230002B35D0FB6893F8E4301A4693
:103F000013465B0013449B00FA6813443B613B6912
:103F10001B687A69D31A40F6B83293421ED9FB68FF
:103F200093F80C3283F00103DBB2002B1AD0FB684C
:103F3000D3F80832002B04D0FB68D3F80832F868B5
:103F40009847FB68012283F80C22FB6893F80D3236
:103F5000002B07D0F868FFF78DFF03E0FB68002215
:103F600083F80C22FB687A69C3F8042200BF183773
:103F7000BD4680BD80B483B000AF786000BF0C3711
:103F8000BD465DF8047B704780B500AF4FF480728A
:103F9000084909480BF078FE4FF480720749084839
:103FA0000BF072FE064B044A064907480BF0BCFBB7
:103FB00000BF80BD6849012040490120684A0120B6
:103FC0005449012000780040684B012080B582B040
:103FD00000AF786039607B68002B03D101210F4866
:103FE00005F0A4F87B680E4A9A617B689B69002102
:103FF0001846FFF711FF0B490948FFF75AFF7B6886
:1040000024330A220A2118460CF0DEF906480BF088
:10401000A7FB00BF0837BD4680BD00BF707C01080C
:1040200020460120753F0008684B012080B584B010
:1040300000AF786039607B68002B03D104211248FF
:1040400005F074F83B68002B03D105210E4805F0FC
:104050006DF87B685B69FB607B685B6939687868D1
:1040600098470346FB72FB7A002B08D1FB6807498F
:10407000786898477B685B6905497868984700BF0E
:104080001037BD4680BD00BF707C0108887C0108E8
:104090007C7C010880B584B002AF786039607B68B1
:1040A000002B03D102211B4805F040F878683B68DB
:1040B000DA683B681B6900931346174A17490CF0EE
:1040C000F5F87B6824337A680D2118460CF05AF90C
:1040D0007B6834337A68102118460CF053F93B683A
:1040E0001A687B685A613B685A687B689A613B68CA
:1040F0009A687B68DA617B68243318460CF084F98F
:104100007B68343318460CF07FF900BF0837BD4692
:1041100080BD00BF707C01082D400008CD3F000825
:10412000B0B588B002AFFFF72FFF0C2300930A232E
:1041300078220A490A480BF082FC0A4B3C1D1D46B6
:104140000FCD0FC42B6823603B1D19460648FFF7AF
:10415000A1FF00BF1837BD46B0BD00BFA845012074
:1041600080450120705501083C45012080B582B092
:1041700000AF0346FB71FB79194603480CF0B0F819
:1041800000BF0837BD4680BD3C45012080B586B0E4
:1041900002AF786039607B68002B03D103214A4865
:1041A00004F0C4FF3B681B88013B0F2B00F28780A3
:1041B00001A252F823F000BFF9410008BF420008F5
:1041C000BF420008BF420008BF420008BF420008CB
:1041D000BF420008BF420008BF420008BF420008BB
:1041E000BF420008BF4200080B42000849420008D5
:1041F00085420008854200087B6824330A220A2190
:1042000018460CF0E1F801235AE0304B4FF480726D
:104210001A607B68DB692D4A2D4918460BF0C0FAFD
:104220000346002B07D07B689B69284A12682849FF
:104230001846FFF74DFE7B689B6900220021184657
:10424000FFF746FE01233BE07B68243318460CF061
:10425000DBF84FF400611F48FFF7C0FD1E4BBB6049
:10426000C12300931D4BBA681D491E480BF05DFB2E
:104270007B683433002244F6206118460CF0A4F821
:1042800001231DE07B68343318460CF0BDF84FF471
:1042900000611048FFF7B0FD0F4BFB60C92300938E
:1042A0000E4BFA6810490F480BF03FFB7B68243334
:1042B0000A220A2118460CF087F8012300E00223A5
:1042C00018461037BD4680BD707C010810000020E4
:1042D0004048012000040240845501088C55010823
:1042E000B05501089C4C0120E055010880B586B00E
:1042F00000AF786007F10C0300221A605A609A60E0
:104300000E23BB817B6807F10C02114618460CF0A6
:1043100011F8002318461837BD4680BD80B586B019
:1043200000AF786007F10C0300221A605A609A60AF
:104330000F23BB817B6807F10C02114618460BF076
:10434000F9FF002318461837BD4680BD80B582B0FE
:1043500000AF0346FB71064BDB695B6818460BF048
:104360009BFD03469BB218460837BD4680BD00BF83
:104370003C45012080B582B000AF03460A46FB7180
:104380001346BB71054BDB69BA79114618460BF031
:1043900086FA00BF0837BD4680BD00BF3C450120FE
:1043A00080B500AF0CF0A2F80346184680BD0000AF
:1043B00080B586B000AF396011461A460346FB71DE
:1043C0000B46BB7113467B717B79032B27D87B7916
:1043D000154A52F823303B6101F088F9F86001F08A
:1043E0008FF9B86000237B6114E07B69DB00FA6819
:1043F00013441B78FA799A4209D17B69DB00FA6889
:1044000013445B68BA7939683869984708E07B6972
:1044100001337B617A69BB689A42E6DB00E000BF4A
:104420001837BD4680BD00BF3048012080B584B03C
:1044300000AFF8607A601A460B46FB721346BB72F7
:10444000FB68BA7A114618460AF08CFD0346002B29
:1044500005D0F868BB7AF97A7A680AF03BFD00BFAC
:104460001037BD4680BD000080B500AF054BDB694D
:1044700018460BF08FFA034BDB6918460BF0ACFAC9
:1044800000BF80BD3C45012080B588B002AFF86018
:10449000B9601346FB71002300220121F868FFF781
:1044A000C5FF0A4B7B61FB79019347230093084BBF
:1044B0007A69084908480BF038FA084B1B68184617
:1044C00003F080FC00BF1837BD4680BD30560108A0
:1044D00038560108645601089C4C01202000002039
:1044E00080B58AB004AFF860B9601346FB71BB6851
:1044F0001B781A06BB6801331B781B041A43BB6880
:1045000002331B781B021343BA6803321278134339
:104510007B61FB79BA680321F868FFF787FF094BD5
:104520003B61FB797A690292019350230093064B19
:104530003A69064906480BF0F8F900BF1837BD463E
:1045400080BD00BF3056010838560108805601086A
:104550009C4C012080B58CB006AFF860B960134662
:10456000FB71BB681B78FB75BB6801331B78BB759F
:10457000BB6802331B787B75BB6803331B783B75C4
:10458000FB79BA680521F868FFF750FF3B7D7A7D1B
:10459000B97DF87D06F0F4FD0A4B3B61FB7DBA7DE9
:1045A000797D387D04900391029201935C230093FE
:1045B000054B3A69054906480BF0B7F900BF1837B3
:1045C000BD4680BD3056010838560108B85601086E
:1045D0009C4C012080B58AB002AFF860B9601346E8
:1045E000FB71FF233B75BB681B78FB770E4B1B6889
:1045F000FA7F1146184603F002FB07F1140201236B
:104600000921F868FFF712FF084BBB61FB7F01939C
:1046100065230093064BBA69064907480BF085F9F4
:1046200000BF2037BD4680BD240000203056010861
:1046300038560108E05601089C4C012090B5A3B003
:1046400008AFF860B9601346FB714FF63F73BB8249
:104650000023A7F86630BB681B781BB21B021AB296
:10466000BB6801331B781BB21343A7F86430BB68E7
:1046700002331B781BB21B021AB2BB6803331B78D0
:104680001BB21343A7F86230BB6804331B781BB21C
:104690001B021AB2BB6805331B781BB21343A7F881
:1046A0006030BB6806331B7887F85F30BB68073320
:1046B0001B7887F85E30BB6808331B7887F85D305D
:1046C000BB6809331B7887F85C30BB680A331B78FA
:1046D00087F85B30BB680B331B781BB21B021AB226
:1046E000BB680C331B781BB213431BB2A7F85830BE
:1046F000BB680D331B7887F8573097F85F30072B6E
:104700000ED9B7F866300133A7F86630844B3B65A5
:104710007A230093834B3A6D834984480BF005F963
:1047200097F85E30072B0ED9B7F866300133A7F83B
:1047300066307B4BFB647F2300937A4BFA6C7C4999
:104740007A480BF0F2F897F85C300F2B0ED9B7F8D7
:1047500066300133A7F86630714BBB648423009345
:10476000704BBA6C734971480BF0DFF897F85B3007
:104770000F2B0ED9B7F866300133A7F86630684BB7
:104780007B6489230093674B7A6C6B4967480BF015
:10479000CCF8B7F86630002B40F0A880674B18685B
:1047A000B7F86410B7F86220B7F8604097F8573050
:1047B0000693B7F85830059397F85B30049397F851
:1047C0005C30039397F85D30029397F85E30019365
:1047D00097F85F300093234604F04AFC504B3B644B
:1047E000B7F9643001938F2300934E4B3A6C5449D0
:1047F0004E480BF09AF84A4BFB63B7F962300193CD
:1048000090230093474BFA6B4E4948480BF08DF8C4
:10481000434BBB63B7F96030019391230093414B45
:10482000BA6B494941480BF080F83D4B7B6397F8E0
:104830005F300193922300933A4B7A6B43493B4894
:104840000BF073F8364B3B6397F85E30019393237C
:104850000093344B3A6B3E4934480BF066F8304BCA
:10486000FB6297F85D30002B01D13A4B00E03A4BE8
:104870000193942300932B4BFA6A38492B480BF091
:1048800054F8274BBB6297F85C3001939523009353
:10489000244BBA6A324925480BF047F8204B7B621B
:1048A00097F85B300193962300931E4B7A6A2D494B
:1048B0001E480BF03AF81A4B3B62B7F85830019398
:1048C00097230093174B3A6A274918480BF02DF8A5
:1048D000134BFB6197F85730019398230093114BCA
:1048E000FA69224911480BF020F803E03E233B759A
:1048F0003E237B7507F1140202230B21F868FFF7B2
:1049000095FD074BBB61A0230093064BBA6918497C
:1049100006480BF00AF800BF6C37BD4690BD00BFDB
:104920003056010838560108045701089C4C0120F4
:10493000305701085C57010888570108180000200B
:10494000B4570108D0570108EC570108085801086E
:1049500024580108405801084458010848580108E3
:10496000685801088C580108B0580108CC58010853
:10497000E858010880B588B002AFF860B960134606
:10498000FB71FF23FB740D4B7B61A62300930C4B43
:104990007A690C490C480AF0C8FF0C4B1B68184692
:1049A00003F0B2FE07F1130201230D21F868FFF7AF
:1049B0003DFD00BF1837BD4680BD00BF3056010821
:1049C000385601080C5901089C4C012018000020A1
:1049D00080B588B002AFF860B9601346FB71FF2361
:1049E000FB740D4B7B61AE2300930C4B7A690C4931
:1049F0000C480AF09AFF0C4B1B68184603F068FE3F
:104A000007F1130201230F21F868FFF70FFD00BF24
:104A10001837BD4680BD00BF305601083856010822
:104A2000385901089C4C01201800002080B592B034
:104A300002AFF860B9601346FB714FF63F73BB825B
:104A4000002387F83F30BB681B781BB21B021AB2E9
:104A5000BB6801331B781BB213431BB2BB87BB6817
:104A600002331B7887F83B30BB6803331B781BB2DB
:104A70001B021AB2BB6804331B781BB213431BB270
:104A80003B87BB8F4EF6602293420ED997F83F309A
:104A9000013387F83F30594B7B63BE230093584B5B
:104AA0007A6B584958480AF040FF97F83B30042B7E
:104AB0000FD997F83F30013387F83F304F4B3B62B7
:104AC000C42300934E4B3A6A50494F480AF02DFFD9
:104AD00049E097F83B30042B21D107F1140202235F
:104AE0001121F868FFF7A2FC494B1B680421184606
:104AF00004F0DCF8414BBB62CA230093404BBA6A16
:104B0000444941480AF011FF3C4B7B62CB230093A0
:104B10003B4B7A6A40493C480AF007FF6AE03C4B4D
:104B20001B68184603F00DFF034687F8333097F8EB
:104B3000332097F83B3042FA03F303F00103002BD4
:104B400011D097F83F30013387F83F302B4BFB6291
:104B500097F83B300193D4230093294BFA6A2F49ED
:104B600029480AF0E2FE3B8FB3F5FA7F04D33B8F6E
:104B700040F6B832934210D997F83F30013387F8A6
:104B80003F301E4BFB613B8F0193DB2300931C4B9B
:104B9000FA6923491C480AF0C8FE97F83F30002BF9
:104BA00013D1BB8F184600F0BFFE194B1B6897F856
:104BB0003B201146184604F079F8154B1B683A8FD4
:104BC0001146184604F08BF803E03E233B753E2364
:104BD0007B7507F1140202231121F868FFF726FC08
:104BE000064BBB61EB230093054BBA690A490648A3
:104BF0000AF09BFE4037BD4680BD00BF305601081D
:104C000038560108645901089C4C01209C59010840
:104C100018000020C8590108F8590108245A010851
:104C20004C5A010880B588B002AFF860B9601346ED
:104C3000FB71FF23FB7407F1130201231321F868B2
:104C4000FFF7F4FB074B7B61F2230093064B7A6975
:104C5000064907480AF069FE00F042FE00BF183717
:104C6000BD4680BD3056010838560108805A0108FB
:104C70009C4C012080B588B002AFF860B960134643
:104C8000FB71FF23FB7407F1130201231521F86860
:104C9000FFF7CCFB074B7B61FA230093064B7A6945
:104CA000064907480AF041FE00F02CFE00BF183705
:104CB000BD4680BD3056010838560108A45A010887
:104CC0009C4C012080B59AB002AFF860B9601346E1
:104CD000FB71864BBB654FF480730093844BBA6DB8
:104CE000844985480AF021FE4FF63F733B85002337
:104CF000A7F85E30BB681B781A06BB6801331B78C7
:104D00001B041A43BB6802331B781B021343BA68A7
:104D10000332127813437B65BB6804331B781B0294
:104D20009BB2BA68053212781343A7F85230BB68B9
:104D300006331B781B029BB2BA6807321278134302
:104D4000A7F85030BB6808331B781B029BB2BA68C7
:104D5000093212781343A7F84E307B6DB3F57A7F92
:104D600003D37B6D654A93420FD9B7F85E300133A8
:104D7000A7F85E305D4BBB644FF4867300935C4BC9
:104D8000BA6C5F495C480AF0D0FDB7F85230002B8E
:104D90000FD1B7F85E300133A7F85E30534B7B6418
:104DA0004FF489730093524B7A6C564952480AF07B
:104DB000BCFDB7F85030002B0FD1B7F85E3001338F
:104DC000A7F85E30494B3B644FF48C730093484B1B
:104DD0003A6C4D4948480AF0A8FDB7F84E30002B10
:104DE0000FD1B7F85E300133A7F85E303F4BFB635D
:104DF0004FF48F7300933E4BFA6B44493E480AF0E0
:104E000094FDB7F85220B7F850301A44B7F84E3036
:104E100013441A467B6D02FB03F33D4AA2FB0323B6
:104E20009B0CBB63BB6BB3F5006F0FD9B7F85E305B
:104E30000133A7F85E302D4B7B6340F225130093BE
:104E40002B4B7A6B33492C480AF06FFDB7F85E3074
:104E5000002B3AD17B6D7B61B7F852307B83B7F87A
:104E60005030BB83B7F84E30FB83BB6B3B622A4AA2
:104E70007B6DB2FBF3F37B62284B1B6807F11402D6
:104E800011461846FEF77CFE0346002B0BD1174B4C
:104E9000FB6240F233130093154BFA6A204916481F
:104EA0000AF043FD17E03E2387F828303E2387F8B9
:104EB00029300E4B3B6340F2391300930C4B3A6B95
:104EC00018490D480AF031FD05E03E2387F82830E7
:104ED0003E2387F8293007F1280202231721F868BA
:104EE000FFF7A4FA00BF6037BD4680BD3056010809
:104EF00038560108C85A01089C4C012000350C00A6
:104F0000E85A01081C5B01084C5B01087C5B010846
:104F100083DE1B43AC5B010840420F001C000020F5
:104F2000E05B0108005C010880B590B002AFF8605A
:104F3000B9601346FB714FF63F73BB84BB681B78A7
:104F400087F8373097F83730642B11D93E2387F82C
:104F500024303E2387F82530244BBB6240F24D13AA
:104F60000093234BBA6A234923480AF0DEFC39E058
:104F7000224B1B6807F1100211461846FEF7AAFEE5
:104F800097F837307B751D4B1B6807F110021146EF
:104F90001846FEF72FFE0346002B0BD1134BFB6286
:104FA0004FF4AC730093124BFA6A154912480AF099
:104FB000BCFC10E03E2387F824303E2387F82530E0
:104FC0000A4B3B634FF4AF730093094B3A6B0D49A7
:104FD00009480AF0AAFC07F1240202231921F86803
:104FE000FFF724FA3837BD4680BD00BF30560108B0
:104FF00038560108205C01089C4C01201C00002050
:105000004C5C0108785C010880B590B002AFF86094
:10501000B9601346FB714FF63F73BB84BB681B78C6
:1050200087F8373097F83730242B03D897F8373084
:10503000002B11D13E2387F824303E2387F82530FA
:10504000244BBB624FF4B6730093234BBA6A2349D7
:1050500023480AF06AFC32E0224B1B6807F1100279
:1050600011461846FEF736FE97F837303B751D4B54
:105070001B6807F1100211461846FEF7D2FD0346E1
:10508000002B0BD1134BFB624FF4BB730093124BFD
:10509000FA6A154912480AF048FC10E03E2387F8E6
:1050A00024303E2387F825300A4B3B634FF4BE7310
:1050B0000093094B3A6B0D4909480AF036FC07F199
:1050C000240202231B21F868FFF7B0F900BF38372C
:1050D000BD4680BD3056010838560108A45C010861
:1050E0009C4C01201C000020D05C0108F45C0108ED
:1050F00080B58AB002AFF860B9601346FB713F23F8
:105100003B75184B1B681846FEF7F8FD0346002B4D
:105110000DD03E233B75144BBB614FF4C473009319
:10512000124BBA69124913480AF0FFFB0FE0124B09
:105130001B681846FFF7DAF80B4BFB6140F28D1342
:1051400000930A4BFA690D490A480AF0EEFB07F191
:10515000140201231D21F868FFF768F900BF20370A
:10516000BD4680BD1C00002030560108385601089D
:10517000185D01089C4C012014000020405D0108CE
:1051800080B58EB002AFF860B9601346FB714FF680
:105190003F73BB84214B1B6807F110021146184670
:1051A000FEF798FDFB69002B0ED1002387F8243011
:1051B0001B4BBB6240F29B1300931A4BBA6A1A490D
:1051C0001A480AF0B2FB1DE0FB691B09DBB287F845
:1051D0002430FB6903F00F03002B05D097F824302F
:1051E0000133DBB287F824300D4BFB6297F8243093
:1051F00001934FF4D17300930A4BFA6A0C490B48A0
:105200000AF093FB07F1240202231F21F868FFF73D
:105210000DF900BF3037BD4680BD00BF1C00002027
:105220003056010838560108685D01089C4C012081
:10523000885D010880B590B002AFF860B960134690
:10524000FB714FF63F73BB84BB681B7887F8373020
:105250002D4B1B6807F1100211461846FEF73AFD68
:10526000FB691B0987F8363097F83630002B11D1CF
:105270003E2387F824303E2387F82530234BBB623A
:105280004FF4D9730093224BBA6A224922480AF09C
:105290004CFB2EE097F8372097F836309A4211D31E
:1052A0003E2387F824303E2387F82530174BFB62D6
:1052B0004FF4DC730093164BFA6A184916480AF04B
:1052C00034FB16E0104B1B6897F8372092B211465A
:1052D0001846FEF74BFD0D4B3B6397F837300193B3
:1052E00040F2BD1300930A4B3A6B0D490A480AF08D
:1052F0001CFB07F1240202232121F868FFF796F82E
:1053000000BF3837BD4680BD1C0000203056010864
:1053100038560108AC5D01089C4C0120C85D0108AD
:10532000F05D010880B58CB004AFF860B960134639
:10533000FB7105F0A1FD0346FB83FB8B1B0A9BB2AF
:10534000DBB23B75FB8BDBB27B7507F114020223EA
:105350002321F868FFF76AF80A4BBB61BB681B782A
:105360001A46FB8B029301924FF4E5730093064BB0
:10537000BA69064906480AF0D8FA00BF2037BD4688
:1053800080BD00BF30560108385601081C5E010878
:105390009C4C012080B588B002AFF860B96013461C
:1053A000FB714FF63F733B820D4B1B681846FEF7AF
:1053B000FDFC0C4B7B6140F2D11300930A4B7A69E0
:1053C0000A490B480AF0B1FA07F11002022325211D
:1053D000F868FFF72BF800BF1837BD4680BD00BF47
:1053E0001C0000203056010838560108485E0108AC
:1053F0009C4C012080B58CB004AFF860B9601346B6
:10540000FB7105F039FD0346FB83FB8B1B0A9BB246
:10541000DBB23B75FB8BDBB27B7507F11402022319
:105420002721F868FFF702F80A4BBB61BB681B78BD
:105430001A46FB8B0293019240F2DD130093064B58
:10544000BA69064906480AF070FA00BF2037BD461F
:1054500080BD00BF3056010838560108745E01084F
:105460009C4C012080B58AB002AFF860B960134649
:10547000FB714FF63F733B82BB681B78FB83B7F928
:105480001E30642B0FDD3E233B743E237B74164B92
:105490007B614FF4F4730093144B7A6914491548F7
:1054A0000AF043FA15E0144B1B68B7F91E200121DE
:1054B0001846FEF799FA0C4BBB61B7F91E30019301
:1054C00040F2ED130093094BBA690C4909480AF000
:1054D0002CFA07F1100202232921F868FEF7A6FF33
:1054E00000BF2037BD4680BD305601083856010840
:1054F0009C5E01089C4C01201C000020C85E010835
:1055000080B58AB002AFF860B9601346FB714FF600
:105510003F733B82BB681B78FB77FB7F082B02D86D
:10552000FB7F002B0FD13E233B743E237B74144B37
:105530007B6140F2FB130093124B7A6912491348C6
:105540000AF0F3F911E0124B1B68FA7F1146184676
:10555000FEF7B3FA0A4BBB614FF400730093094B9B
:10556000BA690C4909480AF0E0F907F11002022370
:105570002B21F868FEF75AFF00BF2037BD4680BDDB
:105580003056010838560108F45E01089C4C012091
:105590001C000020205F010880B588B002AFF860D1
:1055A000B9601346FB71FF233B7407F1100201231E
:1055B0002D21F868FEF73AFF094B1B681846FEF7E5
:1055C0009FFA084B7B6140F20A230093064B7A69ED
:1055D000064907480AF0A9F900BF1837BD4680BD43
:1055E0001C0000203056010838560108445F0108AD
:1055F0009C4C012080B58CB002AFF860B9601346B6
:10560000FB710020FDF7B0FD0346FB840120FDF790
:10561000ABFD0346BB843F233B75FB8C1B0A9BB24F
:10562000DBB27B75FB8CDBB2BB75BB8C1B0A9BB200
:10563000DBB2FB75BB8CDBB23B7607F114020523B2
:105640003321F868FEF7F2FE0E4B3B62FB8C0193B0
:105650004FF4057300930C4B3A6A0C490C480AF05E
:1056600064F9084BFB61BB8C019340F21523009356
:10567000054BFA69074906480AF057F900BF283771
:10568000BD4680BD3056010838560108685F0108E4
:105690009C4C0120905F010880B588B002AFF86093
:1056A000B9601346FB71FF233B740AF09DFD0B4B61
:1056B0007B614FF407730093094B7A6909490A48E3
:1056C0000AF033F907F1100201233521F868FEF7DB
:1056D000ADFE00BF1837BD4680BD00BF3056010883
:1056E00038560108B85F01089C4C012080B400AF17
:1056F000024B1846BD465DF8047B7047947C010858
:1057000080B400AF18231846BD465DF8047B70478F
:1057100080B582B000AF786039607B681833184676
:105720000AF072FE00BF0837BD4680BD80B584B068
:1057300000AF786039607B685B69FB607B685B69A0
:105740003968786898470346FB72FB7A002B08D1CA
:10575000FB680649786898477B685B690449786804
:10576000984700BF1037BD4680BD00BF787D010857
:10577000647D010880B584B002AF786039607B68D1
:10578000002B03D10021134803F0D0FC78683B685C
:105790005A683B689B68009313460F4A0F490AF00A
:1057A00085FD7B6818337A68162118460AF0EAFDF1
:1057B0003B681A687B685A617B68002283F828205E
:1057C0007B68183318460AF01FFE00BF0837BD4635
:1057D00080BD00BF547D01082D57000811570008F7
:1057E00080B586B002AF1223009302232422094918
:1057F00009480AF024F9094A3B1D07CA83E8070053
:105800003B1D19460648FFF7B5FF00BF1037BD46E0
:1058100080BD00BFB84B0120DC4B0120E05F0108D8
:10582000784B012080B582B000AF0346FB71FB7955
:10583000194603480AF054FD00BF0837BD4680BD35
:10584000784B012080B586B002AF786039603B6844
:105850001B88012B02D0162B02D02FE001232EE053
:105860007B6893F82830002B13D1174BBB605F2364
:105870000093164BBA68164916480AF056F8164BAC
:105880001B68184603F047FA7B68012283F828203A
:1058900012E00D4BFB60652300930C4BFA680F4937
:1058A0000C480AF042F80C4B1B68184603F0BDFA8E
:1058B0007B68002283F82820012300E00223184699
:1058C0001037BD4680BD00BFEC5F0108F45F0108E2
:1058D000246001089C4C0120280000203C60010845
:1058E00080B500AF054B1B88044A1288194604484E
:1058F0000AF06AFD0023184680BD00BF2C0000207E
:10590000904B012080B500AF05480AF07DFD054BA6
:105910001B68184603F089FA0023184680BD00BFB3
:10592000904B01202800002080B483B000AF0346D4
:10593000FB80044AFB88138000BF0C37BD465DF82E
:10594000047B70472C00002080B400AFBFF34F8F62
:1059500000BF064BDB6803F4E0620449044B1343C9
:10596000CB60BFF34F8F00BF00BFFDE700ED00E04D
:105970000400FA0580B588B000AFF860B9607A60BD
:1059800007F11403074A0A2118460DF01FFC07F11E
:1059900014031946F86807F042FD00BF2037BD46E2
:1059A00080BD00BF606A010880B584B000AFF860B8
:1059B000B9607A60FFF7C8FF80B588B000AFF860C3
:1059C000B9607A600023BB610023FB82B86807F0EE
:1059D00017FE03467B757B7D012B04D02E49F868AA
:1059E00008F094FF54E00121B86807F0D3FD386156
:1059F0003B691B78612B22D10023FB771BE0FB7FE7
:105A00001846FDF7FDFB0346FB82B7F9163013F588
:105A1000004F06D1FB7F1A462049F86808F076FF50
:105A200006E0FA7FB7F916301D49F86808F06EFFF6
:105A3000FB7F0133FB77FB7F072BE0D928E03B6935
:105A40001B782F2B20D93B691B78372B1CD8386942
:105A50000CF0E2FD0346BB61B869FDF7D1FB0346DC
:105A6000FB82B7F9163013F5004F05D1BA690B491F
:105A7000F86808F04BFF0BE0B7F91630BA6908492F
:105A8000F86808F043FF03E00649F86808F03EFFB5
:105A90002037BD4680BD00BF686A0108886A0108DA
:105AA0009C6A0108B06A010880B588B000AFF86050
:105AB000B9607A60B86807F0A3FD0346FB61FB6933
:105AC000012B04D01549F86808F020FF23E0144B9F
:105AD0001B68184603F0EAF9034683F00103DBB2C2
