:020000040800F2
:10000000000008208D3000086D2E0008752E0008B5
:100010007D2E0008852E00088D2E000800000000AF
:10002000000000000000000000000000952E000805
:10003000A32E000800000000B12E0008BF2E00080B
:10004000DD300008DD300008DD300008DD3000085C
:10005000DD300008DD300008DD300008DD3000084C
:10006000DD300008DD300008DD300008DD3000083C
:100070001DA20008DD300008DD300008DD3000087A
:10008000DD300008DD300008DD300008DD3000081C
:10009000DD300008DD300008DD300008DD3000080C
:1000A000DD30000861A30008DD300008DD30000805
:1000B000ADA30008DD300008DD300008DD300008A9
:1000C000DD300008DD300008DD300008CF2E0008EC
:1000D000DD300008DD300008DD30000815FD0008C7
:1000E000DD300008DD300008DD300008DD300008BC
:1000F000DD300008DD300008DD300008DD300008AC
:10010000DD300008DD300008DD300008DD3000089B
:10011000DD300008DD300008DD300008DD3000088B
:100120009198000861970008ED970008F5AB00086A
:10013000DD300008DD300008DD300008DD3000086B
:10014000DD300008DD300008DD300008DD3000085B
:10015000DD30000881A50008DD3000087D71000851
:10016000DD300008DD300008DD300008DD3000083B
:10017000DD300008DD300008DD3000080000000040
:10018000DD300008DD30000849440008DD3000089B
:10019000DD300008DD300008DD300008DD3000080B
:1001A0000000000000000000DD300008DD30000825
:1001B000DD300008DD300008DD300008DD300008EB
:1001C000DD300008DD30000800000000DD300008F0
:1001D000DD300008DD300008DD300008DD300008CB
:1001E000DD300008DD300008DD300008DD300008BB
:0801F00000000000DD300008F2
:1002000010B5054C237833B9044B13B10448AFF350
:1002100000800123237010BDD043002000000000A7
:10022000644F010808B5034B1BB103490348AFF302
:10023000008008BD00000000D4430020644F010886
:1002400010F8012B11F8013B012A28BF9A42F7D080
:10025000D01A7047000000000000000000000000FD
:1002600001F0FF01102A2BDB10F0070F08D010F867
:10027000013B013A8B422DD010F0070F42B3F6D16B
:10028000F0B441EA012141EA014122F007047FF084
:1002900000070023F0E80256083C85EA010586EADB
:1002A000010685FA47F5A3FA87F586FA47F6A5FA17
:1002B00087F68EB9EED1F0BC01F0FF0102F0070223
:1002C00032B110F8013B013A83EA010313B1F8D1CE
:1002D0000020704701387047002D06BF35460338AF
:1002E000073815F0010F07D1013015F4807F02BFE8
:1002F000013015F4C03F0130F0BC0138704700BF39
:10030000034613F8012B002AFBD1181A0138704755
:100310007BB972B90029BEBF00204FF0004106E052
:1003200008BF00281CBF6FF000414FF0FF3000F005
:10033000BBB9ADF1080C6DE904CE002909DB002B37
:100340001ADB00F035F8DDF804E0DDE9022304B043
:100350007047404261EB4101002B1BDB00F028F8A5
:10036000DDF804E0DDE9022304B0404261EB410125
:10037000524263EB43037047524263EB430300F086
:1003800017F8DDF804E0DDE9022304B0404261EB38
:1003900041017047524263EB430300F009F8DDF876
:1003A00004E0DDE9022304B0524263EB43037047EB
:1003B0002DE9F047089D8E4604468846002B4AD119
:1003C0008A42174662D9B2FA82F64EB1C6F12003CC
:1003D00001FA06F820FA03F3B74043EA0808B440EC
:1003E0004FEA174E1FFA87FCB8FBFEF1230C0EFBF9
:1003F000118843EA084301FB0CF29A4209D9FB1821
:1004000001F1FF3080F0EA809A4240F2E780023941
:100410003B449A1AA3B2B2FBFEF00EFB102243EA51
:10042000024300FB0CFC9C4509D9FB1800F1FF328C
:1004300080F0D6809C4540F2D3803B44023840EAAD
:100440000140A3EB0C0300211DB1F3400022C5E9DC
:100450000032BDE8F0878B4205D90DB1C5E9000136
:1004600000210846F5E7B3FA83F1002946D1734528
:1004700002D3824200F20581841A6EEB030201204E
:100480009046002DE5D0C5E90048E2E7002A00F0DB
:100490009080B2FA82F6002E40F0A4808A1A030CF3
:1004A0004FEA174E80B2BCB20121B2FBFEFC0EFB3C
:1004B0001C2243EA024304FB0CF29A4207D9FB18C0
:1004C0000CF1FF3802D29A4200F2E080C4469B1A37
:1004D000B3FBFEF20EFB123340EA034302FB04F4CB
:1004E0009C4207D9FB1802F1FF3002D29C4200F275
:1004F000CA8002461B1B42EA0C40A5E7C1F1200658
:100500008B4022FA06F71F430EFA01F420FA06F395
:100510002EFA06FE4FEA1749234300FA01F81FFAA4
:1005200087FCBEFBF9F01C0C09FB10EE44EA0E44FC
:1005300000FB0CFEA64502FA01F209D93C1900F1B4
:10054000FF3A80F09C80A64540F2998002383C44F6
:10055000A4EB0E041FFA83FEB4FBF9F309FB13446A
:100560004EEA044403FB0CFCA44508D93C1903F1F2
:10057000FF3E80F08280A4457FD9023B3C4443EAA1
:100580000040A4EB0C04A0FB02EC64457346E1467A
:1005900062D35FD05DB1B8EB030264EB090404FAE7
:1005A00006F622FA01F31E43CC40C5E9006400219F
:1005B0004FE7B1FBF2FC010C41EA0E4180B240EA88
:1005C00001423B4638463C46B846BE462026B1FB73
:1005D000F7F1A2EB080241EA0C4166E7014618E791
:1005E00010462CE7C6F120022EFA02F3B740B140C4
:1005F00020FA02F24FEA174E0A43B3FBFEF8BCB2F0
:100600000EFB1833110C41EA034108FB04F9B0401A
:1006100089454FEA104380B23ED9791808F1FF3C72
:1006200001D289451FD8A1EB0901B1FBFEF909FBF5
:1006300004F80EFB191192B242EA0142424529D256
:10064000BA1809F1FF31C4D24245C2D2A9F1020160
:100650003A44BEE7F0459DD2BEEB02036CEB070CBB
:100660000138E14696E7A7EB09094944A8F1020CD5
:10067000B1FBFEF909FB04F8DBE773467FE7504660
:1006800066E70846FDE63B44023A33E7ACF1020C6C
:100690003B441CE749469CE7A1EB0901C446B1FB7A
:1006A000FEF909FB04F8C4E7704700BF80B400AF4F
:1006B000044BDB681B0A03F007031846BD465DF8D0
:1006C000047B704700ED00E080B483B000AF0346C8
:1006D000FB7197F90730002B0BDBFB7903F01F024E
:1006E000074997F907305B09012000FA02F241F847
:1006F000232000BF0C37BD465DF8047B704700BF68
:1007000000E100E080B483B000AF03463960FB71C4
:1007100097F90730002B0ADB3B68DAB20C4997F9EE
:1007200007301201D2B20B4483F800230AE03B6881
:10073000DAB20849FB7903F00F03043B1201D2B28D
:100740000B441A7600BF0C37BD465DF8047B70473A
:1007500000E100E000ED00E080B489B000AFF86097
:10076000B9607A60FB6803F00703FB61FB69C3F1C2
:100770000703042B28BF0423BB61FB690433062B4A
:1007800002D9FB69033B00E000237B614FF0FF329D
:10079000BB6902FA03F3DA43BB681A407B699A40EB
:1007A0004FF0FF317B6901FA03F3D9437B680B40BB
:1007B000134318462437BD465DF8047B704780B468
:1007C00089B000AFF860B9607A60FB682C331946D5
:1007D000BB6803F440734FF44072BA61BA6992FA8D
:1007E000A2F27A617A69B2FA82F2D2B2D3409B0065
:1007F0000B44FB61FB691A68BB6803F01F031F21F0
:1008000001FA03F3DB431A407B6803F01F01BB6866
:1008100003F01F0301FA03F31A43FB691A6000BFD8
:100820002437BD465DF8047B704780B483B000AFC9
:10083000786039607B689B6823F480623B681A4368
:100840007B689A6000BF0C37BD465DF8047B70473B
:1008500080B48DB000AFF860B9607A60FB680C338B
:100860001946BB6803F000734FF00072BA61BA69B1
:1008700092FAA2F27A617A69B2FA82F2D2B2D340E3
:100880009B000B44FB62FB6A1A68BB6803F0F873B9
:100890004FF0F8713962396A91FAA1F1F961F96999
:1008A000B1FA81F1C9B2CB40072101FA03F3DB436E
:1008B0001A40BB6803F0F8734FF0F871B962B96A77
:1008C00091FAA1F17962796AB1FA81F1C9B2CB40AA
:1008D000796801FA03F31A43FB6A1A6000BF3437E0
:1008E000BD465DF8047B704780B485B000AFF8600A
:1008F000B9607A600D4ABB6813441B781A46FB68DE
:1009000013441B6823F0C0020849BB680B441B78E2
:100910001946FB680B4419467B6813430B6000BF04
:100920001437BD465DF8047B704700BF747A010838
:1009300080B485B000AFF860B9607A600D4ABB68DA
:1009400013441B781A46FB6813441B6823F4907207
:100950000849BB680B441B781946FB680B441946D1
:100960007B6813430B6000BF1437BD465DF8047B02
:10097000704700BF747A010880B485B000AFF8609A
:10098000B9607A600D4ABB6813441B781A46FB684D
:1009900013441B6823F400720849BB680B441B789E
:1009A0001946FB680B4419467B6813430B6000BF74
:1009B0001437BD465DF8047B704700BF747A0108A8
:1009C00080B485B000AFF860B9607A600D4ABB684A
:1009D00013441B781A46FB6813441B6823F4806297
:1009E0000849BB680B441B781946FB680B44194641
:1009F0007B6813430B6000BF1437BD465DF8047B72
:100A0000704700BF747A010880B485B000AFF86009
:100A1000B9607A600D4ABB6813441B781A46FB68BC
:100A200013441B6823F4C0520849BB680B441B786D
:100A30001946FB680B4419467B6813430B6000BFE3
:100A40001437BD465DF8047B704700BF747A010817
:100A500080B485B000AFF860B9607A600D4ABB68B9
:100A600013441B781A46FB6813441B6823F4C042E6
:100A70000849BB680B441B781946FB680B441946B0
:100A80007B6813430B6000BF1437BD465DF8047BE1
:100A9000704700BF747A010880B485B000AFF86079
:100AA000B9607A600D4ABB6813441B781A46FB682C
:100AB00013441B6823F440320849BB680B441B787D
:100AC0001946FB680B4419467B6813430B6000BF53
:100AD0001437BD465DF8047B704700BF747A010887
:100AE00080B485B000AFF860B9607A600D4ABB6829
:100AF00013441B781A46FB6813441B6823F0F0521A
:100B00000849BB680B441B781946FB680B4419461F
:100B10007B6813430B6000BF1437BD465DF8047B50
:100B2000704700BF747A010880B483B000AF78606A
:100B300039600C4A3B6813441B781A467B6813449F
:100B40005B6908493A680A44127811467A680A448F
:100B500023F00403536100BF0C37BD465DF8047BEE
:100B6000704700BF747A010880B483B000AF78602A
:100B70007B681B6843F001027B681A6000BF0C377A
:100B8000BD465DF8047B704780B483B000AF7860E9
:100B90007B681B6823F400327B681A6000BF0C3747
:100BA000BD465DF8047B704780B483B000AF7860C9
:100BB0007B681B6823F400227B681A6000BF0C3737
:100BC000BD465DF8047B704780B485B000AFF86027
:100BD000B9607A60FB68DA68064B1340B9687A68D6
:100BE0000A431A43FB68DA6000BF1437BD465DF85C
:100BF000047B704701F8FFFF80B483B000AF7860DA
:100C00007B68DB6823F400427B68DA6000BF0C3746
:100C1000BD465DF8047B704780B483B000AF786058
:100C20007B685B6843F000727B685A6000BF0C37DA
:100C3000BD465DF8047B704780B400AF054B1B6870
:100C4000044A43F48033136000BFBD465DF8047B63
:100C5000704700BF0038024080B400AF074B1B68EC
:100C600003F40033B3F5003F0CBF01230023DBB2D4
:100C70001846BD465DF8047B704700BF003802404F
:100C800080B483B000AF7860064B9B6823F003020A
:100C900004497B6813438B6000BF0C37BD465DF889
:100CA000047B70470038024080B400AF044B9B685F
:100CB00003F00C031846BD465DF8047B704700BF87
:100CC0000038024080B483B000AF7860064B9B6868
:100CD00023F0F00204497B6813438B6000BF0C379C
:100CE000BD465DF8047B70470038024080B483B095
:100CF00000AF7860064B9B6823F4E05204497B68A0
:100D000013438B6000BF0C37BD465DF8047B704712
:100D10000038024080B483B000AF7860064B9B6817
:100D200023F4604204497B6813438B6000BF0C3797
:100D3000BD465DF8047B70470038024080B483B044
:100D400000AF7860094BD3F890207B681B0CDB4325
:100D50001A407B689BB205491343C1F8903000BF2D
:100D60000C37BD465DF8047B704700BF0038024079
:100D700080B483B000AF7860094BD3F890207B68D3
:100D80001B0CDB431A407B689BB205491343C1F837
:100D9000903000BF0C37BD465DF8047B704700BF44
:100DA0000038024080B483B000AF7860094BD3F8BC
:100DB00090207968084B0B40DB431A407B681B048A
:100DC00004491343C1F8903000BF0C37BD465DF8AD
:100DD000047B7047003802400000FFFF80B483B0FE
:100DE00000AF7860074BD3F88C3023F08072054950
:100DF0007B681343C1F88C3000BF0C37BD465DF8EB
:100E0000047B70470038024080B400AF054B1B687C
:100E1000044A43F08073136000BFBD465DF8047B55
:100E2000704700BF0038024080B400AF074B1B681A
:100E300003F00073B3F1007F0CBF01230023DBB28A
:100E40001846BD465DF8047B704700BF003802407D
:100E500080B485B000AFF860B9607A603B600A4B3F
:100E60005A680A4B1340F968BA6811437A689201CC
:100E700011433A680A43044913434B6000BF1437D7
:100E8000BD465DF8047B7047003802400080BCFF1F
:100E900080B485B000AF7860084B1A6B07497B6857
:100EA00013430B63054B1A6B7B681340FB60FB68B5
:100EB00000BF1437BD465DF8047B70470038024020
:100EC00080B485B000AF7860084B1A6C07497B6826
:100ED00013430B64054B1A6C7B681340FB60FB6883
:100EE00000BF1437BD465DF8047B704700380240F0
:100EF00080B485B000AF7860084B5A6C07497B68B6
:100F000013434B64054B5A6C7B681340FB60FB68D2
:100F100000BF1437BD465DF8047B704700380240BF
:100F200080B483B000AF7860064B1B6823F00F02DB
:100F300004497B6813430B6000BF0C37BD465DF866
:100F4000047B7047003C024080B400AF044B1B6838
:100F500003F00F031846BD465DF8047B704700BFE1
:100F6000003C024080B400AF054B1B68044A43F4C8
:100F70008033136000BFBD465DF8047B704700BF3F
:100F80000070004080B483B000AF7860064B1B68EF
:100F900023F4404204497B6813430B6000BF0C37C5
:100FA000BD465DF8047B70470070004080B400AF20
:100FB000074B5B6803F48043B3F5804F0CBF0123FC
:100FC0000023DBB21846BD465DF8047B704700BFC6
:100FD0000070004080B483B000AF78607B681B680D
:100FE00043F040027B681A6000BF0C37BD465DF8D5
:100FF000047B704780B483B000AF786039607B6851
:101000005B6823F010023B681A437B685A6000BF9C
:101010000C37BD465DF8047B704780B483B000AFE9
:1010200078607B685B6843F008027B685A6000BFA9
:101030000C37BD465DF8047B704780B483B000AFC9
:1010400078607B685B6823F008027B685A6000BFA9
:101050000C37BD465DF8047B704780B483B000AFA9
:1010600078607B681B6843F080027B681A6000BF71
:101070000C37BD465DF8047B704780B483B000AF89
:1010800078607B681B6823F080027B681A6000BF71
:101090000C37BD465DF8047B7047000080B485B016
:1010A00000AF786039603B68012B28D03B68042B87
:1010B00023D03B68102B1ED03B68402B19D03B68D7
:1010C000B3F5807F13D03B68B3F5806F0DD03B68DC
:1010D000B3F5805F07D03B68B3F5803F01D10723AC
:1010E0000EE008230CE006230AE0052308E00423B1
:1010F00006E0032304E0022302E0012300E00023D2
:10110000FB737B6818331946FB7B0B4AD35C0B449B
:10111000BB60BB681A68FB7B0849CB5C194604239B
:101120008B40DB431A40BB681A6000BF1437BD46D2
:101130005DF8047B704700BF7C7A0108887A01085B
:1011400080B485B000AF786039603B68012B28D04F
:101150003B68042B23D03B68102B1ED03B68402BF0
:1011600019D03B68B3F5807F13D03B68B3F5806F2F
:101170000DD03B68B3F5805F07D03B68B3F5803F87
:1011800001D107230EE008230CE006230AE0052323
:1011900008E0042306E0032304E0022302E0012325
:1011A00000E00023FB737B6818331946FB7B0A4A77
:1011B000D35C0B44BB60BB681A68FB7B0749CB5C04
:1011C000194608238B401A43BB681A6000BF1437C6
:1011D000BD465DF8047B70477C7A0108887A010877
:1011E00080B483B000AF786039607B689A68064B42
:1011F00013403A681A437B689A6000BF0C37BD46BB
:101200005DF8047B704700BFF8BFFEFF80B483B079
:1012100000AF786039607B685B6823F070023B68E0
:101220001A437B685A6000BF0C37BD465DF8047BEB
:10123000704780B483B000AF786039607B685B68CA
:1012400023F470023B681A437B685A6000BF0C3776
:10125000BD465DF8047B704780B483B000AF786012
:101260007B689B6823F080027B689A6000BF0C3724
:10127000BD465DF8047B704780B483B000AF7860F2
:101280007B681B6843F001027B681A6000BF0C3763
:10129000BD465DF8047B704780B483B000AF7860D2
:1012A00039607B681B6823F4F8123B681B041A43FF
:1012B0007B681A6000BF0C37BD465DF8047B704741
:1012C00080B483B000AF786039607B681B6823F01E
:1012D00078723B685B051A437B681A6000BF0C3765
:1012E000BD465DF8047B704780B483B000AF786082
:1012F0007B689B6843F480427B689A6000BF0C3730
:10130000BD465DF8047B704780B483B000AF786061
:1013100039607B689B6823F400423B681A437B6812
:101320009A6000BF0C37BD465DF8047B704780B4FF
:1013300083B000AF78607B685B6823F490427B6881
:101340005A607B689B6823F02A027B689A6000BF22
:101350000C37BD465DF8047B704780B483B000AFA6
:1013600078607B685B6823F490427B685A607B6896
:101370009B6823F022027B689A607B689B6843F03D
:1013800008027B689A6000BF0C37BD465DF8047B9D
:10139000704780B483B000AF786039607B683A688A
:1013A0009A6100BF0C37BD465DF8047B704780B47E
:1013B00083B000AF786039603B681A047B689A613B
:1013C00000BF0C37BD465DF8047B704780B500AFA9
:1013D0000EF024FE00F02CF801F04CFA01F0DEF9DA
:1013E00000F0E0FA00F052FB00F016FC00F0C6FC42
:1013F00000F072F800F040FD00F020FF00F0F8FF70
:1014000000F0B8FD01F06AF801F054F900F0B8F905
:1014100000F066FA00F08AFE00F0CEFE01F0E6F879
:1014200001F06AFF01F07CFF01F096FF00BFFDE7CD
:1014300080B500AF0620FFF773FD00BFFFF784FD06
:101440000346062BFAD14FF44040FFF79BFDFFF710
:1014500089FDFFF7F1FB00BFFFF7FEFB0346012B01
:10146000FAD10023C0220C214FF48000FFF7F0FCDA
:10147000FFF7CAFC00BFFFF7D7FC0346012BFAD1E8
:1014800000BFFFF793FD0346002BFAD00020FFF7C3
:1014900019FC4FF4A050FFF729FC4FF40040FFF770
:1014A00039FC0220FFF7ECFB00BFFFF7FDFB034612
:1014B000082BFAD1074810F02BFE0F200EF0F0FD9C
:1014C0000346002B01D001F0A7FC0020FFF786FCAB
:1014D00000BF80BD00C2EB0B80B592B000AF07F13A
:1014E0003C0300221A605A609A6007F12803002228
:1014F0001A605A609A60DA601A6107F118030022D4
:101500001A605A609A60DA603B4600221A605A609C
:101510009A60DA601A615A614FF48070FFF7E8FC54
:101520000420FFF7B5FC0220FFF7B2FC01233B606B
:1015300003237B6000233B613B46194684480FF040
:1015400084FB02233B6003237B6000233B613B461B
:1015500019467F480FF079FB04233B6003237B602F
:1015600000233B613B46194679480FF06EFB082388
:101570003B6003237B6000233B613B461946744874
:101580000FF063FB10233B6003237B6000233B6170
:101590003B4619466E480FF058FB20233B6003235F
:1015A0007B6000233B613B46194669480FF04DFBC9
:1015B00001233B6003237B6000233B613B461946CC
:1015C00064480FF042FB02233B6003237B6000234F
:1015D0003B613B4619465F480FF037FB0022002174
:1015E0005D48FFF77DFA002200215B48FFF77CF998
:1015F000002200215848FFF74FFA4FF48072002173
:101600005548FFF795F9002200215348FFF7B4F938
:101610004FF4806200215048FFF7D2F94FF4006286
:1016200000214D48FFF7F0F94FF4005200214A48DD
:10163000FFF70EFA00214848FFF776FA0023FB6314
:1016400000233B644FF480737B6407F13C0319462D
:1016500042480FF081F90023BB624FF4E003FB62C4
:1016600000233B6300237B634FF44073BB6307F1AC
:101670002803194639480FF09BF900213748FFF736
:10168000D4F84FF48033BB610023FB6107F11803EA
:10169000194633480FF018F90A224FF400712F4809
:1016A000FFF78DF801220A212C48FFF7D1F82D4AC7
:1016B00040F205212948FFF782F8012229492748ED
:1016C000FFF7C6F8284A40F20A212448FFF777F8C6
:1016D000012225492148FFF7BBF8244A40F20F2197
:1016E0001E48FFF76CF8012220491C48FFF7B0F8AC
:1016F0001F4A4FF405711948FFF761F801221C4990
:101700001648FFF7A5F81B4A40F219211348FFF7C6
:1017100056F8012217491148FFF79AF8164A4FF474
:1017200080710E48FFF74BF8012213490B48FFF771
:101730008FF8124A40F205110848FFF740F80122DD
:101740000E490648FFF784F800BF4837BD4680BD04
:1017500000080240000402400064024000200140F2
:10176000002301400B0030000C0060000D009000D1
:101770000E00C0000F00F000080080030900B00355
:1017800080B58EB000AF07F12C0300221A605A60BA
:101790009A6007F1180300221A605A609A60DA60B2
:1017A0001A613B4600221A605A609A60DA601A6138
:1017B0005A614FF40070FFF79BFB0120FFF768FBB5
:1017C00004233B6003237B6000233B613B461946B7
:1017D0003E480FF03AFA08233B6003237B60002366
:1017E0003B613B46194639480FF02FFA4FF0007223
:1017F00002213748FFF774F9002202213448FFF72D
:1018000073F8002202213248FFF746F94FF4807244
:1018100002212F48FFF78CF8002202212C48FFF705
:10182000ABF84FF4806202212948FFF7C9F84FF462
:10183000006202212648FFF7E7F84FF40052022128
:101840002348FFF705F902212148FFF76DF900232E
:10185000FB6200233B634FF480737B6307F12C032F
:1018600019461C480FF078F80023BB614FF4801331
:10187000FB6100233B6200237B624FF44073BB6239
:1018800007F11803194613480FF092F84FF48061DE
:101890001048FEF7CAFF104A4FF400710D48FEF7DA
:1018A0008EFF01220C490B48FEF7D2FF0B4A40F293
:1018B00005210848FEF783FF012208490548FEF785
:1018C000C7FF00BF3837BD4680BD00BF00000240E3
:1018D0000064024000210140030090020200600207
:1018E00080B58EB000AF07F12C0300221A605A6059
:1018F0009A6007F1180300221A605A609A60DA6051
:101900001A613B4600221A605A609A60DA601A61D6
:101910005A614FF48060FFF7EBFA0120FFF7B8FA45
:1019200002233B6003237B6000233B613B46194657
:1019300019480FF08AF90023FB6200233B63002360
:101940007B6307F12C03194614480FF005F80023B8
:10195000BB610023FB6100233B6200237B62002309
:10196000BB6207F1180319460C480FF021F84FF439
:1019700080610A48FEF759FF094A4FF40071074891
:10198000FEF71DFF002206490448FEF761FF00BF75
:101990003837BD4680BD00BF000002400022014034
:1019A0000100300280B58EB000AF07F11C030022A9
:1019B0001A605A609A60DA601A615A619A613B1D36
:1019C00000221A605A609A60DA601A615A614FF414
:1019D0004030FFF7E7F90220FFF75AFA40237B6017
:1019E0000223BB600323FB6001233B6100237B6177
:1019F0000423BB613B1D194621480FF026F98023C3
:101A00007B600223BB600323FB6001233B61002357
:101A10007B610423BB613B1D194619480FF015F982
:101A20004FF40010FFF74CFA1648FFF7F5F80022C4
:101A300000211448FFF7C8F81248FFF7DDF81148F5
:101A4000FFF7B2F80F48FFF79FF80023FB610E4B3A
:101A50003B6200237B620023BB620023FB62002306
:101A60003B6300237B6307F11C03194605480FF015
:101A700003FA0448FFF778F800BF3837BD4680BD49
:101A80000004024000540040FF63106080B590B035
:101A900000AF07F1180328220021184611F0A8FA18
:101AA0003B4600221A605A609A60DA601A615A61F5
:101AB0004FF48050FFF71CFA0120FFF7E9F91023DB
:101AC0003B6002237B600323BB600023FB60002399
:101AD0003B6105237B613B4619464C480FF0B5F846
:101AE00020233B6002237B600323BB600023FB6059
:101AF00000233B6105237B613B46194643480FF0B9
:101B0000A4F840233B6002237B600323BB600023D7
:101B1000FB6000233B6105237B613B4619463B4844
:101B20000FF093F880233B6002237B600323BB60AC
:101B30000023FB6000233B6105237B613B46194684
:101B400032480FF082F84FF0C06203213048FEF7B0
:101B5000C7FF402203212E48FEF7C6FE4FF4003295
:101B600003212B48FEF798FF002203212848FEF7A7
:101B7000DFFE002203212648FEF7FEFE4FF48062BE
:101B800003212348FEF71CFF002203212048FEF713
:101B90003BFF002203211E48FEF75AFF03211C4889
:101BA000FEF7C2FFFEF782FD034600220021184621
:101BB000FEF7D2FD034619462320FEF7A3FD23209E
:101BC000FEF782FD0023BB610023FB614FF4E0635D
:101BD0003B6202237B620023BB620023FB62002383
:101BE0007B630023BB630723FB6307F118031946DC
:101BF00008480FF019FD00210648FFF7FBF90548DA
:101C0000FFF71BFA00BF4037BD4680BD0000024011
:101C1000006402400030014080B590B000AF07F191
:101C2000180328220021184611F0E2F93B46002251
:101C30001A605A609A60DA601A615A614FF4804003
:101C4000FFF73EF90220FFF723F94FF400533B6002
:101C500002237B600323BB600023FB6000233B6106
:101C600005237B613B46194641480EF0EEFF4FF4D9
:101C700080433B6002237B600323BB600023FB6047
:101C800000233B6105237B613B46194638480EF033
:101C9000DCFF4FF400433B6002237B600323BB6007
:101CA0000023FB6000233B6105237B613B46194613
:101CB0002F480EF0CAFF4FF0905201212D48FEF739
:101CC0000FFF002201212B48FEF70EFE4FF4403299
:101CD00001212848FEF7E0FE4FF4807201212548DB
:101CE000FEF726FE002201212248FEF745FE4FF4B2
:101CF000806201211F48FEF763FE4FF4006201215C
:101D00001C48FEF781FE4FF4005201211948FEF7EE
:101D10009FFE01211748FEF707FF0023BB614FF428
:101D20008273FB614FF470633B6200237B6200238C
:101D3000BB624FF40073FB6200233B6300237B63B1
:101D40000023BB630723FB6307F1180319460A4806
:101D50000FF06AFC00210848FFF74CF90648FFF72E
:101D60005CF90548FFF736F900BF4037BD4680BD36
:101D700000040240006002400038004080B590B08E
:101D800000AF07F1180328220021184611F030F99E
:101D90003B4600221A605A609A60DA601A615A6102
:101DA0004FF40040FFF78CF80420FFF771F84FF470
:101DB00080633B6002237B600323BB600023FB60E6
:101DC00000233B6106237B613B46194628480EF001
:101DD0003CFF4FF400633B6002237B600323BB6046
:101DE0000023FB6000233B6106237B613B461946D1
:101DF0001F480EF02AFF4FF480533B6002237B60A4
:101E00000323BB600023FB6000233B6106237B614F
:101E10003B46194616480EF018FF0023BB614FF4ED
:101E20008273FB614FF4E0633B6200237B6200231B
:101E3000BB624FF40073FB6200233B6300237B63B0
:101E40000023BB630723FB6307F118031946094806
:101E50000FF0EAFB00210748FFF7CCF80548FFF731
:101E6000DCF80448FFF7B6F800BF4037BD4680BD38
:101E700000080240003C004080B590B000AF07F180
:101E8000180328220021184611F0B2F83B46002220
:101E90001A605A609A60DA601A615A614FF4005011
:101EA000FFF726F81020FEF7F3FF4FF480533B6056
:101EB00002237B600323BB600023FB6000233B61A4
:101EC00005237B613B46194628480EF0BEFE4FF4C1
:101ED00000533B6002237B600323BB600023FB6055
:101EE00000233B6105237B613B4619461F480EF0EA
:101EF000ACFE4FF480433B6002237B600323BB6056
:101F00000023FB6000233B6105237B613B461946B0
:101F100016480EF09AFE0023BB614FF48273FB61FA
:101F20004FF4E0633B6200237B620123BB624FF40A
:101F30000073FB6220233B6300237B630023BB63AE
:101F40000723FB6307F11803194609480FF06CFBE0
:101F500000210748FFF74EF80548FFF76EF80448E0
:101F6000FFF738F800BF4037BD4680BD0010024083
:101F70000034014080B590B000AF07F1180328226B
:101F80000021184611F034F83B4600221A605A60CE
:101F90009A60DA601A615A614FF40010FEF7A8FFE8
:101FA0000220FEF775FF08233B6002237B600323BA
:101FB000BB600023FB6000233B6108237B613B4641
:101FC000194657480EF041FE10233B6002237B6008
:101FD0000323BB600023FB6000233B6108237B617C
:101FE0003B4619464E480EF030FE20233B6002234C
:101FF0007B600323BB600023FB6000233B6108235D
:102000007B613B46194646480EF01FFE4FF00072BA
:1020100005214448FEF764FD402205214148FEF7B2
:1020200063FC4FF4403205213E48FEF735FD0022A7
:1020300005213C48FEF77CFC002205213948FEF7CB
:102040009BFC4FF4806205213648FEF7B9FC002264
:1020500005213448FEF7D8FC002205213148FEF75F
:10206000F7FC05212F48FEF75FFD4FF000720621B7
:102070002C48FEF735FD002206212A48FEF734FCE5
:102080004FF4403206212748FEF706FD00220621C4
:102090002448FEF74DFC002206212248FEF76CFC86
:1020A0004FF4806206211F48FEF78AFC00220621B9
:1020B0001C48FEF7A9FC002206211A48FEF7C8FCBE
:1020C00006211848FEF730FD0023BB614FF48273F0
:1020D000FB614FF4E0633B6200237B620023BB6241
:1020E0004FF40073FB6200233B6300237B630023F8
:1020F000BB630723FB6307F1180319460A480FF077
:1021000093FA00210848FEF775FF0748FEF785FFA0
:102110000548FEF75FFF00BF4037BD4680BD00BFEA
:1021200000040240006402400054014080B586B0C3
:1021300000AF3B1D00221A605A609A60DA601A6193
:102140000120FEF7D5FEFEF7B1FA0346002200217A
:102150001846FEF701FB034619461920FEF7D2FA8E
:102160001920FEF7B1FA0023BB800023BB604FF6B5
:10217000FF73FB6000233B6100237B613B1D19461D
:102180000C480FF045FB0B48FEF777FF002109488C
:10219000FFF726F800210748FFF738F80021054827
:1021A000FFF747F80348FFF757F800BF1837BD4659
:1021B00080BD00BF0000014080B586B000AF3B1D70
:1021C00000221A605A609A60DA601A610120FEF7F4
:1021D00077FEFEF76BFA0346002202211846FEF74F
:1021E000BBFA034619461C20FEF78CFA1C20FEF7AA
:1021F0006BFA0023BB800023BB604FF0FF33FB6012
:1022000000233B613B1D19464FF080400FF000FB5F
:102210004FF08040FEF721FF00214FF08040FEF795
:10222000DFFF00214FF08040FEF7F0FF4FF08040CD
:10223000FFF712F800BF1837BD4680BD80B594B0D7
:1022400000AF07F13C0300221A605A609A60DA601E
:102250001A6107F11C0320220021184610F0C8FE65
:102260003B1D00221A605A609A60DA601A615A6156
:102270000420FEF725FE0A23BB8700233B644CF2B3
:1022800050337B644FF40073BB6407F13C03194681
:1022900055480FF0BDFA5448FEF7EFFE00215248B2
:1022A000FEF79EFF01215048FEF74AFF6023FB61C5
:1022B00000233B6200237B620023BB620023FB629E
:1022C00007F11C031A46012147480FF03BFB01218F
:1022D0004548FEF7E3FE10214348FEF731FF07F1C2
:1022E0001C031A46102140480FF02CFB10213E48D9
:1022F000FEF7D4FE4FF480713B48FEF721FF07F153
:102300001C031A464FF4807137480FF01BFB4FF443
:1023100080713548FEF7C2FE4FF480513248FEF717
:102320000FFF07F11C031A464FF480512E480FF09F
:1023300009FB4FF480512C48FEF7B0FE00212A48DB
:10234000FEF764FF2848FEF787FF0820FEF7A0FD90
:102350004FF480537B600223BB600023FB600023AB
:102360003B6100237B610223BB613B1D19461F4873
:102370000EF06BFC4FF400537B600223BB60002324
:10238000FB6000233B6100237B610223BB613B1D9B
:10239000194616480EF059FC4FF480437B60022327
:1023A000BB600023FB6000233B6100237B610223B1
:1023B000BB613B1D19460D480EF047FC4FF400432E
:1023C0007B600223BB600023FB6000233B61002392
:1023D0007B610223BB613B1D194604480EF035FCAE
:1023E00000BF5037BD4680BD00080040000C0240D1
:1023F00080B58EB000AF07F11C0300221A605A604E
:102400009A60DA601A615A619A613B1D00221A6073
:102410005A609A60DA601A615A614FF04050FEF7D4
:10242000A7FC4FF08040FEF74BFD1020FEF730FD7B
:1024300080237B600223BB600323FB6000233B619E
:1024400001237B610823BB613B1D194621480EF027
:10245000FCFB4FF480737B600223BB600323FB60B3
:1024600000233B6100237B610823BB613B1D1946B0
:1024700018480EF0EAFBFEF719F9034600220B217B
:102480001846FEF769F9034619465220FEF73AF955
:102490005220FEF719F94FF4E133FB6100233B6250
:1024A00000237B620023BB620C23FB6200233B639F
:1024B00000237B6307F11C03194607480FF062FDF8
:1024C0000548FEF734FF0448FEF7D6FE00BF383754
:1024D000BD4680BD001002400078004080B58EB03F
:1024E00000AF07F11C0300221A605A609A60DA609C
:1024F0001A615A619A613B1D00221A605A609A6003
:10250000DA601A615A614FF44030FEF717FC102070
:10251000FEF7EEFC0120FEF7BBFC4FF400737B607E
:102520000223BB600323FB6000233B6100237B612C
:102530000723BB613B1D19462A480EF086FB4FF46A
:1025400080637B600223BB600323FB6000233B614D
:1025500000237B610723BB613B1D194621480EF018
:1025600074FB4FF480537B600223BB600323FB604A
:1025700000233B6100237B610723BB613B1D1946A0
:1025800018480EF062FB4FF4E133FB6100233B621D
:1025900000237B620023BB620C23FB6200233B63AE
:1025A00000237B6307F11C0319460F480FF0EAFC78
:1025B0000D48FEF799FE00210B48FEF7A5FE00210D
:1025C0000948FEF77DFE00210748FEF765FE064834
:1025D000FEF7ADFE0448FEF74FFE00BF3837BD469C
:1025E00080BD00BF000002400010014080B58EB0E9
:1025F00000AF07F11C0300221A605A609A60DA608B
:102600001A615A619A613B1D00221A605A609A60F1
:10261000DA601A615A614FF44010FEF78FFB4FF4F5
:102620008020FEF74DFC0220FEF732FC4FF4806361
:102630007B600223BB600323FB6001233B6100231B
:102640007B610723BB613B1D194618480EF0FDFA5C
:10265000FEF72CF80346002200211846FEF77CF80E
:10266000034619462720FEF74DF82720FEF72CF8E1
:102670004FF4E133FB6100233B6200237B620023C4
:10268000BB620823FB6200237B6307F11C0319462E
:1026900007480FF077FC0648FEF75FFE0448FEF798
:1026A000EBFD00BF3837BD4680BD00BF00040240CF
:1026B0000048004080B58EB000AF07F11C03002237
:1026C0001A605A609A60DA601A615A619A613B1D19
:1026D00000221A605A609A60DA601A615A614FF0FB
:1026E0004060FEF72BFB2020FEF702FC0420FEF7E3
:1026F000CFFB40237B600223BB600323FB600023EE
:102700003B6100237B610823BB613B1D19462148C7
:102710000EF09BFA80237B600223BB600323FB60E7
:1027200000233B6100237B610823BB613B1D1946ED
:1027300018480EF08AFAFDF7B9FF034600220B2174
:102740001846FEF709F8034619464720FDF7DAFF59
:102750004720FDF7B9FF4FF4E133FB6100233B62F3
:1027600000237B620023BB620C23FB6200233B63DC
:1027700000237B6307F11C03194607480FF002FC96
:102780000548FEF7D4FD0448FEF776FD00BF383754
:10279000BD4680BD000802400014014080B500AF76
:1027A0004FF48000FEF774FB4FF40010FEF770FB4F
:1027B000FDF77CFF0346002200211846FDF7CCFF01
:1027C000034619460C20FDF79DFF0C20FDF77CFF0A
:1027D000FDF76CFF034600220A211846FDF7BCFFF7
:1027E000034619463820FDF78DFF3820FDF76CFFB2
:1027F000FDF75CFF034600220A211846FDF7ACFFF7
:10280000034619463A20FDF77DFF3A20FDF75CFFAD
:10281000FDF74CFF0346002200211846FDF79CFF00
:10282000034619463B20FDF76DFF3B20FDF74CFFAB
:10283000FDF73CFF0346002209211846FDF78CFFF7
:10284000034619464420FDF75DFF4420FDF73CFF99
:10285000FDF72CFF0346002201211846FDF77CFFFF
:10286000034619464520FDF74DFF4520FDF72CFF97
:1028700000BF80BD80B586B000AF3B4600221A6025
:102880005A609A60DA601A615A611020FEF700FB04
:102890000420FEF7FDFA8020FEF7FAFA0120FEF789
:1028A000F7FA0220FEF7F4FA0820FEF7F1FA042105
:1028B000BF48FEF77CFD0821BD48FEF778FD1021DA
:1028C000BB48FEF774FD2021B948FEF770FD40219A
:1028D000B748FEF76CFD4FF40051B648FEF767FDB0
:1028E0004FF48041B348FEF762FD4FF40041B14818
:1028F000FEF75DFD4FF40061AD48FEF758FD4FF463
:102900000061AD48FEF753FD4FF48071A948FEF712
:102910004EFD4FF40061A948FEF749FD4FF4004118
:10292000A648FEF744FD0121A548FEF740FD02211F
:10293000A348FEF73CFD1021A148FEF738FD2021F9
:102940009F48FEF734FD40219D48FEF730FD0421ED
:102950009948FEF71EFD4FF480619548FEF719FD7A
:102960004FF400419248FEF714FD4FF48051924815
:10297000FEF70FFD4FF480719148FEF70AFD4FF40A
:1029800000718F48FEF705FD4FF480618C48FEF71B
:1029900000FD04218A48FEF7FCFC80218848FEF7F0
:1029A000F8FC4FF480718448FEF7F3FC4FF400719B
:1029B0008148FEF7EEFC01217D48FEF7EAFC02218A
:1029C0007B48FEF7E6FC04233B6001237B60002389
:1029D000BB600023FB6000233B613B461946744803
:1029E0000EF033F908233B6001237B600023BB60BA
:1029F0000023FB6000233B613B4619466C480EF008
:102A000024F910233B6001237B600023BB6000237B
:102A1000FB6000233B613B46194665480EF015F903
:102A200020233B6001237B600023BB600023FB600D
:102A300000233B613B4619465D480EF006F94023F2
:102A40003B6001237B600023BB600023FB6000230D
:102A50003B613B46194656480EF0F7F84FF40053D9
:102A60003B6001237B600023BB600023FB600023ED
:102A70003B613B4619464F480EF0E7F84FF4804360
:102A80003B6001237B600023BB600023FB600023CD
:102A90003B613B46194647480EF0D7F84FF40043D8
:102AA0003B6001237B600023BB600023FB600023AD
:102AB0003B613B4619463F480EF0C7F804233B6094
:102AC00001237B600023BB600023FB6000233B618C
:102AD0003B46194638480EF0B8F84FF480633B6027
:102AE00001237B600023BB600023FB6000233B616C
:102AF0003B4619462E480EF0A8F84FF400633B60A1
:102B000001237B600023BB600023FB6000233B614B
:102B10003B46194626480EF098F84FF400433B60B8
:102B200001237B600023BB600023FB6000233B612B
:102B30003B4619461E480EF088F84FF400633B6090
:102B400001237B600023BB600023FB6002233B6109
:102B50003B46194618480EF078F84FF480533B6016
:102B600001237B600023BB600023FB6000233B61EB
:102B70003B46194610480EF068F84FF480733B60EE
:102B800001237B600323BB600023FB6000233B61C8
:102B90003B4619460A480EF058F84FF400733B6064
:102BA00001237B600323BB600023FB60002309E05B
:102BB00000100240000802400004024000000240F1
:102BC000000C02403B613B4619468E480EF03DF832
:102BD0004FF480633B6001237B600323BB600023D1
:102BE000FB6000233B613B46194686480EF02DF8FA
:102BF0004FF400633B6000237B6000233B613B4656
:102C0000194680480EF021F84FF480733B60012391
:102C10007B600023BB600023FB6002233B613B46DB
:102C2000194679480EF011F84FF400733B60002309
:102C30007B6000233B613B46194673480EF005F864
:102C40004FF480733B6000237B6000233B613B4675
:102C500019466E480DF0F9FF4FF400633B60012305
:102C60007B600023BB600023FB6000233B613B468D
:102C7000194666480DF0E9FF4FF400433B6001231D
:102C80007B600023BB600023FB6000233B613B466D
:102C900019465E480DF0D9FF01233B6001237B609C
:102CA0000023BB600023FB6000233B613B461946C9
:102CB00054480DF0CAFF02233B6001237B600023D0
:102CC000BB600023FB6000233B613B4619464D4837
:102CD0000DF0BBFF04233B6001237B600023BB603E
:102CE0000023FB6000233B613B46194645480DF03D
:102CF000ACFF08233B6000237B6000233B613B4625
:102D0000194640480DF0A1FF10233B6001237B6072
:102D10000023BB600023FB6000233B613B46194658
:102D200038480DF092FF20233B6001237B60002395
:102D3000BB600023FB6000233B613B4619463148E2
:102D40000DF083FF40233B6001237B600023BB60C9
:102D50000023FB6000233B613B46194629480DF0E8
:102D600074FF80233B6001237B600023BB60002352
:102D7000FB6000233B613B46194622480DF065FF8E
:102D80004FF480733B6001237B600023BB60002312
:102D9000FB6000233B613B4619461D480DF055FF83
:102DA0004FF400733B6001237B600023BB60002372
:102DB000FB6000233B613B46194615480DF045FF7B
:102DC00001233B6001237B600023BB600023FB6089
:102DD00000233B613B4619460E480DF036FF0223A7
:102DE0003B6001237B600023BB600023FB6000236A
:102DF0003B613B46194607480DF027FF00BF1837D7
:102E0000BD4680BD000C02400008024000000240A8
:102E1000000402400010024080B400AF72B600BF50
:102E200000BFFDE780B483B000AF0F4B1B6C0E4AB0
:102E300043F0805313640C4B1B6C03F080537B6096
:102E40007B68094B5B6C084A43F480435364064B30
:102E50005B6C03F480433B603B6800BF0C37BD46AE
:102E60005DF8047B704700BF0038024080B400AFBB
:102E700000BFFDE780B400AF00BFFDE780B400AF46
:102E800000BFFDE780B400AF00BFFDE780B400AF36
:102E900000BFFDE780B400AF00BFBD465DF8047B16
:102EA000704780B400AF00BFBD465DF8047B70473B
:102EB00080B400AF00BFBD465DF8047B704780B5AD
:102EC00000AF0DF051F80DF01BF900BF80BD80B4CC
:102ED00000AF00BFBD465DF8047B704780B400AF13
:102EE00001231846BD465DF8047B704780B582B06B
:102EF00000AF7860396010F0DBF8034616221A60E4
:102F00004FF0FF3318460837BD4680BD80B582B00C
:102F100000AF78604FF0FF317868FFF7E7FF00BF40
:102F2000FDE780B586B000AFF860B9607A60002335
:102F30007B610AE0AFF300800146BB685A1CBA60AF
:102F4000CAB21A707B6901337B617A697B689A42E5
:102F5000F0DB7B6818461837BD4680BD80B586B06B
:102F600000AFF860B9607A6000237B6109E0BB685C
:102F70005A1CBA601B781846AFF300807B69013396
:102F80007B617A697B689A42F1DB7B681846183767
:102F9000BD4680BD80B483B000AF78604FF0FF3392
:102FA00018460C37BD465DF8047B704780B483B08B
:102FB00000AF786039603B684FF400525A600023DC
:102FC00018460C37BD465DF8047B704780B483B06B
:102FD00000AF7860012318460C37BD465DF8047BCE
:102FE000704780B485B000AFF860B9607A600023A4
:102FF00018461437BD465DF8047B704780B586B02F
:1030000000AF7860144A154BD31A7B617B693B6132
:10301000134B1B68002B02D1114B124A1A60104B44
:103020001A687B6813443A699A4207D210F040F854
:1030300003460C221A604FF0FF3309E0084B1B686F
:10304000FB60074B1A687B681344054A1360FB68F2
:1030500018461837BD4680BD000008200004000057
:10306000EC43002000FE012080B400AF064BD3F8F3
:103070008830054A43F47003C2F8883000BFBD466B
:103080005DF8047B704700BF00ED00E0DFF834D04E
:10309000FFF7EAFF0C480D490D4A002302E0D4581F
:1030A000C4500433C4188C42F9D30A4A0A4C002392
:1030B00001E013600432A242FBD30FF0FFFFFEF7E2
:1030C00085F970470000082000000020D043002050
:1030D000B8860108D043002000FE0120FEE780B53D
:1030E00082B000AF7860396006F0B0FB06F0A6FA57
:1030F0007B6814330A220A2118460CF0F1FE00BF47
:103100000837BD4680BD000080B584B002AF78604E
:1031100039607B68002B03D10021104805F098FE30
:1031200078683B685A683B689B68009313460C4A72
:103130000C490CF047FE7B6814337A681621184658
:103140000CF0ACFE3B681A687B685A627B68002210
:103150001A8700BF0837BD4680BD00BFAC7A0108A2
:10316000CD310008DF30000880B586B002AF022301
:10317000009304230822094909480CF004FA094A7B
:103180003B1D07CA83E807003B1D19460648FFF7A9
:10319000BBFF00BF1037BD4680BD00BF4C440020C0
:1031A0002C440020804F0108F043002080B582B0FD
:1031B00000AF0346FB71FB79194603480CF01CFE77
:1031C00000BF0837BD4680BDF043002090B585B0F4
:1031D00000AF786039603B681B88162B06D0162B31
:1031E00027DC142B08D0152B1DD022E006F038FB6D
:1031F00006F0A2FA01231DE00023FB730EE0FB7B27
:10320000FC7B184606F032FB034619467B6804F146
:10321000140223F81210FB7B0133FB73FB7B072B9B
:10322000EDD9012306E006F0F1F903461AB27B68F6
:103230005A87022318461437BD4690BD80B483B028
:1032400000AF7860054A7B681C3332F913301846AA
:103250000C37BD465DF8047B704700BFF04300208B
:1032600080B487B000AFF860B96011461A460B46CB
:10327000FB801346BB80164AFB68143332F91330C7
:10328000BB82134ABB68143332F91330FB82B7F99F
:103290001430B7F904209A4210DCB7F91430B7F9AA
:1032A00006209A420ADBB7F914301A46B7F91630ED
:1032B000D31A002BB8BF5B42322B01DD012300E0A3
:1032C000002318461C37BD465DF8047B704700BFDD
:1032D000F043002080B483B000AF7860054A7B687B
:1032E000143332F9133018460C37BD465DF8047BB1
:1032F000704700BFF043002080B500AF00F0B0F889
:1033000004F094FCFFF730FF03F01EFE02F0D6F944
:1033100000F090FF04F02CFA04F03CFB00BF80BDED
:1033200080B500AF012000F0BDF8022004F0A4FC3D
:103330000320FFF73BFF042003F038FE052002F0D6
:10334000DFF9062000F09CFF072004F04DFA0A2068
:1033500004F058FB00BF80BD80B500AF0CF0E4FC6A
:1033600000BF80BD80B582B000AF7860396006F0E4
:103370008FF807F0ABF806F051FD7B68012283F867
:103380005D207B68002283F8622000BF0837BD46BD
:1033900080BD000080B584B000AF786039607B6884
:1033A0005B69FB607B685B693968786898470346AE
:1033B000FB72FB7A002B08D1FB68064978689847B6
:1033C0007B685B6904497868984700BF1037BD4641
:1033D00080BD00BFDC7A0108C87A010880B584B0DE
:1033E00002AF786039607B68002B03D10021194857
:1033F00005F02EFD78683B685A683B689B6800932F
:103400001346154A15490CF0DDFC3B681A687B68C9
:103410005A617B6818337A68172118460CF03EFD14
:103420007B6828337A68212118460CF037FD7B68C9
:10343000283318460CF074FD7B68183318460CF0DE
:103440006FFD3B681A7B7B6883F8582000BF083704
:10345000BD4680BDB87A0108953300086533000881
:1034600090B587B002AF12230093022324220949AA
:1034700009480CF088F8094B3C460FCB84E80F0054
:103480003B4619460648FFF7A9FF00BF1437BD4663
:1034900090BD00BFE84401200C4501208C4F01087D
:1034A0005444002080B582B000AF0346FB71FB7925
:1034B000194603480CF0A0FC00BF0837BD4680BD8C
:1034C0005444002080B582B000AF786039603B681A
:1034D0001B88013B192B4DD801A252F823F000BFE5
:1034E0004935000875350008753500087535000840
:1034F0007535000875350008753500087535000804
:1035000075350008753500087535000875350008F3
:1035100075350008753500087535000875350008E3
:1035200075350008753500087535000875350008D3
:1035300075350008753500087535000857350008E1
:10354000613500086B3500087B68183318460CF0AD
:10355000E7FC01230FE07B68094A5A6100230AE077
:103560007B68084A5A61002305E07B68064A5A6175
:10357000002300E0022318460837BD4680BD00BF87
:103580008D35000819380008A939000890B58FB0AA
:1035900002AF786039603B681B88013B202B00F24A
:1035A0001F8101A252F823F02D360008E1370008F0
:1035B000C3360008E1370008E1370008E1370008AA
:1035C000E1370008E1370008E1370008E13700087B
:1035D000E1370008E1370008E1370008E13700086B
:1035E000E1370008E1370008E1370008E13700085B
:1035F000E1370008E1370008E1370008E13700084B
:1036000095370008E1370008E1370008E137000886
:10361000DB3600080F37000843370008E1370008A1
:10362000E1370008E1370008A73700086F4BFB615E
:10363000952300936E4BFA696E496F480BF019FFA2
:103640007B681833002244F6206118460CF048FCD1
:103650007B6893F83C301946786800F0F6FA786891
:1036600000F00CFB7B68DB8FBB607B68B3F84030FD
:10367000FB607B68B3F842303B617B689B6B7B618E
:103680007B6893F83C30BB617B6893F83D3018460B
:1036900005F068FF07F10803184606F085FB7B6814
:1036A00028330122012118460CF01AFC534B00224A
:1036B0001A8006F067FD7B68002283F858200123FA
:1036C0008FE07B68183318460CF02AFC7B6828339F
:1036D00018460CF025FC012383E0444B3B62B823E1
:1036E0000093434B3A6A464943480BF0C2FE7B685D
:1036F00093F85830002B04D17B68012283F85820BE
:1037000003E07B68032283F85820012369E0374BEC
:103710007B62C3230093364B7A6A3A4936480BF0F2
:10372000A8FE7B6893F85830012B04D17B680222F5
:1037300083F8582003E07B68032283F85820012394
:103740004FE02A4BFB62CD230093294BFA6A2E49A6
:1037500029480BF08EFE7B6893F85830022B04D179
:103760007B68052283F8582003E07B68032283F8F6
:1037700058201E4BBB62D32300931D4BBA6A2349CA
:103780001D480BF076FE00F0B9FB7B68204A5A61B9
:10379000002326E07B68042283F858207B681C4ABB
:1037A0005A6100231DE0154B1B88B3F5804F10D2E2
:1037B000124B1B885A1C91B2104A11801C4605F00E
:1037C00031FF03461A46134B23F8142005F0BEFFC1
:1037D00004E07B68283318460CF0A2FB012300E0CC
:1037E000022318463437BD4690BD00BF9C4F0108E8
:1037F000A44F0108CC4F0108784C0120D04401208F
:10380000EC4F010818500108405001086C500108A5
:10381000C5340008D0C4002080B582B000AF786005
:1038200039603B681B88013B1F2B00F2AE8001A270
:1038300052F823F0B53800088B3900088B3900089E
:103840008B3900088B3900088B3900088B39000848
:103850008B3900088B3900088B3900088B39000838
:103860008B3900088B3900088B3900088B39000828
:103870008B3900088B3900088B3900088B39000818
:103880008B3900088B3900088B3900088B39000808
:103890008B3900088B3900088B3900088B390008F8
:1038A0008B3900088B3900080B39000825390008CE
:1038B000DD3800087B68183318460CF031FB7B6854
:1038C0001B6D344A53607B68DB6C324A1360324BA9
:1038D0001B68184603F000FF012357E02D4B5B687F
:1038E000B3F5804F28BF4FF480439AB22B4B1A8018
:1038F000284B1B685B00294A128852001146284A4F
:10390000184606F015FE012340E0234B1868234BB0
:103910001B881A467B6893F85530214903F0B8FE9E
:10392000012333E01B4B5B681C4A12889B1A194A1F
:103930005360184B1B68194A12881344154A1360C8
:10394000144B5B68002B16D0124B5B68B3F5804FAD
:1039500028BF4FF480439AB2104B1A800D4B1B685E
:103960005B000E4A1288520011460D4A184606F0B6
:10397000DFFD01230AE0084B1B68184603F0BCFE7C
:103980007B68084A5A61002300E002231846083782
:10399000BD4680BDC044002004000020CCC40020EF
:1039A000CC440020C534000880B582B000AF7860F8
:1039B00039603B681B88012B02D01E2B12D01AE005
:1039C0007B68183318460CF0ABFA7B68DB6C0C4A4A
:1039D0004FF48041184606F0ABFD094806F0DCFFC5
:1039E000012309E007F038F800F0A0FA7B68054AE7
:1039F0005A61002300E0022318460837BD4680BD07
:103A0000CC440020C534000880B584B000AFF86015
:103A1000B9607A60FB70FB68BA68DA64FB687A6840
:103A20001A65FB68FA7883F85520084B1B684FF637
:103A3000FF72A3F84220FB68054918460CF006FA0D
:103A4000002318461037BD4680BD00BF040000208B
:103A5000047B010880B582B000AF78607B680022EB
:103A6000DA647B685A6E7B681A657B68012283F88A
:103A70005520084B1B684FF6FF72A3F842207B6865
:103A8000054918460CF0E2F9002318460837BD46F0
:103A900080BD00BF04000020047B010880B582B017
:103AA00000AF78607B68044918460CF0CFF900231A
:103AB00018460837BD4680BD2C7B010880B582B012
:103AC00000AF78607B68044918460CF0BFF900230A
:103AD00018460837BD4680BD407B010880B582B0DE
:103AE00000AF78607B68044918460CF0AFF90023FA
:103AF00018460837BD4680BD547B010880B584B0A8
:103B000000AFF860B9607A60BB68012B02D87B68AF
:103B1000642B01D9062318E0FB6893F85D30002B75
:103B200006D0002005F070FCFB68002283F85D20C1
:103B30007968B86805F056FD7B68D9B2FA68BB6849
:103B4000134459330A461A70002318461037BD46ED
:103B500080BD80B582B000AF786039603B68242BAF
:103B600001D9062314E07B6893F85D30012B06D061
:103B7000012005F049FC7B68012283F85D2038684C
:103B800005F0BCFC3B68DAB27B6883F85B2000235D
:103B900018460837BD4680BD80B582B000AF78605A
:103BA0007B6893F85D30012B06D0012005F02CFCDA
:103BB0007B68012283F85D2005F0B0FC7B68FF2262
:103BC00083F85B20002318460837BD4680BD80B5CA
:103BD00082B000AF786039603B68082B01D90623BA
:103BE00014E07B6893F85D30012B06D0012005F0CE
:103BF0000BFC7B68012283F85D20386805F098FC97
:103C00003B68DAB27B6883F85C20002318460837EB
:103C1000BD4680BD80B582B000AF78607B6893F808
:103C20005D30012B06D0012005F0EEFB7B68012200
:103C300083F85D2005F08CFC7B68FF2283F85C2014
:103C4000002318460837BD4680BD80B582B000AF5E
:103C5000786039603B68242B01D906230AE006F01E
:103C60006DF9386806F092F93B68DAB27B6883F840
:103C70005E20002318460837BD4680BD80B582B05F
:103C800000AF786006F06EF9002318460837BD468D
:103C900080BD000080B483B000AF786039603B68BD
:103CA0001B68002B04D03B681B68164A934201D95D
:103CB000062321E03B68DB68B3F5006F01D90623DA
:103CC0001AE03B681A687B689A633B68DA887B680D
:103CD000DA873B681A897B68A3F840203B685A89D9
:103CE0007B68A3F842203B68DA687B685A643B68CB
:103CF0001A697B689A64002318460C37BD465DF844
:103D0000047B704700350C0080B483B000AF78604E
:103D100039603B685B79642B01D9062305E03B6879
:103D20005A797B6883F83D20002318460C37BD463E
:103D30005DF8047B704780B483B000AF7860396071
:103D40003B681B79002B03D03B681B79242B01D9DE
:103D5000062305E03B681A797B6883F83C20002342
:103D600018460C37BD465DF8047B7047B0B483B08D
:103D700000AF786039603B681B68002B04D03B685B
:103D80001B68184A934201D9062326E03B681B7939
:103D9000002B03D03B681B79242B01D906231CE0A0
:103DA0003B685B79642B01D9062316E03B68DB682E
:103DB000B3F5006F01D906230FE03B681B69002BA8
:103DC00001D1062309E07B683A6803F138041546FF
:103DD0000FCD0FC42B682360002318460C37BD4657
:103DE000B0BC704700350C00B0B483B000AF786051
:103DF00039603A687B68154603F138040FCC0FC56B
:103E000023682B6000BF0C37BD46B0BC7047000074
:103E100080B584B000AF78607B683833FB60FB68A6
:103E20001B68002B04D0FB681B68134A934201D91E
:103E300006231CE0FB681B79002B03D0FB681B7971
:103E4000242B01D9062312E0FB685B79642B01D98E
:103E500006230CE0FB68DB68B3F5006F01D906238D
:103E600005E07B68054918460BF0F0FF0023184673
:103E70001037BD4680BD00BF00350C00F07A010848
:103E800080B582B000AF78600B467B807B889B0357
:103E90001A467B68DA647B684FF480421A657B6857
:103EA000012283F854207B68044918460BF0CEFFAA
:103EB000002318460837BD4680BD00BF187B0108A7
:103EC00080B483B000AF786039607B683A689A61EB
:103ED00000BF0C37BD465DF8047B704780B483B0EB
:103EE00000AF786039603B681A047B689A6100BF54
:103EF0000C37BD465DF8047B7047000080B500AF0D
:103F00004FF400610248FFF7E9FF00BF80BD00BF2A
:103F10000004024080B500AF4FF400610248FFF793
:103F2000CFFF00BF80BD00BF0004024080B500AFDE
:103F30004FF480710248FFF7C3FF00BF80BD00BF90
:103F40000008024080B582B000AF78600B46FB707D
:103F50007B68FA78114618460BF0A4F87B680121BB
:103F600018460AF047FD00F00BFA02467B68C3F8DA
:103F700004227B68002283F80C227B68012283F8EC
:103F80000D22FB78032B04D8FB7804497A6841F8AA
:103F9000232000BF0837BD4680BD00BF6C4701200D
:103FA00080B582B000AF78607A687B6893F80032A1
:103FB000194610460BF076F87B68012118460AF086
:103FC00019FD00F0DDF902467B68C3F804227B6826
:103FD000002283F80C2200BF0837BD4680BD80B4A4
:103FE00083B000AF786039607B683A68C3F8082214
:103FF00000BF0C37BD465DF8047B704780B586B0C6
:1040000000AFF860B9607A60FB687A68B9681846F2
:104010000AF0A8FF00F0B4F97861FB6893F8E23089
:10402000002B35D0FB6893F8E4301A4613465B004A
:1040300013449B00FA6813443B613B691B687A692F
:10404000D31A40F6B83293421ED9FB6893F80C326B
:1040500083F00103DBB2002B1AD0FB68D3F80832DF
:10406000002B04D0FB68D3F80832F8689847FB6847
:10407000012283F80C22FB6893F80D32002B07D045
:10408000F868FFF78DFF03E0FB68002283F80C223D
:10409000FB687A69C3F8042200BF1837BD4680BDAB
:1040A00080B483B000AF786000BF0C37BD465DF8C8
:1040B000047B704780B500AF4FF48072084909480F
:1040C0000BF086FB4FF48072074908480BF080FB29
:1040D000064B044A064907480BF0CAF800BF80BDEA
:1040E000444901201C490120444A01203049012053
:1040F00000780040444B012080B582B000AF78606A
:1041000039607B68002B03D101210F4804F0A0FE29
:104110007B680E4A9A617B689B6900211846FFF70D
:1041200011FF0B490948FFF75AFF7B6824330A2225
:104130000A2118460BF0D4FE06480BF0B5F800BF74
:104140000837BD4680BD00BF687B01085C45012083
:10415000A1400008444B012080B584B000AF7860D6
:1041600039607B68002B03D10421124804F070FEF3
:104170003B68002B03D105210E4804F069FE7B68E3
:104180005B69FB607B685B693968786898470346C0
:10419000FB72FB7A002B08D1FB68074978689847C7
:1041A0007B685B6905497868984700BF1037BD4652
:1041B00080BD00BF687B0108807B0108747B01081B
:1041C00080B584B002AF786039607B68002B03D182
:1041D0000221154804F03CFE78683B68DA683B68C9
:1041E0001B6900931346114A11490BF0EBFD7B68E4
:1041F00024337A680D2118460BF050FE3B681A688C
:104200007B685A613B685A687B689A613B689A6828
:104210007B68DA617B68243318460BF081FE00BFAF
:104220000837BD4680BD00BF687B010859410008C2
:10423000F9400008B0B588B002AFFFF73BFF0C2390
:1042400000930A2378220A490A480BF09CF90A4B8A
:104250003C1D1D460FCD0FC42B6823603B1D194626
:104260000648FFF7ADFF00BF1837BD46B0BD00BF21
:104270008847012000480120885001082845012076
:1042800080B582B000AF0346FB71FB791946034845
:104290000BF0B2FD00BF0837BD4680BD28450120A8
:1042A00080B582B000AF786039607B68002B03D1A5
:1042B00003211B4804F0CCFD3B681B88012B02D076
:1042C0000D2B09D027E07B6824330A220A211846E7
:1042D0000BF006FE01231FE0124B4FF480721A60B0
:1042E0007B68DB690F4A104918460AF0FDFF034658
:1042F000002B07D07B689B690A4A12680A49184656
:10430000FFF77CFE7B689B69002200211846FFF7BF
:1043100075FE012300E0022318460837BD4680BD24
:10432000687B0108080000201C48012080B582B08D
:1043300000AF0346FB71064BDB695B6818460BF068
:104340004FFB03469BB218460837BD4680BD00BFF1
:104350002845012080B582B000AF03460A46FB71B4
:104360001346BB71054BDB69BA79114618460BF051
:104370003AF800BF0837BD4680BD00BF2845012080
:1043800080B500AF0BF03EFE0346184680BD00002E
:1043900080B586B000AF396011461A460346FB71FE
:1043A0000B46BB7113467B717B79032B27D87B7936
:1043B000154A52F823303B6101F006F9F86001F02C
:1043C0000DF9B86000237B6114E07B69DB00FA68BB
:1043D00013441B78FA799A4209D17B69DB00FA68A9
:1043E00013445B68BA7939683869984708E07B6993
:1043F00001337B617A69BB689A42E6DB00E000BF6B
:104400001837BD4680BD00BF6C47012080B584B021
:1044100000AFF8607A601A460B46FB721346BB7217
:10442000FB68BA7A114618460AF040FB0346002B97
:1044300005D0F868BB7AF97A7A680AF0EFFA00BF1B
:104440001037BD4680BD000080B500AF054BDB696D
:1044500018460BF043F8034BDB6918460BF060F885
:1044600000BF80BD2845012080B588B002AFF8604C
:10447000B9601346FB71002300220121F868FFF7A1
:10448000C5FF0A4B7B61FB7901933F230093084BE7
:104490007A69084908480AF0ECFF084B1B6818467F
:1044A00003F0ECFA00BF1837BD4680BD9C500108F0
:1044B000A4500108D0500108784C012014000020BD
:1044C00080B58AB004AFF860B9601346FB71BB6871
:1044D0001B781A06BB6801331B781B041A43BB68A0
:1044E00002331B781B021343BA680332127813435A
:1044F0007B61FB79BA680321F868FFF787FF094BF6
:104500003B61FB797A690292019348230093064B41
:104510003A69064906480AF0ACFF00BF1837BD46A5
:1045200080BD00BF9C500108A4500108EC50010858
:10453000784C012080B58CB006AFF860B9601346A6
:10454000FB71BB681B78FB75BB6801331B78BB75BF
:10455000BB6802331B787B75BB6803331B783B75E4
:10456000FB79BA680521F868FFF750FF0A4B3B61F9
:10457000FB7DBA7D797D387D049003910292019391
:1045800058230093054B3A69054906480AF071FF24
:1045900000BF1837BD4680BD9C500108A4500108DB
:1045A00024510108784C012080B58AB002AFF86030
:1045B000B9601346FB71FF233B75BB681B78FB7723
:1045C0000E4B1B68FA7F1146184603F073F907F18A
:1045D000140201230921F868FFF718FF084BBB619B
:1045E000FB7F019361230093064BBA690649074894
:1045F0000AF03FFF00BF2037BD4680BD18000020F5
:104600009C500108A45001084C510108784C01202D
:1046100090B5A3B008AFF860B9601346FB714FF6D0
:104620003F73BB820023A7F86630BB681B781BB2C0
:104630001B021AB2BB6801331B781BB21343A7F8E5
:104640006430BB6802331B781BB21B021AB2BB6812
:1046500003331B781BB21343A7F86230BB680433E3
:104660001B781BB21B021AB2BB6805331B781BB246
:104670001343A7F86030BB6806331B7887F85F30B8
:10468000BB6807331B7887F85E30BB6808331B783C
:1046900087F85D30BB6809331B7887F85C30BB68EE
:1046A0000A331B7887F85B30BB680B331B781BB26F
:1046B0001B021AB2BB680C331B781BB213431BB22C
:1046C000A7F85830BB680D331B7887F8573097F838
:1046D0005F30072B0ED9B7F866300133A7F8663084
:1046E000844B3B6576230093834B3A6D8349844822
:1046F0000AF0BFFE97F85E30072B0ED9B7F8663088
:104700000133A7F866307B4BFB647B2300937A4B25
:10471000FA6C7C497A480AF0ACFE97F85C300F2BB3
:104720000ED9B7F866300133A7F86630714BBB6419
:1047300080230093704BBA6C734971480AF099FE5C
:1047400097F85B300F2B0ED9B7F866300133A7F816
:104750006630684B7B6485230093674B7A6C6B49AA
:1047600067480AF086FEB7F86630002B40F0A88054
:10477000674B1868B7F86410B7F86220B7F8604064
:1047800097F857300693B7F85830059397F85B3091
:10479000049397F85C30039397F85D30029397F891
:1047A0005E30019397F85F300093234604F0F2FAED
:1047B000504B3B64B7F9643001938B2300934E4B0D
:1047C0003A6C54494E480AF054FE4A4BFB63B7F921
:1047D000623001938C230093474BFA6B4E49484853
:1047E0000AF047FE434BBB63B7F9603001938D235A
:1047F0000093414BBA6B494941480AF03AFE3D4BA0
:104800007B6397F85F3001938E2300933A4B7A6B6A
:1048100043493B480AF02DFE364B3B6397F85E3028
:1048200001938F230093344B3A6B3E4934480AF08E
:1048300020FE304BFB6297F85D30002B01D13A4BE4
:1048400000E03A4B0193902300932B4BFA6A3849CE
:104850002B480AF00EFE274BBB6297F85C300193A1
:1048600091230093244BBA6A324925480AF001FE8D
:10487000204B7B6297F85B300193922300931E4B91
:104880007A6A2D491E480AF0F4FD1A4B3B62B7F8CC
:104890005830019393230093174B3A6A27491848DD
:1048A0000AF0E7FD134BFB6197F85730019394230F
:1048B0000093114BFA69224911480AF0DAFD03E02E
:1048C0003E233B753E237B7507F1140202230B2127
:1048D000F868FFF79BFD074BBB619C230093064BD9
:1048E000BA69184906480AF0C4FD00BF6C37BD46D6
:1048F00090BD00BF9C500108A450010870510108F0
:10490000784C01209C510108C8510108F45101085C
:104910000C000020205201083C52010858520108A6
:104920007452010890520108AC520108B0520108BB
:10493000B4520108D4520108F85201081C5301086E
:10494000385301085453010880B588B002AFF860AD
:10495000B9601346FB71FF23FB740D4B7B61A223EF
:1049600000930C4B7A690C490C480AF082FD0C4B01
:104970001B68184603F0CAFD07F1130201230D213D
:10498000F868FFF743FD00BF1837BD4680BD00BF84
:104990009C500108A450010878530108784C01206C
:1049A0000C00002080B588B002AFF860B9601346F3
:1049B000FB71FF23FB740D4B7B61AA2300930C4B0F
:1049C0007A690C490C480AF054FD0C4B1B681846D8
:1049D00003F0B8FD07F1130201230F21F868FFF778
:1049E00015FD00BF1837BD4680BD00BF9C500108B3
:1049F000A4500108A4530108784C01200C000020A9
:104A000080B592B002AFF860B9601346FB714FF603
:104A10003F73BB82002387F83F30BB681B781BB213
:104A20001B021AB2BB6801331B781BB213431BB2C3
:104A3000BB87BB6802331B7887F83B30BB68033306
:104A40001B781BB21B021AB2BB6804331B781BB263
:104A500013431BB23B87BB8F4EF6602293420ED9A5
:104A600097F83F30013387F83F30594B7B63BA23C7
:104A70000093584B7A6B584958480AF0FAFC97F85B
:104A80003B30042B0FD997F83F30013387F83F3084
:104A90004F4B3B62C02300934E4B3A6A50494F48FC
:104AA0000AF0E7FC49E097F83B30042B21D107F1ED
:104AB000140202231121F868FFF7A8FC494B1B6878
:104AC0000421184603F03AFE414BBB62C623009313
:104AD000404BBA6A444941480AF0CBFC3C4B7B62EC
:104AE000C72300933B4B7A6A40493C480AF0C1FC1B
:104AF0006AE03C4B1B68184603F063FF034687F8E7
:104B0000333097F8332097F83B3042FA03F303F041
:104B10000103002B11D097F83F30013387F83F3065
:104B20002B4BFB6297F83B300193D0230093294B2A
:104B3000FA6A2F4929480AF09CFC3B8FB3F5FA7FAB
:104B400004D33B8F40F6B832934210D997F83F30E8
:104B5000013387F83F301E4BFB613B8F0193D72316
:104B600000931C4BFA6923491C480AF082FC97F811
:104B70003F30002B13D1BB8F184600F043FE194B7A
:104B80001B6897F83B201146184603F0D7FD154BDC
:104B90001B683A8F1146184603F0E9FD03E03E23F7
:104BA0003B753E237B7507F1140202231121F8683F
:104BB000FFF72CFC064BBB61E7230093054BBA695A
:104BC0000A4906480AF055FC4037BD4680BD00BF83
:104BD0009C500108A4500108D0530108784C0120D2
:104BE000085401080C0000203454010864540108E2
:104BF00090540108B854010880B588B002AFF8603D
:104C0000B9601346FB71FF23FB7407F11302012304
:104C10001321F868FFF7FAFB074B7B61EE23009343
:104C2000064B7A69064907480AF023FC00F0C6FDE6
:104C300000BF1837BD4680BD9C500108A450010834
:104C4000EC540108784C012080B588B002AFF860C0
:104C5000B9601346FB71FF23FB7407F113020123B4
:104C60001521F868FFF7D2FB074B7B61F623009311
:104C7000064B7A69064907480AF0FBFB00F0B0FDD5
:104C800000BF1837BD4680BD9C500108A4500108E4
:104C900010550108784C012080B59AB002AFF86039
:104CA000B9601346FB71864BBB65FC230093854BB3
:104CB000BA6D854985480AF0DCFB4FF63F733B85AA
:104CC0000023A7F85E30BB681B781A06BB68013367
:104CD0001B781B041A43BB6802331B781B02134367
:104CE000BA680332127813437B65BB6804331B78C0
:104CF0001B029BB2BA68053212781343A7F85230F0
:104D0000BB6806331B781B029BB2BA680732127865
:104D10001343A7F85030BB6808331B781B029BB2C3
:104D2000BA68093212781343A7F84E307B6DB3F599
:104D30007A7F03D37B6D664A93420FD9B7F85E3012
:104D40000133A7F85E305E4BBB644FF4847300936D
:104D50005C4BBA6C5F495D480AF08BFBB7F8523088
:104D6000002B0FD1B7F85E300133A7F85E30544BFB
:104D70007B644FF487730093524B7A6C56495348C7
:104D80000AF077FBB7F85030002B0FD1B7F85E3040
:104D90000133A7F85E304A4B3B644FF48A730093AB
:104DA000484B3A6C4D4949480AF063FBB7F84E301E
:104DB000002B0FD1B7F85E300133A7F85E30404BBF
:104DC000FB634FF48D7300933E4BFA6B44493F48AD
:104DD0000AF04FFBB7F85220B7F850301A44B7F832
:104DE0004E3013441A467B6D02FB03F33D4AA2FB8F
:104DF00003239B0CBB63BB6BB3F5006F0FD9B7F8F4
:104E00005E300133A7F85E302D4B7B6340F22113F7
:104E100000932C4B7A6B34492C480AF02AFBB7F8E4
:104E20005E30002B3AD17B6D7B61B7F852307B83CB
:104E3000B7F85030BB83B7F84E30FB83BB6B3B6297
:104E40002A4A7B6DB2FBF3F37B62294B1B6807F1A7
:104E5000140211461846FEF71DFF0346002B0BD126
:104E6000174BFB6240F22F130093164BFA6A21494D
:104E700016480AF0FEFA17E03E2387F828303E2352
:104E800087F829300E4B3B6340F2351300930D4BEE
:104E90003A6B19490D480AF0ECFA05E03E2387F811
:104EA00028303E2387F8293007F1280202231721F2
:104EB000F868FFF7ABFA00BF6037BD4680BD00BFA2
:104EC0009C500108A450010834550108784C012079
:104ED00000350C005455010888550108B8550108E3
:104EE000E855010883DE1B431856010840420F00B5
:104EF000100000204C5601086C56010880B590B097
:104F000002AFF860B9601346FB714FF63F73BB8484
:104F1000BB681B7887F8373097F83730642B11D986
:104F20003E2387F824303E2387F82530244BBB628C
:104F300040F249130093234BBA6A234923480AF0ED
:104F400098FA39E0224B1B6807F110021146184607
:104F5000FEF74AFF97F837307B751D4B1B6807F14A
:104F6000100211461846FEF7CFFE0346002B0BD168
:104F7000134BFB624FF4AA730093124BFA6A154964
:104F800012480AF076FA10E03E2387F824303E23D8
:104F900087F825300A4B3B634FF4AD730093094B00
:104FA0003A6B0D4909480AF064FA07F1240202231A
:104FB0001921F868FFF72AFA3837BD4680BD00BFCF
:104FC0009C500108A45001088C560108784C01201F
:104FD00010000020B8560108E456010880B590B0D2
:104FE00002AFF860B9601346FB714FF63F73BB84A4
:104FF000BB681B7887F8373097F83730242B03D8F5
:1050000097F83730002B11D13E2387F824303E2308
:1050100087F82530244BBB624FF4B4730093234BC5
:10502000BA6A234923480AF024FA32E0224B1B686B
:1050300007F1100211461846FEF7D6FE97F83730F2
:105040003B751D4B1B6807F1100211461846FEF711
:1050500072FE0346002B0BD1134BFB624FF4B97366
:105060000093124BFA6A154912480AF002FA10E04E
:105070003E2387F824303E2387F825300A4B3B63D4
:105080004FF4BC730093094B3A6B0D4909480AF081
:10509000F0F907F1240202231B21F868FFF7B6F9A3
:1050A00000BF3837BD4680BD9C500108A4500108A0
:1050B00010570108784C0120100000203C570108CF
:1050C0006057010880B58AB002AFF860B960134636
:1050D000FB713F233B75174B1B681846FEF798FE84
:1050E0000346002B0DD03E233B75134BBB614FF4A1
:1050F000C2730093114BBA69114912480AF0B9F909
:105100000CE0FEF707FF0C4BFB6140F289130093A4
:105110000A4BFA690C490B480AF0ABF907F1140283
:1051200001231D21F868FFF771F900BF2037BD4644
:1051300080BD00BF100000209C500108A450010851
:1051400084570108784C0120AC57010880B58EB017
:1051500002AFF860B9601346FB714FF63F73BB8432
:10516000214B1B6807F1100211461846FEF73CFE62
:10517000FB69002B0ED1002387F824301B4BBB6248
:1051800040F2971300931A4BBA6A1A491A480AF068
:1051900070F91DE0FB691B09DBB287F82430FB695D
:1051A00003F00F03002B05D097F824300133DBB256
:1051B00087F824300D4BFB6297F8243001934FF4AD
:1051C000CF7300930A4BFA6A0C490B480AF051F965
:1051D00007F1240202231F21F868FFF717F900BF27
:1051E0003037BD4680BD00BF100000209C50010834
:1051F000A4500108D4570108784C0120F457010845
:1052000080B590B002AFF860B9601346FB714FF6FD
:105210003F73BB84BB681B7887F837302D4B1B6806
:1052200007F1100211461846FEF7DEFDFB691B0967
:1052300087F8363097F83630002B11D13E2387F8A7
:1052400024303E2387F82530234BBB624FF4D773BD
:105250000093224BBA6A224922480AF00AF92EE04A
:1052600097F8372097F836309A4211D33E2387F8C3
:1052700024303E2387F82530174BFB624FF4DA7356
:105280000093164BFA6A184916480AF0F2F816E02D
:10529000104B1B6897F8372092B211461846FEF75C
:1052A000EFFD0D4B3B6397F83730019340F2B91394
:1052B00000930A4B3A6B0D490A480AF0DAF807F1F5
:1052C000240202232121F868FFF7A0F800BF383735
:1052D000BD4680BD100000209C500108A45001086C
:1052E00018580108784C0120345801085C5801080E
:1052F00080B58CB004AFF860B9601346FB7105F05F
:105300006DFC0346FB83FB8B1B0A9BB2DBB23B7538
:10531000FB8BDBB27B7507F1140202232321F868B3
:10532000FFF774F80A4BBB61BB681B781A46FB8B0E
:10533000029301924FF4E3730093064BBA69064956
:1053400006480AF096F800BF2037BD4680BD00BF72
:105350009C500108A450010878580108784C01209D
:1053600080B485B000AFF860B9601346FB7100BF30
:105370001437BD465DF8047B704780B485B000AF3C
:10538000F860B9601346FB7100BF1437BD465DF885
:10539000047B704780B58AB002AFF860B9601346ED
:1053A000FB714FF63F733B82BB681B78FB83B7F9F9
:1053B0001E30642B0FDD3E233B743E237B74164B63
:1053C0007B6140F2DB130093144B7A691449154852
:1053D0000AF04FF815E0144B1B68B7F91E200121A5
:1053E0001846FEF78BFB0C4BBB61B7F91E300193DF
:1053F0004FF4F0730093094BBA690C4909480AF05D
:1054000038F807F1100202232921F868FEF7FEFFA1
:1054100000BF2037BD4680BD9C500108A450010844
:10542000A4580108784C012010000020D058010831
:1054300080B58AB002AFF860B9601346FB714FF6D1
:105440003F733B82BB681B78FB77FB7F082B02D83E
:10545000FB7F002B0FD13E233B743E237B74144B08
:105460007B614FF4F7730093124B7A69124913482A
:1054700009F0FFFF11E0124B1B68FA7F1146184636
:10548000FEF7A5FB0A4BBB6140F2F3130093094BF7
:10549000BA690C49094809F0ECFF07F11002022330
:1054A0002B21F868FEF7B2FF00BF2037BD4680BD54
:1054B0009C500108A4500108FC580108784C0120B8
:1054C000100000202859010880B588B002AFF860AC
:1054D000B9601346FB71FF233B7407F110020123EF
:1054E0002D21F868FEF792FF094B1B681846FEF75E
:1054F00091FB084B7B6140F2FD130093064B7A69E8
:105500000649074809F0B5FF00BF1837BD4680BD02
:10551000100000209C500108A45001084C590108BB
:10552000784C012080B58CB002AFF860B9601346AA
:10553000FB710020FDF782FE0346FB840120FDF78E
:105540007DFE0346BB843F233B75FB8C1B0A9BB24D
:10555000DBB27B75FB8CDBB2BB75BB8C1B0A9BB2D1
:10556000DBB2FB75BB8CDBB23B7607F11402052383
:105570003321F868FEF74AFF0E4B3B62FB8C019328
:1055800040F2492300930C4B3A6A0C490C4809F04D
:1055900070FF084BFB61BB8C019340F24A230093E0
:1055A000054BFA690749064809F063FF00BF283731
:1055B000BD4680BD9C500108A450010870590108E7
:1055C000784C01209859010880B400AF024B18466E
:1055D000BD465DF8047B70478C7B010880B400AF4A
:1055E00017231846BD465DF8047B704780B582B02E
:1055F00000AF786039607B68183318460AF090FC79
:1056000000BF0837BD4680BD80B584B000AF78606C
:1056100039607B685B69FB607B685B6939687868C7
:1056200098470346FB72FB7A002B08D1FB680649BA
:10563000786898477B685B6904497868984700BF39
:105640001037BD4680BD00BF687C0108547C01084E
:1056500080B584B002AF786039607B68002B03D1DD
:105660000021134803F0F4FB78683B685A683B68F4
:105670009B68009313460F4A0F490AF0A3FB7B680F
:1056800018337A68132118460AF008FC3B681A6838
:105690007B685A617B68002283F828207B68183376
:1056A00018460AF03DFC00BF0837BD4680BD00BF6C
:1056B000447C010809560008ED55000880B586B005
:1056C00002AF12230093022324220949094809F05A
:1056D0005AFF094A3B1D07CA83E807003B1D1946CC
:1056E0000648FFF7B5FF00BF1037BD4680BD00BFBD
:1056F000944B0120B84B0120C0590108544B0120A4
:1057000080B582B000AF0346FB71FB7919460348B0
:105710000AF072FB00BF0837BD4680BD544B012024
:1057200080B586B002AF786039603B681B88012B7A
:1057300002D0132B02D02FE001232EE07B6893F8D8
:105740002830002B13D1174BBB605F230093164BFF
:10575000BA681649164809F08CFE164B1B681846A5
:1057600003F021F87B68012283F8282012E00D4B1A
:10577000FB60652300930C4BFA680F490C4809F055
:1057800078FE0C4B1B68184603F097F87B680022E4
:1057900083F82820012300E0022318461037BD4675
:1057A00080BD00BFCC590108D4590108045A010832
:1057B000784C01201C0000201C5A010880B500AF65
:1057C000054B1B88044A1288194604480AF088FBD6
:1057D0000023184680BD00BF200000206C4B012034
:1057E00080B500AF05480AF09BFB054B1B681846C7
:1057F00003F063F80023184680BD00BF6C4B012006
:105800001C00002080B483B000AF0346FB80044A34
:10581000FB88138000BF0C37BD465DF8047B7047E2
:105820002000002080B400AFBFF34F8F00BF064BB5
:10583000DB6803F4E0620449044B1343CB60BFF31D
:105840004F8F00BF00BFFDE700ED00E00400FA0548
:1058500080B588B000AFF860B9607A6007F11403D2
:10586000074A0A2118460DF03DFA07F114031946BC
:10587000F86807F078FB00BF2037BD4680BD00BF49
:105880004064010880B584B000AFF860B9607A6008
:10589000FFF7C8FF80B588B000AFF860B9607A60E4
:1058A0000023BB610023FB82B86807F04DFC034670
:1058B0007B757B7D012B04D02E49F86808F0CAFD6A
:1058C00054E00121B86807F009FC38613B691B7896
:1058D000612B22D10023FB771BE0FB7F1846FDF7ED
:1058E000F9FC0346FB82B7F9163013F5004F06D1D9
:1058F000FB7F1A462049F86808F0ACFD06E0FA7F05
:10590000B7F916301D49F86808F0A4FDFB7F013394
:10591000FB77FB7F072BE0D928E03B691B782F2B17
:1059200020D93B691B78372B1CD838690CF000FC58
:105930000346BB61B869FDF7CDFC0346FB82B7F9AE
:10594000163013F5004F05D1BA690B49F86808F015
:1059500081FD0BE0B7F91630BA690849F86808F01C
:1059600079FD03E00649F86808F074FD2037BD466C
:1059700080BD00BF48640108686401087C640108B8
:105980009064010880B588B000AFF860B9607A60B3
:10599000B86807F0D9FB0346FB61FB69012B04D013
:1059A0001549F86808F056FD23E0144B1B681846AB
:1059B00002F0B0FE034683F00103DBB2002B04D0FB
:1059C0000F49F86808F046FD13E00121B86807F0B8
:1059D00085FBB861B8690CF0ABFB03467B61074BF4
:1059E0001B687969184603F0A9F90649F86808F0B8
:1059F00031FD2037BD4680BD4864010824000020E9
:105A0000A4640108F064010880B584B000AFF860B8
:105A1000B9607A600A4B1B68184603F0A8F9034680
:105A2000002B04D00749F86808F014FD03E006498C
:105A3000F86808F00FFD00BF1037BD4680BD00BFFD
:105A400024000020F0640108F864010880B588B0E3
:105A500000AFF860B9607A60B86807F075FB03467C
:105A6000BB61BB69012B04D03849F86808F0F2FC2F
:105A700069E0374B1B68184602F04CFE034683F082
:105A80000103DBB2002B04D03249F86808F0E2FCD5
:105A900059E00121B86807F021FB786100233B61E0
:105AA0007B691B78612B25D10023FB611EE0284B0D
:105AB0001B68F969184602F0E9FD38613B69002B63
:105AC0000CD1234B1B680022F969184602F0FEFD39
:105AD000FA692149F86808F0BDFC04E0FA691F4939
