:020000040800F2
:100000000000082095300008792E0008812E000895
:10001000892E0008912E0008992E0008000000008B
:10002000000000000000000000000000A12E0008F9
:10003000AF2E000800000000BD2E0008CB2E0008E7
:10004000E5300008E5300008E5300008E53000083C
:10005000E5300008E5300008E5300008E53000082C
:10006000E5300008E5300008E5300008E53000081C
:10007000D59F0008E5300008E5300008E5300008AD
:10008000E5300008E5300008E5300008E5300008FC
:10009000E5300008E5300008E5300008E5300008EC
:1000A000E530000819A10008E5300008E530000837
:1000B00065A10008E5300008E5300008E5300008DB
:1000C000E5300008E5300008E5300008D72E0008CC
:1000D000E5300008E5300008E5300008B5FB000811
:1000E000E5300008E5300008E5300008E53000089C
:1000F000E5300008E5300008E5300008E53000088C
:10010000E5300008E5300008E5300008E53000087B
:10011000E5300008E5300008E5300008E53000086B
:100120004996000819950008A5950008ADA9000892
:10013000E5300008E5300008E5300008E53000084B
:10014000E5300008E5300008E5300008E53000083B
:10015000E530000881A30008E5300008F1700008D0
:10016000E5300008E5300008E5300008E53000081B
:10017000E5300008E5300008E53000080000000028
:10018000E5300008E53000087D420008E530000851
:10019000E5300008E5300008E5300008E5300008EB
:1001A0000000000000000000E5300008E530000815
:1001B000E5300008E5300008E5300008E5300008CB
:1001C000E5300008E530000800000000E5300008D8
:1001D000E5300008E5300008E5300008E5300008AB
:1001E000E5300008E5300008E5300008E53000089B
:0801F00000000000E5300008EA
:1002000010B5054C237833B9044B13B10448AFF350
:1002100000800123237010BDB8830020000000007F
:10022000F445010808B5034B1BB103490348AFF37C
:10023000008008BD00000000BC830020F4450108D8
:1002400010F8012B11F8013B012A28BF9A42F7D080
:10025000D01A7047000000000000000000000000FD
:1002600001F0FF01102A2BDB10F0070F08D010F867
:10027000013B013A8B422DD010F0070F42B3F6D16B
:10028000F0B441EA012141EA014122F007047FF084
:1002900000070023F0E80256083C85EA010586EADB
:1002A000010685FA47F5A3FA87F586FA47F6A5FA17
:1002B00087F68EB9EED1F0BC01F0FF0102F0070223
:1002C00032B110F8013B013A83EA010313B1F8D1CE
:1002D0000020704701387047002D06BF35460338AF
:1002E000073815F0010F07D1013015F4807F02BFE8
:1002F000013015F4C03F0130F0BC0138704700BF39
:10030000034613F8012B002AFBD1181A0138704755
:100310007BB972B90029BEBF00204FF0004106E052
:1003200008BF00281CBF6FF000414FF0FF3000F005
:10033000BBB9ADF1080C6DE904CE002909DB002B37
:100340001ADB00F035F8DDF804E0DDE9022304B043
:100350007047404261EB4101002B1BDB00F028F8A5
:10036000DDF804E0DDE9022304B0404261EB410125
:10037000524263EB43037047524263EB430300F086
:1003800017F8DDF804E0DDE9022304B0404261EB38
:1003900041017047524263EB430300F009F8DDF876
:1003A00004E0DDE9022304B0524263EB43037047EB
:1003B0002DE9F047089D8E4604468846002B4AD119
:1003C0008A42174662D9B2FA82F64EB1C6F12003CC
:1003D00001FA06F820FA03F3B74043EA0808B440EC
:1003E0004FEA174E1FFA87FCB8FBFEF1230C0EFBF9
:1003F000118843EA084301FB0CF29A4209D9FB1821
:1004000001F1FF3080F0EA809A4240F2E780023941
:100410003B449A1AA3B2B2FBFEF00EFB102243EA51
:10042000024300FB0CFC9C4509D9FB1800F1FF328C
:1004300080F0D6809C4540F2D3803B44023840EAAD
:100440000140A3EB0C0300211DB1F3400022C5E9DC
:100450000032BDE8F0878B4205D90DB1C5E9000136
:1004600000210846F5E7B3FA83F1002946D1734528
:1004700002D3824200F20581841A6EEB030201204E
:100480009046002DE5D0C5E90048E2E7002A00F0DB
:100490009080B2FA82F6002E40F0A4808A1A030CF3
:1004A0004FEA174E80B2BCB20121B2FBFEFC0EFB3C
:1004B0001C2243EA024304FB0CF29A4207D9FB18C0
:1004C0000CF1FF3802D29A4200F2E080C4469B1A37
:1004D000B3FBFEF20EFB123340EA034302FB04F4CB
:1004E0009C4207D9FB1802F1FF3002D29C4200F275
:1004F000CA8002461B1B42EA0C40A5E7C1F1200658
:100500008B4022FA06F71F430EFA01F420FA06F395
:100510002EFA06FE4FEA1749234300FA01F81FFAA4
:1005200087FCBEFBF9F01C0C09FB10EE44EA0E44FC
:1005300000FB0CFEA64502FA01F209D93C1900F1B4
:10054000FF3A80F09C80A64540F2998002383C44F6
:10055000A4EB0E041FFA83FEB4FBF9F309FB13446A
:100560004EEA044403FB0CFCA44508D93C1903F1F2
:10057000FF3E80F08280A4457FD9023B3C4443EAA1
:100580000040A4EB0C04A0FB02EC64457346E1467A
:1005900062D35FD05DB1B8EB030264EB090404FAE7
:1005A00006F622FA01F31E43CC40C5E9006400219F
:1005B0004FE7B1FBF2FC010C41EA0E4180B240EA88
:1005C00001423B4638463C46B846BE462026B1FB73
:1005D000F7F1A2EB080241EA0C4166E7014618E791
:1005E00010462CE7C6F120022EFA02F3B740B140C4
:1005F00020FA02F24FEA174E0A43B3FBFEF8BCB2F0
:100600000EFB1833110C41EA034108FB04F9B0401A
:1006100089454FEA104380B23ED9791808F1FF3C72
:1006200001D289451FD8A1EB0901B1FBFEF909FBF5
:1006300004F80EFB191192B242EA0142424529D256
:10064000BA1809F1FF31C4D24245C2D2A9F1020160
:100650003A44BEE7F0459DD2BEEB02036CEB070CBB
:100660000138E14696E7A7EB09094944A8F1020CD5
:10067000B1FBFEF909FB04F8DBE773467FE7504660
:1006800066E70846FDE63B44023A33E7ACF1020C6C
:100690003B441CE749469CE7A1EB0901C446B1FB7A
:1006A000FEF909FB04F8C4E7704700BF80B485B0C9
:1006B00000AF78607B6803F00703FB600B4BDB68DF
:1006C000BB60BA684FF6FF031340BB60FB681A02B9
:1006D000BB681A43064B1343BB60044ABB68D36034
:1006E00000BF1437BD465DF8047B704700ED00E0A5
:1006F0000000FA0580B400AF044BDB681B0A03F06E
:1007000007031846BD465DF8047B704700ED00E026
:1007100080B483B000AF0346FB7197F90730002B1C
:100720000BDBFB7903F01F02074997F907305B09E0
:10073000012000FA02F241F8232000BF0C37BD4629
:100740005DF8047B704700BF00E100E080B483B037
:1007500000AF03463960FB7197F90730002B0ADBC5
:100760003B68DAB20C4997F907301201D2B20B4458
:1007700083F800230AE03B68DAB20849FB7903F00A
:100780000F03043B1201D2B20B441A7600BF0C37A0
:10079000BD465DF8047B704700E100E000ED00E03D
:1007A00080B489B000AFF860B9607A60FB6803F08C
:1007B0000703FB61FB69C3F10703042B28BF042374
:1007C000BB61FB690433062B02D9FB69033B00E0E4
:1007D00000237B614FF0FF32BB6902FA03F3DA4377
:1007E000BB681A407B699A404FF0FF317B6901FA80
:1007F00003F3D9437B680B40134318462437BD46A7
:100800005DF8047B704780B489B000AFF860B960D0
:100810007A60FB682C331946BB6803F440734FF4CD
:100820004072BA61BA6992FAA2F27A617A69B2FA4E
:1008300082F2D2B2D3409B000B44FB61FB691A6881
:10084000BB6803F01F031F2101FA03F3DB431A40C7
:100850007B6803F01F01BB6803F01F0301FA03F379
:100860001A43FB691A6000BF2437BD465DF8047B5C
:10087000704780B483B000AF786039607B689B6854
:1008800023F480623B681A437B689A6000BF0C3790
:10089000BD465DF8047B704780B48DB000AFF86052
:1008A000B9607A60FB680C331946BB6803F00073CB
:1008B0004FF00072BA61BA6992FAA2F27A617A696B
:1008C000B2FA82F2D2B2D3409B000B44FB62FB6AC5
:1008D0001A68BB6803F0F8734FF0F8713962396A2F
:1008E00091FAA1F1F961F969B1FA81F1C9B2CB408C
:1008F000072101FA03F3DB431A40BB6803F0F873E6
:100900004FF0F871B962B96A91FAA1F17962796A26
:10091000B1FA81F1C9B2CB40796801FA03F31A4305
:10092000FB6A1A6000BF3437BD465DF8047B704730
:1009300080B485B000AFF860B9607A600D4ABB68DA
:1009400013441B781A46FB6813441B6823F0C0024B
:100950000849BB680B441B781946FB680B441946D1
:100960007B6813430B6000BF1437BD465DF8047B02
:10097000704700BFF06D010880B485B000AFF8602B
:10098000B9607A600D4ABB6813441B781A46FB684D
:1009900013441B6823F490720849BB680B441B780E
:1009A0001946FB680B4419467B6813430B6000BF74
:1009B0001437BD465DF8047B704700BFF06D010839
:1009C00080B485B000AFF860B9607A600D4ABB684A
:1009D00013441B781A46FB6813441B6823F4007207
:1009E0000849BB680B441B781946FB680B44194641
:1009F0007B6813430B6000BF1437BD465DF8047B72
:100A0000704700BFF06D010880B485B000AFF8609A
:100A1000B9607A600D4ABB6813441B781A46FB68BC
:100A200013441B6823F480620849BB680B441B789D
:100A30001946FB680B4419467B6813430B6000BFE3
:100A40001437BD465DF8047B704700BFF06D0108A8
:100A500080B485B000AFF860B9607A600D4ABB68B9
:100A600013441B781A46FB6813441B6823F4C052D6
:100A70000849BB680B441B781946FB680B441946B0
:100A80007B6813430B6000BF1437BD465DF8047BE1
:100A9000704700BFF06D010880B485B000AFF8600A
:100AA000B9607A600D4ABB6813441B781A46FB682C
:100AB00013441B6823F4C0420849BB680B441B78ED
:100AC0001946FB680B4419467B6813430B6000BF53
:100AD0001437BD465DF8047B704700BFF06D010818
:100AE00080B485B000AFF860B9607A600D4ABB6829
:100AF00013441B781A46FB6813441B6823F44032E6
:100B00000849BB680B441B781946FB680B4419461F
:100B10007B6813430B6000BF1437BD465DF8047B50
:100B2000704700BFF06D010880B485B000AFF86079
:100B3000B9607A600D4ABB6813441B781A46FB689B
:100B400013441B6823F0F0520849BB680B441B7820
:100B50001946FB680B4419467B6813430B6000BFC2
:100B60001437BD465DF8047B704700BFF06D010887
:100B700080B483B000AF786039600C4A3B6813449E
:100B80001B781A467B6813445B6908493A680A4433
:100B9000127811467A680A4423F00403536100BFB7
:100BA0000C37BD465DF8047B704700BFF06D01084F
:100BB00080B483B000AF78607B681B6843F00102AB
:100BC0007B681A6000BF0C37BD465DF8047B704738
:100BD00080B483B000AF78607B681B6823F4003278
:100BE0007B681A6000BF0C37BD465DF8047B704718
:100BF00080B483B000AF78607B681B6823F4002268
:100C00007B681A6000BF0C37BD465DF8047B7047F7
:100C100080B485B000AFF860B9607A60FB68DA68CC
:100C2000064B1340B9687A680A431A43FB68DA60D6
:100C300000BF1437BD465DF8047B704701F8FFFF25
:100C400080B483B000AF78607B68DB6823F4004237
:100C50007B68DA6000BF0C37BD465DF8047B7047E7
:100C600080B483B000AF78607B685B6843F000724B
:100C70007B685A6000BF0C37BD465DF8047B704747
:100C800080B400AF054B1B68044A43F48033136003
:100C900000BFBD465DF8047B704700BF00380240CE
:100CA00080B400AF074B1B6803F40033B3F5003F7B
:100CB0000CBF01230023DBB21846BD465DF8047B60
:100CC000704700BF0038024080B483B000AF786046
:100CD000064B9B6823F0030204497B6813438B6037
:100CE00000BF0C37BD465DF8047B704700380240FA
:100CF00080B400AF044B9B6803F00C031846BD465C
:100D00005DF8047B704700BF0038024080B483B0B8
:100D100000AF7860064B9B6823F0F00204497B68C3
:100D200013438B6000BF0C37BD465DF8047B7047F2
:100D30000038024080B483B000AF7860064B9B68F7
:100D400023F4E05204497B6813438B6000BF0C37E7
:100D5000BD465DF8047B70470038024080B483B024
:100D600000AF7860064B9B6823F4604204497B68BF
:100D700013438B6000BF0C37BD465DF8047B7047A2
:100D80000038024080B483B000AF7860094BD3F8DC
:100D900090207B681B0CDB431A407B689BB20549A3
:100DA0001343C1F8903000BF0C37BD465DF8047B9B
:100DB000704700BF0038024080B483B000AF786055
:100DC000094BD3F890207B681B0CDB431A407B68EF
:100DD0009BB205491343C1F8903000BF0C37BD46A4
:100DE0005DF8047B704700BF0038024080B483B0D8
:100DF00000AF7860094BD3F890207968084B0B401E
:100E0000DB431A407B681B0404491343C1F890304C
:100E100000BF0C37BD465DF8047B704700380240C8
:100E20000000FFFF80B483B000AF7860074BD3F8B9
:100E30008C3023F0807205497B681343C1F88C30F5
:100E400000BF0C37BD465DF8047B70470038024098
:100E500080B400AF054B1B68044A43F080731360F5
:100E600000BFBD465DF8047B704700BF00380240FC
:100E700080B400AF074B1B6803F00073B3F1007F31
:100E80000CBF01230023DBB21846BD465DF8047B8E
:100E9000704700BF0038024080B485B000AFF860F2
:100EA000B9607A603B600A4B5A680A4B1340F96894
:100EB000BA6811437A68920111433A680A430449B7
:100EC00013434B6000BF1437BD465DF8047B704789
:100ED000003802400080BCFF80B485B000AF78606D
:100EE000084B1A6B07497B6813430B63054B1A6B5E
:100EF0007B681340FB60FB6800BF1437BD465DF89C
:100F0000047B70470038024080B485B000AF786041
:100F1000084B1A6C07497B6813430B64054B1A6C2A
:100F20007B681340FB60FB6800BF1437BD465DF86B
:100F3000047B70470038024080B485B000AF786011
:100F4000084B5A6C07497B6813434B64054B5A6C3A
:100F50007B681340FB60FB6800BF1437BD465DF83B
:100F6000047B70470038024080B483B000AF7860E3
:100F7000064B1B6823F00F0204497B6813430B6088
:100F800000BF0C37BD465DF8047B7047003C024053
:100F900080B400AF044B1B6803F00F031846BD4636
:100FA0005DF8047B704700BF003C024080B400AF96
:100FB000054B1B68044A43F48033136000BFBD46F1
:100FC0005DF8047B704700BF0070004080B483B0C0
:100FD00000AF7860064B1B6823F4404204497B68ED
:100FE00013430B6000BF0C37BD465DF8047B7047B0
:100FF0000070004080B400AF074B5B6803F480438F
:10100000B3F5804F0CBF01230023DBB21846BD4669
:101010005DF8047B704700BF0070004080B483B06F
:1010200000AF78607B681B6843F040027B681A6001
:1010300000BF0C37BD465DF8047B704780B483B0B9
:1010400000AF786039607B685B6823F010023B6812
:101050001A437B685A6000BF0C37BD465DF8047BBD
:10106000704780B483B000AF78607B685B6843F002
:1010700008027B685A6000BF0C37BD465DF8047BF0
:10108000704780B483B000AF78607B685B6823F002
:1010900008027B685A6000BF0C37BD465DF8047BD0
:1010A000704780B483B000AF78607B681B6843F002
:1010B00080027B681A6000BF0C37BD465DF8047B78
:1010C000704780B483B000AF78607B681B6823F002
:1010D00080027B681A6000BF0C37BD465DF8047B58
:1010E0007047000080B485B000AF786039603B681D
:1010F000012B28D03B68042B23D03B68102B1ED03B
:101100003B68402B19D03B68B3F5807F13D03B6818
:10111000B3F5806F0DD03B68B3F5805F07D03B68B7
:10112000B3F5803F01D107230EE008230CE006232E
:101130000AE0052308E0042306E0032304E0022379
:1011400002E0012300E00023FB737B68183319469B
:10115000FB7B0B4AD35C0B44BB60BB681A68FB7B10
:101160000849CB5C194604238B40DB431A40BB681B
:101170001A6000BF1437BD465DF8047B704700BF9E
:10118000F86D0108046E010880B485B000AF786086
:1011900039603B68012B28D03B68042B23D03B6887
:1011A000102B1ED03B68402B19D03B68B3F5807FD5
:1011B00013D03B68B3F5806F0DD03B68B3F5805F0B
:1011C00007D03B68B3F5803F01D107230EE0082329
:1011D0000CE006230AE0052308E0042306E00323CD
:1011E00004E0022302E0012300E00023FB737B689C
:1011F00018331946FB7B0A4AD35C0B44BB60BB68BF
:101200001A68FB7B0749CB5C194608238B401A43BD
:10121000BB681A6000BF1437BD465DF8047B704799
:10122000F86D0108046E010880B483B000AF7860E7
:1012300039607B689A68064B13403A681A437B68AA
:101240009A6000BF0C37BD465DF8047B704700BF55
:10125000F8BFFEFF80B483B000AF786039607B6870
:101260005B6823F070023B681A437B685A6000BFDA
:101270000C37BD465DF8047B704780B483B000AF87
:10128000786039607B685B6823F470023B681A43BE
:101290007B685A6000BF0C37BD465DF8047B704721
:1012A00080B483B000AF78607B689B6823F08002D5
:1012B0007B689A6000BF0C37BD465DF8047B7047C1
:1012C00080B483B000AF78607B681B6843F0010294
:1012D0007B681A6000BF0C37BD465DF8047B704721
:1012E00080B483B000AF786039607B681B6823F4FA
:1012F000F8123B681B041A437B681A6000BF0C3766
:10130000BD465DF8047B704780B483B000AF786061
:1013100039607B681B6823F078723B685B051A4371
:101320007B681A6000BF0C37BD465DF8047B7047D0
:1013300080B483B000AF78607B689B6843F48042E0
:101340007B689A6000BF0C37BD465DF8047B704730
:1013500080B483B000AF786039607B689B6823F409
:1013600000423B681A437B689A6000BF0C37BD4659
:101370005DF8047B704780B483B000AF78607B6811
:101380005B6823F490427B685A607B689B6823F01B
:101390002A027B689A6000BF0C37BD465DF8047B6B
:1013A000704780B483B000AF78607B685B6823F4DB
:1013B00090427B685A607B689B6823F022027B68BE
:1013C0009A607B689B6843F008027B689A6000BF64
:1013D0000C37BD465DF8047B704780B483B000AF26
:1013E000786039607B683A689A6100BF0C37BD4607
:1013F0005DF8047B704780B483B000AF78603960DB
:101400003B681A047B689A6100BF0C37BD465DF8E3
:10141000047B704780B500AF4FF08050FFF774FD3C
:101420004FF48040FFF788FD0320FFF73FF9FFF7F7
:1014300061F9034600220F211846FFF7B1F9034670
:1014400019464FF0FF30FFF781F900F02DF801F059
:1014500049FA01F0DBF900F0DDFA00F04FFB00F093
:1014600013FC00F0C3FC00F06FF800F03DFD00F04D
:101470001DFF00F0F5FF00F0B5FD01F067F801F089
:1014800051F900F0B5F900F063FA00F087FE00F0C2
:10149000CBFE01F0E3F801F033FF01F045FF01F06E
:1014A0005FFF00BFFDE7000080B500AF0620FFF73B
:1014B0005BFD00BFFFF76CFD0346062BFAD14FF42E
:1014C0004040FFF783FDFFF771FDFFF7D9FB00BF39
:1014D000FFF7E6FB0346012BFAD10023C0220C21C3
:1014E0004FF48000FFF7D8FCFFF7B2FC00BFFFF716
:1014F000BFFC0346012BFAD100BFFFF77BFD03467B
:10150000002BFAD00020FFF701FC4FF4A050FFF7AA
:1015100011FC4FF40040FFF721FC0220FFF7D4FB41
:1015200000BFFFF7E5FB0346082BFAD1054810F092
:1015300003F9044810F034F90020FFF773FC00BFF2
:1015400080BD00BF00C2EB0B80B592B000AF07F1C9
:101550003C0300221A605A609A6007F128030022B7
:101560001A605A609A60DA601A6107F11803002263
:101570001A605A609A60DA603B4600221A605A602C
:101580009A60DA601A615A614FF48070FFF7D4FCF8
:101590000420FFF7A1FC0220FFF79EFC01233B6023
:1015A00003237B6000233B613B46194684480EF0D1
:1015B0006CFE02233B6003237B6000233B613B46C0
:1015C00019467F480EF061FE04233B6003237B60D5
:1015D00000233B613B46194679480EF056FE08232E
:1015E0003B6003237B6000233B613B461946744804
:1015F0000EF04BFE10233B6003237B6000233B6116
:101600003B4619466E480EF040FE20233B60032304
:101610007B6000233B613B46194669480EF035FE6E
:1016200001233B6003237B6000233B613B4619465B
:1016300064480EF02AFE02233B6003237B600023F4
:101640003B613B4619465F480EF01FFE0022002119
:101650005D48FFF769FA002200215B48FFF768F94F
:10166000002200215848FFF73BFA4FF48072002116
:101670005548FFF781F9002200215348FFF7A0F9F0
:101680004FF4806200215048FFF7BEF94FF400622A
:1016900000214D48FFF7DCF94FF4005200214A4881
:1016A000FFF7FAF900214848FFF762FA0023FB63CD
:1016B00000233B644FF480737B6407F13C031946BD
:1016C00042480EF069FC0023BB624FF4E003FB626A
:1016D00000233B6300237B634FF44073BB6307F13C
:1016E0002803194639480EF083FC00213748FFF7DC
:1016F000C0F84FF48033BB610023FB6107F118038E
:10170000194633480EF000FC0A224FF400712F48AE
:10171000FFF779F801220A212C48FFF7BDF82D4A7E
:1017200040F205212948FFF76EF801222949274890
:10173000FFF7B2F8284A40F20A212448FFF763F87D
:10174000012225492148FFF7A7F8244A40F20F213A
:101750001E48FFF758F8012220491C48FFF79CF863
:101760001F4A4FF405711948FFF74DF801221C4933
:101770001648FFF791F81B4A40F219211348FFF76A
:1017800042F8012217491148FFF786F8164A4FF42C
:1017900080710E48FFF737F8012213490B48FFF715
:1017A0007BF8124A40F205110848FFF72CF8012295
:1017B0000E490648FFF770F800BF4837BD4680BDA8
:1017C0000008024000040240006402400020014082
:1017D000002301400B0030000C0060000D00900061
:1017E0000E00C0000F00F000080080030900B003E5
:1017F00080B58EB000AF07F12C0300221A605A604A
:101800009A6007F1180300221A605A609A60DA6041
:101810001A613B4600221A605A609A60DA601A61C7
:101820005A614FF40070FFF787FB0120FFF754FB6C
:1018300004233B6003237B6000233B613B46194646
:101840003E480EF022FD08233B6003237B6000230B
:101850003B613B46194639480EF017FD4FF00072C8
:1018600002213748FFF760F9002202213448FFF7D0
:101870005FF8002202213248FFF732F94FF48072FC
:1018800002212F48FFF778F8002202212C48FFF7A9
:1018900097F84FF4806202212948FFF7B5F84FF41A
:1018A000006202212648FFF7D3F84FF400520221CC
:1018B0002348FFF7F1F802212148FFF759F90023E7
:1018C000FB6200233B634FF480737B6307F12C03BF
:1018D00019461C480EF060FB0023BB614FF48013D7
:1018E000FB6100233B6200237B624FF44073BB62C9
:1018F00007F11803194613480EF07AFB4FF4806184
:101900001048FEF7B6FF104A4FF400710D48FEF77D
:101910007AFF01220C490B48FEF7BEFF0B4A40F24A
:1019200005210848FEF76FFF012208490548FEF728
:10193000B3FF00BF3837BD4680BD00BF0000024086
:101940000064024000210140030090020200600296
:1019500080B58EB000AF07F12C0300221A605A60E8
:101960009A6007F1180300221A605A609A60DA60E0
:101970001A613B4600221A605A609A60DA601A6166
:101980005A614FF48060FFF7D7FA0120FFF7A4FAFD
:1019900002233B6003237B6000233B613B461946E7
:1019A00019480EF072FC0023FB6200233B63002306
:1019B0007B6307F12C03194614480EF0EDFA00235F
:1019C000BB610023FB6100233B6200237B62002399
:1019D000BB6207F1180319460C480EF009FB4FF4DF
:1019E00080610A48FEF745FF094A4FF40071074835
:1019F000FEF709FF002206490448FEF74DFF00BF2D
:101A00003837BD4680BD00BF0000024000220140C3
:101A10000100300280B58EB000AF07F11C03002238
:101A20001A605A609A60DA601A615A619A613B1DC5
:101A300000221A605A609A60DA601A615A614FF4A3
:101A40004030FFF7D3F90220FFF746FA40237B60CE
:101A50000223BB600323FB6001233B6100237B6106
:101A60000423BB613B1D194621480EF00EFC802368
:101A70007B600223BB600323FB6001233B610023E7
:101A80007B610423BB613B1D194619480EF0FDFB29
:101A90004FF40010FFF738FA1648FFF7E1F800227C
:101AA00000211448FFF7B4F81248FFF7C9F81148AD
:101AB000FFF79EF80F48FFF78BF80023FB610E4BF2
:101AC0003B6200237B620023BB620023FB62002396
:101AD0003B6300237B6307F11C03194605480EF0A6
:101AE000EBFC0448FFF764F800BF3837BD4680BD03
:101AF0000004024000540040FF63106080B590B0C5
:101B000000AF07F1180328220021184610F0B8FD95
:101B10003B4600221A605A609A60DA601A615A6184
:101B20004FF48050FFF708FA0120FFF7D5F9102392
:101B30003B6002237B600323BB600023FB60002328
:101B40003B6105237B613B4619464C480EF09DFBEB
:101B500020233B6002237B600323BB600023FB60E8
:101B600000233B6105237B613B46194643480EF049
:101B70008CFB40233B6002237B600323BB6000237C
:101B8000FB6000233B6105237B613B4619463B48D4
:101B90000EF07BFB80233B6002237B600323BB6052
:101BA0000023FB6000233B6105237B613B46194614
:101BB00032480EF06AFB4FF0C06203213048FEF756
:101BC000B3FF402203212E48FEF7B2FE4FF400324D
:101BD00003212B48FEF784FF002203212848FEF74B
:101BE000CBFE002203212648FEF7EAFE4FF4806276
:101BF00003212348FEF708FF002203212048FEF7B7
:101C000027FF002203211E48FEF746FF03211C4840
:101C1000FEF7AEFFFEF76EFD0346002200211846D8
:101C2000FEF7BEFD034619462320FEF78FFD232055
:101C3000FEF76EFD0023BB610023FB614FF4E06300
:101C40003B6202237B620023BB620023FB62002312
:101C50007B630023BB630723FB6307F1180319466B
:101C600008480FF001F800210648FFF7E7F905489A
:101C7000FFF707FA00BF4037BD4680BD00000240B5
:101C8000006402400030014080B590B000AF07F121
:101C9000180328220021184610F0F2FC3B460022CF
:101CA0001A605A609A60DA601A615A614FF4804093
:101CB000FFF72AF90220FFF70FF94FF400533B60BA
:101CC00002237B600323BB600023FB6000233B6196
:101CD00005237B613B46194641480EF0D6FA4FF486
:101CE00080433B6002237B600323BB600023FB60D7
:101CF00000233B6105237B613B46194638480EF0C3
:101D0000C4FA4FF400433B6002237B600323BB60B3
:101D10000023FB6000233B6105237B613B461946A2
:101D20002F480EF0B2FA4FF0905201212D48FEF7E5
:101D3000FBFE002201212B48FEF7FAFD4FF4403252
:101D400001212848FEF7CCFE4FF48072012125487E
:101D5000FEF712FE002201212248FEF731FE4FF469
:101D6000806201211F48FEF74FFE4FF400620121FF
:101D70001C48FEF76DFE4FF4005201211948FEF792
:101D80008BFE01211748FEF7F3FE0023BB614FF4E1
:101D90008273FB614FF470633B6200237B6200231C
:101DA000BB624FF40073FB6200233B6300237B6341
:101DB0000023BB630723FB6307F1180319460A4896
:101DC0000EF052FF00210848FFF738F90648FFF7E8
:101DD00048F90548FFF722F900BF4037BD4680BDEE
:101DE00000040240006002400038004080B590B01E
:101DF00000AF07F1180328220021184610F040FC1C
:101E00003B4600221A605A609A60DA601A615A6191
:101E10004FF40040FFF778F80420FFF75DF84FF427
:101E200080633B6002237B600323BB600023FB6075
:101E300000233B6106237B613B46194628480EF090
:101E400024FA4FF400633B6002237B600323BB60F2
:101E50000023FB6000233B6106237B613B46194660
:101E60001F480EF012FA4FF480533B6002237B6050
:101E70000323BB600023FB6000233B6106237B61DF
:101E80003B46194616480EF000FA0023BB614FF49A
:101E90008273FB614FF4E0633B6200237B620023AB
:101EA000BB624FF40073FB6200233B6300237B6340
:101EB0000023BB630723FB6307F118031946094896
:101EC0000EF0D2FE00210748FFF7B8F80548FFF7EB
:101ED000C8F80448FFF7A2F800BF4037BD4680BDF0
:101EE00000080240003C004080B590B000AF07F110
:101EF000180328220021184610F0C2FB3B4600229E
:101F00001A605A609A60DA601A615A614FF40050A0
:101F1000FFF712F81020FEF7DFFF4FF480533B600D
:101F200002237B600323BB600023FB6000233B6133
:101F300005237B613B46194628480EF0A6F94FF46D
:101F400000533B6002237B600323BB600023FB60E4
:101F500000233B6105237B613B4619461F480EF079
:101F600094F94FF480433B6002237B600323BB6002
:101F70000023FB6000233B6105237B613B46194640
:101F800016480EF082F90023BB614FF48273FB61A7
:101F90004FF4E0633B6200237B620123BB624FF49A
:101FA0000073FB6220233B6300237B630023BB633E
:101FB0000723FB6307F11803194609480EF054FE86
:101FC00000210748FFF73AF80548FFF75AF8044898
:101FD000FFF724F800BF4037BD4680BD0010024027
:101FE0000034014080B590B000AF07F118032822FB
:101FF0000021184610F044FB3B4600221A605A604C
:102000009A60DA601A615A614FF40010FEF794FF8B
:102010000220FEF761FF08233B6002237B6003235D
:10202000BB600023FB6000233B6108237B613B46D0
:10203000194657480EF029F910233B6002237B60B4
:102040000323BB600023FB6000233B6108237B610B
:102050003B4619464E480EF018F920233B600223F8
:102060007B600323BB600023FB6000233B610823EC
:102070007B613B46194646480EF007F94FF0007267
:1020800005214448FEF750FD402205214148FEF756
:102090004FFC4FF4403205213E48FEF721FD00225F
:1020A00005213C48FEF768FC002205213948FEF76F
:1020B00087FC4FF4806205213648FEF7A5FC00221C
:1020C00005213448FEF7C4FC002205213148FEF703
:1020D000E3FC05212F48FEF74BFD4FF0007206216F
:1020E0002C48FEF721FD002206212A48FEF720FC9D
:1020F0004FF4403206212748FEF7F2FC0022062169
:102100002448FEF739FC002206212248FEF758FC3D
:102110004FF4806206211F48FEF776FC002206215C
:102120001C48FEF795FC002206211A48FEF7B4FC75
:1021300006211848FEF71CFD0023BB614FF4827393
:10214000FB614FF4E0633B6200237B620023BB62D0
:102150004FF40073FB6200233B6300237B63002387
:10216000BB630723FB6307F1180319460A480EF007
:102170007BFD00210848FEF761FF0748FEF771FF6D
:102180000548FEF74BFF00BF4037BD4680BD00BF8E
:1021900000040240006402400054014080B586B053
:1021A00000AF3B1D00221A605A609A60DA601A6123
:1021B0000120FEF7C1FEFEF79DFA03460022002132
:1021C0001846FEF7EDFA034619461920FEF7BEFA47
:1021D0001920FEF79DFA0023BB800023BB604FF659
:1021E000FF73FB6000233B6100237B613B1D1946AD
:1021F0000C480EF02DFE0B48FEF763FF0021094846
:10220000FFF712F800210748FFF724F800210548DE
:10221000FFF733F80348FFF743F800BF1837BD4610
:1022200080BD00BF0000014080B586B000AF3B1DFF
:1022300000221A605A609A60DA601A610120FEF783
:1022400063FEFEF757FA0346002202211846FEF706
:10225000A7FA034619461C20FEF778FA1C20FEF761
:1022600057FA0023BB800023BB604FF0FF33FB60B5
:1022700000233B613B1D19464FF080400EF0E8FD06
:102280004FF08040FEF70DFF00214FF08040FEF739
:10229000CBFF00214FF08040FEF7DCFF4FF0804085
:1022A000FEF7FEFF00BF1837BD4680BD80B594B075
:1022B00000AF07F13C0300221A605A609A60DA60AE
:1022C0001A6107F11C0320220021184610F0D8F9EA
:1022D0003B1D00221A605A609A60DA601A615A61E6
:1022E0000420FEF711FE0A23BB8700233B644CF257
:1022F00050337B644FF40073BB6407F13C03194611
:1023000055480EF0A5FD5448FEF7DBFE002152486B
:10231000FEF78AFF01215048FEF736FF6023FB617C
:1023200000233B6200237B620023BB620023FB622D
:1023300007F11C031A46012147480EF023FE012134
:102340004548FEF7CFFE10214348FEF71DFF07F179
:102350001C031A46102140480EF014FE10213E487E
:10236000FEF7C0FE4FF480713B48FEF70DFF07F10A
:102370001C031A464FF4807137480EF003FE4FF4E9
:1023800080713548FEF7AEFE4FF480513248FEF7BB
:10239000FBFE07F11C031A464FF480512E480EF045
:1023A000F1FD4FF480512C48FEF79CFE00212A4895
:1023B000FEF750FF2848FEF773FF0820FEF78CFD5C
:1023C0004FF480537B600223BB600023FB6000233B
:1023D0003B6100237B610223BB613B1D19461F4803
:1023E0000DF053FF4FF400537B600223BB600023CA
:1023F000FB6000233B6100237B610223BB613B1D2B
:10240000194616480DF041FF4FF480437B600223CC
:10241000BB600023FB6000233B6100237B61022340
:10242000BB613B1D19460D480DF02FFF4FF40043D3
:102430007B600223BB600023FB6000233B61002321
:102440007B610223BB613B1D194604480DF01DFF53
:1024500000BF5037BD4680BD00080040000C024060
:1024600080B58EB000AF07F11C0300221A605A60DD
:102470009A60DA601A615A619A613B1D00221A6003
:102480005A609A60DA601A615A614FF04050FEF764
:1024900093FC4FF08040FEF737FD1020FEF71CFD47
:1024A00080237B600223BB600323FB6000233B612E
:1024B00001237B610823BB613B1D194621480DF0B8
:1024C000E4FE4FF480737B600223BB600323FB6058
:1024D00000233B6100237B610823BB613B1D194640
:1024E00018480DF0D2FEFEF705F9034600220B2135
:1024F0001846FEF755F9034619465220FEF726F90D
:102500005220FEF705F94FF4E133FB6100233B62F3
:1025100000237B620023BB620C23FB6200233B632E
:1025200000237B6307F11C03194607480FF04AF8A4
:102530000548FEF720FF0448FEF7C2FE00BF38370B
:10254000BD4680BD001002400078004080B58EB0CE
:1025500000AF07F11C0300221A605A609A60DA602B
:102560001A615A619A613B1D00221A605A609A6092
:10257000DA601A615A614FF44030FEF703FC102014
:10258000FEF7DAFC0120FEF7A7FC4FF400737B6036
:102590000223BB600323FB6000233B6100237B61BC
:1025A0000723BB613B1D19462A480DF06EFE4FF410
:1025B00080637B600223BB600323FB6000233B61DD
:1025C00000237B610723BB613B1D194621480DF0A9
:1025D0005CFE4FF480537B600223BB600323FB60EF
:1025E00000233B6100237B610723BB613B1D194630
:1025F00018480DF04AFE4FF4E133FB6100233B62C3
:1026000000237B620023BB620C23FB6200233B633D
:1026100000237B6307F11C0319460F480EF0D2FF1D
:102620000D48FEF785FE00210B48FEF791FE0021C4
:102630000948FEF769FE00210748FEF751FE0648EB
:10264000FEF799FE0448FEF73BFE00BF3837BD4653
:1026500080BD00BF000002400010014080B58EB078
:1026600000AF07F11C0300221A605A609A60DA601A
:102670001A615A619A613B1D00221A605A609A6081
:10268000DA601A615A614FF44010FEF77BFB4FF499
:102690008020FEF739FC0220FEF71EFC4FF4806319
:1026A0007B600223BB600323FB6001233B610023AB
:1026B0007B610723BB613B1D194618480DF0E5FD02
:1026C000FEF718F80346002200211846FEF768F8C6
:1026D000034619462720FEF739F82720FEF718F899
:1026E0004FF4E133FB6100233B6200237B62002354
:1026F000BB620823FB6200237B6307F11C031946BE
:1027000007480EF05FFF0648FEF74BFE0448FEF751
:10271000D7FD00BF3837BD4680BD00BF0004024072
:102720000048004080B58EB000AF07F11C030022C6
:102730001A605A609A60DA601A615A619A613B1DA8
:1027400000221A605A609A60DA601A615A614FF08A
:102750004060FEF717FB2020FEF7EEFB0420FEF79B
:10276000BBFB40237B600223BB600323FB60002391
:102770003B6100237B610823BB613B1D1946214857
:102780000DF083FD80237B600223BB600323FB608D
:1027900000233B6100237B610823BB613B1D19467D
:1027A00018480DF072FDFDF7A5FF034600220B212E
:1027B0001846FDF7F5FF034619464720FDF7C6FF0B
:1027C0004720FDF7A5FF4FF4E133FB6100233B6297
:1027D00000237B620023BB620C23FB6200233B636C
:1027E00000237B6307F11C03194607480EF0EAFE3D
:1027F0000548FEF7C0FD0448FEF762FD00BF38370C
:10280000BD4680BD000802400014014080B500AF05
:102810004FF48000FEF760FB4FF40010FEF75CFB06
:10282000FDF768FF0346002200211846FDF7B8FFB8
:10283000034619460C20FDF789FF0C20FDF768FFC1
:10284000FDF758FF034600220A211846FDF7A8FFAE
:10285000034619463820FDF779FF3820FDF758FF69
:10286000FDF748FF034600220A211846FDF798FFAE
:10287000034619463A20FDF769FF3A20FDF748FF65
:10288000FDF738FF0346002200211846FDF788FFB8
:10289000034619463B20FDF759FF3B20FDF738FF63
:1028A000FDF728FF0346002209211846FDF778FFAF
:1028B000034619464420FDF749FF4420FDF728FF51
:1028C000FDF718FF0346002201211846FDF768FFB7
:1028D000034619464520FDF739FF4520FDF718FF4F
:1028E00000BF80BD80B586B000AF3B4600221A60B5
:1028F0005A609A60DA601A615A611020FEF7ECFAA9
:102900000420FEF7E9FA8020FEF7E6FA0120FEF740
:10291000E3FA0220FEF7E0FA0820FEF7DDFA0421D0
:10292000BE48FEF768FD0821BC48FEF764FD102193
:10293000BA48FEF760FD2021B848FEF75CFD402153
:10294000B648FEF758FD4FF40051B548FEF753FD69
:102950004FF48041B248FEF74EFD4FF40041B048BD
:10296000FEF749FD4FF40061AC48FEF744FD4FF41B
:102970000061AC48FEF73FFD4FF40061AA48FEF746
:102980003AFD4FF40041A848FEF735FD0121A74864
:10299000FEF731FD0221A548FEF72DFD1021A348C9
:1029A000FEF729FD2021A148FEF725FD40219F4883
:1029B000FEF721FD04219B48FEF70FFD4FF48061D7
:1029C0009648FEF70AFD4FF400419448FEF705FDD6
:1029D0004FF480519348FEF700FD4FF48071934807
:1029E000FEF7FBFC4FF400719048FEF7F6FC4FF445
:1029F00080618E48FEF7F1FC04218C48FEF7EDFC67
:102A000080218A48FEF7E9FC4FF480718548FEF783
:102A1000E4FC4FF400718348FEF7DFFC01217F489E
:102A2000FEF7DBFC02217D48FEF7D7FC04233B6068
:102A300001237B600023BB600023FB6000233B611C
:102A40003B46194675480DF020FC08233B600123E6
:102A50007B600023BB600023FB6000233B613B469F
:102A600019466E480DF011FC10233B6001237B607A
:102A70000023BB600023FB6000233B613B461946FB
:102A800066480DF002FC20233B6001237B6000239D
:102A9000BB600023FB6000233B613B4619465F4857
:102AA0000DF0F3FB40233B6001237B600023BB6000
:102AB0000023FB6000233B613B46194657480DF05D
:102AC000E4FB4FF400533B6001237B600023BB60B9
:102AD0000023FB6000233B613B46194650480DF044
:102AE000D4FB4FF480433B6001237B600023BB6039
:102AF0000023FB6000233B613B46194648480DF02C
:102B0000C4FB4FF400433B6001237B600023BB60A8
:102B10000023FB6000233B613B46194640480DF013
:102B2000B4FB04233B6001237B600023BB600023D4
:102B3000FB6000233B613B4619463A480DF0A5FB7C
:102B40004FF480633B6001237B600023BB60002364
:102B5000FB6000233B613B46194630480DF095FB76
:102B60004FF400633B6001237B600023BB600023C4
:102B7000FB6000233B613B46194628480DF085FB6E
:102B80004FF400433B6001237B600023BB600023C4
:102B9000FB6000233B613B46194620480DF075FB66
:102BA0004FF400633B6001237B600023BB60002384
:102BB000FB6000233B613B4619461A480DF065FB5C
:102BC0004FF480533B6001237B600023BB600023F4
:102BD000FB6000233B613B46194612480DF055FB54
:102BE0004FF480733B6001237B600323BB600023B1
:102BF000FB6000233B613B4619460C480DF045FB4A
:102C00004FF400733B6001237B600323BB60002310
:102C1000FB6000233B613B46194609E0001002407F
:102C2000000802400004024000000240000C024084
:102C30008C480DF02AFB4FF480633B6001237B60DE
:102C40000323BB600023FB6000233B613B46194626
:102C500084480DF01AFB4FF400633B6000237B6057
:102C600000233B613B4619467E480DF00EFB4FF4B6
:102C700080733B6000237B6000233B613B46194629
:102C800079480DF002FB4FF400733B6000237B603A
:102C900000233B613B46194673480DF0F6FA4FF4AA
:102CA00080733B6000237B6000233B613B461946F9
:102CB0006E480DF0EAFA4FF400633B6001237B603D
:102CC0000023BB600023FB6000233B613B461946A9
:102CD00066480DF0DAFA4FF400433B6001237B6055
:102CE0000023BB600023FB6000233B613B46194689
:102CF0005E480DF0CAFA01233B6001237B6000238C
:102D0000BB600023FB6000233B613B4619465548EE
:102D10000DF0BBFA02233B6001237B600023BB6004
:102D20000023FB6000233B613B4619464D480DF0F4
:102D3000ACFA04233B6001237B600023BB600023CB
:102D4000FB6000233B613B46194646480DF09DFA67
:102D500008233B6000237B6000233B613B46194610
:102D600040480DF092FA10233B6001237B60002362
:102D7000BB600023FB6000233B613B46194639489A
:102D80000DF083FA20233B6001237B600023BB60AE
:102D90000023FB6000233B613B46194631480DF0A0
:102DA00074FA40233B6001237B600023BB60002357
:102DB000FB6000233B613B4619462A480DF065FA4B
:102DC00080233B6001237B600023BB600023FB600A
:102DD00000233B613B46194622480DF056FA4FF45A
:102DE00080733B6001237B600023BB600023FB609A
:102DF00000233B613B4619461D480DF046FA4FF44F
:102E000000733B6001237B600023BB600023FB60F9
:102E100000233B613B46194615480DF036FA012365
:102E20003B6001237B600023BB600023FB60002329
:102E30003B613B4619460F480DF027FA02233B60E1
:102E400001237B600023BB600023FB6000233B6108
:102E50003B46194607480DF018FA00BF1837BD4623
:102E600080BD00BF000C024000080240000002408C
:102E7000000402400010024080B400AF00BFFDE734
:102E800080B400AF00BFFDE780B400AF00BFFDE736
:102E900080B400AF00BFFDE780B400AF00BFFDE726
:102EA00080B400AF00BFBD465DF8047B704780B4BE
:102EB00000AF00BFBD465DF8047B704780B400AF33
:102EC00000BFBD465DF8047B704780B500AF0CF0D5
:102ED0009BFF00BF80BD80B400AF00BFBD465DF862
:102EE000047B704780B400AF01231846BD465DF8EF
:102EF000047B704780B582B000AF786039600FF016
:102F00001FFC034616221A604FF0FF33184608379D
:102F1000BD4680BD80B582B000AF78604FF0FF3114
:102F20007868FFF7E7FF00BFFDE780B586B000AF28
:102F3000F860B9607A6000237B610AE0AFF300803B
:102F40000146BB685A1CBA60CAB21A707B69013369
:102F50007B617A697B689A42F0DB7B681846183798
:102F6000BD4680BD80B586B000AFF860B9607A60BC
:102F700000237B6109E0BB685A1CBA601B781846C5
:102F8000AFF300807B6901337B617A697B689A4289
:102F9000F1DB7B6818461837BD4680BD80B483B02E
:102FA00000AF78604FF0FF3318460C37BD465DF830
:102FB000047B704780B483B000AF786039603B68B1
:102FC0004FF400525A60002318460C37BD465DF896
:102FD000047B704780B483B000AF7860012318464B
:102FE0000C37BD465DF8047B704780B485B000AFF8
:102FF000F860B9607A60002318461437BD465DF862
:10300000047B704780B586B000AF7860144A154BDA
:10301000D31A7B617B693B61134B1B68002B02D188
:10302000114B124A1A60104B1A687B6813443A69B4
:103030009A4207D20FF084FB03460C221A604FF02D
:10304000FF3309E0084B1B68FB60074B1A687B687D
:103050001344054A1360FB6818461837BD4680BD07
:103060000000082000040000D4830020B0DD01200F
:1030700080B400AF064BD3F88830054A43F47003A0
:10308000C2F8883000BFBD465DF8047B704700BFC2
:1030900000ED00E0DFF834D0FFF7EAFF0C480D49FF
:1030A0000D4A002302E0D458C4500433C4188C42A3
:1030B000F9D30A4A0A4C002301E013600432A24209
:1030C000FBD30FF043FBFEF7A5F970470000082083
:1030D00000000020B8830020687A0108B88300202F
:1030E000ACDD0120FEE780B582B000AF78603960CA
:1030F00006F088FA06F07EF97B6814330A220A216A
:1031000018460CF03DFE00BF0837BD4680BD0000EC
:1031100080B584B002AF786039607B68002B03D142
:103120000021104805F070FD78683B685A683B68DC
:103130009B68009313460C4A0C490CF093FD7B6886
:1031400014337A68162118460CF0F8FD3B681A68AB
:103150007B685A627B6800221A8700BF0837BD4629
:1031600080BD00BF286E0108D5310008E730000897
:1031700080B586B002AF02230093042308220949D8
:1031800009480CF050F9094A3B1D07CA83E80700BB
:103190003B1D19460648FFF7BBFF00BF1037BD4671
:1031A00080BD00BF18840020208400201046010844
:1031B000D883002080B582B000AF0346FB71FB7955
:1031C000194603480CF068FD00BF0837BD4680BDB6
:1031D000D883002090B585B000AF786039603B6837
:1031E0001B88162B06D0162B27DC142B08D0152B8A
:1031F0001DD022E006F010FA06F07AF901231DE056
:103200000023FB730EE0FB7BFC7B184606F00AFAFA
:10321000034619467B6804F1140223F81210FB7B65
:103220000133FB73FB7B072BEDD9012306E006F08E
:10323000C9F803461AB27B685A8702231846143726
:10324000BD4690BD80B483B000AF7860054A7B680E
:103250001C3332F9133018460C37BD465DF8047B39
:10326000704700BFD883002080B487B000AFF860FB
:10327000B96011461A460B46FB801346BB80164ABE
:10328000FB68143332F91330BB82134ABB68143322
:1032900032F91330FB82B7F91430B7F904209A429F
:1032A00010DCB7F91430B7F906209A420ADBB7F9F7
:1032B00014301A46B7F91630D31A002BB8BF5B4248
:1032C000322B01DD012300E0002318461C37BD46E8
:1032D0005DF8047B704700BFD883002080B483B0C2
:1032E00000AF7860054A7B68143332F91330184612
:1032F0000C37BD465DF8047B704700BFD8830020C3
:1033000080B500AF03F0DAFD04F05EFCFFF730FF9C
:1033100000F0AAF802F01AF900F0A6FE04F0C0F9D5
:1033200004F0FAFA00BF80BD80B500AF012000F0C4
:10333000BDF8042003F0F4FD022004F06BFC032030
:10334000FFF738FF052002F023F9062004F0E4F926
:10335000072000F0AFFE0A2004F016FB00BF80BD7E
:1033600080B500AF0CF030FC00BF80BD80B582B0EE
:1033700000AF7860396005F067FF06F083FF06F064
:1033800029FC7B68012283F861207B68002283F896
:10339000662000BF0837BD4680BD000080B584B000
:1033A00000AF786039607B685B69FB607B685B6954
:1033B0003968786898470346FB72FB7A002B08D17E
:1033C000FB680649786898477B685B6904497868B8
:1033D000984700BF1037BD4680BD00BF586E01083A
:1033E000446E010880B584B002AF786039607B68B4
:1033F000002B03D10021194805F006FC78683B68D2
:103400005A683B689B6800931346154A15490CF0AF
:1034100029FC3B681A687B685A617B6818337A68B4
:10342000172118460CF08AFC7B6828337A68202123
:1034300018460CF083FC7B68283318460CF0C0FC5F
:103440007B68183318460CF0BBFC3B681A7B7B6822
:1034500083F85C2000BF0837BD4680BD346E01088C
:103460009D3300086D33000890B587B002AF12237A
:10347000009302232422094909480BF0D4FF094B89
:103480003C460FCB84E80F003B4619460648FFF741
:10349000A9FF00BF1437BD4690BD00BFD82401204E
:1034A000FC2401201C4601083C84002080B582B029
:1034B00000AF0346FB71FB79194603480CF0ECFBA7
:1034C00000BF0837BD4680BD3C84002080B582B077
:1034D00000AF786039603B681B88192B12D0192B1C
:1034E00015DC012B02D0182B07D010E07B681833B5
:1034F00018460CF065FC01230AE07B68064A5A6115
:10350000002305E07B68054A5A61002300E002239E
:1035100018460837BD4680BD21350008C137000870
:1035200090B591B002AF786039603B681B88013B71
:103530001F2B00F2278101A252F823F0BD350008AD
:10354000853700085336000885370008853700089E
:10355000853700088537000885370008853700085B
:10356000853700088537000885370008853700084B
:10357000853700088537000885370008853700083B
:10358000853700088537000885370008853700082B
:103590008537000839370008853700088537000867
:1035A0007F360008B3360008E73600088537000884
:1035B00085370008853700084B370008744B3B629D
:1035C0008D230093734B3A6A734974480BF0A1FE44
:1035D0007B681833002244F6206118460CF0D0FBBB
:1035E0007B6893F83C301946786800F0AAFA78684E
:1035F00000F0C0FA7B68DB8FFB607B68B3F840307B
:103600003B617B68B3F842307B617B689B6BBB613D
:103610007B6893F83C30FB617B6893F83D3018463B
:1036200005F07CFE07F10C03184606F099FA7B685A
:1036300028330122012118460CF0A2FB584B00222E
:103640001A8006F07BFC7B68002283F85C20012353
:1036500099E04F4B7B62A92300934E4B7A6A514904
:103660004E480BF056FE7B68183318460CF0A8FB4A
:103670007B68283318460CF0A3FB012383E0444BFE
:10368000BB62B0230093434BBA6A474943480BF0EF
:1036900040FE7B6893F85C30002B04D17B680122EC
:1036A00083F85C2003E07B68032283F85C2001231D
:1036B00069E0374BFB62BB230093364BFA6A3B4908
:1036C00036480BF026FE7B6893F85C30012B04D162
:1036D0007B68022283F85C2003E07B68032283F886
:1036E0005C2001234FE02A4B7B63C5230093294BC9
:1036F0007A6B2F4929480BF00CFE7B6893F85C30FD
:10370000022B04D17B68052283F85C2003E07B68F0
:10371000032283F85C201E4B3B63CB2300931D4B9D
:103720003A6B24491D480BF0F4FD00F0E1FD7B6885
:10373000214A5A61002326E07B68042283F85C203A
:103740007B681D4A5A6100231DE0154B1B88B3F5A9
:10375000804F10D2124B1B885A1C91B2104A118014
:103760001C4605F03BFE03461A46144B23F8142072
:1037700005F0C8FE04E07B68283318460CF020FBF7
:10378000012300E0022318463C37BD4690BD00BF30
:103790002C460108344601085C460108682C0120CB
:1037A000C02401207C460108B8460108E44601080F
:1037B0000C47010838470108CD340008C0A4002098
:1037C00080B582B000AF786039603B681B88013BF0
:1037D0001E2B00F2AA8001A252F823F059380008EB
:1037E0002B3900082B3900082B3900082B39000829
:1037F0002B3900082B3900082B3900082B39000819
:103800002B3900082B3900082B3900082B39000808
:103810002B3900082B3900082B3900082B390008F8
:103820002B3900082B3900082B3900082B390008E8
:103830002B3900082B3900082B3900082B390008D8
:103840002B3900082B3900082B390008AD38000847
:10385000C73800087F3800087B68183318460CF01A
:10386000AFFA7B685B6D334A93607B681B6D314AAE
:103870005360314931480CF039FA012356E02D4BA1
:103880009B68B3F5805F28BF4FF480539AB22C4BEE
:103890001A80284B5B685B00294A12885200114647
:1038A000284A184606F044FD01233FE0264B1868DD
:1038B000234B1B881A467B6893F85930214903F043
:1038C0009FFE012332E01B4B9B681D4A12889B1A06
:1038D000184A9360174B5B68194A12881344154ABB
:1038E0005360144B9B68002B16D0124B9B68B3F5AA
:1038F000805F28BF4FF480539AB2114B1A800D4B52
:103900005B685B000E4A1288520011460D4A184649
:1039100006F00EFD012309E00C4908480CF0E6F919
:103920007B680B4A5A61002300E0022318460837DF
:10393000BD4680BDAC840020946E0108C82B0120D8
:10394000BCA40020BC84002004000020986E010864
:10395000CD34000880B584B000AFF860B9607A60FB
:10396000FB70FB687A68DA64FB68BA681A65FB6802
:103970007A685A65FB68FA7883F85920074B1B6808
:103980004FF6FF72A3F84220FB68054918460CF079
:10399000ADF9002318461037BD4680BD0400002055
:1039A000806E010880B582B000AF78607B689A6E47
:1039B0007B68DA647B6800221A657B689A6E7B6894
:1039C0005A657B68012283F85920084B1B684FF623
:1039D000FF72A3F842207B68054918460CF086F96F
:1039E000002318460837BD4680BD00BF04000020F4
:1039F000806E010880B584B000AFF860B9607A606D
:103A0000BB68012B02D87B68642B01D9062318E020
:103A1000FB6893F86130002B06D0002005F0D0FB46
:103A2000FB68002283F861207968B86805F0B6FC6D
:103A30007B68D9B2FA68BB6813445D330A461A70D2
:103A4000002318461037BD4680BD80B582B000AF58
:103A5000786039603B68242B01D9062314E07B6829
:103A600093F86130012B06D0012005F0A9FB7B689B
:103A7000012283F86120386805F01CFC3B68DAB24B
:103A80007B6883F85F20002318460837BD4680BD59
:103A900080B582B000AF78607B6893F86130012B0D
:103AA00006D0012005F08CFB7B68012283F86120A1
:103AB00005F010FC7B68FF2283F85F200023184686
:103AC0000837BD4680BD80B582B000AF78603960F0
:103AD0003B68082B01D9062314E07B6893F861301A
:103AE000012B06D0012005F06BFB7B68012283F8D7
:103AF0006120386805F0F8FB3B68DAB27B6883F830
:103B00006020002318460837BD4680BD80B582B0CE
:103B100000AF78607B6893F86130012B06D00120FC
:103B200005F04EFB7B68012283F8612005F0ECFB79
:103B30007B68FF2283F86020002318460837BD46C3
:103B400080BD80B582B000AF786039603B68242BBF
:103B500001D906230AE006F0CDF8386806F0F2F83D
:103B60003B68DAB27B6883F8622000231846083786
:103B7000BD4680BD80B582B000AF786006F0CEF85B
:103B8000002318460837BD4680BD000080B483B0CE
:103B900000AF786039603B681B68002B04D03B683D
:103BA0001B68164A934201D9062321E03B68DB6873
:103BB000B3F5006F01D906231AE03B681A687B68E9
:103BC0009A633B68DA887B68DA873B681A897B6886
:103BD000A3F840203B685A897B68A3F842203B68E1
:103BE000DA687B685A643B681A697B689A640023C8
:103BF00018460C37BD465DF8047B704700350C0055
:103C000080B483B000AF786039603B685B79642B27
:103C100001D9062305E03B685A797B6883F83D208B
:103C2000002318460C37BD465DF8047B704780B40E
:103C300083B000AF786039603B681B79002B03D0FC
:103C40003B681B79242B01D9062305E03B681A79D0
:103C50007B6883F83C20002318460C37BD465DF88E
:103C6000047B7047B0B483B000AF786039603B68C4
:103C70001B68002B04D03B681B68184A934201D98B
:103C8000062326E03B681B79002B03D03B681B7999
:103C9000242B01D906231CE03B685B79642B01D9F6
:103CA000062316E03B68DB68B3F5006F01D90623F5
:103CB0000FE03B681B69002B01D1062309E07B68FC
:103CC0003A6803F1380415460FCD0FC42B68236002
:103CD000002318460C37BD46B0BC704700350C00B9
:103CE000B0B483B000AF786039603A687B6815463D
:103CF00003F138040FCC0FC523682B6000BF0C37CD
:103D0000BD46B0BC7047000080B584B000AF78609D
:103D10007B683833FB60FB681B68002B04D0FB68B2
:103D20001B68134A934201D906231CE0FB681B79E8
:103D3000002B03D0FB681B79242B01D9062312E04A
:103D4000FB685B79642B01D906230CE0FB68DB6818
:103D5000B3F5006F01D9062305E07B6805491846D5
:103D60000BF0C4FF002318461037BD4680BD00BFCE
:103D700000350C006C6E010880B582B000AF786031
:103D80000B46FB707B68FA78114618460BF0DAF8A0
:103D90007B68012118460AF07DFD00F00BFA02460F
:103DA0007B68C3F804227B68002283F80C227B68BE
:103DB000012283F80D22FB78032B04D8FB780449F9
:103DC0007A6841F8232000BF0837BD4680BD00BF98
:103DD0005C27012080B582B000AF78607A687B688C
:103DE00093F80032194610460BF0ACF87B680121BD
:103DF00018460AF04FFD00F0DDF902467B68C3F873
:103E000004227B68002283F80C2200BF0837BD46DD
:103E100080BD80B483B000AF786039607B683A6859
:103E2000C3F8082200BF0C37BD465DF8047B70471D
:103E300080B586B000AFF860B9607A60FB687A68D8
:103E4000B96818460AF0DEFF00F0B4F97861FB6843
:103E500093F8E230002B35D0FB6893F8E4301A4633
:103E600013465B0013449B00FA6813443B613B69B3
:103E70001B687A69D31A40F6B83293421ED9FB68A0
:103E800093F80C3283F00103DBB2002B1AD0FB68ED
:103E9000D3F80832002B04D0FB68D3F80832F86856
:103EA0009847FB68012283F80C22FB6893F80D32D7
:103EB000002B07D0F868FFF78DFF03E0FB680022B6
:103EC00083F80C22FB687A69C3F8042200BF183714
:103ED000BD4680BD80B483B000AF786000BF0C37B2
:103EE000BD465DF8047B704780B500AF4FF480722B
:103EF000084909480BF0BCFB4FF480720749084899
:103F00000BF0B6FB064B044A064907480BF000F9D4
:103F100000BF80BD342901200C290120342A012052
:103F20002029012000780040342B012080B582B088
:103F300000AF786039607B68002B03D101210F4806
:103F400004F062FE7B680E4A9A617B689B690021DF
:103F50001846FFF711FF0B490948FFF75AFF7B6826
:103F600024330A220A2118460BF00AFF06480BF0F8
:103F7000EBF800BF0837BD4680BD00BF9C6E01084E
:103F80004C250120D53E0008342B012080B584B09B
:103F900000AF786039607B68002B03D104211248A0
:103FA00004F032FE3B68002B03D105210E4804F0DB
:103FB0002BFE7B685B69FB607B685B6939687868AE
:103FC00098470346FB72FB7A002B08D1FB68074930
:103FD000786898477B685B6905497868984700BFAF
:103FE0001037BD4680BD00BF9C6E0108B46E01084D
:103FF000A86E010880B584B002AF786039607B6834
:10400000002B03D10221154804F0FEFD78683B68BF
:10401000DA683B681B6900931346114A11490BF09B
:1040200021FE7B6824337A680D2118460BF086FE4A
:104030003B681A687B685A613B685A687B689A617A
:104040003B689A687B68DA617B68243318460BF01A
:10405000B7FE00BF0837BD4680BD00BF9C6E01089B
:104060008D3F00082D3F0008B0B588B002AFFFF7C4
:104070003BFF0C2300930A2378220A490A480BF0DD
:10408000D2F90A4B3C1D1D460FCD0FC42B6823608F
:104090003B1D19460648FFF7ADFF00BF1837BD4668
:1040A000B0BD00BF78270120F02701205447010848
:1040B0001825012080B582B000AF0346FB71FB7963
:1040C000194603480BF0E8FD00BF0837BD4680BD28
:1040D0001825012080B582B000AF786039607B6818
:1040E000002B03D103211B4804F08EFD3B681B8885
:1040F000012B02D00D2B09D027E07B6824330A2244
:104100000A2118460BF03CFE01231FE0124B4FF42E
:1041100080721A607B68DB690F4A104918460BF001
:1041200033F80346002B07D07B689B690A4A126864
:104130000A491846FFF77CFE7B689B690022002134
:104140001846FFF775FE012300E0022318460837E2
:10415000BD4680BD9C6E0108080000200C2801208F
:1041600080B582B000AF0346FB71064BDB695B682C
:1041700018460BF085FB03469BB218460837BD4630
:1041800080BD00BF1825012080B582B000AF034676
:104190000A46FB711346BB71054BDB69BA791146C0
:1041A00018460BF070F800BF0837BD4680BD00BF51
:1041B0001825012080B500AF0BF074FE03461846A9
:1041C00080BD000080B586B000AF396011461A4648
:1041D0000346FB710B46BB7113467B717B79032B46
:1041E00027D87B79154A52F823303B6101F034F926
:1041F000F86001F03BF9B86000237B6114E07B6953
:10420000DB00FA6813441B78FA799A4209D17B697A
:10421000DB00FA6813445B68BA79396838699847F3
:1042200008E07B6901337B617A69BB689A42E6DB0F
:1042300000E000BF1837BD4680BD00BF5C270120ED
:1042400080B584B000AFF8607A601A460B46FB7206
:104250001346BB72FB68BA7A114618460AF076FB21
:104260000346002B05D0F868BB7AF97A7A680AF021
:1042700025FB00BF1037BD4680BD000080B500AFF4
:10428000054BDB6918460BF079F8034BDB691846E0
:104290000BF096F800BF80BD1825012080B483B0D4
:1042A00000AF786039607B683A689A6100BF0C376C
:1042B000BD465DF8047B704780B483B000AF786082
:1042C00039603B681A047B689A6100BF0C37BD46B1
:1042D0005DF8047B7047000080B500AF4FF40061CB
:1042E0000248FFF7DBFF00BF80BD00BF00040240B3
:1042F00080B500AF4FF400610248FFF7DDFF00BF5B
:1043000080BD00BF0004024080B588B002AFF860F5
:10431000B9601346FB71002300220121F868FFF702
:104320008FFF0A4B7B61FB79019349230093084B74
:104330007A69084908480AF0ECFF084B1B681846E0
:1043400003F078FB00BF1837BD4680BD6847010801
:10435000704701089C470108682C012014000020C8
:1043600080B58AB004AFF860B9601346FB71BB68D2
:104370001B781A06BB6801331B781B041A43BB6801
:1043800002331B781B021343BA68033212781343BB
:104390007B61FB79BA680321F868FFF751FF094B8D
:1043A0003B61FB797A690292019352230093064B99
:1043B0003A69064906480AF0ACFF00BF1837BD4607
:1043C00080BD00BF6847010870470108B847010871
:1043D000682C012080B58CB006AFF860B960134638
:1043E000FB71BB681B78FB75BB6801331B78BB7521
:1043F000BB6802331B787B75BB6803331B783B7546
:10440000FB79BA680521F868FFF71AFF0A4B3B6190
:10441000FB7DBA7D797D387D0490039102920193F2
:1044200062230093054B3A69054906480AF071FF7B
:1044300000BF1837BD4680BD6847010870470108B6
:10444000F0470108682C012080B588B002AFF86001
:10445000B9601346FB71FF233B74BB681A780D4BA0
:104460001A7007F1100201230921F868FFF7E8FE2E
:10447000094B7B61074B1B7801936A230093074B21
:104480007A69074907480AF044FF00BF1837BD465C
:1044900080BD00BF18000020684701087047010870
:1044A00018480108682C012090B5A3B008AFF86047
:1044B000B9601346FB714FF63F73BB820023A7F828
:1044C0006630BB681B781BB21B021AB2BB68013393
:1044D0001B781BB21343A7F86430BB6802331B7808
:1044E0001BB21B021AB2BB6803331B781BB2134307
:1044F000A7F86230BB6804331B781BB21B021AB2E8
:10450000BB6805331B781BB21343A7F86030BB6848
:1045100006331B7887F85F30BB6807331B7887F852
:104520005E30BB6808331B7887F85D30BB680933A1
:104530001B7887F85C30BB680A331B7887F85B30E0
:10454000BB680B331B781BB21B021AB2BB680C335F
:104550001B781BB213431BB2A7F85830BB680D334E
:104560001B7887F8573097F85F30072B0ED9B7F8CC
:1045700066300133A7F86630844B3B657F23009398
:10458000834B3A6D834984480AF0C3FE97F85E3046
:10459000072B0ED9B7F866300133A7F866307B4B8E
:1045A000FB64842300937A4BFA6C7C497A480AF0C6
:1045B000B0FE97F85C300F2B0ED9B7F86630013398
:1045C000A7F86630714BBB6489230093704BBA6CBB
:1045D000734971480AF09DFE97F85B300F2B0ED996
:1045E000B7F866300133A7F86630684B7B648E23DA
:1045F0000093674B7A6C6B4967480AF08AFEB7F8FC
:104600006630002B40F0A880674B1868B7F864103C
:10461000B7F86220B7F8604097F857300693B7F8BC
:104620005830059397F85B30049397F85C30039308
:1046300097F85D30029397F85E30019397F85F30FA
:104640000093234604F085FA504B3B64B7F964307D
:104650000193942300934E4B3A6C54494E480AF010
:1046600058FE4A4BFB63B7F96230019395230093E0
:10467000474BFA6B4E4948480AF04BFE434BBB632D
:10468000B7F96030019396230093414BBA6B4949C7
:1046900041480AF03EFE3D4B7B6397F85F30019343
:1046A000972300933A4B7A6B43493B480AF031FE1B
:1046B000364B3B6397F85E30019398230093344B5D
:1046C0003A6B3E4934480AF024FE304BFB6297F8BF
:1046D0005D30002B01D13A4B00E03A4B0193992316
:1046E00000932B4BFA6A38492B480AF012FE274BED
:1046F000BB6297F85C3001939A230093244BBA6A0B
:10470000324925480AF005FE204B7B6297F85B3062
:1047100001939B2300931E4B7A6A2D491E480AF091
:10472000F8FD1A4B3B62B7F8583001939C23009375
:10473000174B3A6A274918480AF0EBFD134BFB6107
:1047400097F8573001939D230093114BFA69224942
:1047500011480AF0DEFD03E03E233B753E237B75E6
:1047600007F1140202230B21F868FFF769FD074BDC
:10477000BB61A5230093064BBA69184906480AF0A5
:10478000C8FD00BF6C37BD4690BD00BF684701083B
:10479000704701083C480108682C0120684801085E
:1047A00094480108C04801080C000020EC480108AA
:1047B0000849010824490108404901085C490108E9
:1047C000784901087C49010880490108A04901088D
:1047D000C4490108E8490108044A0108204A0108BF
:1047E00080B588B002AFF860B9601346FB71FF2353
:1047F000FB740D4B7B61AB2300930C4B7A690C4926
:104800000C480AF086FD0C4B1B68184603F070FD3F
:1048100007F1130201230D21F868FFF711FD00BF16
:104820001837BD4680BD00BF6847010870470108C2
:10483000444A0108682C01200C00002080B588B093
:1048400002AFF860B9601346FB71FF23FB740D4B98
:104850007B61B32300930C4B7A690C490C480AF036
:1048600058FD0C4B1B68184603F05EFD07F1130260
:1048700001230F21F868FFF7E3FC00BF1837BD469E
:1048800080BD00BF6847010870470108704A0108F1
:10489000682C01200C00002080B592B002AFF860B7
:1048A000B9601346FB714FF63F73BB82002387F854
:1048B0003F30BB681B781BB21B021AB2BB680133C6
:1048C0001B781BB213431BB2BB87BB6802331B7838
:1048D00087F83B30BB6803331B781BB21B021AB24C
:1048E000BB6804331B781BB213431BB23B87BB8FDF
:1048F0004EF6602293420ED997F83F30013387F885
:104900003F30594B7B63C3230093584B7A6B584914
:1049100058480AF0FEFC97F83B30042B0FD997F863
:104920003F30013387F83F304F4B3B62C923009340
:104930004E4B3A6A50494F480AF0EBFC49E097F871
:104940003B30042B21D107F1140202231121F86816
:10495000FFF776FC494B1B680421184603F0CEFD97
:10496000414BBB62CF230093404BBA6A4449414854
:104970000AF0CFFC3C4B7B62D02300933B4B7A6A1E
:1049800040493C480AF0C5FC6AE03C4B1B681846AD
:1049900003F0F7FE034687F8333097F8332097F893
:1049A0003B3042FA03F303F00103002B11D097F8D8
:1049B0003F30013387F83F302B4BFB6297F83B3099
:1049C0000193D9230093294BFA6A2F4929480AF009
:1049D000A0FC3B8FB3F5FA7F04D33B8F40F6B8328F
:1049E000934210D997F83F30013387F83F301E4B80
:1049F000FB613B8F0193E02300931C4BFA69234931
:104A00001C480AF086FC97F83F30002B13D1BB8F6F
:104A1000184600F03FFE194B1B6897F83B201146E3
:104A2000184603F06BFD154B1B683A8F114618466C
:104A300003F07DFD03E03E233B753E237B7507F1CC
:104A4000140202231121F868FFF7FAFB064BBB6141
:104A5000F0230093054BBA690A4906480AF059FC4D
:104A60004037BD4680BD00BF684701087047010858
:104A70009C4A0108682C0120D44A01080C0000203F
:104A8000004B0108304B01085C4B0108844B0108C6
:104A900080B588B002AFF860B9601346FB71FF23A0
:104AA000FB7407F1130201231321F868FFF7C8FB19
:104AB000074B7B61F7230093064B7A690649074849
:104AC0000AF027FC00F0C2FD00BF1837BD4680BDCC
:104AD0006847010870470108B84B0108682C01209D
:104AE00080B588B002AFF860B9601346FB71FF2350
:104AF000FB7407F1130201231521F868FFF7A0FBEF
:104B0000074B7B61FF230093064B7A6906490748F0
:104B10000AF0FFFB00F0ACFD00BF1837BD4680BDBA
:104B20006847010870470108DC4B0108682C012028
:104B300080B59AB002AFF860B9601346FB71864B3E
:104B4000BB6540F205130093844BBA6D84498548D8
:104B50000AF0DFFB4FF63F733B850023A7F85E307A
:104B6000BB681B781A06BB6801331B781B041A4309
:104B7000BB6802331B781B021343BA6803321278F6
:104B800013437B65BB6804331B781B029BB2BA6876
:104B9000053212781343A7F85230BB6806331B78EE
:104BA0001B029BB2BA68073212781343A7F8503041
:104BB000BB6808331B781B029BB2BA6809321278B3
:104BC0001343A7F84E307B6DB3F57A7F03D37B6D2B
:104BD000654A93420FD9B7F85E300133A7F85E30CB
:104BE0005D4BBB6440F2111300935C4BBA6C5F49A0
:104BF0005C480AF08EFBB7F85230002B0FD1B7F8A3
:104C00005E300133A7F85E30534B7B644FF48C73F6
:104C10000093524B7A6C564952480AF07AFBB7F827
:104C20005030002B0FD1B7F85E300133A7F85E305B
:104C3000494B3B6440F21F130093484B3A6C4D497B
:104C400048480AF066FBB7F84E30002B0FD1B7F892
:104C50005E300133A7F85E303F4BFB634FF4937334
:104C600000933E4BFA6B44493E480AF052FBB7F8BA
:104C70005220B7F850301A44B7F84E3013441A4651
:104C80007B6D02FB03F33D4AA2FB03231B0CBB63BA
:104C9000BB6BB3F5006F0FD9B7F85E300133A7F8DF
:104CA0005E302D4B7B634FF4977300932B4B7A6BE5
:104CB00033492C480AF02DFBB7F85E30002B3AD16F
:104CC0007B6D7B61B7F852307B83B7F85030BB8384
:104CD000B7F84E30FB83BB6B3B622A4A7B6DB2FB5D
:104CE000F3F37B62284B1B6807F114021146184648
:104CF000FEF74CFF0346002B0BD1174BFB624FF422
:104D00009E730093154BFA6A204916480AF001FB7E
:104D100017E03E2387F828303E2387F829300E4BD2
:104D20003B634FF4A17300930C4B3A6B18490D4849
:104D30000AF0EFFA05E03E2387F828303E2387F893
:104D4000293007F1280202231721F868FFF778FAC3
:104D500000BF6037BD4680BD684701087047010845
:104D6000004C0108682C012000350C00204C010883
:104D7000544C0108844C0108B44C0108D34D621016
:104D8000E44C010840420F0010000020184D0108BB
:104D9000384D010880B590B002AFF860B960134695
:104DA000FB714FF63F73BB84BB681B7887F83730C5
:104DB00097F83730642B11D93E2387F824303E23EF
:104DC00087F82530244BBB624FF4AB730093234B21
:104DD000BA6A234923480AF09CFA39E0224B1B683F
:104DE00007F1100211461846FEF77AFF97F83730A0
:104DF0007B751D4B1B6807F1100211461846FEF724
:104E0000FFFE0346002B0BD1134BFB6240F26113F4
:104E10000093124BFA6A154912480AF07AFA10E028
:104E20003E2387F824303E2387F825300A4B3B6326
:104E300040F267130093094B3A6B0D4909480AF099
:104E400068FA07F1240202231921F868FFF7F8F93C
:104E50003837BD4680BD00BF68470108704701086C
:104E6000584D0108682C012010000020844D0108D5
:104E7000B04D010880B590B002AFF860B96013463C
:104E8000FB714FF63F73BB84BB681B7887F83730E4
:104E900097F83730242B03D897F83730002B11D1EF
:104EA0003E2387F824303E2387F82530244BBB620D
:104EB00040F275130093234BBA6A234923480AF042
:104EC00028FA32E0224B1B6807F1100211461846FF
:104ED000FEF706FF97F837303B751D4B1B6807F14F
:104EE000100211461846FEF7A2FE0346002B0BD116
:104EF000134BFB6240F27F130093124BFA6A154981
:104F000012480AF006FA10E03E2387F824303E23C8
:104F100087F825300A4B3B6340F285130093094B19
:104F20003A6B0D4909480AF0F4F907F1240202230B
:104F30001B21F868FFF784F900BF3837BD4680BDF4
:104F40006847010870470108DC4D0108682C012002
:104F500010000020084E01082C4E010880B58AB0D0
:104F600002AFF860B9601346FB713F233B75174BE6
:104F70001B681846FEF7C8FE0346002B0DD03E23E3
:104F80003B75134BBB6140F291130093114BBA690F
:104F9000114912480AF0BDF90CE0FFF79DF90C4BDE
:104FA000FB614FF4CB7300930A4BFA690C490B4831
:104FB0000AF0AFF907F1140201231D21F868FFF789
:104FC0003FF900BF2037BD4680BD00BF1000002064
:104FD0006847010870470108504E0108682C0120FD
:104FE000784E010880B58EB002AFF860B960134604
:104FF000FB714FF63F73BB84214B1B6807F1100216
:1050000011461846FEF76CFEFB69002B0ED10023FB
:1050100087F824301B4BBB624FF4D27300931A4BBA
:10502000BA6A1A491A480AF074F91DE0FB691B09AB
:10503000DBB287F82430FB6903F00F03002B05D0A7
:1050400097F824300133DBB287F824300D4BFB6234
:1050500097F82430019340F2AB1300930A4BFA6A9D
:105060000C490B480AF055F907F1240202231F21CD
:10507000F868FFF7E5F800BF3037BD4680BD00BFD8
:10508000100000206847010870470108984E010889
:10509000682C0120B84E010880B590B002AFF860CE
:1050A000B9601346FB714FF63F73BB84BB681B7836
:1050B00087F837302B4B1B6807F110021146184652
:1050C000FEF70EFEFB691B0987F8363097F836307D
:1050D000002B11D13E2387F824303E2387F825305A
:1050E000214BBB6240F2BB130093204BBA6A2049AC
:1050F00020480AF00EF929E097F8372097F8363063
:105100009A4211D33E2387F824303E2387F8253076
:10511000154BFB6240F2C1130093144BFA6A164917
:1051200014480AF0F6F811E005F038FB05F05CFBD6
:105130000D4B3B6397F83730019340F2C713009350
:105140000A4B3A6B0D490B480AF0E3F807F12402C9
:1051500002232121F868FFF773F800BF3837BD46F6
:1051600080BD00BF1000002068470108704701089B
:10517000DC4E0108682C0120F84E0108204F010880
:1051800080B58CB004AFF860B9601346FB7105F0D0
:10519000FFFB0346FB83FB8B1B0A9BB2DBB23B7519
:1051A000FB8BDBB27B7507F1140202232321F86825
:1051B000FFF746F80A4BBB61BB681B781A46FB8BAE
:1051C0000293019240F2D9130093064BBA69064943
:1051D00006480AF09EF800BF2037BD4680BD00BFDC
:1051E00068470108704701083C4F0108682C0120FE
:1051F00080B485B000AFF860B9601346FB7100BFA2
:105200001437BD465DF8047B704780B485B000AFAD
:10521000F860B9601346FB7100BF1437BD465DF8F6
:10522000047B704780B58AB002AFF860B96013465E
:10523000FB714FF63F733B82BB681B78FB83B7F96A
:105240001E30642B0FDD3E233B743E237B74164BD4
:105250007B614FF4F7730093144B7A691449154836
:105260000AF057F815E0144B1B68B7F91E2001210E
:105270001846FEF7BFFB0C4BBB61B7F91E3001931C
:1052800040F2F3130093094BBA690C4909480AF03C
:1052900040F807F1100202232921F868FEF7D0FF39
:1052A00000BF2037BD4680BD684701087047010830
:1052B000684F0108682C012010000020944F01085D
:1052C00080B58AB002AFF860B9601346FB714FF643
:1052D0003F733B82BB681B78FB77FB7F082B02D8B0
:1052E000FB7F002B0FD13E233B743E237B74144B7A
:1052F0007B6140F201230093124B7A6912491348F3
:105300000AF007F811E0124B1B68FA7F11461846A5
:10531000FEF7D9FB0A4BBB6140F206230093094B11
:10532000BA690C49094809F0F4FF07F11002022399
:105330002B21F868FEF784FF00BF2037BD4680BDF3
:105340006847010870470108C04F0108682C012018
:1053500010000020EC4F010880B588B002AFF86063
:10536000B9601346FB71FF233B7407F11002012360
:105370002D21F868FEF764FF094B1B681846FEF7FD
:10538000C5FB084B7B614FF404730093064B7A69AD
:105390000649074809F0BDFF00BF1837BD4680BD6C
:1053A00010000020684701087047010810500108EC
:1053B000682C012080B58CB002AFF860B96013464C
:1053C000FB710020FDF73EFF0346FB840120FDF743
:1053D00039FF0346BB843F233B75FB8C1B0A9BB202
:1053E000DBB27B75FB8CDBB2BB75BB8C1B0A9BB243
:1053F000DBB2FB75BB8CDBB23B7607F114020523F5
:105400003321F868FEF71CFF0E4B3B62FB8C0193C7
:105410004FF4177300930C4B3A6A0C490C4809F08F
:1054200078FF084BFB61BB8C019340F25D23009336
:10543000054BFA690749064809F06BFF00BF28379A
:10544000BD4680BD68470108704701083450010817
:10545000682C01205C50010880B400AF024B184654
:10546000BD465DF8047B7047C06E010880B400AF94
:1054700017231846BD465DF8047B704780B582B09F
:1054800000AF786039607B68183318460AF098FCE2
:1054900000BF0837BD4680BD80B584B000AF7860DE
:1054A00039607B685B69FB607B685B693968786839
:1054B00098470346FB72FB7A002B08D1FB6806492C
:1054C000786898477B685B6904497868984700BFAB
:1054D0001037BD4680BD00BF9C6F0108886F010872
:1054E00080B584B002AF786039607B68002B03D14F
:1054F0000021134803F088FB78683B685A683B68D2
:105500009B68009313460F4A0F490AF0ABFB7B6878
:1055100018337A68132118460AF010FC3B681A68A1
:105520007B685A617B68002283F828207B681833E7
:1055300018460AF045FC00BF0837BD4680BD00BFD5
:10554000786F0108995400087D54000880B586B032
:1055500002AF12230093022324220949094809F0CB
:1055600062FF094A3B1D07CA83E807003B1D194635
:105570000648FFF7B5FF00BF1037BD4680BD00BF2E
:10558000842B0120A82B012084500108442B0120EA
:1055900080B582B000AF0346FB71FB791946034822
:1055A0000AF07AFB00BF0837BD4680BD442B0120BE
:1055B00080B586B002AF786039603B681B88012BEC
:1055C00002D0132B02D02FE001232EE07B6893F84A
:1055D0002830002B13D1174BBB605F230093164B71
:1055E000BA681649164809F094FE164B1B6818460F
:1055F00002F0B9FF7B68012283F8282012E00D4BEE
:10560000FB60652300930C4BFA680F490C4809F0C6
:1056100080FE0C4B1B68184603F02FF87B680022B5
:1056200083F82820012300E0022318461037BD46E6
:1056300080BD00BF9050010898500108C850010873
:10564000682C01201C000020E050010880B500AF4C
:10565000054B1B88044A1288194604480AF090FB3F
:105660000023184680BD00BF200000205C2B0120D5
:1056700080B500AF05480AF0A3FB054B1B68184630
:1056800002F0FBFF0023184680BD00BF5C2B012009
:105690001C00002080B483B000AF0346FB80044AA6
:1056A000FB88138000BF0C37BD465DF8047B704754
:1056B0002000002080B400AFBFF34F8F00BF064B27
:1056C000DB6803F4E0620449044B1343CB60BFF38F
:1056D0004F8F00BF00BFFDE700ED00E00400FA05BA
:1056E00080B584B000AFF860B9607A60044B1B6885
:1056F000184602F09FF900BF1037BD4680BD00BFBD
:105700002C00002080B59EB000AFF860B9607A60D0
:1057100007F114036422002118460CF0B1FF07F1D1
:1057200014031A466421002004F0B6FD0549F86808
:1057300008F0E0FD0449F86808F0DCFD00BF7837A8
:10574000BD4680BDF85001080851010880B59EB0E3
:1057500000AFF860B9607A6007F110031A4664215F
:10576000002004F0ABFD1449F86808F0C3FD0023E5
:105770007B6716E007F110027B6F13441B781A4613
:105780000E49F86808F0B6FD7B6F013303F00F0394
:10579000002B03D10A49F86808F0ACFD7B6F013398
:1057A0007B677B6F632BE5DD0549F86808F0A2FD98
:1057B00000BF7837BD4680BD1C5101081451010857
:1057C0003451010880B588B000AFF860B9607A60E4
:1057D00007F11403074A0A2118460CF0CBFD07F124
:1057E00014031946F86807F00EFB00BF2037BD46CA
:1057F00080BD00BF6C5B010880B584B000AFF8606D
:10580000B9607A60FFF756FF80B588B000AFF860E6
:10581000B9607A600023BB610023FB82B86807F09F
:10582000E3FB03467B757B7D012B04D02E49F86892
:1058300008F060FD54E00121B86807F09FFB386173
:105840003B691B78612B22D10023FB771BE0FB7F98
:105850001846FDF743FD0346FB82B7F9163013F5F2
:10586000004F06D1FB7F1A462049F86808F042FD38
:1058700006E0FA7FB7F916301D49F86808F03AFDDE
:10588000FB7F0133FB77FB7F072BE0D928E03B69E7
:105890001B782F2B20D93B691B78372B1CD83869F4
:1058A0000BF08EFF0346BB61B869FDF717FD034699
:1058B000FB82B7F9163013F5004F05D1BA690B49D1
:1058C000F86808F017FD0BE0B7F91630BA69084917
:1058D000F86808F00FFD03E00649F86808F00AFDD3
:1058E0002037BD4680BD00BF745B0108945B010892
:1058F000A85B0108BC5B010880B588B000AFF86008
:10590000B9607A60B86807F06FFB0346FB61FB691A
:10591000012B04D01549F86808F0ECFC23E0144B87
:105920001B68184602F0D6FD034683F00103DBB284
:10593000002B04D00F49F86808F0DCFC13E00121CB
:10594000B86807F01BFBB861B8690BF039FF034674
:105950007B61074B1B687969184603F0CFF806494D
:10596000F86808F0C7FC2037BD4680BD745B0108AD
:1059700024000020D05B01081C5C010880B584B0C5
:1059800000AFF860B9607A600A4B1B68184603F0F4
:10599000CEF80346002B04D00749F86808F0AAFCAB
:1059A00003E00649F86808F0A5FC00BF1037BD46C3
:1059B00080BD00BF240000201C5C0108245C01089D
:1059C00080B588B000AFF860B9607A60B86807F059
:1059D0000BFB0346BB61BB69012B04D03849F86857
:1059E00008F088FC69E0374B1B68184602F072FD2E
:1059F000034683F00103DBB2002B04D03249F86880
:105A000008F078FC59E00121B86807F0B7FA78612E
:105A100000233B617B691B78612B25D10023FB614F
:105A20001EE0284B1B68F969184602F00FFD38612B
:105A30003B69002B0CD1234B1B680022F9691846E7
:105A400002F024FDFA692149F86808F053FC04E0EB
:105A5000FA691F49F86808F04DFCFB690133FB61E6
:105A6000FB69032BDDD928E07B691B782F2B24D918
:105A70007B691B78332B20D878690BF0A1FE034695
:105A8000FB61104B1B68F969184602F0DFFC3861B6
:105A90003B69002B0CD10B4B1B680022F96918469F
:105AA00002F0F4FCFA690949F86808F023FC04E004
:105AB000FA690749F86808F01DFC2037BD4680BD2B
:105AC000745B0108240000202C5C0108745C010850
:105AD000885C010880B588B000AFF860B9607A6072
