:020000040800F2
:100000000000082015300008052E00080D2E0008FD
:10001000152E00081D2E0008252E000800000000E7
:100020000000000000000000000000002D2E00086D
:100030003B2E000800000000492E0008572E000843
:10004000653000086530000865300008653000083C
:10005000653000086530000865300008653000082C
:10006000653000086530000865300008653000081C
:10007000B583000865300008653000086530000869
:1000800065300008653000086530000865300008FC
:1000900065300008653000086530000865300008EC
:1000A00065300008F98400086530000865300008F4
:1000B0004585000865300008653000086530000897
:1000C00065300008653000086530000865300008BC
:1000D00065300008653000086530000801CA000876
:1000E000653000086530000865300008653000089C
:1000F000653000086530000865300008653000088C
:10010000653000086530000865300008653000087B
:10011000653000086530000865300008653000086B
:100120002D7A0008FD7800088979000865300008FC
:10013000653000086530000865300008653000084B
:10014000653000086530000865300008653000083B
:100150006530000809870008653000084957000825
:10016000653000086530000865300008653000081B
:1001700065300008653000086530000800000000A8
:100180006530000865300008A13B000865300008B4
:1001900065300008653000086530000865300008EB
:1001A0000000000000000000653000086530000815
:1001B00065300008653000086530000865300008CB
:1001C0006530000865300008000000006530000858
:1001D00065300008653000086530000865300008AB
:1001E000653000086530000865300008653000089B
:0801F00000000000653000086A
:1002000010B5054C237833B9044B13B10448AFF350
:1002100000800123237010BD9843002000000000DF
:100220003C14010808B5034B1BB103490348AFF365
:10023000008008BD000000009C4300203C14010821
:1002400010F8012B11F8013B012A28BF9A42F7D080
:10025000D01A7047000000000000000000000000FD
:1002600001F0FF01102A2BDB10F0070F08D010F867
:10027000013B013A8B422DD010F0070F42B3F6D16B
:10028000F0B441EA012141EA014122F007047FF084
:1002900000070023F0E80256083C85EA010586EADB
:1002A000010685FA47F5A3FA87F586FA47F6A5FA17
:1002B00087F68EB9EED1F0BC01F0FF0102F0070223
:1002C00032B110F8013B013A83EA010313B1F8D1CE
:1002D0000020704701387047002D06BF35460338AF
:1002E000073815F0010F07D1013015F4807F02BFE8
:1002F000013015F4C03F0130F0BC0138704700BF39
:10030000034613F8012B002AFBD1181A0138704755
:100310007BB972B90029BEBF00204FF0004106E052
:1003200008BF00281CBF6FF000414FF0FF3000F005
:10033000BBB9ADF1080C6DE904CE002909DB002B37
:100340001ADB00F035F8DDF804E0DDE9022304B043
:100350007047404261EB4101002B1BDB00F028F8A5
:10036000DDF804E0DDE9022304B0404261EB410125
:10037000524263EB43037047524263EB430300F086
:1003800017F8DDF804E0DDE9022304B0404261EB38
:1003900041017047524263EB430300F009F8DDF876
:1003A00004E0DDE9022304B0524263EB43037047EB
:1003B0002DE9F047089D8E4604468846002B4AD119
:1003C0008A42174662D9B2FA82F64EB1C6F12003CC
:1003D00001FA06F820FA03F3B74043EA0808B440EC
:1003E0004FEA174E1FFA87FCB8FBFEF1230C0EFBF9
:1003F000118843EA084301FB0CF29A4209D9FB1821
:1004000001F1FF3080F0EA809A4240F2E780023941
:100410003B449A1AA3B2B2FBFEF00EFB102243EA51
:10042000024300FB0CFC9C4509D9FB1800F1FF328C
:1004300080F0D6809C4540F2D3803B44023840EAAD
:100440000140A3EB0C0300211DB1F3400022C5E9DC
:100450000032BDE8F0878B4205D90DB1C5E9000136
:1004600000210846F5E7B3FA83F1002946D1734528
:1004700002D3824200F20581841A6EEB030201204E
:100480009046002DE5D0C5E90048E2E7002A00F0DB
:100490009080B2FA82F6002E40F0A4808A1A030CF3
:1004A0004FEA174E80B2BCB20121B2FBFEFC0EFB3C
:1004B0001C2243EA024304FB0CF29A4207D9FB18C0
:1004C0000CF1FF3802D29A4200F2E080C4469B1A37
:1004D000B3FBFEF20EFB123340EA034302FB04F4CB
:1004E0009C4207D9FB1802F1FF3002D29C4200F275
:1004F000CA8002461B1B42EA0C40A5E7C1F1200658
:100500008B4022FA06F71F430EFA01F420FA06F395
:100510002EFA06FE4FEA1749234300FA01F81FFAA4
:1005200087FCBEFBF9F01C0C09FB10EE44EA0E44FC
:1005300000FB0CFEA64502FA01F209D93C1900F1B4
:10054000FF3A80F09C80A64540F2998002383C44F6
:10055000A4EB0E041FFA83FEB4FBF9F309FB13446A
:100560004EEA044403FB0CFCA44508D93C1903F1F2
:10057000FF3E80F08280A4457FD9023B3C4443EAA1
:100580000040A4EB0C04A0FB02EC64457346E1467A
:1005900062D35FD05DB1B8EB030264EB090404FAE7
:1005A00006F622FA01F31E43CC40C5E9006400219F
:1005B0004FE7B1FBF2FC010C41EA0E4180B240EA88
:1005C00001423B4638463C46B846BE462026B1FB73
:1005D000F7F1A2EB080241EA0C4166E7014618E791
:1005E00010462CE7C6F120022EFA02F3B740B140C4
:1005F00020FA02F24FEA174E0A43B3FBFEF8BCB2F0
:100600000EFB1833110C41EA034108FB04F9B0401A
:1006100089454FEA104380B23ED9791808F1FF3C72
:1006200001D289451FD8A1EB0901B1FBFEF909FBF5
:1006300004F80EFB191192B242EA0142424529D256
:10064000BA1809F1FF31C4D24245C2D2A9F1020160
:100650003A44BEE7F0459DD2BEEB02036CEB070CBB
:100660000138E14696E7A7EB09094944A8F1020CD5
:10067000B1FBFEF909FB04F8DBE773467FE7504660
:1006800066E70846FDE63B44023A33E7ACF1020C6C
:100690003B441CE749469CE7A1EB0901C446B1FB7A
:1006A000FEF909FB04F8C4E7704700BF80B485B0C9
:1006B00000AF78607B6803F00703FB600B4BDB68DF
:1006C000BB60BA684FF6FF031340BB60FB681A02B9
:1006D000BB681A43064B1343BB60044ABB68D36034
:1006E00000BF1437BD465DF8047B704700ED00E0A5
:1006F0000000FA0580B400AF044BDB681B0A03F06E
:1007000007031846BD465DF8047B704700ED00E026
:1007100080B483B000AF0346FB7197F90730002B1C
:100720000BDBFB7903F01F02074997F907305B09E0
:10073000012000FA02F241F8232000BF0C37BD4629
:100740005DF8047B704700BF00E100E080B483B037
:1007500000AF03463960FB7197F90730002B0ADBC5
:100760003B68DAB20C4997F907301201D2B20B4458
:1007700083F800230AE03B68DAB20849FB7903F00A
:100780000F03043B1201D2B20B441A7600BF0C37A0
:10079000BD465DF8047B704700E100E000ED00E03D
:1007A00080B489B000AFF860B9607A60FB6803F08C
:1007B0000703FB61FB69C3F10703042B28BF042374
:1007C000BB61FB690433062B02D9FB69033B00E0E4
:1007D00000237B614FF0FF32BB6902FA03F3DA4377
:1007E000BB681A407B699A404FF0FF317B6901FA80
:1007F00003F3D9437B680B40134318462437BD46A7
:100800005DF8047B704780B489B000AFF860B960D0
:100810007A60FB682C331946BB6803F440734FF4CD
:100820004072BA61BA6992FAA2F27A617A69B2FA4E
:1008300082F2D2B2D3409B000B44FB61FB691A6881
:10084000BB6803F01F031F2101FA03F3DB431A40C7
:100850007B6803F01F01BB6803F01F0301FA03F379
:100860001A43FB691A6000BF2437BD465DF8047B5C
:10087000704780B483B000AF786039607B689B6854
:1008800023F480623B681A437B689A6000BF0C3790
:10089000BD465DF8047B704780B48DB000AFF86052
:1008A000B9607A60FB680C331946BB6803F00073CB
:1008B0004FF00072BA61BA6992FAA2F27A617A696B
:1008C000B2FA82F2D2B2D3409B000B44FB62FB6AC5
:1008D0001A68BB6803F0F8734FF0F8713962396A2F
:1008E00091FAA1F1F961F969B1FA81F1C9B2CB408C
:1008F000072101FA03F3DB431A40BB6803F0F873E6
:100900004FF0F871B962B96A91FAA1F17962796A26
:10091000B1FA81F1C9B2CB40796801FA03F31A4305
:10092000FB6A1A6000BF3437BD465DF8047B704730
:1009300080B485B000AFF860B9607A600D4ABB68DA
:1009400013441B781A46FB6813441B6823F0C0024B
:100950000849BB680B441B781946FB680B441946D1
:100960007B6813430B6000BF1437BD465DF8047B02
:10097000704700BF7031010880B485B000AFF860E7
:10098000B9607A600D4ABB6813441B781A46FB684D
:1009900013441B6823F490720849BB680B441B780E
:1009A0001946FB680B4419467B6813430B6000BF74
:1009B0001437BD465DF8047B704700BF70310108F5
:1009C00080B485B000AFF860B9607A600D4ABB684A
:1009D00013441B781A46FB6813441B6823F4007207
:1009E0000849BB680B441B781946FB680B44194641
:1009F0007B6813430B6000BF1437BD465DF8047B72
:100A0000704700BF7031010880B485B000AFF86056
:100A1000B9607A600D4ABB6813441B781A46FB68BC
:100A200013441B6823F480620849BB680B441B789D
:100A30001946FB680B4419467B6813430B6000BFE3
:100A40001437BD465DF8047B704700BF7031010864
:100A500080B485B000AFF860B9607A600D4ABB68B9
:100A600013441B781A46FB6813441B6823F4C052D6
:100A70000849BB680B441B781946FB680B441946B0
:100A80007B6813430B6000BF1437BD465DF8047BE1
:100A9000704700BF7031010880B485B000AFF860C6
:100AA000B9607A600D4ABB6813441B781A46FB682C
:100AB00013441B6823F4C0420849BB680B441B78ED
:100AC0001946FB680B4419467B6813430B6000BF53
:100AD0001437BD465DF8047B704700BF70310108D4
:100AE00080B485B000AFF860B9607A600D4ABB6829
:100AF00013441B781A46FB6813441B6823F44032E6
:100B00000849BB680B441B781946FB680B4419461F
:100B10007B6813430B6000BF1437BD465DF8047B50
:100B2000704700BF7031010880B485B000AFF86035
:100B3000B9607A600D4ABB6813441B781A46FB689B
:100B400013441B6823F0F0520849BB680B441B7820
:100B50001946FB680B4419467B6813430B6000BFC2
:100B60001437BD465DF8047B704700BF7031010843
:100B700080B483B000AF786039600C4A3B6813449E
:100B80001B781A467B6813445B6908493A680A4433
:100B9000127811467A680A4423F00403536100BFB7
:100BA0000C37BD465DF8047B704700BF703101080B
:100BB00080B483B000AF78607B681B6843F00102AB
:100BC0007B681A6000BF0C37BD465DF8047B704738
:100BD00080B483B000AF78607B681B6823F4003278
:100BE0007B681A6000BF0C37BD465DF8047B704718
:100BF00080B483B000AF78607B681B6823F4002268
:100C00007B681A6000BF0C37BD465DF8047B7047F7
:100C100080B485B000AFF860B9607A60FB68DA68CC
:100C2000064B1340B9687A680A431A43FB68DA60D6
:100C300000BF1437BD465DF8047B704701F8FFFF25
:100C400080B483B000AF78607B68DB6823F4004237
:100C50007B68DA6000BF0C37BD465DF8047B7047E7
:100C600080B483B000AF78607B685B6843F000724B
:100C70007B685A6000BF0C37BD465DF8047B704747
:100C800080B400AF054B1B68044A43F48033136003
:100C900000BFBD465DF8047B704700BF00380240CE
:100CA00080B400AF074B1B6803F40033B3F5003F7B
:100CB0000CBF01230023DBB21846BD465DF8047B60
:100CC000704700BF0038024080B483B000AF786046
:100CD000064B9B6823F0030204497B6813438B6037
:100CE00000BF0C37BD465DF8047B704700380240FA
:100CF00080B400AF044B9B6803F00C031846BD465C
:100D00005DF8047B704700BF0038024080B483B0B8
:100D100000AF7860064B9B6823F0F00204497B68C3
:100D200013438B6000BF0C37BD465DF8047B7047F2
:100D30000038024080B483B000AF7860064B9B68F7
:100D400023F4E05204497B6813438B6000BF0C37E7
:100D5000BD465DF8047B70470038024080B483B024
:100D600000AF7860064B9B6823F4604204497B68BF
:100D700013438B6000BF0C37BD465DF8047B7047A2
:100D80000038024080B483B000AF7860094BD3F8DC
:100D900090207B681B0CDB431A407B689BB20549A3
:100DA0001343C1F8903000BF0C37BD465DF8047B9B
:100DB000704700BF0038024080B483B000AF786055
:100DC000094BD3F890207B681B0CDB431A407B68EF
:100DD0009BB205491343C1F8903000BF0C37BD46A4
:100DE0005DF8047B704700BF0038024080B483B0D8
:100DF00000AF7860094BD3F890207968084B0B401E
:100E0000DB431A407B681B0404491343C1F890304C
:100E100000BF0C37BD465DF8047B704700380240C8
:100E20000000FFFF80B483B000AF7860074BD3F8B9
:100E30008C3023F0807205497B681343C1F88C30F5
:100E400000BF0C37BD465DF8047B70470038024098
:100E500080B400AF054B1B68044A43F080731360F5
:100E600000BFBD465DF8047B704700BF00380240FC
:100E700080B400AF074B1B6803F00073B3F1007F31
:100E80000CBF01230023DBB21846BD465DF8047B8E
:100E9000704700BF0038024080B485B000AFF860F2
:100EA000B9607A603B600A4B5A680A4B1340F96894
:100EB000BA6811437A68920111433A680A430449B7
:100EC00013434B6000BF1437BD465DF8047B704789
:100ED000003802400080BCFF80B485B000AF78606D
:100EE000084B1A6B07497B6813430B63054B1A6B5E
:100EF0007B681340FB60FB6800BF1437BD465DF89C
:100F0000047B70470038024080B485B000AF786041
:100F1000084B1A6C07497B6813430B64054B1A6C2A
:100F20007B681340FB60FB6800BF1437BD465DF86B
:100F3000047B70470038024080B485B000AF786011
:100F4000084B5A6C07497B6813434B64054B5A6C3A
:100F50007B681340FB60FB6800BF1437BD465DF83B
:100F6000047B70470038024080B483B000AF7860E3
:100F7000064B1B6823F00F0204497B6813430B6088
:100F800000BF0C37BD465DF8047B7047003C024053
:100F900080B400AF044B1B6803F00F031846BD4636
:100FA0005DF8047B704700BF003C024080B400AF96
:100FB000054B1B68044A43F48033136000BFBD46F1
:100FC0005DF8047B704700BF0070004080B483B0C0
:100FD00000AF7860064B1B6823F4404204497B68ED
:100FE00013430B6000BF0C37BD465DF8047B7047B0
:100FF0000070004080B400AF074B5B6803F480438F
:10100000B3F5804F0CBF01230023DBB21846BD4669
:101010005DF8047B704700BF0070004080B483B06F
:1010200000AF78607B681B6843F040027B681A6001
:1010300000BF0C37BD465DF8047B704780B483B0B9
:1010400000AF786039607B685B6823F010023B6812
:101050001A437B685A6000BF0C37BD465DF8047BBD
:10106000704780B483B000AF78607B685B6843F002
:1010700008027B685A6000BF0C37BD465DF8047BF0
:10108000704780B483B000AF78607B685B6823F002
:1010900008027B685A6000BF0C37BD465DF8047BD0
:1010A000704780B483B000AF78607B681B6823F022
:1010B00080027B681A6000BF0C37BD465DF8047B78
:1010C0007047000080B485B000AF786039603B683D
:1010D000012B28D03B68042B23D03B68102B1ED05B
:1010E0003B68402B19D03B68B3F5807F13D03B6839
:1010F000B3F5806F0DD03B68B3F5805F07D03B68D8
:10110000B3F5803F01D107230EE008230CE006234E
:101110000AE0052308E0042306E0032304E0022399
:1011200002E0012300E00023FB737B6818331946BB
:10113000FB7B0B4AD35C0B44BB60BB681A68FB7B30
:101140000849CB5C194604238B40DB431A40BB683B
:101150001A6000BF1437BD465DF8047B704700BFBE
:10116000783101088431010880B485B000AF78601F
:1011700039603B68012B28D03B68042B23D03B68A7
:10118000102B1ED03B68402B19D03B68B3F5807FF5
:1011900013D03B68B3F5806F0DD03B68B3F5805F2B
:1011A00007D03B68B3F5803F01D107230EE0082349
:1011B0000CE006230AE0052308E0042306E00323ED
:1011C00004E0022302E0012300E00023FB737B68BC
:1011D00018331946FB7B0A4AD35C0B44BB60BB68DF
:1011E0001A68FB7B0749CB5C194608238B401A43DE
:1011F000BB681A6000BF1437BD465DF8047B7047BA
:10120000783101088431010880B483B000AF786080
:1012100039607B689A68064B13403A681A437B68CA
:101220009A6000BF0C37BD465DF8047B704700BF75
:10123000F8BFFEFF80B483B000AF786039607B6890
:101240005B6823F070023B681A437B685A6000BFFA
:101250000C37BD465DF8047B704780B483B000AFA7
:10126000786039607B685B6823F470023B681A43DE
:101270007B685A6000BF0C37BD465DF8047B704741
:1012800080B483B000AF78607B689B6823F08002F5
:101290007B689A6000BF0C37BD465DF8047B7047E1
:1012A00080B483B000AF78607B681B6843F00102B4
:1012B0007B681A6000BF0C37BD465DF8047B704741
:1012C00080B483B000AF786039607B681B6823F41A
:1012D000F8123B681B041A437B681A6000BF0C3786
:1012E000BD465DF8047B704780B483B000AF786082
:1012F00039607B681B6823F078723B685B051A4392
:101300007B681A6000BF0C37BD465DF8047B7047F0
:1013100080B483B000AF78607B689B6843F4804200
:101320007B689A6000BF0C37BD465DF8047B704750
:1013300080B483B000AF786039607B689B6823F429
:1013400000423B681A437B689A6000BF0C37BD4679
:101350005DF8047B704780B483B000AF78607B6831
:101360005B6823F490427B685A607B689B6823F03B
:101370002A027B689A6000BF0C37BD465DF8047B8B
:10138000704780B483B000AF78607B685B6823F4FB
:1013900090427B685A607B689B6823F022027B68DE
:1013A0009A607B689B6843F008027B689A6000BF84
:1013B0000C37BD465DF8047B704780B483B000AF46
:1013C000786039607B683A689A6100BF0C37BD4627
:1013D0005DF8047B704780B483B000AF78603960FB
:1013E0003B681A047B689A6100BF0C37BD465DF804
:1013F000047B704780B500AF4FF08050FFF784FD4D
:101400004FF48040FFF798FD0320FFF74FF9FFF7F7
:1014100071F9034600220F211846FFF7C1F9034670
:1014200019464FF0FF30FFF791F900F02DF801F069
:1014300033FA01F0C5F900F001FB00F073FB00F096
:10144000FDFB00F0ADFC00F06FF800F027FD00F0B0
:1014500007FF00F0DFFF00F09FFD01F051F801F001
:101460003BF900F0B5F900F049FA00F071FE00F028
:10147000B5FE01F0CDF801F003FF01F011FF01F01E
:1014800025FF00BFFDE7000080B500AF0620FFF795
:101490006BFD00BFFFF77CFD0346062BFAD14FF42E
:1014A0004040FFF793FDFFF781FDFFF7E9FB00BF29
:1014B000FFF7F6FB0346012BFAD10023C0220C21D3
:1014C0004FF48000FFF7E8FCFFF7C2FC00BFFFF716
:1014D000CFFC0346012BFAD100BFFFF78BFD03467B
:1014E000002BFAD00020FFF711FC4FF4A050FFF7BB
:1014F00021FC4FF40040FFF731FC0220FFF7E4FB32
:1015000000BFFFF7F5FB0346082BFAD105480DF0A5
:1015100039F804480DF06AF80020FFF783FC00BF9B
:1015200080BD00BF00C2EB0B80B592B000AF07F1E9
:101530003C0300221A605A609A6007F128030022D7
:101540001A605A609A60DA601A6107F11803002283
:101550001A605A609A60DA603B4600221A605A604C
:101560009A60DA601A615A614FF48070FFF7E4FC08
:101570000420FFF7B1FC0220FFF7AEFC01233B6023
:1015800003237B6000233B613B46194684480BF0F4
:10159000A2FD02233B6003237B6000233B613B46AB
:1015A00019467F480BF097FD04233B6003237B60C3
:1015B00000233B613B46194679480BF08CFD08231C
:1015C0003B6003237B6000233B613B461946744824
:1015D0000BF081FD10233B6003237B6000233B6104
:1015E0003B4619466E480BF076FD20233B600323F3
:1015F0007B6000233B613B46194669480BF06BFD5D
:1016000001233B6003237B6000233B613B4619467B
:1016100064480BF060FD02233B6003237B600023E2
:101620003B613B4619465F480BF055FD0022002107
:101630005D48FFF779FA002200215B48FFF778F94F
:10164000002200215848FFF74BFA4FF48072002126
:101650005548FFF791F9002200215348FFF7B0F9F0
:101660004FF4806200215048FFF7CEF94FF400623A
:1016700000214D48FFF7ECF94FF4005200214A4891
:10168000FFF70AFA00214848FFF772FA0023FB63CC
:1016900000233B644FF480737B6407F13C031946DD
:1016A00042480BF09FFB0023BB624FF4E003FB6258
:1016B00000233B6300237B634FF44073BB6307F15C
:1016C0002803194639480BF0B9FB00213748FFF7CA
:1016D000D0F84FF48033BB610023FB6107F118039E
:1016E000194633480BF036FB0A224FF400712F489D
:1016F000FFF789F801220A212C48FFF7CDF82D4A7F
:1017000040F205212948FFF77EF8012229492748A0
:10171000FFF7C2F8284A40F20A212448FFF773F87D
:10172000012225492148FFF7B7F8244A40F20F214A
:101730001E48FFF768F8012220491C48FFF7ACF863
:101740001F4A4FF405711948FFF75DF801221C4943
:101750001648FFF7A1F81B4A40F219211348FFF77A
:1017600052F8012217491148FFF796F8164A4FF42C
:1017700080710E48FFF747F8012213490B48FFF725
:101780008BF8124A40F205110848FFF73CF8012295
:101790000E490648FFF780F800BF4837BD4680BDB8
:1017A00000080240000402400064024000200140A2
:1017B000002301400B0030000C0060000D00900081
:1017C0000E00C0000F00F000080080030900B00305
:1017D00080B58EB000AF07F12C0300221A605A606A
:1017E0009A6007F1180300221A605A609A60DA6062
:1017F0001A613B4600221A605A609A60DA601A61E8
:101800005A614FF40070FFF797FB0120FFF764FB6C
:1018100008233B6003237B6000233B613B46194662
:1018200032480BF058FC4FF0007202213048FFF7AD
:101830007BF9002202212E48FFF77AF84FF480321C
:1018400002212B48FFF74CF94FF4807202212848FF
:10185000FFF792F8002202212548FFF7B1F84FF474
:10186000806202212248FFF7CFF84FF40062022184
:101870001F48FFF7EDF84FF4005202211C48FFF714
:101880000BF902211A48FFF773F90023FB620023CA
:101890003B6300237B6307F12C03194615480BF0CB
:1018A000A1FA0023BB610023FB6100233B620023FC
:1018B0007B624FF44073BB6207F1180319460D4871
:1018C0000BF0BCFA4FF480610A48FEF7D2FF0A4AD7
:1018D0004FF400710748FEF796FF012206490548BC
:1018E000FEF7DAFF00BF3837BD4680BD000002407A
:1018F00000640240002101400300900280B58EB0D8
:1019000000AF07F12C0300221A605A609A6007F1B9
:10191000180300221A605A609A60DA601A613B4626
:1019200000221A605A609A60DA601A615A614FF4B4
:101930008060FFF701FB0120FFF7CEFA02233B6036
:1019400003237B6000233B613B46194637480BF07D
:10195000C2FB04233B6003237B6000233B613B46C7
:10196000194632480BF0B7FB4FF080620121304836
:10197000FFF7DAF8002201212D48FEF7D9FF0022F7
:1019800001212B48FFF7ACF84FF480720121284861
:10199000FEF7F2FF002201212548FFF711F84FF46E
:1019A000806201212248FFF72FF84FF400620121E5
:1019B0001F48FFF74DF84FF4005201211C48FFF774
:1019C0006BF801211A48FFF7D3F80023FB620023CC
:1019D0003B6300237B6307F12C03194615480BF08A
:1019E00001FA0023BB610023FB6100233B6200235B
:1019F0007B624FF44073BB6207F1180319460D4830
:101A00000BF01CFA4FF480610A48FEF732FF0A4AD5
:101A10004FF400710748FEF7F6FE0122064905481B
:101A2000FEF73AFF00BF3837BD4680BD00000240D8
:101A300000640240002201400200600280B58EB0C6
:101A400000AF07F11C0300221A605A609A60DA6046
:101A50001A615A619A613B1D00221A605A609A60AD
:101A6000DA601A615A614FF44030FFF7BFF9022083
:101A7000FFF732FA40237B600223BB600323FB6045
:101A800001233B6100237B610423BB613B1D19469D
:101A900021480BF020FB80237B600223BB600323E3
:101AA000FB6001233B6100237B610423BB613B1D81
:101AB000194619480BF00FFB4FF40010FFF724FAFA
:101AC0001648FFF7CDF8002200211448FFF7A0F8D0
:101AD0001248FFF7B5F81148FFF78AF80F48FFF7EB
:101AE00077F80023FB610E4B3B6200237B620023EF
:101AF000BB620023FB6200233B6300237B6307F18F
:101B00001C03194605480BF0FDFB0448FFF750F88D
:101B100000BF3837BD4680BD00040240005400407D
:101B2000FF63106080B590B000AF07F11803282262
:101B3000002118460DF0C8FC3B4600221A605A608E
:101B40009A60DA601A615A614FF48050FFF7F4F935
:101B50000120FFF7C1F910233B6002237B600323C0
:101B6000BB600023FB6000233B6105237B613B4698
:101B7000194630480BF0AFFA20233B6002237B600C
:101B80000323BB600023FB6000233B6105237B61D3
:101B90003B46194627480BF09EFA40233B60022340
:101BA0007B600323BB600023FB6000233B610523B4
:101BB0007B613B4619461F480BF08DFA80233B6042
:101BC00002237B600323BB600023FB6000233B6197
:101BD00005237B613B46194616480BF07CFA00232F
:101BE000BB614FF48273FB614FF4E0633B620023FF
:101BF0007B620023BB620023FB6200233B63002364
:101C00007B630023BB630723FB6307F118031946BB
:101C100009480BF04FFF00210748FFF70FFA06486D
:101C2000FFF71FFA0448FFF7F9F900BF4037BD4638
:101C300080BD00BF000002400030014080B590B080
:101C400000AF07F118032822002118460DF03CFCD4
:101C50003B4600221A605A609A60DA601A615A6143
:101C60004FF48040FFF750F90220FFF735F94FF4A9
:101C700000533B6002237B600323BB600023FB60B7
:101C800000233B6105237B613B46194641480BF02D
:101C900022FA4FF480433B6002237B600323BB6046
:101CA0000023FB6000233B6105237B613B46194613
:101CB00038480BF010FA4FF400433B6002237B607E
:101CC0000323BB600023FB6000233B6105237B6192
:101CD0003B4619462F480BF0FEF94FF09052012178
:101CE0002D48FEF721FF002201212B48FEF720FEA0
:101CF0004FF4403201212848FEF7F2FE4FF4807283
:101D000001212548FEF738FE002201212248FEF776
:101D100057FE4FF4806201211F48FEF775FE4FF415
:101D2000006201211C48FEF793FE4FF4005201218E
:101D30001948FEF7B1FE01211748FEF719FF0023ED
:101D4000BB614FF48273FB614FF470633B6200230D
:101D50007B620023BB624FF40073FB6200233B6392
:101D600000237B630023BB630723FB6307F1180396
:101D700019460A480BF09EFE00210848FFF75EF95D
:101D80000648FFF76EF90548FFF748F900BF4037EE
:101D9000BD4680BD000402400060024000380040A3
:101DA00080B590B000AF07F1180328220021184633
:101DB0000DF08AFB3B4600221A605A609A60DA6096
:101DC0001A615A614FF40040FFF79EF80420FFF7B4
:101DD00083F84FF480633B6002237B600323BB6086
:101DE0000023FB6000233B6106237B613B461946D1
:101DF00028480BF070F94FF400633B6002237B60CE
:101E00000323BB600023FB6000233B6106237B614F
:101E10003B4619461F480BF05EF94FF480533B6078
:101E200002237B600323BB600023FB6000233B6134
:101E300006237B613B46194616480BF04CF90023FC
:101E4000BB614FF48273FB614FF4E0633B6200239C
:101E50007B620023BB624FF40073FB6200233B6391
:101E600000237B630023BB630723FB6307F1180395
:101E7000194609480BF01EFE00210748FFF7DEF85F
:101E80000548FFF7EEF80448FFF7C8F800BF4037F1
:101E9000BD4680BD00080240003C004080B590B0C7
:101EA00000AF07F118032822002118460DF00CFBA3
:101EB0003B4600221A605A609A60DA601A615A61E1
:101EC0004FF40050FFF738F81020FFF705F84FF4F3
:101ED00080533B6002237B600323BB600023FB60D5
:101EE00000233B6105237B613B46194628480BF0E4
:101EF000F2F84FF400533B6002237B600323BB6086
:101F00000023FB6000233B6105237B613B461946B0
:101F10001F480BF0E0F84FF480433B6002237B60E6
:101F20000323BB600023FB6000233B6105237B612F
:101F30003B46194616480BF0CEF80023BB614FF420
:101F40008273FB614FF4E0633B6200237B620123F9
:101F5000BB624FF40073FB6220233B6300237B636F
:101F60000023BB630723FB6307F1180319460948E5
:101F70000BF0A0FD00210748FFF760F80548FFF7C8
:101F800080F80448FFF74AF800BF4037BD4680BDDF
:101F9000001002400034014080B590B000AF07F15E
:101FA00018032822002118460DF08EFA3B46002225
:101FB0001A605A609A60DA601A615A614FF4001030
:101FC000FEF7BAFF0220FEF787FF08233B600223DB
:101FD0007B600323BB600023FB6000233B6108237D
:101FE0007B613B46194657480BF075F810233B6060
:101FF00002237B600323BB600023FB6000233B6163
:1020000008237B613B4619464E480BF064F82023B9
:102010003B6002237B600323BB600023FB60002343
:102020003B6108237B613B46194646480BF053F859
:102030004FF0007205214448FEF776FD402205214D
:102040004148FEF775FC4FF4403205213E48FEF74B
:1020500047FD002205213C48FEF78EFC00220521A9
:102060003948FEF7ADFC4FF4806205213648FEF793
:10207000CBFC002205213448FEF7EAFC00220521B2
:102080003148FEF709FD05212F48FEF771FD4FF09D
:10209000007206212C48FEF747FD002206212A483F
:1020A000FEF746FC4FF4403206212748FEF718FDA4
:1020B000002206212448FEF75FFC00220621224868
:1020C000FEF77EFC4FF4806206211F48FEF79CFC61
:1020D000002206211C48FEF7BBFC002206211A48FC
:1020E000FEF7DAFC06211848FEF742FD0023BB612B
:1020F0004FF48273FB614FF4E0633B6200237B6229
:102100000023BB624FF40073FB6200233B63002398
:102110007B630023BB630723FB6307F118031946A6
:102120000A480BF0C7FC00210848FEF787FF074864
:10213000FEF797FF0548FEF771FF00BF4037BD4629
:1021400080BD00BF00040240006402400054014012
:1021500080B586B000AF3B1D00221A605A609A60BD
:10216000DA601A610120FEF7E7FEFEF7C3FA0346C4
:10217000002200211846FEF713FB034619461920DA
:10218000FEF7E4FA1920FEF7C3FA0023BB80002310
:10219000BB604FF6FF73FB6000233B6100237B6154
:1021A0003B1D19460C480BF079FD0B48FEF779FFF3
:1021B00000210948FFF728F800210748FFF73AF8FF
:1021C00000210548FFF749F80348FFF759F800BF19
:1021D0001837BD4680BD00BF0000014080B586B005
:1021E00000AF3B1D00221A605A609A60DA601A61E3
:1021F0000120FEF789FEFEF77DFA03460022022148
:102200001846FEF7CDFA034619461C20FEF79EFA43
:102210001C20FEF77DFA0023BB800023BB604FF03B
:10222000FF33FB6000233B613B1D19464FF08040AC
:102230000BF034FD4FF08040FEF733FF00214FF0EC
:102240008040FEF7E1FF00214FF08040FEF7F2FFF3
:102250004FF08040FFF714F800BF1837BD4680BD2F
:1022600080B594B000AF07F13C0300221A605A60B9
:102270009A60DA601A6107F11C03202200211846D7
:102280000DF022F93B1D00221A605A609A60DA6054
:102290001A615A610420FEF737FE0A23BB87002328
:1022A0003B644CF250337B644FF40073BB6407F122
:1022B0003C03194655480BF0F1FC5448FEF7F1FE7B
:1022C00000215248FEF7A0FF01215048FEF74CFFC5
:1022D0006023FB6100233B6200237B620023BB621F
:1022E0000023FB6207F11C031A46012147480BF04B
:1022F0006FFD01214548FEF7E5FE10214348FEF73A
:1023000033FF07F11C031A46102140480BF060FD13
:1023100010213E48FEF7D6FE4FF480713B48FEF791
:1023200023FF07F11C031A464FF4807137480BF066
:102330004FFD4FF480713548FEF7C4FE4FF48051D5
:102340003248FEF711FF07F11C031A464FF4805183
:102350002E480BF03DFD4FF480512C48FEF7B2FEA5
:1023600000212A48FEF766FF2848FEF789FF08206B
:10237000FEF7B2FD4FF480537B600223BB60002365
:10238000FB6000233B6100237B610223BB613B1D9B
:1023900019461F480AF09FFE4FF400537B6002234A
:1023A000BB600023FB6000233B6100237B610223B1
:1023B000BB613B1D194616480AF08DFE4FF4804361
:1023C0007B600223BB600023FB6000233B61002392
:1023D0007B610223BB613B1D19460D480AF07BFE61
:1023E0004FF400437B600223BB600023FB600023AB
:1023F0003B6100237B610223BB613B1D19460448FE
:102400000AF069FE00BF5037BD4680BD000800409D
:10241000000C024080B58EB000AF07F11C03002213
:102420001A605A609A60DA601A615A619A613B1DBB
:1024300000221A605A609A60DA601A615A614FF09D
:102440004050FEF7B9FC4FF08040FEF75DFD1020D4
:10245000FEF742FD80237B600223BB600323FB6009
:1024600000233B6100237B610823BB613B1D1946B0
:1024700021480AF030FE4FF480737B600223BB607A
:102480000323FB6000233B6100237B610823BB61C6
:102490003B1D194618480AF01EFEFEF72BF90346AD
:1024A00000220B211846FEF77BF9034619465220FD
:1024B000FEF74CF95220FEF72BF94FF4E133FB61A4
:1024C00000233B6200237B620023BB620C23FB6280
:1024D00000233B6300237B6307F11C031946074875
:1024E0000BF096FF0548FEF736FF0448FEF7D8FECE
:1024F00000BF3837BD4680BD001002400078004064
:1025000080B58EB000AF07F11C0300221A605A603C
:102510009A60DA601A615A619A613B1D00221A6062
:102520005A609A60DA601A615A614FF44030FEF7DF
:1025300029FC1020FEF700FD0120FEF7CDFC4FF432
:1025400000737B600223BB600323FB6000233B61BD
:1025500000237B610723BB613B1D19462A480AF013
:10256000BAFD4FF480637B600223BB600323FB60F2
:1025700000233B6100237B610723BB613B1D1946A0
:1025800021480AF0A8FD4FF480537B600223BB6012
:102590000323FB6000233B6100237B610723BB61B6
:1025A0003B1D194618480AF096FD4FF4E133FB61D4
:1025B00000233B6200237B620023BB620C23FB628F
:1025C00000233B6300237B6307F11C0319460F487C
:1025D0000BF01EFF0D48FEF79BFE00210B48FEF797
:1025E000A7FE00210948FEF77FFE00210748FEF7FD
:1025F00067FE0648FEF7AFFE0448FEF751FE00BF37
:102600003837BD4680BD00BF0000024000100140C9
:1026100080B58EB000AF07F11C0300221A605A602B
:102620009A60DA601A615A619A613B1D00221A6051
:102630005A609A60DA601A615A614FF44010FEF7EE
:10264000A1FB4FF48020FEF75FFC0220FEF744FC64
:102650004FF480637B600223BB600323FB60012394
:102660003B6100237B610723BB613B1D1946184872
:102670000AF031FDFEF73EF803460022002118461D
:10268000FEF78EF8034619462720FEF75FF827204D
:10269000FEF73EF84FF4E133FB6100233B62002379
:1026A0007B620023BB620823FB6200237B6307F18C
:1026B0001C03194607480BF0ABFE0648FEF761FE07
:1026C0000448FEF7EDFD00BF3837BD4680BD00BFB2
:1026D000000402400048004080B58EB000AF07F112
:1026E0001C0300221A605A609A60DA601A615A610B
:1026F0009A613B1D00221A605A609A60DA601A6182
:102700005A614FF04060FEF73DFB2020FEF714FCBD
:102710000420FEF7E1FB40237B600223BB60032320
:10272000FB6000233B6100237B610823BB613B1DF1
:10273000194621480AF0CFFC80237B600223BB604E
:102740000323FB6000233B6100237B610823BB6103
:102750003B1D194618480AF0BEFCFDF7CBFF0346A7
:1027600000220B211846FEF71BF8034619464720A6
:10277000FDF7ECFF4720FDF7CBFF4FF4E133FB61A2
:1027800000233B6200237B620023BB620C23FB62BD
:1027900000233B6300237B6307F11C0319460748B2
:1027A0000BF036FE0548FEF7D6FD0448FEF778FD2F
:1027B00000BF3837BD4680BD00080240001401400C
:1027C00080B500AF4FF48000FEF786FB4FF4001099
:1027D000FEF782FBFDF78EFF03460022002118461C
:1027E000FDF7DEFF034619460C20FDF7AFFF0C2076
:1027F000FDF78EFFFDF77EFF034600220A211846F3
:10280000FDF7CEFF034619463820FDF79FFF38201D
:10281000FDF77EFFFDF76EFF0346002200211846FC
:10282000FDF7BEFF034619463920FDF78FFF39201B
:10283000FDF76EFFFDF75EFF034600220A211846F2
:10284000FDF7AEFF034619463A20FDF77FFF3A2019
:10285000FDF75EFFFDF74EFF0346002209211846F3
:10286000FDF79EFF034619464420FDF76FFF442005
:10287000FDF74EFFFDF73EFF0346002201211846FB
:10288000FDF78EFF034619464520FDF75FFF452003
:10289000FDF73EFF00BF80BD80B586B000AF3B4670
:1028A00000221A605A609A60DA601A615A61102038
:1028B000FEF712FB0420FEF70FFB8020FEF70CFB57
:1028C0000120FEF709FB0220FEF706FB0820FEF7B9
:1028D00003FB0421BF48FEF77EFD0821BD48FEF73B
:1028E0007AFD1021BB48FEF776FD2021B948FEF79E
:1028F00072FD4021B748FEF76EFD4FF40051B64817
:10290000FEF769FD4FF48041B348FEF764FD4FF4D4
:102910000041B148FEF75FFD4FF40061AD48FEF79E
:102920005AFD4FF40061AD48FEF755FD4FF40041EC
:10293000AA48FEF750FD0121A948FEF74CFD0221EF
:10294000A748FEF748FD1021A548FEF744FD2021C9
:10295000A348FEF740FD4021A148FEF73CFD0421BD
:10296000A048FEF72AFD4FF480619A48FEF725FD46
:102970004FF400419748FEF720FD4FF480519948ED
:10298000FEF71BFD4FF480719548FEF716FD4FF4DE
:1029900000719348FEF711FD4FF480619048FEF7F7
:1029A0000CFD04218E48FEF708FD80218C48FEF7BF
:1029B00004FD4FF480718B48FEF7FFFC4FF400716B
:1029C0008848FEF7FAFC01218248FEF7F6FC022156
:1029D0008048FEF7F2FC04233B6001237B60002368
:1029E000BB600023FB6000233B613B4619467948EE
:1029F0000AF071FB08233B6001237B600023BB606E
:102A00000023FB6000233B613B46194671480AF0F6
:102A100062FB10233B6001237B600023BB6000232B
:102A2000FB6000233B613B4619466A480AF053FBB2
:102A300020233B6001237B600023BB600023FB60FD
:102A400000233B613B46194662480AF044FB4023A1
:102A50003B6001237B600023BB600023FB600023FD
:102A60003B613B4619465B480AF035FB4FF4005387
:102A70003B6001237B600023BB600023FB600023DD
:102A80003B613B46194654480AF025FB4FF480430E
:102A90003B6001237B600023BB600023FB600023BD
:102AA0003B613B4619464C480AF015FB4FF4004386
:102AB0003B6001237B600023BB600023FB6000239D
:102AC0003B613B46194644480AF005FB04233B6042
:102AD00001237B600023BB600023FB6000233B617C
:102AE0003B4619463F480AF0F6FA4FF480633B60D4
:102AF00001237B600023BB600023FB6000233B615C
:102B00003B46194633480AF0E6FA4FF400633B604F
:102B100001237B600023BB600023FB6000233B613B
:102B20003B4619462B480AF0D6FA4FF400433B6067
:102B300001237B600023BB600023FB6000233B611B
:102B40003B46194623480AF0C6FA4FF480533B60CF
:102B500001237B600023BB600023FB6000233B61FB
:102B60003B4619461F480AF0B6FA4FF480733B60A3
:102B700001237B600323BB600023FB6000233B61D8
:102B80003B46194616480AF0A6FA4FF400733B601C
:102B900001237B600323BB600023FB6000233B61B8
:102BA0003B4619460E480AF096FA4FF480633B60A4
:102BB00001237B600323BB600023FB6000233B6198
:102BC0003B46194606480AF086FA4FF400633B601C
:102BD0000AE000BF0010024000080240000002406E
:102BE000000C02400004024000237B6000233B6194
:102BF0003B4619467E480AF06EFA4FF480733B60FC
:102C000000237B6000233B613B46194679480AF06C
:102C100062FA4FF400733B6000237B6000233B614A
:102C20003B46194673480AF056FA4FF480733B60EE
:102C300000237B6000233B613B4619466E480AF047
:102C40004AFA4FF400633B6001237B600023BB60C2
:102C50000023FB6000233B613B46194666480AF0AF
:102C60003AFA4FF400433B6001237B600023BB60D2
:102C70000023FB6000233B613B4619465E480AF097
:102C80002AFA01233B6001237B600023BB60002301
:102C9000FB6000233B613B46194655480AF01BFA8E
:102CA00002233B6001237B600023BB600023FB60A9
:102CB00000233B613B4619464D480AF00CFA0423B9
:102CC0003B6001237B600023BB600023FB6000238B
:102CD0003B613B46194646480AF0FDF908233B6034
:102CE00000237B6000233B613B46194640480AF0C5
:102CF000F2F910233B6001237B600023BB600023BB
:102D0000FB6000233B613B46194639480AF0E3F972
:102D100020233B6001237B600023BB600023FB601A
:102D200000233B613B46194631480AF0D4F9402361
:102D30003B6001237B600023BB600023FB6000231A
:102D40003B613B4619462A480AF0C5F980233B609F
:102D500001237B600023BB600023FB6000233B61F9
:102D60003B46194622480AF0B6F94FF480733B609F
:102D700001237B600023BB600023FB6000233B61D9
:102D80003B4619461D480AF0A6F94FF400733B6014
:102D900001237B600023BB600023FB6000233B61B9
:102DA0003B46194615480AF096F901233B6001237A
:102DB0007B600023BB600023FB6000233B613B463C
:102DC00019460F480AF087F902233B6001237B6014
:102DD0000023BB600023FB6000233B613B46194698
:102DE00007480AF078F900BF1837BD4680BD00BF1C
:102DF000000C0240000802400000024000040240B3
:102E00000010024080B400AF00BFFDE780B400AF07
:102E100000BFFDE780B400AF00BFFDE780B400AFA6
:102E200000BFFDE780B400AF00BFFDE780B400AF96
:102E300000BFBD465DF8047B704780B400AF00BFA3
:102E4000BD465DF8047B704780B400AF00BFBD464F
:102E50005DF8047B704780B500AF09F0FBFE00BF52
:102E600080BD80B400AF01231846BD465DF8047BE9
:102E7000704780B582B000AF786039600CF084FB99
:102E8000034616221A604FF0FF3318460837BD4636
:102E900080BD80B582B000AF78604FF0FF317868B8
:102EA000FFF7E7FF00BFFDE780B586B000AFF86031
:102EB000B9607A6000237B610AE0AFF300800146CD
:102EC000BB685A1CBA60CAB21A707B6901337B6155
:102ED0007A697B689A42F0DB7B6818461837BD46F2
:102EE00080BD80B586B000AFF860B9607A6000231D
:102EF0007B6109E0BB685A1CBA601B781846AFF3C7
:102F000000807B6901337B617A697B689A42F1DBDF
:102F10007B6818461837BD4680BD80B483B000AFCB
:102F200078604FF0FF3318460C37BD465DF8047BE0
:102F3000704780B483B000AF786039603B684FF46D
:102F400000525A60002318460C37BD465DF8047BDA
:102F5000704780B483B000AF7860012318460C3707
:102F6000BD465DF8047B704780B485B000AFF86063
:102F7000B9607A60002318461437BD465DF8047BBB
:102F80007047000080B586B000AF7860144A154BDA
:102F9000D31A7B617B693B61134B1B68002B02D109
:102FA000114B124A1A60104B1A687B6813443A6935
:102FB0009A4207D20CF0E8FA03460C221A604FF04E
:102FC000FF3309E0084B1B68FB60074B1A687B68FE
:102FD0001344054A1360FB6818461837BD4680BD88
:102FE0000000082000040000B443002048930120A2
:102FF00080B400AF064BD3F88830054A43F4700321
:10300000C2F8883000BFBD465DF8047B704700BF42
:1030100000ED00E0DFF834D0FFF7EAFF0C480D497F
:103020000D4A002302E0D458C4500433C4188C4223
:10303000F9D30A4A0A4C002301E013600432A24289
:10304000FBD30CF0A7FAFEF7D5F970470000082073
:103050000000002098430020B83C0108984300205D
:1030600044930120FEE780B582B000AF78603960FC
:1030700004F0BAFC04F0B0FB7B6814330A220A2186
:10308000184609F0A3FD00BF0837BD4680BD00000B
:1030900080B584B002AF786039607B68002B03D1C3
:1030A0000021104803F0A2FF78683B685A683B682B
:1030B0009B68009313460C4A0C4909F0F9FC7B68A5
:1030C00014337A681621184609F05EFD3B681A68C9
:1030D0007B685A627B6800221A8700BF0837BD46AA
:1030E00080BD00BFA83101085531000867300008D5
:1030F00080B586B002AF0223009304230822094959
:10310000094809F0D1F8094A3B1D07CA83E80700BE
:103110003B1D19460648FFF7BBFF00BF1037BD46F1
:1031200080BD00BFF843002000440020581401086F
:10313000B843002080B582B000AF0346FB71FB7935
:103140001946034809F0CEFC00BF0837BD4680BDD4
:10315000B843002090B585B000AF786039603B6817
:103160001B88162B06D0162B27DC142B08D0152B0A
:103170001DD022E004F042FC04F0ACFB01231DE072
:103180000023FB730EE0FB7BFC7B184604F03CFC49
:10319000034619467B6804F1140223F81210FB7BE6
:1031A0000133FB73FB7B072BEDD9012306E004F011
:1031B000FBFA03461AB27B685A8702231846143773
:1031C000BD4690BD80B483B000AF7860054A7B688F
:1031D0001C3332F9133018460C37BD465DF8047BBA
:1031E000704700BFB843002080B487B000AFF860DC
:1031F000B96011461A460B46FB801346BB80164A3F
:10320000FB68143332F91330BB82134ABB681433A2
:1032100032F91330FB82B7F91430B7F904209A421F
:1032200010DCB7F91430B7F906209A420ADBB7F977
:1032300014301A46B7F91630D31A002BB8BF5B42C8
:10324000322B01DD012300E0002318461C37BD4668
:103250005DF8047B704700BFB843002080B483B0A2
:1032600000AF7860054A7B68143332F91330184692
:103270000C37BD465DF8047B704700BFB8430020A3
:1032800080B500AF02F046F902F0D6FEFFF730FF3E
:1032900000F0A0F800F0FCFC02F02EFD00BF80BDA5
:1032A00080B500AF012000F0B7F8042002F064F907
:1032B000022002F0E7FE0320FFF73CFF052000F0AC
:1032C00009FD062002F054FD00BF80BD80B500AFAF
:1032D00009F0A0FB00BF80BD80B582B000AF786070
:1032E000396004F0A3F905F0B5F904F063FE7B68DA
:1032F000012283F865207B68002283F86A2000BFE2
:103300000837BD4680BD000080B584B000AF78604E
:1033100039607B685B69FB607B685B6939687868EA
:1033200098470346FB72FB7A002B08D1FB680649DD
:10333000786898477B685B6904497868984700BF5C
:103340001037BD4680BD00BFD8310108C431010827
:1033500080B584B002AF786039607B68002B03D100
:103360000021194803F042FE78683B685A683B68C0
:103370009B6800931346154A154909F099FB3B6871
:103380001A687B685A617B6818337A681721184677
:1033900009F0FAFB7B6828337A682021184609F087
:1033A000F3FB7B682833184609F030FC7B68183340
:1033B000184609F02BFC3B681A7B7B6883F8602079
:1033C00000BF0837BD4680BDB4310108093300088D
:1033D000D932000890B587B002AF122300930223C0
:1033E00024220949094808F05FFF094B3C460FCBEE
:1033F00084E80F003B4619460648FFF7A9FF00BFC7
:103400001437BD4690BD00BFBCE40020E0E40020BE
:10341000641401081C44002080B582B000AF03464C
:10342000FB71FB791946034809F05CFB00BF0837C4
:10343000BD4680BD1C44002080B582B000AF7860DE
:1034400039603B681B88192B12D0192B15DC012B16
:1034500002D0182B07D010E07B681833184609F00B
:10346000D5FB01230AE07B68064A5A61002305E088
:103470007B68054A5A61002300E00223184608379A
:10348000BD4680BD8D340008C536000890B58DB0AE
:1034900002AF786039603B681B88013B1F2B00F24C
:1034A000FB8001A252F823F0293500089936000864
:1034B000BB3500089936000899360008993600088F
:1034C00099360008993600089936000899360008A0
:1034D0009936000899360008993600089936000890
:1034E0009936000899360008993600089936000880
:1034F0009936000899360008993600089936000870
:103500004D3600089936000899360008D335000872
:10351000F33500081336000899360008993600087C
:10352000993600085F3600085E4B3B628C2300939F
:103530005D4B3A6A5D495E4808F02CFE7B681833A3
:10354000002244F62061184609F040FB7B6893F89E
:103550003A301946786800F076FA786800F08CFA0C
:103560007B68DB6BFB607B681B6C3B617B685B6C27
:103570007B617B681B8FBB617B6893F83A30FB6192
:103580007B6893F83B30184604F0BAF807F10C0357
:10359000184604F0D7FC7B68283301220121184625
:1035A00009F014FB434B00221A8004F0B7FE7B683D
:1035B000002283F8602001236FE07B6818331846EF
:1035C00009F024FB7B682833184609F01FFB012310
:1035D00063E07B6893F86030002B04D17B680122A4
:1035E00083F8602003E07B68032283F860200123D6
:1035F00053E07B6893F86030012B04D17B68022292
:1036000083F8602003E07B68032283F860200123B5
:1036100043E07B6893F86030022B04D17B6805227D
:1036200083F8602003E07B68032283F860201D4B51
:103630007B62C92300931C4B7A6A1F491C4808F01F
:10364000A9FD7B681D4A5A61002326E07B6804229D
:1036500083F860207B68194A5A6100231DE0154BEE
:103660001B88B3F5804F10D2124B1B885A1C91B2A5
:10367000104A11801C4604F0A3F803461A46104B6A
:1036800023F8142004F030F904E07B68283318464E
:1036900009F0BCFA012300E0022318462C37BD468E
:1036A00090BD00BF741401087C140108A414010823
:1036B00054E60020A4E40020C414010839340008B2
:1036C000A464002080B582B000AF786039603B68A8
:1036D0001B88013B1E2B00F2AA8001A252F823F0A6
:1036E0005D3700082F3800082F3800082F380008F1
:1036F0002F3800082F3800082F3800082F3800080E
:103700002F3800082F3800082F3800082F380008FD
:103710002F3800082F3800082F3800082F380008ED
:103720002F3800082F3800082F3800082F380008DD
:103730002F3800082F3800082F3800082F380008CD
:103740002F3800082F3800082F3800082F380008BD
:10375000B1370008CB370008833700087B6818337F
:10376000184609F053FA7B689B6D334A93607B6877
:103770005B6D314A53603149314809F0DDF901236D
:1037800056E02D4B9B68B3F5805F28BF4FF4805304
:103790009AB22C4B1A80284B5B685B00294A12882E
:1037A00052001146284A184604F086FF01233FE0E4
:1037B000264B1868234B1B881A467B6893F85D30AC
:1037C000214902F049FA012332E01B4B9B681D4A54
:1037D00012889B1A184A9360174B5B68194A128823
:1037E0001344154A5360144B9B68002B16D0124BA0
:1037F0009B68B3F5805F28BF4FF480539AB2114B9A
:103800001A800D4B5B685B000E4A1288520011460D
:103810000D4A184604F050FF012309E00C490848FE
:1038200009F08AF97B680B4A5A61002300E0022301
:1038300018460837BD4680BD904400201432010868
:10384000B4E50020A0640020A04400200400002073
:10385000183201083934000880B584B000AFF86030
:10386000B9607A60FB70FB687A681A65FB68BA68B1
:103870005A65FB687A689A65FB68FA7883F85D2078
:10388000074B1B684FF6FF72A3F84220FB680549FF
:10389000184609F051F9002318461037BD4680BD7F
:1038A000040000200032010880B582B000AF7860CB
:1038B0007B68DA6E7B681A657B6800225A657B68D4
:1038C000DA6E7B689A657B68012283F85D20084B7D
:1038D0001B684FF6FF72A3F842207B680549184623
:1038E00009F02AF9002318460837BD4680BD00BFFD
:1038F000040000200032010880B584B000AFF860F9
:10390000B9607A60BB68012B02D87B68642B01D94F
:10391000062318E0FB6893F86530002B06D00020E2
:1039200003F040FEFB68002283F865207968B868E0
:1039300003F026FF7B68D9B2FA68BB681344613391
:103940000A461A70002318461037BD4680BD80B560
:1039500082B000AF786039603B68242B01D9062320
:1039600014E07B6893F86530012B06D0012003F04A
:1039700019FE7B68012283F86520386803F08CFE0D
:103980003B68DAB27B6883F8632000231846083767
:10399000BD4680BD80B582B000AF78607B6893F88B
:1039A0006530012B06D0012003F0FCFD7B6801226D
:1039B00083F8652003F080FE7B68FF2283F8632094
:1039C000002318460837BD4680BD80B582B000AFE1
:1039D000786039603B68082B01D9062314E07B68C6
:1039E00093F86530012B06D0012003F0DBFD7B68E6
:1039F000012283F86520386803F068FE3B68DAB27C
:103A00007B6883F86420002318460837BD4680BDD4
:103A100080B582B000AF78607B6893F86530012B89
:103A200006D0012003F0BEFD7B68012283F86520EB
:103A300003F05CFE7B68FF2283F8642000231846B5
:103A40000837BD4680BD80B582B000AF7860396070
:103A50003B68242B01D906230AE004F03BFB3868BD
:103A600004F060FB3B68DAB27B6883F866200023D1
:103A700018460837BD4680BD80B582B000AF78607B
:103A800004F03CFB002318460837BD4680BDB0B4A7
:103A900083B000AF786039603B681B88002B04D08E
:103AA0003B681B88B3F57A7F01D9062328E03B6881
:103AB0009B78002B03D03B689B78242B01D90623ED
:103AC0001EE03B68DB78642B01D9062318E03B68D5
:103AD0001B69B3F5006F01D9062311E03B685B69F0
:103AE000002B01D106230BE07B683A6803F1380410
:103AF00015460FCD0FC495E8030084E803000023AA
:103B000018460C37BD46B0BC7047B0B483B000AFA8
:103B1000786039603A687B68154603F138040FCC49
:103B20000FC594E8030085E8030000BF0C37BD46CD
:103B3000B0BC704780B584B000AF78607B68383324
:103B4000FB60FB681B88002B04D0FB681B88B3F567
:103B50007A7F01D906231CE0FB689B78002B03D0F9
:103B6000FB689B78242B01D9062312E0FB68DB78E5
:103B7000642B01D906230CE0FB681B69B3F5006FC9
:103B800001D9062305E07B680449184608F0D4FFF4
:103B9000002318461037BD4680BD00BFEC31010838
:103BA00080B500AF054BDB69184608F028FB034BD6
:103BB000DB69184608F045FB00BF80BDFCE400202F
:103BC00080B582B000AF786039607B6818331846E2
:103BD00009F01CF800BF0837BD4680BD80B584B031
:103BE00000AF786039607B685B69FB607B685B690C
:103BF0003968786898470346FB72FB7A002B08D136
:103C0000FB680649786898477B685B69044978686F
:103C1000984700BF1037BD4680BD00BF4032010845
:103C20002C32010880B584B002AF786039607B68BF
:103C3000002B03D10021134803F0D8F978683B68C2
:103C40005A683B689B68009313460F4A0F4908F077
:103C50002FFF7B6818337A681321184608F094FF09
:103C60003B681A687B685A617B68002283F82820C9
:103C70007B681833184608F0C9FF00BF0837BD46F7
:103C800080BD00BF1C320108DD3B0008C13B0008BD
:103C900080B586B002AF1223009302232422094983
:103CA000094808F001FB094A3B1D07CA83E80700E1
:103CB0003B1D19460648FFF7B5FF00BF1037BD464C
:103CC00080BD00BF70E5002094E50020E0140108ED
:103CD00030E5002080B582B000AF0346FB71FB7970
:103CE0001946034808F0FEFE00BF0837BD4680BDF8
:103CF00030E5002080B586B002AF786039603B685F
:103D00001B88012B02D0132B02D02FE001232EE0C1
:103D10007B6893F82830002B13D1174BBB605E23D0
:103D20000093164BBA681649164808F033FA164B3A
:103D30001B68184602F04CFE7B68012283F828209D
:103D400012E00D4BFB60642300930C4BFA680F49A3
:103D50000C4808F01FFA0C4B1B68184602F0C2FE14
:103D60007B68002283F82820012300E00223184604
:103D70001037BD4680BD00BFEC140108F4140108E3
:103D80002415010854E60020080000203C15010815
:103D900080B500AF42F2107242F21071024808F092
:103DA00015FF0023184680BD48E5002080B500AF10
:103DB000054808F02BFF054B1B68184602F092FEE1
:103DC0000023184680BD00BF48E500200800002001
:103DD00080B400AFBFF34F8F00BF064BDB6803F426
:103DE000E0620449044B1343CB60BFF34F8F00BF25
:103DF00000BFFDE700ED00E00400FA0580B588B0E3
:103E000000AFF860B9607A6007F11403074A0A212D
:103E100018460BF0D3F907F114031946F86806F0B9
:103E200082FD00BF2037BD4680BD00BF401F010896
:103E300080B584B000AFF860B9607A60FFF7C8FF62
:103E400080B588B000AFF860B9607A600023BB61CC
:103E50000023FB82B86806F057FE03467B757B7D26
:103E6000012B04D02E49F86807F0D4FF54E001215B
:103E7000B86806F013FE38613B691B78612B22D1CC
:103E80000023FB771BE0FB7F1846FFF7E7F90346AB
:103E9000FB82B7F9163013F5004F06D1FB7F1A46A7
:103EA0002049F86807F0B6FF06E0FA7FB7F9163048
:103EB0001D49F86807F0AEFFFB7F0133FB77FB7FFE
:103EC000072BE0D928E03B691B782F2B20D93B69D1
:103ED0001B78372B1CD838690AF098FB0346BB6166
:103EE000B869FFF7BBF90346FB82B7F9163013F543
:103EF000004F05D1BA690B49F86807F08BFF0BE05A
:103F0000B7F91630BA690849F86807F083FF03E08B
:103F10000649F86807F07EFF2037BD4680BD00BF28
:103F2000481F0108681F01087C1F0108901F010835
:103F300080B588B000AFF860B9607A60B86806F004
:103F4000E3FD0346FB61FB69012B04D01549F868CA
:103F500007F060FF23E0144B1B68184602F0F2FCE8
:103F6000034683F00103DBB2002B04D00F49F8684D
:103F700007F050FF13E00121B86806F08FFDB8612B
:103F8000B8690AF043FB03467B61074B1B687969FC
:103F9000184602F0E8FF0649F86807F03BFF2037B3
:103FA000BD4680BD481F01080C000020A41F010869
:103FB000F01F010880B584B000AFF860B9607A6086
:103FC0000A4B1B68184602F0E7FF0346002B04D09B
:103FD0000749F86807F01EFF03E00649F86807F094
:103FE00019FF00BF1037BD4680BD00BF0C00002088
:103FF000F01F0108F81F010880B588B000AFF86015
:10400000B9607A60B86806F07FFD0346BB61BB69A2
:10401000012B04D03849F86807F0FCFE69E0374B03
:104020001B68184602F08EFC034683F00103DBB2E6
:10403000002B04D03249F86807F0ECFE59E001216A
:10404000B86806F02BFD786100233B617B691B7823
:10405000612B25D10023FB611EE0284B1B68F96909
:10406000184602F02BFC38613B69002B0CD1234B26
:104070001B680022F969184602F040FCFA692149E0
:10408000F86807F0C7FE04E0FA691F49F86807F00E
:10409000C1FEFB690133FB61FB69032BDDD928E01D
:1040A0007B691B782F2B24D97B691B78332B20D875
:1040B00078690AF0ABFA0346FB61104B1B68F9699B
:1040C000184602F0FBFB38613B69002B0CD10B4B0F
:1040D0001B680022F969184602F010FCFA690949C8
:1040E000F86807F097FE04E0FA690749F86807F0F6
:1040F00091FE2037BD4680BD481F01080C000020FE
:1041000000200108482001085C20010880B588B023
:1041100000AFF860B9607A60B86806F0F5FC034655
:10412000FB61FB69012B04D01549F86807F072FEAA
:1041300022E00121B86806F0B1FCB861B8690AF064
:1041400065FA0346FB82FB8AB3F5FA7F04D3FB8A48
:1041500040F6B832934204D90A49F86807F05AFE8B
:104160000AE0094B1B68FA8A1146184602F04BFD1B
:104170000649F86807F04EFE2037BD4680BD00BFF7
:10418000742001089C2001080C000020F01F010889
:1041900080B586B000AFF860B9607A60084B1B68E4
:1041A000184602F0D0FA0346FB82FB8A1A460549FC
:1041B000F86807F02FFE00BF1837BD4680BD00BF6E
:1041C0000C000020D020010880B588B000AFF86056
:1041D000B9607A60B86806F097FC0346BB61BB69BA
:1041E000042B04D03149F86807F014FE5BE0304B33
:1041F0001B68184602F09CFC0346FB750023FB611C
:104200004AE0FB699BB201339BB21946B86806F0DD
:1042100045FC034618460AF0F9F90346D9B207F1FE
:104220001002FB6913440A461A7007F11002FB6979
:1042300013441B78012B05D9FA691E49F86807F069
:10424000E9FD30E007F11002FB6913441B78002BF5
:1042500008D1174B1B68FA69D2B21146184602F012
:10426000A2FC16E0FB7DFA699A4205D1FA6912496F
:10427000F86807F0CFFD0CE00D4B1B68FA69D2B26D
:104280001146184602F06EFCFA690C49F86807F00E
:10429000C1FDFB690133FB61FB69032BB1D90849FF
:1042A000F86807F0B7FD2037BD4680BDF42001084F
:1042B0000C00002018210108402101086421010898
:1042C000F01F010880B586B000AFF860B9607A6071
:1042D000134B1B68184602F089FC0346FB7400234D
:1042E0007B6115E0FA7C7B6942FA03F303F001037A
:1042F000002B05D07A690B49F86807F08BFD04E0C4
:104300007A690949F86807F085FD7B6901337B61AB
:104310007B69032BE6D900BF00BF1837BD4680BDBF
:104320000C000020642101087C21010880B58CB0BC
:1043300000AFF860B9607A60354B1B68184602F030
:1043400001FB034683F00103DBB2002B04D03149AB
:10435000F86807F05FFD58E0B86806F0D5FB034643
:10436000FB62FB6A032B04D02B49F86807F052FD6F
:104370004BE00121B86806F091FBB862B86A0AF018
:1043800045F903467B627B6A032B04D92349F8680D
:1043900007F040FD39E00221B86806F07FFB386283
:1043A000386A0AF033F90346FB61FB69012B04D933
:1043B0001B49F86807F02EFD27E00321B86806F0D6
:1043C0006DFBB861B8690AF021F90346FB82FB8AEC
:1043D00040F6B832934204D91249F86807F01AFD42
:1043E00013E00B4B1868FB8AFA69796A02F03BFD0F
:1043F00038613B69002B04D00B49F86807F00AFDCF
:1044000003E00A49F86807F005FD3037BD4680BD76
:104410000C00002094210108B8210108E4210108C2
:10442000082201082C220108F81F0108F01F0108CA
:1044300080B58AB000AFF860B9607A602A4B1B681B
:10444000184602F07FFA034683F00103DBB2002B2B
:1044500004D02649F86807F0DDFC41E0B86806F0B2
:1044600053FB03467B627B6A022B04D02049F86829
:1044700007F0D0FC34E00121B86806F00FFB386289
:10448000386A0AF0C3F80346FB61FB69032B04D9C1
:104490001849F86807F0BEFC22E00221B86806F06F
:1044A000FDFAB861B8690AF0B1F803467B610E4BBA
:1044B00018687B69002B14BF01230023DBB21A4666
:1044C000F96902F01BFA38613B69002B04D00A49F4
:1044D000F86807F09FFC03E00849F86807F09AFCC9
:1044E0002837BD4680BD00BF0C0000209421010884
:1044F00058220108E4210108F81F0108F01F0108F3
:1045000080B58AB000AFF860B9607A60B86806F02C
:10451000FBFA03463B623B6A022B04D03549F8683C
:1045200007F078FC62E00121B86806F0B7FAF8619C
:10453000314B1B68184602F059FB0346FB76FB69BA
:104540001B786F2B07D1042387F827302B49F86895
:1045500007F060FC1EE0FB691B782F2B1AD9FB6962
:104560001B78332B16D8F8690AF050F8034687F801
:104570002730FA7E97F8273042FA03F303F001035D
:10458000002B07D097F827301A461D49F86807F026
:1045900041FC2BE00221B86806F080FA7861786966
:1045A0000AF034F803463B613B69B3F5FA7F04D364
:1045B0003B6940F6B832934204D91249F86807F0D3
:1045C00029FC13E00C4B1B6897F82720114618466E
:1045D00002F0CCF9084B1B683A6992B211461846B2
:1045E00002F0DAF90849F86807F014FC2837BD46EC
:1045F00080BD00BF782201080C000020A022010825
:10460000B82201089C200108F01F010880B584B081
:1046100000AFF860B9607A60FFF7BAFB0349F86849
:1046200007F0F8FB00BF1037BD4680BDF01F010842
:1046300080B584B000AFF860B9607A60FFF7B6FB70
:104640000349F86807F0E6FB00BF1037BD4680BDA0
:10465000F01F010880B586B000AFF860B9607A60DD
:104660000F4B1B68184602F063FA0346FB750C4BB0
:104670001B68184602F069FA0346BB82FB7D042BD7
:1046800004D10849F86807F0C5FB05E0FA7DBB8A4C
:104690000549F86807F0BEFB1837BD4680BD00BF6E
:1046A0000C000020A0220108DC22010880B588B09F
:1046B00000AFF860B9607A60B86806F025FA034682
:1046C000FB61FB69012B04D01249F86807F0A2FBDB
:1046D0001CE00121B86806F0E1F9B861B86909F099
:1046E00095FF0346FB75FB7D642B04D90A49F868E6
:1046F00007F090FB0AE0094B1B68FA7D114618464B
:1047000002F09DFA0649F86807F084FB2037BD46A1
:1047100080BD00BF082301082C2301080C000020E5
:10472000F01F010880B586B000AFF860B9607A600C
:10473000084B1B68184602F098FA0346FB75FB7D90
:104740001A460549F86807F065FB00BF1837BD46F3
:1047500080BD00BF0C0000205023010880B588B048
:1047600000AFF860B9607A60B86806F0CDF903462A
:10477000BB61BB69042B04D02649F86807F04AFBEB
:1047800045E00023FB613BE0FB699BB201339BB238
:104790001946B86806F082F90346184609F036FF54
:1047A0000346D9B207F11402FB6913440A461A7092
:1047B00007F11402FB6913441B78012B05D9FA6930
:1047C0001549F86807F026FB21E007F11402FB69A0
:1047D00013441B78002B08D1104B1B68FA69D2B226
:1047E0001146184602F06FFA07E00C4B1B68FA6995
:1047F000D2B21146184602F045FAFB690133FB615B
:10480000FB69032BC0D90649F86807F003FB203782
:10481000BD4680BD6C230108182101080C00002052
:10482000F01F010880B586B000AFF860B9607A600B
:10483000124B1B68184602F069FA0346FB7400230A
:104840007B6113E0FA7C7B6942FA03F303F0010316
:10485000002B04D00A49F86807F0DCFA03E00949A4
:10486000F86807F0D7FA7B6901337B617B69032B1A
:10487000E8D900BF00BF1837BD4680BD0C0000203E
:1048800094230108AC23010880B58AB000AFF8601A
:10489000B9607A60B86806F037F903467B627B6AD4
:1048A000022B04D01E49F86807F0B4FA34E0012165
:1048B000B86806F0F3F83862386A09F0A7FE0346D4
:1048C000FB83B7F91E30B3F57A7F04DD1549F8682C
:1048D00007F0A0FA20E00221B86806F0DFF8B8611E
:1048E000B86909F093FE0346FB82B7F9163013F559
:1048F0007A7F04DA0C49F86807F08CFA0CE00B4B6D
:104900001B68B7F91620B7F91E10184602F02CFAEA
:104910000749F86807F07EFA2837BD4680BD00BF1A
:10492000C8230108002401082C2401080C000020E1
:10493000F01F010880B586B000AFF860B9607A60FA
:104940000C4B1B6807F114021146184602F022FABC
:10495000B7F914301A460849F86807F05BFAB7F956
:1049600016301A460549F86807F054FA00BF1837A0
:10497000BD4680BD0C0000205C2401087C24010899
:1049800080B588B000AFF860B9607A60B86806F0AA
:10499000BBF80346FB61FB69012B04D00E49F868A4
:1049A00007F038FA15E00121B86806F077F8B86129
:1049B000B86909F02BFE0346FB82084B1B68B7F968
:1049C00016201146184602F0FBF90549F86807F071
:1049D00021FA2037BD4680BD9C2401080C00002030
:1049E000F01F010880B586B000AFF860B9607A604A
:1049F000084B1B68184602F0F3F90346FB82B7F92F
:104A000016301A460449F86807F004FA00BF183750
:104A1000BD4680BD0C000020C424010880B58AB0CA
:104A200000AFF860B9607A60B86806F06DF80346C8
:104A30007B627B6A022B04D01C49F86807F0EAF914
:104A400030E00121B86806F029F83862386A09F0C8
:104A5000DDFD0346FB61FB69072B04D91449F868A7
:104A600007F0D8F91EE00221B86806F017F8B8611F
:104A7000B86909F0CBFD03467B617B69072B04D93C
:104A80000C49F86807F0C6F90CE00B4B1B68FA6993
:104A9000D1B27A69D2B2184602F045F90749F868EE
:104AA00007F0B8F92837BD4680BD00BFE4240108EF
:104AB000FC240108202501080C000020F01F01083B
:104AC00080B586B000AFF860B9607A600023BB8221
:104AD0000B4B1B6807F114021146184602F08DF9C2
:104AE0003B7D1A460749F86807F094F97B7D1A4622
:104AF0000549F86807F08EF900BF1837BD4680BD3C
:104B00000C000020442501085825010880B588B014
:104B100000AFF860B9607A60B86805F0F5FF034649
:104B2000FB61FB69012B04D01249F86807F072F9A8
:104B30001CE00121B86805F0B1FFB861B86909F05F
:104B400065FD0346FB75FB7D012B04D90A49F86816
:104B500007F060F90AE0094B1B68FA7D1146184618
:104B600002F061F90649F86807F054F92037BD46AC
:104B700080BD00BF6C250108842501080C000020C1
:104B8000F01F010880B586B000AFF860B9607A60A8
:104B90000A4B1B68184602F05AF90346FB75FB7D69
:104BA000002B01D0064B00E0064B1A460649F86878
:104BB00007F030F900BF1837BD4680BD0C0000205B
:104BC000B0250108B4250108B825010880B584B0D6
:104BD00000AFF860B9607A60064B1B68184601F0B8
:104BE000BFFD0549F86807F015F900BF1037BD464D
:104BF00080BD00BF0C000020F01F010880B584B00C
:104C000000AFF860B9607A60064B1B68184601F087
:104C1000C3FD0549F86807F0FDF800BF1037BD4631
:104C200080BD00BF0C000020F01F010880B588B0D7
:104C300000AFF860B9607A60B86805F065FF0346B8
:104C4000FB61FB69012B04D01349F86807F0E2F817
:104C50001EE00121B86805F021FFB861B86909F0CC
:104C6000D5FC0346FB82B7F91630642B04DD0B49F3
:104C7000F86807F0CFF80BE0094B1B68B7F916206E
:104C800000211846FEF738FE0649F86807F0C2F81A
:104C90002037BD4680BD00BFD4250108FC25010892
:104CA00010000020F01F010880B588B000AFF86048
:104CB000B9607A60B86805F027FF0346FB61FB69BD
:104CC000012B04D01349F86807F0A4F81EE0012175
:104CD000B86805F0E3FEB861B86909F097FC0346CF
:104CE000FB82B7F91630642B04DD0B49F86807F036
:104CF00091F80BE0094B1B68B7F916200121184603
:104D0000FEF7FAFD0649F86807F084F82037BD463B
:104D100080BD00BF20260108FC25010810000020EE
:104D2000F01F010880B588B000AFF860B9607A6004
:104D30000023BB83B86805F0E7FE0346FB76FB7EE5
:104D4000012B04D02749F86807F064F846E00121F8
:104D5000B86805F0A3FE78617B691B78612B1AD1D6
:104D60000023FB7713E0FB7F1846FEF72BFA034680
:104D7000BB83FB7F002B01D11B4A00E01B4ABB8B8E
:104D80001B49F86807F046F8FB7F0133FB77FB7F90
:104D9000012BE8D922E07B691B782F2B1AD97B697C
:104DA0001B78312B16D8786909F030FC0346FB7468
:104DB000FB7C1846FEF706FA0346BB83FB7C002B00
:104DC00001D1094A00E0094ABB8B0949F86807F09C
:104DD00021F803E00749F86807F01CF82037BD46C2
:104DE00080BD00BF481F0108682601086C26010825
:104DF00070260108901F010880B588B000AFF860E8
:104E0000B9607A60B86805F07FFE0346FB61FB6914
:104E1000012B04D01349F86806F0FCFF1EE00121C5
:104E2000B86805F03BFEB861B86909F0EFFB78613E
:104E30007B69242B02DC7B69002B04DC0A49F868BF
:104E400006F0E8FF0AE0094B1B687A69114618462C
:104E5000FEF77DFD0649F86806F0DCFF2037BD4609
:104E600080BD00BF8C260108B0260108100000207C
:104E7000F01F010880B588B000AFF860B9607A60B3
:104E8000B86805F041FE0346FB61FB69012B04D0C5
:104E90001349F86806F0BEFF1EE00121B86805F06E
:104EA000FDFDB861B86909F0B1FB78617B69082B39
:104EB00002DC7B69002B04DC0A49F86806F0AAFFD3
:104EC0000AE0094B1B687A6911461846FEF77DFD1A
:104ED0000649F86806F09EFF2037BD4680BD00BF3A
:104EE000D4260108F826010810000020F01F010850
:104EF00080B584B000AFF860B9607A60064B1B687B
:104F00001846FEF747FD0549F86806F083FF00BF25
:104F10001037BD4680BD00BF10000020F01F010803
:104F200080B584B000AFF860B9607A60064B1B684A
:104F30001846FEF76DFD0549F86806F06BFF00BFE7
:104F40001037BD4680BD00BF10000020F01F0108D3
:104F500080B592B000AFF860B9607A60B86805F0CB
:104F6000D3FD03467B647B6C062B04D06949F8684B
:104F700006F050FFCBE00121B86805F08FFD034635
:104F8000184609F043FB03463B643B6CB3F57A7F5C
:104F900003D33B6C604A934204D96049F86806F039
:104FA00039FFB4E03B6C5E4AA2FB03239B093B64E0
:104FB0000221B86805F072FD0346184609F026FB89
:104FC0000346FB63FB6B002B02D0FB6B242B04D945
:104FD0005449F86806F01EFF99E00321B86805F00F
:104FE0005DFD0346184609F011FB0346BB63BB6B2E
:104FF000642B04D94C49F86806F00CFF87E00421C3
:10500000B86805F04BFD0346184609F0FFFA034661
:105010007B637B6B002B04D14449F86806F0FAFEF1
:1050200075E07B6B4FF47A7202FB03F37B6305211F
:10503000B86805F033FD0346184609F0E7FA034661
:105040003B633B6B002B04D13949F86806F0E2FE64
:105050005DE03B6B4FF47A7202FB03F33B63062186
:10506000B86805F01BFD0346184609F0CFFA034661
:10507000FB62FB6A002B04D12E49F86806F0CAFED9
:1050800045E0FB6A4FF47A7202FB03F3FB627A6B32
:105090003B6B1A44FB6A13443A6C02FB03F3264A47
:1050A000A2FB03239B0CBB62BB6AB3F5006F04D960
:1050B0002249F86806F0AEFE29E03B6C9BB23B82C9
:1050C000FB6BDBB2BB74BB6BDBB2FB747B6B7B61DA
:1050D0003B6BBB61FB6AFB61BB6A3B62184A3B6C82
:1050E000B2FBF3F37B62174B1B6807F1100211460A
:1050F0001846FEF7CCFC0346002B04D11249F86891
:1051000006F088FE03E01149F86806F083FE483790
:10511000BD4680BD1827010800350C00782701081E
:10512000D34D6210A0270108BC270108DC27010825
:10513000002801082828010883DE1B434C280108A9
:1051400040420F0010000020F01F0108F81F010866
:10515000F0B591B006AFF860B9607A60184B1B6883
:1051600007F1100211461846FEF7CFFC3B8A1A469B
:105170004FF47A7303FB02F4BB7C1E46FB7C1D4696
:105180007B69104AA2FB03239B09BA690D49A1FB65
:1051900002129209F9690B48A0FB01018909386ADA
:1051A00004900391029201930095334622460649EA
:1051B000F86806F02FFE00BF2C37BD46F0BD00BFDB
:1051C00010000020D34D62107428010880B584B00F
:1051D00000AFF860B9607A60094B1B681846FEF7AB
:1051E000A9FC0346002B04D00649F86806F012FE1D
:1051F00002E0054B01221A7000BF1037BD4680BD8A
:105200001000002010290108B0E5002080B588B00A
:1052100000AFF860B9607A60B86805F075FC0346C5
:10522000FB61FB69032B04D03349F86806F0F2FDFB
:105230005FE0324B1B6893F86030052B10D02F4B8A
:105240001B6893F86030032B0AD02C4B1B6893F833
:105250006030042B04D02A49F86806F0DBFD48E0F2
:105260000121B86805F01AFC0346184609F0CEF98A
:105270000346BB61BB69B3F5001F04D32149F8683D
:1052800006F0C8FD35E00221B86805F007FC0346CA
:10529000184609F0BBF903467B61BB69C3F50013EF
:1052A0007A699A4203D87B69B3F5007F08D2BB695B
:1052B000C3F500131A461449F86806F0ABFD18E070
:1052C0000321B86805F0EAFB0346184609F09EF989
:1052D0000346FB74FB7C012B04D90C49F86806F0EB
:1052E00099FD06E0054B1868FB7C7A69B969FEF701
:1052F000B3FA2037BD4680BD3029010810000020D8
:105300006829010888290108B4290108E029010851
:1053100080B584B000AFF860B9607A60084B1B7844
:10532000002B05D0074B1B681846FEF7BDFA04E0BA
:105330000549F86806F06EFD00BF1037BD4680BD18
:10534000B0E5002010000020182A010880B400AF4A
:10535000024B1846BD465DF8047B70475432010885
:1053600080B400AF2B231846BD465DF8047B704720
:1053700080B483B000AF78607B68DB6903F0200302
:10538000202B01D1012300E0002318460C37BD4635
:105390005DF8047B704780B483B000AF78607B68B1
:1053A0005B6ADBB218460C37BD465DF8047B70477C
:1053B00080B500AF4FF480620849094807F09AF8B9
:1053C0004FF480520749084807F094F8064B044A06
:1053D0000649074806F015FE00BF80BD8CE6002098
:1053E00064E600208CEA002078E6002000140140EA
:1053F00054E60020B0B588B000AF1B4B3C1D1D46E5
:105400000FCD0FC495E8070084E80700FFF79EFF63
:105410000346BB61FFF7A4FF0346BB833B1D184651
:1054200005F03FF90346114A1360104B1B68002B2F
:1054300005D101210E4801F0D9FD012310E00B4BED
:105440001B680C4A1A60094B1C683B1D184605F086
:10545000F7F803461A460849204606F0DBFC00230D
:1054600018462037BD46B0BD5C2A010890FA0020DE
:105470005C3601087D5400083C2A010880B582B0E2
:1054800000AF78600B46FB70FB781946034806F0C6
:105490003BFE00BF0837BD4680BD00BF54E600207C
:1054A00080B584B002AF786039607B68002B03D18F
:1054B0000021154801F09AFD78683B68DA683B687E
:1054C0001B6900931346114A114907F0F1FA7B68F2
:1054D00020337A680621184607F056FB3B685A6865
:1054E0007B68DA613B689A687B689A613B681A68F6
:1054F0007B685A617B682033184607F087FB00BF42
:105500000837BD4680BD00BF5C360108D555000890
:105510009955000880B588B002AFFFF749FF022314
:1055200000931E233C220D490D4806F0BDFEFFF7F7
:1055300061FF0C4B7B600C4B1B68BB600B4BFB6033
:105540000B4B3B61064B7B613B1D19460948FFF73E
:10555000A7FF00BF1837BD4680BD00BFFCE5002097
:1055600038E600201D56000890FA002054E600207E
:10557000F8E50020B4E5002080B582B000AF034616
:10558000FB71FB791946034807F0ACFA00BF0837F6
:10559000BD4680BDB4E5002080B582B000AF786024
:1055A00039607B68002B03D10721094801F01EFDFB
:1055B0007B689B69184606F040FD7B6820330A2211
:1055C0000A21184607F002FB00BF0837BD4680BD20
:1055D0005C36010880B584B000AF786039607B68C4
:1055E0005B69FB607B685B6939687868984703464C
:1055F000FB72FB7A002B08D1FB6806497868984754
:105600007B685B6904497868984700BF1037BD46DE
:1056100080BD00BF683601086436010880B582B0DD
:1056200000AF786039607B68002B03D103212448E8
:1056300001F0DCFC3B68002B03D10421204801F081
:10564000D5FC3B681B88013B072B34D801A252F8DC
:1056500023F000BF75560008B756000887560008AB
:10566000B7560008B756000895560008A35600081C
:10567000AD5600087B6820330A220A21184607F03D
:10568000A5FA012318E07B682033184607F0BEFA1C
:10569000012311E00B4B1B68184605F0B4F80123F9
:1056A0000AE07B68084A5A61002305E07B68074AE4
:1056B0005A61002300E0022318460837BD4680BD2A
:1056C0005C36010890FA0020615700087158000804
:1056D00080B582B000AF0B48FFF74AFE0346002BAF
:1056E0000BD00848FFF757FE0346FB71064B1B68BB
:1056F000FA791146184605F063F800BF0837BD4631
:1057000080BD00BF0014014090FA002080B584B035
:1057100000AF78607B689B69184606F092FDF860E0
:10572000FB68002B08D0064B1B78002B04D07B684D
:105730000449184607F000FA00BF1037BD4680BD87
:105740008CFA00206C36010880B500AFFFF7C0FF6F
:105750000248FFF7DBFF00BF80BD00BFB4E50020BB
:1057600080B584B000AF786039600023FB603B688F
:105770001B88012B27D0092B46D074E0786800F0F5
:105780000BFA1BE07B689A697B6893F83D301946F9
:105790007B680B4493F838301946104606F0B4FC89
:1057A000F860FB68002B01D001235DE07B6893F873
:1057B0003D300133DAB27B6883F83D207B6893F893
:1057C0003D30042BDED97B685B6B002BD6D11BE010
:1057D0007B689A697B6893F83D3019467B680B4477
:1057E00093F838301946104606F08EFCF860FB68D6
:1057F000002B01D0012337E07B6893F83D30013363
:10580000DAB27B6883F83D207B6893F83D30042B47
:10581000DED924E0786800F0BFF91BE07B689A6964
:105820007B6893F83D3019467B680B4493F8383019
:105830001946104606F068FCF860FB68002B01D0A2
:10584000012311E07B6893F83D300133DAB27B68C5
:1058500083F83D207B6893F83D30042BDED97B68CC
:105860005B6B002BD6D1022318461037BD4680BD96
:1058700080B586B000AF786039603B681B88013B1B
:105880000A2B00F2FD8001A252F823F0B95800085B
:10589000815A0008815A0008815A0008815A00087C
:1058A000815A0008815A0008815A0008C15900082D
:1058B00061590008375A0008744B1B6D5B00744A2D
:1058C0001A40744B13433B613B691B0CDBB23B73C7
:1058D0003B691B0ADBB27B733B69DBB2BB73002302
:1058E000FB750DE07B689A69FB7D18333B4413F828
:1058F0000C3C1946104606F007FCFB7D0133FB7596
:10590000FB7D022BEED96449604807F015F90123AD
:10591000B7E0786800F015F91DE07B689A697B684C
:1059200093F8403019467B680B4493F83E30194693
:10593000104606F0E9FB0346002B04D0574B01222A
:105940001A7001239DE07B6893F840300133DAB28E
:105950007B6883F840207B6893F84030012BDCD9CA
:105960007B685B6B002BD4D14D49484807F0E4F8C5
:10597000012386E07B689A697B6893F8403019467A
:105980007B680B4493F83E301946104606F0BCFB8A
:105990000346002B01D0012373E07B6893F840306D
:1059A0000133DAB27B6883F840207B685B6B002BA5
:1059B00006D13A4B00221A703949344807F0BCF836
:1059C0007B6893F84030012BD4D92EE0786800F042
:1059D000B8F81AE07B689A697B6893F840301946FA
:1059E0007B680B4493F83E301946104606F08CFB5A
:1059F0000346002B01D0012343E07B6893F840303D
:105A00000133DAB27B6883F840207B6893F840303A
:105A1000012BDFD97B685B6B002B06D11F4B00226B
:105A20001A701F49194807F087F87B685B6B002BD9
:105A3000CCD1012325E07B68B3F842301B0A9BB22E
:105A4000DBB23B737B68B3F84230DBB27B7300237D
:105A5000BB750DE07B689A69BB7D18333B4413F836
:105A60000C3C1946104606F04FFBBB7D0133BB755D
:105A7000BB7D012BEED97B680A4A5A61002300E006
:105A8000022318461837BD4680BD00BF1C440020C5
:105A9000FEFF3F000000C0FF783601088CFA0020AE
:105AA0008C3601081D56000880B485B000AF7860C0
:105AB0000B467B807B881B0A9BB2DBB23B737B88E7
:105AC000DBB27B730023FB7331E07B681B881AB267
:105AD000FB7B10333B4413F8043C1BB21B021BB28C
