:020000040800F2
:1000000000000820913000086D2E0008752E0008B1
:100010007D2E0008852E00088D2E000800000000AF
:10002000000000000000000000000000952E000805
:10003000A32E000800000000B12E0008BF2E00080B
:10004000E1300008E1300008E1300008E13000084C
:10005000E1300008E1300008E1300008E13000083C
:10006000E1300008E1300008E1300008E13000082C
:100070007DA30008E1300008E1300008E13000080D
:10008000E1300008E1300008E1300008E13000080C
:10009000E1300008E1300008E1300008E1300008FC
:1000A000E1300008C1A40008E1300008E130000898
:1000B0000DA50008E1300008E1300008E13000083B
:1000C000E1300008E1300008E1300008D32E0008DC
:1000D000E1300008E1300008E1300008E1300008BC
:1000E000E1300008E1300008E1300008E1300008AC
:1000F000E1300008E1300008E1300008E13000089C
:10010000E1300008E1300008E1300008E13000088B
:10011000E1300008E1300008E1300008E13000087B
:10012000F1990008C19800084D99000855AD0008E4
:10013000E1300008E1300008E1300008E13000085B
:10014000E1300008E1300008E1300008E13000084B
:10015000E1300008E1A60008E13000081D73000846
:10016000E1300008E1300008E1300008E13000082B
:10017000E1300008E1300008E13000080000000034
:10018000E1300008E130000839450008E13000089E
:10019000E1300008E1300008E1300008E1300008FB
:1001A0000000000000000000E1300008E13000081D
:1001B000E1300008E1300008E1300008E1300008DB
:1001C000E1300008E130000800000000E1300008E4
:1001D000E1300008E1300008E1300008E1300008BB
:1001E000E1300008E1300008E1300008E1300008AB
:0801F00000000000E1300008EE
:1002000010B5054C237833B9044B13B10448AFF350
:1002100000800123237010BDE04300200000000097
:100220007C4F010808B5034B1BB103490348AFF3EA
:10023000008008BD00000000E44300207C4F01085E
:1002400010F8012B11F8013B012A28BF9A42F7D080
:10025000D01A7047000000000000000000000000FD
:1002600001F0FF01102A2BDB10F0070F08D010F867
:10027000013B013A8B422DD010F0070F42B3F6D16B
:10028000F0B441EA012141EA014122F007047FF084
:1002900000070023F0E80256083C85EA010586EADB
:1002A000010685FA47F5A3FA87F586FA47F6A5FA17
:1002B00087F68EB9EED1F0BC01F0FF0102F0070223
:1002C00032B110F8013B013A83EA010313B1F8D1CE
:1002D0000020704701387047002D06BF35460338AF
:1002E000073815F0010F07D1013015F4807F02BFE8
:1002F000013015F4C03F0130F0BC0138704700BF39
:10030000034613F8012B002AFBD1181A0138704755
:100310007BB972B90029BEBF00204FF0004106E052
:1003200008BF00281CBF6FF000414FF0FF3000F005
:10033000BBB9ADF1080C6DE904CE002909DB002B37
:100340001ADB00F035F8DDF804E0DDE9022304B043
:100350007047404261EB4101002B1BDB00F028F8A5
:10036000DDF804E0DDE9022304B0404261EB410125
:10037000524263EB43037047524263EB430300F086
:1003800017F8DDF804E0DDE9022304B0404261EB38
:1003900041017047524263EB430300F009F8DDF876
:1003A00004E0DDE9022304B0524263EB43037047EB
:1003B0002DE9F047089D8E4604468846002B4AD119
:1003C0008A42174662D9B2FA82F64EB1C6F12003CC
:1003D00001FA06F820FA03F3B74043EA0808B440EC
:1003E0004FEA174E1FFA87FCB8FBFEF1230C0EFBF9
:1003F000118843EA084301FB0CF29A4209D9FB1821
:1004000001F1FF3080F0EA809A4240F2E780023941
:100410003B449A1AA3B2B2FBFEF00EFB102243EA51
:10042000024300FB0CFC9C4509D9FB1800F1FF328C
:1004300080F0D6809C4540F2D3803B44023840EAAD
:100440000140A3EB0C0300211DB1F3400022C5E9DC
:100450000032BDE8F0878B4205D90DB1C5E9000136
:1004600000210846F5E7B3FA83F1002946D1734528
:1004700002D3824200F20581841A6EEB030201204E
:100480009046002DE5D0C5E90048E2E7002A00F0DB
:100490009080B2FA82F6002E40F0A4808A1A030CF3
:1004A0004FEA174E80B2BCB20121B2FBFEFC0EFB3C
:1004B0001C2243EA024304FB0CF29A4207D9FB18C0
:1004C0000CF1FF3802D29A4200F2E080C4469B1A37
:1004D000B3FBFEF20EFB123340EA034302FB04F4CB
:1004E0009C4207D9FB1802F1FF3002D29C4200F275
:1004F000CA8002461B1B42EA0C40A5E7C1F1200658
:100500008B4022FA06F71F430EFA01F420FA06F395
:100510002EFA06FE4FEA1749234300FA01F81FFAA4
:1005200087FCBEFBF9F01C0C09FB10EE44EA0E44FC
:1005300000FB0CFEA64502FA01F209D93C1900F1B4
:10054000FF3A80F09C80A64540F2998002383C44F6
:10055000A4EB0E041FFA83FEB4FBF9F309FB13446A
:100560004EEA044403FB0CFCA44508D93C1903F1F2
:10057000FF3E80F08280A4457FD9023B3C4443EAA1
:100580000040A4EB0C04A0FB02EC64457346E1467A
:1005900062D35FD05DB1B8EB030264EB090404FAE7
:1005A00006F622FA01F31E43CC40C5E9006400219F
:1005B0004FE7B1FBF2FC010C41EA0E4180B240EA88
:1005C00001423B4638463C46B846BE462026B1FB73
:1005D000F7F1A2EB080241EA0C4166E7014618E791
:1005E00010462CE7C6F120022EFA02F3B740B140C4
:1005F00020FA02F24FEA174E0A43B3FBFEF8BCB2F0
:100600000EFB1833110C41EA034108FB04F9B0401A
:1006100089454FEA104380B23ED9791808F1FF3C72
:1006200001D289451FD8A1EB0901B1FBFEF909FBF5
:1006300004F80EFB191192B242EA0142424529D256
:10064000BA1809F1FF31C4D24245C2D2A9F1020160
:100650003A44BEE7F0459DD2BEEB02036CEB070CBB
:100660000138E14696E7A7EB09094944A8F1020CD5
:10067000B1FBFEF909FB04F8DBE773467FE7504660
:1006800066E70846FDE63B44023A33E7ACF1020C6C
:100690003B441CE749469CE7A1EB0901C446B1FB7A
:1006A000FEF909FB04F8C4E7704700BF80B400AF4F
:1006B000044BDB681B0A03F007031846BD465DF8D0
:1006C000047B704700ED00E080B483B000AF0346C8
:1006D000FB7197F90730002B0BDBFB7903F01F024E
:1006E000074997F907305B09012000FA02F241F847
:1006F000232000BF0C37BD465DF8047B704700BF68
:1007000000E100E080B483B000AF03463960FB71C4
:1007100097F90730002B0ADB3B68DAB20C4997F9EE
:1007200007301201D2B20B4483F800230AE03B6881
:10073000DAB20849FB7903F00F03043B1201D2B28D
:100740000B441A7600BF0C37BD465DF8047B70473A
:1007500000E100E000ED00E080B489B000AFF86097
:10076000B9607A60FB6803F00703FB61FB69C3F1C2
:100770000703042B28BF0423BB61FB690433062B4A
:1007800002D9FB69033B00E000237B614FF0FF329D
:10079000BB6902FA03F3DA43BB681A407B699A40EB
:1007A0004FF0FF317B6901FA03F3D9437B680B40BB
:1007B000134318462437BD465DF8047B704780B468
:1007C00089B000AFF860B9607A60FB682C331946D5
:1007D000BB6803F440734FF44072BA61BA6992FA8D
:1007E000A2F27A617A69B2FA82F2D2B2D3409B0065
:1007F0000B44FB61FB691A68BB6803F01F031F21F0
:1008000001FA03F3DB431A407B6803F01F01BB6866
:1008100003F01F0301FA03F31A43FB691A6000BFD8
:100820002437BD465DF8047B704780B483B000AFC9
:10083000786039607B689B6823F480623B681A4368
:100840007B689A6000BF0C37BD465DF8047B70473B
:1008500080B48DB000AFF860B9607A60FB680C338B
:100860001946BB6803F000734FF00072BA61BA69B1
:1008700092FAA2F27A617A69B2FA82F2D2B2D340E3
:100880009B000B44FB62FB6A1A68BB6803F0F873B9
:100890004FF0F8713962396A91FAA1F1F961F96999
:1008A000B1FA81F1C9B2CB40072101FA03F3DB436E
:1008B0001A40BB6803F0F8734FF0F871B962B96A77
:1008C00091FAA1F17962796AB1FA81F1C9B2CB40AA
:1008D000796801FA03F31A43FB6A1A6000BF3437E0
:1008E000BD465DF8047B704780B485B000AFF8600A
:1008F000B9607A600D4ABB6813441B781A46FB68DE
:1009000013441B6823F0C0020849BB680B441B78E2
:100910001946FB680B4419467B6813430B6000BF04
:100920001437BD465DF8047B704700BFF0720108C4
:1009300080B485B000AFF860B9607A600D4ABB68DA
:1009400013441B781A46FB6813441B6823F4907207
:100950000849BB680B441B781946FB680B441946D1
:100960007B6813430B6000BF1437BD465DF8047B02
:10097000704700BFF072010880B485B000AFF86026
:10098000B9607A600D4ABB6813441B781A46FB684D
:1009900013441B6823F400720849BB680B441B789E
:1009A0001946FB680B4419467B6813430B6000BF74
:1009B0001437BD465DF8047B704700BFF072010834
:1009C00080B485B000AFF860B9607A600D4ABB684A
:1009D00013441B781A46FB6813441B6823F4806297
:1009E0000849BB680B441B781946FB680B44194641
:1009F0007B6813430B6000BF1437BD465DF8047B72
:100A0000704700BFF072010880B485B000AFF86095
:100A1000B9607A600D4ABB6813441B781A46FB68BC
:100A200013441B6823F4C0520849BB680B441B786D
:100A30001946FB680B4419467B6813430B6000BFE3
:100A40001437BD465DF8047B704700BFF0720108A3
:100A500080B485B000AFF860B9607A600D4ABB68B9
:100A600013441B781A46FB6813441B6823F4C042E6
:100A70000849BB680B441B781946FB680B441946B0
:100A80007B6813430B6000BF1437BD465DF8047BE1
:100A9000704700BFF072010880B485B000AFF86005
:100AA000B9607A600D4ABB6813441B781A46FB682C
:100AB00013441B6823F440320849BB680B441B787D
:100AC0001946FB680B4419467B6813430B6000BF53
:100AD0001437BD465DF8047B704700BFF072010813
:100AE00080B485B000AFF860B9607A600D4ABB6829
:100AF00013441B781A46FB6813441B6823F0F0521A
:100B00000849BB680B441B781946FB680B4419461F
:100B10007B6813430B6000BF1437BD465DF8047B50
:100B2000704700BFF072010880B483B000AF7860F6
:100B300039600C4A3B6813441B781A467B6813449F
:100B40005B6908493A680A44127811467A680A448F
:100B500023F00403536100BF0C37BD465DF8047BEE
:100B6000704700BFF072010880B483B000AF7860B6
:100B70007B681B6843F001027B681A6000BF0C377A
:100B8000BD465DF8047B704780B483B000AF7860E9
:100B90007B681B6823F400327B681A6000BF0C3747
:100BA000BD465DF8047B704780B483B000AF7860C9
:100BB0007B681B6823F400227B681A6000BF0C3737
:100BC000BD465DF8047B704780B485B000AFF86027
:100BD000B9607A60FB68DA68064B1340B9687A68D6
:100BE0000A431A43FB68DA6000BF1437BD465DF85C
:100BF000047B704701F8FFFF80B483B000AF7860DA
:100C00007B68DB6823F400427B68DA6000BF0C3746
:100C1000BD465DF8047B704780B483B000AF786058
:100C20007B685B6843F000727B685A6000BF0C37DA
:100C3000BD465DF8047B704780B400AF054B1B6870
:100C4000044A43F48033136000BFBD465DF8047B63
:100C5000704700BF0038024080B400AF074B1B68EC
:100C600003F40033B3F5003F0CBF01230023DBB2D4
:100C70001846BD465DF8047B704700BF003802404F
:100C800080B483B000AF7860064B9B6823F003020A
:100C900004497B6813438B6000BF0C37BD465DF889
:100CA000047B70470038024080B400AF044B9B685F
:100CB00003F00C031846BD465DF8047B704700BF87
:100CC0000038024080B483B000AF7860064B9B6868
:100CD00023F0F00204497B6813438B6000BF0C379C
:100CE000BD465DF8047B70470038024080B483B095
:100CF00000AF7860064B9B6823F4E05204497B68A0
:100D000013438B6000BF0C37BD465DF8047B704712
:100D10000038024080B483B000AF7860064B9B6817
:100D200023F4604204497B6813438B6000BF0C3797
:100D3000BD465DF8047B70470038024080B483B044
:100D400000AF7860094BD3F890207B681B0CDB4325
:100D50001A407B689BB205491343C1F8903000BF2D
:100D60000C37BD465DF8047B704700BF0038024079
:100D700080B483B000AF7860094BD3F890207B68D3
:100D80001B0CDB431A407B689BB205491343C1F837
:100D9000903000BF0C37BD465DF8047B704700BF44
:100DA0000038024080B483B000AF7860094BD3F8BC
:100DB00090207968084B0B40DB431A407B681B048A
:100DC00004491343C1F8903000BF0C37BD465DF8AD
:100DD000047B7047003802400000FFFF80B483B0FE
:100DE00000AF7860074BD3F88C3023F08072054950
:100DF0007B681343C1F88C3000BF0C37BD465DF8EB
:100E0000047B70470038024080B400AF054B1B687C
:100E1000044A43F08073136000BFBD465DF8047B55
:100E2000704700BF0038024080B400AF074B1B681A
:100E300003F00073B3F1007F0CBF01230023DBB28A
:100E40001846BD465DF8047B704700BF003802407D
:100E500080B485B000AFF860B9607A603B600A4B3F
:100E60005A680A4B1340F968BA6811437A689201CC
:100E700011433A680A43044913434B6000BF1437D7
:100E8000BD465DF8047B7047003802400080BCFF1F
:100E900080B485B000AF7860084B1A6B07497B6857
:100EA00013430B63054B1A6B7B681340FB60FB68B5
:100EB00000BF1437BD465DF8047B70470038024020
:100EC00080B485B000AF7860084B1A6C07497B6826
:100ED00013430B64054B1A6C7B681340FB60FB6883
:100EE00000BF1437BD465DF8047B704700380240F0
:100EF00080B485B000AF7860084B5A6C07497B68B6
:100F000013434B64054B5A6C7B681340FB60FB68D2
:100F100000BF1437BD465DF8047B704700380240BF
:100F200080B483B000AF7860064B1B6823F00F02DB
:100F300004497B6813430B6000BF0C37BD465DF866
:100F4000047B7047003C024080B400AF044B1B6838
:100F500003F00F031846BD465DF8047B704700BFE1
:100F6000003C024080B400AF054B1B68044A43F4C8
:100F70008033136000BFBD465DF8047B704700BF3F
:100F80000070004080B483B000AF7860064B1B68EF
:100F900023F4404204497B6813430B6000BF0C37C5
:100FA000BD465DF8047B70470070004080B400AF20
:100FB000074B5B6803F48043B3F5804F0CBF0123FC
:100FC0000023DBB21846BD465DF8047B704700BFC6
:100FD0000070004080B483B000AF78607B681B680D
:100FE00043F040027B681A6000BF0C37BD465DF8D5
:100FF000047B704780B483B000AF786039607B6851
:101000005B6823F010023B681A437B685A6000BF9C
:101010000C37BD465DF8047B704780B483B000AFE9
:1010200078607B685B6843F008027B685A6000BFA9
:101030000C37BD465DF8047B704780B483B000AFC9
:1010400078607B685B6823F008027B685A6000BFA9
:101050000C37BD465DF8047B704780B483B000AFA9
:1010600078607B681B6843F080027B681A6000BF71
:101070000C37BD465DF8047B704780B483B000AF89
:1010800078607B681B6823F080027B681A6000BF71
:101090000C37BD465DF8047B7047000080B485B016
:1010A00000AF786039603B68012B28D03B68042B87
:1010B00023D03B68102B1ED03B68402B19D03B68D7
:1010C000B3F5807F13D03B68B3F5806F0DD03B68DC
:1010D000B3F5805F07D03B68B3F5803F01D10723AC
:1010E0000EE008230CE006230AE0052308E00423B1
:1010F00006E0032304E0022302E0012300E00023D2
:10110000FB737B6818331946FB7B0B4AD35C0B449B
:10111000BB60BB681A68FB7B0849CB5C194604239B
:101120008B40DB431A40BB681A6000BF1437BD46D2
:101130005DF8047B704700BFF87201080473010872
:1011400080B485B000AF786039603B68012B28D04F
:101150003B68042B23D03B68102B1ED03B68402BF0
:1011600019D03B68B3F5807F13D03B68B3F5806F2F
:101170000DD03B68B3F5805F07D03B68B3F5803F87
:1011800001D107230EE008230CE006230AE0052323
:1011900008E0042306E0032304E0022302E0012325
:1011A00000E00023FB737B6818331946FB7B0A4A77
:1011B000D35C0B44BB60BB681A68FB7B0749CB5C04
:1011C000194608238B401A43BB681A6000BF1437C6
:1011D000BD465DF8047B7047F8720108047301088E
:1011E00080B483B000AF786039607B689A68064B42
:1011F00013403A681A437B689A6000BF0C37BD46BB
:101200005DF8047B704700BFF8BFFEFF80B483B079
:1012100000AF786039607B685B6823F070023B68E0
:101220001A437B685A6000BF0C37BD465DF8047BEB
:10123000704780B483B000AF786039607B685B68CA
:1012400023F470023B681A437B685A6000BF0C3776
:10125000BD465DF8047B704780B483B000AF786012
:101260007B689B6823F080027B689A6000BF0C3724
:10127000BD465DF8047B704780B483B000AF7860F2
:101280007B681B6843F001027B681A6000BF0C3763
:10129000BD465DF8047B704780B483B000AF7860D2
:1012A00039607B681B6823F4F8123B681B041A43FF
:1012B0007B681A6000BF0C37BD465DF8047B704741
:1012C00080B483B000AF786039607B681B6823F01E
:1012D00078723B685B051A437B681A6000BF0C3765
:1012E000BD465DF8047B704780B483B000AF786082
:1012F0007B689B6843F480427B689A6000BF0C3730
:10130000BD465DF8047B704780B483B000AF786061
:1013100039607B689B6823F400423B681A437B6812
:101320009A6000BF0C37BD465DF8047B704780B4FF
:1013300083B000AF78607B685B6823F490427B6881
:101340005A607B689B6823F02A027B689A6000BF22
:101350000C37BD465DF8047B704780B483B000AFA6
:1013600078607B685B6823F490427B685A607B6896
:101370009B6823F022027B689A607B689B6843F03D
:1013800008027B689A6000BF0C37BD465DF8047B9D
:10139000704780B483B000AF786039607B683A688A
:1013A0009A6100BF0C37BD465DF8047B704780B47E
:1013B00083B000AF786039603B681A047B689A613B
:1013C00000BF0C37BD465DF8047B704780B500AFA9
:1013D0000EF030FE00F02CF801F04CFA01F0DEF9CE
:1013E00000F0E0FA00F052FB00F016FC00F0C6FC42
:1013F00000F072F800F040FD00F020FF00F0F8FF70
:1014000000F0B8FD01F06AF801F054F900F0B8F905
:1014100000F066FA00F08AFE00F0CEFE01F0E6F879
:1014200001F06CFF01F07EFF01F098FF00BFFDE7C7
:1014300080B500AF0620FFF773FD00BFFFF784FD06
:101440000346062BFAD14FF44040FFF79BFDFFF710
:1014500089FDFFF7F1FB00BFFFF7FEFB0346012B01
:10146000FAD10023C0220C214FF48000FFF7F0FCDA
:10147000FFF7CAFC00BFFFF7D7FC0346012BFAD1E8
:1014800000BFFFF793FD0346002BFAD00020FFF7C3
:1014900019FC4FF4A050FFF729FC4FF40040FFF770
:1014A00039FC0220FFF7ECFB00BFFFF7FDFB034612
:1014B000082BFAD1074810F037FE0F200EF0FCFD84
:1014C0000346002B01D001F0A7FC0020FFF786FCAB
:1014D00000BF80BD00C2EB0B80B592B000AF07F13A
:1014E0003C0300221A605A609A6007F12803002228
:1014F0001A605A609A60DA601A6107F118030022D4
:101500001A605A609A60DA603B4600221A605A609C
:101510009A60DA601A615A614FF48070FFF7E8FC54
:101520000420FFF7B5FC0220FFF7B2FC01233B606B
:1015300003237B6000233B613B46194684480FF040
:1015400090FB02233B6003237B6000233B613B460F
:1015500019467F480FF085FB04233B6003237B6023
:1015600000233B613B46194679480FF07AFB08237C
:101570003B6003237B6000233B613B461946744874
:101580000FF06FFB10233B6003237B6000233B6164
:101590003B4619466E480FF064FB20233B60032353
:1015A0007B6000233B613B46194669480FF059FBBD
:1015B00001233B6003237B6000233B613B461946CC
:1015C00064480FF04EFB02233B6003237B60002343
:1015D0003B613B4619465F480FF043FB0022002168
:1015E0005D48FFF77DFA002200215B48FFF77CF998
:1015F000002200215848FFF74FFA4FF48072002173
:101600005548FFF795F9002200215348FFF7B4F938
:101610004FF4806200215048FFF7D2F94FF4006286
:1016200000214D48FFF7F0F94FF4005200214A48DD
:10163000FFF70EFA00214848FFF776FA0023FB6314
:1016400000233B644FF480737B6407F13C0319462D
:1016500042480FF08DF90023BB624FF4E003FB62B8
:1016600000233B6300237B634FF44073BB6307F1AC
:101670002803194639480FF0A7F900213748FFF72A
:10168000D4F84FF48033BB610023FB6107F11803EA
:10169000194633480FF024F90A224FF400712F48FD
:1016A000FFF78DF801220A212C48FFF7D1F82D4AC7
:1016B00040F205212948FFF782F8012229492748ED
:1016C000FFF7C6F8284A40F20A212448FFF777F8C6
:1016D000012225492148FFF7BBF8244A40F20F2197
:1016E0001E48FFF76CF8012220491C48FFF7B0F8AC
:1016F0001F4A4FF405711948FFF761F801221C4990
:101700001648FFF7A5F81B4A40F219211348FFF7C6
:1017100056F8012217491148FFF79AF8164A4FF474
:1017200080710E48FFF74BF8012213490B48FFF771
:101730008FF8124A40F205110848FFF740F80122DD
:101740000E490648FFF784F800BF4837BD4680BD04
:1017500000080240000402400064024000200140F2
:10176000002301400B0030000C0060000D009000D1
:101770000E00C0000F00F000080080030900B00355
:1017800080B58EB000AF07F12C0300221A605A60BA
:101790009A6007F1180300221A605A609A60DA60B2
:1017A0001A613B4600221A605A609A60DA601A6138
:1017B0005A614FF40070FFF79BFB0120FFF768FBB5
:1017C00004233B6003237B6000233B613B461946B7
:1017D0003E480FF046FA08233B6003237B6000235A
:1017E0003B613B46194639480FF03BFA4FF0007217
:1017F00002213748FFF774F9002202213448FFF72D
:1018000073F8002202213248FFF746F94FF4807244
:1018100002212F48FFF78CF8002202212C48FFF705
:10182000ABF84FF4806202212948FFF7C9F84FF462
:10183000006202212648FFF7E7F84FF40052022128
:101840002348FFF705F902212148FFF76DF900232E
:10185000FB6200233B634FF480737B6307F12C032F
:1018600019461C480FF084F80023BB614FF4801325
:10187000FB6100233B6200237B624FF44073BB6239
:1018800007F11803194613480FF09EF84FF48061D2
:101890001048FEF7CAFF104A4FF400710D48FEF7DA
:1018A0008EFF01220C490B48FEF7D2FF0B4A40F293
:1018B00005210848FEF783FF012208490548FEF785
:1018C000C7FF00BF3837BD4680BD00BF00000240E3
:1018D0000064024000210140030090020200600207
:1018E00080B58EB000AF07F12C0300221A605A6059
:1018F0009A6007F1180300221A605A609A60DA6051
:101900001A613B4600221A605A609A60DA601A61D6
:101910005A614FF48060FFF7EBFA0120FFF7B8FA45
:1019200002233B6003237B6000233B613B46194657
:1019300019480FF096F90023FB6200233B63002354
:101940007B6307F12C03194614480FF011F80023AC
:10195000BB610023FB6100233B6200237B62002309
:10196000BB6207F1180319460C480FF02DF84FF42D
:1019700080610A48FEF759FF094A4FF40071074891
:10198000FEF71DFF002206490448FEF761FF00BF75
:101990003837BD4680BD00BF000002400022014034
:1019A0000100300280B58EB000AF07F11C030022A9
:1019B0001A605A609A60DA601A615A619A613B1D36
:1019C00000221A605A609A60DA601A615A614FF414
:1019D0004030FFF7E7F90220FFF75AFA40237B6017
:1019E0000223BB600323FB6001233B6100237B6177
:1019F0000423BB613B1D194621480FF032F98023B7
:101A00007B600223BB600323FB6001233B61002357
:101A10007B610423BB613B1D194619480FF021F976
:101A20004FF40010FFF74CFA1648FFF7F5F80022C4
:101A300000211448FFF7C8F81248FFF7DDF81148F5
:101A4000FFF7B2F80F48FFF79FF80023FB610E4B3A
:101A50003B6200237B620023BB620023FB62002306
:101A60003B6300237B6307F11C03194605480FF015
:101A70000FFA0448FFF778F800BF3837BD4680BD3D
:101A80000004024000540040FF63106080B590B035
:101A900000AF07F1180328220021184611F0B4FA0C
:101AA0003B4600221A605A609A60DA601A615A61F5
:101AB0004FF48050FFF71CFA0120FFF7E9F91023DB
:101AC0003B6002237B600323BB600023FB60002399
:101AD0003B6105237B613B4619464C480FF0C1F83A
:101AE00020233B6002237B600323BB600023FB6059
:101AF00000233B6105237B613B46194643480FF0B9
:101B0000B0F840233B6002237B600323BB600023CB
:101B1000FB6000233B6105237B613B4619463B4844
:101B20000FF09FF880233B6002237B600323BB60A0
:101B30000023FB6000233B6105237B613B46194684
:101B400032480FF08EF84FF0C06203213048FEF7A4
:101B5000C7FF402203212E48FEF7C6FE4FF4003295
:101B600003212B48FEF798FF002203212848FEF7A7
:101B7000DFFE002203212648FEF7FEFE4FF48062BE
:101B800003212348FEF71CFF002203212048FEF713
:101B90003BFF002203211E48FEF75AFF03211C4889
:101BA000FEF7C2FFFEF782FD034600220021184621
:101BB000FEF7D2FD034619462320FEF7A3FD23209E
:101BC000FEF782FD0023BB610023FB614FF4E0635D
:101BD0003B6202237B620023BB620023FB62002383
:101BE0007B630023BB630723FB6307F118031946DC
:101BF00008480FF025FD00210648FFF7FBF90548CE
:101C0000FFF71BFA00BF4037BD4680BD0000024011
:101C1000006402400030014080B590B000AF07F191
:101C2000180328220021184611F0EEF93B46002245
:101C30001A605A609A60DA601A615A614FF4804003
:101C4000FFF73EF90220FFF723F94FF400533B6002
:101C500002237B600323BB600023FB6000233B6106
:101C600005237B613B46194641480EF0FAFF4FF4CD
:101C700080433B6002237B600323BB600023FB6047
:101C800000233B6105237B613B46194638480EF033
:101C9000E8FF4FF400433B6002237B600323BB60FB
:101CA0000023FB6000233B6105237B613B46194613
:101CB0002F480EF0D6FF4FF0905201212D48FEF72D
:101CC0000FFF002201212B48FEF70EFE4FF4403299
:101CD00001212848FEF7E0FE4FF4807201212548DB
:101CE000FEF726FE002201212248FEF745FE4FF4B2
:101CF000806201211F48FEF763FE4FF4006201215C
:101D00001C48FEF781FE4FF4005201211948FEF7EE
:101D10009FFE01211748FEF707FF0023BB614FF428
:101D20008273FB614FF470633B6200237B6200238C
:101D3000BB624FF40073FB6200233B6300237B63B1
:101D40000023BB630723FB6307F1180319460A4806
:101D50000FF076FC00210848FFF74CF90648FFF722
:101D60005CF90548FFF736F900BF4037BD4680BD36
:101D700000040240006002400038004080B590B08E
:101D800000AF07F1180328220021184611F03CF992
:101D90003B4600221A605A609A60DA601A615A6102
:101DA0004FF40040FFF78CF80420FFF771F84FF470
:101DB00080633B6002237B600323BB600023FB60E6
:101DC00000233B6106237B613B46194628480EF001
:101DD00048FF4FF400633B6002237B600323BB603A
:101DE0000023FB6000233B6106237B613B461946D1
:101DF0001F480EF036FF4FF480533B6002237B6098
:101E00000323BB600023FB6000233B6106237B614F
:101E10003B46194616480EF024FF0023BB614FF4E1
:101E20008273FB614FF4E0633B6200237B6200231B
:101E3000BB624FF40073FB6200233B6300237B63B0
:101E40000023BB630723FB6307F118031946094806
:101E50000FF0F6FB00210748FFF7CCF80548FFF725
:101E6000DCF80448FFF7B6F800BF4037BD4680BD38
:101E700000080240003C004080B590B000AF07F180
:101E8000180328220021184611F0BEF83B46002214
:101E90001A605A609A60DA601A615A614FF4005011
:101EA000FFF726F81020FEF7F3FF4FF480533B6056
:101EB00002237B600323BB600023FB6000233B61A4
:101EC00005237B613B46194628480EF0CAFE4FF4B5
:101ED00000533B6002237B600323BB600023FB6055
:101EE00000233B6105237B613B4619461F480EF0EA
:101EF000B8FE4FF480433B6002237B600323BB604A
:101F00000023FB6000233B6105237B613B461946B0
:101F100016480EF0A6FE0023BB614FF48273FB61EE
:101F20004FF4E0633B6200237B620123BB624FF40A
:101F30000073FB6220233B6300237B630023BB63AE
:101F40000723FB6307F11803194609480FF078FBD4
:101F500000210748FFF74EF80548FFF76EF80448E0
:101F6000FFF738F800BF4037BD4680BD0010024083
:101F70000034014080B590B000AF07F1180328226B
:101F80000021184611F040F83B4600221A605A60C2
:101F90009A60DA601A615A614FF40010FEF7A8FFE8
:101FA0000220FEF775FF08233B6002237B600323BA
:101FB000BB600023FB6000233B6108237B613B4641
:101FC000194657480EF04DFE10233B6002237B60FC
:101FD0000323BB600023FB6000233B6108237B617C
:101FE0003B4619464E480EF03CFE20233B60022340
:101FF0007B600323BB600023FB6000233B6108235D
:102000007B613B46194646480EF02BFE4FF00072AE
:1020100005214448FEF764FD402205214148FEF7B2
:1020200063FC4FF4403205213E48FEF735FD0022A7
:1020300005213C48FEF77CFC002205213948FEF7CB
:102040009BFC4FF4806205213648FEF7B9FC002264
:1020500005213448FEF7D8FC002205213148FEF75F
:10206000F7FC05212F48FEF75FFD4FF000720621B7
:102070002C48FEF735FD002206212A48FEF734FCE5
:102080004FF4403206212748FEF706FD00220621C4
:102090002448FEF74DFC002206212248FEF76CFC86
:1020A0004FF4806206211F48FEF78AFC00220621B9
:1020B0001C48FEF7A9FC002206211A48FEF7C8FCBE
:1020C00006211848FEF730FD0023BB614FF48273F0
:1020D000FB614FF4E0633B6200237B620023BB6241
:1020E0004FF40073FB6200233B6300237B630023F8
:1020F000BB630723FB6307F1180319460A480FF077
:102100009FFA00210848FEF775FF0748FEF785FF94
:102110000548FEF75FFF00BF4037BD4680BD00BFEA
:1021200000040240006402400054014080B586B0C3
:1021300000AF3B1D00221A605A609A60DA601A6193
:102140000120FEF7D5FEFEF7B1FA0346002200217A
:102150001846FEF701FB034619461920FEF7D2FA8E
:102160001920FEF7B1FA0023BB800023BB604FF6B5
:10217000FF73FB6000233B6100237B613B1D19461D
:102180000C480FF051FB0B48FEF777FF0021094880
:10219000FFF726F800210748FFF738F80021054827
:1021A000FFF747F80348FFF757F800BF1837BD4659
:1021B00080BD00BF0000014080B586B000AF3B1D70
:1021C00000221A605A609A60DA601A610120FEF7F4
:1021D00077FEFEF76BFA0346002202211846FEF74F
:1021E000BBFA034619461C20FEF78CFA1C20FEF7AA
:1021F0006BFA0023BB800023BB604FF0FF33FB6012
:1022000000233B613B1D19464FF080400FF00CFB53
:102210004FF08040FEF721FF00214FF08040FEF795
:10222000DFFF00214FF08040FEF7F0FF4FF08040CD
:10223000FFF712F800BF1837BD4680BD80B594B0D7
:1022400000AF07F13C0300221A605A609A60DA601E
:102250001A6107F11C0320220021184610F0D4FE59
:102260003B1D00221A605A609A60DA601A615A6156
:102270000420FEF725FE0A23BB8700233B644CF2B3
:1022800050337B644FF40073BB6407F13C03194681
:1022900055480FF0C9FA5448FEF7EFFE00215248A6
:1022A000FEF79EFF01215048FEF74AFF6023FB61C5
:1022B00000233B6200237B620023BB620023FB629E
:1022C00007F11C031A46012147480FF047FB012183
:1022D0004548FEF7E3FE10214348FEF731FF07F1C2
:1022E0001C031A46102140480FF038FB10213E48CD
:1022F000FEF7D4FE4FF480713B48FEF721FF07F153
:102300001C031A464FF4807137480FF027FB4FF437
:1023100080713548FEF7C2FE4FF480513248FEF717
:102320000FFF07F11C031A464FF480512E480FF09F
:1023300015FB4FF480512C48FEF7B0FE00212A48CF
:10234000FEF764FF2848FEF787FF0820FEF7A0FD90
:102350004FF480537B600223BB600023FB600023AB
:102360003B6100237B610223BB613B1D19461F4873
:102370000EF077FC4FF400537B600223BB60002318
:10238000FB6000233B6100237B610223BB613B1D9B
:10239000194616480EF065FC4FF480437B6002231B
:1023A000BB600023FB6000233B6100237B610223B1
:1023B000BB613B1D19460D480EF053FC4FF4004322
:1023C0007B600223BB600023FB6000233B61002392
:1023D0007B610223BB613B1D194604480EF041FCA2
:1023E00000BF5037BD4680BD00080040000C0240D1
:1023F00080B58EB000AF07F11C0300221A605A604E
:102400009A60DA601A615A619A613B1D00221A6073
:102410005A609A60DA601A615A614FF04050FEF7D4
:10242000A7FC4FF08040FEF74BFD1020FEF730FD7B
:1024300080237B600223BB600323FB6000233B619E
:1024400001237B610823BB613B1D194621480EF027
:1024500008FC4FF480737B600223BB600323FB60A6
:1024600000233B6100237B610823BB613B1D1946B0
:1024700018480EF0F6FBFEF719F9034600220B216F
:102480001846FEF769F9034619465220FEF73AF955
:102490005220FEF719F94FF4E133FB6100233B6250
:1024A00000237B620023BB620C23FB6200233B639F
:1024B00000237B6307F11C03194607480FF06EFDEC
:1024C0000548FEF734FF0448FEF7D6FE00BF383754
:1024D000BD4680BD001002400078004080B58EB03F
:1024E00000AF07F11C0300221A605A609A60DA609C
:1024F0001A615A619A613B1D00221A605A609A6003
:10250000DA601A615A614FF44030FEF717FC102070
:10251000FEF7EEFC0120FEF7BBFC4FF400737B607E
:102520000223BB600323FB6000233B6100237B612C
:102530000723BB613B1D19462A480EF092FB4FF45E
:1025400080637B600223BB600323FB6000233B614D
:1025500000237B610723BB613B1D194621480EF018
:1025600080FB4FF480537B600223BB600323FB603E
:1025700000233B6100237B610723BB613B1D1946A0
:1025800018480EF06EFB4FF4E133FB6100233B6211
:1025900000237B620023BB620C23FB6200233B63AE
:1025A00000237B6307F11C0319460F480FF0F6FC6C
:1025B0000D48FEF799FE00210B48FEF7A5FE00210D
:1025C0000948FEF77DFE00210748FEF765FE064834
:1025D000FEF7ADFE0448FEF74FFE00BF3837BD469C
:1025E00080BD00BF000002400010014080B58EB0E9
:1025F00000AF07F11C0300221A605A609A60DA608B
:102600001A615A619A613B1D00221A605A609A60F1
:10261000DA601A615A614FF44010FEF78FFB4FF4F5
:102620008020FEF74DFC0220FEF732FC4FF4806361
:102630007B600223BB600323FB6001233B6100231B
:102640007B610723BB613B1D194618480EF009FB4F
:10265000FEF72CF80346002200211846FEF77CF80E
:10266000034619462720FEF74DF82720FEF72CF8E1
:102670004FF4E133FB6100233B6200237B620023C4
:10268000BB620823FB6200237B6307F11C0319462E
:1026900007480FF083FC0648FEF75FFE0448FEF78C
:1026A000EBFD00BF3837BD4680BD00BF00040240CF
:1026B0000048004080B58EB000AF07F11C03002237
:1026C0001A605A609A60DA601A615A619A613B1D19
:1026D00000221A605A609A60DA601A615A614FF0FB
:1026E0004060FEF72BFB2020FEF702FC0420FEF7E3
:1026F000CFFB40237B600223BB600323FB600023EE
:102700003B6100237B610823BB613B1D19462148C7
:102710000EF0A7FA80237B600223BB600323FB60DB
:1027200000233B6100237B610823BB613B1D1946ED
:1027300018480EF096FAFDF7B9FF034600220B2168
:102740001846FEF709F8034619464720FDF7DAFF59
:102750004720FDF7B9FF4FF4E133FB6100233B62F3
:1027600000237B620023BB620C23FB6200233B63DC
:1027700000237B6307F11C03194607480FF00EFC8A
:102780000548FEF7D4FD0448FEF776FD00BF383754
:10279000BD4680BD000802400014014080B500AF76
:1027A0004FF48000FEF774FB4FF40010FEF770FB4F
:1027B000FDF77CFF0346002200211846FDF7CCFF01
:1027C000034619460C20FDF79DFF0C20FDF77CFF0A
:1027D000FDF76CFF034600220A211846FDF7BCFFF7
:1027E000034619463820FDF78DFF3820FDF76CFFB2
:1027F000FDF75CFF034600220A211846FDF7ACFFF7
:10280000034619463A20FDF77DFF3A20FDF75CFFAD
:10281000FDF74CFF0346002200211846FDF79CFF00
:10282000034619463B20FDF76DFF3B20FDF74CFFAB
:10283000FDF73CFF0346002209211846FDF78CFFF7
:10284000034619464420FDF75DFF4420FDF73CFF99
:10285000FDF72CFF0346002201211846FDF77CFFFF
:10286000034619464520FDF74DFF4520FDF72CFF97
:1028700000BF80BD80B586B000AF3B4600221A6025
:102880005A609A60DA601A615A611020FEF700FB04
:102890000420FEF7FDFA8020FEF7FAFA0120FEF789
:1028A000F7FA0220FEF7F4FA0820FEF7F1FA042105
:1028B000BF48FEF77CFD0821BD48FEF778FD1021DA
:1028C000BB48FEF774FD2021B948FEF770FD40219A
:1028D000B748FEF76CFD4FF40051B648FEF767FDB0
:1028E0004FF48041B348FEF762FD4FF40041B14818
:1028F000FEF75DFD4FF40061AD48FEF758FD4FF463
:102900000061AD48FEF753FD4FF48071A948FEF712
:102910004EFD4FF40061A948FEF749FD4FF4004118
:10292000A648FEF744FD0121A548FEF740FD02211F
:10293000A348FEF73CFD1021A148FEF738FD2021F9
:102940009F48FEF734FD40219D48FEF730FD0421ED
:102950009948FEF71EFD4FF480619548FEF719FD7A
:102960004FF400419248FEF714FD4FF48051924815
:10297000FEF70FFD4FF480719148FEF70AFD4FF40A
:1029800000718F48FEF705FD4FF480618C48FEF71B
:1029900000FD04218A48FEF7FCFC80218848FEF7F0
:1029A000F8FC4FF480718448FEF7F3FC4FF400719B
:1029B0008148FEF7EEFC01217D48FEF7EAFC02218A
:1029C0007B48FEF7E6FC04233B6001237B60002389
:1029D000BB600023FB6000233B613B461946744803
:1029E0000EF03FF908233B6001237B600023BB60AE
:1029F0000023FB6000233B613B4619466C480EF008
:102A000030F910233B6001237B600023BB6000236F
:102A1000FB6000233B613B46194665480EF021F9F7
:102A200020233B6001237B600023BB600023FB600D
:102A300000233B613B4619465D480EF012F94023E6
:102A40003B6001237B600023BB600023FB6000230D
:102A50003B613B46194656480EF003F94FF40053CC
:102A60003B6001237B600023BB600023FB600023ED
:102A70003B613B4619464F480EF0F3F84FF4804354
:102A80003B6001237B600023BB600023FB600023CD
:102A90003B613B46194647480EF0E3F84FF40043CC
:102AA0003B6001237B600023BB600023FB600023AD
:102AB0003B613B4619463F480EF0D3F804233B6088
:102AC00001237B600023BB600023FB6000233B618C
:102AD0003B46194638480EF0C4F84FF480633B601B
:102AE00001237B600023BB600023FB6000233B616C
:102AF0003B4619462E480EF0B4F84FF400633B6095
:102B000001237B600023BB600023FB6000233B614B
:102B10003B46194626480EF0A4F84FF400433B60AC
:102B200001237B600023BB600023FB6000233B612B
:102B30003B4619461E480EF094F84FF400633B6084
:102B400001237B600023BB600023FB6002233B6109
:102B50003B46194618480EF084F84FF480533B600A
:102B600001237B600023BB600023FB6000233B61EB
:102B70003B46194610480EF074F84FF480733B60E2
:102B800001237B600323BB600023FB6000233B61C8
:102B90003B4619460A480EF064F84FF400733B6058
:102BA00001237B600323BB600023FB60002309E05B
:102BB00000100240000802400004024000000240F1
:102BC000000C02403B613B4619468E480EF049F826
:102BD0004FF480633B6001237B600323BB600023D1
:102BE000FB6000233B613B46194686480EF039F8EE
:102BF0004FF400633B6000237B6000233B613B4656
:102C0000194680480EF02DF84FF480733B60012385
:102C10007B600023BB600023FB6002233B613B46DB
:102C2000194679480EF01DF84FF400733B600023FD
:102C30007B6000233B613B46194673480EF011F858
:102C40004FF480733B6000237B6000233B613B4675
:102C500019466E480EF005F84FF400633B600123FF
:102C60007B600023BB600023FB6000233B613B468D
:102C7000194666480DF0F5FF4FF400433B60012311
:102C80007B600023BB600023FB6000233B613B466D
:102C900019465E480DF0E5FF01233B6001237B6090
:102CA0000023BB600023FB6000233B613B461946C9
:102CB00054480DF0D6FF02233B6001237B600023C4
:102CC000BB600023FB6000233B613B4619464D4837
:102CD0000DF0C7FF04233B6001237B600023BB6032
:102CE0000023FB6000233B613B46194645480DF03D
:102CF000B8FF08233B6000237B6000233B613B4619
:102D0000194640480DF0ADFF10233B6001237B6066
:102D10000023BB600023FB6000233B613B46194658
:102D200038480DF09EFF20233B6001237B60002389
:102D3000BB600023FB6000233B613B4619463148E2
:102D40000DF08FFF40233B6001237B600023BB60BD
:102D50000023FB6000233B613B46194629480DF0E8
:102D600080FF80233B6001237B600023BB60002346
:102D7000FB6000233B613B46194622480DF071FF82
:102D80004FF480733B6001237B600023BB60002312
:102D9000FB6000233B613B4619461D480DF061FF77
:102DA0004FF400733B6001237B600023BB60002372
:102DB000FB6000233B613B46194615480DF051FF6F
:102DC00001233B6001237B600023BB600023FB6089
:102DD00000233B613B4619460E480DF042FF02239B
:102DE0003B6001237B600023BB600023FB6000236A
:102DF0003B613B46194607480DF033FF00BF1837CB
:102E0000BD4680BD000C02400008024000000240A8
:102E1000000402400010024080B400AF72B600BF50
:102E200000BFFDE780B483B000AF0F4B1B6C0E4AB0
:102E300043F0805313640C4B1B6C03F080537B6096
:102E40007B68094B5B6C084A43F480435364064B30
:102E50005B6C03F480433B603B6800BF0C37BD46AE
:102E60005DF8047B704700BF0038024080B400AFBB
:102E700000BFFDE780B400AF00BFFDE780B400AF46
:102E800000BFFDE780B400AF00BFFDE780B400AF36
:102E900000BFFDE780B400AF00BFBD465DF8047B16
:102EA000704780B400AF00BFBD465DF8047B70473B
:102EB00080B400AF00BFBD465DF8047B704780B5AD
:102EC00000AF0DF05DF80DF027F908F0E3F800BF52
:102ED00080BD80B400AF00BFBD465DF8047B704785
:102EE00080B400AF01231846BD465DF8047B7047EF
:102EF00080B582B000AF7860396010F0E5F8034625
:102F000016221A604FF0FF3318460837BD4680BDC1
:102F100080B582B000AF78604FF0FF317868FFF77E
:102F2000E7FF00BFFDE780B586B000AFF860B9608D
:102F30007A6000237B610AE0AFF300800146BB6842
:102F40005A1CBA60CAB21A707B6901337B617A6914
:102F50007B689A42F0DB7B6818461837BD4680BD17
:102F600080B586B000AFF860B9607A6000237B61FD
:102F700009E0BB685A1CBA601B781846AFF30080A2
:102F80007B6901337B617A697B689A42F1DB7B68FC
:102F900018461837BD4680BD80B483B000AF786056
:102FA0004FF0FF3318460C37BD465DF8047B704781
:102FB00080B483B000AF786039603B684FF4005252
:102FC0005A60002318460C37BD465DF8047B7047F5
:102FD00080B483B000AF7860012318460C37BD463B
:102FE0005DF8047B704780B485B000AFF860B960CD
:102FF0007A60002318461437BD465DF8047B70479D
:1030000080B586B000AF7860144A154BD31A7B6147
:103010007B693B61134B1B68002B02D1114B124A99
:103020001A60104B1A687B6813443A699A4207D2B7
:1030300010F04AF803460C221A604FF0FF3309E003
:10304000084B1B68FB60074B1A687B681344054AF2
:103050001360FB6818461837BD4680BD0000082085
:1030600000040000FC430020D0F9012080B400AF30
:10307000064BD3F88830054A43F47003C2F8883011
:1030800000BFBD465DF8047B704700BF00ED00E067
:10309000DFF834D0FFF7EAFF0C480D490D4A002352
:1030A00002E0D458C4500433C4188C42F9D30A4AFD
:1030B0000A4C002301E013600432A242FBD310F05B
:1030C00009F8FEF783F9704700000820000000208F
:1030D000E0430020887D0108E0430020D0F9012072
:1030E000FEE780B582B000AF7860396006F05EFC24
:1030F00006F054FB7B6814330A220A2118460CF0B0
:10310000FBFE00BF0837BD4680BD000080B584B01F
:1031100002AF786039607B68002B03D10021104832
:1031200005F074FF78683B685A683B689B680093B9
:1031300013460C4A0C490CF051FE7B6814337A6834
:10314000192118460CF0B6FE3B681A687B685A6273
:103150007B6800221A8700BF0837BD4680BD00BFCC
:1031600028730108D1310008E330000880B586B02B
:1031700002AF0223009304230822094909480CF0F6
:1031800096FB094A3B1D07CA83E807003B1D194609
:103190000648FFF7BBFF00BF1037BD4680BD00BF2C
:1031A0005C4400203C440020984F0108004400206B
:1031B00080B582B000AF0346FB71FB791946034826
:1031C0000CF026FE00BF0837BD4680BD004400203D
:1031D00090B585B000AF786039603B681B88192BCB
:1031E00006D0192B27DC172B08D0182B1DD022E076
:1031F00006F0E6FB06F050FB01231DE00023FB7305
:103200000EE0FB7BFC7B184606F0E0FB034619460C
:103210007B6804F1140223F81210FB7B0133FB736B
:10322000FB7B072BEDD9012306E006F09FFA03464E
:103230001AB27B685A87022318461437BD4690BDE0
:1032400080B483B000AF7860054A7B681C3332F9E4
:10325000133018460C37BD465DF8047B704700BF3D
:103260000044002080B487B000AFF860B960114618
:103270001A460B46FB801346BB80164AFB68143384
:1032800032F91330BB82134ABB68143332F913305E
:10329000FB82B7F91430B7F904209A4210DCB7F971
:1032A0001430B7F906209A420ADBB7F914301A46EF
:1032B000B7F91630D31A002BB8BF5B42322B01DDB1
:1032C000012300E0002318461C37BD465DF8047B4F
:1032D000704700BF0044002080B483B000AF786026
:1032E000054A7B68143332F9133018460C37BD4653
:1032F0005DF8047B704700BF0044002080B500AF3C
:1033000000F0B0F803F0F0FE04F0A0FDFFF72EFF90
:1033100002F0A4FA00F06CFF04F050FC04F02AFB69
:1033200000BF80BD80B500AF012000F0BDF80420D3
:1033300003F00CFF022004F0AFFD0320FFF738FF7D
:10334000052002F0ADFA072000F078FF082004F015
:1033500051FB0A2004F06AFC00BF80BD80B500AFBD
:103360000CF0EEFC00BF80BD80B582B000AF78608D
:10337000396006F03DF907F059F906F0FFFD7B686A
:10338000012283F85D207B68002283F8622000BF61
:103390000837BD4680BD000080B584B000AF7860BE
:1033A00039607B685B69FB607B685B69396878685A
:1033B00098470346FB72FB7A002B08D1FB6806494D
:1033C000786898477B685B6904497868984700BFCC
:1033D0001037BD4680BD00BF587301084473010813
:1033E00080B584B002AF786039607B68002B03D170
:1033F0000021194805F00AFE78683B685A683B6866
:103400009B6800931346154A15490CF0E7FC3B688E
:103410001A687B685A617B6818337A681A211846E3
:103420000CF048FD7B6828337A68242118460CF09C
:1034300041FD7B68283318460CF07EFD7B6818330D
:1034400018460CF079FD3B681A7B7B6883F858209E
:1034500000BF0837BD4680BD3473010899330008AA
:103460006933000890B587B002AF1223009302239E
:103470002422094909480CF01AFA094B3C460FCBA3
:1034800084E80F003B4619460648FFF7A9FF00BF36
:103490001437BD4690BD00BF00450020D044002039
:1034A000A44F01086444002080B582B000AF0346F9
:1034B000FB71FB79194603480CF0AAFC00BF0837E2
:1034C000BD4680BD6444002080B582B000AF786006
:1034D00039603B681B88013B1C2B53D801A252F872
:1034E00023F000BF593500088535000885350008F0
:1034F00085350008853500088535000885350008C4
:1035000085350008853500088535000885350008B3
:1035100085350008853500088535000885350008A3
:103520008535000885350008853500088535000893
:103530008535000885350008853500088535000883
:103540008535000885350008853500086735000891
:10355000713500087B3500087B68183318460CF07D
:10356000EBFC01230FE07B68094A5A6100230AE063
:103570007B68084A5A61002305E07B68064A5A6165
:10358000002300E0022318460837BD4680BD00BF77
:103590009D3500083D3800085939000890B58FB0B6
:1035A00002AF786039603B681B88013B232B00F237
:1035B000288101A252F823F0493600080338000898
:1035C000DF36000803380008033800080338000815
:1035D00003380008033800080338000803380008DF
:1035E00003380008033800080338000803380008CF
:1035F00003380008033800080338000803380008BF
:1036000003380008033800080338000803380008AE
:10361000033800080338000803380008B7370008EB
:10362000033800080338000803380008F73600089C
:103630002B3700085F3700080338000803380008FC
:1036400003380008C9370008704BFB619D230093C5
:103650006F4BFA696F4970480CF09FF87B6818331C
:10366000002244F6206118460CF046FC7B6893F873
:103670003C301946786800F0C6FA786800F0DCFA49
:103680007B68DB8FBB607B68B3F84030FB607B6896
:10369000B3F842303B617B689B6B7B617B6893F83E
:1036A0003C30BB617B6893F83D30184606F00AF861
:1036B00007F10803184606F027FC7B68283301222F
:1036C000012118460CF018FC544B00221A8006F019
:1036D00009FE7B68002283F85820012392E07B6872
:1036E000183318460CF028FC7B68283318460CF079
:1036F00023FC012386E0454B3B62C0230093444BEF
:103700003A6A474944480CF048F87B6893F85830C7
:10371000002B04D17B68012283F8582003E07B68EA
:10372000032283F8582001236CE0384B7B62CB23C3
:103730000093374B7A6A3B4937480CF02EF87B6888
:1037400093F85830012B04D17B68022283F858206B
:1037500003E07B68032283F85820012352E02B4BBF
:10376000FB62D52300932A4BFA6A2F492A480CF0B2
:1037700014F87B6893F85830022B04D17B6805223B
:1037800083F8582003E07B68032283F858201F4BFE
:10379000BB62DB2300931E4BBA6A24491E480BF020
:1037A000FCFF234B1B68184600F020FE7B68214A73
:1037B0005A61002326E07B68042283F858207B6846
:1037C0001C4A5A6100231DE0144B1B88B3F5804F3F
:1037D00010D2124B1B885A1C91B2104A11801C4601
:1037E00005F0D0FF03461A46134B23F8142006F0C9
:1037F0005DF804E07B68283318460CF09DFB01233C
:1038000000E0022318463437BD4690BDB44F01088E
:10381000BC4F0108E44F0108984C012034450120B9
:103820000450010830500108585001088450010824
:1038300008000020C934000834C5002080B582B0DB
:1038400000AF786039603B681B88232B1ED0232B88
:1038500073DC222B3ED0222B6FDC012B02D0212BDC
:103860002BD06AE07B68183318460CF065FB7B6848
:103870001B6D344A53607B68DB6C324A1360324BF9
:103880001B68184603F0F8FF012357E02D4B5B68D7
:10389000B3F5804F28BF4FF480439AB22B4B1A8068
:1038A000284B1B685B00294A128852001146284A9F
:1038B000184606F0EDFE012340E0234B1868234B29
:1038C0001B881A467B6893F85530214903F0B0FFF6
:1038D000012333E01B4B5B681C4A12889B1A194A70
:1038E0005360184B1B68194A12881344154A136019
:1038F000144B5B68002B16D0124B5B68B3F5804FFE
:1039000028BF4FF480439AB2104B1A800D4B1B68AE
:103910005B000E4A1288520011460D4A184606F006
:10392000B7FE01230AE0084B1B68184603F0B4FFFA
:103930007B68084A5A61002300E0022318460837D2
:10394000BD4680BD244500200400002030C5002075
:1039500030450020C934000880B582B000AF7860DF
:1039600039603B681B88012B02D0212B12D01DE04F
:103970007B68183318460CF0DFFA7B68DB6C0E4A64
:103980004FF48041184606F083FE0B4807F0B4F868
:1039900001230CE007F010F9084B1B68184604F0EF
:1039A00075F87B68064A5A61002300E00223184636
:1039B0000837BD4680BD00BF304500200C00002008
:1039C000C934000880B584B000AFF860B9607A608F
:1039D000FB70FB68BA68DA64FB687A681A65FB6892
:1039E000FA7883F85520084B1B684FF6FF72A3F84E
:1039F0004220FB68054918460CF034FA00231846AB
:103A00001037BD4680BD00BF040000208073010850
:103A100080B582B000AF78607B680022DA647B6892
:103A20005A6E7B681A657B68012283F85520084B23
:103A30001B684FF6FF72A3F842207B6805491846C1
:103A40000CF010FA002318460837BD4680BD00BFB1
:103A5000040000208073010880B582B000AF786058
:103A60007B68044918460CF0FDF900231846083716
:103A7000BD4680BDA873010880B582B000AF7860F4
:103A80007B68044918460CF0EDF900231846083706
:103A9000BD4680BDBC73010880B582B000AF7860C0
:103AA0007B68044918460CF0DDF9002318460837F6
:103AB000BD4680BDD073010880B584B000AFF8600A
:103AC000B9607A60BB68012B02D87B68642B01D98E
:103AD000062318E0FB6893F85D30002B06D0002029
:103AE00005F042FDFB68002283F85D207968B86824
:103AF00005F028FE7B68D9B2FA68BB6813445933D5
:103B00000A461A70002318461037BD4680BD80B59E
:103B100082B000AF786039603B68242B01D906235E
:103B200014E07B6893F85D30012B06D0012005F08E
:103B30001BFD7B68012283F85D20386805F08EFD4F
:103B40003B68DAB27B6883F85B20002318460837AD
:103B5000BD4680BD80B582B000AF78607B6893F8C9
:103B60005D30012B06D0012005F0FEFC7B680122B0
:103B700083F85D2005F082FD7B68FF2283F85B20DF
:103B8000002318460837BD4680BD80B582B000AF1F
:103B9000786039603B68082B01D9062314E07B6804
:103BA00093F85D30012B06D0012005F0DDFC7B6829
:103BB000012283F85D20386805F06AFD3B68DAB2BF
:103BC0007B6883F85C20002318460837BD4680BD1B
:103BD00080B582B000AF78607B6893F85D30012BD0
:103BE00006D0012005F0C0FC7B68012283F85D202F
:103BF00005F05EFD7B68FF2283F85C2000231846F9
:103C00000837BD4680BD80B582B000AF78603960AE
:103C10003B68242B01D906230AE006F03FFA3868F6
:103C200006F064FA3B68DAB27B6883F85E20002312
:103C300018460837BD4680BD80B582B000AF7860B9
:103C400006F040FA002318460837BD4680BD000044
:103C500080B483B000AF786039603B681B68002B8C
:103C600004D03B681B68164A934201D9062321E021
:103C70003B68DB68B3F5006F01D906231AE03B68A7
:103C80001A687B689A633B68DA887B68DA873B68E6
:103C90001A897B68A3F840203B685A897B68A3F89F
:103CA00042203B68DA687B685A643B681A697B6823
:103CB0009A64002318460C37BD465DF8047B7047B4
:103CC00000350C0080B483B000AF786039603B6889
:103CD0005B79642B01D9062305E03B685A797B6840
:103CE00083F83D20002318460C37BD465DF8047B61
:103CF000704780B483B000AF786039603B681B794F
:103D0000002B03D03B681B79242B01D9062305E047
:103D10003B681A797B6883F83C20002318460C37EF
:103D2000BD465DF8047B7047B0B483B000AF7860E7
:103D300039603B681B68002B04D03B681B68184A3D
:103D4000934201D9062326E03B681B79002B03D060
:103D50003B681B79242B01D906231CE03B685B7967
:103D6000642B01D9062316E03B68DB68B3F5006FCE
:103D700001D906230FE03B681B69002B01D1062304
:103D800009E07B683A6803F1380415460FCD0FC48B
:103D90002B682360002318460C37BD46B0BC704723
:103DA00000350C00B0B483B000AF786039603A6879
:103DB0007B68154603F138040FCC0FC523682B60D0
:103DC00000BF0C37BD46B0BC7047000080B584B062
:103DD00000AF78607B683833FB60FB681B68002BA2
:103DE00004D0FB681B68134A934201D906231CE0E8
:103DF000FB681B79002B03D0FB681B79242B01D9AE
:103E0000062312E0FB685B79642B01D906230CE0E2
:103E1000FB68DB68B3F5006F01D9062305E07B681A
:103E2000054918460CF01EF8002318461037BD4609
:103E300080BD00BF00350C006C73010880B582B0F6
:103E400000AF78600B467B807B889B031A467B68BB
:103E5000DA647B684FF480421A657B68012283F83C
:103E600054207B68044918460BF0FCFF00231846D9
:103E70000837BD4680BD00BF9473010880B582B08D
:103E800000AF7860074806F037FE06F095FE064B57
:103E90001B68184603F0FAFD002318460837BD4694
:103EA00080BD00BF34C500200C00002080B483B06A
:103EB00000AF786039607B683A689A6100BF0C3760
:103EC000BD465DF8047B704780B483B000AF786076
:103ED00039603B681A047B689A6100BF0C37BD46A5
:103EE0005DF8047B7047000080B582B000AF786059
:103EF0000B46FB707B68FA78114618460BF066FAA1
:103F00007B68012118460AF009FF00F0B1FA024669
:103F10007B68C3F804227B68002283F80C227B684C
:103F2000012283F80D22FB78032B04D8FB78044987
:103F30007A6841F8232000BF0837BD4680BD00BF26
:103F40002C48012080B582B000AF78607A687B6829
:103F500093F80032194610460BF038FA7B680121BD
:103F600018460AF0DBFE00F083FA02467B68C3F8CD
:103F700004227B68002283F80C2200BF0837BD466C
:103F800080BD80B483B000AF786039607B683A68E8
:103F9000C3F8082200BF0C37BD465DF8047B7047AC
:103FA00080B586B000AFF860B9607A60FB687A6867
:103FB000B96818460BF06AF900F05AFA7861FB68A4
:103FC00093F8E230002B35D0FB6893F8E4301A46C2
:103FD00013465B0013449B00FA6813443B613B6942
:103FE0001B687A69D31A40F6B83293421ED9FB682F
:103FF00093F80C3283F00103DBB2002B1AD0FB687C
:10400000D3F80832002B04D0FB68D3F80832F868E4
:104010009847FB68012283F80C22FB6893F80D3265
:10402000002B07D0F868FFF78DFF03E0FB68002244
:1040300083F80C22FB687A69C3F8042200BF1837A2
:10404000BD4680BD80B483B000AF786000BF0C3740
:10405000BD465DF8047B704780B500AF4FF48072B9
:10406000084909480BF048FD4FF480720749084899
:104070000BF042FD064B044A064907480BF08CFA48
:1040800000BF80BD644901203C490120644A0120F1
:104090005049012000780040644B012080B582B077
:1040A00000AF786039607B68002B03D101210F4895
:1040B00004F0ACFF7B680E4A9A617B689B69002123
:1040C0001846FFF711FF0B490948FFF75AFF7B68B5
:1040D00024330A220A2118460BF00EFF06480BF083
:1040E00077FA00BF0837BD4680BD00BFE473010802
:1040F0001C46012045400008644B012080B584B077
:1041000000AF786039607B68002B03D1042112482E
:1041100004F07CFF3B68002B03D105210E4804F01E
:1041200075FF7B685B69FB607B685B6939687868F1
:1041300098470346FB72FB7A002B08D1FB680749BE
:10414000786898477B685B6905497868984700BF3D
:104150001037BD4680BD00BFE4730108FC73010841
:10416000F073010880B584B002AF786039607B6875
:10417000002B03D102211B4804F048FF78683B68FC
:10418000DA683B681B6900931346174A17490BF01E
:1041900025FE7B6824337A680D2118460BF08AFED1
:1041A0007B6834337A68102118460BF083FE3B6835
:1041B0001A687B685A613B685A687B689A613B68F9
:1041C0009A687B68DA617B68243318460BF0B4FE8A
:1041D0007B68343318460BF0AFFE00BF0837BD468E
:1041E00080BD00BFE4730108FD4000089D40000849
:1041F000B0B588B002AFFFF72FFF0C2300930A235E
:1042000078220A490A480BF052FB0A4B3C1D1D4616
:104210000FCD0FC42B6823603B1D19460648FFF7DE
:10422000A1FF00BF1837BD46B0BD00BFA4450120A7
:104230007C450120A05001083845012080B582B09E
:1042400000AF0346FB71FB79194603480BF0E0FD14
:1042500000BF0837BD4680BD3845012080B586B017
:1042600002AF786039607B68002B03D103214A4894
:1042700004F0CCFE3B681B88013B0F2B00F28780CB
:1042800001A252F823F000BFC94200088F43000882
:104290008F4300088F4300088F4300088F430008B6
:1042A0008F4300088F4300088F4300088F430008A6
:1042B0008F4300088F430008DB42000819430008C1
:1042C00055430008554300087B6824330A220A211D
:1042D00018460BF011FE01235AE0304B4FF4807268
:1042E0001A607B68DB692D4A2D4918460BF090F95E
:1042F0000346002B07D07B689B69284A126828492F
:104300001846FFF74DFE7B689B6900220021184686
:10431000FFF746FE01233BE07B68243318460BF091
:104320000BFE4FF400611F48FFF7C0FD1E4BBB6042
:10433000C12300931D4BBA681D491E480BF02DFA8E
:104340007B683433002244F6206118460BF0D4FD1C
:1043500001231DE07B68343318460BF0EDFD4FF46C
:1043600000611048FFF7B0FD0F4BFB60C9230093BD
:104370000E4BFA6810490F480BF00FFA7B68243394
:104380000A220A2118460BF0B7FD012300E00223A0
:1043900018461037BD4680BDE473010810000020A8
:1043A0003C48012000040240B4500108BC50010800
:1043B000E0500108984C01201051010880B586B0EA
:1043C00000AF786007F10C0300221A605A609A600F
:1043D0000E23BB817B6807F10C02114618460BF0D7
:1043E00041FD002318461837BD4680BD80B586B014
:1043F00000AF786007F10C0300221A605A609A60DF
:104400000F23BB817B6807F10C02114618460BF0A5
:1044100029FD002318461837BD4680BD80B582B0FF
:1044200000AF0346FB71064BDB695B6818460BF077
:104430006BFC03469BB218460837BD4680BD00BFE3
:104440003845012080B582B000AF03460A46FB71B3
:104450001346BB71054BDB69BA79114618460BF060
:1044600056F900BF0837BD4680BD00BF3845012062
:1044700080B500AF0BF0D2FD0346184680BD0000AA
:1044800080B586B000AF396011461A460346FB710D
:104490000B46BB7113467B717B79032B27D87B7945
:1044A000154A52F823303B6101F05EF9F86001F0E3
:1044B00065F9B86000237B6114E07B69DB00FA6872
:1044C00013441B78FA799A4209D17B69DB00FA68B8
:1044D00013445B68BA7939683869984708E07B69A2
:1044E00001337B617A69BB689A42E6DB00E000BF7A
:1044F0001837BD4680BD00BF2C48012080B584B070
:1045000000AFF8607A601A460B46FB721346BB7226
:10451000FB68BA7A114618460AF05CFC0346002B89
:1045200005D0F868BB7AF97A7A680AF00BFC00BF0C
:104530001037BD4680BD000080B500AF054BDB697C
:1045400018460BF05FF9034BDB6918460BF07CF95A
:1045500000BF80BD3845012080B588B002AFF8604B
:10456000B9601346FB71002300220121F868FFF7B0
:10457000C5FF0A4B7B61FB79019346230093084BEF
:104580007A69084908480BF008F9084B1B68184677
:1045900003F088FB00BF1837BD4680BD605101089D
:1045A0006851010894510108984C01202000002016
:1045B00080B58AB004AFF860B9601346FB71BB6880
:1045C0001B781A06BB6801331B781B041A43BB68AF
:1045D00002331B781B021343BA6803321278134369
:1045E0007B61FB79BA680321F868FFF787FF094B05
:1045F0003B61FB797A69029201934F230093064B4A
:104600003A69064906480BF0C8F800BF1837BD469E
:1046100080BD00BF6051010868510108B051010818
:10462000984C012080B58CB006AFF860B960134695
:10463000FB71BB681B78FB75BB6801331B78BB75CE
:10464000BB6802331B787B75BB6803331B783B75F3
:10465000FB79BA680521F868FFF750FF3B7D7A7D4A
:10466000B97DF87D06F0EEFC0A4B3B61FB7DBA7D1F
:10467000797D387D04900391029201935B2300932E
:10468000054B3A69054906480BF087F800BF183713
:10469000BD4680BD6051010868510108E85101081C
:1046A000984C012080B58AB002AFF860B96013461B
:1046B000FB71FF233B75BB681B78FB770E4B1B68B8
:1046C000FA7F1146184603F00AFA07F11402012393
:1046D0000921F868FFF712FF084BBB61FB7F0193CC
:1046E00064230093064BBA69064907480BF055F856
:1046F00000BF2037BD4680BD240000206051010866
:104700006851010810520108984C012090B5A3B0DF
:1047100008AFF860B9601346FB714FF63F73BB8278
:104720000023A7F86630BB681B781BB21B021AB2C5
:10473000BB6801331B781BB21343A7F86430BB6816
:1047400002331B781BB21B021AB2BB6803331B78FF
:104750001BB21343A7F86230BB6804331B781BB24B
:104760001B021AB2BB6805331B781BB21343A7F8B0
:104770006030BB6806331B7887F85F30BB6807334F
:104780001B7887F85E30BB6808331B7887F85D308C
:10479000BB6809331B7887F85C30BB680A331B7829
:1047A00087F85B30BB680B331B781BB21B021AB255
:1047B000BB680C331B781BB213431BB2A7F85830ED
:1047C000BB680D331B7887F8573097F85F30072B9D
:1047D0000ED9B7F866300133A7F86630844B3B65D5
:1047E00079230093834B3A6D834984480AF0D5FFBF
:1047F00097F85E30072B0ED9B7F866300133A7F86B
:1048000066307B4BFB647E2300937A4BFA6C7C49C9
:104810007A480AF0C2FF97F85C300F2B0ED9B7F830
:1048200066300133A7F86630714BBB648323009375
:10483000704BBA6C734971480AF0AFFF97F85B3060
:104840000F2B0ED9B7F866300133A7F86630684BE6
:104850007B6488230093674B7A6C6B4967480AF046
:104860009CFFB7F86630002B40F0A880674B1868B3
:10487000B7F86410B7F86220B7F8604097F857307F
:104880000693B7F85830059397F85B30049397F880
:104890005C30039397F85D30029397F85E30019394
:1048A00097F85F300093234604F052FB504B3B6473
:1048B000B7F9643001938E2300934E4B3A6C544900
:1048C0004E480AF06AFF4A4BFB63B7F96230019326
:1048D0008F230093474BFA6B4E4948480AF05DFF1F
:1048E000434BBB63B7F96030019390230093414B76
:1048F000BA6B494941480AF050FF3D4B7B6397F83A
:104900005F300193912300933A4B7A6B43493B48C4
:104910000AF043FF364B3B6397F85E3001939223D6
:104920000093344B3A6B3E4934480AF036FF304B23
:10493000FB6297F85D30002B01D13A4B00E03A4B17
:104940000193932300932B4BFA6A38492B480AF0C2
:1049500024FF274BBB6297F85C30019394230093AC
:10496000244BBA6A324925480AF017FF204B7B6274
:1049700097F85B300193952300931E4B7A6A2D497B
:104980001E480AF00AFF1A4B3B62B7F858300193F1
:1049900096230093174B3A6A274918480AF0FDFE00
:1049A000134BFB6197F85730019397230093114BFA
:1049B000FA69224911480AF0F0FE03E03E233B75F4
:1049C0003E237B7507F1140202230B21F868FFF7E1
:1049D00095FD074BBB619F230093064BBA691849AD
:1049E00006480AF0DAFE00BF6C37BD4690BD00BF36
:1049F000605101086851010834520108984C0120A7
:104A0000605201088C520108B852010818000020B9
:104A1000E4520108005301081C53010838530108EF
:104A20005453010870530108745301087853010866
:104A300098530108BC530108E0530108FC530108D6
:104A40001854010880B588B002AFF860B960134609
:104A5000FB71FF23FB740D4B7B61A52300930C4B73
:104A60007A690C490C480AF098FE0C4B1B681846F2
:104A700003F0BAFD07F1130201230D21F868FFF7D7
:104A80003DFD00BF1837BD4680BD00BF6051010825
:104A9000685101083C540108984C0120180000207E
:104AA00080B588B002AFF860B9601346FB71FF2390
:104AB000FB740D4B7B61AD2300930C4B7A690C4961
:104AC0000C480AF06AFE0C4B1B68184603F070FD98
:104AD00007F1130201230F21F868FFF70FFD00BF54
:104AE0001837BD4680BD00BF6051010868510108FC
:104AF00068540108984C01201800002080B592B03D
:104B000002AFF860B9601346FB714FF63F73BB828A
:104B1000002387F83F30BB681B781BB21B021AB218
:104B2000BB6801331B781BB213431BB2BB87BB6846
:104B300002331B7887F83B30BB6803331B781BB20A
:104B40001B021AB2BB6804331B781BB213431BB29F
:104B50003B87BB8F4EF6602293420ED997F83F30C9
:104B6000013387F83F30594B7B63BD230093584B8B
:104B70007A6B584958480AF010FE97F83B30042BDE
:104B80000FD997F83F30013387F83F304F4B3B62E6
:104B9000C32300934E4B3A6A50494F480AF0FDFD3B
:104BA00049E097F83B30042B21D107F1140202238E
:104BB0001121F868FFF7A2FC494B1B680421184635
:104BC00003F0E4FF414BBB62C9230093404BBA6A38
:104BD000444941480AF0E1FD3C4B7B62CA23009303
:104BE0003B4B7A6A40493C480AF0D7FD6AE03C4BAF
:104BF0001B68184603F015FE034687F8333097F814
:104C0000332097F83B3042FA03F303F00103002B03
:104C100011D097F83F30013387F83F302B4BFB62C0
:104C200097F83B300193D3230093294BFA6A2F491D
:104C300029480AF0B2FD3B8FB3F5FA7F04D33B8FCE
:104C400040F6B832934210D997F83F30013387F8D5
:104C50003F301E4BFB613B8F0193DA2300931C4BCB
:104C6000FA6923491C480AF098FD97F83F30002B59
:104C700013D1BB8F184600F095FE194B1B6897F8AF
:104C80003B201146184603F081FF154B1B683A8FF5
:104C90001146184603F093FF03E03E233B753E2385
:104CA0007B7507F1140202231121F868FFF726FC37
:104CB000064BBB61EA230093054BBA690A490648D3
:104CC0000AF06BFD4037BD4680BD00BF6051010852
:104CD0006851010894540108984C0120CC540108F3
:104CE00018000020F85401082855010854550108FF
:104CF0007C55010880B588B002AFF860B9601346F2
:104D0000FB71FF23FB7407F1130201231321F868E1
:104D1000FFF7F4FB074B7B61F1230093064B7A69A5
:104D2000064907480AF039FD00F018FE00BF1837A1
:104D3000BD4680BD6051010868510108B0550108A9
:104D4000984C012080B588B002AFF860B960134676
:104D5000FB71FF23FB7407F1130201231521F8688F
:104D6000FFF7CCFB074B7B61F9230093064B7A6975
:104D7000064907480AF011FD00F002FE00BF18378F
:104D8000BD4680BD6051010868510108D455010835
:104D9000984C012080B59AB002AFF860B960134614
:104DA000FB71864BBB65FF230093854BBA6D85492C
:104DB00085480AF0F2FC4FF63F733B850023A7F8C5
:104DC0005E30BB681B781A06BB6801331B781B0476
:104DD0001A43BB6802331B781B021343BA680332C1
:104DE000127813437B65BB6804331B781B029BB2AC
:104DF000BA68053212781343A7F85230BB680633FD
:104E00001B781B029BB2BA68073212781343A7F8CB
:104E10005030BB6808331B781B029BB2BA6809325A
:104E200012781343A7F84E307B6DB3F57A7F03D326
:104E30007B6D664A93420FD9B7F85E300133A7F80D
:104E40005E305E4BBB6440F20B1300935C4BBA6C5C
:104E50005F495D480AF0A1FCB7F85230002B0FD132
:104E6000B7F85E300133A7F85E30544B7B6440F2F4
:104E700011130093524B7A6C564953480AF08DFC3B
:104E8000B7F85030002B0FD1B7F85E300133A7F8D8
:104E90005E304A4B3B6440F217130093484B3A6C28
:104EA0004D4949480AF079FCB7F84E30002B0FD134
:104EB000B7F85E300133A7F85E30404BFB6340F239
:104EC0001D1300933E4BFA6B44493F480AF065FCC2
:104ED000B7F85220B7F850301A44B7F84E301344A0
:104EE0001A467B6D02FB03F33D4AA2FB03239B0C96
:104EF000BB63BB6BB3F5006F0FD9B7F85E300133FE
:104F0000A7F85E302D4B7B634FF4927300932C4BCC
:104F10007A6B34492C480AF040FCB7F85E30002B1D
:104F20003AD17B6D7B61B7F852307B83B7F8503054
:104F3000BB83B7F84E30FB83BB6B3B622A4A7B6D69
:104F4000B2FBF3F37B62294B1B6807F11402114695
:104F50001846FEF77DFE0346002B0BD1174BFB6274
:104F60004FF499730093164BFA6A214916480AF0D8
:104F700014FC17E03E2387F828303E2387F82930B9
:104F80000E4B3B634FF49C7300930D4B3A6B1949E6
:104F90000D480AF002FC05E03E2387F828303E2346
:104FA00087F8293007F1280202231721F868FFF754
:104FB000A5FA00BF6037BD4680BD00BF6051010843
:104FC00068510108F8550108984C012000350C0083
:104FD000185601084C5601087C560108AC560108C9
:104FE00083DE1B43DC56010840420F001C000020FA
:104FF000105701083057010880B590B002AFF86033
:10500000B9601346FB714FF63F73BB84BB681B78D6
:1050100087F8373097F83730642B11D93E2387F85B
:1050200024303E2387F82530244BBB624FF4A6730F
:105030000093234BBA6A234923480AF0AEFB39E0B8
:10504000224B1B6807F1100211461846FEF7AAFE14
:1050500097F837307B751D4B1B6807F1100211461E
:105060001846FEF72FFE0346002B0BD1134BFB62B5
:1050700040F257130093124BFA6A154912480AF08E
:105080008CFB10E03E2387F824303E2387F8253040
:105090000A4B3B6340F25D130093094B3A6B0D4999
:1050A00009480AF07AFB07F1240202231921F86863
:1050B000FFF724FA3837BD4680BD00BF60510108B4
:1050C0006851010850570108984C01201C0000202D
:1050D0007C570108A857010880B590B002AFF8606E
:1050E000B9601346FB714FF63F73BB84BB681B78F6
:1050F00087F8373097F83730242B03D897F83730B4
:10510000002B11D13E2387F824303E2387F8253029
:10511000244BBB6240F26B130093234BBA6A2349C2
:1051200023480AF03AFB32E0224B1B6807F11002D9
:1051300011461846FEF736FE97F837303B751D4B83
:105140001B6807F1100211461846FEF7D2FD034610
:10515000002B0BD1134BFB6240F275130093124BE3
:10516000FA6A154912480AF018FB10E03E2387F846
:1051700024303E2387F825300A4B3B6340F27B13F3
:105180000093094B3A6B0D4909480AF006FB07F1F9
:10519000240202231B21F868FFF7B0F900BF38375B
:1051A000BD4680BD6051010868510108D45701080F
:1051B000984C01201C0000200058010824580108C8
:1051C00080B58AB002AFF860B9601346FB713F2327
:1051D0003B75184B1B681846FEF7F8FD0346002B7D
:1051E0000DD03E233B75144BBB6140F287130093F7
:1051F000124BBA69124913480AF0CFFA0FE0124B6A
:105200001B681846FFF7DAF80B4BFB614FF4C673C7
:1052100000930A4BFA690D490A480AF0BEFA07F1F1
:10522000140201231D21F868FFF768F900BF203739
:10523000BD4680BD1C000020605101086851010876
:1052400048580108984C01201400002070580108AB
:1052500080B58EB002AFF860B9601346FB714FF6AF
:105260003F73BB84214B1B6807F11002114618469F
:10527000FEF798FDFB69002B0ED1002387F8243040
:105280001B4BBB624FF4CD7300931A4BBA6A1A4999
:105290001A480AF082FA1DE0FB691B09DBB287F8A5
:1052A0002430FB6903F00F03002B05D097F824305E
:1052B0000133DBB287F824300D4BFB6297F82430C2
:1052C000019340F2A11300930A4BFA6A0C490B4870
:1052D0000AF063FA07F1240202231F21F868FFF79E
:1052E0000DF900BF3037BD4680BD00BF1C00002057
:1052F000605101086851010898580108984C012034
:10530000B858010880B590B002AFF860B960134694
:10531000FB714FF63F73BB84BB681B7887F837304F
:105320002D4B1B6807F1100211461846FEF73AFD97
:10533000FB691B0987F8363097F83630002B11D1FE
:105340003E2387F824303E2387F82530234BBB6269
:1053500040F2B1130093224BBA6A224922480AF064
:105360001CFA2EE097F8372097F836309A4211D37E
:105370003E2387F824303E2387F82530174BFB6205
:1053800040F2B7130093164BFA6A184916480AF010
:1053900004FA16E0104B1B6897F8372092B21146BA
:1053A0001846FEF74BFD0D4B3B6397F837300193E2
:1053B0004FF4DE7300930A4B3A6B0D490A480AF02A
:1053C000ECF907F1240202232121F868FFF796F88F
:1053D00000BF3837BD4680BD1C0000206051010869
:1053E00068510108DC580108984C0120F858010860
:1053F0002059010880B58CB004AFF860B96013463D
:10540000FB7105F09BFC0346FB83FB8B1B0A9BB2E5
:10541000DBB23B75FB8BDBB27B7507F11402022319
:105420002321F868FFF76AF80A4BBB61BB681B7859
:105430001A46FB8B0293019240F2C9130093064B6C
:10544000BA69064906480AF0A8F900BF2037BD46E8
:1054500080BD00BF60510108685101084C59010826
:10546000984C012080B588B002AFF860B96013464F
:10547000FB714FF63F733B820D4B1B681846FEF7DE
:10548000FDFC0C4B7B614FF4E87300930A4B7A6987
:105490000A490B480AF081F907F11002022325217D
:1054A000F868FFF72BF800BF1837BD4680BD00BF76
:1054B0001C0000206051010868510108785901085A
:1054C000984C012080B58CB004AFF860B9601346E9
:1054D000FB7105F033FC0346FB83FB8B1B0A9BB27D
:1054E000DBB23B75FB8BDBB27B7507F11402022349
:1054F0002721F868FFF702F80A4BBB61BB681B78ED
:105500001A46FB8B029301924FF4EE730093064B05
:10551000BA69064906480AF040F900BF2037BD467F
:1055200080BD00BF6051010868510108A4590108FD
:10553000984C012080B58AB002AFF860B96013467C
:10554000FB714FF63F733B82BB681B78FB83B7F957
:105550001E30642B0FDD3E233B743E237B74164BC1
:105560007B6140F2E7130093144B7A6914491548A4
:105570000AF013F915E0144B1B68B7F91E2001213E
:105580001846FEF799FA0C4BBB61B7F91E30019330
:105590004FF4F6730093094BBA690C4909480AF0B5
:1055A000FCF807F1100202232921F868FEF7A6FF94
:1055B00000BF2037BD4680BD605101086851010819
:1055C000CC590108984C01201C000020F859010812
:1055D00080B58AB002AFF860B9601346FB714FF630
:1055E0003F733B82BB681B78FB77FB7F082B02D89D
:1055F000FB7F002B0FD13E233B743E237B74144B67
:105600007B614FF4FD730093124B7A691249134882
:105610000AF0C3F811E0124B1B68FA7F11461846D6
:10562000FEF7B3FA0A4BBB6140F2FF130093094B3C
:10563000BA690C4909480AF0B0F807F110020223D0
:105640002B21F868FEF75AFF00BF2037BD4680BD0A
:105650006051010868510108245A0108984C012042
:105660001C000020505A010880B588B002AFF860D5
:10567000B9601346FB71FF233B7407F1100201234D
:105680002D21F868FEF73AFF094B1B681846FEF714
:105690009FFA084B7B6140F209230093064B7A691D
:1056A000064907480AF079F800BF1837BD4680BDA3
:1056B0001C0000206051010868510108745A01085B
:1056C000984C012080B58CB002AFF860B9601346E9
:1056D000FB710020FDF7B4FD0346FB840120FDF7BC
:1056E000AFFD0346BB843F233B75FB8C1B0A9BB27B
:1056F000DBB27B75FB8CDBB2BB75BB8C1B0A9BB230
:10570000DBB2FB75BB8CDBB23B7607F114020523E1
:105710003321F868FEF7F2FE0E4B3B62FB8C0193DF
:105720004FF4057300930C4B3A6A0C490C480AF08D
:1057300034F8084BFB61BB8C019340F215230093B6
:10574000054BFA69074906480AF027F800BF2837D1
:10575000BD4680BD6051010868510108985A010892
:10576000984C0120C05A010880B400AF024B184683
:10577000BD465DF8047B70470874010880B400AF33
:1057800017231846BD465DF8047B704780B582B08C
:1057900000AF786039607B68183318460AF0CCFB9C
:1057A00000BF0837BD4680BD80B584B000AF7860CB
:1057B00039607B685B69FB607B685B693968786826
:1057C00098470346FB72FB7A002B08D1FB68064919
:1057D000786898477B685B6904497868984700BF98
:1057E0001037BD4680BD00BFE4740108D0740108C5
:1057F00080B584B002AF786039607B68002B03D13C
:105800000021134803F002FC78683B685A683B6843
:105810009B68009313460F4A0F490AF0DFFA7B6832
:1058200018337A68162118460AF044FB3B681A6858
:105830007B685A617B68002283F828207B681833D4
:1058400018460AF079FB00BF0837BD4680BD00BF8F
:10585000C0740108A95700088D57000880B586B0AC
:1058600002AF1223009302232422094909480AF0B7
:105870001EF8094A3B1D07CA83E807003B1D19466D
:105880000648FFF7B5FF00BF1037BD4680BD00BF1B
:10589000B44B0120D84B0120E85A0108744B012079
:1058A00080B582B000AF0346FB71FB79194603480F
:1058B0000AF0AEFA00BF0837BD4680BD744B012028
:1058C00080B586B002AF786039603B681B88012BD9
:1058D00002D0162B02D02FE001232EE07B6893F834
:1058E0002830002B13D1174BBB605F230093164B5E
:1058F000BA681649164809F050FF164B1B6818463F
:1059000003F079F97B68012283F8282012E00D4B1F
:10591000FB60652300930C4BFA680F490C4809F0B3
:105920003CFF0C4B1B68184603F0EFF97B68002224
:1059300083F82820012300E0022318461037BD46D3
:1059400080BD00BFF45A0108FC5A01082C5B010815
:10595000984C012028000020445B010880B500AF6E
:10596000054B1B88044A1288194604480AF0C4FAF9
:105970000023184680BD00BF2C0000208C4B012066
:1059800080B500AF05480AF0D7FA054B1B681846EA
:1059900003F0BBF90023184680BD00BF8C4B0120EB
:1059A0002800002080B483B000AF0346FB80044A87
:1059B000FB88138000BF0C37BD465DF8047B704741
:1059C0002C00002080B400AFBFF34F8F00BF064B08
:1059D000DB6803F4E0620449044B1343CB60BFF37C
:1059E0004F8F00BF00BFFDE700ED00E00400FA05A7
:1059F00080B588B000AFF860B9607A6007F1140331
:105A0000074A0A2118460DF079F907F114031946DF
:105A1000F86807F03CFC00BF2037BD4680BD00BFE2
:105A20006865010880B584B000AFF860B9607A603D
:105A3000FFF7C8FF80B588B000AFF860B9607A6042
:105A40000023BB610023FB82B86807F011FD034609
:105A50007B757B7D012B04D02E49F86808F08EFE03
:105A600054E00121B86807F0CDFC38613B691B7830
:105A7000612B22D10023FB771BE0FB7F1846FDF74B
:105A80002BFC0346FB82B7F9163013F5004F06D105
:105A9000FB7F1A462049F86808F070FE06E0FA7F9E
:105AA000B7F916301D49F86808F068FEFB7F01332E
:105AB000FB77FB7F072BE0D928E03B691B782F2B76
:105AC00020D93B691B78372B1CD838690CF03CFB7C
:105AD0000346BB61B869FDF7FFFB0346FB82B7F9DC
