:020000040800F2
:1000000000000820952F0008852D00088D2D000880
:10001000952D00089D2D0008A52D0008000000006A
:10002000000000000000000000000000AD2D0008EE
:10003000BB2D000800000000C92D0008D72D0008C6
:10004000E52F0008E52F0008E52F0008E52F000840
:10005000E52F0008E52F0008E52F0008E52F000830
:10006000E52F0008E52F0008E52F0008E52F000820
:1000700089870008E52F0008E52F0008E52F000814
:10008000E52F0008E52F0008E52F0008E52F000800
:10009000E52F0008E52F0008E52F0008E52F0008F0
:1000A000E52F0008CD880008E52F0008E52F00089F
:1000B00019890008E52F0008E52F0008E52F000842
:1000C000E52F0008E52F0008E52F0008E52F0008C0
:1000D000E52F0008E52F0008E52F0008E52F0008B0
:1000E000E52F0008E52F0008E52F0008E52F0008A0
:1000F000E52F0008E52F0008E52F0008E52F000890
:10010000E52F0008E52F0008E52F0008E52F00087F
:10011000E52F0008E52F0008E52F0008E52F00086F
:10012000017E0008E52F0008B57C0008E52F0008D7
:10013000E52F0008E52F0008E52F0008E52F00084F
:10014000E52F0008E52F0008E52F0008E52F00083F
:10015000E52F0008DD8A0008E52F0008C5600008CB
:10016000E52F0008E52F0008E52F0008E52F00081F
:10017000E52F0008E52F0008E52F0008000000002B
:10018000E52F0008E52F0008253F0008E52F0008AF
:10019000E52F0008E52F0008E52F0008E52F0008EF
:1001A0000000000000000000E52F0008E52F000817
:1001B000E52F0008E52F0008E52F0008E52F0008CF
:1001C000E52F0008E52F000800000000E52F0008DB
:1001D000E52F0008E52F0008E52F0008E52F0008AF
:1001E000E52F0008E52F0008E52F0008E52F00089F
:0801F00000000000E52F0008EB
:1002000010B5054C237833B9044B13B10448AFF350
:1002100000800123237010BDA043002000000000D7
:10022000D421010808B5034B1BB103490348AFF3C0
:10023000008008BD00000000A4430020D421010874
:1002400010F8012B11F8013B012A28BF9A42F7D080
:10025000D01A7047000000000000000000000000FD
:1002600001F0FF01102A2BDB10F0070F08D010F867
:10027000013B013A8B422DD010F0070F42B3F6D16B
:10028000F0B441EA012141EA014122F007047FF084
:1002900000070023F0E80256083C85EA010586EADB
:1002A000010685FA47F5A3FA87F586FA47F6A5FA17
:1002B00087F68EB9EED1F0BC01F0FF0102F0070223
:1002C00032B110F8013B013A83EA010313B1F8D1CE
:1002D0000020704701387047002D06BF35460338AF
:1002E000073815F0010F07D1013015F4807F02BFE8
:1002F000013015F4C03F0130F0BC0138704700BF39
:10030000034613F8012B002AFBD1181A0138704755
:100310007BB972B90029BEBF00204FF0004106E052
:1003200008BF00281CBF6FF000414FF0FF3000F005
:10033000BBB9ADF1080C6DE904CE002909DB002B37
:100340001ADB00F035F8DDF804E0DDE9022304B043
:100350007047404261EB4101002B1BDB00F028F8A5
:10036000DDF804E0DDE9022304B0404261EB410125
:10037000524263EB43037047524263EB430300F086
:1003800017F8DDF804E0DDE9022304B0404261EB38
:1003900041017047524263EB430300F009F8DDF876
:1003A00004E0DDE9022304B0524263EB43037047EB
:1003B0002DE9F047089D8E4604468846002B4AD119
:1003C0008A42174662D9B2FA82F64EB1C6F12003CC
:1003D00001FA06F820FA03F3B74043EA0808B440EC
:1003E0004FEA174E1FFA87FCB8FBFEF1230C0EFBF9
:1003F000118843EA084301FB0CF29A4209D9FB1821
:1004000001F1FF3080F0EA809A4240F2E780023941
:100410003B449A1AA3B2B2FBFEF00EFB102243EA51
:10042000024300FB0CFC9C4509D9FB1800F1FF328C
:1004300080F0D6809C4540F2D3803B44023840EAAD
:100440000140A3EB0C0300211DB1F3400022C5E9DC
:100450000032BDE8F0878B4205D90DB1C5E9000136
:1004600000210846F5E7B3FA83F1002946D1734528
:1004700002D3824200F20581841A6EEB030201204E
:100480009046002DE5D0C5E90048E2E7002A00F0DB
:100490009080B2FA82F6002E40F0A4808A1A030CF3
:1004A0004FEA174E80B2BCB20121B2FBFEFC0EFB3C
:1004B0001C2243EA024304FB0CF29A4207D9FB18C0
:1004C0000CF1FF3802D29A4200F2E080C4469B1A37
:1004D000B3FBFEF20EFB123340EA034302FB04F4CB
:1004E0009C4207D9FB1802F1FF3002D29C4200F275
:1004F000CA8002461B1B42EA0C40A5E7C1F1200658
:100500008B4022FA06F71F430EFA01F420FA06F395
:100510002EFA06FE4FEA1749234300FA01F81FFAA4
:1005200087FCBEFBF9F01C0C09FB10EE44EA0E44FC
:1005300000FB0CFEA64502FA01F209D93C1900F1B4
:10054000FF3A80F09C80A64540F2998002383C44F6
:10055000A4EB0E041FFA83FEB4FBF9F309FB13446A
:100560004EEA044403FB0CFCA44508D93C1903F1F2
:10057000FF3E80F08280A4457FD9023B3C4443EAA1
:100580000040A4EB0C04A0FB02EC64457346E1467A
:1005900062D35FD05DB1B8EB030264EB090404FAE7
:1005A00006F622FA01F31E43CC40C5E9006400219F
:1005B0004FE7B1FBF2FC010C41EA0E4180B240EA88
:1005C00001423B4638463C46B846BE462026B1FB73
:1005D000F7F1A2EB080241EA0C4166E7014618E791
:1005E00010462CE7C6F120022EFA02F3B740B140C4
:1005F00020FA02F24FEA174E0A43B3FBFEF8BCB2F0
:100600000EFB1833110C41EA034108FB04F9B0401A
:1006100089454FEA104380B23ED9791808F1FF3C72
:1006200001D289451FD8A1EB0901B1FBFEF909FBF5
:1006300004F80EFB191192B242EA0142424529D256
:10064000BA1809F1FF31C4D24245C2D2A9F1020160
:100650003A44BEE7F0459DD2BEEB02036CEB070CBB
:100660000138E14696E7A7EB09094944A8F1020CD5
:10067000B1FBFEF909FB04F8DBE773467FE7504660
:1006800066E70846FDE63B44023A33E7ACF1020C6C
:100690003B441CE749469CE7A1EB0901C446B1FB7A
:1006A000FEF909FB04F8C4E7704700BF80B485B0C9
:1006B00000AF78607B6803F00703FB600B4BDB68DF
:1006C000BB60BA684FF6FF031340BB60FB681A02B9
:1006D000BB681A43064B1343BB60044ABB68D36034
:1006E00000BF1437BD465DF8047B704700ED00E0A5
:1006F0000000FA0580B400AF044BDB681B0A03F06E
:1007000007031846BD465DF8047B704700ED00E026
:1007100080B483B000AF0346FB7197F90730002B1C
:100720000BDBFB7903F01F02074997F907305B09E0
:10073000012000FA02F241F8232000BF0C37BD4629
:100740005DF8047B704700BF00E100E080B483B037
:1007500000AF03463960FB7197F90730002B0ADBC5
:100760003B68DAB20C4997F907301201D2B20B4458
:1007700083F800230AE03B68DAB20849FB7903F00A
:100780000F03043B1201D2B20B441A7600BF0C37A0
:10079000BD465DF8047B704700E100E000ED00E03D
:1007A00080B489B000AFF860B9607A60FB6803F08C
:1007B0000703FB61FB69C3F10703042B28BF042374
:1007C000BB61FB690433062B02D9FB69033B00E0E4
:1007D00000237B614FF0FF32BB6902FA03F3DA4377
:1007E000BB681A407B699A404FF0FF317B6901FA80
:1007F00003F3D9437B680B40134318462437BD46A7
:100800005DF8047B704780B489B000AFF860B960D0
:100810007A60FB682C331946BB6803F440734FF4CD
:100820004072BA61BA6992FAA2F27A617A69B2FA4E
:1008300082F2D2B2D3409B000B44FB61FB691A6881
:10084000BB6803F01F031F2101FA03F3DB431A40C7
:100850007B6803F01F01BB6803F01F0301FA03F379
:100860001A43FB691A6000BF2437BD465DF8047B5C
:10087000704780B483B000AF786039607B689B6854
:1008800023F480623B681A437B689A6000BF0C3790
:10089000BD465DF8047B704780B48DB000AFF86052
:1008A000B9607A60FB680C331946BB6803F00073CB
:1008B0004FF00072BA61BA6992FAA2F27A617A696B
:1008C000B2FA82F2D2B2D3409B000B44FB62FB6AC5
:1008D0001A68BB6803F0F8734FF0F8713962396A2F
:1008E00091FAA1F1F961F969B1FA81F1C9B2CB408C
:1008F000072101FA03F3DB431A40BB6803F0F873E6
:100900004FF0F871B962B96A91FAA1F17962796A26
:10091000B1FA81F1C9B2CB40796801FA03F31A4305
:10092000FB6A1A6000BF3437BD465DF8047B704730
:1009300080B485B000AFF860B9607A600D4ABB68DA
:1009400013441B781A46FB6813441B6823F0C0024B
:100950000849BB680B441B781946FB680B441946D1
:100960007B6813430B6000BF1437BD465DF8047B02
:10097000704700BF043C010880B485B000AFF86048
:10098000B9607A600D4ABB6813441B781A46FB684D
:1009900013441B6823F490720849BB680B441B780E
:1009A0001946FB680B4419467B6813430B6000BF74
:1009B0001437BD465DF8047B704700BF043C010856
:1009C00080B485B000AFF860B9607A600D4ABB684A
:1009D00013441B781A46FB6813441B6823F4007207
:1009E0000849BB680B441B781946FB680B44194641
:1009F0007B6813430B6000BF1437BD465DF8047B72
:100A0000704700BF043C010880B485B000AFF860B7
:100A1000B9607A600D4ABB6813441B781A46FB68BC
:100A200013441B6823F480620849BB680B441B789D
:100A30001946FB680B4419467B6813430B6000BFE3
:100A40001437BD465DF8047B704700BF043C0108C5
:100A500080B485B000AFF860B9607A600D4ABB68B9
:100A600013441B781A46FB6813441B6823F4C052D6
:100A70000849BB680B441B781946FB680B441946B0
:100A80007B6813430B6000BF1437BD465DF8047BE1
:100A9000704700BF043C010880B485B000AFF86027
:100AA000B9607A600D4ABB6813441B781A46FB682C
:100AB00013441B6823F4C0420849BB680B441B78ED
:100AC0001946FB680B4419467B6813430B6000BF53
:100AD0001437BD465DF8047B704700BF043C010835
:100AE00080B485B000AFF860B9607A600D4ABB6829
:100AF00013441B781A46FB6813441B6823F44032E6
:100B00000849BB680B441B781946FB680B4419461F
:100B10007B6813430B6000BF1437BD465DF8047B50
:100B2000704700BF043C010880B485B000AFF86096
:100B3000B9607A600D4ABB6813441B781A46FB689B
:100B400013441B6823F0F0520849BB680B441B7820
:100B50001946FB680B4419467B6813430B6000BFC2
:100B60001437BD465DF8047B704700BF043C0108A4
:100B700080B483B000AF786039600C4A3B6813449E
:100B80001B781A467B6813445B6908493A680A4433
:100B9000127811467A680A4423F00403536100BFB7
:100BA0000C37BD465DF8047B704700BF043C01086C
:100BB00080B483B000AF78607B681B6843F00102AB
:100BC0007B681A6000BF0C37BD465DF8047B704738
:100BD00080B483B000AF78607B681B6823F4003278
:100BE0007B681A6000BF0C37BD465DF8047B704718
:100BF00080B483B000AF78607B681B6823F4002268
:100C00007B681A6000BF0C37BD465DF8047B7047F7
:100C100080B485B000AFF860B9607A60FB68DA68CC
:100C2000064B1340B9687A680A431A43FB68DA60D6
:100C300000BF1437BD465DF8047B704701F8FFFF25
:100C400080B483B000AF78607B68DB6823F4004237
:100C50007B68DA6000BF0C37BD465DF8047B7047E7
:100C600080B483B000AF78607B685B6843F000724B
:100C70007B685A6000BF0C37BD465DF8047B704747
:100C800080B400AF054B1B68044A43F48033136003
:100C900000BFBD465DF8047B704700BF00380240CE
:100CA00080B400AF074B1B6803F40033B3F5003F7B
:100CB0000CBF01230023DBB21846BD465DF8047B60
:100CC000704700BF0038024080B483B000AF786046
:100CD000064B9B6823F0030204497B6813438B6037
:100CE00000BF0C37BD465DF8047B704700380240FA
:100CF00080B400AF044B9B6803F00C031846BD465C
:100D00005DF8047B704700BF0038024080B483B0B8
:100D100000AF7860064B9B6823F0F00204497B68C3
:100D200013438B6000BF0C37BD465DF8047B7047F2
:100D30000038024080B483B000AF7860064B9B68F7
:100D400023F4E05204497B6813438B6000BF0C37E7
:100D5000BD465DF8047B70470038024080B483B024
:100D600000AF7860064B9B6823F4604204497B68BF
:100D700013438B6000BF0C37BD465DF8047B7047A2
:100D80000038024080B483B000AF7860094BD3F8DC
:100D900090207B681B0CDB431A407B689BB20549A3
:100DA0001343C1F8903000BF0C37BD465DF8047B9B
:100DB000704700BF0038024080B483B000AF786055
:100DC000094BD3F890207B681B0CDB431A407B68EF
:100DD0009BB205491343C1F8903000BF0C37BD46A4
:100DE0005DF8047B704700BF0038024080B483B0D8
:100DF00000AF7860094BD3F890207968084B0B401E
:100E0000DB431A407B681B0404491343C1F890304C
:100E100000BF0C37BD465DF8047B704700380240C8
:100E20000000FFFF80B483B000AF7860074BD3F8B9
:100E30008C3023F0807205497B681343C1F88C30F5
:100E400000BF0C37BD465DF8047B70470038024098
:100E500080B400AF054B1B68044A43F080731360F5
:100E600000BFBD465DF8047B704700BF00380240FC
:100E700080B400AF074B1B6803F00073B3F1007F31
:100E80000CBF01230023DBB21846BD465DF8047B8E
:100E9000704700BF0038024080B485B000AFF860F2
:100EA000B9607A603B600A4B5A680A4B1340F96894
:100EB000BA6811437A68920111433A680A430449B7
:100EC00013434B6000BF1437BD465DF8047B704789
:100ED000003802400080BCFF80B485B000AF78606D
:100EE000084B1A6B07497B6813430B63054B1A6B5E
:100EF0007B681340FB60FB6800BF1437BD465DF89C
:100F0000047B70470038024080B485B000AF786041
:100F1000084B1A6C07497B6813430B64054B1A6C2A
:100F20007B681340FB60FB6800BF1437BD465DF86B
:100F3000047B70470038024080B485B000AF786011
:100F4000084B5A6C07497B6813434B64054B5A6C3A
:100F50007B681340FB60FB6800BF1437BD465DF83B
:100F6000047B70470038024080B483B000AF7860E3
:100F7000064B1B6823F00F0204497B6813430B6088
:100F800000BF0C37BD465DF8047B7047003C024053
:100F900080B400AF044B1B6803F00F031846BD4636
:100FA0005DF8047B704700BF003C024080B400AF96
:100FB000054B1B68044A43F48033136000BFBD46F1
:100FC0005DF8047B704700BF0070004080B483B0C0
:100FD00000AF7860064B1B6823F4404204497B68ED
:100FE00013430B6000BF0C37BD465DF8047B7047B0
:100FF0000070004080B400AF074B5B6803F480438F
:10100000B3F5804F0CBF01230023DBB21846BD4669
:101010005DF8047B704700BF0070004080B483B06F
:1010200000AF78607B681B6843F040027B681A6001
:1010300000BF0C37BD465DF8047B704780B483B0B9
:1010400000AF786039607B685B6823F010023B6812
:101050001A437B685A6000BF0C37BD465DF8047BBD
:10106000704780B483B000AF78607B685B6843F002
:1010700008027B685A6000BF0C37BD465DF8047BF0
:10108000704780B483B000AF78607B685B6823F002
:1010900008027B685A6000BF0C37BD465DF8047BD0
:1010A000704780B483B000AF78607B681B6823F022
:1010B00080027B681A6000BF0C37BD465DF8047B78
:1010C0007047000080B485B000AF786039603B683D
:1010D000012B28D03B68042B23D03B68102B1ED05B
:1010E0003B68402B19D03B68B3F5807F13D03B6839
:1010F000B3F5806F0DD03B68B3F5805F07D03B68D8
:10110000B3F5803F01D107230EE008230CE006234E
:101110000AE0052308E0042306E0032304E0022399
:1011200002E0012300E00023FB737B6818331946BB
:10113000FB7B0B4AD35C0B44BB60BB681A68FB7B30
:101140000849CB5C194604238B40DB431A40BB683B
:101150001A6000BF1437BD465DF8047B704700BFBE
:101160000C3C0108183C010880B485B000AF7860E1
:1011700039603B68012B28D03B68042B23D03B68A7
:10118000102B1ED03B68402B19D03B68B3F5807FF5
:1011900013D03B68B3F5806F0DD03B68B3F5805F2B
:1011A00007D03B68B3F5803F01D107230EE0082349
:1011B0000CE006230AE0052308E0042306E00323ED
:1011C00004E0022302E0012300E00023FB737B68BC
:1011D00018331946FB7B0A4AD35C0B44BB60BB68DF
:1011E0001A68FB7B0749CB5C194608238B401A43DE
:1011F000BB681A6000BF1437BD465DF8047B7047BA
:101200000C3C0108183C010880B483B000AF786042
:1012100039607B689A68064B13403A681A437B68CA
:101220009A6000BF0C37BD465DF8047B704700BF75
:10123000F8BFFEFF80B483B000AF786039607B6890
:101240005B6823F070023B681A437B685A6000BFFA
:101250000C37BD465DF8047B704780B483B000AFA7
:10126000786039607B685B6823F470023B681A43DE
:101270007B685A6000BF0C37BD465DF8047B704741
:1012800080B483B000AF78607B689B6823F08002F5
:101290007B689A6000BF0C37BD465DF8047B7047E1
:1012A00080B483B000AF78607B681B6843F00102B4
:1012B0007B681A6000BF0C37BD465DF8047B704741
:1012C00080B483B000AF786039607B681B6823F41A
:1012D000F8123B681B041A437B681A6000BF0C3786
:1012E000BD465DF8047B704780B483B000AF786082
:1012F00039607B681B6823F078723B685B051A4392
:101300007B681A6000BF0C37BD465DF8047B7047F0
:1013100080B483B000AF78607B689B6843F4804200
:101320007B689A6000BF0C37BD465DF8047B704750
:1013300080B483B000AF786039607B689B6823F429
:1013400000423B681A437B689A6000BF0C37BD4679
:101350005DF8047B704780B483B000AF78607B6831
:101360005B6823F490427B685A607B689B6823F03B
:101370002A027B689A6000BF0C37BD465DF8047B8B
:10138000704780B483B000AF786039607B683A689A
:101390009A6100BF0C37BD465DF8047B704780B48E
:1013A00083B000AF786039603B681A047B689A614B
:1013B00000BF0C37BD465DF8047B704780B500AFB9
:1013C0004FF08050FFF7A0FD4FF48040FFF7B4FDD1
:1013D0000320FFF76BF9FFF78DF9034600220F2179
:1013E0001846FFF7DDF9034619464FF0FF30FFF7C7
:1013F000ADF900F02DF801F00FFA01F0B1F900F0AD
:10140000DDFA00F04FFB00F0C1FB00F04BFC00F0F8
:10141000FBFC00F06DF800F075FD00F055FF01F0E9
:101420002DF800F0EDFD01F09FF801F025F900F036
:10143000B3F900F061FA00F0BFFE00F003FF01F025
:10144000AFFE01F0BBFE01F0CCFE00BFFDE70000E7
:1014500080B500AF0620FFF787FD00BFFFF798FDBE
:101460000346062BFAD14FF44040FFF7AFFDFFF7DC
:101470009DFDFFF705FC00BFFFF712FC0346012BA3
:10148000FAD10023C0220C214FF48000FFF704FDA5
:10149000FFF7DEFC00BFFFF7EBFC0346012BFAD1A0
:1014A00000BFFFF7A7FD0346002BFAD00020FFF78F
:1014B0002DFC4FF4A050FFF73DFC4FF40040FFF728
:1014C0004DFC0220FFF700FC00BFFFF711FC0346B4
:1014D000082BFAD105480DF01FFF04480DF050FF0E
:1014E0000020FFF79FFC00BF80BD00BF00C2EB0BD8
:1014F00080B592B000AF07F13C0300221A605A6039
:101500009A6007F1280300221A605A609A60DA6034
:101510001A6107F1180300221A605A609A60DA60B3
:101520003B4600221A605A609A60DA601A615A617A
:101530004FF48070FFF700FD0420FFF7CDFC022080
:10154000FFF7CAFC01233B6003237B6000233B6160
:101550003B46194684480CF088FC02233B60032379
:101560007B6000233B613B4619467F480CF07DFCC5
:1015700004233B6003237B6000233B613B46194609
:1015800079480CF072FC08233B6003237B60002346
:101590003B613B46194674480CF067FC10233B60E6
:1015A00003237B6000233B613B4619466E480CF0E9
:1015B0005CFC20233B6003237B6000233B613B46B4
:1015C000194669480CF051FC01233B6003237B6002
:1015D00000233B613B46194664480CF046FC02235D
:1015E0003B6003237B6000233B613B4619465F4819
:1015F0000CF03BFC002200215D48FFF795FA002229
:1016000000215B48FFF794F9002200215848FFF7BA
:1016100067FA4FF4807200215548FFF7ADF90022B8
:1016200000215348FFF7CCF94FF480620021504865
:10163000FFF7EAF94FF4006200214D48FFF708FA7E
:101640004FF4005200214A48FFF726FA002148488B
:10165000FFF78EFA0023FB6300233B644FF4807393
:101660007B6407F13C03194642480CF085FA0023DD
:10167000BB624FF4E003FB6200233B6300237B6308
:101680004FF44073BB6307F12803194639480CF047
:101690009FFA00213748FFF7ECF84FF48033BB6125
:1016A0000023FB6107F11803194633480CF01CFABC
:1016B0000A224FF400712F48FFF7A5F801220A21F2
:1016C0002C48FFF7E9F82D4A40F205212948FFF799
:1016D0009AF8012229492748FFF7DEF8284A40F204
:1016E0000A212448FFF78FF8012225492148FFF7F6
:1016F000D3F8244A40F20F211E48FFF784F8012254
:1017000020491C48FFF7C8F81F4A4FF405711948D3
:10171000FFF779F801221C491648FFF7BDF81B4A6C
:1017200040F219211348FFF76EF8012217491148BA
:10173000FFF7B2F8164A4FF480710E48FFF763F8CE
:10174000012213490B48FFF7A7F8124A40F205118E
:101750000848FFF758F801220E490648FFF79CF8A1
:1017600000BF4837BD4680BD00080240000402406B
:101770000064024000200140002301400B003000C3
:101780000C0060000D0090000E00C0000F00F00083
:10179000080080030900B00380B58EB000AF07F1E8
:1017A0002C0300221A605A609A6007F11803002285
:1017B0001A605A609A60DA601A613B4600221A6029
:1017C0005A609A60DA601A615A614FF40070FFF74C
:1017D000B3FB0120FFF780FB04233B6003237B6006
:1017E00000233B613B4619463E480CF03EFB082374
:1017F0003B6003237B6000233B613B46194639482D
:101800000CF033FB4FF0007202213748FFF78CF9E0
:10181000002202213448FFF78BF8002202213248CF
:10182000FFF75EF94FF4807202212F48FFF7A4F80A
:10183000002202212C48FFF7C3F84FF480620221F6
:101840002948FFF7E1F84FF4006202212648FFF72C
:10185000FFF84FF4005202212348FFF71DF902213F
:101860002148FFF785F90023FB6200233B634FF417
:1018700080737B6307F12C0319461C480CF07CF93C
:101880000023BB614FF48013FB6100233B62002304
:101890007B624FF44073BB6207F11803194613488B
:1018A0000CF096F94FF480611048FEF7E2FF104A01
:1018B0004FF400710D48FEF7A6FF01220C490B48BA
:1018C000FEF7EAFF0B4A40F205210848FEF79BFFAE
:1018D000012208490548FEF7DFFF00BF3837BD4643
:1018E00080BD00BF000002400064024000210140B2
:1018F000030090020200600280B58EB000AF07F1D5
:101900002C0300221A605A609A6007F11803002223
:101910001A605A609A60DA601A613B4600221A60C7
:101920005A609A60DA601A615A614FF48060FFF77A
:1019300003FB0120FFF7D0FA02233B6003237B6007
:1019400000233B613B46194619480CF08EFA0023F0
:10195000FB6200233B6300237B6307F12C031946E2
:1019600014480CF009F90023BB610023FB6100233C
:101970003B6200237B620023BB6207F11803194618
:101980000C480CF025F94FF480610A48FEF771FF0E
:10199000094A4FF400710748FEF735FF0022064957
:1019A0000448FEF779FF00BF3837BD4680BD00BF51
:1019B00000000240002201400100300280B58EB0DC
:1019C00000AF07F11C0300221A605A609A60DA60C7
:1019D0001A615A619A613B1D00221A605A609A602E
:1019E000DA601A615A614FF44030FFF7FFF90220C4
:1019F000FFF772FA40237B600223BB600323FB6086
:101A000001233B6100237B610423BB613B1D19461D
:101A100021480CF02AFA80237B600223BB60032359
:101A2000FB6001233B6100237B610423BB613B1D01
:101A3000194619480CF019FA4FF40010FFF764FA30
:101A40001648FFF70DF9002200211448FFF7E0F8CF
:101A50001248FFF7F5F81148FFF7CAF80F48FFF7EB
:101A6000B7F80023FB610E4B3B6200237B6200232F
:101A7000BB620023FB6200233B6300237B6307F10F
:101A80001C03194605480CF007FB0448FFF790F8C3
:101A900000BF3837BD4680BD0004024000540040FE
:101AA000FF63106080B58EB000AF07F11C03002209
:101AB0001A605A609A60DA601A615A619A613B1D35
:101AC00000221A605A609A60DA601A615A614FF413
:101AD0004020FFF78BF90220FFF7FEF94FF48063F7
:101AE0007B600223BB600323FB6001233B61002377
:101AF0007B610423BB613B1D194621480CF0B5F9FD
:101B00004FF400637B600223BB600323FB6001236F
:101B10003B6100237B610423BB613B1D19461848D0
:101B20000CF0A3F94FF48000FFF7EEF91548FFF72A
:101B300097F8002200211348FFF76AF81148FFF7D1
:101B40007FF81048FFF754F80E48FFF741F80023DC
:101B5000FB610D4B3B6200237B620023BB620023D1
:101B6000FB6200233B6300237B6307F11C031946E0
:101B700004480CF091FA00BF3837BD4680BD00BF65
:101B80000004024000580040FFEAC00080B590B059
:101B900000AF07F118032822002118460EF060FB61
:101BA0003B4600221A605A609A60DA601A615A61F4
:101BB0004FF48050FFF7C0F90120FFF78DF9102393
:101BC0003B6002237B600323BB600023FB60002398
:101BD0003B6105237B613B46194630480CF045F9D3
:101BE00020233B6002237B600323BB600023FB6058
:101BF00000233B6105237B613B46194627480CF0D7
:101C000034F940233B6002237B600323BB60002345
:101C1000FB6000233B6105237B613B4619461F485F
:101C20000CF023F980233B6002237B600323BB601D
:101C30000023FB6000233B6105237B613B46194683
:101C400016480CF012F90023BB614FF48273FB615C
:101C50004FF4E0633B6200237B620023BB620023FE
:101C6000FB6200233B6300237B630023BB630723EA
:101C7000FB6307F11803194609480CF0E5FD002144
:101C80000748FFF7DBF90648FFF7EBF90448FFF7D1
:101C9000C5F900BF4037BD4680BD00BF000002400F
:101CA0000030014080B590B000AF07F11803282242
:101CB000002118460EF0D4FA3B4600221A605A6002
:101CC0009A60DA601A615A614FF48040FFF71CF99C
:101CD0000220FFF701F94FF400533B6002237B60C1
:101CE0000323BB600023FB6000233B6105237B6172
:101CF0003B46194641480CF0B8F84FF480433B602E
:101D000002237B600323BB600023FB6000233B6155
:101D100005237B613B46194638480CF0A6F84FF482
:101D200000433B6002237B600323BB600023FB6016
:101D300000233B6105237B613B4619462F480CF08D
:101D400094F84FF0905201212D48FEF7EDFE00224D
:101D500001212B48FEF7ECFD4FF4403201212848C9
:101D6000FEF7BEFE4FF4807201212548FEF704FE07
:101D7000002201212248FEF723FE4FF48062012158
:101D80001F48FEF741FE4FF4006201211C48FEF798
:101D90005FFE4FF4005201211948FEF77DFE01213C
:101DA0001748FEF7E5FE0023BB614FF48273FB6129
:101DB0004FF470633B6200237B620023BB624FF4ED
:101DC0000073FB6200233B6300237B630023BB6340
:101DD0000723FB6307F1180319460A480CF034FD8A
:101DE00000210848FFF72AF90648FFF73AF90548A5
:101DF000FFF714F900BF4037BD4680BD0004024024
:101E0000006002400038004080B590B000AF07F19C
:101E100018032822002118460EF022FA3B46002221
:101E20001A605A609A60DA601A615A614FF4004091
:101E3000FFF76AF80420FFF74FF84FF480633B6028
:101E400002237B600323BB600023FB6000233B6114
:101E500006237B613B46194628480CF006F84FF4F0
:101E600000633B6002237B600323BB600023FB60B5
:101E700000233B6106237B613B4619461F480BF05C
:101E8000F4FF4FF480533B6002237B600323BB606D
:101E90000023FB6000233B6106237B613B46194620
:101EA00016480BF0E2FF0023BB614FF48273FB6125
:101EB0004FF4E0633B6200237B620023BB624FF47C
:101EC0000073FB6200233B6300237B630023BB633F
:101ED0000723FB6307F11803194609480CF0B4FC0B
:101EE00000210748FFF7AAF80548FFF7BAF80448A9
:101EF000FFF794F800BF4037BD4680BD00080240A0
:101F0000003C004080B590B000AF07F118032822D4
:101F1000002118460EF0A4F93B4600221A605A60D0
:101F20009A60DA601A615A614FF40050FFF704F8C2
:101F30001020FEF7D1FF4FF480533B6002237B60FB
:101F40000323BB600023FB6000233B6105237B610F
:101F50003B46194628480BF088FF4FF400533B607E
:101F600002237B600323BB600023FB6000233B61F3
:101F700005237B613B4619461F480BF076FF4FF463
:101F800080433B6002237B600323BB600023FB6034
:101F900000233B6105237B613B46194616480BF045
:101FA00064FF0023BB614FF48273FB614FF4E06375
:101FB0003B6200237B620123BB624FF40073FB6230
:101FC00020233B6300237B630023BB630723FB6366
:101FD00007F11803194609480CF036FC00210748A0
:101FE000FFF72CF80548FFF74CF80448FFF716F800
:101FF00000BF4037BD4680BD0010024000340140A4
:1020000080B590B000AF07F11803282200211846D0
:102010000EF026F93B4600221A605A609A60DA6098
:102020001A615A614FF40010FEF786FF0220FEF796
:1020300053FF08233B6002237B600323BB60002324
:10204000FB6000233B6108237B613B4619465748F0
:102050000BF00BFF10233B6002237B600323BB606C
:102060000023FB6000233B6108237B613B4619464C
:102070004E480BF0FAFE20233B6002237B600323D3
:10208000BB600023FB6000233B6108237B613B4670
:10209000194646480BF0E9FE4FF00072052144480E
:1020A000FEF742FD402205214148FEF741FC4FF476
:1020B000403205213E48FEF713FD002205213C4831
:1020C000FEF75AFC002205213948FEF779FC4FF44F
:1020D000806205213648FEF797FC0022052134482E
:1020E000FEF7B6FC002205213148FEF7D5FC05219C
:1020F0002F48FEF73DFD4FF0007206212C48FEF7F9
:1021000013FD002206212A48FEF712FC4FF440324C
:1021100006212748FEF7E4FC002206212448FEF7AA
:102120002BFC002206212248FEF74AFC4FF4806275
:1021300006211F48FEF768FC002206211C48FEF716
:1021400087FC002206211A48FEF7A6FC0621184843
:10215000FEF70EFD0023BB614FF48273FB614FF469
:10216000E0633B6200237B620023BB624FF4007399
:10217000FB6200233B6300237B630023BB630723D5
:10218000FB6307F1180319460A480CF05DFB0021B8
:102190000848FEF753FF0748FEF763FF0548FEF7C0
:1021A0003DFF00BF4037BD4680BD00BF0004024078
:1021B000006402400054014080B586B000AF3B1D72
:1021C00000221A605A609A60DA601A610120FEF7F4
:1021D000B3FEFEF78FFA0346002200211846FEF7F1
:1021E000DFFA034619461920FEF7B0FA1920FEF768
:1021F0008FFA0023BB800023BB604FF6FF73FB60A8
:1022000000233B6100237B613B1D19460C480CF009
:102210000FFC0B48FEF745FF00210948FEF7F4FFCD
:1022200000210748FFF706F800210548FFF715F8D9
:102230000348FFF725F800BF1837BD4680BD00BF33
:102240000000014080B586B000AF3B1D00221A603F
:102250005A609A60DA601A610120FEF755FEFEF7B7
:1022600049FA0346002202211846FEF799FA03466E
:1022700019461C20FEF76AFA1C20FEF749FA0023D3
:10228000BB800023BB604FF0FF33FB6000233B614A
:102290003B1D19464FF080400CF0CAFB4FF08040C8
:1022A000FEF7FFFE00214FF08040FEF7ADFF00215A
:1022B0004FF08040FEF7BEFF4FF08040FEF7E0FF9A
:1022C00000BF1837BD4680BD80B594B000AF07F1A0
:1022D0003C0300221A605A609A60DA601A6107F1C2
:1022E0001C032022002118460DF0BAFF3B1D0022DE
:1022F0001A605A609A60DA601A615A610420FEF727
:1023000003FE0A23BB8700233B644CF250337B64FB
:102310004FF40073BB6407F13C03194655480CF0B9
:1023200087FB5448FEF7BDFE00215248FEF76CFFC4
:1023300001215048FEF718FF6023FB6100233B6238
:1023400000237B620023BB620023FB6207F11C03B6
:102350001A46012147480CF005FC01214548FEF7CB
:10236000B1FE10214348FEF7FFFE07F11C031A4699
:10237000102140480CF0F6FB10213E48FEF7A2FE6B
:102380004FF480713B48FEF7EFFE07F11C031A463D
:102390004FF4807137480CF0E5FB4FF480713548FD
:1023A000FEF790FE4FF480513248FEF7DDFE07F154
:1023B0001C031A464FF480512E480CF0D3FB4FF407
:1023C00080512C48FEF77EFE00212A48FEF732FF9E
:1023D0002848FEF755FF0820FEF77EFD4FF4805396
:1023E0007B600223BB600023FB6000233B61002372
:1023F0007B610223BB613B1D19461F480BF035FD75
:102400004FF400537B600223BB600023FB6000237A
:102410003B6100237B610223BB613B1D19461648CB
:102420000BF023FD4FF480437B600223BB6000234D
:10243000FB6000233B6100237B610223BB613B1DEA
:1024400019460D480BF011FD4FF400437B60022349
:10245000BB600023FB6000233B6100237B61022300
:10246000BB613B1D194604480BF0FFFC00BF503711
:10247000BD4680BD00080040000C024080B58EB013
:1024800000AF07F11C0300221A605A609A60DA60FC
:102490001A615A619A613B1D00221A605A609A6063
:1024A000DA601A615A614FF04050FEF785FC4FF038
:1024B0008040FEF729FD1020FEF70EFD80237B6093
:1024C0000223BB600323FB6000233B6100237B618D
:1024D0000823BB613B1D194621480BF0C6FC4FF495
:1024E00080737B600223BB600323FB6000233B619E
:1024F00000237B610823BB613B1D194618480BF084
:10250000B4FCFEF7F7F8034600220B211846FEF74D
:1025100047F9034619465220FEF718F95220FEF7F4
:10252000F7F84FF4E133FB6100233B6200237B6249
:102530000023BB620C23FB6200233B6300237B630D
:1025400007F11C03194607480CF02CFE0548FEF75E
:1025500002FF0448FEF7A4FE00BF3837BD4680BD29
:10256000001002400078004080B58EB000AF07F147
:102570001C0300221A605A609A60DA601A615A617C
:102580009A613B1D00221A605A609A60DA601A61F3
:102590005A614FF44030FEF7F5FB1020FEF7CCFCFB
:1025A0000120FEF799FC4FF400737B600223BB60AF
:1025B0000323FB6000233B6100237B610723BB6196
:1025C0003B1D19462A480BF050FC4FF480637B609A
:1025D0000223BB600323FB6000233B6100237B617C
:1025E0000723BB613B1D194621480BF03EFC4FF40D
:1025F00080537B600223BB600323FB6000233B61AD
:1026000000237B610723BB613B1D194618480BF073
:102610002CFC4FF4E133FB6100233B6200237B621F
:102620000023BB620C23FB6200233B6300237B631C
:1026300007F11C0319460F480CF0B4FD0D48FEF7D6
:1026400067FE00210B48FEF773FE00210948FEF7E4
:102650004BFE00210748FEF733FE0648FEF77BFEDF
:102660000448FEF71DFE00BF3837BD4680BD00BFE1
:10267000000002400010014080B58EB000AF07F1AD
:102680001C0300221A605A609A60DA601A615A616B
:102690009A613B1D00221A605A609A60DA601A61E2
:1026A0005A614FF04060FEF76DFB2020FEF744FCBE
:1026B0000420FEF711FC40237B600223BB60032350
:1026C000FB6000233B6100237B610823BB613B1D52
:1026D000194621480BF0C9FB80237B600223BB60B5
:1026E0000323FB6000233B6100237B610823BB6164
:1026F0003B1D194618480BF0B8FBFDF7FBFF0346DE
:1027000000220B211846FEF74BF8034619464720D6
:10271000FEF71CF84720FDF7FBFF4FF4E133FB61A8
:1027200000233B6200237B620023BB620C23FB621D
:1027300000233B6300237B6307F11C031946074812
:102740000CF030FD0548FEF706FE0448FEF7A8FD34
:1027500000BF3837BD4680BD00080240001401406C
:1027600080B500AF4FF48000FEF7B6FB4FF40010C9
:10277000FEF7B2FBFDF7BEFF03460022002118461C
:10278000FEF70EF8034619460C20FDF7DFFF0C207C
:10279000FDF7BEFFFDF7AEFF034600220A211846F3
:1027A000FDF7FEFF034619463820FDF7CFFF38201E
:1027B000FDF7AEFFFDF79EFF034600220A211846F3
:1027C000FDF7EEFF034619463A20FDF7BFFF3A201A
:1027D000FDF79EFFFDF78EFF0346002209211846F4
:1027E000FDF7DEFF034619464420FDF7AFFF442006
:1027F000FDF78EFFFDF77EFF0346002201211846FC
:10280000FDF7CEFF034619464520FDF79FFF452003
:10281000FDF77EFF00BF80BD80B586B000AF3B46B0
:1028200000221A605A609A60DA601A615A611020B8
:10283000FEF752FB0420FEF74FFB8020FEF74CFB17
:102840000120FEF749FB0220FEF746FB0820FEF7B9
:1028500043FB0421BF48FEF7A2FD0821BD48FEF757
:102860009EFD1021BB48FEF79AFD2021B948FEF7D6
:1028700096FD4021B748FEF792FD4FF40051B6484F
:10288000FEF78DFD4FF48041B348FEF788FD4FF40D
:102890000041B148FEF783FD4FF40061AD48FEF7FB
:1028A0007EFD4FF40061AD48FEF779FD4FF4004125
:1028B000AA48FEF774FD0121A948FEF770FD022128
:1028C000A748FEF76CFD1021A548FEF768FD202102
:1028D000A348FEF764FD4021A148FEF760FD0421F6
:1028E000A048FEF74EFD4FF480619A48FEF749FD7F
:1028F0004FF400419748FEF744FD4FF4805199484A
:10290000FEF73FFD4FF480719548FEF73AFD4FF416
:1029100000719348FEF735FD4FF480619048FEF753
:1029200030FD04218E48FEF72CFD80218C48FEF7F7
:1029300028FD4FF480718B48FEF723FD4FF40071A2
:102940008848FEF71EFD01218248FEF71AFD02218C
:102950008048FEF716FD04233B6001237B600023C3
:10296000BB600023FB6000233B613B46194679486E
:102970000BF07BFA08233B6001237B600023BB60E4
:102980000023FB6000233B613B46194671480BF076
:102990006CFA10233B6001237B600023BB600023A3
:1029A000FB6000233B613B4619466A480BF05DFA29
:1029B00020233B6001237B600023BB600023FB607E
:1029C00000233B613B46194662480BF04EFA402318
:1029D0003B6001237B600023BB600023FB6000237E
:1029E0003B613B4619465B480BF03FFA4FF40053FE
:1029F0003B6001237B600023BB600023FB6000235E
:102A00003B613B46194654480BF02FFA4FF4804384
:102A10003B6001237B600023BB600023FB6000233D
:102A20003B613B4619464C480BF01FFA4FF40043FC
:102A30003B6001237B600023BB600023FB6000231D
:102A40003B613B46194644480BF00FFA04233B60B8
:102A500001237B600023BB600023FB6000233B61FC
:102A60003B4619463F480BF000FA4FF480633B6049
:102A700001237B600023BB600023FB6000233B61DC
:102A80003B46194633480BF0F0F94FF400633B60C6
:102A900001237B600023BB600023FB6000233B61BC
:102AA0003B4619462B480BF0E0F94FF400433B60DE
:102AB00001237B600023BB600023FB6000233B619C
:102AC0003B46194623480BF0D0F94FF480533B6046
:102AD00001237B600023BB600023FB6000233B617C
:102AE0003B4619461F480BF0C0F94FF480733B601A
:102AF00001237B600323BB600023FB6000233B6159
:102B00003B46194616480BF0B0F94FF400733B6092
:102B100001237B600323BB600023FB6000233B6138
:102B20003B4619460E480BF0A0F94FF480633B601A
:102B300001237B600323BB600023FB6000233B6118
:102B40003B46194606480BF090F94FF400633B6092
:102B50000AE000BF001002400008024000000240EE
:102B6000000C02400004024000237B6000233B6114
:102B70003B4619467E480BF078F94FF480733B6072
:102B800000237B6000233B613B46194679480BF0EC
:102B90006CF94FF400733B6000237B6000233B61C2
:102BA0003B46194673480BF060F94FF480733B6065
:102BB00000237B6000233B613B4619466E480BF0C7
:102BC00054F94FF400633B6001237B600023BB603A
:102BD0000023FB6000233B613B46194666480BF02F
:102BE00044F94FF400433B6001237B600023BB604A
:102BF0000023FB6000233B613B4619465E480BF017
:102C000034F901233B6001237B600023BB60002378
:102C1000FB6000233B613B46194655480BF025F904
:102C200002233B6001237B600023BB600023FB6029
:102C300000233B613B4619464D480BF016F904232F
:102C40003B6001237B600023BB600023FB6000230B
:102C50003B613B46194646480BF007F908233B60A9
:102C600000237B6000233B613B46194640480BF044
:102C7000FCF810233B6001237B600023BB60002332
:102C8000FB6000233B613B46194639480BF0EDF8E9
:102C900020233B6001237B600023BB600023FB609B
:102CA00000233B613B46194631480BF0DEF84023D8
:102CB0003B6001237B600023BB600023FB6000239B
:102CC0003B613B4619462A480BF0CFF880233B6016
:102CD00001237B600023BB600023FB6000233B617A
:102CE0003B46194622480BF0C0F84FF480733B6016
:102CF00001237B600023BB600023FB6000233B615A
:102D00003B4619461D480BF0B0F84FF400733B608A
:102D100001237B600023BB600023FB6000233B6139
:102D20003B46194615480BF0A0F801233B600123F0
:102D30007B600023BB600023FB6000233B613B46BC
:102D400019460F480BF091F802233B6001237B608A
:102D50000023BB600023FB6000233B613B46194618
:102D600007480BF082F800BF1837BD4680BD00BF92
:102D7000000C024000080240000002400004024033
:102D80000010024080B400AF00BFFDE780B400AF88
:102D900000BFFDE780B400AF00BFFDE780B400AF27
:102DA00000BFFDE780B400AF00BFFDE780B400AF17
:102DB00000BFBD465DF8047B704780B400AF00BF24
:102DC000BD465DF8047B704780B400AF00BFBD46D0
:102DD0005DF8047B704780B500AF0AF005FE00BFC8
:102DE00080BD80B400AF01231846BD465DF8047B6A
:102DF000704780B582B000AF786039600DF090FA0E
:102E0000034616221A604FF0FF3318460837BD46B6
:102E100080BD80B582B000AF78604FF0FF31786838
:102E2000FFF7E7FF00BFFDE780B586B000AFF860B1
:102E3000B9607A6000237B610AE0AFF3008001464D
:102E4000BB685A1CBA60CAB21A707B6901337B61D5
:102E50007A697B689A42F0DB7B6818461837BD4672
:102E600080BD80B586B000AFF860B9607A6000239D
:102E70007B6109E0BB685A1CBA601B781846AFF347
:102E800000807B6901337B617A697B689A42F1DB60
:102E90007B6818461837BD4680BD80B483B000AF4C
:102EA00078604FF0FF3318460C37BD465DF8047B61
:102EB000704780B483B000AF786039603B684FF4EE
:102EC00000525A60002318460C37BD465DF8047B5B
:102ED000704780B483B000AF7860012318460C3788
:102EE000BD465DF8047B704780B485B000AFF860E4
:102EF000B9607A60002318461437BD465DF8047B3C
:102F00007047000080B586B000AF7860144A154B5A
:102F1000D31A7B617B693B61134B1B68002B02D189
:102F2000114B124A1A60104B1A687B6813443A69B5
:102F30009A4207D20DF0F4F903460C221A604FF0C2
:102F4000FF3309E0084B1B68FB60074B1A687B687E
:102F50001344054A1360FB6818461837BD4680BD08
:102F60000000082000040000BC4300205817012086
:102F700080B400AF064BD3F88830054A43F47003A1
:102F8000C2F8883000BFBD465DF8047B704700BFC3
:102F900000ED00E0DFF834D0FFF7EAFF0C480D4900
:102FA0000D4A002302E0D458C4500433C4188C42A4
:102FB000F9D30A4A0A4C002301E013600432A2420A
:102FC000FBD30DF0B3F9FEF7F9F9704700000820C4
:102FD00000000020A043002060450108A04300201D
:102FE00058170120FEE780B582B000AF78603960E5
:102FF00004F0E4FE04F010FE7B6814330A220A2178
:1030000018460AF0ADFC00BF0837BD4680BD000081
:1030100080B584B002AF786039607B68002B03D143
:1030200000210E4804F028FA78683B685A683B682B
:103030009B68009313460A4A0A490AF003FC7B681E
:1030400014337A68152118460AF068FC3B681A6840
:103050007B685A6200BF0837BD4680BD3C3C010812
:10306000CD300008E72F000880B586B002AF0223FC
:10307000009304230822094909480AF04CF9094A37
:103080003B1D07CA83E807003B1D19460648FFF7AA
:10309000BFFF00BF1037BD4680BD00BF0044002009
:1030A00008440020F0210108C043002080B582B010
:1030B00000AF0346FB71FB79194603480AF0DCFBBD
:1030C00000BF0837BD4680BDC043002090B585B025
:1030D00000AF786039603B681B88152B06D0152B34
:1030E00035DC132B08D0142B1DD030E004F070FE1B
:1030F00004F0D6FD01232BE00023FB730EE0FB7BE5
:10310000FC7B184604F06AFE034619467B6804F10E
:10311000140223F81210FB7B0133FB73FB7B072B9C
:10312000EDD9012314E00023BB730DE0BB7B1846EF
:1031300004F05EFD0346BA7B19B27B681C3223F8AB
:103140001210BB7B0133BB73BB7B012BEED9022377
:1031500018461437BD4690BD80B483B000AF786088
:10316000054A7B681C3332F9133018460C37BD46CC
:103170005DF8047B704700BFC043002080B483B07B
:1031800000AF7860054A7B68143332F91330184673
:103190000C37BD465DF8047B704700BFC04300207C
:1031A00080B500AF02F074FE03F0D4FAFFF75CFFC5
:1031B00000F08EF800F0ACFD00BF80BD80B500AF20
:1031C000012000F0A7F8042002F094FE022003F092
:1031D000E7FA0320FFF76AFF022000F0BFFD00BFFF
:1031E00080BD80B500AF0AF0DFFA00BF80BD80B5BA
:1031F00082B000AF7860396004F03CFC05F014FC4C
:1032000005F0C2F87B68012283F855207B68002214
:1032100083F85A2000BF0837BD4680BD80B584B012
:1032200000AF786039607B685B69FB607B685B69D5
:103230003968786898470346FB72FB7A002B08D1FF
:10324000FB680649786898477B685B690449786839
:10325000984700BF1037BD4680BD00BF6C3C0108D9
:10326000583C010880B584B002AF786039607B6853
:10327000002B03D10021134804F0FEF878683B6866
:103280005A683B689B68009313460F4A0F490AF03F
:10329000D9FA3B681A687B685A617B6818337A6888
:1032A000162118460AF03AFB7B68183318460AF0D4
:1032B00077FB3B681A7B7B6883F8502000BF083798
:1032C000BD4680BD483C01081D320008EF310008B2
:1032D00090B587B002AF122300930223242209493C
:1032E00009480AF018F8094B3C460FCB84E80F0058
:1032F0003B4619460648FFF7B5FF00BF1437BD46E9
:1033000090BD00BFB0640020D4640020FC210108FF
:103310002444002080B582B000AF0346FB71FB79E6
:10332000194603480AF0A8FA00BF0837BD4680BD19
:103330002444002080B582B000AF786039603B68DB
:103340001B88182B12D0182B15DC012B02D0172B41
:1033500007D010E07B68183318460AF021FB0123E0
:103360000AE07B68064A5A61002305E07B68054A4B
:103370005A61002300E0022318460837BD4680BD8D
:10338000893300084D35000880B58CB002AF7860F5
:1033900039603B681B88013B1A2B00F2C58001A2F3
:1033A00052F823F011340008293500088F34000842
:1033B0002935000829350008293500082935000875
:1033C0002935000829350008293500082935000865
:1033D0002935000829350008293500082935000855
:1033E0002935000829350008293500082935000845
:1033F0002935000829350008173500082935000847
:10340000293500089D340008BD340008DD3400086B
:10341000484B3B6284230093474B3A6A47494848EC
:1034200009F0EFFE7B681833002244F6206118464D
:103430000AF096FA7B6893F82A301946786800F00B
:1034400044FA786800F05AFA7B68DB6AFB607B68B4
:103450001B6B3B617B685B6B7B617B681B8DBB611E
:103460007B6893F82A30FB617B6893F82B30184611
:1034700004F06AFB07F10C03184604F04DFF05F059
:1034800037F97B68002283F8502001234DE07B68E8
:10349000183318460AF084FA012346E07B6893F853
:1034A0005030002B04D17B68012283F8502003E0C8
:1034B0007B68032283F85020012336E07B6893F871
:1034C0005030012B04D17B68022283F8502003E0A6
:1034D0007B68032283F85020012326E07B6893F861
:1034E0005030022B04D17B68052283F8502003E082
:1034F0007B68032283F850200E4B7B62BC23009331
:103500000D4B7A6A0F490E4809F07BFE7B680E4A24
:103510005A61002309E07B68042283F850207B680D
:10352000094A5A61002300E0022318462837BD46A5
:1035300080BD00BF0C220108142201083C220108B2
:10354000C06B00205C2201083533000880B582B0D2
:1035500000AF786039603B681B88013B1D2B00F28F
:10356000A88001A252F823F0E1350008B336000824
:10357000B3360008B3360008B3360008B336000887
:10358000B3360008B3360008B3360008B336000877
:10359000B3360008B3360008B3360008B336000867
:1035A000B3360008B3360008B3360008B336000857
:1035B000B3360008B3360008B3360008B336000847
:1035C000B3360008B3360008B3360008B336000837
:1035D000B3360008353600084F36000807360008B5
:1035E0007B68183318460AF0DBF97B689B6C334A1A
:1035F00093607B685B6C314A5360314931480AF013
:1036000065F9012356E02D4B9B68B3F5805F28BF19
:103610004FF480539AB22C4B1A80284B5B685B00A6
:10362000294A128852001146284A184605F02EFAF7
:1036300001233FE0264B1868234B1B881A467B6802
:1036400093F84D30214902F0C5FF012332E01B4BB6
:103650009B681D4A12889B1A184A9360174B5B6837
:10366000194A12881344154A5360144B9B68002B67
:1036700016D0124B9B68B3F5805F28BF4FF4805380
:103680009AB2114B1A800D4B5B685B000E4A128890
:10369000520011460D4A184605F0F8F9012309E0D9
:1036A0000C4908480AF012F97B680B4A5A6100235A
:1036B00000E0022318460837BD4680BD884400203C
:1036C000A83C0108206B002098640020984400204A
:1036D00004000020AC3C01083533000880B584B0FC
:1036E00000AFF860B9607A60FB70FB687A681A64B2
:1036F000FB68BA685A64FB687A689A64FB68FA786F
:1037000083F84D20074B1B684FF6FF72A3F8422049
:10371000FB68054918460AF0D9F800231846103707
:10372000BD4680BD04000020943C010880B582B0F5
:1037300000AF78607B68DA6D7B681A647B68002272
:103740005A647B68DA6D7B689A647B68012283F82F
:103750004D20084B1B684FF6FF72A3F842207B6890
:10376000054918460AF0B2F8002318460837BD4646
:1037700080BD00BF04000020943C010880B584B0E7
:1037800000AFF860B9607A60BB68012B02D87B6833
:10379000642B01D9062318E0FB6893F85530002B01
:1037A00006D0002004F022F9FB68002283F855209F
:1037B0007968B86804F008FA7B68D9B2FA68BB681F
:1037C000134451330A461A70002318461037BD4679
:1037D00080BD80B582B000AF786039603B68242B33
:1037E00001D9062314E07B6893F85530012B06D0ED
:1037F000012004F0FBF87B68012283F8552038682B
:1038000004F06EF93B68DAB27B6883F8532000233A
:1038100018460837BD4680BD80B582B000AF7860DD
:103820007B6893F85530012B06D0012004F0DEF8B8
:103830007B68012283F8552004F062F97B68FF223F
:1038400083F85320002318460837BD4680BD80B555
:1038500082B000AF786039603B68082B01D906233D
:1038600014E07B6893F85530012B06D0012004F05A
:10387000BDF87B68012283F85520386804F04AF9C6
:103880003B68DAB27B6883F8542000231846083777
:10389000BD4680BD80B582B000AF78607B6893F88C
:1038A0005530012B06D0012004F0A0F87B680122DE
:1038B00083F8552004F03EF97B68FF2283F85420FA
:1038C000002318460837BD4680BD80B582B000AFE2
:1038D000786039603B68242B01D906230AE004F0A4
:1038E000E3FD386804F008FE3B68DAB27B6883F8D1
:1038F0005620002318460837BD4680BD80B582B0EB
:1039000000AF786004F0E4FD002318460837BD4698
:1039100080BDB0B483B000AF786039603B681B886D
:10392000002B04D03B681B88B3F57A7F01D90623AE
:1039300028E03B689B78002B03D03B689B78242BC6
:1039400001D906231EE03B68DB78642B01D90623EE
:1039500018E03B681B69B3F5006F01D9062311E03D
:103960003B685B69002B01D106230BE07B683A685A
:1039700003F1280415460FCD0FC495E8030084E831
:103980000300002318460C37BD46B0BC7047B0B4E6
:1039900083B000AF786039603A687B68154603F100
:1039A00028040FCC0FC594E8030085E8030000BF8E
:1039B0000C37BD46B0BC704780B584B000AF7860AE
:1039C0007B682833FB60FB681B88002B04D0FB68F6
:1039D0001B88B3F57A7F01D906231CE0FB689B782E
:1039E000002B03D0FB689B78242B01D9062312E01F
:1039F000FB68DB78642B01D906230CE0FB681B69AC
:103A0000B3F5006F01D9062305E07B680449184629
:103A100009F05CFF002318461037BD4680BD00BF8B
:103A2000803C010880B582B000AF78600B46FB7027
:103A30007B68FA781146184609F0FCF97B68012189
:103A4000184608F09FFE00F009FA02467B68C3F8AA
:103A500004227B68002283F80C227B68012283F811
:103A60000D22FB78032B04D8FB7804497A6841F8CF
:103A7000232000BF0837BD4680BD00BF346700204B
:103A800080B582B000AF78607A687B6893F80032C6
:103A90001946104609F0CEF97B680121184608F056
:103AA00071FE00F0DBF902467B68C3F804227B68F4
:103AB000002283F80C2200BF0837BD4680BD80B4C9
:103AC00083B000AF786039607B683A68C3F8082239
:103AD00000BF0C37BD465DF8047B704780B586B0EB
:103AE00000AFF860B9607A60FB687A68B968184618
:103AF00009F000F900F0B2F97861FB6893F8E23060
:103B0000002B35D0FB6893F8E4301A4613465B006F
:103B100013449B00FA6813443B613B691B687A6954
:103B2000D31A40F6B83293421ED9FB6893F80C3290
:103B300083F00103DBB2002B1AD0FB68D3F8083204
:103B4000002B04D0FB68D3F80832F8689847FB686C
:103B5000012283F80C22FB6893F80D32002B07D06A
:103B6000F868FFF78DFF03E0FB68002283F80C2262
:103B7000FB687A69C3F8042200BF1837BD4680BDD0
:103B800080B483B000AF786000BF0C37BD465DF8ED
:103B9000047B704780B500AF4FF480720A490B4830
:103BA00009F0DEFC4FF4807209490A4809F0D8FC9C
:103BB000084B064A0849094809F022FA074809F063
:103BC0003BFA00BF80BD00BF0C690020E468002004
:103BD0000C6A0020F8680020007800400C6B002080
:103BE00080B582B000AF786039607B68002B03D16C
:103BF00001210D4803F040FC7B680C4A9A617B6808
:103C00009B6900211846FFF70DFF09490748FFF798
:103C100056FF7B6824330A220A21184609F0A0FEC9
:103C200000BF0837BD4680BDB03C010824650020B8
:103C3000813B000880B584B000AF786039607B6854
:103C4000002B03D10421124803F016FC3B68002B23
:103C500003D105210E4803F00FFC7B685B69FB6014
:103C60007B685B693968786898470346FB72FB7A22
:103C7000002B08D1FB680749786898477B685B6927
:103C800005497868984700BF1037BD4680BD00BF22
:103C9000B03C0108C83C0108BC3C010880B584B0B8
:103CA00002AF786039607B68002B03D10221154890
:103CB00003F0E2FB78683B68DA683B681B690093B5
:103CC0001346114A114909F0BDFD7B6824337A6817
:103CD0000D21184609F022FE3B681A687B685A617C
:103CE0003B685A687B689A613B689A687B68DA61CE
:103CF0007B682433184609F053FE00BF0837BD46E1
:103D000080BD00BFB03C0108353C0008E13B000825
:103D1000B0B588B002AFFFF73DFF0C2300930A2334
:103D200078220A490A4809F0F6FA0A4B3C1D1D465A
:103D30000FCD0FC42B6823603B1D19460648FFF7C3
:103D4000ADFF00BF1837BD46B0BD00BF50670020B3
:103D5000C867002078220108F064002080B582B096
:103D600000AF0346FB71FB791946034809F084FD57
:103D700000BF0837BD4680BDF064002080B582B02A
:103D800000AF786039607B68002B03D103211B48AA
:103D900003F072FB3B681B88012B02D00D2B09D06E
:103DA00027E07B6824330A220A21184609F0D8FD4F
:103DB00001231FE0124B4FF480721A607B68DB69AD
:103DC0000F4A1049184609F057F90346002B07D04F
:103DD0007B689B690A4A12680A491846FFF77EFE0B
:103DE0007B689B69002200211846FFF777FE0123BC
:103DF00000E0022318460837BD4680BDB03C0108EC
:103E000008000020E467002080B582B000AF0346C0
:103E1000FB71064BDB695B68184609F0A9FC034699
:103E20009BB218460837BD4680BD00BFF064002035
:103E300080B582B000AF03460A46FB711346BB71E2
:103E4000054BDB69BA791146184609F094F900BFB1
:103E50000837BD4680BD00BFF064002080B500AFCC
:103E600009F010FE0346184680BD000080B586B0FC
:103E700000AF396011461A460346FB710B46BB7111
:103E800013467B717B79032B27D87B79154A52F82F
:103E900023303B6100F02AFDF86000F031FDB8608E
:103EA00000237B6114E07B69DB00FA6813441B7814
:103EB000FA799A4209D17B69DB00FA6813445B689E
:103EC000BA7939683869984708E07B6901337B61C2
:103ED0007A69BB689A42E6DB00E000BF1837BD464E
:103EE00080BD00BF3467002080B584B000AFF860AB
:103EF0007A601A460B46FB721346BB72FB68BA7AAD
:103F00001146184608F09AFC0346002B05D0F868C5
:103F1000BB7AF97A7A6808F049FC00BF1037BD46D1
:103F200080BD000080B500AF054BDB69184609F085
:103F30009DF9034BDB69184609F0BAF900BF80BD53
:103F4000F064002080B588B002AFF860B960134615
:103F5000FB710B4B7B61FB79019333230093094B7E
:103F60007A690949094809F04CF9FB79BA680221D4
:103F7000F868FFF7B9FF00BF1837BD4680BD00BF26
:103F80008C22010894220108C0220108C06B002085
:103F900080B596B002AFF860B9601346FB7100239C
:103FA000A7F84E30BB681B7887F84B30BB680133ED
:103FB0001B7887F84A30BB6802331B7887F8493092
:103FC000BB6803331B781BB21B021AB2BB680433F5
:103FD0001B781BB213431BB2A7F84630BB680533EE
:103FE0001B7887F84530BB6806331B781BB21B0271
:103FF0001AB2BB6807331B781BB21343A7F84230D1
:1040000097F84B30072B11D9B7F84E300133A7F88A
:104010004E30A14BFB6397F84B300193462300933E
:104020009E4BFA6B9E499F4809F0EBF897F84A308F
:104030000F2B11D9B7F84E300133A7F84E30964BFD
:10404000BB6397F84A3001934B230093934BBA6BB1
:104050009549944809F0D5F897F849300F2B11D9B4
:10406000B7F84E300133A7F84E308B4B7B6397F88F
:104070004930019350230093884B7A6B8B498948D0
:1040800009F0BFF8B7F84630B3F5FA7F05D3B7F8B3
:10409000463040F6B832934211D9B7F84E3001336A
:1040A000A7F84E307C4B3B63B7F84630019355235D
:1040B00000937A4B3A6B7E497A4809F0A2F897F858
:1040C0004530642B11D9B7F84E300133A7F84E3084
:1040D000714BFB6297F8453001935A2300936F4B65
:1040E000FA6A74496F4809F08CF8B7F94230B3F5B1
:1040F0007A7F11DDB7F84E300133A7F84E30664BAA
:10410000BB62B7F9423001935F230093634BBA6AF5
:104110006949644809F075F8B7F84E30002B40F053
:10412000AB80664B1B6897F84B201146184603F08E
:10413000A0F8624B1B68184602F0A0FF034687F800
:104140002730002387F84D3040E097F84A2097F851
:104150004D3042FA03F303F00103002B29D097F806
:104160004D2097F827309A420DD14B4BBB6197F801
:104170004D3001936C230093484BBA69504949482C
:1041800009F03FF81DE04D4B1B6897F84D20114694
:10419000184602F08DFF404BFB6197F84D300193BC
:1041A000702300933D4BFA6946493E4809F029F8CF
:1041B00007E0424B1B6897F84D201146184602F065
:1041C00098FF97F84D30013387F84D3097F84D3010
:1041D000032BBAD9002387F84C302CE097F84920FC
:1041E00097F84C3042FA03F303F00103002B15D08B
:1041F000324B1B6897F84C201146184602F0E8FF36
:10420000254B3B6297F84C3001937B230093234B63
:104210003A6A2D49234808F0F4FF07E0274B1B6852
:1042200097F84C201146184602F0F3FF97F84C30EF
:10423000013387F84C3097F84C30032BCED91F4B05
:104240001B68B7F846201146184602F082FF1B4B48
:104250001B6897F845201146184602F096FF174B49
:104260001B68B7F942201146184603F018F83F239F
:104270003B75FF237B7503E03E233B753E237B7537
:1042800007F1140202230421F868FFF72DFE00BF96
:104290005037BD4680BD00BF8C2201089422010822
:1042A000F4220108C06B00202423010854230108D4
:1042B00084230108BC230108F02301080C0000201E
:1042C00028240108542401087424010880B588B00A
:1042D00002AFF860B9601346FB71FF23FB740D4B0E
:1042E0007B61972300930C4B7A690C490C4808F0CA
:1042F00088FF0C4B1B68184602F074FC07F1130290
:1043000001230621F868FFF7EFFD00BF1837BD460F
:1043100080BD00BF8C220108942201089824010866
:10432000C06B00200C00002080B588B002AFF860A0
:10433000B9601346FB71FF23FB740D4B7B619F2318
:1043400000930C4B7A690C490C4808F05AFF0C4B4F
:104350001B68184602F062FC07F1130201230821D2
:10436000F868FFF7C1FD00BF1837BD4680BD00BF2C
:104370008C22010894220108C4240108C06B00208B
:104380000C00002080B590B002AFF860B960134611
:10439000FB710023FB86BB681B7887F83530BB6850
:1043A00001331B781BB21B021AB2BB6802331B78A5
:1043B0001BB213431BB27B86464BFB62AC230093BC
:1043C000454BFA6A4549464808F01BFF97F83530D7
:1043D000042B0CD9FB8E0133FB863E4BBB62B12311
:1043E00000933D4BBA6A3F493D4808F00AFF7B8E77
:1043F000B3F5FA7F04D37B8E40F6B83293420ED9E0
:10440000FB8E0133FB86334B7B627B8E0193B6239D
:104410000093314B7A6A3449314808F0F2FE334B4D
:104420001B68184602F088FE034687F8233097F889
:104430003530032B19D897F8232097F8353042FAF6
:1044400003F303F00103002B0FD0224BFB6197F81D
:1044500035300193BE2300931F4BFA69244920484D
:1044600008F0CFFEFB8E0133FB86FB8E002B21D1A3
:1044700097F83530042B09D1164BBB61C623009346
:10448000154BBA691B49164808F0BBFE174B1B6851
:1044900097F835201146184602F000FD134B1B68B3
:1044A0007A8E1146184602F00FFD3F233B75FF231D
:1044B0007B7503E03E233B753E237B7507F11402B9
:1044C00002230A21F868FFF70FFD00BF3837BD4609
:1044D00080BD00BF8C22010894220108F02401084D
:1044E000C06B00201C250108482501080C00002095
:1044F0007C250108A825010880B588B002AFF860C6
:10450000B9601346FB71FF23FB740D4B7B61D9230C
:1045100000930C4B7A690C490C4808F072FE0C4B66
:104520001B68184602F0F3FC07F1130201230C216B
:10453000F868FFF7D9FC00BF1837BD4680BD00BF43
:104540008C22010894220108C8250108C06B0020B4
:104550000C00002080B588B002AFF860B960134647
:10456000FB71FF23FB740D4B7B61E12300930C4B2C
:104570007A690C490C4808F044FE0C4B1B6818463D
:1045800002F056FD07F1130201230E21F868FFF730
:10459000ABFC00BF1837BD4680BD00BF8C220108B0
:1045A00094220108EC250108C06B00200C000020BB
:1045B00080B59CB002AFF860B9601346FB71B14B97
:1045C0003B66E9230093B04B3A6EB049B04808F01F
:1045D00018FE0023A7F86630BB681B781BB21B02CD
:1045E0001AB2BB6801331B781BB213431BB2A7F886
:1045F0005E30BB6802331B7887F85D30BB680333DD
:104600001B7887F85C30BB6804331B781BB21B0235
:104610001AB2BB6805331B781BB213431BB2A7F851
:104620005A30BB6806331B781BB21B021AB2BB6838
:1046300007331B781BB213431BB2A7F85830BB6873
:1046400008331B781BB21B021AB2BB6809331B78F4
:104650001BB213431BB2A7F85630B7F85E30B3F560
:104660007A7F0ED2B7F866300133A7F86630854BF3
:104670003B65F6230093844B3A6D8649844808F0E5
:10468000C0FDB7F85E30844AA2FB03239B09A7F85C
:104690005E3097F85D30002B03D097F85D30242B07
:1046A0000ED9B7F866300133A7F86630754BFB6456
:1046B000FD230093744BFA6C7849754808F0A1FD0E
:1046C00097F85C30642B0FD9B7F866300133A7F840
:1046D00066306C4BBB644FF4817300936A4BBA6CC9
:1046E0006F496B4808F08DFDB7F85A30002B0FD199
:1046F000B7F866300133A7F86630624B7B644FF43D
:1047000084730093604B7A6C6649614808F079FDC8
:10471000B7F85A301A465201D21A92001344DB00FD
:10472000A7F85A30B7F85830002B0FD1B7F86630D9
:104730000133A7F86630534B3B6440F20F130093EC
:10474000514B3A6C5849524808F05BFDB7F8583065
:104750001A465201D21A92001344DB00A7F85830CF
:10476000B7F85630002B0FD1B7F866300133A7F8F1
:104770006630444BFB634FF48B730093424BFA6BF0
:104780004A49434808F03DFDB7F856301A465201F1
:10479000D21A92001344DB00A7F85630B7F85A201B
:1047A000B7F858301A44B7F856301344B7F85E20BB
:1047B00002FB03F33E4A82FB03129214DB17D31A67
:1047C000BB63BB6BB3F5006F0FD9B7F8663001332D
:1047D000A7F866302B4B7B634FF48F7300932A4B03
:1047E0007A6B34492A4808F00CFDB7F86630002B84
:1047F0006AD1B7F85E303B8297F85D30BB7497F8AA
:104800005C30FB74B7F85A307B61B7F85830BB6145
:10481000B7F85630FB61BB6B3B62B7F85E30264A97
:1048200092FBF3F37B62254B1B6807F110021146E4
:104830001846FFF76EF80346002B11D13F2387F887
:104840002830FF2387F829300E4BFB624FF4987312
:1048500000930D4BFA6A1A490D4808F0D2FC39E072
:104860003E2387F828303E2387F82930054B3B63E9
:104870004FF49B730093044B3A6B1249044808F0C1
:10488000C0FC27E08C2201089422010810260108B0
:10489000C06B002038260108D34D62106C26010839
:1048A00098260108C4260108F426010824270108D7
:1048B00083DE1B435427010840420F0010000020F4
:1048C00088270108B02701083E2387F828303E23B7
:1048D00087F8293007F1280202231221F868FFF730
:1048E00003FB00BF6837BD4680BD00BF80B400AF8A
:1048F000024B1846BD465DF8047B7047D43C010866
:1049000080B400AF08231846BD465DF8047B7047AD
:1049100080B400AFBFF34F8F00BF064BDB6803F4DA
:10492000E0620449044B1343CB60BFF34F8F00BFD9
:1049300000BFFDE700ED00E00400FA0580B588B097
:1049400000AFF860B9607A6007F11403074A0A21E2
:1049500018460BF0FFFA07F114031946F86806F041
:10496000CAF900BF2037BD4680BD00BFCC3001086A
:1049700080B584B000AFF860B9607A60FFF7C8FF17
:1049800080B588B000AFF860B9607A600023BB6181
:104990000023FB82B86806F09FFA03467B757B7D97
:1049A000012B04D02E49F86807F01CFC54E00121CB
:1049B000B86806F05BFA38613B691B78612B22D13D
:1049C0000023FB771BE0FB7F1846FEF7D7FB03466F
:1049D000FB82B7F9163013F5004F06D1FB7F1A465C
:1049E0002049F86807F0FEFB06E0FA7FB7F91630B9
:1049F0001D49F86807F0F6FBFB7F0133FB77FB7F6F
:104A0000072BE0D928E03B691B782F2B20D93B6985
:104A10001B78372B1CD838690AF0C2FC0346BB61EF
:104A2000B869FEF7ABFB0346FB82B7F9163013F506
:104A3000004F05D1BA690B49F86807F0D3FB0BE0CA
:104A4000B7F91630BA690849F86807F0CBFB03E0FC
:104A50000649F86807F0C6FB2037BD4680BD00BF99
:104A6000D4300108F4300108083101081C31010874
:104A700080B588B000AFF860B9607A60B86806F0B9
:104A80002BFA0346FB61FB69012B04D01549F8683A
:104A900007F0A8FB23E0144B1B68184602F0EAF964
:104AA000034683F00103DBB2002B04D00F49F86802
:104AB00007F098FB13E00121B86806F0D7F9B86158
:104AC000B8690AF06DFC03467B61074B1B68796986
:104AD000184602F08EFC0649F86807F083FB203781
:104AE000BD4680BDD43001081400002030310108DB
:104AF0007C31010880B584B000AFF860B9607A609D
:104B00000A4B1B68184602F08DFC0346002B04D0AC
:104B10000749F86807F066FB03E00649F86807F004
:104B200061FB00BF1037BD4680BD00BF14000020F0
:104B30007C3101088431010880B588B000AFF8608D
:104B4000B9607A60B86806F0C7F90346BB61BB6913
:104B5000012B04D03849F86807F044FB69E0374B73
:104B60001B68184602F086F9034683F00103DBB2A6
:104B7000002B04D03249F86807F034FB59E00121DA
:104B8000B86806F073F9786100233B617B691B7894
:104B9000612B25D10023FB611EE0284B1B68F969BE
:104BA000184602F022F938613B69002B0CD1234BE7
:104BB0001B680022F969184602F037F9FA692149A1
:104BC000F86807F00FFB04E0FA691F49F86807F07E
:104BD00009FBFB690133FB61FB69032BDDD928E08D
:104BE0007B691B782F2B24D97B691B78332B20D82A
:104BF00078690AF0D5FB0346FB61104B1B68F96925
:104C0000184602F0F2F838613B69002B0CD10B4BCF
:104C10001B680022F969184602F007F9FA69094988
:104C2000F86807F0DFFA04E0FA690749F86807F066
:104C3000D9FA2037BD4680BDD430010814000020C9
:104C40008C310108D4310108E831010880B588B001
:104C500000AFF860B9607A60B86806F03DF90346C5
:104C6000FB61FB69012B04D01549F86807F0BAFA1B
:104C700022E00121B86806F0F9F8B861B8690AF0D5
:104C80008FFB0346FB82FB8AB3F5FA7F04D3FB8AD2
:104C900040F6B832934204D90A49F86807F0A2FAFC
:104CA0000AE0094B1B68FA8A1146184602F051FACD
:104CB0000649F86807F096FA2037BD4680BD00BF68
:104CC0000032010828320108140000207C3101085C
:104CD00080B586B000AFF860B9607A60084B1B6899
:104CE000184601F072FF0346FB82FB8A1A4605490B
:104CF000F86807F077FA00BF1837BD4680BD00BFDF
:104D0000140000205C32010880B588B000AFF86064
:104D1000B9607A60B86806F0DFF80346BB61BB692A
:104D2000042B04D03149F86807F05CFA5BE0304BA3
:104D30001B68184602F0A2F90346FB750023FB61CD
:104D40004AE0FB699BB201339BB21946B86806F092
:104D50008DF8034618460AF023FB0346D9B207F143
:104D60001002FB6913440A461A7007F11002FB692E
:104D700013441B78012B05D9FA691E49F86807F01E
:104D800031FA30E007F11002FB6913441B78002B65
:104D900008D1174B1B68FA69D2B21146184602F0C7
:104DA000A8F916E0FB7DFA699A4205D1FA69124921
:104DB000F86807F017FA0CE00D4B1B68FA69D2B2DD
:104DC0001146184602F074F9FA690C49F86807F0C0
:104DD00009FAFB690133FB61FB69032BB1D908496F
:104DE000F86807F0FFF92037BD4680BD8032010822
:104DF00014000020A4320108CC320108F03201086E
:104E00007C31010880B586B000AFF860B9607A6087
:104E1000134B1B68184602F08FF90346FB740023FE
:104E20007B6115E0FA7C7B6942FA03F303F001032E
:104E3000002B05D07A690B49F86807F0D3F904E034
:104E40007A690949F86807F0CDF97B6901337B611C
:104E50007B69032BE6D900BF00BF1837BD4680BD74
:104E600014000020F03201080833010880B58CB02E
:104E700000AFF860B9607A60354B1B68184601F0E6
:104E8000F9FF034683F00103DBB2002B04D0314964
:104E9000F86807F0A7F958E0B86806F01DF803466F
:104EA000FB62FB6A032B04D02B49F86807F09AF9E0
:104EB0004BE00121B86805F0D9FFB862B86A0AF082
:104EC0006FFA03467B627B6A032B04D92349F86897
:104ED00007F088F939E00221B86805F0C7FF3862A9
:104EE000386A0AF05DFA0346FB61FB69012B04D9BD
:104EF0001B49F86807F076F927E00321B86805F048
:104F0000B5FFB861B8690AF04BFA0346FB82FB8A29
:104F100040F6B832934204D91249F86807F062F9B2
:104F200013E00B4B1868FB8AFA69796A02F0E1F921
:104F300038613B69002B04D00B49F86807F052F93F
:104F400003E00A49F86807F04DF93037BD4680BDE7
:104F50001400002020330108443301087033010895
:104F600094330108B8330108843101087C31010809
:104F700080B58AB000AFF860B9607A602A4B1B68D0
:104F8000184601F077FF034683F00103DBB2002BE4
:104F900004D02649F86807F025F941E0B86805F023
:104FA0009BFF03467B627B6A022B04D02049F86892
:104FB00007F018F934E00121B86805F057FF3862AE
:104FC000386A0AF0EDF90346FB61FB69032B04D94B
:104FD0001849F86807F006F922E00221B86805F0E0
:104FE00045FFB861B8690AF0DBF903467B610E4BF7
:104FF00018687B69002B14BF01230023DBB21A461B
:10500000F96901F012FF38613B69002B04D00A49AD
:10501000F86807F0E7F803E00849F86807F0E2F8F5
:105020002837BD4680BD00BF140000202033010892
:10503000E433010870330108843101087C31010830
:1050400080B58AB000AFF860B9607A60B86805F0E2
:1050500043FF03463B623B6A022B04D03549F868A4
:1050600007F0C0F862E00121B86805F0FFFEF861C2
:10507000314B1B68184602F05FF80346FB76FB696C
:105080001B786F2B07D1042387F827302B49F8684A
:1050900007F0A8F81EE0FB691B782F2B1AD9FB69D3
:1050A0001B78332B16D8F8690AF07AF9034687F88B
:1050B0002730FA7E97F8273042FA03F303F0010312
:1050C000002B07D097F827301A461D49F86807F0DB
:1050D00089F82BE00221B86805F0C8FE786178698C
:1050E0000AF05EF903463B613B69B3F5FA7F04D3EE
:1050F0003B6940F6B832934204D91249F86807F088
:1051000071F813E00C4B1B6897F8272011461846DE
:1051100001F0C4FE084B1B683A6992B2114618466A
:1051200001F0D2FE0849F86807F05CF82837BD4660
:1051300080BD00BF04340108140000202C34010895
:1051400044340108283201087C31010880B584B05C
:1051500000AFF860B9607A60064B1B68184601F032
:10516000D6FE0549F86807F03DF800BF1037BD4688
:1051700080BD00BF140000207C31010880B584B0E0
:1051800000AFF860B9607A60064B1B68184601F002
:105190004FFF0549F86807F025F800BF1037BD46F6
:1051A00080BD00BF140000207C31010880B586B0AE
:1051B00000AFF860B9607A600F4B1B68184601F0C9
:1051C0005DFF0346FB750C4B1B68184601F063FF3F
:1051D0000346BB82FB7D042B04D10849F86807F025
:1051E00001F805E0FA7DBB8A0549F86806F0FAFF88
:1051F0001837BD4680BD00BF140000202C340108C4
:105200006834010880B588B000AFF860B9607A6092
:10521000B86805F061FE0346FB61FB69012B04D011
:105220001249F86806F0DEFF1CE00121B86805F0BD
:105230001DFEB861B8690AF0B3F80346FB75FB7D43
:10524000642B04D90A49F86806F0CCFF0AE0094B40
:105250001B68FA7D1146184601F097FF0649F86869
:1052600006F0C0FF2037BD4680BD00BF9434010862
:10527000B8340108140000207C31010880B586B0E4
:1052800000AFF860B9607A60084B1B68184601F0FF
:1052900092FF0346FB75FB7D1A460549F86806F048
:1052A000A1FF00BF1837BD4680BD00BF140000201D
:1052B000DC34010880B588B000AFF860B9607A606E
:1052C000B86805F009FE0346BB61BB69042B04D036
:1052D0002649F86806F086FF45E00023FB613BE0C5
:1052E000FB699BB201339BB21946B86805F0BEFD5D
:1052F000034618460AF054F80346D9B207F11402DF
:10530000FB6913440A461A7007F11402FB6913443F
:105310001B78012B05D9FA691549F86806F062FF78
:1053200021E007F11402FB6913441B78002B08D11C
:10533000104B1B68FA69D2B21146184601F069FF9A
:1053400007E00C4B1B68FA69D2B21146184601F00F
:105350003FFFFB690133FB61FB69032BC0D90649A1
:10536000F86806F03FFF2037BD4680BDF8340108DD
:10537000A4320108140000207C31010880B586B0F9
:1053800000AFF860B9607A60124B1B68184601F0F4
:1053900063FF0346FB7400237B6113E0FA7C7B69A7
:1053A00042FA03F303F00103002B04D00A49F86822
:1053B00006F018FF03E00949F86806F013FF7B695F
:1053C00001337B617B69032BE8D900BF00BF18372D
:1053D000BD4680BD14000020203501083835010885
:1053E00080B588B000AFF860B9607A60B86805F041
:1053F00073FD0346FB61FB69012B04D00E49F8687D
:1054000006F0F0FE15E00121B86805F02FFDB86147
:10541000B86909F0C5FF0346FB82084B1B68B7F962
:1054200016201146184601F03AFF0549F86806F0C3
:10543000D9FE2037BD4680BD543501081400002038
:105440007C31010880B586B000AFF860B9607A6041
:105450000E4B1B68184601F032FF0346FB82B7F97A
:10546000163007EE903AB8EEE77AF2EE046AC7EE2D
:10547000267AB7EEE77A53EC172B0549F86806F061
:10548000B1FE00BF1837BD4680BD00BF140000202C
:105490007C35010880B588B000AFF860B9607A60EB
:1054A000B86805F019FD0346FB61FB69012B04D0C8
:1054B0001249F86806F096FE1DE00121B86805F073
:1054C000D5FCB861B86909F06BFF03467B617B6965
:1054D000072B04D90A49F86806F084FE0BE0094B53
:1054E0001B687A69D2B21146184601F0C2FE06491D
:1054F000F86806F077FE2037BD4680BDA03501086C
:10550000B8350108140000207C31010880B586B050
:1055100000AFF860B9607A600023FB75084B1B6828
:10552000184601F0D9FE0346FB75FB7D1A46054976
:10553000F86806F057FE00BF1837BD4680BD00BFB3
:1055400014000020D835010880B584B000AFF860A1
:10555000B9607A60064B1B68184601F043FB0549A9
:10556000F86806F03FFE00BF1037BD4680BD00BFA3
:10557000140000207C31010880B584B000AFF860D1
:10558000B9607A60064B1B68184601F047FB054975
:10559000F86806F027FE00BF1037BD4680BD00BF8B
:1055A000140000207C31010880B588B000AFF8609D
:1055B000B9607A60B86805F08FFC0346FB61FB694F
:1055C000012B04D01349F86806F00CFE1EE00121FF
:1055D000B86805F04BFCB861B86909F0E1FE034614
:1055E000FB82B7F91630642B04DD0B49F86806F02E
:1055F000F9FD0BE0094B1B68B7F91620002118468E
:10560000FEF7BCF80649F86806F0ECFD2037BD4609
:1056100080BD00BFE83501081036010818000020E1
:105620007C31010880B588B000AFF860B9607A605D
:10563000B86805F051FC0346FB61FB69012B04D0FF
:105640001349F86806F0CEFD1EE00121B86805F0A8
:105650000DFCB861B86909F0A3FE0346FB82B7F9F7
:105660001630642B04DD0B49F86806F0BBFD0BE037
:10567000094B1B68B7F9162001211846FEF77EF882
:105680000649F86806F0AEFD2037BD4680BD00BF74
:105690003436010810360108180000207C3101085A
:1056A00080B588B000AFF860B9607A600023BB8332
:1056B000B86805F011FC0346FB76FB7E012B04D095
:1056C0002749F86806F08EFD46E00121B86805F02C
:1056D000CDFB78617B691B78612B1AD10023FB77A6
:1056E00013E0FB7F1846FDF737FD0346BB83FB7FC6
:1056F000002B01D11B4A00E01B4ABB8B1B49F868F9
:1057000006F070FDFB7F0133FB77FB7F012BE8D9AF
:1057100022E07B691B782F2B1AD97B691B78312BF0
:1057200016D8786909F03CFE0346FB74FB7C1846EA
:10573000FDF712FD0346BB83FB7C002B01D1094A18
:1057400000E0094ABB8B0949F86806F04BFD03E00D
:105750000749F86806F046FD2037BD4680BD00BF0A
:10576000D43001087C3601088036010884360108EF
:105770001C31010880B588B000AFF860B9607A606C
:10578000B86805F0A9FB0346FB61FB69012B04D057
:105790001349F86806F026FD1EE00121B86805F0FF
:1057A00065FBB861B86909F0FBFD78617B69242B62
:1057B00002DC7B69002B04DC0A49F86806F012FD64
:1057C0000AE0094B1B687A6911461846FEF701F892
:1057D0000649F86806F006FD2037BD4680BD00BFCB
:1057E000A0360108C4360108180000207C310108E9
:1057F00080B588B000AFF860B9607A60B86805F02D
:105800006BFB0346FB61FB69012B04D01349F8686D
:1058100006F0E8FC1EE00121B86805F027FBB8613E
:10582000B86909F0BDFD78617B69082B02DC7B69F2
:10583000002B04DC0A49F86806F0D4FC0AE0094BA6
:105840001B687A6911461846FEF701F80649F868A0
:1058500006F0C8FC2037BD4680BD00BFE836010811
:105860000C370108180000207C31010880B584B095
:1058700000AFF860B9607A60064B1B681846FDF708
:10588000CBFF0549F86806F0ADFC00BF1037BD46F8
:1058900080BD00BF180000207C31010880B584B0B5
:1058A00000AFF860B9607A60064B1B681846FDF7D8
:1058B000F1FF0549F86806F095FC00BF1037BD46BA
:1058C00080BD00BF180000207C31010880B592B077
:1058D00000AFF860B9607A60B86805F0FDFA034679
:1058E0007B647B6C062B04D06949F86806F07AFC6F
:1058F000CBE00121B86805F0B9FA0346184609F073
:105900004FFD03463B643B6CB3F57A7F03D33B6C9E
:10591000604A934204D96049F86806F063FCB4E039
:105920003B6C5E4AA2FB03239B093B640221B868DF
:1059300005F09CFA0346184609F032FD0346FB6366
:10594000FB6B002B02D0FB6B242B04D95449F86865
:1059500006F048FC99E00321B86805F087FA034691
:10596000184609F01DFD0346BB63BB6B642B04D9CD
:105970004C49F86806F036FC87E00421B86805F069
:1059800075FA0346184609F00BFD03467B637B6BF3
:10599000002B04D14449F86806F024FC75E07B6BC9
:1059A0004FF47A7202FB03F37B630521B86805F0BC
:1059B0005DFA0346184609F0F3FC03463B633B6B74
:1059C000002B04D13949F86806F00CFC5DE03B6B14
:1059D0004FF47A7202FB03F33B630621B86805F0CB
:1059E00045FA0346184609F0DBFC0346FB62FB6AF6
:1059F000002B04D12E49F86806F0F4FB45E0FB6A61
:105A00004FF47A7202FB03F3FB627A6B3B6B1A442E
:105A1000FB6A13443A6C02FB03F3264AA2FB0323FE
:105A20009B0CBB62BB6AB3F5006F04D92249F868CE
:105A300006F0D8FB29E03B6C9BB23B82FB6BDBB2F0
:105A4000BB74BB6BDBB2FB747B6B7B613B6BBB6181
:105A5000FB6AFB61BB6A3B62184A3B6CB2FBF3F327
:105A60007B62174B1B6807F1100211461846FDF7C1
:105A700050FF0346002B04D11249F86806F0B2FB30
:105A800003E01149F86806F0ADFB4837BD4680BD1C
:105A90002C37010800350C008C370108D34D6210FB
:105AA000B4370108D0370108F0370108143801086D
:105AB0003C38010883DE1B436038010840420F0078
:105AC000180000207C31010884310108F0B591B044
:105AD00006AFF860B9607A60184B1B6807F11002D6
