:020000040800F2
:1000000000000820FD2F0008ED2D0008F52D000848
:10001000FD2D0008052E00080D2E00080000000030
:10002000000000000000000000000000152E000885
:10003000232E000800000000312E00083F2E00088B
:100040004D3000084D3000084D3000084D3000089C
:100050004D3000084D3000084D3000084D3000088C
:100060004D3000084D3000084D3000084D3000087C
:100070006D8100084D3000084D3000084D300008FB
:100080004D3000084D3000084D3000084D3000085C
:100090004D3000084D3000084D3000084D3000084C
:1000A0004D300008B18200084D3000084D30000886
:1000B000FD8200084D3000084D3000084D3000082A
:1000C0004D3000084D3000084D3000084D3000081C
:1000D0004D3000084D3000084D3000084D3000080C
:1000E0004D3000084D3000084D3000084D300008FC
:1000F0004D3000084D3000084D3000084D300008EC
:100100004D3000084D3000084D3000084D300008DB
:100110004D3000084D3000084D3000084D300008CB
:10012000E5770008B5760008417700084D300008F3
:100130004D3000084D3000084D3000084D300008AB
:100140004D3000084D3000084D3000084D3000089B
:100150004D300008C18400084D30000825570008C4
:100160004D3000084D3000084D3000084D3000087B
:100170004D3000084D3000084D30000800000000F0
:100180004D3000084D3000087D3B00084D30000820
:100190004D3000084D3000084D3000084D3000084B
:1001A00000000000000000004D3000084D30000845
:1001B0004D3000084D3000084D3000084D3000082B
:1001C0004D3000084D300008000000004D300008A0
:1001D0004D3000084D3000084D3000084D3000080B
:1001E0004D3000084D3000084D3000084D300008FB
:0801F000000000004D30000882
:1002000010B5054C237833B9044B13B10448AFF350
:1002100000800123237010BD9843002000000000DF
:10022000CC0E010808B5034B1BB103490348AFF3DB
:10023000008008BD000000009C430020CC0E010897
:1002400010F8012B11F8013B012A28BF9A42F7D080
:10025000D01A7047000000000000000000000000FD
:1002600001F0FF01102A2BDB10F0070F08D010F867
:10027000013B013A8B422DD010F0070F42B3F6D16B
:10028000F0B441EA012141EA014122F007047FF084
:1002900000070023F0E80256083C85EA010586EADB
:1002A000010685FA47F5A3FA87F586FA47F6A5FA17
:1002B00087F68EB9EED1F0BC01F0FF0102F0070223
:1002C00032B110F8013B013A83EA010313B1F8D1CE
:1002D0000020704701387047002D06BF35460338AF
:1002E000073815F0010F07D1013015F4807F02BFE8
:1002F000013015F4C03F0130F0BC0138704700BF39
:10030000034613F8012B002AFBD1181A0138704755
:100310007BB972B90029BEBF00204FF0004106E052
:1003200008BF00281CBF6FF000414FF0FF3000F005
:10033000BBB9ADF1080C6DE904CE002909DB002B37
:100340001ADB00F035F8DDF804E0DDE9022304B043
:100350007047404261EB4101002B1BDB00F028F8A5
:10036000DDF804E0DDE9022304B0404261EB410125
:10037000524263EB43037047524263EB430300F086
:1003800017F8DDF804E0DDE9022304B0404261EB38
:1003900041017047524263EB430300F009F8DDF876
:1003A00004E0DDE9022304B0524263EB43037047EB
:1003B0002DE9F047089D8E4604468846002B4AD119
:1003C0008A42174662D9B2FA82F64EB1C6F12003CC
:1003D00001FA06F820FA03F3B74043EA0808B440EC
:1003E0004FEA174E1FFA87FCB8FBFEF1230C0EFBF9
:1003F000118843EA084301FB0CF29A4209D9FB1821
:1004000001F1FF3080F0EA809A4240F2E780023941
:100410003B449A1AA3B2B2FBFEF00EFB102243EA51
:10042000024300FB0CFC9C4509D9FB1800F1FF328C
:1004300080F0D6809C4540F2D3803B44023840EAAD
:100440000140A3EB0C0300211DB1F3400022C5E9DC
:100450000032BDE8F0878B4205D90DB1C5E9000136
:1004600000210846F5E7B3FA83F1002946D1734528
:1004700002D3824200F20581841A6EEB030201204E
:100480009046002DE5D0C5E90048E2E7002A00F0DB
:100490009080B2FA82F6002E40F0A4808A1A030CF3
:1004A0004FEA174E80B2BCB20121B2FBFEFC0EFB3C
:1004B0001C2243EA024304FB0CF29A4207D9FB18C0
:1004C0000CF1FF3802D29A4200F2E080C4469B1A37
:1004D000B3FBFEF20EFB123340EA034302FB04F4CB
:1004E0009C4207D9FB1802F1FF3002D29C4200F275
:1004F000CA8002461B1B42EA0C40A5E7C1F1200658
:100500008B4022FA06F71F430EFA01F420FA06F395
:100510002EFA06FE4FEA1749234300FA01F81FFAA4
:1005200087FCBEFBF9F01C0C09FB10EE44EA0E44FC
:1005300000FB0CFEA64502FA01F209D93C1900F1B4
:10054000FF3A80F09C80A64540F2998002383C44F6
:10055000A4EB0E041FFA83FEB4FBF9F309FB13446A
:100560004EEA044403FB0CFCA44508D93C1903F1F2
:10057000FF3E80F08280A4457FD9023B3C4443EAA1
:100580000040A4EB0C04A0FB02EC64457346E1467A
:1005900062D35FD05DB1B8EB030264EB090404FAE7
:1005A00006F622FA01F31E43CC40C5E9006400219F
:1005B0004FE7B1FBF2FC010C41EA0E4180B240EA88
:1005C00001423B4638463C46B846BE462026B1FB73
:1005D000F7F1A2EB080241EA0C4166E7014618E791
:1005E00010462CE7C6F120022EFA02F3B740B140C4
:1005F00020FA02F24FEA174E0A43B3FBFEF8BCB2F0
:100600000EFB1833110C41EA034108FB04F9B0401A
:1006100089454FEA104380B23ED9791808F1FF3C72
:1006200001D289451FD8A1EB0901B1FBFEF909FBF5
:1006300004F80EFB191192B242EA0142424529D256
:10064000BA1809F1FF31C4D24245C2D2A9F1020160
:100650003A44BEE7F0459DD2BEEB02036CEB070CBB
:100660000138E14696E7A7EB09094944A8F1020CD5
:10067000B1FBFEF909FB04F8DBE773467FE7504660
:1006800066E70846FDE63B44023A33E7ACF1020C6C
:100690003B441CE749469CE7A1EB0901C446B1FB7A
:1006A000FEF909FB04F8C4E7704700BF80B485B0C9
:1006B00000AF78607B6803F00703FB600B4BDB68DF
:1006C000BB60BA684FF6FF031340BB60FB681A02B9
:1006D000BB681A43064B1343BB60044ABB68D36034
:1006E00000BF1437BD465DF8047B704700ED00E0A5
:1006F0000000FA0580B400AF044BDB681B0A03F06E
:1007000007031846BD465DF8047B704700ED00E026
:1007100080B483B000AF0346FB7197F90730002B1C
:100720000BDBFB7903F01F02074997F907305B09E0
:10073000012000FA02F241F8232000BF0C37BD4629
:100740005DF8047B704700BF00E100E080B483B037
:1007500000AF03463960FB7197F90730002B0ADBC5
:100760003B68DAB20C4997F907301201D2B20B4458
:1007700083F800230AE03B68DAB20849FB7903F00A
:100780000F03043B1201D2B20B441A7600BF0C37A0
:10079000BD465DF8047B704700E100E000ED00E03D
:1007A00080B489B000AFF860B9607A60FB6803F08C
:1007B0000703FB61FB69C3F10703042B28BF042374
:1007C000BB61FB690433062B02D9FB69033B00E0E4
:1007D00000237B614FF0FF32BB6902FA03F3DA4377
:1007E000BB681A407B699A404FF0FF317B6901FA80
:1007F00003F3D9437B680B40134318462437BD46A7
:100800005DF8047B704780B489B000AFF860B960D0
:100810007A60FB682C331946BB6803F440734FF4CD
:100820004072BA61BA6992FAA2F27A617A69B2FA4E
:1008300082F2D2B2D3409B000B44FB61FB691A6881
:10084000BB6803F01F031F2101FA03F3DB431A40C7
:100850007B6803F01F01BB6803F01F0301FA03F379
:100860001A43FB691A6000BF2437BD465DF8047B5C
:10087000704780B483B000AF786039607B689B6854
:1008800023F480623B681A437B689A6000BF0C3790
:10089000BD465DF8047B704780B48DB000AFF86052
:1008A000B9607A60FB680C331946BB6803F00073CB
:1008B0004FF00072BA61BA6992FAA2F27A617A696B
:1008C000B2FA82F2D2B2D3409B000B44FB62FB6AC5
:1008D0001A68BB6803F0F8734FF0F8713962396A2F
:1008E00091FAA1F1F961F969B1FA81F1C9B2CB408C
:1008F000072101FA03F3DB431A40BB6803F0F873E6
:100900004FF0F871B962B96A91FAA1F17962796A26
:10091000B1FA81F1C9B2CB40796801FA03F31A4305
:10092000FB6A1A6000BF3437BD465DF8047B704730
:1009300080B485B000AFF860B9607A600D4ABB68DA
:1009400013441B781A46FB6813441B6823F0C0024B
:100950000849BB680B441B781946FB680B441946D1
:100960007B6813430B6000BF1437BD465DF8047B02
:10097000704700BF6828010880B485B000AFF860F8
:10098000B9607A600D4ABB6813441B781A46FB684D
:1009900013441B6823F490720849BB680B441B780E
:1009A0001946FB680B4419467B6813430B6000BF74
:1009B0001437BD465DF8047B704700BF6828010806
:1009C00080B485B000AFF860B9607A600D4ABB684A
:1009D00013441B781A46FB6813441B6823F4007207
:1009E0000849BB680B441B781946FB680B44194641
:1009F0007B6813430B6000BF1437BD465DF8047B72
:100A0000704700BF6828010880B485B000AFF86067
:100A1000B9607A600D4ABB6813441B781A46FB68BC
:100A200013441B6823F480620849BB680B441B789D
:100A30001946FB680B4419467B6813430B6000BFE3
:100A40001437BD465DF8047B704700BF6828010875
:100A500080B485B000AFF860B9607A600D4ABB68B9
:100A600013441B781A46FB6813441B6823F4C052D6
:100A70000849BB680B441B781946FB680B441946B0
:100A80007B6813430B6000BF1437BD465DF8047BE1
:100A9000704700BF6828010880B485B000AFF860D7
:100AA000B9607A600D4ABB6813441B781A46FB682C
:100AB00013441B6823F4C0420849BB680B441B78ED
:100AC0001946FB680B4419467B6813430B6000BF53
:100AD0001437BD465DF8047B704700BF68280108E5
:100AE00080B485B000AFF860B9607A600D4ABB6829
:100AF00013441B781A46FB6813441B6823F44032E6
:100B00000849BB680B441B781946FB680B4419461F
:100B10007B6813430B6000BF1437BD465DF8047B50
:100B2000704700BF6828010880B485B000AFF86046
:100B3000B9607A600D4ABB6813441B781A46FB689B
:100B400013441B6823F0F0520849BB680B441B7820
:100B50001946FB680B4419467B6813430B6000BFC2
:100B60001437BD465DF8047B704700BF6828010854
:100B700080B483B000AF786039600C4A3B6813449E
:100B80001B781A467B6813445B6908493A680A4433
:100B9000127811467A680A4423F00403536100BFB7
:100BA0000C37BD465DF8047B704700BF682801081C
:100BB00080B483B000AF78607B681B6843F00102AB
:100BC0007B681A6000BF0C37BD465DF8047B704738
:100BD00080B483B000AF78607B681B6823F4003278
:100BE0007B681A6000BF0C37BD465DF8047B704718
:100BF00080B483B000AF78607B681B6823F4002268
:100C00007B681A6000BF0C37BD465DF8047B7047F7
:100C100080B485B000AFF860B9607A60FB68DA68CC
:100C2000064B1340B9687A680A431A43FB68DA60D6
:100C300000BF1437BD465DF8047B704701F8FFFF25
:100C400080B483B000AF78607B68DB6823F4004237
:100C50007B68DA6000BF0C37BD465DF8047B7047E7
:100C600080B483B000AF78607B685B6843F000724B
:100C70007B685A6000BF0C37BD465DF8047B704747
:100C800080B400AF054B1B68044A43F48033136003
:100C900000BFBD465DF8047B704700BF00380240CE
:100CA00080B400AF074B1B6803F40033B3F5003F7B
:100CB0000CBF01230023DBB21846BD465DF8047B60
:100CC000704700BF0038024080B483B000AF786046
:100CD000064B9B6823F0030204497B6813438B6037
:100CE00000BF0C37BD465DF8047B704700380240FA
:100CF00080B400AF044B9B6803F00C031846BD465C
:100D00005DF8047B704700BF0038024080B483B0B8
:100D100000AF7860064B9B6823F0F00204497B68C3
:100D200013438B6000BF0C37BD465DF8047B7047F2
:100D30000038024080B483B000AF7860064B9B68F7
:100D400023F4E05204497B6813438B6000BF0C37E7
:100D5000BD465DF8047B70470038024080B483B024
:100D600000AF7860064B9B6823F4604204497B68BF
:100D700013438B6000BF0C37BD465DF8047B7047A2
:100D80000038024080B483B000AF7860094BD3F8DC
:100D900090207B681B0CDB431A407B689BB20549A3
:100DA0001343C1F8903000BF0C37BD465DF8047B9B
:100DB000704700BF0038024080B483B000AF786055
:100DC000094BD3F890207B681B0CDB431A407B68EF
:100DD0009BB205491343C1F8903000BF0C37BD46A4
:100DE0005DF8047B704700BF0038024080B483B0D8
:100DF00000AF7860094BD3F890207968084B0B401E
:100E0000DB431A407B681B0404491343C1F890304C
:100E100000BF0C37BD465DF8047B704700380240C8
:100E20000000FFFF80B483B000AF7860074BD3F8B9
:100E30008C3023F0807205497B681343C1F88C30F5
:100E400000BF0C37BD465DF8047B70470038024098
:100E500080B400AF054B1B68044A43F080731360F5
:100E600000BFBD465DF8047B704700BF00380240FC
:100E700080B400AF074B1B6803F00073B3F1007F31
:100E80000CBF01230023DBB21846BD465DF8047B8E
:100E9000704700BF0038024080B485B000AFF860F2
:100EA000B9607A603B600A4B5A680A4B1340F96894
:100EB000BA6811437A68920111433A680A430449B7
:100EC00013434B6000BF1437BD465DF8047B704789
:100ED000003802400080BCFF80B485B000AF78606D
:100EE000084B1A6B07497B6813430B63054B1A6B5E
:100EF0007B681340FB60FB6800BF1437BD465DF89C
:100F0000047B70470038024080B485B000AF786041
:100F1000084B1A6C07497B6813430B64054B1A6C2A
:100F20007B681340FB60FB6800BF1437BD465DF86B
:100F3000047B70470038024080B485B000AF786011
:100F4000084B5A6C07497B6813434B64054B5A6C3A
:100F50007B681340FB60FB6800BF1437BD465DF83B
:100F6000047B70470038024080B483B000AF7860E3
:100F7000064B1B6823F00F0204497B6813430B6088
:100F800000BF0C37BD465DF8047B7047003C024053
:100F900080B400AF044B1B6803F00F031846BD4636
:100FA0005DF8047B704700BF003C024080B400AF96
:100FB000054B1B68044A43F48033136000BFBD46F1
:100FC0005DF8047B704700BF0070004080B483B0C0
:100FD00000AF7860064B1B6823F4404204497B68ED
:100FE00013430B6000BF0C37BD465DF8047B7047B0
:100FF0000070004080B400AF074B5B6803F480438F
:10100000B3F5804F0CBF01230023DBB21846BD4669
:101010005DF8047B704700BF0070004080B483B06F
:1010200000AF78607B681B6843F040027B681A6001
:1010300000BF0C37BD465DF8047B704780B483B0B9
:1010400000AF786039607B685B6823F010023B6812
:101050001A437B685A6000BF0C37BD465DF8047BBD
:10106000704780B483B000AF78607B685B6843F002
:1010700008027B685A6000BF0C37BD465DF8047BF0
:10108000704780B483B000AF78607B685B6823F002
:1010900008027B685A6000BF0C37BD465DF8047BD0
:1010A000704780B483B000AF78607B681B6823F022
:1010B00080027B681A6000BF0C37BD465DF8047B78
:1010C0007047000080B485B000AF786039603B683D
:1010D000012B28D03B68042B23D03B68102B1ED05B
:1010E0003B68402B19D03B68B3F5807F13D03B6839
:1010F000B3F5806F0DD03B68B3F5805F07D03B68D8
:10110000B3F5803F01D107230EE008230CE006234E
:101110000AE0052308E0042306E0032304E0022399
:1011200002E0012300E00023FB737B6818331946BB
:10113000FB7B0B4AD35C0B44BB60BB681A68FB7B30
:101140000849CB5C194604238B40DB431A40BB683B
:101150001A6000BF1437BD465DF8047B704700BFBE
:10116000702801087C28010880B485B000AF786041
:1011700039603B68012B28D03B68042B23D03B68A7
:10118000102B1ED03B68402B19D03B68B3F5807FF5
:1011900013D03B68B3F5806F0DD03B68B3F5805F2B
:1011A00007D03B68B3F5803F01D107230EE0082349
:1011B0000CE006230AE0052308E0042306E00323ED
:1011C00004E0022302E0012300E00023FB737B68BC
:1011D00018331946FB7B0A4AD35C0B44BB60BB68DF
:1011E0001A68FB7B0749CB5C194608238B401A43DE
:1011F000BB681A6000BF1437BD465DF8047B7047BA
:10120000702801087C28010880B483B000AF7860A2
:1012100039607B689A68064B13403A681A437B68CA
:101220009A6000BF0C37BD465DF8047B704700BF75
:10123000F8BFFEFF80B483B000AF786039607B6890
:101240005B6823F070023B681A437B685A6000BFFA
:101250000C37BD465DF8047B704780B483B000AFA7
:10126000786039607B685B6823F470023B681A43DE
:101270007B685A6000BF0C37BD465DF8047B704741
:1012800080B483B000AF78607B689B6823F08002F5
:101290007B689A6000BF0C37BD465DF8047B7047E1
:1012A00080B483B000AF78607B681B6843F00102B4
:1012B0007B681A6000BF0C37BD465DF8047B704741
:1012C00080B483B000AF786039607B681B6823F41A
:1012D000F8123B681B041A437B681A6000BF0C3786
:1012E000BD465DF8047B704780B483B000AF786082
:1012F00039607B681B6823F078723B685B051A4392
:101300007B681A6000BF0C37BD465DF8047B7047F0
:1013100080B483B000AF78607B689B6843F4804200
:101320007B689A6000BF0C37BD465DF8047B704750
:1013300080B483B000AF786039607B689B6823F429
:1013400000423B681A437B689A6000BF0C37BD4679
:101350005DF8047B704780B483B000AF78607B6831
:101360005B6823F490427B685A607B689B6823F03B
:101370002A027B689A6000BF0C37BD465DF8047B8B
:10138000704780B483B000AF786039607B683A689A
:101390009A6100BF0C37BD465DF8047B704780B48E
:1013A00083B000AF786039603B681A047B689A614B
:1013B00000BF0C37BD465DF8047B704780B500AFB9
:1013C0004FF08050FFF7A0FD4FF48040FFF7B4FDD1
:1013D0000320FFF76BF9FFF78DF9034600220F2179
:1013E0001846FFF7DDF9034619464FF0FF30FFF7C7
:1013F000ADF900F02DF801F043FA01F0D5F900F055
:1014000001FB00F073FB00F0E5FB00F06FFC00F067
:101410001FFD00F06DF800F099FD00F079FF01F07C
:1014200051F800F011FE01F0C3F801F049F900F0A5
:10143000B3F900F047FA00F0E3FE00F027FF01F0F7
:1014400013FF01F01FFF01F030FF00BFFDE70000B8
:1014500080B500AF0620FFF787FD00BFFFF798FDBE
:101460000346062BFAD14FF44040FFF7AFFDFFF7DC
:101470009DFDFFF705FC00BFFFF712FC0346012BA3
:10148000FAD10023C0220C214FF48000FFF704FDA5
:10149000FFF7DEFC00BFFFF7EBFC0346012BFAD1A0
:1014A00000BFFFF7A7FD0346002BFAD00020FFF78F
:1014B0002DFC4FF4A050FFF73DFC4FF40040FFF728
:1014C0004DFC0220FFF700FC00BFFFF711FC0346B4
:1014D000082BFAD105480CF09DFD04480CF0CEFD18
:1014E0000020FFF79FFC00BF80BD00BF00C2EB0BD8
:1014F00080B592B000AF07F13C0300221A605A6039
:101500009A6007F1280300221A605A609A60DA6034
:101510001A6107F1180300221A605A609A60DA60B3
:101520003B4600221A605A609A60DA601A615A617A
:101530004FF48070FFF700FD0420FFF7CDFC022080
:10154000FFF7CAFC01233B6003237B6000233B6160
:101550003B46194684480BF006FB02233B600323FD
:101560007B6000233B613B4619467F480BF0FBFA4A
:1015700004233B6003237B6000233B613B46194609
:1015800079480BF0F0FA08233B6003237B600023CB
:101590003B613B46194674480BF0E5FA10233B606B
:1015A00003237B6000233B613B4619466E480BF0EA
:1015B000DAFA20233B6003237B6000233B613B4638
:1015C000194669480BF0CFFA01233B6003237B6087
:1015D00000233B613B46194664480BF0C4FA0223E2
:1015E0003B6003237B6000233B613B4619465F4819
:1015F0000BF0B9FA002200215D48FFF795FA0022AE
:1016000000215B48FFF794F9002200215848FFF7BA
:1016100067FA4FF4807200215548FFF7ADF90022B8
:1016200000215348FFF7CCF94FF480620021504865
:10163000FFF7EAF94FF4006200214D48FFF708FA7E
:101640004FF4005200214A48FFF726FA002148488B
:10165000FFF78EFA0023FB6300233B644FF4807393
:101660007B6407F13C03194642480BF003F9002361
:10167000BB624FF4E003FB6200233B6300237B6308
:101680004FF44073BB6307F12803194639480BF048
:101690001DF900213748FFF7ECF84FF48033BB61A8
:1016A0000023FB6107F11803194633480BF09AF841
:1016B0000A224FF400712F48FFF7A5F801220A21F2
:1016C0002C48FFF7E9F82D4A40F205212948FFF799
:1016D0009AF8012229492748FFF7DEF8284A40F204
:1016E0000A212448FFF78FF8012225492148FFF7F6
:1016F000D3F8244A40F20F211E48FFF784F8012254
:1017000020491C48FFF7C8F81F4A4FF405711948D3
:10171000FFF779F801221C491648FFF7BDF81B4A6C
:1017200040F219211348FFF76EF8012217491148BA
:10173000FFF7B2F8164A4FF480710E48FFF763F8CE
:10174000012213490B48FFF7A7F8124A40F205118E
:101750000848FFF758F801220E490648FFF79CF8A1
:1017600000BF4837BD4680BD00080240000402406B
:101770000064024000200140002301400B003000C3
:101780000C0060000D0090000E00C0000F00F00083
:10179000080080030900B00380B58EB000AF07F1E8
:1017A0002C0300221A605A609A6007F11803002285
:1017B0001A605A609A60DA601A613B4600221A6029
:1017C0005A609A60DA601A615A614FF40070FFF74C
:1017D000B3FB0120FFF780FB08233B6003237B6002
:1017E00000233B613B46194632480BF0BCF94FF0F1
:1017F000007202213048FFF797F9002202212E489B
:10180000FFF796F84FF4803202212B48FFF768F972
:101810004FF4807202212848FFF7AEF8002202211F
:101820002548FFF7CDF84FF4806202212248FFF7E8
:10183000EBF84FF4006202211F48FFF709F94FF45B
:10184000005202211C48FFF727F902211A48FFF72E
:101850008FF90023FB6200233B6300237B6307F1C6
:101860002C03194615480BF005F80023BB61002333
:10187000FB6100233B6200237B624FF44073BB6239
:1018800007F1180319460D480BF020F84FF480615A
:101890000A48FEF7EEFF0A4A4FF400710748FEF7C8
:1018A000B2FF012206490548FEF7F6FF00BF3837B0
:1018B000BD4680BD0000024000640240002101409E
:1018C0000300900280B58EB000AF07F12C03002218
:1018D0001A605A609A6007F1180300221A605A6071
:1018E0009A60DA601A613B4600221A605A609A6078
:1018F000DA601A615A614FF48060FFF71DFB012026
:10190000FFF7EAFA02233B6003237B6000233B617D
:101910003B46194637480BF026F904233B60032366
:101920007B6000233B613B46194632480BF01BF9B4
:101930004FF0806201213048FFF7F6F800220121C4
:101940002D48FEF7F5FF002201212B48FFF7C8F8CC
:101950004FF4807201212848FFF70EF80022012180
:101960002548FFF72DF84FF4806201212248FFF748
:101970004BF84FF4006201211F48FFF769F84FF45C
:10198000005201211C48FFF787F801211A48FFF790
:10199000EFF80023FB6200233B6300237B6307F126
:1019A0002C03194615480AF065FF0023BB6100238C
:1019B000FB6100233B6200237B624FF44073BB62F8
:1019C00007F1180319460D480AF080FF4FF48061B3
:1019D0000A48FEF74EFF0A4A4FF400710748FEF727
:1019E00012FF012206490548FEF756FF00BF3837AF
:1019F000BD4680BD0000024000640240002201405C
:101A00000200600280B58EB000AF07F11C03002217
:101A10001A605A609A60DA601A615A619A613B1DD5
:101A200000221A605A609A60DA601A615A614FF4B3
:101A30004030FFF7DBF90220FFF74EFA40237B60CE
:101A40000223BB600323FB6001233B6100237B6116
:101A50000423BB613B1D194621480BF084F8802309
:101A60007B600223BB600323FB6001233B610023F7
:101A70007B610423BB613B1D194619480BF073F8C9
:101A80004FF40010FFF740FA1648FFF7E9F800227C
:101A900000211448FFF7BCF81248FFF7D1F81148AD
:101AA000FFF7A6F80F48FFF793F80023FB610E4BF2
:101AB0003B6200237B620023BB620023FB620023A6
:101AC0003B6300237B6307F11C03194605480BF0B9
:101AD00061F90448FFF76CF800BF3837BD4680BD98
:101AE0000004024000540040FF63106080B58EB0D7
:101AF00000AF07F11C0300221A605A609A60DA6096
:101B00001A615A619A613B1D00221A605A609A60FC
:101B1000DA601A615A614FF44020FFF767F902203A
:101B2000FFF7DAF94FF480637B600223BB60032385
:101B3000FB6001233B6100237B610423BB613B1DF0
:101B4000194621480BF00FF84FF400637B60022325
:101B5000BB600323FB6001233B6100237B61042303
:101B6000BB613B1D194618480AF0FDFF4FF4800089
:101B7000FFF7CAF91548FFF773F800220021134850
:101B8000FFF746F81148FFF75BF81048FFF730F809
:101B90000E48FFF71DF80023FB610D4B3B6200234D
:101BA0007B620023BB620023FB6200233B630023B4
:101BB0007B6307F11C03194604480BF0EBF800BFE8
:101BC0003837BD4680BD00BF0004024000580040C9
:101BD000FFEAC00080B590B000AF07F118032822DB
:101BE000002118460DF0B8F93B4600221A605A60F1
:101BF0009A60DA601A615A614FF48050FFF79CF9DD
:101C00000120FFF769F910233B6002237B60032367
:101C1000BB600023FB6000233B6105237B613B46E7
:101C2000194630480AF09FFF20233B6002237B6067
:101C30000323BB600023FB6000233B6105237B6122
:101C40003B46194627480AF08EFF40233B6002239B
:101C50007B600323BB600023FB6000233B61052303
:101C60007B613B4619461F480AF07DFF80233B609D
:101C700002237B600323BB600023FB6000233B61E6
:101C800005237B613B46194616480AF06CFF00238A
:101C9000BB614FF48273FB614FF4E0633B6200234E
:101CA0007B620023BB620023FB6200233B630023B3
:101CB0007B630023BB630723FB6307F1180319460B
:101CC00009480BF03FFC00210748FFF7B7F9064829
:101CD000FFF7C7F90448FFF7A1F900BF4037BD4639
:101CE00080BD00BF000002400030014080B590B0D0
:101CF00000AF07F118032822002118460DF02CF937
:101D00003B4600221A605A609A60DA601A615A6192
:101D10004FF48040FFF7F8F80220FFF7DDF84FF4AA
:101D200000533B6002237B600323BB600023FB6006
:101D300000233B6105237B613B46194641480AF07D
:101D400012FF4FF480433B6002237B600323BB60A0
:101D50000023FB6000233B6105237B613B46194662
:101D600038480AF000FF4FF400433B6002237B60D9
:101D70000323BB600023FB6000233B6105237B61E1
:101D80003B4619462F480AF0EEFE4FF090520121D3
:101D90002D48FEF7C9FE002201212B48FEF7C8FDA1
:101DA0004FF4403201212848FEF79AFE4FF480722A
:101DB00001212548FEF7E0FD002201212248FEF71F
:101DC000FFFD4FF4806201211F48FEF71DFE4FF416
:101DD000006201211C48FEF73BFE4FF40052012136
:101DE0001948FEF759FE01211748FEF7C1FE0023EE
:101DF000BB614FF48273FB614FF470633B6200235D
:101E00007B620023BB624FF40073FB6200233B63E1
:101E100000237B630023BB630723FB6307F11803E5
:101E200019460A480BF08EFB00210848FFF706F917
:101E30000648FFF716F90548FFF7F0F800BF4037EE
:101E4000BD4680BD000402400060024000380040F2
:101E500080B590B000AF07F1180328220021184682
:101E60000DF07AF83B4600221A605A609A60DA60F8
:101E70001A615A614FF40040FFF746F80420FFF75B
:101E80002BF84FF480633B6002237B600323BB602D
:101E90000023FB6000233B6106237B613B46194620
:101EA00028480AF060FE4FF400633B6002237B6029
:101EB0000323BB600023FB6000233B6106237B619F
:101EC0003B4619461F480AF04EFE4FF480533B60D4
:101ED00002237B600323BB600023FB6000233B6184
:101EE00006237B613B46194616480AF03CFE002358
:101EF000BB614FF48273FB614FF4E0633B620023EC
:101F00007B620023BB624FF40073FB6200233B63E0
:101F100000237B630023BB630723FB6307F11803E4
:101F2000194609480BF00EFB00210748FFF786F819
:101F30000548FFF796F80448FFF770F800BF4037F0
:101F4000BD4680BD00080240003C004080B590B016
:101F500000AF07F118032822002118460CF0FCFFFF
:101F60003B4600221A605A609A60DA601A615A6130
:101F70004FF40050FEF7E0FF1020FEF7ADFF4FF4E6
:101F800080533B6002237B600323BB600023FB6024
:101F900000233B6105237B613B46194628480AF034
:101FA000E2FD4FF400533B6002237B600323BB60E0
:101FB0000023FB6000233B6105237B613B46194600
:101FC0001F480AF0D0FD4FF480433B6002237B6042
:101FD0000323BB600023FB6000233B6105237B617F
:101FE0003B46194616480AF0BEFD0023BB614FF47C
:101FF0008273FB614FF4E0633B6200237B62012349
:10200000BB624FF40073FB6220233B6300237B63BE
:102010000023BB630723FB6307F118031946094834
:102020000BF090FA00210748FFF708F80548FFF782
:1020300028F80448FEF7F2FF00BF4037BD4680BDD8
:10204000001002400034014080B590B000AF07F1AD
:1020500018032822002118460CF07EFF3B46002280
:102060001A605A609A60DA601A615A614FF400107F
:10207000FEF762FF0220FEF72FFF08233B600223DA
:102080007B600323BB600023FB6000233B610823CC
:102090007B613B46194657480AF065FD10233B60BB
:1020A00002237B600323BB600023FB6000233B61B2
:1020B00008237B613B4619464E480AF054FD202315
:1020C0003B6002237B600323BB600023FB60002393
:1020D0003B6108237B613B46194646480AF043FDB5
:1020E0004FF0007205214448FEF71EFD40220521F5
:1020F0004148FEF71DFC4FF4403205213E48FEF7F3
:10210000EFFC002205213C48FEF736FC00220521A9
:102110003948FEF755FC4FF4806205213648FEF73A
:1021200073FC002205213448FEF792FC00220521B1
:102130003148FEF7B1FC05212F48FEF719FD4FF09D
:10214000007206212C48FEF7EFFC002206212A48E7
:10215000FEF7EEFB4FF4403206212748FEF7C0FCA5
:10216000002206212448FEF707FC0022062122480F
:10217000FEF726FC4FF4806206211F48FEF744FC60
:10218000002206211C48FEF763FC002206211A48A3
:10219000FEF782FC06211848FEF7EAFC0023BB612B
:1021A0004FF48273FB614FF4E0633B6200237B6278
:1021B0000023BB624FF40073FB6200233B630023E8
:1021C0007B630023BB630723FB6307F118031946F6
:1021D0000A480BF0B7F900210848FEF72FFF07481F
:1021E000FEF73FFF0548FEF719FF00BF4037BD4629
:1021F00080BD00BF00040240006402400054014062
:1022000080B586B000AF3B1D00221A605A609A600C
:10221000DA601A610120FEF78FFEFEF76BFA0346C3
:10222000002200211846FEF7BBFA03461946192082
:10223000FEF78CFA1920FEF76BFA0023BB8000230F
:10224000BB604FF6FF73FB6000233B6100237B61A3
:102250003B1D19460C480BF069FA0B48FEF721FFAD
:1022600000210948FEF7D0FF00210748FEF7E2FFF2
:1022700000210548FEF7F1FF0348FFF701F800BF12
:102280001837BD4680BD00BF0000014080B586B054
:1022900000AF3B1D00221A605A609A60DA601A6132
:1022A0000120FEF731FEFEF725FA03460022022147
:1022B0001846FEF775FA034619461C20FEF746FA43
:1022C0001C20FEF725FA0023BB800023BB604FF0E3
:1022D000FF33FB6000233B613B1D19464FF08040FC
:1022E0000BF024FA4FF08040FEF7DBFE00214FF0A8
:1022F0008040FEF789FF00214FF08040FEF79AFFF3
:102300004FF08040FEF7BCFF00BF1837BD4680BDD0
:1023100080B594B000AF07F13C0300221A605A6008
:102320009A60DA601A6107F11C0320220021184626
:102330000CF012FE3B1D00221A605A609A60DA60AF
:102340001A615A610420FEF7DFFD0A23BB870023D0
:102350003B644CF250337B644FF40073BB6407F171
:102360003C03194655480BF0E1F95448FEF799FE35
:1023700000215248FEF748FF01215048FEF7F4FEC5
:102380006023FB6100233B6200237B620023BB626E
:102390000023FB6207F11C031A46012147480BF09A
:1023A0005FFA01214548FEF78DFE10214348FEF7F4
:1023B000DBFE07F11C031A46102140480BF050FACF
:1023C00010213E48FEF77EFE4FF480713B48FEF739
:1023D000CBFE07F11C031A464FF4807137480BF00F
:1023E0003FFA4FF480713548FEF76CFE4FF4805190
:1023F0003248FEF7B9FE07F11C031A464FF480512C
:102400002E480BF02DFA4FF480512C48FEF75AFE5F
:1024100000212A48FEF70EFF2848FEF731FF08206A
:10242000FEF75AFD4FF480537B600223BB6000230C
:10243000FB6000233B6100237B610223BB613B1DEA
:1024400019461F480AF08FFB4FF400537B600223AC
:10245000BB600023FB6000233B6100237B61022300
:10246000BB613B1D194616480AF07DFB4FF48043C3
:102470007B600223BB600023FB6000233B610023E1
:102480007B610223BB613B1D19460D480AF06BFBC3
:102490004FF400437B600223BB600023FB600023FA
:1024A0003B6100237B610223BB613B1D194604484D
:1024B0000AF059FB00BF5037BD4680BD0008004000
:1024C000000C024080B58EB000AF07F11C03002263
:1024D0001A605A609A60DA601A615A619A613B1D0B
:1024E00000221A605A609A60DA601A615A614FF0ED
:1024F0004050FEF761FC4FF08040FEF705FD1020D4
:10250000FEF7EAFC80237B600223BB600323FB60B1
:1025100000233B6100237B610823BB613B1D1946FF
:1025200021480AF020FB4FF480737B600223BB60DC
:102530000323FB6000233B6100237B610823BB6115
:102540003B1D194618480AF00EFBFEF7D3F8034668
:1025500000220B211846FEF723F9034619465220A4
:10256000FEF7F4F85220FEF7D3F84FF4E133FB61A5
:1025700000233B6200237B620023BB620C23FB62CF
:1025800000233B6300237B6307F11C0319460748C4
:102590000BF086FC0548FEF7DEFE0448FEF780FEE1
:1025A00000BF3837BD4680BD0010024000780040B3
:1025B00080B58EB000AF07F11C0300221A605A608C
:1025C0009A60DA601A615A619A613B1D00221A60B2
:1025D0005A609A60DA601A615A614FF44030FEF72F
:1025E000D1FB1020FEF7A8FC0120FEF775FC4FF48C
:1025F00000737B600223BB600323FB6000233B610D
:1026000000237B610723BB613B1D19462A480AF062
:10261000AAFA4FF480637B600223BB600323FB6054
:1026200000233B6100237B610723BB613B1D1946EF
:1026300021480AF098FA4FF480537B600223BB6074
:102640000323FB6000233B6100237B610723BB6105
:102650003B1D194618480AF086FA4FF4E133FB6136
:1026600000233B6200237B620023BB620C23FB62DE
:1026700000233B6300237B6307F11C0319460F48CB
:102680000BF00EFC0D48FEF743FE00210B48FEF751
:102690004FFE00210948FEF727FE00210748FEF7FC
:1026A0000FFE0648FEF757FE0448FEF7F9FD00BF8F
:1026B0003837BD4680BD00BF000002400010014019
:1026C00080B58EB000AF07F11C0300221A605A607B
:1026D0009A60DA601A615A619A613B1D00221A60A1
:1026E0005A609A60DA601A615A614FF04060FEF7F2
:1026F00049FB2020FEF720FC0420FEF7EDFB4023E1
:102700007B600223BB600323FB6000233B6100234B
:102710007B610823BB613B1D194621480AF023FA5F
:1027200080237B600223BB600323FB6000233B61AB
:1027300000237B610823BB613B1D194618480AF042
:1027400012FAFDF7D7FF034600220B211846FEF7C9
:1027500027F8034619464720FDF7F8FF4720FDF705
:10276000D7FF4FF4E133FB6100233B6200237B6220
:102770000023BB620C23FB6200233B6300237B63CB
:1027800007F11C03194607480BF08AFB0548FEF7C2
:10279000E2FD0448FEF784FD00BF3837BD4680BD2A
:1027A000000802400014014080B500AF4FF48000E3
:1027B000FEF792FB4FF40010FEF78EFBFDF79AFF39
:1027C0000346002200211846FDF7EAFF034619469A
:1027D0000C20FDF7BBFF0C20FDF79AFFFDF78AFFE9
:1027E000034600220A211846FDF7DAFF0346194680
:1027F0003820FDF7ABFF3820FDF78AFFFDF77AFFA1
:102800000346002200211846FDF7CAFF0346194679
:102810003920FDF79BFF3920FDF77AFFFDF76AFFAE
:10282000034600220A211846FDF7BAFF034619465F
:102830003A20FDF78BFF3A20FDF76AFFFDF75AFFBC
:102840000346002209211846FDF7AAFF0346194650
:102850004420FDF77BFF4420FDF75AFFFDF74AFFB8
:102860000346002201211846FDF79AFF0346194648
:102870004520FDF76BFF4520FDF74AFF00BF80BDF7
:1028800080B586B000AF3B4600221A605A609A605D
:10289000DA601A615A611020FEF71EFB0420FEF771
:1028A0001BFB8020FEF718FB0120FEF715FB022022
:1028B000FEF712FB0820FEF70FFB0421BF48FEF7CE
:1028C0006EFD0821BD48FEF76AFD1021BB48FEF7EA
:1028D00066FD2021B948FEF762FD4021B748FEF7AA
:1028E0005EFD4FF40051B648FEF759FD4FF48041AC
:1028F000B348FEF754FD4FF40041B148FEF74FFDD9
:102900004FF40061AD48FEF74AFD4FF40061AD4859
:10291000FEF745FD4FF40041AA48FEF740FD0121B6
:10292000A948FEF73CFD0221A748FEF738FD10211B
:10293000A548FEF734FD2021A348FEF730FD4021D5
:10294000A148FEF72CFD0421A048FEF71AFD4FF424
:1029500080619A48FEF715FD4FF400419748FEF755
:1029600010FD4FF480519948FEF70BFD4FF4807134
:102970009548FEF706FD4FF400719348FEF701FD00
:102980004FF480619048FEF7FCFC04218E48FEF76E
:10299000F8FC80218C48FEF7F4FC4FF480718B48E2
:1029A000FEF7EFFC4FF400718848FEF7EAFC0121C6
:1029B0008248FEF7E6FC02218048FEF7E2FC042391
:1029C0003B6001237B600023BB600023FB6000238E
:1029D0003B613B46194679480AF0C5F808233B603D
:1029E00001237B600023BB600023FB6000233B616D
:1029F0003B46194671480AF0B6F810233B600123A4
:102A00007B600023BB600023FB6000233B613B46EF
:102A100019466A480AF0A7F820233B6001237B602F
:102A20000023BB600023FB6000233B613B4619464B
:102A300062480AF098F840233B6001237B60002342
:102A4000BB600023FB6000233B613B4619465B48AB
:102A50000AF089F84FF400533B6001237B600023A8
:102A6000BB600023FB6000233B613B461946544892
:102A70000AF079F84FF480433B6001237B60002328
:102A8000BB600023FB6000233B613B4619464C487A
:102A90000AF069F84FF400433B6001237B60002398
:102AA000BB600023FB6000233B613B461946444862
:102AB0000AF059F804233B6001237B600023BB60CC
:102AC0000023FB6000233B613B4619463F480AF068
:102AD0004AF84FF480633B6001237B600023BB60B6
:102AE0000023FB6000233B613B46194633480AF054
:102AF0003AF84FF400633B6001237B600023BB6026
:102B00000023FB6000233B613B4619462B480AF03B
:102B10002AF84FF400433B6001237B600023BB6035
:102B20000023FB6000233B613B46194623480AF023
:102B30001AF84FF480533B6001237B600023BB6095
:102B40000023FB6000233B613B4619461F480AF007
:102B50000AF84FF480733B6001237B600323BB6062
:102B60000023FB6000233B613B461946164809F0F1
:102B7000FAFF4FF400733B6001237B600323BB60CB
:102B80000023FB6000233B613B4619460E4809F0D9
:102B9000EAFF4FF480633B6001237B600323BB604B
:102BA0000023FB6000233B613B461946064809F0C1
:102BB000DAFF4FF400633B600AE000BF0010024000
:102BC0000008024000000240000C024000040240E5
:102BD00000237B6000233B613B4619467E4809F099
:102BE000C2FF4FF480733B6000237B6000233B6196
:102BF0003B461946794809F0B6FF4FF400733B6035
:102C000000237B6000233B613B461946734809F073
:102C1000AAFF4FF480733B6000237B6000233B617D
:102C20003B4619466E4809F09EFF4FF400633B6037
:102C300001237B600023BB600023FB6000233B611A
:102C40003B461946664809F08EFF4FF400433B604F
:102C500001237B600023BB600023FB6000233B61FA
:102C60003B4619465E4809F07EFF01233B60012385
:102C70007B600023BB600023FB6000233B613B467D
:102C80001946554809F06FFF02233B6001237B6022
:102C90000023BB600023FB6000233B613B461946D9
:102CA0004D4809F060FF04233B6001237B60002353
:102CB000BB600023FB6000233B613B46194646484E
:102CC00009F051FF08233B6000237B6000233B6138
:102CD0003B461946404809F046FF10233B6001235C
:102CE0007B600023BB600023FB6000233B613B460D
:102CF0001946394809F037FF20233B6001237B60E8
:102D00000023BB600023FB6000233B613B46194668
:102D1000314809F028FF40233B6001237B600023FA
:102D2000BB600023FB6000233B613B4619462A48F9
:102D300009F019FF80233B6001237B600023BB6007
:102D40000023FB6000233B613B461946224809F003
:102D50000AFF4FF480733B6001237B600023BB605C
:102D60000023FB6000233B613B4619461D4809F0E8
:102D7000FAFE4FF400733B6001237B600023BB60CD
:102D80000023FB6000233B613B461946154809F0D0
:102D9000EAFE01233B6001237B600023BB6000232C
:102DA000FB6000233B613B4619460F4809F0DBFE00
:102DB00002233B6001237B600023BB600023FB6098
:102DC00000233B613B461946074809F0CCFE00BF93
:102DD0001837BD4680BD00BF000C0240000802400D
:102DE00000000240000402400010024080B400AF26
:102DF00000BFFDE780B400AF00BFFDE780B400AFC7
:102E000000BFFDE780B400AF00BFFDE780B400AFB6
:102E100000BFFDE780B400AF00BFBD465DF8047B96
:102E2000704780B400AF00BFBD465DF8047B7047BB
:102E300080B400AF00BFBD465DF8047B704780B52D
:102E400000AF09F05BFC00BF80BD80B400AF012380
:102E50001846BD465DF8047B704780B582B000AF70
:102E6000786039600CF0D8F8034616221A604FF0EB
:102E7000FF3318460837BD4680BD80B582B000AF2D
:102E800078604FF0FF317868FFF7E7FF00BFFDE79C
:102E900080B586B000AFF860B9607A6000237B61CE
:102EA0000AE0AFF300800146BB685A1CBA60CAB2A0
:102EB0001A707B6901337B617A697B689A42F0DB27
:102EC0007B6818461837BD4680BD80B586B000AF18
:102ED000F860B9607A6000237B6109E0BB685A1C26
:102EE000BA601B781846AFF300807B6901337B61C1
:102EF0007A697B689A42F1DB7B6818461837BD46D1
:102F000080BD80B483B000AF78604FF0FF331846C7
:102F10000C37BD465DF8047B704780B483B000AFCA
:102F2000786039603B684FF400525A6000231846BD
:102F30000C37BD465DF8047B704780B483B000AFAA
:102F40007860012318460C37BD465DF8047B704756
:102F500080B485B000AFF860B9607A60002318468D
:102F60001437BD465DF8047B7047000080B586B01D
:102F700000AF7860144A154BD31A7B617B693B61C3
:102F8000134B1B68002B02D1114B124A1A60104BD5
:102F90001A687B6813443A699A4207D20CF03CF8ED
:102FA00003460C221A604FF0FF3309E0084B1B6800
:102FB000FB60074B1A687B681344054A1360FB6883
:102FC00018461837BD4680BD0000082000040000E8
:102FD000B4430020E08D012080B400AF064BD3F84D
:102FE0008830054A43F47003C2F8883000BFBD46FC
:102FF0005DF8047B704700BF00ED00E0DFF834D0DF
:10300000FFF7EAFF0C480D490D4A002302E0D458AF
:10301000C4500433C4188C42F9D30A4A0A4C002322
:1030200001E013600432A242FBD30BF0FBFFFEF77A
:10303000C5F97047000008200000002098430020D8
:10304000F831010898430020DC8D0120FEE780B5AF
:1030500082B000AF7860396004F0A2FB04F098FA07
:103060007B6814330A220A21184609F003FB00BFCB
:103070000837BD4680BD000080B584B002AF7860DF
:1030800039607B68002B03D10021104803F08AFED1
:1030900078683B685A683B689B68009313460C4A03
:1030A0000C4909F059FA7B6814337A6816211846DE
:1030B00009F0BEFA3B681A687B685A627B68002296
:1030C0001A8700BF0837BD4680BD00BFA028010891
:1030D0003D3100084F30000880B586B002AF0223B2
:1030E0000093042308220949094808F0B9FF094A56
:1030F0003B1D07CA83E807003B1D19460648FFF73A
:10310000BBFF00BF1037BD4680BD00BFF8430020A5
:1031100000440020E80E0108B843002080B582B0CA
:1031200000AF0346FB71FB791946034809F02EFAFC
:1031300000BF0837BD4680BDB843002090B585B0BC
:1031400000AF786039603B681B88162B06D0162BC1
:1031500027DC142B08D0152B1DD022E004F02AFB0D
:1031600004F094FA01231DE00023FB730EE0FB7BC7
:10317000FC7B184604F024FB034619467B6804F1E7
:10318000140223F81210FB7B0133FB73FB7B072B2C
:10319000EDD9012306E004F0E3F903461AB27B6897
:1031A0005A87022318461437BD4690BD80B483B0B9
:1031B00000AF7860054A7B681C3332F9133018463B
:1031C0000C37BD465DF8047B704700BFB843002054
:1031D00080B487B000AFF860B96011461A460B465C
:1031E000FB801346BB80164AFB68143332F9133058
:1031F000BB82134ABB68143332F91330FB82B7F930
:103200001430B7F904209A4210DCB7F91430B7F93A
:1032100006209A420ADBB7F914301A46B7F916307D
:10322000D31A002BB8BF5B42322B01DD012300E033
:10323000002318461C37BD465DF8047B704700BF6D
:10324000B843002080B483B000AF7860054A7B6843
:10325000143332F9133018460C37BD465DF8047B41
:10326000704700BFB843002080B500AF02F040F9BE
:1032700002F0BEFDFFF730FF00F09AF800F0F6FC18
:1032800000BF80BD80B500AF012000F0B3F804207E
:1032900002F060F9022002F0D1FD0320FFF73EFFAB
:1032A000052000F005FD00BF80BD80B500AF09F02E
:1032B00005F900BF80BD80B582B000AF786039608D
:1032C00004F090F805F0A2F804F050FD7B680122AC
:1032D00083F865207B68002283F86A2000BF0837E6
:1032E000BD4680BD80B584B000AF786039607B6832
:1032F0005B69FB607B685B6939687868984703465F
:10330000FB72FB7A002B08D1FB6806497868984766
:103310007B685B6904497868984700BF1037BD46F1
:1033200080BD00BFD0280108BC28010880B584B04A
:1033300002AF786039607B68002B03D10021194807
:1033400003F030FD78683B685A683B689B680093DF
:103350001346154A154909F0FFF83B681A687B685F
:103360005A617B6818337A681721184609F060F9AA
:103370007B6828337A682021184609F059F97B6860
:103380002833184609F096F97B681833184609F077
:1033900091F93B681A7B7B6883F8602000BF08378F
:1033A000BD4680BDAC280108E5320008B7320008F0
:1033B00090B587B002AF122300930223242209495B
:1033C000094808F04DFE094B3C460FCB84E80F003E
:1033D0003B4619460648FFF7A9FF00BF1437BD4614
:1033E00090BD00BFBCE40020E0E40020F40E010822
:1033F0001C44002080B582B000AF0346FB71FB790E
:103400001946034809F0C2F800BF0837BD4680BD21
:103410001C44002080B582B000AF786039603B6802
:103420001B88192B12D0192B15DC012B02D0182B5D
:1034300007D010E07B681833184609F03BF90123E8
:103440000AE07B68064A5A61002305E07B68054A6A
:103450005A61002300E0022318460837BD4680BDAC
:1034600069340008A136000890B58DB002AF7860CD
:1034700039603B681B88013B1F2B00F2FB8001A2D7
:1034800052F823F005350008753600089735000816
:103490007536000875360008753600087536000860
:1034A0007536000875360008753600087536000850
:1034B0007536000875360008753600087536000840
:1034C0007536000875360008753600087536000830
:1034D000753600087536000875360008293600086C
:1034E0007536000875360008AF350008CF3500087E
:1034F000EF35000875360008753600087536000887
:103500003B3600085E4B3B628C2300935D4B3A6A6E
:103510005D495E4808F01AFD7B681833002244F6C6
:103520002061184609F0A6F87B6893F83A301946EE
:10353000786800F076FA786800F08CFA7B68DB6BCC
:10354000FB607B681B6C3B617B685B6C7B617B68B1
:103550001B8FBB617B6893F83A30FB617B6893F803
:103560003B30184603F0A8FF07F10C03184604F09F
:10357000C5FB7B68283301220121184609F07AF83F
:10358000434B00221A8004F0A5FD7B68002283F8DB
:10359000602001236FE07B681833184609F08AF831
:1035A0007B682833184609F085F8012363E07B68BF
:1035B00093F86030002B04D17B68012283F86020EF
:1035C00003E07B68032283F86020012353E07B68DB
:1035D00093F86030012B04D17B68022283F86020CD
:1035E00003E07B68032283F86020012343E07B68CB
:1035F00093F86030022B04D17B68052283F86020A9
:1036000003E07B68032283F860201D4B7B62C923A3
:1036100000931C4B7A6A1F491C4808F097FC7B6892
:103620001D4A5A61002326E07B68042283F860204B
:103630007B68194A5A6100231DE0154B1B88B3F5BE
:10364000804F10D2124B1B885A1C91B2104A118025
:103650001C4603F091FF03461A46104B23F8142032
:1036600004F01EF804E07B682833184609F022F8BD
:10367000012300E0022318462C37BD4690BD00BF51
:10368000040F01080C0F0108340F010854E6002054
:10369000A4E40020540F010815340008A46400209D
:1036A00080B582B000AF786039603B681B88013B11
:1036B0001E2B00F2AA8001A252F823F0393700082D
:1036C0000B3800080B3800080B3800080B380008CE
:1036D0000B3800080B3800080B3800080B380008BE
:1036E0000B3800080B3800080B3800080B380008AE
:1036F0000B3800080B3800080B3800080B3800089E
:103700000B3800080B3800080B3800080B3800088D
:103710000B3800080B3800080B3800080B3800087D
:103720000B3800080B3800080B3800088D370008EC
:10373000A73700085F3700087B681833184608F081
:10374000B9FF7B689B6D334A93607B685B6D314A40
:1037500053603149314808F043FF012356E02D4BB7
:103760009B68B3F5805F28BF4FF480539AB22C4B0F
:103770001A80284B5B685B00294A12885200114668
:10378000284A184604F074FE01233FE0264B1868CF
:10379000234B1B881A467B6893F85D30214902F061
:1037A00049FA012332E01B4B9B681D4A12889B1A81
:1037B000184A9360174B5B68194A12881344154ADC
:1037C0005360144B9B68002B16D0124B9B68B3F5CB
:1037D000805F28BF4FF480539AB2114B1A800D4B73
:1037E0005B685B000E4A1288520011460D4A18466B
:1037F00004F03EFE012309E00C49084808F0F0FE01
:103800007B680B4A5A61002300E002231846083700
:10381000BD4680BD904400200C290108B4E500207D
:10382000A0640020A044002004000020102901080A
:103830001534000880B584B000AFF860B9607A60D4
:10384000FB70FB687A681A65FB68BA685A65FB68A2
:103850007A689A65FB68FA7883F85D20074B1B68E5
:103860004FF6FF72A3F84220FB680549184608F09E
:10387000B7FE002318461037BD4680BD0400002067
:10388000F828010880B582B000AF78607B68DA6EF6
:103890007B681A657B6800225A657B68DA6E7B68F4
:1038A0009A657B68012283F85D20084B1B684FF600
:1038B000FF72A3F842207B680549184608F090FE85
:1038C000002318460837BD4680BD00BF0400002015
:1038D000F828010880B584B000AFF860B9607A605C
:1038E000BB68012B02D87B68642B01D9062318E042
:1038F000FB6893F86530002B06D0002003F02EFD06
:10390000FB68002283F865207968B86803F014FE2C
:103910007B68D9B2FA68BB68134461330A461A70EF
:10392000002318461037BD4680BD80B582B000AF79
:10393000786039603B68242B01D9062314E07B684A
:1039400093F86530012B06D0012003F007FD7B685A
:10395000012283F86520386803F07AFD3B68DAB20B
:103960007B6883F86320002318460837BD4680BD76
:1039700080B582B000AF78607B6893F86530012B2A
:1039800006D0012003F0EAFC7B68012283F8652061
:1039900003F06EFD7B68FF2283F863200023184646
:1039A0000837BD4680BD80B582B000AF7860396011
:1039B0003B68082B01D9062314E07B6893F8653037
:1039C000012B06D0012003F0C9FC7B68012283F89B
:1039D0006520386803F056FD3B68DAB27B6883F8EF
:1039E0006420002318460837BD4680BD80B582B0EC
:1039F00000AF78607B6893F86530012B06D001201A
:103A000003F0ACFC7B68012283F8652003F04AFDDB
:103A10007B68FF2283F86420002318460837BD46E0
:103A200080BD80B582B000AF786039603B68242BE0
:103A300001D906230AE004F029FA386804F04EFAA6
:103A40003B68DAB27B6883F86620002318460837A3
:103A5000BD4680BD80B582B000AF786004F02AFA20
:103A6000002318460837BD4680BDB0B483B000AF10
:103A7000786039603B681B88002B04D03B681B884A
:103A8000B3F57A7F01D9062328E03B689B78002BA9
:103A900003D03B689B78242B01D906231EE03B68AA
:103AA000DB78642B01D9062318E03B681B69B3F56A
:103AB000006F01D9062311E03B685B69002B01D13F
:103AC00006230BE07B683A6803F1380415460FCDF6
:103AD0000FC495E8030084E80300002318460C3760
:103AE000BD46B0BC7047B0B483B000AF78603960F9
:103AF0003A687B68154603F138040FCC0FC594E88B
:103B0000030085E8030000BF0C37BD46B0BC70471A
:103B100080B584B000AF78607B683833FB60FB68A9
:103B20001B88002B04D0FB681B88B3F57A7F01D972
:103B300006231CE0FB689B78002B03D0FB689B7876
:103B4000242B01D9062312E0FB68DB78642B01D912
:103B500006230CE0FB681B69B3F5006F01D906234F
:103B600005E07B680449184608F03AFD0023184632
:103B70001037BD4680BD00BFE428010880B500AF06
:103B8000054BDB69184608F016FA034BDB6918464B
:103B900008F033FA00BF80BDFCE4002080B582B09D
:103BA00000AF786039607B681833184608F082FDF2
:103BB00000BF0837BD4680BD80B584B000AF7860D7
:103BC00039607B685B69FB607B685B693968786832
:103BD00098470346FB72FB7A002B08D1FB68064925
:103BE000786898477B685B6904497868984700BFA4
:103BF0001037BD4680BD00BF3829010824290108BF
:103C000080B584B002AF786039607B68002B03D147
:103C10000021134803F0C6F878683B685A683B688F
:103C20009B68009313460F4A0F4908F095FC7B6888
:103C300018337A681321184608F0FAFC3B681A68B2
:103C40007B685A617B68002283F828207B681833E0
:103C5000184608F02FFD00BF0837BD4680BD00BFE5
:103C600014290108B93B00089D3B000880B586B0C7
:103C700002AF12230093022324220949094808F0C5
:103C8000EFF9094A3B1D07CA83E807003B1D1946A7
:103C90000648FFF7B5FF00BF1037BD4680BD00BF27
:103CA00070E5002094E50020700F010830E5002049
:103CB00080B582B000AF0346FB71FB79194603481B
:103CC00008F064FC00BF0837BD4680BD30E5002029
:103CD00080B586B002AF786039603B681B88012BE5
:103CE00002D0132B02D02FE001232EE07B6893F843
:103CF0002830002B13D1174BBB605E230093164B6B
:103D0000BA681649164808F021F9164B1B68184680
:103D100002F03AFD7B68012283F8282012E00D4B67
:103D2000FB60642300930C4BFA680F490C4808F0C1
:103D30000DF90C4B1B68184602F0B0FD7B680022A1
:103D400083F82820012300E0022318461037BD46DF
:103D500080BD00BF7C0F0108840F0108B40F01086B
:103D600054E6002008000020CC0F010880B500AF09
:103D700042F2107242F21071024808F07BFC0023FC
:103D8000184680BD48E5002080B500AF054808F022
:103D900091FC054B1B68184602F080FD0023184675
:103DA00080BD00BF48E500200800002080B400AFBF
:103DB000BFF34F8F00BF064BDB6803F4E06204499A
:103DC000044B1343CB60BFF34F8F00BF00BFFDE731
:103DD00000ED00E00400FA0580B588B000AFF8609F
:103DE000B9607A6007F11403074A0A2118460AF0FD
:103DF0002DFF07F114031946F86806F070FC00BFA8
:103E00002037BD4680BD00BFD019010880B584B001
:103E100000AFF860B9607A60FFF7C8FF80B588B07E
:103E200000AFF860B9607A600023BB610023FB82B9
:103E3000B86806F045FD03467B757B7D012B04D0F9
:103E40002E49F86807F0C2FE54E00121B86806F078
:103E500001FD38613B691B78612B22D10023FB7780
:103E60001BE0FB7F1846FFF7EDF90346FB82B7F92D
:103E7000163013F5004F06D1FB7F1A462049F8682B
:103E800007F0A4FE06E0FA7FB7F916301D49F8687E
:103E900007F09CFEFB7F0133FB77FB7F072BE0D90C
:103EA00028E03B691B782F2B20D93B691B78372BE7
:103EB0001CD838690AF0F2F80346BB61B869FFF70D
:103EC000C1F90346FB82B7F9163013F5004F05D14F
:103ED000BA690B49F86807F079FE0BE0B7F91630BC
:103EE000BA690849F86807F071FE03E00649F86806
:103EF00007F06CFE2037BD4680BD00BFD819010811
:103F0000F81901080C1A0108201A010880B588B0B8
:103F100000AFF860B9607A60B86806F0D1FC03467B
:103F2000FB61FB69012B04D01549F86807F04EFED0
:103F300023E0144B1B68184602F0E0FB034683F0B5
:103F40000103DBB2002B04D00F49F86807F03EFEF6
:103F500013E00121B86806F07DFCB861B8690AF089
:103F60009DF803467B61074B1B687969184602F090
:103F7000D6FE0649F86807F029FE2037BD4680BD09
:103F8000D81901080C000020341A0108801A010811
:103F900080B584B000AFF860B9607A600A4B1B68E6
:103FA000184602F0D5FE0346002B04D00749F868F6
:103FB00007F00CFE03E00649F86807F007FE00BFB3
:103FC0001037BD4680BD00BF0C000020801A0108DC
:103FD000881A010880B588B000AFF860B9607A60CF
:103FE000B86806F06DFC0346BB61BB69012B04D0C9
:103FF0003849F86807F0EAFD69E0374B1B68184656
:1040000002F07CFB034683F00103DBB2002B04D0FB
:104010003249F86807F0DAFD59E00121B86806F086
:1040200019FC786100233B617B691B78612B25D1EA
:104030000023FB611EE0284B1B68F969184602F05B
:1040400019FB38613B69002B0CD1234B1B68002204
:10405000F969184602F02EFBFA692149F86807F061
:10406000B5FD04E0FA691F49F86807F0AFFDFB6988
:104070000133FB61FB69032BDDD928E07B691B78E9
:104080002F2B24D97B691B78332B20D878690AF031
:1040900005F80346FB61104B1B68F969184602F0EE
:1040A000E9FA38613B69002B0CD10B4B1B680022ED
:1040B000F969184602F0FEFAFA690949F86807F04A
:1040C00085FD04E0FA690749F86807F07FFD2037AD
:1040D000BD4680BDD81901080C000020901A0108C7
:1040E000D81A0108EC1A010880B588B000AFF86052
:1040F000B9607A60B86806F0E3FB0346FB61FB69D0
:10410000012B04D01549F86807F060FD22E0012179
:10411000B86806F09FFBB861B86909F0BFFF0346B5
:10412000FB82FB8AB3F5FA7F04D3FB8A40F6B832F0
:10413000934204D90A49F86807F048FD0AE0094BA0
:104140001B68FA8A1146184602F039FC0649F868DD
:1041500007F03CFD2037BD4680BD00BF041B0108B1
:104160002C1B01080C000020801A010880B586B0C5
:1041700000AFF860B9607A60084B1B68184602F01F
:10418000BEF90346FB82FB8A1A460549F86807F028
:104190001DFD00BF1837BD4680BD00BF0C000020CC
:1041A000601B010880B588B000AFF860B9607A6024
:1041B000B86806F085FB0346BB61BB69042B04D0DD
:1041C0003149F86807F002FD5BE0304B1B68184688
:1041D00002F08AFB0346FB750023FB614AE0FB69A2
:1041E0009BB201339BB21946B86806F033FB034615
:1041F000184609F053FF0346D9B207F11002FB69D4
:1042000013440A461A7007F11002FB6913441B7825
:10421000012B05D9FA691E49F86807F0D7FC30E090
:1042200007F11002FB6913441B78002B08D1174BD0
:104230001B68FA69D2B21146184602F090FB16E0EC
:10424000FB7DFA699A4205D1FA691249F86807F0CC
:10425000BDFC0CE00D4B1B68FA69D2B21146184642
:1042600002F05CFBFA690C49F86807F0AFFCFB69E7
:104270000133FB61FB69032BB1D90849F86807F0EA
:10428000A5FC2037BD4680BD841B01080C00002022
:10429000A81B0108D01B0108F41B0108801A0108A3
:1042A00080B586B000AFF860B9607A60134B1B68C8
:1042B000184602F077FB0346FB7400237B6115E090
:1042C000FA7C7B6942FA03F303F00103002B05D06B
:1042D0007A690B49F86807F079FC04E07A690949C2
:1042E000F86807F073FC7B6901337B617B69032B02
:1042F000E6D900BF00BF1837BD4680BD0C000020C6
:10430000F41B01080C1C010880B58CB000AFF860EC
:10431000B9607A60354B1B68184602F0EFF9034626
:1043200083F00103DBB2002B04D03149F86807F0B9
:104330004DFC58E0B86806F0C3FA0346FB62FB6A1E
:10434000032B04D02B49F86807F040FC4BE0012117
:10435000B86806F07FFAB862B86A09F09FFE0346B3
:104360007B627B6A032B04D92349F86807F02EFC93
:1043700039E00221B86806F06DFA3862386A09F04F
:104380008DFE0346FB61FB69012B04D91B49F868CC
:1043900007F01CFC27E00321B86806F05BFAB8615F
:1043A000B86909F07BFE0346FB82FB8A40F6B8320F
:1043B000934204D91249F86807F008FC13E00B4B4C
:1043C0001868FB8AFA69796A02F029FC38613B694E
:1043D000002B04D00B49F86807F0F8FB03E00A490A
:1043E000F86807F0F3FB3037BD4680BD0C000020B5
:1043F000241C0108481C0108741C0108981C0108B1
:10440000BC1C0108881A0108801A010880B58AB00E
:1044100000AFF860B9607A602A4B1B68184602F05A
:104420006DF9034683F00103DBB2002B04D026496B
:10443000F86807F0CBFB41E0B86806F041FA0346A4
:104440007B627B6A022B04D02049F86807F0BEFB30
:1044500034E00121B86806F0FDF93862386A09F0E5
:104460001DFE0346FB61FB69032B04D91849F8685C
:1044700007F0ACFB22E00221B86806F0EBF9B86166
:10448000B86909F00BFE03467B610E4B18687B6927
:10449000002B14BF01230023DBB21A46F96902F096
:1044A00009F938613B69002B04D00A49F86807F024
:1044B0008DFB03E00849F86807F088FB2837BD4604
:1044C00080BD00BF0C000020241C0108E81C01086E
:1044D000741C0108881A0108801A010880B58AB086
:1044E00000AFF860B9607A60B86806F0E9F9034691
:1044F0003B623B6A022B04D03549F86807F066FB43
:1045000062E00121B86806F0A5F9F861314B1B683B
:10451000184602F047FA0346FB76FB691B786F2BBF
:1045200007D1042387F827302B49F86807F04EFBA2
:104530001EE0FB691B782F2B1AD9FB691B78332BE4
:1045400016D8F86909F0AAFD034687F82730FA7EE5
:1045500097F8273042FA03F303F00103002B07D04A
:1045600097F827301A461D49F86807F02FFB2BE013
:104570000221B86806F06EF97861786909F08EFD5D
:1045800003463B613B69B3F5FA7F04D33B6940F6D0
:10459000B832934204D91249F86807F017FB13E0C8
:1045A0000C4B1B6897F827201146184602F0BAF802
:1045B000084B1B683A6992B21146184602F0C8F8D7
:1045C0000849F86807F002FB2837BD4680BD00BFE8
:1045D000081D01080C000020301D0108481D0108BD
:1045E0002C1B0108801A010880B584B000AFF86068
:1045F000B9607A60FFF7BAFB0349F86807F0E6FA9A
:1046000000BF1037BD4680BD801A010880B584B058
:1046100000AFF860B9607A60FFF7B6FB0349F8684D
:1046200007F0D4FA00BF1037BD4680BD801A0108DC
:1046300080B586B000AFF860B9607A600F4B1B6838
:10464000184602F051F90346FB750C4B1B681846DF
:1046500002F057F90346BB82FB7D042B04D10849C5
:10466000F86807F0B3FA05E0FA7DBB8A0549F868F7
:1046700007F0ACFA1837BD4680BD00BF0C00002023
:10468000301D01086C1D010880B588B000AFF860CE
:10469000B9607A60B86806F013F90346FB61FB69FC
:1046A000012B04D01249F86807F090FA1CE00121B0
:1046B000B86806F0CFF8B861B86909F0EFFC0346B6
:1046C000FB75FB7D642B04D90A49F86807F07EFA74
:1046D0000AE0094B1B68FA7D1146184602F08BF977
:1046E0000649F86807F072FA2037BD4680BD00BF62
:1046F000981D0108BC1D01080C000020801A01084B
:1047000080B586B000AFF860B9607A60084B1B686E
:10471000184602F086F90346FB75FB7D1A460549EB
:10472000F86807F053FA00BF1837BD4680BD00BFD8
:104730000C000020E01D010880B588B000AFF860D3
:10474000B9607A60B86806F0BBF80346BB61BB6924
:10475000042B04D02649F86807F038FA45E0002316
:10476000FB613BE0FB699BB201339BB21946B86821
:1047700006F070F80346184609F090FC0346D9B2DB
:1047800007F11402FB6913440A461A7007F1140278
:10479000FB6913441B78012B05D9FA691549F868A0
:1047A00007F014FA21E007F11402FB6913441B78A7
:1047B000002B08D1104B1B68FA69D2B2114618467B
:1047C00002F05DF907E00C4B1B68FA69D2B21146A2
:1047D000184602F033F9FB690133FB61FB69032BD7
:1047E000C0D90649F86807F0F1F92037BD4680BD09
:1047F000FC1D0108A81B01080C000020801A0108FC
:1048000080B586B000AFF860B9607A60124B1B6863
:10481000184602F057F90346FB7400237B6113E04E
:10482000FA7C7B6942FA03F303F00103002B04D006
:104830000A49F86807F0CAF903E00949F86807F07F
:10484000C5F97B6901337B617B69032BE8D900BF24
:1048500000BF1837BD4680BD0C000020241E010893
:104860003C1E010880B58AB000AFF860B9607A607C
:10487000B86806F025F803467B627B6A022B04D0F9
:104880001E49F86807F0A2F934E00121B86805F084
:10489000E1FF3862386A09F001FC0346FB83B7F98F
:1048A0001E30B3F57A7F04DD1549F86807F08EF9FC
:1048B00020E00221B86805F0CDFFB861B86909F0C1
:1048C000EDFB0346FB82B7F9163013F57A7F04DA65
:1048D0000C49F86807F07AF90CE00B4B1B68B7F944
:1048E0001620B7F91E10184602F01AF90749F868A1
:1048F00007F06CF92837BD4680BD00BF581E01087F
:10490000901E0108BC1E01080C000020801A01083E
:1049100080B586B000AFF860B9607A600C4B1B6858
:1049200007F114021146184602F010F9B7F91430D5
:104930001A460849F86807F049F9B7F916301A46D7
:104940000549F86807F042F900BF1837BD4680BD39
:104950000C000020EC1E01080C1F010880B588B077
:1049600000AFF860B9607A60B86805F0A9FF034647
:10497000FB61FB69012B04D00E49F86807F026F9AA
:1049800015E00121B86805F065FFB861B86909F064
:1049900085FB0346FB82084B1B68B7F916201146BE
:1049A000184602F0E9F80549F86807F00FF92037D2
:1049B000BD4680BD2C1F01080C000020801A010894
:1049C00080B586B000AFF860B9607A60084B1B68AC
:1049D000184602F0E1F80346FB82B7F916301A4692
:1049E0000449F86807F0F2F800BF1837BD4680BDEB
:1049F0000C000020541F010880B58AB000AFF86099
:104A0000B9607A60B86805F05BFF03467B627B6A39
:104A1000022B04D01C49F86807F0D8F830E00121D7
:104A2000B86805F017FF3862386A09F037FB0346AB
:104A3000FB61FB69072B04D91449F86807F0C6F835
:104A40001EE00221B86805F005FFB861B86909F0F9
:104A500025FB03467B617B69072B04D90C49F86869
:104A600007F0B4F80CE00B4B1B68FA69D1B27A6915
:104A7000D2B2184602F033F80749F86807F0A6F8F2
:104A80002837BD4680BD00BF741F01088C1F010878
:104A9000B01F01080C000020801A010880B586B004
:104AA00000AFF860B9607A600023BB820B4B1B68D3
:104AB00007F114021146184602F07BF83B7D1A46B6
:104AC0000749F86807F082F87B7D1A460549F868BF
:104AD00007F07CF800BF1837BD4680BD0C000020F1
:104AE000D41F0108E81F010880B588B000AFF86046
:104AF000B9607A60B86805F0E3FE0346FB61FB69C4
:104B0000012B04D01249F86807F060F81CE001217D
:104B1000B86805F09FFEB861B86909F0BFFA0346AE
:104B2000FB75FB7D012B04D90A49F86807F04EF8A4
:104B30000AE0094B1B68FA7D1146184602F04FF84F
:104B40000649F86807F042F82037BD4680BD00BF2F
:104B5000FC1F0108142001080C000020801A010825
:104B600080B586B000AFF860B9607A600A4B1B6808
:104B7000184602F048F80346FB75FB7D002B01D078
:104B8000064B00E0064B1A460649F86807F01EF887
:104B900000BF1837BD4680BD0C0000204020010832
:104BA000442001084820010880B584B000AFF860B7
:104BB000B9607A60064B1B68184601F0ADFC0549E8
:104BC000F86807F003F800BF1037BD4680BD00BF8E
:104BD0000C000020801A010880B584B000AFF86096
:104BE000B9607A60064B1B68184601F0B1FC0549B4
:104BF000F86806F0EBFF00BF1037BD4680BD00BF70
:104C00000C000020801A010880B588B000AFF86061
:104C1000B9607A60B86805F053FE0346FB61FB6932
:104C2000012B04D01349F86806F0D0FF1EE00121E3
:104C3000B86805F00FFEB861B86909F02FFA0346AD
:104C4000FB82B7F91630642B04DD0B49F86806F0D7
:104C5000BDFF0BE0094B1B68B7F916200021184671
:104C6000FEF738FE0649F86806F0B0FF2037BD466B
:104C700080BD00BF642001088C20010810000020C6
:104C8000801A010880B588B000AFF860B9607A601A
:104C9000B86805F015FE0346FB61FB69012B04D0E3
:104CA0001349F86806F092FF1EE00121B86805F08C
:104CB000D1FDB861B86909F0F1F90346FB82B7F993
:104CC0001630642B04DD0B49F86806F07FFF0BE01B
:104CD000094B1B68B7F9162001211846FEF7FAFDAB
:104CE0000649F86806F072FF2037BD4680BD00BF58
:104CF000B02001088C20010810000020801A010853
:104D000080B588B000AFF860B9607A600023BB83DB
:104D1000B86805F0D5FD0346FB76FB7E012B04D079
:104D20002749F86806F052FF46E00121B86805F00F
:104D300091FD78617B691B78612B1AD10023FB7789
:104D400013E0FB7F1846FEF731FA0346BB83FB7F77
:104D5000002B01D11B4A00E01B4ABB8B1B49F868A2
:104D600006F034FFFB7F0133FB77FB7F012BE8D993
:104D700022E07B691B782F2B1AD97B691B78312B9A
:104D800016D8786909F08AF90346FB74FB7C18464B
:104D9000FEF70CFA0346BB83FB7C002B01D1094ACA
:104DA00000E0094ABB8B0949F86806F00FFF03E0F1
:104DB0000749F86806F00AFF2037BD4680BD00BFEE
:104DC000D8190108F8200108FC2001080021010879
:104DD000201A010880B588B000AFF860B9607A6029
:104DE000B86805F06DFD0346FB61FB69012B04D03B
:104DF0001349F86806F0EAFE1EE00121B86805F0E4
:104E000029FDB861B86909F049F978617B69242BFB
:104E100002DC7B69002B04DC0A49F86806F0D6FE48
:104E20000AE0094B1B687A6911461846FEF77DFDBA
:104E30000649F86806F0CAFE2037BD4680BD00BFAF
:104E40001C2101084021010810000020801A0108DF
:104E500080B588B000AFF860B9607A60B86805F0D6
:104E60002FFD0346FB61FB69012B04D01349F86851
:104E700006F0ACFE1EE00121B86805F0EBFCB8615D
:104E8000B86909F00BF978617B69082B02DC7B6952
:104E9000002B04DC0A49F86806F098FE0AE0094B8A
:104EA0001B687A6911461846FEF77DFD0649F868C9
:104EB00006F08CFE2037BD4680BD00BF642101088E
:104EC0008821010810000020801A010880B584B0F4
:104ED00000AFF860B9607A60064B1B681846FEF7B1
:104EE00047FD0549F86806F071FE00BF1037BD4662
:104EF00080BD00BF10000020801A010880B584B07A
:104F000000AFF860B9607A60064B1B681846FEF780
:104F10006DFD0549F86806F059FE00BF1037BD4623
:104F200080BD00BF10000020801A010880B592B03B
:104F300000AFF860B9607A60B86805F0C1FC03465C
:104F40007B647B6C062B04D06949F86806F03EFE52
:104F5000CBE00121B86805F07DFC0346184609F056
:104F60009DF803463B643B6CB3F57A7F03D33B6CFF
:104F7000604A934204D96049F86806F027FEB4E01D
:104F80003B6C5E4AA2FB03239B093B640221B86889
:104F900005F060FC0346184609F080F80346FB6301
:104FA000FB6B002B02D0FB6B242B04D95449F8680F
:104FB00006F00CFE99E00321B86805F04BFC0346AF
:104FC000184609F06BF80346BB63BB6B642B04D92E
:104FD0004C49F86806F0FAFD87E00421B86805F04E
:104FE00039FC0346184609F059F803467B637B6B8E
:104FF000002B04D14449F86806F0E8FD75E07B6BAE
:105000004FF47A7202FB03F37B630521B86805F065
:1050100021FC0346184609F041F803463B633B6B0D
:10502000002B04D13949F86806F0D0FD5DE03B6BF8
:105030004FF47A7202FB03F33B630621B86805F074
:1050400009FC0346184609F029F80346FB62FB6A8F
:10505000002B04D12E49F86806F0B8FD45E0FB6A44
:105060004FF47A7202FB03F3FB627A6B3B6B1A44D8
:10507000FB6A13443A6C02FB03F3264AA2FB0323A8
:105080009B0CBB62BB6AB3F5006F04D92249F86878
:1050900006F09CFD29E03B6C9BB23B82FB6BDBB2D4
:1050A000BB74BB6BDBB2FB747B6B7B613B6BBB612B
:1050B000FB6AFB61BB6A3B62184A3B6CB2FBF3F3D1
:1050C0007B62174B1B6807F1100211461846FEF76A
:1050D000CCFC0346002B04D11249F86806F076FD9B
:1050E00003E01149F86806F071FD4837BD4680BD00
:1050F000A821010800350C0008220108D34D6210D8
:10510000302201084C2201086C220108902201087B
:10511000B822010883DE1B43DC22010840420F0055
:1051200010000020801A0108881A0108F0B591B01B
:1051300006AFF860B9607A60184B1B6807F110027F
:1051400011461846FEF7CFFC3B8A1A464FF47A7395
:1051500003FB02F4BB7C1E46FB7C1D467B69104AA8
:10516000A2FB03239B09BA690D49A1FB0212920914
:10517000F9690B48A0FB01018909386A0490039181
:10518000029201930095334622460649F86806F0DC
:105190001DFD00BF2C37BD46F0BD00BF1000002034
:1051A000D34D62100423010880B584B000AFF860CD
:1051B000B9607A60094B1B681846FEF7A9FC0346E4
:1051C000002B04D00649F86806F000FD02E0054B0C
:1051D00001221A7000BF1037BD4680BD10000020AC
:1051E000A0230108B0E5002080B588B000AFF860CA
:1051F000B9607A60B86805F063FB0346FB61FB6940
:10520000032B04D03349F86806F0E0FC5FE0324B32
:105210001B6893F86030052B10D02F4B1B6893F858
:105220006030032B0AD02C4B1B6893F86030042BA2
:1052300004D02A49F86806F0C9FC48E00121B868A2
:1052400005F008FB0346184608F028FF0346BB613B
:10525000BB69B3F5001F04D32149F86806F0B6FC1A
:1052600035E00221B86805F0F5FA0346184608F063
:1052700015FF03467B61BB69C3F500137A699A4247
:1052800003D87B69B3F5007F08D2BB69C3F500136F
:105290001A461449F86806F099FC18E00321B8682A
:1052A00005F0D8FA0346184608F0F8FE0346FB74EA
:1052B000FB7C012B04D90C49F86806F087FC06E05A
:1052C000054B1868FB7C7A69B969FEF7B3FA203799
:1052D000BD4680BDC023010810000020F82301084E
:1052E00018240108442401087024010880B584B002
:1052F00000AFF860B9607A60084B1B78002B05D0CE
:10530000074B1B681846FEF7BDFA04E00549F8682C
:1053100006F05CFC00BF1037BD4680BDB0E5002044
:1053200010000020A824010880B400AF024B1846EA
:10533000BD465DF8047B70474C29010880B400AF7E
:105340002B231846BD465DF8047B704780B483B0BC
:1053500000AF78607B68DB6903F02003202B01D16C
:10536000012300E0002318460C37BD465DF8047B9E
:10537000704780B483B000AF78607B685B6ADBB253
:1053800018460C37BD465DF8047B704780B500AF0A
:105390004FF480620849094806F088FF4FF48052B4
:1053A0000749084806F082FF064B044A06490748A9
:1053B00006F003FD00BF80BD8CE6002064E60020FF
:1053C0008CEA002078E600200014014054E600201A
:1053D000B0B588B000AF1B4B3C1D1D460FCD0FC4B0
:1053E00095E8070084E80700FFF79EFF0346BB61CE
:1053F000FFF7A4FF0346BB833B1D184605F02DF8BD
:105400000346114A1360104B1B68002B05D1012184
:105410000E4801F0C7FC012310E00B4B1B680C4A3F
:105420001A60094B1C683B1D184604F0E5FF034653
:105430001A460849204606F0C9FB002318462037C3
:10544000BD46B0BDEC24010890FA0020542D01089F
:1054500059540008CC24010880B582B000AF7860B0
:105460000B46FB70FB781946034806F029FD00BF88
:105470000837BD4680BD00BF54E6002080B584B02B
:1054800002AF786039607B68002B03D1002115489A
:1054900001F088FC78683B68DA683B681B69009318
:1054A0001346114A114907F057F87B6820337A6890
:1054B0000621184607F0BCF83B685A687B68DA6139
:1054C0003B689A687B689A613B681A687B685A6196
:1054D0007B682033184607F0EDF800BF0837BD465B
:1054E00080BD00BF542D0108B15500087555000856
:1054F00080B588B002AFFFF749FF022300931E2357
:105500003C220D490D4806F0ABFDFFF761FF0C4B47
:105510007B600C4B1B68BB600B4BFB600B4B3B6118
:10552000064B7B613B1D19460948FFF7A7FF00BFEB
:105530001837BD4680BD00BFFCE5002038E60020DE
:10554000F955000890FA002054E60020F8E5002004
:10555000B4E5002080B582B000AF0346FB71FB7953
:105560001946034807F012F800BF0837BD4680BD52
:10557000B4E5002080B582B000AF786039607B6808
:10558000002B03D10721094801F00CFC7B689B69C3
:10559000184606F02EFC7B6820330A220A211846A2
:1055A00007F068F800BF0837BD4680BD542D0108DC
:1055B00080B584B000AF786039607B685B69FB6060
:1055C0007B685B693968786898470346FB72FB7AA9
:1055D000002B08D1FB680649786898477B685B69AF
:1055E00004497868984700BF1037BD4680BD00BFAA
:1055F000602D01085C2D010880B582B000AF786095
:1056000039607B68002B03D10321244801F0CAFBD9
:105610003B68002B03D10421204801F0C3FB3B6809
:105620001B88013B072B34D801A252F823F000BF9E
:105630005156000893560008635600089356000818
:1056400093560008715600087F56000889560008D6
:105650007B6820330A220A21184607F00BF8012341
:1056600018E07B682033184607F024F8012311E086
:105670000B4B1B68184604F0A2FF01230AE07B686D
:10568000084A5A61002305E07B68074A5A610023F3
:1056900000E0022318460837BD4680BD542D01089E
:1056A00090FA00203D5700084D58000880B582B0A0
:1056B00000AF0B48FFF74AFE0346002B0BD008480B
:1056C000FFF757FE0346FB71064B1B68FA7911463C
:1056D000184604F051FF00BF0837BD4680BD00BF2B
:1056E0000014014090FA002080B584B000AF7860CB
:1056F0007B689B69184606F080FCF860FB68002B0D
:1057000008D0064B1B78002B04D07B680449184650
:1057100006F066FF00BF1037BD4680BD8CFA002042
:10572000642D010880B500AFFFF7C0FF0248FFF706
:10573000DBFF00BF80BD00BFB4E5002080B584B0B2
:1057400000AF786039600023FB603B681B88012B49
:1057500027D0092B46D074E0786800F00BFA1BE0E4
:105760007B689A697B6893F83D3019467B680B44E7
:1057700093F838301946104606F0A2FBF860FB6833
:10578000002B01D001235DE07B6893F83D300133AD
:10579000DAB27B6883F83D207B6893F83D30042BB8
:1057A000DED97B685B6B002BD6D11BE07B689A69E6
:1057B0007B6893F83D3019467B680B4493F838308A
:1057C0001946104606F07CFBF860FB68002B01D000
:1057D000012337E07B6893F83D300133DAB27B6810
:1057E00083F83D207B6893F83D30042BDED924E01C
:1057F000786800F0BFF91BE07B689A697B6893F8D2
:105800003D3019467B680B4493F8383019461046F2
:1058100006F056FBF860FB68002B01D0012311E075
:105820007B6893F83D300133DAB27B6883F83D2022
:105830007B6893F83D30042BDED97B685B6B002BD3
:10584000D6D1022318461037BD4680BD80B586B03C
:1058500000AF786039603B681B88013B0A2B00F27F
:10586000FD8001A252F823F0955800085D5A000807
:105870005D5A00085D5A00085D5A00085D5A00082C
:105880005D5A00085D5A00089D5900083D590008FE
:10589000135A0008744B1B6D5B00744A1A40744B1A
:1058A00013433B613B691B0CDBB23B733B691B0A37
:1058B000DBB27B733B69DBB2BB730023FB750DE08E
:1058C0007B689A69FB7D18333B4413F80C3C1946FE
:1058D000104606F0F5FAFB7D0133FB75FB7D022BCC
:1058E000EED96449604806F07BFE0123B7E0786892
:1058F00000F015F91DE07B689A697B6893F84030E9
:1059000019467B680B4493F83E301946104606F062
:10591000D7FA0346002B04D0574B01221A700123FB
:105920009DE07B6893F840300133DAB27B6883F8FE
:1059300040207B6893F84030012BDCD97B685B6B9F
:10594000002BD4D14D49484806F04AFE012386E099
:105950007B689A697B6893F8403019467B680B44F2
:1059600093F83E301946104606F0AAFA0346002B7B
:1059700001D0012373E07B6893F840300133DAB241
:105980007B6883F840207B685B6B002B06D13A4B29
:1059900000221A703949344806F022FE7B6893F8D9
:1059A0004030012BD4D92EE0786800F0B8F81AE026
:1059B0007B689A697B6893F8403019467B680B4492
:1059C00093F83E301946104606F07AFA0346002B4B
:1059D00001D0012343E07B6893F840300133DAB211
:1059E0007B6883F840207B6893F84030012BDFD937
:1059F0007B685B6B002B06D11F4B00221A701F497E
:105A0000194806F0EDFD7B685B6B002BCCD10123C0
:105A100025E07B68B3F842301B0A9BB2DBB23B73D4
:105A20007B68B3F84230DBB27B730023BB750DE0BB
:105A30007B689A69BB7D18333B4413F80C3C1946CC
:105A4000104606F03DFABB7D0133BB75BB7D012BD3
:105A5000EED97B680A4A5A61002300E00223184607
:105A60001837BD4680BD00BF1C440020FEFF3F002C
:105A70000000C0FF702D01088CFA0020842D010861
:105A8000F955000880B485B000AF78600B467B8084
:105A90007B881B0A9BB2DBB23B737B88DBB27B73D8
:105AA0000023FB7331E07B681B881AB2FB7B103349
:105AB0003B4413F8043C1BB21B021BB253401BB205
:105AC0009AB27B681A800023BB7318E07B681B883E
:105AD0001BB2002B0ADA7B681B881BB25B001AB270
