:020000040800F2
:1000000000000820D52F0008C52D0008CD2D0008C0
:10001000D52D0008DD2D0008E52D000800000000AA
:10002000000000000000000000000000ED2D0008AE
:10003000FB2D000800000000092E0008172E000804
:10004000253000082530000825300008253000083C
:10005000253000082530000825300008253000082C
:10006000253000082530000825300008253000081C
:10007000B99E00082530000825300008253000080A
:1000800025300008253000082530000825300008FC
:1000900025300008253000082530000825300008EC
:1000A00025300008FD9F0008253000082530000895
:1000B00049A0000825300008253000082530000838
:1000C00025300008253000082530000825300008BC
:1000D00025300008253000082530000845FA0008C2
:1000E000253000082530000825300008253000089C
:1000F000253000082530000825300008253000088C
:10010000253000082530000825300008253000087B
:10011000253000082530000825300008253000086B
:1001200031950008019400088D94000839A8000852
:10013000253000082530000825300008253000084B
:10014000253000082530000825300008253000083B
:100150002530000855A2000825300008D96F000896
:10016000253000082530000825300008253000081B
:100170002530000825300008253000080000000068
:1001800025300008253000085D41000825300008B2
:1001900025300008253000082530000825300008EB
:1001A0000000000000000000253000082530000895
:1001B00025300008253000082530000825300008CB
:1001C0002530000825300008000000002530000818
:1001D00025300008253000082530000825300008AB
:1001E000253000082530000825300008253000089B
:0801F0000000000025300008AA
:1002000010B5054C237833B9044B13B10448AFF350
:1002100000800123237010BDB8830020000000007F
:100220008444010808B5034B1BB103490348AFF3ED
:10023000008008BD00000000BC8300208444010849
:1002400010F8012B11F8013B012A28BF9A42F7D080
:10025000D01A7047000000000000000000000000FD
:1002600001F0FF01102A2BDB10F0070F08D010F867
:10027000013B013A8B422DD010F0070F42B3F6D16B
:10028000F0B441EA012141EA014122F007047FF084
:1002900000070023F0E80256083C85EA010586EADB
:1002A000010685FA47F5A3FA87F586FA47F6A5FA17
:1002B00087F68EB9EED1F0BC01F0FF0102F0070223
:1002C00032B110F8013B013A83EA010313B1F8D1CE
:1002D0000020704701387047002D06BF35460338AF
:1002E000073815F0010F07D1013015F4807F02BFE8
:1002F000013015F4C03F0130F0BC0138704700BF39
:10030000034613F8012B002AFBD1181A0138704755
:100310007BB972B90029BEBF00204FF0004106E052
:1003200008BF00281CBF6FF000414FF0FF3000F005
:10033000BBB9ADF1080C6DE904CE002909DB002B37
:100340001ADB00F035F8DDF804E0DDE9022304B043
:100350007047404261EB4101002B1BDB00F028F8A5
:10036000DDF804E0DDE9022304B0404261EB410125
:10037000524263EB43037047524263EB430300F086
:1003800017F8DDF804E0DDE9022304B0404261EB38
:1003900041017047524263EB430300F009F8DDF876
:1003A00004E0DDE9022304B0524263EB43037047EB
:1003B0002DE9F047089D8E4604468846002B4AD119
:1003C0008A42174662D9B2FA82F64EB1C6F12003CC
:1003D00001FA06F820FA03F3B74043EA0808B440EC
:1003E0004FEA174E1FFA87FCB8FBFEF1230C0EFBF9
:1003F000118843EA084301FB0CF29A4209D9FB1821
:1004000001F1FF3080F0EA809A4240F2E780023941
:100410003B449A1AA3B2B2FBFEF00EFB102243EA51
:10042000024300FB0CFC9C4509D9FB1800F1FF328C
:1004300080F0D6809C4540F2D3803B44023840EAAD
:100440000140A3EB0C0300211DB1F3400022C5E9DC
:100450000032BDE8F0878B4205D90DB1C5E9000136
:1004600000210846F5E7B3FA83F1002946D1734528
:1004700002D3824200F20581841A6EEB030201204E
:100480009046002DE5D0C5E90048E2E7002A00F0DB
:100490009080B2FA82F6002E40F0A4808A1A030CF3
:1004A0004FEA174E80B2BCB20121B2FBFEFC0EFB3C
:1004B0001C2243EA024304FB0CF29A4207D9FB18C0
:1004C0000CF1FF3802D29A4200F2E080C4469B1A37
:1004D000B3FBFEF20EFB123340EA034302FB04F4CB
:1004E0009C4207D9FB1802F1FF3002D29C4200F275
:1004F000CA8002461B1B42EA0C40A5E7C1F1200658
:100500008B4022FA06F71F430EFA01F420FA06F395
:100510002EFA06FE4FEA1749234300FA01F81FFAA4
:1005200087FCBEFBF9F01C0C09FB10EE44EA0E44FC
:1005300000FB0CFEA64502FA01F209D93C1900F1B4
:10054000FF3A80F09C80A64540F2998002383C44F6
:10055000A4EB0E041FFA83FEB4FBF9F309FB13446A
:100560004EEA044403FB0CFCA44508D93C1903F1F2
:10057000FF3E80F08280A4457FD9023B3C4443EAA1
:100580000040A4EB0C04A0FB02EC64457346E1467A
:1005900062D35FD05DB1B8EB030264EB090404FAE7
:1005A00006F622FA01F31E43CC40C5E9006400219F
:1005B0004FE7B1FBF2FC010C41EA0E4180B240EA88
:1005C00001423B4638463C46B846BE462026B1FB73
:1005D000F7F1A2EB080241EA0C4166E7014618E791
:1005E00010462CE7C6F120022EFA02F3B740B140C4
:1005F00020FA02F24FEA174E0A43B3FBFEF8BCB2F0
:100600000EFB1833110C41EA034108FB04F9B0401A
:1006100089454FEA104380B23ED9791808F1FF3C72
:1006200001D289451FD8A1EB0901B1FBFEF909FBF5
:1006300004F80EFB191192B242EA0142424529D256
:10064000BA1809F1FF31C4D24245C2D2A9F1020160
:100650003A44BEE7F0459DD2BEEB02036CEB070CBB
:100660000138E14696E7A7EB09094944A8F1020CD5
:10067000B1FBFEF909FB04F8DBE773467FE7504660
:1006800066E70846FDE63B44023A33E7ACF1020C6C
:100690003B441CE749469CE7A1EB0901C446B1FB7A
:1006A000FEF909FB04F8C4E7704700BF80B485B0C9
:1006B00000AF78607B6803F00703FB600B4BDB68DF
:1006C000BB60BA684FF6FF031340BB60FB681A02B9
:1006D000BB681A43064B1343BB60044ABB68D36034
:1006E00000BF1437BD465DF8047B704700ED00E0A5
:1006F0000000FA0580B400AF044BDB681B0A03F06E
:1007000007031846BD465DF8047B704700ED00E026
:1007100080B483B000AF0346FB7197F90730002B1C
:100720000BDBFB7903F01F02074997F907305B09E0
:10073000012000FA02F241F8232000BF0C37BD4629
:100740005DF8047B704700BF00E100E080B483B037
:1007500000AF03463960FB7197F90730002B0ADBC5
:100760003B68DAB20C4997F907301201D2B20B4458
:1007700083F800230AE03B68DAB20849FB7903F00A
:100780000F03043B1201D2B20B441A7600BF0C37A0
:10079000BD465DF8047B704700E100E000ED00E03D
:1007A00080B489B000AFF860B9607A60FB6803F08C
:1007B0000703FB61FB69C3F10703042B28BF042374
:1007C000BB61FB690433062B02D9FB69033B00E0E4
:1007D00000237B614FF0FF32BB6902FA03F3DA4377
:1007E000BB681A407B699A404FF0FF317B6901FA80
:1007F00003F3D9437B680B40134318462437BD46A7
:100800005DF8047B704780B489B000AFF860B960D0
:100810007A60FB682C331946BB6803F440734FF4CD
:100820004072BA61BA6992FAA2F27A617A69B2FA4E
:1008300082F2D2B2D3409B000B44FB61FB691A6881
:10084000BB6803F01F031F2101FA03F3DB431A40C7
:100850007B6803F01F01BB6803F01F0301FA03F379
:100860001A43FB691A6000BF2437BD465DF8047B5C
:10087000704780B483B000AF786039607B689B6854
:1008800023F480623B681A437B689A6000BF0C3790
:10089000BD465DF8047B704780B48DB000AFF86052
:1008A000B9607A60FB680C331946BB6803F00073CB
:1008B0004FF00072BA61BA6992FAA2F27A617A696B
:1008C000B2FA82F2D2B2D3409B000B44FB62FB6AC5
:1008D0001A68BB6803F0F8734FF0F8713962396A2F
:1008E00091FAA1F1F961F969B1FA81F1C9B2CB408C
:1008F000072101FA03F3DB431A40BB6803F0F873E6
:100900004FF0F871B962B96A91FAA1F17962796A26
:10091000B1FA81F1C9B2CB40796801FA03F31A4305
:10092000FB6A1A6000BF3437BD465DF8047B704730
:1009300080B485B000AFF860B9607A600D4ABB68DA
:1009400013441B781A46FB6813441B6823F0C0024B
:100950000849BB680B441B781946FB680B441946D1
:100960007B6813430B6000BF1437BD465DF8047B02
:10097000704700BFBC6B010880B485B000AFF86061
:10098000B9607A600D4ABB6813441B781A46FB684D
:1009900013441B6823F490720849BB680B441B780E
:1009A0001946FB680B4419467B6813430B6000BF74
:1009B0001437BD465DF8047B704700BFBC6B01086F
:1009C00080B485B000AFF860B9607A600D4ABB684A
:1009D00013441B781A46FB6813441B6823F4007207
:1009E0000849BB680B441B781946FB680B44194641
:1009F0007B6813430B6000BF1437BD465DF8047B72
:100A0000704700BFBC6B010880B485B000AFF860D0
:100A1000B9607A600D4ABB6813441B781A46FB68BC
:100A200013441B6823F480620849BB680B441B789D
:100A30001946FB680B4419467B6813430B6000BFE3
:100A40001437BD465DF8047B704700BFBC6B0108DE
:100A500080B485B000AFF860B9607A600D4ABB68B9
:100A600013441B781A46FB6813441B6823F4C052D6
:100A70000849BB680B441B781946FB680B441946B0
:100A80007B6813430B6000BF1437BD465DF8047BE1
:100A9000704700BFBC6B010880B485B000AFF86040
:100AA000B9607A600D4ABB6813441B781A46FB682C
:100AB00013441B6823F4C0420849BB680B441B78ED
:100AC0001946FB680B4419467B6813430B6000BF53
:100AD0001437BD465DF8047B704700BFBC6B01084E
:100AE00080B485B000AFF860B9607A600D4ABB6829
:100AF00013441B781A46FB6813441B6823F44032E6
:100B00000849BB680B441B781946FB680B4419461F
:100B10007B6813430B6000BF1437BD465DF8047B50
:100B2000704700BFBC6B010880B485B000AFF860AF
:100B3000B9607A600D4ABB6813441B781A46FB689B
:100B400013441B6823F0F0520849BB680B441B7820
:100B50001946FB680B4419467B6813430B6000BFC2
:100B60001437BD465DF8047B704700BFBC6B0108BD
:100B700080B483B000AF786039600C4A3B6813449E
:100B80001B781A467B6813445B6908493A680A4433
:100B9000127811467A680A4423F00403536100BFB7
:100BA0000C37BD465DF8047B704700BFBC6B010885
:100BB00080B483B000AF78607B681B6843F00102AB
:100BC0007B681A6000BF0C37BD465DF8047B704738
:100BD00080B483B000AF78607B681B6823F4003278
:100BE0007B681A6000BF0C37BD465DF8047B704718
:100BF00080B483B000AF78607B681B6823F4002268
:100C00007B681A6000BF0C37BD465DF8047B7047F7
:100C100080B485B000AFF860B9607A60FB68DA68CC
:100C2000064B1340B9687A680A431A43FB68DA60D6
:100C300000BF1437BD465DF8047B704701F8FFFF25
:100C400080B483B000AF78607B68DB6823F4004237
:100C50007B68DA6000BF0C37BD465DF8047B7047E7
:100C600080B483B000AF78607B685B6843F000724B
:100C70007B685A6000BF0C37BD465DF8047B704747
:100C800080B400AF054B1B68044A43F48033136003
:100C900000BFBD465DF8047B704700BF00380240CE
:100CA00080B400AF074B1B6803F40033B3F5003F7B
:100CB0000CBF01230023DBB21846BD465DF8047B60
:100CC000704700BF0038024080B483B000AF786046
:100CD000064B9B6823F0030204497B6813438B6037
:100CE00000BF0C37BD465DF8047B704700380240FA
:100CF00080B400AF044B9B6803F00C031846BD465C
:100D00005DF8047B704700BF0038024080B483B0B8
:100D100000AF7860064B9B6823F0F00204497B68C3
:100D200013438B6000BF0C37BD465DF8047B7047F2
:100D30000038024080B483B000AF7860064B9B68F7
:100D400023F4E05204497B6813438B6000BF0C37E7
:100D5000BD465DF8047B70470038024080B483B024
:100D600000AF7860064B9B6823F4604204497B68BF
:100D700013438B6000BF0C37BD465DF8047B7047A2
:100D80000038024080B483B000AF7860094BD3F8DC
:100D900090207B681B0CDB431A407B689BB20549A3
:100DA0001343C1F8903000BF0C37BD465DF8047B9B
:100DB000704700BF0038024080B483B000AF786055
:100DC000094BD3F890207B681B0CDB431A407B68EF
:100DD0009BB205491343C1F8903000BF0C37BD46A4
:100DE0005DF8047B704700BF0038024080B483B0D8
:100DF00000AF7860094BD3F890207968084B0B401E
:100E0000DB431A407B681B0404491343C1F890304C
:100E100000BF0C37BD465DF8047B704700380240C8
:100E20000000FFFF80B483B000AF7860074BD3F8B9
:100E30008C3023F0807205497B681343C1F88C30F5
:100E400000BF0C37BD465DF8047B70470038024098
:100E500080B400AF054B1B68044A43F080731360F5
:100E600000BFBD465DF8047B704700BF00380240FC
:100E700080B400AF074B1B6803F00073B3F1007F31
:100E80000CBF01230023DBB21846BD465DF8047B8E
:100E9000704700BF0038024080B485B000AFF860F2
:100EA000B9607A603B600A4B5A680A4B1340F96894
:100EB000BA6811437A68920111433A680A430449B7
:100EC00013434B6000BF1437BD465DF8047B704789
:100ED000003802400080BCFF80B485B000AF78606D
:100EE000084B1A6B07497B6813430B63054B1A6B5E
:100EF0007B681340FB60FB6800BF1437BD465DF89C
:100F0000047B70470038024080B485B000AF786041
:100F1000084B1A6C07497B6813430B64054B1A6C2A
:100F20007B681340FB60FB6800BF1437BD465DF86B
:100F3000047B70470038024080B485B000AF786011
:100F4000084B5A6C07497B6813434B64054B5A6C3A
:100F50007B681340FB60FB6800BF1437BD465DF83B
:100F6000047B70470038024080B483B000AF7860E3
:100F7000064B1B6823F00F0204497B6813430B6088
:100F800000BF0C37BD465DF8047B7047003C024053
:100F900080B400AF044B1B6803F00F031846BD4636
:100FA0005DF8047B704700BF003C024080B400AF96
:100FB000054B1B68044A43F48033136000BFBD46F1
:100FC0005DF8047B704700BF0070004080B483B0C0
:100FD00000AF7860064B1B6823F4404204497B68ED
:100FE00013430B6000BF0C37BD465DF8047B7047B0
:100FF0000070004080B400AF074B5B6803F480438F
:10100000B3F5804F0CBF01230023DBB21846BD4669
:101010005DF8047B704700BF0070004080B483B06F
:1010200000AF78607B681B6843F040027B681A6001
:1010300000BF0C37BD465DF8047B704780B483B0B9
:1010400000AF786039607B685B6823F010023B6812
:101050001A437B685A6000BF0C37BD465DF8047BBD
:10106000704780B483B000AF78607B685B6843F002
:1010700008027B685A6000BF0C37BD465DF8047BF0
:10108000704780B483B000AF78607B685B6823F002
:1010900008027B685A6000BF0C37BD465DF8047BD0
:1010A000704780B483B000AF78607B681B6823F022
:1010B00080027B681A6000BF0C37BD465DF8047B78
:1010C0007047000080B485B000AF786039603B683D
:1010D000012B28D03B68042B23D03B68102B1ED05B
:1010E0003B68402B19D03B68B3F5807F13D03B6839
:1010F000B3F5806F0DD03B68B3F5805F07D03B68D8
:10110000B3F5803F01D107230EE008230CE006234E
:101110000AE0052308E0042306E0032304E0022399
:1011200002E0012300E00023FB737B6818331946BB
:10113000FB7B0B4AD35C0B44BB60BB681A68FB7B30
:101140000849CB5C194604238B40DB431A40BB683B
:101150001A6000BF1437BD465DF8047B704700BFBE
:10116000C46B0108D06B010880B485B000AF786013
:1011700039603B68012B28D03B68042B23D03B68A7
:10118000102B1ED03B68402B19D03B68B3F5807FF5
:1011900013D03B68B3F5806F0DD03B68B3F5805F2B
:1011A00007D03B68B3F5803F01D107230EE0082349
:1011B0000CE006230AE0052308E0042306E00323ED
:1011C00004E0022302E0012300E00023FB737B68BC
:1011D00018331946FB7B0A4AD35C0B44BB60BB68DF
:1011E0001A68FB7B0749CB5C194608238B401A43DE
:1011F000BB681A6000BF1437BD465DF8047B7047BA
:10120000C46B0108D06B010880B483B000AF786074
:1012100039607B689A68064B13403A681A437B68CA
:101220009A6000BF0C37BD465DF8047B704700BF75
:10123000F8BFFEFF80B483B000AF786039607B6890
:101240005B6823F070023B681A437B685A6000BFFA
:101250000C37BD465DF8047B704780B483B000AFA7
:10126000786039607B685B6823F470023B681A43DE
:101270007B685A6000BF0C37BD465DF8047B704741
:1012800080B483B000AF78607B689B6823F08002F5
:101290007B689A6000BF0C37BD465DF8047B7047E1
:1012A00080B483B000AF78607B681B6843F00102B4
:1012B0007B681A6000BF0C37BD465DF8047B704741
:1012C00080B483B000AF786039607B681B6823F41A
:1012D000F8123B681B041A437B681A6000BF0C3786
:1012E000BD465DF8047B704780B483B000AF786082
:1012F00039607B681B6823F078723B685B051A4392
:101300007B681A6000BF0C37BD465DF8047B7047F0
:1013100080B483B000AF78607B689B6843F4804200
:101320007B689A6000BF0C37BD465DF8047B704750
:1013300080B483B000AF786039607B689B6823F429
:1013400000423B681A437B689A6000BF0C37BD4679
:101350005DF8047B704780B483B000AF78607B6831
:101360005B6823F490427B685A607B689B6823F03B
:101370002A027B689A6000BF0C37BD465DF8047B8B
:10138000704780B483B000AF78607B685B6823F4FB
:1013900090427B685A607B689B6823F022027B68DE
:1013A0009A607B689B6843F008027B689A6000BF84
:1013B0000C37BD465DF8047B704780B483B000AF46
:1013C000786039607B683A689A6100BF0C37BD4627
:1013D0005DF8047B704780B483B000AF78603960FB
:1013E0003B681A047B689A6100BF0C37BD465DF804
:1013F000047B704780B500AF4FF08050FFF784FD4D
:101400004FF48040FFF798FD0320FFF74FF9FFF7F7
:1014100071F9034600220F211846FFF7C1F9034670
:1014200019464FF0FF30FFF791F900F02DF801F069
:10143000FFF901F0A1F900F0DDFA00F04FFB00F038
:10144000D9FB00F089FC00F06FF800F003FD00F01C
:10145000E3FE00F0BBFF00F07BFD01F02DF801F092
:1014600017F900F0B5F900F063FA00F04DFE00F056
:1014700091FE01F0A9F801F0E3FE01F0F5FE01F0A4
:101480000FFF00BFFDE7000080B500AF0620FFF7AB
:101490006BFD00BFFFF77CFD0346062BFAD14FF42E
:1014A0004040FFF793FDFFF781FDFFF7E9FB00BF29
:1014B000FFF7F6FB0346012BFAD10023C0220C21D3
:1014C0004FF48000FFF7E8FCFFF7C2FC00BFFFF716
:1014D000CFFC0346012BFAD100BFFFF78BFD03467B
:1014E000002BFAD00020FFF711FC4FF4A050FFF7BB
:1014F00021FC4FF40040FFF731FC0220FFF7E4FB32
:1015000000BFFFF7F5FB0346082BFAD1054810F0A2
:101510005BF8044810F08CF80020FFF783FC00BF54
:1015200080BD00BF00C2EB0B80B592B000AF07F1E9
:101530003C0300221A605A609A6007F128030022D7
:101540001A605A609A60DA601A6107F11803002283
:101550001A605A609A60DA603B4600221A605A604C
:101560009A60DA601A615A614FF48070FFF7E4FC08
:101570000420FFF7B1FC0220FFF7AEFC01233B6023
:1015800003237B6000233B613B46194684480EF0F1
:10159000C4FD02233B6003237B6000233B613B4689
:1015A00019467F480EF0B9FD04233B6003237B609E
:1015B00000233B613B46194679480EF0AEFD0823F7
:1015C0003B6003237B6000233B613B461946744824
:1015D0000EF0A3FD10233B6003237B6000233B61DF
:1015E0003B4619466E480EF098FD20233B600323CE
:1015F0007B6000233B613B46194669480EF08DFD38
:1016000001233B6003237B6000233B613B4619467B
:1016100064480EF082FD02233B6003237B600023BD
:101620003B613B4619465F480EF077FD00220021E2
:101630005D48FFF779FA002200215B48FFF778F94F
:10164000002200215848FFF74BFA4FF48072002126
:101650005548FFF791F9002200215348FFF7B0F9F0
:101660004FF4806200215048FFF7CEF94FF400623A
:1016700000214D48FFF7ECF94FF4005200214A4891
:10168000FFF70AFA00214848FFF772FA0023FB63CC
:1016900000233B644FF480737B6407F13C031946DD
:1016A00042480EF0C1FB0023BB624FF4E003FB6233
:1016B00000233B6300237B634FF44073BB6307F15C
:1016C0002803194639480EF0DBFB00213748FFF7A5
:1016D000D0F84FF48033BB610023FB6107F118039E
:1016E000194633480EF058FB0A224FF400712F4878
:1016F000FFF789F801220A212C48FFF7CDF82D4A7F
:1017000040F205212948FFF77EF8012229492748A0
:10171000FFF7C2F8284A40F20A212448FFF773F87D
:10172000012225492148FFF7B7F8244A40F20F214A
:101730001E48FFF768F8012220491C48FFF7ACF863
:101740001F4A4FF405711948FFF75DF801221C4943
:101750001648FFF7A1F81B4A40F219211348FFF77A
:1017600052F8012217491148FFF796F8164A4FF42C
:1017700080710E48FFF747F8012213490B48FFF725
:101780008BF8124A40F205110848FFF73CF8012295
:101790000E490648FFF780F800BF4837BD4680BDB8
:1017A00000080240000402400064024000200140A2
:1017B000002301400B0030000C0060000D00900081
:1017C0000E00C0000F00F000080080030900B00305
:1017D00080B58EB000AF07F12C0300221A605A606A
:1017E0009A6007F1180300221A605A609A60DA6062
:1017F0001A613B4600221A605A609A60DA601A61E8
:101800005A614FF40070FFF797FB0120FFF764FB6C
:1018100004233B6003237B6000233B613B46194666
:101820003E480EF07AFC08233B6003237B600023D4
:101830003B613B46194639480EF06FFC4FF0007291
:1018400002213748FFF770F9002202213448FFF7E0
:101850006FF8002202213248FFF742F94FF48072FC
:1018600002212F48FFF788F8002202212C48FFF7B9
:10187000A7F84FF4806202212948FFF7C5F84FF41A
:10188000006202212648FFF7E3F84FF400520221DC
:101890002348FFF701F902212148FFF769F90023E6
:1018A000FB6200233B634FF480737B6307F12C03DF
:1018B00019461C480EF0B8FA0023BB614FF48013A0
:1018C000FB6100233B6200237B624FF44073BB62E9
:1018D00007F11803194613480EF0D2FA4FF480614D
:1018E0001048FEF7C6FF104A4FF400710D48FEF78E
:1018F0008AFF01220C490B48FEF7CEFF0B4A40F24B
:1019000005210848FEF77FFF012208490548FEF738
:10191000C3FF00BF3837BD4680BD00BF0000024096
:1019200000640240002101400300900202006002B6
:1019300080B58EB000AF07F12C0300221A605A6008
:101940009A6007F1180300221A605A609A60DA6000
:101950001A613B4600221A605A609A60DA601A6186
:101960005A614FF48060FFF7E7FA0120FFF7B4FAFD
:1019700002233B6003237B6000233B613B46194607
:1019800019480EF0CAFB0023FB6200233B630023CF
:101990007B6307F12C03194614480EF045FA002327
:1019A000BB610023FB6100233B6200237B620023B9
:1019B000BB6207F1180319460C480EF061FA4FF4A8
:1019C00080610A48FEF755FF094A4FF40071074845
:1019D000FEF719FF002206490448FEF75DFF00BF2D
:1019E0003837BD4680BD00BF0000024000220140E4
:1019F0000100300280B58EB000AF07F11C03002259
:101A00001A605A609A60DA601A615A619A613B1DE5
:101A100000221A605A609A60DA601A615A614FF4C3
:101A20004030FFF7E3F90220FFF756FA40237B60CE
:101A30000223BB600323FB6001233B6100237B6126
:101A40000423BB613B1D194621480EF066FB802331
:101A50007B600223BB600323FB6001233B61002307
:101A60007B610423BB613B1D194619480EF055FBF1
:101A70004FF40010FFF748FA1648FFF7F1F800227C
:101A800000211448FFF7C4F81248FFF7D9F81148AD
:101A9000FFF7AEF80F48FFF79BF80023FB610E4BF2
:101AA0003B6200237B620023BB620023FB620023B6
:101AB0003B6300237B6307F11C03194605480EF0C6
:101AC00043FC0448FFF774F800BF3837BD4680BDBB
:101AD0000004024000540040FF63106080B590B0E5
:101AE00000AF07F1180328220021184610F010FD5E
:101AF0003B4600221A605A609A60DA601A615A61A5
:101B00004FF48050FFF718FA0120FFF7E5F9102392
:101B10003B6002237B600323BB600023FB60002348
:101B20003B6105237B613B46194630480EF0F5FAD0
:101B300020233B6002237B600323BB600023FB6008
:101B400000233B6105237B613B46194627480EF085
:101B5000E4FA40233B6002237B600323BB60002345
:101B6000FB6000233B6105237B613B4619461F4810
:101B70000EF0D3FA80233B6002237B600323BB601B
:101B80000023FB6000233B6105237B613B46194634
:101B900016480EF0C2FA0023BB614FF48273FB615A
:101BA0004FF4E0633B6200237B620023BB620023AF
:101BB000FB6200233B6300237B630023BB6307239B
:101BC000FB6307F11803194609480EF095FF002141
:101BD0000748FFF733FA0648FFF743FA0448FFF7D0
:101BE0001DFA00BF4037BD4680BD00BF0000024067
:101BF0000030014080B590B000AF07F118032822F3
:101C00000021184610F084FC3B4600221A605A60FE
:101C10009A60DA601A615A614FF48040FFF774F9F4
:101C20000220FFF759F94FF400533B6002237B6019
:101C30000323BB600023FB6000233B6105237B6122
:101C40003B46194641480EF068FA4FF480433B602A
:101C500002237B600323BB600023FB6000233B6106
:101C600005237B613B46194638480EF056FA4FF47F
:101C700000433B6002237B600323BB600023FB60C7
:101C800000233B6105237B613B4619462F480EF03C
:101C900044FA4FF0905201212D48FEF745FF0022F3
:101CA00001212B48FEF744FE4FF440320121284821
:101CB000FEF716FF4FF4807201212548FEF75CFE07
:101CC000002201212248FEF77BFE4FF480620121B1
:101CD0001F48FEF799FE4FF4006201211C48FEF7F1
:101CE000B7FE4FF4005201211948FEF7D5FE01213D
:101CF0001748FEF73DFF0023BB614FF48273FB6181
:101D00004FF470633B6200237B620023BB624FF49D
:101D10000073FB6200233B6300237B630023BB63F0
:101D20000723FB6307F1180319460A480EF0E4FE87
:101D300000210848FFF782F90648FFF792F90548A5
:101D4000FFF76CF900BF4037BD4680BD000402407C
:101D5000006002400038004080B590B000AF07F14D
:101D6000180328220021184610F0D2FB3B4600221F
:101D70001A605A609A60DA601A615A614FF4004042
:101D8000FFF7C2F80420FFF7A7F84FF480633B6029
:101D900002237B600323BB600023FB6000233B61C5
:101DA00006237B613B46194628480EF0B6F94FF4EE
:101DB00000633B6002237B600323BB600023FB6066
:101DC00000233B6106237B613B4619461F480EF00A
:101DD000A4F94FF480533B6002237B600323BB6074
:101DE0000023FB6000233B6106237B613B461946D1
:101DF00016480EF092F90023BB614FF48273FB6129
:101E00004FF4E0633B6200237B620023BB624FF42C
:101E10000073FB6200233B6300237B630023BB63EF
:101E20000723FB6307F11803194609480EF064FE07
:101E300000210748FFF702F90548FFF712F90448A7
:101E4000FFF7ECF800BF4037BD4680BD00080240F8
:101E5000003C004080B590B000AF07F11803282285
:101E60000021184610F054FB3B4600221A605A60CD
:101E70009A60DA601A615A614FF40050FFF75CF81B
:101E80001020FFF729F84FF480533B6002237B605A
:101E90000323BB600023FB6000233B6105237B61C0
:101EA0003B46194628480EF038F94FF400533B6082
:101EB00002237B600323BB600023FB6000233B61A4
:101EC00005237B613B4619461F480EF026F94FF467
:101ED00080433B6002237B600323BB600023FB60E5
:101EE00000233B6105237B613B46194616480EF0F3
:101EF00014F90023BB614FF48273FB614FF4E0637C
:101F00003B6200237B620123BB624FF40073FB62E0
:101F100020233B6300237B630023BB630723FB6316
:101F200007F11803194609480EF0E6FD002107489D
:101F3000FFF784F80548FFF7A4F80448FFF76EF8A8
:101F400000BF4037BD4680BD001002400034014054
:101F500080B590B000AF07F1180328220021184681
:101F600010F0D6FA3B4600221A605A609A60DA6096
:101F70001A615A614FF40010FEF7DEFF0220FEF7EF
:101F8000ABFF08233B6002237B600323BB6000237D
:101F9000FB6000233B6108237B613B4619465748A1
:101FA0000EF0BBF810233B6002237B600323BB6071
:101FB0000023FB6000233B6108237B613B461946FD
:101FC0004E480EF0AAF820233B6002237B600323D7
:101FD000BB600023FB6000233B6108237B613B4621
:101FE000194646480EF099F84FF000720521444812
:101FF000FEF79AFD402205214148FEF799FC4FF477
:10200000403205213E48FEF76BFD002205213C4889
:10201000FEF7B2FC002205213948FEF7D1FC4FF44F
:10202000806205213648FEF7EFFC00220521344886
:10203000FEF70EFD002205213148FEF72DFD05219A
:102040002F48FEF795FD4FF0007206212C48FEF751
:102050006BFD002206212A48FEF76AFC4FF440324D
:1020600006212748FEF73CFD002206212448FEF702
:1020700083FC002206212248FEF7A2FC4FF4806276
:1020800006211F48FEF7C0FC002206211C48FEF76F
:10209000DFFC002206211A48FEF7FEFC0621184844
:1020A000FEF766FD0023BB614FF48273FB614FF4C2
:1020B000E0633B6200237B620023BB624FF400734A
:1020C000FB6200233B6300237B630023BB63072386
:1020D000FB6307F1180319460A480EF00DFD0021B5
:1020E0000848FEF7ABFF0748FEF7BBFF0548FEF7C1
:1020F00095FF00BF4037BD4680BD00BF00040240D1
:10210000006402400054014080B586B000AF3B1D22
:1021100000221A605A609A60DA601A610120FEF7A4
:102120000BFFFEF7E7FA0346002200211846FEF7F0
:1021300037FB034619461920FEF708FB1920FEF766
:10214000E7FA0023BB800023BB604FF6FF73FB6000
:1021500000233B6100237B613B1D19460C480EF0B8
:10216000BFFD0B48FEF79DFF00210948FFF74CF823
:1021700000210748FFF75EF800210548FFF76DF8DA
:102180000348FFF77DF800BF1837BD4680BD00BF8C
:102190000000014080B586B000AF3B1D00221A60F0
:1021A0005A609A60DA601A610120FEF7ADFEFEF710
:1021B000A1FA0346002202211846FEF7F1FA03466F
:1021C00019461C20FEF7C2FA1C20FEF7A1FA0023D4
:1021D000BB800023BB604FF0FF33FB6000233B61FB
:1021E0003B1D19464FF080400EF07AFD4FF08040C5
:1021F000FEF757FF00214FF08040FFF705F8002160
:102200004FF08040FFF716F84FF08040FFF738F8A6
:1022100000BF1837BD4680BD80B594B000AF07F150
:102220003C0300221A605A609A60DA601A6107F172
:102230001C0320220021184610F06AF93B1D0022E1
:102240001A605A609A60DA601A615A610420FEF7D7
:102250005BFE0A23BB8700233B644CF250337B6454
:102260004FF40073BB6407F13C03194655480EF068
:1022700037FD5448FEF715FF00215248FEF7C4FF12
:1022800001215048FEF770FF6023FB6100233B6291
:1022900000237B620023BB620023FB6207F11C0367
:1022A0001A46012147480EF0B5FD01214548FEF7C9
:1022B00009FF10214348FEF757FF07F11C031A4698
:1022C000102140480EF0A6FD10213E48FEF7FAFE10
:1022D0004FF480713B48FEF747FF07F11C031A4695
:1022E0004FF4807137480EF095FD4FF480713548FA
:1022F000FEF7E8FE4FF480513248FEF735FF07F154
:102300001C031A464FF480512E480EF083FD4FF403
:1023100080512C48FEF7D6FE00212A48FEF78AFF9E
:102320002848FEF7ADFF0820FEF7D6FD4FF4805396
:102330007B600223BB600023FB6000233B61002322
:102340007B610223BB613B1D19461F480DF0E5FE72
:102350004FF400537B600223BB600023FB6000232B
:102360003B6100237B610223BB613B1D194616487C
:102370000DF0D3FE4FF480437B600223BB6000234B
:10238000FB6000233B6100237B610223BB613B1D9B
:1023900019460D480DF0C1FE4FF400437B60022347
:1023A000BB600023FB6000233B6100237B610223B1
:1023B000BB613B1D194604480DF0AFFE00BF50370E
:1023C000BD4680BD00080040000C024080B58EB0C4
:1023D00000AF07F11C0300221A605A609A60DA60AD
:1023E0001A615A619A613B1D00221A605A609A6014
:1023F000DA601A615A614FF04050FEF7DDFC4FF091
:102400008040FEF781FD1020FEF766FD80237B6093
:102410000223BB600323FB6000233B6101237B613C
:102420000823BB613B1D194621480DF076FE4FF491
:1024300080737B600223BB600323FB6000233B614E
:1024400000237B610823BB613B1D194618480DF032
:1024500064FEFEF74FF9034600220B211846FEF7F3
:102460009FF9034619465220FEF770F95220FEF7F5
:102470004FF94FF4E133FB6100233B6200237B62A1
:102480000023BB620C23FB6200233B6300237B63BE
:1024900007F11C03194607480EF0DCFF0548FEF75C
:1024A0005AFF0448FEF7FCFE00BF3837BD4680BD2A
:1024B000001002400078004080B58EB000AF07F1F8
:1024C0001C0300221A605A609A60DA601A615A612D
:1024D0009A613B1D00221A605A609A60DA601A61A4
:1024E0005A614FF44030FEF74DFC1020FEF724FDFA
:1024F0000120FEF7F1FC4FF400737B600223BB6008
:102500000323FB6000233B6100237B610723BB6146
:102510003B1D19462A480DF000FE4FF480637B6096
:102520000223BB600323FB6000233B6100237B612C
:102530000723BB613B1D194621480DF0EEFD4FF40A
:1025400080537B600223BB600323FB6000233B615D
:1025500000237B610723BB613B1D194618480DF022
:10256000DCFD4FF4E133FB6100233B6200237B621F
:102570000023BB620C23FB6200233B6300237B63CD
:1025800007F11C0319460F480EF064FF0D48FEF7D3
:10259000BFFE00210B48FEF7CBFE00210948FEF7E5
:1025A000A3FE00210748FEF78BFE0648FEF7D3FE88
:1025B0000448FEF775FE00BF3837BD4680BD00BF3A
:1025C000000002400010014080B58EB000AF07F15E
:1025D0001C0300221A605A609A60DA601A615A611C
:1025E0009A613B1D00221A605A609A60DA601A6193
:1025F0005A614FF44010FEF7C5FB4FF48020FEF700
:1026000083FC0220FEF768FC4FF480637B600223AA
:10261000BB600323FB6001233B6100237B61072335
:10262000BB613B1D194618480DF077FDFEF762F8B7
:102630000346002200211846FEF7B2F80346194669
:102640002720FEF783F82720FEF762F84FF4E133E6
:10265000FB6100233B6200237B620023BB620823F3
:10266000FB6200237B6307F11C03194607480EF049
:10267000F1FE0648FEF785FE0448FEF711FE00BF96
:102680003837BD4680BD00BF00040240004800400E
:1026900080B58EB000AF07F11C0300221A605A60AB
:1026A0009A60DA601A615A619A613B1D00221A60D1
:1026B0005A609A60DA601A615A614FF04060FEF722
:1026C00061FB2020FEF738FC0420FEF705FC4023C8
:1026D0007B600223BB600323FB6000233B6100237C
:1026E0007B610823BB613B1D194621480DF015FD98
:1026F00080237B600223BB600323FB6000233B61DC
:1027000000237B610823BB613B1D194618480DF06F
:1027100004FDFDF7EFFF034600220B211846FEF7EC
:102720003FF8034619464720FEF710F84720FDF70B
:10273000EFFF4FF4E133FB6100233B6200237B6238
:102740000023BB620C23FB6200233B6300237B63FB
:1027500007F11C03194607480EF07CFE0548FEF7FA
:10276000FAFD0448FEF79CFD00BF3837BD4680BD2A
:10277000000802400014014080B500AF4FF4800013
:10278000FEF7AAFB4FF40010FEF7A6FBFDF7B2FF21
:102790000346002200211846FEF702F803461946B8
:1027A0000C20FDF7D3FF0C20FDF7B2FFFDF7A2FFD1
:1027B000034600220A211846FDF7F2FF0346194698
:1027C0003820FDF7C3FF3820FDF7A2FFFDF792FF89
:1027D000034600220A211846FDF7E2FF0346194688
:1027E0003A20FDF7B3FF3A20FDF792FFFDF782FF95
:1027F0000346002209211846FDF7D2FF0346194679
:102800004420FDF7A3FF4420FDF782FFFDF772FF90
:102810000346002201211846FDF7C2FF0346194670
:102820004520FDF793FF4520FDF772FF00BF80BDF7
:1028300080B586B000AF3B4600221A605A609A60AD
:10284000DA601A615A611020FEF746FB0420FEF799
:1028500043FB8020FEF740FB0120FEF73DFB0220FA
:10286000FEF73AFB0820FEF737FB0421BE48FEF7CF
:10287000B2FD0821BC48FEF7AEFD1021BA48FEF7B4
:10288000AAFD2021B848FEF7A6FD4021B648FEF774
:10289000A2FD4FF40051B548FEF79DFD4FF4804175
:1028A000B248FEF798FD4FF40041B048FEF793FDA3
:1028B0004FF40061AC48FEF78EFD4FF40061AC4868
:1028C000FEF789FD4FF40061AA48FEF784FD4FF43E
:1028D0000041A848FEF77FFD0121A748FEF77BFDD8
:1028E0000221A548FEF777FD1021A348FEF773FDEE
:1028F0002021A148FEF76FFD40219F48FEF76BFDA8
:1029000004219B48FEF759FD4FF480619648FEF77D
:1029100054FD4FF400419448FEF74FFD4FF48051B1
:102920009348FEF74AFD4FF480719348FEF745FD4A
:102930004FF400719048FEF740FD4FF480618E48DF
:10294000FEF73BFD04218C48FEF737FD80218A48C5
:10295000FEF733FD4FF480718548FEF72EFD4FF4EE
:1029600000718348FEF729FD01217F48FEF725FD10
:1029700002217D48FEF721FD04233B6001237B609B
:102980000023BB600023FB6000233B613B461946EC
:1029900075480DF0C2FB08233B6001237B600023D8
:1029A000BB600023FB6000233B613B4619466E4839
:1029B0000DF0B3FB10233B6001237B600023BB6061
:1029C0000023FB6000233B613B46194666480DF03F
:1029D000A4FB20233B6001237B600023BB6000231A
:1029E000FB6000233B613B4619465F480DF095FBB9
:1029F00040233B6001237B600023BB600023FB601E
:102A000000233B613B46194657480DF086FB4FF4C7
:102A100000533B6001237B600023BB600023FB600D
:102A200000233B613B46194650480DF076FB4FF4BE
:102A300080433B6001237B600023BB600023FB607D
:102A400000233B613B46194648480DF066FB4FF4B6
:102A500000433B6001237B600023BB600023FB60DD
:102A600000233B613B46194640480DF056FB0423CA
:102A70003B6001237B600023BB600023FB600023DD
:102A80003B613B4619463A480DF047FB4FF48063E3
:102A90003B6001237B600023BB600023FB600023BD
:102AA0003B613B46194630480DF037FB4FF400635D
:102AB0003B6001237B600023BB600023FB6000239D
:102AC0003B613B46194628480DF027FB4FF4004375
:102AD0003B6001237B600023BB600023FB6000237D
:102AE0003B613B46194620480DF017FB4FF400634D
:102AF0003B6001237B600023BB600023FB6000235D
:102B00003B613B4619461A480DF007FB4FF48053D2
:102B10003B6001237B600023BB600023FB6000233C
:102B20003B613B46194612480DF0F7FA4FF48073AB
:102B30003B6001237B600323BB600023FB60002319
:102B40003B613B4619460C480DF0E7FA4FF4007321
:102B50003B6001237B600323BB600023FB600023F9
:102B60003B613B46194609E0001002400008024064
:102B70000004024000000240000C02408C480DF0AE
:102B8000CCFA4FF480633B6001237B600323BB607E
:102B90000023FB6000233B613B46194684480DF04F
:102BA000BCFA4FF400633B6000237B6000233B6171
:102BB0003B4619467E480DF0B0FA4FF480733B60F7
:102BC00000237B6000233B613B46194679480DF0AA
:102BD000A4FA4FF400733B6000237B6000233B6149
:102BE0003B46194673480DF098FA4FF480733B60EA
:102BF00000237B6000233B613B4619466E480DF085
:102C00008CFA4FF400633B6001237B600023BB60C0
:102C10000023FB6000233B613B46194666480DF0EC
:102C20007CFA4FF400433B6001237B600023BB60D0
:102C30000023FB6000233B613B4619465E480DF0D4
:102C40006CFA01233B6001237B600023BB600023FF
:102C5000FB6000233B613B46194655480DF05DFA89
:102C600002233B6001237B600023BB600023FB60E9
:102C700000233B613B4619464D480DF04EFA0423B4
:102C80003B6001237B600023BB600023FB600023CB
:102C90003B613B46194646480DF03FFA08233B602E
:102CA00000237B6000233B613B46194640480DF002
:102CB00034FA10233B6001237B600023BB600023B8
:102CC000FB6000233B613B46194639480DF025FA6D
:102CD00020233B6001237B600023BB600023FB605B
:102CE00000233B613B46194631480DF016FA40235C
:102CF0003B6001237B600023BB600023FB6000235B
:102D00003B613B4619462A480DF007FA80233B6099
:102D100001237B600023BB600023FB6000233B6139
:102D20003B46194622480DF0F8F94FF480733B609A
:102D300001237B600023BB600023FB6000233B6119
:102D40003B4619461D480DF0E8F94FF400733B600F
:102D500001237B600023BB600023FB6000233B61F9
:102D60003B46194615480DF0D8F901233B60012375
:102D70007B600023BB600023FB6000233B613B467C
:102D800019460F480DF0C9F902233B6001237B600F
:102D90000023BB600023FB6000233B613B461946D8
:102DA00007480DF0BAF900BF1837BD4680BD00BF17
:102DB000000C0240000802400000024000040240F3
:102DC0000010024080B400AF00BFFDE780B400AF48
:102DD00000BFFDE780B400AF00BFFDE780B400AFE7
:102DE00000BFFDE780B400AF00BFFDE780B400AFD7
:102DF00000BFBD465DF8047B704780B400AF00BFE4
:102E0000BD465DF8047B704780B400AF00BFBD468F
:102E10005DF8047B704780B500AF0CF03DFF00BF4C
:102E200080BD80B400AF01231846BD465DF8047B29
:102E3000704780B582B000AF786039600FF0C8FB92
:102E4000034616221A604FF0FF3318460837BD4676
:102E500080BD80B582B000AF78604FF0FF317868F8
:102E6000FFF7E7FF00BFFDE780B586B000AFF86071
:102E7000B9607A6000237B610AE0AFF3008001460D
:102E8000BB685A1CBA60CAB21A707B6901337B6195
:102E90007A697B689A42F0DB7B6818461837BD4632
:102EA00080BD80B586B000AFF860B9607A6000235D
:102EB0007B6109E0BB685A1CBA601B781846AFF307
:102EC00000807B6901337B617A697B689A42F1DB20
:102ED0007B6818461837BD4680BD80B483B000AF0C
:102EE00078604FF0FF3318460C37BD465DF8047B21
:102EF000704780B483B000AF786039603B684FF4AE
:102F000000525A60002318460C37BD465DF8047B1A
:102F1000704780B483B000AF7860012318460C3747
:102F2000BD465DF8047B704780B485B000AFF860A3
:102F3000B9607A60002318461437BD465DF8047BFB
:102F40007047000080B586B000AF7860144A154B1A
:102F5000D31A7B617B693B61134B1B68002B02D149
:102F6000114B124A1A60104B1A687B6813443A6975
:102F70009A4207D20FF02CFB03460C221A604FF046
:102F8000FF3309E0084B1B68FB60074B1A687B683E
:102F90001344054A1360FB6818461837BD4680BDC8
:102FA0000000082000040000D4830020B0DD0120D0
:102FB00080B400AF064BD3F88830054A43F4700361
:102FC000C2F8883000BFBD465DF8047B704700BF83
:102FD00000ED00E0DFF834D0FFF7EAFF0C480D49C0
:102FE0000D4A002302E0D458C4500433C4188C4264
:102FF000F9D30A4A0A4C002301E013600432A242CA
:10300000FBD30FF0EBFAFEF7F5F97047000008204C
:1030100000000020B883002038780108B883002021
:10302000ACDD0120FEE780B582B000AF786039608A
:1030300006F05CFA06F052F97B6814330A220A2182
:1030400018460CF0E5FD00BF0837BD4680BD000006
:1030500080B584B002AF786039607B68002B03D103
:103060000021104805F044FD78683B685A683B68C9
:103070009B68009313460C4A0C490CF03BFD7B689F
:1030800014337A68162118460CF0A0FD3B681A68C4
:103090007B685A627B6800221A8700BF0837BD46EA
:1030A00080BD00BFF46B010815310008273000080F
:1030B00080B586B002AF0223009304230822094999
:1030C00009480CF0F8F8094A3B1D07CA83E80700D5
:1030D0003B1D19460648FFF7BBFF00BF1037BD4632
:1030E00080BD00BF1884002020840020A044010877
:1030F000D883002080B582B000AF0346FB71FB7916
:10310000194603480CF010FD00BF0837BD4680BDCE
:10311000D883002090B585B000AF786039603B68F7
:103120001B88162B06D0162B27DC142B08D0152B4A
:103130001DD022E006F0E4F906F04EF901231DE06F
:103140000023FB730EE0FB7BFC7B184606F0DEF9E8
:10315000034619467B6804F1140223F81210FB7B26
:103160000133FB73FB7B072BEDD9012306E006F04F
:103170009DF803461AB27B685A8702231846143713
:10318000BD4690BD80B483B000AF7860054A7B68CF
:103190001C3332F9133018460C37BD465DF8047BFA
:1031A000704700BFD883002080B487B000AFF860BC
:1031B000B96011461A460B46FB801346BB80164A7F
:1031C000FB68143332F91330BB82134ABB681433E3
:1031D00032F91330FB82B7F91430B7F904209A4260
:1031E00010DCB7F91430B7F906209A420ADBB7F9B8
:1031F00014301A46B7F91630D31A002BB8BF5B4209
:10320000322B01DD012300E0002318461C37BD46A8
:103210005DF8047B704700BFD883002080B483B082
:1032200000AF7860054A7B68143332F913301846D2
:103230000C37BD465DF8047B704700BFD883002083
:1032400080B500AF03F0AEFD04F032FCFFF730FFB5
:1032500000F0AAF802F0F8F800F076FE04F094F915
:1032600004F0CEFA00BF80BD80B500AF012000F0B1
:10327000BDF8042003F0C8FD022004F03FFC032049
:10328000FFF738FF052002F001F9062004F0B8F935
:10329000072000F07FFE0A2004F0EAFA00BF80BD9C
:1032A00080B500AF0CF0D8FB00BF80BD80B582B008
:1032B00000AF7860396005F03BFF06F04DFF06F087
:1032C000FBFB7B68012283F861207B68002283F886
:1032D000662000BF0837BD4680BD000080B584B0C1
:1032E00000AF786039607B685B69FB607B685B6915
:1032F0003968786898470346FB72FB7A002B08D13F
:10330000FB680649786898477B685B690449786878
:10331000984700BF1037BD4680BD00BF246C010830
:10332000106C010880B584B002AF786039607B68AA
:10333000002B03D10021194805F0DAFB78683B68BF
:103340005A683B689B6800931346154A15490CF070
:10335000D1FB3B681A687B685A617B6818337A68CE
:10336000172118460CF032FC7B6828337A6820213C
:1033700018460CF02BFC7B68283318460CF068FCD0
:103380007B68183318460CF063FC3B681A7B7B683B
:1033900083F85C2000BF0837BD4680BD006C010883
:1033A000DD320008AD32000890B587B002AF1223BD
:1033B000009302232422094909480BF07CFF094BA2
:1033C0003C460FCB84E80F003B4619460648FFF702
:1033D000A9FF00BF1437BD4690BD00BFD82401200F
:1033E000FC240120AC4401083C84002080B582B05C
:1033F00000AF0346FB71FB79194603480CF094FBC0
:1034000000BF0837BD4680BD3C84002080B582B037
:1034100000AF786039603B681B88192B12D0192BDC
:1034200015DC012B02D0182B07D010E07B68183375
:1034300018460CF00DFC01230AE07B68064A5A612D
:10344000002305E07B68054A5A61002300E002235F
:1034500018460837BD4680BD61340008A136000813
:1034600090B58DB002AF786039603B681B88013B36
:103470001F2B00F2FF8001A252F823F0FD34000858
:103480007536000893350008753600087536000853
:103490007536000875360008753600087536000860
:1034A0007536000875360008753600087536000850
:1034B0007536000875360008753600087536000840
:1034C0007536000875360008753600087536000830
:1034D000753600082936000875360008753600086C
:1034E000AB350008CB350008EB3500087536000811
:1034F00075360008753600083B360008604B3B62A5
:103500008D2300935F4B3A6A5F4960480BF049FE98
:103510007B681833002244F6206118460CF078FBD3
:103520007B6893F83C301946786800F07AFA78683E
:1035300000F090FA7B68DB8FFB607B68B3F840306B
:103540003B617B68B3F842307B617B689B6BBB61FE
:103550007B6893F83C30FB617B6893F83D301846FC
:1035600005F050FE07F10C03184606F06DFA7B6873
:1035700028330122012118460CF04AFB444B00225B
:103580001A8006F04DFC7B68002283F85C20012342
:1035900071E07B68183318460CF05AFB7B682833BF
:1035A00018460CF055FB012365E07B6893F85C300E
:1035B000002B04D17B68012283F85C2003E07B6848
:1035C000032283F85C20012355E07B6893F85C308C
:1035D000012B04D17B68022283F85C2003E07B6826
:1035E000032283F85C20012345E07B6893F85C307C
:1035F000022B04D17B68052283F85C2003E07B6802
:10360000032283F85C201E4B7B62CA2300931D4B70
:103610007A6A20491D480BF0C4FD00F0D9FD7B6893
:103620001D4A5A61002326E07B68042283F85C204F
:103630007B68194A5A6100231DE0154B1B88B3F5BE
:10364000804F10D2124B1B885A1C91B2104A118025
:103650001C4605F037FE03461A46104B23F814208B
:1036600005F0C4FE04E07B68283318460CF0F0FA3D
:10367000012300E0022318462C37BD4690BD00BF51
:10368000BC440108C4440108EC440108682C012032
:10369000C02401200C4501080D340008C0A40020FE
:1036A00080B582B000AF786039603B681B88013B11
:1036B0001E2B00F2AA8001A252F823F0393700082D
:1036C0000B3800080B3800080B3800080B380008CE
:1036D0000B3800080B3800080B3800080B380008BE
:1036E0000B3800080B3800080B3800080B380008AE
:1036F0000B3800080B3800080B3800080B3800089E
:103700000B3800080B3800080B3800080B3800088D
:103710000B3800080B3800080B3800080B3800087D
:103720000B3800080B3800080B3800088D370008EC
:10373000A73700085F3700087B68183318460CF07D
:1037400087FA7B685B6D334A93607B681B6D314AF7
:103750005360314931480CF011FA012356E02D4BEA
:103760009B68B3F5805F28BF4FF480539AB22C4B0F
:103770001A80284B5B685B00294A12885200114668
:10378000284A184606F03EFD01233FE0264B186804
:10379000234B1B881A467B6893F85930214903F064
:1037A000A3FE012332E01B4B9B681D4A12889B1A23
:1037B000184A9360174B5B68194A12881344154ADC
:1037C0005360144B9B68002B16D0124B9B68B3F5CB
:1037D000805F28BF4FF480539AB2114B1A800D4B73
:1037E0005B685B000E4A1288520011460D4A18466B
:1037F00006F008FD012309E00C4908480CF0BEF969
:103800007B680B4A5A61002300E002231846083700
:10381000BD4680BDAC840020606C0108C82B01202F
:10382000BCA40020BC84002004000020646C0108BB
:103830000D34000880B584B000AFF860B9607A60DC
:10384000FB70FB687A68DA64FB68BA681A65FB6823
:103850007A685A65FB68FA7883F85920074B1B6829
:103860004FF6FF72A3F84220FB68054918460CF09A
:1038700085F9002318461037BD4680BD040000209E
:103880004C6C010880B582B000AF78607B689A6E9E
:103890007B68DA647B6800221A657B689A6E7B68B5
:1038A0005A657B68012283F85920084B1B684FF644
:1038B000FF72A3F842207B68054918460CF05EF9B8
:1038C000002318460837BD4680BD00BF0400002015
:1038D0004C6C010880B584B000AFF860B9607A60C4
:1038E000BB68012B02D87B68642B01D9062318E042
:1038F000FB6893F86130002B06D0002005F0D4FB64
:10390000FB68002283F861207968B86805F0BAFC8A
:103910007B68D9B2FA68BB6813445D330A461A70F3
:10392000002318461037BD4680BD80B582B000AF79
:10393000786039603B68242B01D9062314E07B684A
:1039400093F86130012B06D0012005F0ADFB7B68B8
:10395000012283F86120386805F020FC3B68DAB268
:103960007B6883F85F20002318460837BD4680BD7A
:1039700080B582B000AF78607B6893F86130012B2E
:1039800006D0012005F090FB7B68012283F86120BE
:1039900005F014FC7B68FF2283F85F2000231846A3
:1039A0000837BD4680BD80B582B000AF7860396011
:1039B0003B68082B01D9062314E07B6893F861303B
:1039C000012B06D0012005F06FFB7B68012283F8F4
:1039D0006120386805F0FCFB3B68DAB27B6883F84D
:1039E0006020002318460837BD4680BD80B582B0F0
:1039F00000AF78607B6893F86130012B06D001201E
:103A000005F052FB7B68012283F8612005F0F0FB92
:103A10007B68FF2283F86020002318460837BD46E4
:103A200080BD80B582B000AF786039603B68242BE0
:103A300001D906230AE006F0CFF8386806F0F4F85A
:103A40003B68DAB27B6883F86220002318460837A7
:103A5000BD4680BD80B582B000AF786006F0D0F87A
:103A6000002318460837BD4680BD000080B483B0EF
:103A700000AF786039603B681B68002B04D03B685E
:103A80001B68164A934201D9062321E03B68DB6894
:103A9000B3F5006F01D906231AE03B681A687B680A
:103AA0009A633B68DA887B68DA873B681A897B68A7
:103AB000A3F840203B685A897B68A3F842203B6802
:103AC000DA687B685A643B681A697B689A640023E9
:103AD00018460C37BD465DF8047B704700350C0076
:103AE00080B483B000AF786039603B685B79642B49
:103AF00001D9062305E03B685A797B6883F83D20AD
:103B0000002318460C37BD465DF8047B704780B42F
:103B100083B000AF786039603B681B79002B03D01D
:103B20003B681B79242B01D9062305E03B681A79F1
:103B30007B6883F83C20002318460C37BD465DF8AF
:103B4000047B7047B0B483B000AF786039603B68E5
:103B50001B68002B04D03B681B68184A934201D9AC
:103B6000062326E03B681B79002B03D03B681B79BA
:103B7000242B01D906231CE03B685B79642B01D917
:103B8000062316E03B68DB68B3F5006F01D9062316
:103B90000FE03B681B69002B01D1062309E07B681D
:103BA0003A6803F1380415460FCD0FC42B68236023
:103BB000002318460C37BD46B0BC704700350C00DA
:103BC000B0B483B000AF786039603A687B6815465E
:103BD00003F138040FCC0FC523682B6000BF0C37EE
:103BE000BD46B0BC7047000080B584B000AF7860BF
:103BF0007B683833FB60FB681B68002B04D0FB68D4
:103C00001B68134A934201D906231CE0FB681B7909
:103C1000002B03D0FB681B79242B01D9062312E06B
:103C2000FB685B79642B01D906230CE0FB68DB6839
:103C3000B3F5006F01D9062305E07B6805491846F6
:103C40000BF09CFF002318461037BD4680BD00BF17
:103C500000350C00386C010880B582B000AF786088
:103C60000B46FB707B68FA78114618460BF0B2F8E9
:103C70007B68012118460AF055FD00F00BFA024658
:103C80007B68C3F804227B68002283F80C227B68DF
:103C9000012283F80D22FB78032B04D8FB7804491A
:103CA0007A6841F8232000BF0837BD4680BD00BFB9
:103CB0005C27012080B582B000AF78607A687B68AD
:103CC00093F80032194610460BF084F87B68012106
:103CD00018460AF027FD00F0DDF902467B68C3F8BC
:103CE00004227B68002283F80C2200BF0837BD46FF
:103CF00080BD80B483B000AF786039607B683A687B
:103D0000C3F8082200BF0C37BD465DF8047B70473E
:103D100080B586B000AFF860B9607A60FB687A68F9
:103D2000B96818460AF0B6FF00F0B4F97861FB688C
:103D300093F8E230002B35D0FB6893F8E4301A4654
:103D400013465B0013449B00FA6813443B613B69D4
:103D50001B687A69D31A40F6B83293421ED9FB68C1
:103D600093F80C3283F00103DBB2002B1AD0FB680E
:103D7000D3F80832002B04D0FB68D3F80832F86877
:103D80009847FB68012283F80C22FB6893F80D32F8
:103D9000002B07D0F868FFF78DFF03E0FB680022D7
:103DA00083F80C22FB687A69C3F8042200BF183735
:103DB000BD4680BD80B483B000AF786000BF0C37D3
:103DC000BD465DF8047B704780B500AF4FF480724C
:103DD000084909480BF094FB4FF4807207490848E2
:103DE0000BF08EFB064B044A064907480BF0D8F847
:103DF00000BF80BD342901200C290120342A012074
:103E00002029012000780040342B012080B582B0A9
:103E100000AF786039607B68002B03D101210F4827
:103E200004F066FE7B680E4A9A617B689B690021FC
:103E30001846FFF711FF0B490948FFF75AFF7B6847
:103E400024330A220A2118460BF0E2FE06480BF042
:103E5000C3F800BF0837BD4680BD00BF686C0108CD
:103E60004C250120B53D0008342B012080B584B0DD
:103E700000AF786039607B68002B03D104211248C1
:103E800004F036FE3B68002B03D105210E4804F0F8
:103E90002FFE7B685B69FB607B685B6939687868CB
:103EA00098470346FB72FB7A002B08D1FB68074951
:103EB000786898477B685B6905497868984700BFD0
:103EC0001037BD4680BD00BF686C0108806C0108DA
:103ED000746C010880B584B002AF786039607B688B
:103EE000002B03D10221154804F002FE78683B68DC
:103EF000DA683B681B6900931346114A11490BF0BD
:103F0000F9FD7B6824337A680D2118460BF05EFEBC
:103F10003B681A687B685A613B685A687B689A619B
:103F20003B689A687B68DA617B68243318460BF03B
:103F30008FFE00BF0837BD4680BD00BF686C01081A
:103F40006D3E00080D3E0008B0B588B002AFFFF727
:103F50003BFF0C2300930A2378220A490A480BF0FE
:103F6000AAF90A4B3C1D1D460FCD0FC42B682360D8
:103F70003B1D19460648FFF7ADFF00BF1837BD4689
:103F8000B0BD00BF78270120F02701202845010897
:103F90001825012080B582B000AF0346FB71FB7984
:103FA000194603480BF0C0FD00BF0837BD4680BD71
:103FB0001825012080B582B000AF786039607B6839
:103FC000002B03D103211B4804F092FD3B681B88A2
:103FD000012B02D00D2B09D027E07B6824330A2265
:103FE0000A2118460BF014FE01231FE0124B4FF478
:103FF00080721A607B68DB690F4A104918460BF023
:104000000BF80346002B07D07B689B690A4A1268AD
:104010000A491846FFF77CFE7B689B690022002155
:104020001846FFF775FE012300E002231846083703
:10403000BD4680BD686C0108080000200C280120E6
:1040400080B582B000AF0346FB71064BDB695B684D
:1040500018460BF05DFB03469BB218460837BD4679
:1040600080BD00BF1825012080B582B000AF034697
:104070000A46FB711346BB71054BDB69BA791146E1
:1040800018460BF048F800BF0837BD4680BD00BF9A
:104090001825012080B500AF0BF04CFE03461846F2
:1040A00080BD000080B586B000AF396011461A4669
:1040B0000346FB710B46BB7113467B717B79032B67
:1040C00027D87B79154A52F823303B6101F042F939
:1040D000F86001F049F9B86000237B6114E07B6966
:1040E000DB00FA6813441B78FA799A4209D17B699C
:1040F000DB00FA6813445B68BA7939683869984715
:1041000008E07B6901337B617A69BB689A42E6DB30
:1041100000E000BF1837BD4680BD00BF5C2701200E
:1041200080B584B000AFF8607A601A460B46FB7227
:104130001346BB72FB68BA7A114618460AF04EFB6A
:104140000346002B05D0F868BB7AF97A7A680AF042
:10415000FDFA00BF1037BD4680BD000080B500AF3E
:10416000054BDB6918460BF051F8034BDB69184629
:104170000BF06EF800BF80BD1825012080B483B01D
:1041800000AF786039607B683A689A6100BF0C378D
:10419000BD465DF8047B704780B483B000AF7860A3
:1041A00039603B681A047B689A6100BF0C37BD46D2
:1041B0005DF8047B7047000080B500AF4FF40061EC
:1041C0000248FFF7DBFF00BF80BD00BF00040240D4
:1041D00080B500AF4FF400610248FFF7DDFF00BF7C
:1041E00080BD00BF0004024080B588B002AFF86017
:1041F000B9601346FB71002300220121F868FFF724
:104200008FFF0A4B7B61FB79019348230093084B96
:104210007A69084908480AF0C4FF084B1B68184629
:1042200003F07CFB00BF1837BD4680BD3C4501084C
:104230004445010870450108682C01201400002045
:1042400080B58AB004AFF860B9601346FB71BB68F3
:104250001B781A06BB6801331B781B041A43BB6822
:1042600002331B781B021343BA68033212781343DC
:104270007B61FB79BA680321F868FFF751FF094BAE
:104280003B61FB797A690292019351230093064BBB
:104290003A69064906480AF084FF00BF1837BD4650
:1042A00080BD00BF3C450108444501088C4501081C
:1042B000682C012080B58CB006AFF860B960134659
:1042C000FB71BB681B78FB75BB6801331B78BB7542
:1042D000BB6802331B787B75BB6803331B783B7567
:1042E000FB79BA680521F868FFF71AFF0A4B3B61B2
:1042F000FB7DBA7D797D387D049003910292019314
:1043000061230093054B3A69054906480AF049FFC5
:1043100000BF1837BD4680BD3C4501084445010833
:10432000C4450108682C012080B588B002AFF86050
:10433000B9601346FB71FF233B74BB681A780D4BC1
:104340001A7007F1100201230921F868FFF7E8FE4F
:10435000094B7B61074B1B78019369230093074B43
:104360007A69074907480AF01CFF00BF1837BD46A5
:1043700080BD00BF180000203C45010844450108ED
:10438000EC450108682C012090B5A3B008AFF86097
:10439000B9601346FB714FF63F73BB820023A7F849
:1043A0006630BB681B781BB21B021AB2BB680133B4
:1043B0001B781BB21343A7F86430BB6802331B7829
:1043C0001BB21B021AB2BB6803331B781BB2134328
:1043D000A7F86230BB6804331B781BB21B021AB209
:1043E000BB6805331B781BB21343A7F86030BB686A
:1043F00006331B7887F85F30BB6807331B7887F874
:104400005E30BB6808331B7887F85D30BB680933C2
:104410001B7887F85C30BB680A331B7887F85B3001
:10442000BB680B331B781BB21B021AB2BB680C3380
:104430001B781BB213431BB2A7F85830BB680D336F
:104440001B7887F8573097F85F30072B0ED9B7F8ED
:1044500066300133A7F86630844B3B657E230093BA
:10446000834B3A6D834984480AF09BFE97F85E308F
:10447000072B0ED9B7F866300133A7F866307B4BAF
:10448000FB64832300937A4BFA6C7C497A480AF0E8
:1044900088FE97F85C300F2B0ED9B7F866300133E1
:1044A000A7F86630714BBB6488230093704BBA6CDD
:1044B000734971480AF075FE97F85B300F2B0ED9DF
:1044C000B7F866300133A7F86630684B7B648D23FC
:1044D0000093674B7A6C6B4967480AF062FEB7F845
:1044E0006630002B40F0A880674B1868B7F864105E
:1044F000B7F86220B7F8604097F857300693B7F8DE
:104500005830059397F85B30049397F85C30039329
:1045100097F85D30029397F85E30019397F85F301B
:104520000093234604F089FA504B3B64B7F964309A
:104530000193932300934E4B3A6C54494E480AF032
:1045400030FE4A4BFB63B7F962300193942300932A
:10455000474BFA6B4E4948480AF023FE434BBB6376
:10456000B7F96030019395230093414BBA6B4949E9
:1045700041480AF016FE3D4B7B6397F85F3001938C
:10458000962300933A4B7A6B43493B480AF009FE65
:10459000364B3B6397F85E30019397230093344B7F
:1045A0003A6B3E4934480AF0FCFD304BFB6297F809
:1045B0005D30002B01D13A4B00E03A4B0193982338
:1045C00000932B4BFA6A38492B480AF0EAFD274B37
:1045D000BB6297F85C30019399230093244BBA6A2D
:1045E000324925480AF0DDFD204B7B6297F85B30AD
:1045F00001939A2300931E4B7A6A2D491E480AF0B4
:10460000D0FD1A4B3B62B7F8583001939B230093BF
:10461000174B3A6A274918480AF0C3FD134BFB6150
:1046200097F8573001939C230093114BFA69224964
:1046300011480AF0B6FD03E03E233B753E237B752F
:1046400007F1140202230B21F868FFF769FD074BFD
:10465000BB61A4230093064BBA69184906480AF0C7
:10466000A0FD00BF6C37BD4690BD00BF3C450108B2
:104670004445010810460108682C01203C46010809
:1046800068460108944601080C000020C046010855
:10469000DC460108F84601081447010830470108C4
:1046A0004C47010850470108544701087447010866
:1046B00098470108BC470108D8470108F44701089A
:1046C00080B588B002AFF860B9601346FB71FF2374
:1046D000FB740D4B7B61AA2300930C4B7A690C4948
:1046E0000C480AF05EFD0C4B1B68184603F074FD85
:1046F00007F1130201230D21F868FFF711FD00BF38
:104700001837BD4680BD00BF3C450108444501083F
:1047100018480108682C01200C00002080B588B0E2
:1047200002AFF860B9601346FB71FF23FB740D4BB9
:104730007B61B22300930C4B7A690C490C480AF058
:1047400030FD0C4B1B68184603F062FD07F11302A5
:1047500001230F21F868FFF7E3FC00BF1837BD46BF
:1047600080BD00BF3C45010844450108444801089C
:10477000682C01200C00002080B592B002AFF860D8
:10478000B9601346FB714FF63F73BB82002387F875
:104790003F30BB681B781BB21B021AB2BB680133E7
:1047A0001B781BB213431BB2BB87BB6802331B7859
:1047B00087F83B30BB6803331B781BB21B021AB26D
:1047C000BB6804331B781BB213431BB23B87BB8F00
:1047D0004EF6602293420ED997F83F30013387F8A6
:1047E0003F30594B7B63C2230093584B7A6B584937
:1047F00058480AF0D6FC97F83B30042B0FD997F8AD
:104800003F30013387F83F304F4B3B62C823009362
:104810004E4B3A6A50494F480AF0C3FC49E097F8BA
:104820003B30042B21D107F1140202231121F86837
:10483000FFF776FC494B1B680421184603F0D2FDB4
:10484000414BBB62CE230093404BBA6A4449414876
:104850000AF0A7FC3C4B7B62CF2300933B4B7A6A68
:1048600040493C480AF09DFC6AE03C4B1B681846F6
:1048700003F0FBFE034687F8333097F8332097F8B0
:104880003B3042FA03F303F00103002B11D097F8F9
:104890003F30013387F83F302B4BFB6297F83B30BA
:1048A0000193D8230093294BFA6A2F4929480AF02B
:1048B00078FC3B8FB3F5FA7F04D33B8F40F6B832D8
:1048C000934210D997F83F30013387F83F301E4BA1
:1048D000FB613B8F0193DF2300931C4BFA69234953
:1048E0001C480AF05EFC97F83F30002B13D1BB8FB9
:1048F000184600F04DFE194B1B6897F83B201146F7
:10490000184603F06FFD154B1B683A8F1146184689
:1049100003F081FD03E03E233B753E237B7507F1E9
:10492000140202231121F868FFF7FAFB064BBB6162
:10493000EF230093054BBA690A4906480AF031FC97
:104940004037BD4680BD00BF3C45010844450108D5
:1049500070480108682C0120A84801080C000020BC
:10496000D4480108044901083049010858490108A0
:1049700080B588B002AFF860B9601346FB71FF23C1
:10498000FB7407F1130201231321F868FFF7C8FB3A
:10499000074B7B61F6230093064B7A69064907486B
:1049A0000AF0FFFB00F0D0FD00BF1837BD4680BD08
:1049B0003C450108444501088C490108682C012048
:1049C00080B588B002AFF860B9601346FB71FF2371
:1049D000FB7407F1130201231521F868FFF7A0FB10
:1049E000074B7B61FE230093064B7A690649074813
:1049F0000AF0D7FB00F0BAFD00BF1837BD4680BDF6
:104A00003C45010844450108B0490108682C0120D3
:104A100080B59AB002AFF860B9601346FB71864B5F
:104A2000BB654FF482730093844BBA6D844985480B
:104A30000AF0B7FB4FF63F733B850023A7F85E30C3
:104A4000BB681B781A06BB6801331B781B041A432A
:104A5000BB6802331B781B021343BA680332127817
:104A600013437B65BB6804331B781B029BB2BA6897
:104A7000053212781343A7F85230BB6806331B780F
:104A80001B029BB2BA68073212781343A7F8503062
:104A9000BB6808331B781B029BB2BA6809321278D4
:104AA0001343A7F84E307B6DB3F57A7F03D37B6D4C
:104AB000654A93420FD9B7F85E300133A7F85E30EC
:104AC0005D4BBB644FF4887300935C4BBA6C5F49D9
:104AD0005C480AF066FBB7F85230002B0FD1B7F8EC
:104AE0005E300133A7F85E30534B7B6440F21713FE
:104AF0000093524B7A6C564952480AF052FBB7F871
:104B00005030002B0FD1B7F85E300133A7F85E307C
:104B1000494B3B644FF48F730093484B3A6C4D49BB
:104B200048480AF03EFBB7F84E30002B0FD1B7F8DB
:104B30005E300133A7F85E303F4BFB6340F2251334
:104B400000933E4BFA6B44493E480AF02AFBB7F803
:104B50005220B7F850301A44B7F84E3013441A4672
:104B60007B6D02FB03F33D4AA2FB03231B0CBB63DB
:104B7000BB6BB3F5006F0FD9B7F85E300133A7F800
:104B80005E302D4B7B6340F22D1300932B4B7A6BE1
:104B900033492C480AF005FBB7F85E30002B3AD1B8
:104BA0007B6D7B61B7F852307B83B7F85030BB83A5
:104BB000B7F84E30FB83BB6B3B622A4A7B6DB2FB7E
:104BC000F3F37B62284B1B6807F114021146184669
:104BD000FEF74CFF0346002B0BD1174BFB6240F254
:104BE0003B130093154BFA6A204916480AF0D9FA8C
:104BF00017E03E2387F828303E2387F829300E4BF4
:104C00003B6340F2411300930C4B3A6B18490D483B
:104C10000AF0C7FA05E03E2387F828303E2387F8DC
:104C2000293007F1280202231721F868FFF778FAE4
:104C300000BF6037BD4680BD3C45010844450108C2
:104C4000D4490108682C012000350C00F449010802
:104C5000284A0108584A0108884A0108D34D6210C1
:104C6000B84A010840420F0010000020EC4A010839
:104C70000C4B010880B590B002AFF860B9601346E4
:104C8000FB714FF63F73BB84BB681B7887F83730E6
:104C900097F83730642B11D93E2387F824303E2310
:104CA00087F82530244BBB6240F255130093234B09
:104CB000BA6A234923480AF074FA39E0224B1B6888
:104CC00007F1100211461846FEF77AFF97F83730C1
:104CD0007B751D4B1B6807F1100211461846FEF745
:104CE000FFFE0346002B0BD1134BFB624FF4B07356
:104CF0000093124BFA6A154912480AF052FA10E072
:104D00003E2387F824303E2387F825300A4B3B6347
:104D10004FF4B3730093094B3A6B0D4909480AF0FD
:104D200040FA07F1240202231921F868FFF7F8F985
:104D30003837BD4680BD00BF3C45010844450108E9
:104D40002C4B0108682C012010000020584B010852
:104D5000844B010880B590B002AFF860B96013468B
:104D6000FB714FF63F73BB84BB681B7887F8373005
:104D700097F83730242B03D897F83730002B11D110
:104D80003E2387F824303E2387F82530244BBB622E
:104D90004FF4BA730093234BBA6A234923480AF0AD
:104DA00000FA32E0224B1B6807F110021146184648
:104DB000FEF706FF97F837303B751D4B1B6807F170
:104DC000100211461846FEF7A2FE0346002B0BD137
:104DD000134BFB624FF4BF730093124BFA6A1549F1
:104DE00012480AF0DEF910E03E2387F824303E2313
:104DF00087F825300A4B3B634FF4C2730093094B8D
:104E00003A6B0D4909480AF0CCF907F12402022354
:104E10001B21F868FFF784F900BF3837BD4680BD15
:104E20003C45010844450108B04B0108682C0120AD
:104E300010000020DC4B0108004C010880B58AB04E
:104E400002AFF860B9601346FB713F233B75174B07
:104E50001B681846FEF7C8FE0346002B0DD03E2304
:104E60003B75134BBB614FF4C8730093114BBA6988
:104E7000114912480AF095F90CE0FFF79DF90C4B27
:104E8000FB6140F2951300930A4BFA690C490B48F9
:104E90000AF087F907F1140201231D21F868FFF7D2
:104EA0003FF900BF2037BD4680BD00BF1000002085
:104EB0003C45010844450108244C0108682C0120A8
:104EC0004C4C010880B58EB002AFF860B960134653
:104ED000FB714FF63F73BB84214B1B6807F1100237
:104EE00011461846FEF76CFEFB69002B0ED100231D
:104EF00087F824301B4BBB6240F2A31300931A4B7C
:104F0000BA6A1A491A480AF04CF91DE0FB691B09F4
:104F1000DBB287F82430FB6903F00F03002B05D0C8
:104F200097F824300133DBB287F824300D4BFB6255
:104F300097F8243001934FF4D57300930A4BFA6A23
:104F40000C490B480AF02DF907F1240202231F2116
:104F5000F868FFF7E5F800BF3037BD4680BD00BFF9
:104F6000100000203C450108444501086C4C010834
:104F7000682C01208C4C010880B590B002AFF8601D
:104F8000B9601346FB714FF63F73BB84BB681B7857
:104F900087F83730324B1B6807F11002114618466C
:104FA000FEF70EFEFB691B0987F8363097F836309E
:104FB000002B18D13E2387F824303E2387F8253074
:104FC00007F1240202232121F868FFF7A9F8254BF5
:104FD000BB6240F2BB130093234BBA6A23492448B7
:104FE0000AF0DFF837E097F8372097F836309A4222
:104FF00018D33E2387F824303E2387F8253007F165
:10500000240202232121F868FFF78AF8154BFB627E
:105010004FF4E1730093144BFA6A164914480AF0EE
:10502000C0F818E007F1240202232121F868FFF7F5
:1050300077F805F001FB05F025FB0A4B3B6397F879
:105040003730019340F2C9130093074B3A6B0A497A
:1050500007480AF0A6F800BF3837BD4680BD00BF3C
:10506000100000203C45010844450108B04C0108EF
:10507000682C0120CC4C0108F44C010880B58CB0A0
:1050800004AFF860B9601346FB7105F0C7FB034637
:10509000FB83FB8B1B0A9BB2DBB23B75FB8BDBB24A
:1050A0007B7507F1140202232321F868FFF738F813
:1050B0000A4BBB61BB681B781A46FB8B02930192BB
:1050C00040F2D5130093064BBA69064906480AF028
:1050D00068F800BF2037BD4680BD00BF3C450108D1
:1050E00044450108104D0108682C012080B485B0AA
:1050F00000AFF860B9601346FB7100BF1437BD46BE
:105100005DF8047B704780B485B000AFF860B9608B
:105110001346FB7100BF1437BD465DF8047B704732
:1051200080B58AB002AFF860B9601346FB714FF6E4
:105130003F733B82BB681B78FB83B7F91E30642B3F
:105140000FDD3E233B743E237B74164B7B614FF493
:10515000F5730093144B7A69144915480AF021F845
:1051600015E0144B1B68B7F91E2001211846FEF705
:10517000B1FB0C4BBB61B7F91E30019340F2EF134A
:105180000093094BBA690C4909480AF00AF807F17B
:10519000100202232921F868FEF7C2FF00BF203762
:1051A000BD4680BD3C450108444501083C4D010811
:1051B000682C012010000020684D010880B58AB0DD
:1051C00002AFF860B9601346FB714FF63F733B8244
:1051D000BB681B78FB77FB7F082B02D8FB7F002B7B
:1051E0000FD13E233B743E237B74144B7B6140F212
:1051F000FD130093124B7A691249134809F0D1FF4D
:1052000011E0124B1B68FA7F11461846FEF7CBFBE4
:105210000A4BBB6140F202230093094BBA690C4967
:10522000094809F0BEFF07F1100202232B21F8689C
:10523000FEF776FF00BF2037BD4680BD3C45010824
:1052400044450108944D0108682C012010000020FD
:10525000C04D010880B588B002AFF860B960134650
:10526000FB71FF233B7407F1100201232D21F86825
:10527000FEF756FF094B1B681846FEF7B7FB084BB5
:105280007B614FF403730093064B7A690649074824
:1052900009F087FF00BF1837BD4680BD1000002011
:1052A0003C45010844450108E44D0108682C0120F3
:1052B00080B58CB002AFF860B9601346FB71002076
:1052C000FDF760FF0346FB840120FDF75BFF03460B
:1052D000BB843F233B75FB8C1B0A9BB2DBB27B7507
:1052E000FB8CDBB2BB75BB8C1B0A9BB2DBB2FB75C4
:1052F000BB8CDBB23B7607F1140205233321F8683F
:10530000FEF70EFF0E4B3B62FB8C01934FF41673BE
:1053100000930C4B3A6A0C490C4809F042FF084BC9
:10532000FB61BB8C019340F259230093054BFA6952
:105330000749064809F035FF00BF2837BD4680BD44
:105340003C45010844450108084E0108682C01202D
:10535000304E010880B400AF024B1846BD465DF8E0
:10536000047B70478C6C010880B400AF172318468B
:10537000BD465DF8047B704780B582B000AF7860B1
:1053800039607B68183318460AF062FC00BF0837A2
:10539000BD4680BD80B584B000AF786039607B6861
:1053A0005B69FB607B685B6939687868984703468E
:1053B000FB72FB7A002B08D1FB6806497868984796
:1053C0007B685B6904497868984700BF1037BD4621
:1053D00080BD00BF686D0108546D010880B584B0C0
:1053E00002AF786039607B68002B03D1002113483D
:1053F00003F07EFB78683B685A683B689B680093C3
:1054000013460F4A0F490AF075FB7B6818337A6818
:10541000132118460AF0DAFB3B681A687B685A6168
:105420007B68002283F828207B68183318460AF02E
:105430000FFC00BF0837BD4680BD00BF446D0108AA
:10544000955300087953000880B586B002AF122347
:105450000093022324220949094809F02CFF094A34
:105460003B1D07CA83E807003B1D19460648FFF7A6
:10547000B5FF00BF1037BD4680BD00BF842B0120A3
:10548000A82B0120584E0108442B012080B582B082
:1054900000AF0346FB71FB79194603480AF044FB51
:1054A00000BF0837BD4680BD442B012080B586B0C3
:1054B00002AF786039603B681B88012B02D0132B48
:1054C00002D02FE001232EE07B6893F82830002BD8
:1054D00013D1174BBB605F230093164BBA68164974
:1054E000164809F05EFE164B1B68184602F0AFFF27
:1054F0007B68012283F8282012E00D4BFB606523B6
:1055000000930C4BFA680F490C4809F04AFE0C4B0B
:105510001B68184603F025F87B68002283F82820D2
:10552000012300E0022318461037BD4680BD00BFAE
:10553000644E01086C4E01089C4E0108682C012045
:105540001C000020B44E010880B500AF054B1B883D
:10555000044A1288194604480AF05AFB00231846E8
:1055600080BD00BF200000205C2B012080B500AF73
:1055700005480AF06DFB054B1B68184602F0F1FF69
:105580000023184680BD00BF5C2B01201C000020BA
:1055900080B483B000AF0346FB80044AFB881380CD
:1055A00000BF0C37BD465DF8047B7047200000202B
:1055B00080B400AFBFF34F8F00BF064BDB6803F42E
:1055C000E0620449044B1343CB60BFF34F8F00BF2D
:1055D00000BFFDE700ED00E00400FA0580B584B0EF
:1055E00000AFF860B9607A60044B1B68184602F09F
:1055F00095F900BF1037BD4680BD00BF2C000020CC
:1056000080B59EB000AFF860B9607A6007F114030E
:105610006422002118460CF07BFF07F114031A46A0
:105620001421002004F0A2FD0549F86808F0AAFD45
:105630000449F86808F0A6FD00BF7837BD4680BD74
:10564000CC4E0108DC4E010880B59EB000AFF8607A
:10565000B9607A6007F110031A461421002004F0A3
:1056600097FD0F49F86808F08DFD00237B670CE07B
:1056700007F110027B6F13441B781A460949F8683A
:1056800008F080FD7B6F01337B677B6F132BEFDDB1
:105690000549F86808F076FD00BF7837BD4680BD43
:1056A000E04E0108F84E0108004F010880B588B0AF
:1056B00000AFF860B9607A6007F11403074A0A2165
:1056C00018460CF09FFD07F114031946F86807F01F
:1056D000E2FA00BF2037BD4680BD00BF385901083F
:1056E00080B584B000AFF860B9607A60FFF760FF02
:1056F00080B588B000AFF860B9607A600023BB6104
:105700000023FB82B86807F0B7FB03467B757B7DFF
:10571000012B04D02E49F86808F034FD54E0012133
:10572000B86807F073FB38613B691B78612B22D1A5
:105730000023FB771BE0FB7F1846FDF76FFD034658
:10574000FB82B7F9163013F5004F06D1FB7F1A46DE
:105750002049F86808F016FD06E0FA7FB7F9163020
:105760001D49F86808F00EFDFB7F0133FB77FB7FD6
:10577000072BE0D928E03B691B782F2B20D93B6908
:105780001B78372B1CD838690BF062FF0346BB61CE
:10579000B869FDF743FD0346FB82B7F9163013F5F0
:1057A000004F05D1BA690B49F86808F0EBFC0BE033
:1057B000B7F91630BA690849F86808F0E3FC03E065
:1057C0000649F86808F0DEFC2037BD4680BD00BF02
:1057D00040590108605901087459010888590108A5
:1057E00080B588B000AFF860B9607A60B86807F03B
:1057F00043FB0346FB61FB69012B04D01549F868A4
:1058000008F0C0FC23E0144B1B68184602F0D6FDDC
:10581000034683F00103DBB2002B04D00F49F86884
:1058200008F0B0FC13E00121B86807F0EFFAB861A6
:10583000B8690BF00DFF03467B61074B1B68796964
:10584000184603F0CFF80649F86808F09BFC2037AB
:10585000BD4680BD40590108240000209C59010824
:10586000E859010880B584B000AFF860B9607A608B
:105870000A4B1B68184603F0CEF80346002B04D0F1
:105880000749F86808F07EFC03E00649F86808F06C
:1058900079FC00BF1037BD4680BD00BF240000204A
:1058A000E8590108F059010880B588B000AFF860E8
:1058B000B9607A60B86807F0DFFA0346BB61BB697C
:1058C000012B04D03849F86808F05CFC69E0374BDC
:1058D0001B68184602F072FD034683F00103DBB239
:1058E000002B04D03249F86808F04CFC59E0012143
:1058F000B86807F08BFA786100233B617B691B78FD
:10590000612B25D10023FB611EE0284B1B68F96940
:10591000184602F00FFD38613B69002B0CD1234B78
:105920001B680022F969184602F024FDFA69214932
:10593000F86808F027FC04E0FA691F49F86808F0E5
:1059400021FCFB690133FB61FB69032BDDD928E0F6
:105950007B691B782F2B24D97B691B78332B20D8AC
:1059600078690BF075FE0346FB61104B1B68F96903
:10597000184602F0DFFC38613B69002B0CD10B4B61
:105980001B680022F969184602F0F4FCFA6909491B
:10599000F86808F0F7FB04E0FA690749F86808F0CE
:1059A000F1FB2037BD4680BD40590108240000208E
:1059B000F8590108405A0108545A010880B588B0C6
:1059C00000AFF860B9607A60B86807F055FA03462E
:1059D000FB61FB69012B04D01549F86808F0D2FB84
:1059E00022E00121B86807F011FAB861B8690BF03C
:1059F0002FFE0346FB82FB8AB3F5FA7F04D3FB8AB2
:105A000040F6B832934204D90A49F86808F0BAFB64
:105A10000AE0094B1B68FA8A1146184602F032FE6A
:105A20000649F86808F0AEFB2037BD4680BD00BFD0
:105A30006C5A0108945A010824000020E859010812
:105A400080B586B000AFF860B9607A60084B1B681B
:105A5000184602F0B4FB0346FB82FB8A1A4605494E
:105A6000F86808F08FFB00BF1837BD4680BD00BF47
:105A700024000020C85A010880B588B000AFF86043
:105A8000B9607A60B86807F0F7F90346BB61BB6993
:105A9000042B04D03149F86808F074FB5BE0304B0C
:105AA0001B68184602F083FD0346FB750023FB616B
:105AB0004AE0FB699BB201339BB21946B86807F014
:105AC000A5F9034618460BF0C3FD0346D9B207F10A
:105AD0001002FB6913440A461A7007F11002FB69B1
