:020000040800F2
:1000000000000820AD2F00089D2D0008A52D000838
:10001000AD2D0008B52D0008BD2D00080000000022
:10002000000000000000000000000000C52D0008D6
:10003000D32D000800000000E12D0008EF2D00087E
:10004000FD2F0008FD2F0008FD2F0008FD2F0008E0
:10005000FD2F0008FD2F0008FD2F0008FD2F0008D0
:10006000FD2F0008FD2F0008FD2F0008FD2F0008C0
:100070008D8A0008FD2F0008FD2F0008FD2F0008C5
:10008000FD2F0008FD2F0008FD2F0008FD2F0008A0
:10009000FD2F0008FD2F0008FD2F0008FD2F000890
:1000A000FD2F0008D18B0008FD2F0008FD2F000850
:1000B0001D8C0008FD2F0008FD2F0008FD2F0008F3
:1000C000FD2F0008FD2F0008FD2F0008FD2F000860
:1000D000FD2F0008FD2F0008FD2F000881E000081B
:1000E000FD2F0008FD2F0008FD2F0008FD2F000840
:1000F000FD2F0008FD2F0008FD2F0008FD2F000830
:10010000FD2F0008FD2F0008FD2F0008FD2F00081F
:10011000FD2F0008FD2F0008FD2F0008FD2F00080F
:1001200005810008FD2F0008B97F0008C59300086D
:10013000FD2F0008FD2F0008FD2F0008FD2F0008EF
:10014000FD2F0008FD2F0008FD2F0008FD2F0008DF
:10015000FD2F0008E18D0008FD2F0008C96300088D
:10016000FD2F0008FD2F0008FD2F0008FD2F0008BF
:10017000FD2F0008FD2F0008FD2F000800000000E3
:10018000FD2F0008FD2F0008413F0008FD2F00084B
:10019000FD2F0008FD2F0008FD2F0008FD2F00088F
:1001A0000000000000000000FD2F0008FD2F0008E7
:1001B000FD2F0008FD2F0008FD2F0008FD2F00086F
:1001C000FD2F0008FD2F000800000000FD2F000893
:1001D000FD2F0008FD2F0008FD2F0008FD2F00084F
:1001E000FD2F0008FD2F0008FD2F0008FD2F00083F
:0801F00000000000FD2F0008D3
:1002000010B5054C237833B9044B13B10448AFF350
:1002100000800123237010BDA8830020000000008F
:10022000BC2A010808B5034B1BB103490348AFF3CF
:10023000008008BD00000000AC830020BC2A01083B
:1002400010F8012B11F8013B012A28BF9A42F7D080
:10025000D01A7047000000000000000000000000FD
:1002600001F0FF01102A2BDB10F0070F08D010F867
:10027000013B013A8B422DD010F0070F42B3F6D16B
:10028000F0B441EA012141EA014122F007047FF084
:1002900000070023F0E80256083C85EA010586EADB
:1002A000010685FA47F5A3FA87F586FA47F6A5FA17
:1002B00087F68EB9EED1F0BC01F0FF0102F0070223
:1002C00032B110F8013B013A83EA010313B1F8D1CE
:1002D0000020704701387047002D06BF35460338AF
:1002E000073815F0010F07D1013015F4807F02BFE8
:1002F000013015F4C03F0130F0BC0138704700BF39
:10030000034613F8012B002AFBD1181A0138704755
:100310007BB972B90029BEBF00204FF0004106E052
:1003200008BF00281CBF6FF000414FF0FF3000F005
:10033000BBB9ADF1080C6DE904CE002909DB002B37
:100340001ADB00F035F8DDF804E0DDE9022304B043
:100350007047404261EB4101002B1BDB00F028F8A5
:10036000DDF804E0DDE9022304B0404261EB410125
:10037000524263EB43037047524263EB430300F086
:1003800017F8DDF804E0DDE9022304B0404261EB38
:1003900041017047524263EB430300F009F8DDF876
:1003A00004E0DDE9022304B0524263EB43037047EB
:1003B0002DE9F047089D8E4604468846002B4AD119
:1003C0008A42174662D9B2FA82F64EB1C6F12003CC
:1003D00001FA06F820FA03F3B74043EA0808B440EC
:1003E0004FEA174E1FFA87FCB8FBFEF1230C0EFBF9
:1003F000118843EA084301FB0CF29A4209D9FB1821
:1004000001F1FF3080F0EA809A4240F2E780023941
:100410003B449A1AA3B2B2FBFEF00EFB102243EA51
:10042000024300FB0CFC9C4509D9FB1800F1FF328C
:1004300080F0D6809C4540F2D3803B44023840EAAD
:100440000140A3EB0C0300211DB1F3400022C5E9DC
:100450000032BDE8F0878B4205D90DB1C5E9000136
:1004600000210846F5E7B3FA83F1002946D1734528
:1004700002D3824200F20581841A6EEB030201204E
:100480009046002DE5D0C5E90048E2E7002A00F0DB
:100490009080B2FA82F6002E40F0A4808A1A030CF3
:1004A0004FEA174E80B2BCB20121B2FBFEFC0EFB3C
:1004B0001C2243EA024304FB0CF29A4207D9FB18C0
:1004C0000CF1FF3802D29A4200F2E080C4469B1A37
:1004D000B3FBFEF20EFB123340EA034302FB04F4CB
:1004E0009C4207D9FB1802F1FF3002D29C4200F275
:1004F000CA8002461B1B42EA0C40A5E7C1F1200658
:100500008B4022FA06F71F430EFA01F420FA06F395
:100510002EFA06FE4FEA1749234300FA01F81FFAA4
:1005200087FCBEFBF9F01C0C09FB10EE44EA0E44FC
:1005300000FB0CFEA64502FA01F209D93C1900F1B4
:10054000FF3A80F09C80A64540F2998002383C44F6
:10055000A4EB0E041FFA83FEB4FBF9F309FB13446A
:100560004EEA044403FB0CFCA44508D93C1903F1F2
:10057000FF3E80F08280A4457FD9023B3C4443EAA1
:100580000040A4EB0C04A0FB02EC64457346E1467A
:1005900062D35FD05DB1B8EB030264EB090404FAE7
:1005A00006F622FA01F31E43CC40C5E9006400219F
:1005B0004FE7B1FBF2FC010C41EA0E4180B240EA88
:1005C00001423B4638463C46B846BE462026B1FB73
:1005D000F7F1A2EB080241EA0C4166E7014618E791
:1005E00010462CE7C6F120022EFA02F3B740B140C4
:1005F00020FA02F24FEA174E0A43B3FBFEF8BCB2F0
:100600000EFB1833110C41EA034108FB04F9B0401A
:1006100089454FEA104380B23ED9791808F1FF3C72
:1006200001D289451FD8A1EB0901B1FBFEF909FBF5
:1006300004F80EFB191192B242EA0142424529D256
:10064000BA1809F1FF31C4D24245C2D2A9F1020160
:100650003A44BEE7F0459DD2BEEB02036CEB070CBB
:100660000138E14696E7A7EB09094944A8F1020CD5
:10067000B1FBFEF909FB04F8DBE773467FE7504660
:1006800066E70846FDE63B44023A33E7ACF1020C6C
:100690003B441CE749469CE7A1EB0901C446B1FB7A
:1006A000FEF909FB04F8C4E7704700BF80B485B0C9
:1006B00000AF78607B6803F00703FB600B4BDB68DF
:1006C000BB60BA684FF6FF031340BB60FB681A02B9
:1006D000BB681A43064B1343BB60044ABB68D36034
:1006E00000BF1437BD465DF8047B704700ED00E0A5
:1006F0000000FA0580B400AF044BDB681B0A03F06E
:1007000007031846BD465DF8047B704700ED00E026
:1007100080B483B000AF0346FB7197F90730002B1C
:100720000BDBFB7903F01F02074997F907305B09E0
:10073000012000FA02F241F8232000BF0C37BD4629
:100740005DF8047B704700BF00E100E080B483B037
:1007500000AF03463960FB7197F90730002B0ADBC5
:100760003B68DAB20C4997F907301201D2B20B4458
:1007700083F800230AE03B68DAB20849FB7903F00A
:100780000F03043B1201D2B20B441A7600BF0C37A0
:10079000BD465DF8047B704700E100E000ED00E03D
:1007A00080B489B000AFF860B9607A60FB6803F08C
:1007B0000703FB61FB69C3F10703042B28BF042374
:1007C000BB61FB690433062B02D9FB69033B00E0E4
:1007D00000237B614FF0FF32BB6902FA03F3DA4377
:1007E000BB681A407B699A404FF0FF317B6901FA80
:1007F00003F3D9437B680B40134318462437BD46A7
:100800005DF8047B704780B489B000AFF860B960D0
:100810007A60FB682C331946BB6803F440734FF4CD
:100820004072BA61BA6992FAA2F27A617A69B2FA4E
:1008300082F2D2B2D3409B000B44FB61FB691A6881
:10084000BB6803F01F031F2101FA03F3DB431A40C7
:100850007B6803F01F01BB6803F01F0301FA03F379
:100860001A43FB691A6000BF2437BD465DF8047B5C
:10087000704780B483B000AF786039607B689B6854
:1008800023F480623B681A437B689A6000BF0C3790
:10089000BD465DF8047B704780B48DB000AFF86052
:1008A000B9607A60FB680C331946BB6803F00073CB
:1008B0004FF00072BA61BA6992FAA2F27A617A696B
:1008C000B2FA82F2D2B2D3409B000B44FB62FB6AC5
:1008D0001A68BB6803F0F8734FF0F8713962396A2F
:1008E00091FAA1F1F961F969B1FA81F1C9B2CB408C
:1008F000072101FA03F3DB431A40BB6803F0F873E6
:100900004FF0F871B962B96A91FAA1F17962796A26
:10091000B1FA81F1C9B2CB40796801FA03F31A4305
:10092000FB6A1A6000BF3437BD465DF8047B704730
:1009300080B485B000AFF860B9607A600D4ABB68DA
:1009400013441B781A46FB6813441B6823F0C0024B
:100950000849BB680B441B781946FB680B441946D1
:100960007B6813430B6000BF1437BD465DF8047B02
:10097000704700BFF044010880B485B000AFF86054
:10098000B9607A600D4ABB6813441B781A46FB684D
:1009900013441B6823F490720849BB680B441B780E
:1009A0001946FB680B4419467B6813430B6000BF74
:1009B0001437BD465DF8047B704700BFF044010862
:1009C00080B485B000AFF860B9607A600D4ABB684A
:1009D00013441B781A46FB6813441B6823F4007207
:1009E0000849BB680B441B781946FB680B44194641
:1009F0007B6813430B6000BF1437BD465DF8047B72
:100A0000704700BFF044010880B485B000AFF860C3
:100A1000B9607A600D4ABB6813441B781A46FB68BC
:100A200013441B6823F480620849BB680B441B789D
:100A30001946FB680B4419467B6813430B6000BFE3
:100A40001437BD465DF8047B704700BFF0440108D1
:100A500080B485B000AFF860B9607A600D4ABB68B9
:100A600013441B781A46FB6813441B6823F4C052D6
:100A70000849BB680B441B781946FB680B441946B0
:100A80007B6813430B6000BF1437BD465DF8047BE1
:100A9000704700BFF044010880B485B000AFF86033
:100AA000B9607A600D4ABB6813441B781A46FB682C
:100AB00013441B6823F4C0420849BB680B441B78ED
:100AC0001946FB680B4419467B6813430B6000BF53
:100AD0001437BD465DF8047B704700BFF044010841
:100AE00080B485B000AFF860B9607A600D4ABB6829
:100AF00013441B781A46FB6813441B6823F44032E6
:100B00000849BB680B441B781946FB680B4419461F
:100B10007B6813430B6000BF1437BD465DF8047B50
:100B2000704700BFF044010880B485B000AFF860A2
:100B3000B9607A600D4ABB6813441B781A46FB689B
:100B400013441B6823F0F0520849BB680B441B7820
:100B50001946FB680B4419467B6813430B6000BFC2
:100B60001437BD465DF8047B704700BFF0440108B0
:100B700080B483B000AF786039600C4A3B6813449E
:100B80001B781A467B6813445B6908493A680A4433
:100B9000127811467A680A4423F00403536100BFB7
:100BA0000C37BD465DF8047B704700BFF044010878
:100BB00080B483B000AF78607B681B6843F00102AB
:100BC0007B681A6000BF0C37BD465DF8047B704738
:100BD00080B483B000AF78607B681B6823F4003278
:100BE0007B681A6000BF0C37BD465DF8047B704718
:100BF00080B483B000AF78607B681B6823F4002268
:100C00007B681A6000BF0C37BD465DF8047B7047F7
:100C100080B485B000AFF860B9607A60FB68DA68CC
:100C2000064B1340B9687A680A431A43FB68DA60D6
:100C300000BF1437BD465DF8047B704701F8FFFF25
:100C400080B483B000AF78607B68DB6823F4004237
:100C50007B68DA6000BF0C37BD465DF8047B7047E7
:100C600080B483B000AF78607B685B6843F000724B
:100C70007B685A6000BF0C37BD465DF8047B704747
:100C800080B400AF054B1B68044A43F48033136003
:100C900000BFBD465DF8047B704700BF00380240CE
:100CA00080B400AF074B1B6803F40033B3F5003F7B
:100CB0000CBF01230023DBB21846BD465DF8047B60
:100CC000704700BF0038024080B483B000AF786046
:100CD000064B9B6823F0030204497B6813438B6037
:100CE00000BF0C37BD465DF8047B704700380240FA
:100CF00080B400AF044B9B6803F00C031846BD465C
:100D00005DF8047B704700BF0038024080B483B0B8
:100D100000AF7860064B9B6823F0F00204497B68C3
:100D200013438B6000BF0C37BD465DF8047B7047F2
:100D30000038024080B483B000AF7860064B9B68F7
:100D400023F4E05204497B6813438B6000BF0C37E7
:100D5000BD465DF8047B70470038024080B483B024
:100D600000AF7860064B9B6823F4604204497B68BF
:100D700013438B6000BF0C37BD465DF8047B7047A2
:100D80000038024080B483B000AF7860094BD3F8DC
:100D900090207B681B0CDB431A407B689BB20549A3
:100DA0001343C1F8903000BF0C37BD465DF8047B9B
:100DB000704700BF0038024080B483B000AF786055
:100DC000094BD3F890207B681B0CDB431A407B68EF
:100DD0009BB205491343C1F8903000BF0C37BD46A4
:100DE0005DF8047B704700BF0038024080B483B0D8
:100DF00000AF7860094BD3F890207968084B0B401E
:100E0000DB431A407B681B0404491343C1F890304C
:100E100000BF0C37BD465DF8047B704700380240C8
:100E20000000FFFF80B483B000AF7860074BD3F8B9
:100E30008C3023F0807205497B681343C1F88C30F5
:100E400000BF0C37BD465DF8047B70470038024098
:100E500080B400AF054B1B68044A43F080731360F5
:100E600000BFBD465DF8047B704700BF00380240FC
:100E700080B400AF074B1B6803F00073B3F1007F31
:100E80000CBF01230023DBB21846BD465DF8047B8E
:100E9000704700BF0038024080B485B000AFF860F2
:100EA000B9607A603B600A4B5A680A4B1340F96894
:100EB000BA6811437A68920111433A680A430449B7
:100EC00013434B6000BF1437BD465DF8047B704789
:100ED000003802400080BCFF80B485B000AF78606D
:100EE000084B1A6B07497B6813430B63054B1A6B5E
:100EF0007B681340FB60FB6800BF1437BD465DF89C
:100F0000047B70470038024080B485B000AF786041
:100F1000084B1A6C07497B6813430B64054B1A6C2A
:100F20007B681340FB60FB6800BF1437BD465DF86B
:100F3000047B70470038024080B485B000AF786011
:100F4000084B5A6C07497B6813434B64054B5A6C3A
:100F50007B681340FB60FB6800BF1437BD465DF83B
:100F6000047B70470038024080B483B000AF7860E3
:100F7000064B1B6823F00F0204497B6813430B6088
:100F800000BF0C37BD465DF8047B7047003C024053
:100F900080B400AF044B1B6803F00F031846BD4636
:100FA0005DF8047B704700BF003C024080B400AF96
:100FB000054B1B68044A43F48033136000BFBD46F1
:100FC0005DF8047B704700BF0070004080B483B0C0
:100FD00000AF7860064B1B6823F4404204497B68ED
:100FE00013430B6000BF0C37BD465DF8047B7047B0
:100FF0000070004080B400AF074B5B6803F480438F
:10100000B3F5804F0CBF01230023DBB21846BD4669
:101010005DF8047B704700BF0070004080B483B06F
:1010200000AF78607B681B6843F040027B681A6001
:1010300000BF0C37BD465DF8047B704780B483B0B9
:1010400000AF786039607B685B6823F010023B6812
:101050001A437B685A6000BF0C37BD465DF8047BBD
:10106000704780B483B000AF78607B685B6843F002
:1010700008027B685A6000BF0C37BD465DF8047BF0
:10108000704780B483B000AF78607B685B6823F002
:1010900008027B685A6000BF0C37BD465DF8047BD0
:1010A000704780B483B000AF78607B681B6823F022
:1010B00080027B681A6000BF0C37BD465DF8047B78
:1010C0007047000080B485B000AF786039603B683D
:1010D000012B28D03B68042B23D03B68102B1ED05B
:1010E0003B68402B19D03B68B3F5807F13D03B6839
:1010F000B3F5806F0DD03B68B3F5805F07D03B68D8
:10110000B3F5803F01D107230EE008230CE006234E
:101110000AE0052308E0042306E0032304E0022399
:1011200002E0012300E00023FB737B6818331946BB
:10113000FB7B0B4AD35C0B44BB60BB681A68FB7B30
:101140000849CB5C194604238B40DB431A40BB683B
:101150001A6000BF1437BD465DF8047B704700BFBE
:10116000F84401080445010880B485B000AF7860F8
:1011700039603B68012B28D03B68042B23D03B68A7
:10118000102B1ED03B68402B19D03B68B3F5807FF5
:1011900013D03B68B3F5806F0DD03B68B3F5805F2B
:1011A00007D03B68B3F5803F01D107230EE0082349
:1011B0000CE006230AE0052308E0042306E00323ED
:1011C00004E0022302E0012300E00023FB737B68BC
:1011D00018331946FB7B0A4AD35C0B44BB60BB68DF
:1011E0001A68FB7B0749CB5C194608238B401A43DE
:1011F000BB681A6000BF1437BD465DF8047B7047BA
:10120000F84401080445010880B483B000AF786059
:1012100039607B689A68064B13403A681A437B68CA
:101220009A6000BF0C37BD465DF8047B704700BF75
:10123000F8BFFEFF80B483B000AF786039607B6890
:101240005B6823F070023B681A437B685A6000BFFA
:101250000C37BD465DF8047B704780B483B000AFA7
:10126000786039607B685B6823F470023B681A43DE
:101270007B685A6000BF0C37BD465DF8047B704741
:1012800080B483B000AF78607B689B6823F08002F5
:101290007B689A6000BF0C37BD465DF8047B7047E1
:1012A00080B483B000AF78607B681B6843F00102B4
:1012B0007B681A6000BF0C37BD465DF8047B704741
:1012C00080B483B000AF786039607B681B6823F41A
:1012D000F8123B681B041A437B681A6000BF0C3786
:1012E000BD465DF8047B704780B483B000AF786082
:1012F00039607B681B6823F078723B685B051A4392
:101300007B681A6000BF0C37BD465DF8047B7047F0
:1013100080B483B000AF78607B689B6843F4804200
:101320007B689A6000BF0C37BD465DF8047B704750
:1013300080B483B000AF786039607B689B6823F429
:1013400000423B681A437B689A6000BF0C37BD4679
:101350005DF8047B704780B483B000AF78607B6831
:101360005B6823F490427B685A607B689B6823F03B
:101370002A027B689A6000BF0C37BD465DF8047B8B
:10138000704780B483B000AF78607B685B6823F4FB
:1013900090427B685A607B689B6823F022027B68DE
:1013A0009A607B689B6843F008027B689A6000BF84
:1013B0000C37BD465DF8047B704780B483B000AF46
:1013C000786039607B683A689A6100BF0C37BD4627
:1013D0005DF8047B704780B483B000AF78603960FB
:1013E0003B681A047B689A6100BF0C37BD465DF804
:1013F000047B704780B500AF4FF08050FFF784FD4D
:101400004FF48040FFF798FD0320FFF74FF9FFF7F7
:1014100071F9034600220F211846FFF7C1F9034670
:1014200019464FF0FF30FFF791F900F02DF801F069
:10143000FFF901F0A1F900F0DDFA00F04FFB00F038
:10144000D9FB00F089FC00F06FF800F003FD00F01C
:10145000E3FE00F0BBFF00F07BFD01F02DF801F092
:1014600017F900F0B5F900F063FA00F04DFE00F056
:1014700091FE01F0A9F801F09FFE01F0ABFE01F032
:10148000BCFE00BFFDE7000080B500AF0620FFF7FF
:101490006BFD00BFFFF77CFD0346062BFAD14FF42E
:1014A0004040FFF793FDFFF781FDFFF7E9FB00BF29
:1014B000FFF7F6FB0346012BFAD10023C0220C21D3
:1014C0004FF48000FFF7E8FCFFF7C2FC00BFFFF716
:1014D000CFFC0346012BFAD100BFFFF78BFD03467B
:1014E000002BFAD00020FFF711FC4FF4A050FFF7BB
:1014F00021FC4FF40040FFF731FC0220FFF7E4FB32
:1015000000BFFFF7F5FB0346082BFAD105480EF0A4
:1015100079FB04480EF0AAFB0020FFF783FC00BF14
:1015200080BD00BF00C2EB0B80B592B000AF07F1E9
:101530003C0300221A605A609A6007F128030022D7
:101540001A605A609A60DA601A6107F11803002283
:101550001A605A609A60DA603B4600221A605A604C
:101560009A60DA601A615A614FF48070FFF7E4FC08
:101570000420FFF7B1FC0220FFF7AEFC01233B6023
:1015800003237B6000233B613B46194684480DF0F2
:10159000E2F802233B6003237B6000233B613B4670
:1015A00019467F480DF0D7F804233B6003237B6086
:1015B00000233B613B46194679480DF0CCF80823DF
:1015C0003B6003237B6000233B613B461946744824
:1015D0000DF0C1F810233B6003237B6000233B61C7
:1015E0003B4619466E480DF0B6F820233B600323B6
:1015F0007B6000233B613B46194669480DF0ABF820
:1016000001233B6003237B6000233B613B4619467B
:1016100064480DF0A0F802233B6003237B600023A5
:101620003B613B4619465F480DF095F800220021CA
:101630005D48FFF779FA002200215B48FFF778F94F
:10164000002200215848FFF74BFA4FF48072002126
:101650005548FFF791F9002200215348FFF7B0F9F0
:101660004FF4806200215048FFF7CEF94FF400623A
:1016700000214D48FFF7ECF94FF4005200214A4891
:10168000FFF70AFA00214848FFF772FA0023FB63CC
:1016900000233B644FF480737B6407F13C031946DD
:1016A00042480CF0DFFE0023BB624FF4E003FB6214
:1016B00000233B6300237B634FF44073BB6307F15C
:1016C0002803194639480CF0F9FE00213748FFF786
:1016D000D0F84FF48033BB610023FB6107F118039E
:1016E000194633480CF076FE0A224FF400712F4859
:1016F000FFF789F801220A212C48FFF7CDF82D4A7F
:1017000040F205212948FFF77EF8012229492748A0
:10171000FFF7C2F8284A40F20A212448FFF773F87D
:10172000012225492148FFF7B7F8244A40F20F214A
:101730001E48FFF768F8012220491C48FFF7ACF863
:101740001F4A4FF405711948FFF75DF801221C4943
:101750001648FFF7A1F81B4A40F219211348FFF77A
:1017600052F8012217491148FFF796F8164A4FF42C
:1017700080710E48FFF747F8012213490B48FFF725
:101780008BF8124A40F205110848FFF73CF8012295
:101790000E490648FFF780F800BF4837BD4680BDB8
:1017A00000080240000402400064024000200140A2
:1017B000002301400B0030000C0060000D00900081
:1017C0000E00C0000F00F000080080030900B00305
:1017D00080B58EB000AF07F12C0300221A605A606A
:1017E0009A6007F1180300221A605A609A60DA6062
:1017F0001A613B4600221A605A609A60DA601A61E8
:101800005A614FF40070FFF797FB0120FFF764FB6C
:1018100004233B6003237B6000233B613B46194666
:101820003E480CF098FF08233B6003237B600023B5
:101830003B613B46194639480CF08DFF4FF0007272
:1018400002213748FFF770F9002202213448FFF7E0
:101850006FF8002202213248FFF742F94FF48072FC
:1018600002212F48FFF788F8002202212C48FFF7B9
:10187000A7F84FF4806202212948FFF7C5F84FF41A
:10188000006202212648FFF7E3F84FF400520221DC
:101890002348FFF701F902212148FFF769F90023E6
:1018A000FB6200233B634FF480737B6307F12C03DF
:1018B00019461C480CF0D6FD0023BB614FF4801381
:1018C000FB6100233B6200237B624FF44073BB62E9
:1018D00007F11803194613480CF0F0FD4FF480612E
:1018E0001048FEF7C6FF104A4FF400710D48FEF78E
:1018F0008AFF01220C490B48FEF7CEFF0B4A40F24B
:1019000005210848FEF77FFF012208490548FEF738
:10191000C3FF00BF3837BD4680BD00BF0000024096
:1019200000640240002101400300900202006002B6
:1019300080B58EB000AF07F12C0300221A605A6008
:101940009A6007F1180300221A605A609A60DA6000
:101950001A613B4600221A605A609A60DA601A6186
:101960005A614FF48060FFF7E7FA0120FFF7B4FAFD
:1019700002233B6003237B6000233B613B46194607
:1019800019480CF0E8FE0023FB6200233B630023B0
:101990007B6307F12C03194614480CF063FD002308
:1019A000BB610023FB6100233B6200237B620023B9
:1019B000BB6207F1180319460C480CF07FFD4FF489
:1019C00080610A48FEF755FF094A4FF40071074845
:1019D000FEF719FF002206490448FEF75DFF00BF2D
:1019E0003837BD4680BD00BF0000024000220140E4
:1019F0000100300280B58EB000AF07F11C03002259
:101A00001A605A609A60DA601A615A619A613B1DE5
:101A100000221A605A609A60DA601A615A614FF4C3
:101A20004030FFF7E3F90220FFF756FA40237B60CE
:101A30000223BB600323FB6001233B6100237B6126
:101A40000423BB613B1D194621480CF084FE802312
:101A50007B600223BB600323FB6001233B61002307
:101A60007B610423BB613B1D194619480CF073FED2
:101A70004FF40010FFF748FA1648FFF7F1F800227C
:101A800000211448FFF7C4F81248FFF7D9F81148AD
:101A9000FFF7AEF80F48FFF79BF80023FB610E4BF2
:101AA0003B6200237B620023BB620023FB620023B6
:101AB0003B6300237B6307F11C03194605480CF0C8
:101AC00061FF0448FFF774F800BF3837BD4680BD9A
:101AD0000004024000540040FF63106080B590B0E5
:101AE00000AF07F118032822002118460FF02CF848
:101AF0003B4600221A605A609A60DA601A615A61A5
:101B00004FF48050FFF718FA0120FFF7E5F9102392
:101B10003B6002237B600323BB600023FB60002348
:101B20003B6105237B613B46194630480CF013FEB0
:101B300020233B6002237B600323BB600023FB6008
:101B400000233B6105237B613B46194627480CF087
:101B500002FE40233B6002237B600323BB60002323
:101B6000FB6000233B6105237B613B4619461F4810
:101B70000CF0F1FD80233B6002237B600323BB60FC
:101B80000023FB6000233B6105237B613B46194634
:101B900016480CF0E0FD0023BB614FF48273FB613B
:101BA0004FF4E0633B6200237B620023BB620023AF
:101BB000FB6200233B6300237B630023BB6307239B
:101BC000FB6307F11803194609480DF0B3FA002129
:101BD0000748FFF733FA0648FFF743FA0448FFF7D0
:101BE0001DFA00BF4037BD4680BD00BF0000024067
:101BF0000030014080B590B000AF07F118032822F3
:101C0000002118460EF0A0FF3B4600221A605A60E1
:101C10009A60DA601A615A614FF48040FFF774F9F4
:101C20000220FFF759F94FF400533B6002237B6019
:101C30000323BB600023FB6000233B6105237B6122
:101C40003B46194641480CF086FD4FF480433B600B
:101C500002237B600323BB600023FB6000233B6106
:101C600005237B613B46194638480CF074FD4FF460
:101C700000433B6002237B600323BB600023FB60C7
:101C800000233B6105237B613B4619462F480CF03E
:101C900062FD4FF0905201212D48FEF745FF0022D2
:101CA00001212B48FEF744FE4FF440320121284821
:101CB000FEF716FF4FF4807201212548FEF75CFE07
:101CC000002201212248FEF77BFE4FF480620121B1
:101CD0001F48FEF799FE4FF4006201211C48FEF7F1
:101CE000B7FE4FF4005201211948FEF7D5FE01213D
:101CF0001748FEF73DFF0023BB614FF48273FB6181
:101D00004FF470633B6200237B620023BB624FF49D
:101D10000073FB6200233B6300237B630023BB63F0
:101D20000723FB6307F1180319460A480DF002FA6E
:101D300000210848FFF782F90648FFF792F90548A5
:101D4000FFF76CF900BF4037BD4680BD000402407C
:101D5000006002400038004080B590B000AF07F14D
:101D600018032822002118460EF0EEFE3B46002202
:101D70001A605A609A60DA601A615A614FF4004042
:101D8000FFF7C2F80420FFF7A7F84FF480633B6029
:101D900002237B600323BB600023FB6000233B61C5
:101DA00006237B613B46194628480CF0D4FC4FF4CF
:101DB00000633B6002237B600323BB600023FB6066
:101DC00000233B6106237B613B4619461F480CF00C
:101DD000C2FC4FF480533B6002237B600323BB6053
:101DE0000023FB6000233B6106237B613B461946D1
:101DF00016480CF0B0FC0023BB614FF48273FB610A
:101E00004FF4E0633B6200237B620023BB624FF42C
:101E10000073FB6200233B6300237B630023BB63EF
:101E20000723FB6307F11803194609480DF082F9EF
:101E300000210748FFF702F90548FFF712F90448A7
:101E4000FFF7ECF800BF4037BD4680BD00080240F8
:101E5000003C004080B590B000AF07F11803282285
:101E6000002118460EF070FE3B4600221A605A60B0
:101E70009A60DA601A615A614FF40050FFF75CF81B
:101E80001020FFF729F84FF480533B6002237B605A
:101E90000323BB600023FB6000233B6105237B61C0
:101EA0003B46194628480CF056FC4FF400533B6063
:101EB00002237B600323BB600023FB6000233B61A4
:101EC00005237B613B4619461F480CF044FC4FF448
:101ED00080433B6002237B600323BB600023FB60E5
:101EE00000233B6105237B613B46194616480CF0F5
:101EF00032FC0023BB614FF48273FB614FF4E0635B
:101F00003B6200237B620123BB624FF40073FB62E0
:101F100020233B6300237B630023BB630723FB6316
:101F200007F11803194609480DF004F90021074884
:101F3000FFF784F80548FFF7A4F80448FFF76EF8A8
:101F400000BF4037BD4680BD001002400034014054
:101F500080B590B000AF07F1180328220021184681
:101F60000EF0F2FD3B4600221A605A609A60DA6079
:101F70001A615A614FF40010FEF7DEFF0220FEF7EF
:101F8000ABFF08233B6002237B600323BB6000237D
:101F9000FB6000233B6108237B613B4619465748A1
:101FA0000CF0D9FB10233B6002237B600323BB6052
:101FB0000023FB6000233B6108237B613B461946FD
:101FC0004E480CF0C8FB20233B6002237B600323B8
:101FD000BB600023FB6000233B6108237B613B4621
:101FE000194646480CF0B7FB4FF0007205214448F3
:101FF000FEF79AFD402205214148FEF799FC4FF477
:10200000403205213E48FEF76BFD002205213C4889
:10201000FEF7B2FC002205213948FEF7D1FC4FF44F
:10202000806205213648FEF7EFFC00220521344886
:10203000FEF70EFD002205213148FEF72DFD05219A
:102040002F48FEF795FD4FF0007206212C48FEF751
:102050006BFD002206212A48FEF76AFC4FF440324D
:1020600006212748FEF73CFD002206212448FEF702
:1020700083FC002206212248FEF7A2FC4FF4806276
:1020800006211F48FEF7C0FC002206211C48FEF76F
:10209000DFFC002206211A48FEF7FEFC0621184844
:1020A000FEF766FD0023BB614FF48273FB614FF4C2
:1020B000E0633B6200237B620023BB624FF400734A
:1020C000FB6200233B6300237B630023BB63072386
:1020D000FB6307F1180319460A480DF02BF800219D
:1020E0000848FEF7ABFF0748FEF7BBFF0548FEF7C1
:1020F00095FF00BF4037BD4680BD00BF00040240D1
:10210000006402400054014080B586B000AF3B1D22
:1021100000221A605A609A60DA601A610120FEF7A4
:102120000BFFFEF7E7FA0346002200211846FEF7F0
:1021300037FB034619461920FEF708FB1920FEF766
:10214000E7FA0023BB800023BB604FF6FF73FB6000
:1021500000233B6100237B613B1D19460C480DF0B9
:10216000DDF80B48FEF79DFF00210948FFF74CF80A
:1021700000210748FFF75EF800210548FFF76DF8DA
:102180000348FFF77DF800BF1837BD4680BD00BF8C
:102190000000014080B586B000AF3B1D00221A60F0
:1021A0005A609A60DA601A610120FEF7ADFEFEF710
:1021B000A1FA0346002202211846FEF7F1FA03466F
:1021C00019461C20FEF7C2FA1C20FEF7A1FA0023D4
:1021D000BB800023BB604FF0FF33FB6000233B61FB
:1021E0003B1D19464FF080400DF098F84FF08040AD
:1021F000FEF757FF00214FF08040FFF705F8002160
:102200004FF08040FFF716F84FF08040FFF738F8A6
:1022100000BF1837BD4680BD80B594B000AF07F150
:102220003C0300221A605A609A60DA601A6107F172
:102230001C032022002118460EF086FC3B1D0022C4
:102240001A605A609A60DA601A615A610420FEF7D7
:102250005BFE0A23BB8700233B644CF250337B6454
:102260004FF40073BB6407F13C03194655480DF069
:1022700055F85448FEF715FF00215248FEF7C4FFF9
:1022800001215048FEF770FF6023FB6100233B6291
:1022900000237B620023BB620023FB6207F11C0367
:1022A0001A46012147480DF0D3F801214548FEF7B1
:1022B00009FF10214348FEF757FF07F11C031A4698
:1022C000102140480DF0C4F810213E48FEF7FAFEF8
:1022D0004FF480713B48FEF747FF07F11C031A4695
:1022E0004FF4807137480DF0B3F84FF480713548E2
:1022F000FEF7E8FE4FF480513248FEF735FF07F154
:102300001C031A464FF480512E480DF0A1F84FF4EB
:1023100080512C48FEF7D6FE00212A48FEF78AFF9E
:102320002848FEF7ADFF0820FEF7D6FD4FF4805396
:102330007B600223BB600023FB6000233B61002322
:102340007B610223BB613B1D19461F480CF003FA59
:102350004FF400537B600223BB600023FB6000232B
:102360003B6100237B610223BB613B1D194616487C
:102370000CF0F1F94FF480437B600223BB60002333
:10238000FB6000233B6100237B610223BB613B1D9B
:1023900019460D480CF0DFF94FF400437B6002232F
:1023A000BB600023FB6000233B6100237B610223B1
:1023B000BB613B1D194604480CF0CDF900BF5037F6
:1023C000BD4680BD00080040000C024080B58EB0C4
:1023D00000AF07F11C0300221A605A609A60DA60AD
:1023E0001A615A619A613B1D00221A605A609A6014
:1023F000DA601A615A614FF04050FEF7DDFC4FF091
:102400008040FEF781FD1020FEF766FD80237B6093
:102410000223BB600323FB6000233B6101237B613C
:102420000823BB613B1D194621480CF094F94FF479
:1024300080737B600223BB600323FB6000233B614E
:1024400000237B610823BB613B1D194618480CF033
:1024500082F9FEF74FF9034600220B211846FEF7DA
:102460009FF9034619465220FEF770F95220FEF7F5
:102470004FF94FF4E133FB6100233B6200237B62A1
:102480000023BB620C23FB6200233B6300237B63BE
:1024900007F11C03194607480DF0FAFA0548FEF744
:1024A0005AFF0448FEF7FCFE00BF3837BD4680BD2A
:1024B000001002400078004080B58EB000AF07F1F8
:1024C0001C0300221A605A609A60DA601A615A612D
:1024D0009A613B1D00221A605A609A60DA601A61A4
:1024E0005A614FF44030FEF74DFC1020FEF724FDFA
:1024F0000120FEF7F1FC4FF400737B600223BB6008
:102500000323FB6000233B6100237B610723BB6146
:102510003B1D19462A480CF01EF94FF480637B607E
:102520000223BB600323FB6000233B6100237B612C
:102530000723BB613B1D194621480CF00CF94FF4F1
:1025400080537B600223BB600323FB6000233B615D
:1025500000237B610723BB613B1D194618480CF023
:10256000FAF84FF4E133FB6100233B6200237B6206
:102570000023BB620C23FB6200233B6300237B63CD
:1025800007F11C0319460F480DF082FA0D48FEF7BB
:10259000BFFE00210B48FEF7CBFE00210948FEF7E5
:1025A000A3FE00210748FEF78BFE0648FEF7D3FE88
:1025B0000448FEF775FE00BF3837BD4680BD00BF3A
:1025C000000002400010014080B58EB000AF07F15E
:1025D0001C0300221A605A609A60DA601A615A611C
:1025E0009A613B1D00221A605A609A60DA601A6193
:1025F0005A614FF44010FEF7C5FB4FF48020FEF700
:1026000083FC0220FEF768FC4FF480637B600223AA
:10261000BB600323FB6001233B6100237B61072335
:10262000BB613B1D194618480CF095F8FEF762F89F
:102630000346002200211846FEF7B2F80346194669
:102640002720FEF783F82720FEF762F84FF4E133E6
:10265000FB6100233B6200237B620023BB620823F3
:10266000FB6200237B6307F11C03194607480DF04A
:102670000FFA0648FEF785FE0448FEF711FE00BF7C
:102680003837BD4680BD00BF00040240004800400E
:1026900080B58EB000AF07F11C0300221A605A60AB
:1026A0009A60DA601A615A619A613B1D00221A60D1
:1026B0005A609A60DA601A615A614FF04060FEF722
:1026C00061FB2020FEF738FC0420FEF705FC4023C8
:1026D0007B600223BB600323FB6000233B6100237C
:1026E0007B610823BB613B1D194621480CF033F880
:1026F00080237B600223BB600323FB6000233B61DC
:1027000000237B610823BB613B1D194618480CF070
:1027100022F8FDF7EFFF034600220B211846FEF7D3
:102720003FF8034619464720FEF710F84720FDF70B
:10273000EFFF4FF4E133FB6100233B6200237B6238
:102740000023BB620C23FB6200233B6300237B63FB
:1027500007F11C03194607480DF09AF90548FEF7E2
:10276000FAFD0448FEF79CFD00BF3837BD4680BD2A
:10277000000802400014014080B500AF4FF4800013
:10278000FEF7AAFB4FF40010FEF7A6FBFDF7B2FF21
:102790000346002200211846FEF702F803461946B8
:1027A0000C20FDF7D3FF0C20FDF7B2FFFDF7A2FFD1
:1027B000034600220A211846FDF7F2FF0346194698
:1027C0003820FDF7C3FF3820FDF7A2FFFDF792FF89
:1027D000034600220A211846FDF7E2FF0346194688
:1027E0003A20FDF7B3FF3A20FDF792FFFDF782FF95
:1027F0000346002209211846FDF7D2FF0346194679
:102800004420FDF7A3FF4420FDF782FFFDF772FF90
:102810000346002201211846FDF7C2FF0346194670
:102820004520FDF793FF4520FDF772FF00BF80BDF7
:1028300080B586B000AF3B4600221A605A609A60AD
:10284000DA601A615A611020FEF746FB0420FEF799
:1028500043FB8020FEF740FB0120FEF73DFB0220FA
:10286000FEF73AFB0820FEF737FB0421BF48FEF7CE
:10287000B2FD0821BD48FEF7AEFD1021BB48FEF7B2
:10288000AAFD2021B948FEF7A6FD4021B748FEF772
:10289000A2FD4FF40051B648FEF79DFD4FF4804174
:1028A000B348FEF798FD4FF40041B148FEF793FDA1
:1028B0004FF40061AD48FEF78EFD4FF40061AD4866
:1028C000FEF789FD4FF40041AA48FEF784FD01217F
:1028D000A948FEF780FD0221A748FEF77CFD1021E4
:1028E000A548FEF778FD2021A348FEF774FD40219E
:1028F000A148FEF770FD0421A048FEF75EFD4FF4ED
:1029000080619A48FEF759FD4FF400419748FEF761
:1029100054FD4FF480519948FEF74FFD4FF48071FC
:102920009548FEF74AFD4FF400719348FEF745FDC8
:102930004FF480619048FEF740FD04218E48FEF779
:102940003CFD80218C48FEF738FD4FF480718B48A8
:10295000FEF733FD4FF400718848FEF72EFD01218C
:102960008248FEF72AFD02218048FEF726FD042357
:102970003B6001237B600023BB600023FB600023DE
:102980003B613B46194679480BF0E5FE08233B6066
:1029900001237B600023BB600023FB6000233B61BD
:1029A0003B46194671480BF0D6FE10233B600123CD
:1029B0007B600023BB600023FB6000233B613B4640
:1029C00019466A480BF0C7FE20233B6001237B6059
:1029D0000023BB600023FB6000233B613B4619469C
:1029E00062480BF0B8FE40233B6001237B6000236C
:1029F000BB600023FB6000233B613B4619465B48FC
:102A00000BF0A9FE4FF400533B6001237B600023D1
:102A1000BB600023FB6000233B613B4619465448E2
:102A20000BF099FE4FF480433B6001237B60002351
:102A3000BB600023FB6000233B613B4619464C48CA
:102A40000BF089FE4FF400433B6001237B600023C1
:102A5000BB600023FB6000233B613B4619464448B2
:102A60000BF079FE04233B6001237B600023BB60F5
:102A70000023FB6000233B613B4619463F480BF0B7
:102A80006AFE4FF480633B6001237B600023BB60E0
:102A90000023FB6000233B613B46194633480BF0A3
:102AA0005AFE4FF400633B6001237B600023BB6050
:102AB0000023FB6000233B613B4619462B480BF08B
:102AC0004AFE4FF400433B6001237B600023BB6060
:102AD0000023FB6000233B613B46194623480BF073
:102AE0003AFE4FF480533B6001237B600023BB60C0
:102AF0000023FB6000233B613B4619461F480BF057
:102B00002AFE4FF480733B6001237B600323BB608C
:102B10000023FB6000233B613B46194616480BF03F
:102B20001AFE4FF400733B6001237B600323BB60FC
:102B30000023FB6000233B613B4619460E480BF027
:102B40000AFE4FF480633B6001237B600323BB607C
:102B50000023FB6000233B613B46194606480BF00F
:102B6000FAFD4FF400633B600AE000BF0010024032
:102B70000008024000000240000C02400004024035
:102B800000237B6000233B613B4619467E480BF0E7
:102B9000E2FD4FF480733B6000237B6000233B61C8
:102BA0003B46194679480BF0D6FD4FF400733B6065
:102BB00000237B6000233B613B46194673480BF0C2
:102BC000CAFD4FF480733B6000237B6000233B61B0
:102BD0003B4619466E480BF0BEFD4FF400633B6068
:102BE00001237B600023BB600023FB6000233B616B
:102BF0003B46194666480BF0AEFD4FF400433B6080
:102C000001237B600023BB600023FB6000233B614A
:102C10003B4619465E480BF09EFD01233B600123B5
:102C20007B600023BB600023FB6000233B613B46CD
:102C3000194655480BF08FFD02233B6001237B6052
:102C40000023BB600023FB6000233B613B46194629
:102C50004D480BF080FD04233B6001237B60002383
:102C6000BB600023FB6000233B613B46194646489E
:102C70000BF071FD08233B6000237B6000233B6168
:102C80003B46194640480BF066FD10233B6001238C
:102C90007B600023BB600023FB6000233B613B465D
:102CA000194639480BF057FD20233B6001237B6018
:102CB0000023BB600023FB6000233B613B461946B9
:102CC00031480BF048FD40233B6001237B6000232B
:102CD000BB600023FB6000233B613B4619462A484A
:102CE0000BF039FD80233B6001237B600023BB6038
:102CF0000023FB6000233B613B46194622480BF052
:102D00002AFD4FF480733B6001237B600023BB608E
:102D10000023FB6000233B613B4619461D480BF036
:102D20001AFD4FF400733B6001237B600023BB60FE
:102D30000023FB6000233B613B46194615480BF01E
:102D40000AFD01233B6001237B600023BB6000235D
:102D5000FB6000233B613B4619460F480BF0FBFC30
:102D600002233B6001237B600023BB600023FB60E8
:102D700000233B613B46194607480BF0ECFC00BFC3
:102D80001837BD4680BD00BF000C0240000802405D
:102D900000000240000402400010024080B400AF76
:102DA00000BFFDE780B400AF00BFFDE780B400AF17
:102DB00000BFFDE780B400AF00BFFDE780B400AF07
:102DC00000BFFDE780B400AF00BFBD465DF8047BE7
:102DD000704780B400AF00BFBD465DF8047B70470C
:102DE00080B400AF00BFBD465DF8047B704780B57E
:102DF00000AF0BF06FFA00BF80BD80B400AF0123BD
:102E00001846BD465DF8047B704780B582B000AFC0
:102E1000786039600DF0F8FE034616221A604FF014
:102E2000FF3318460837BD4680BD80B582B000AF7D
:102E300078604FF0FF317868FFF7E7FF00BFFDE7EC
:102E400080B586B000AFF860B9607A6000237B611E
:102E50000AE0AFF300800146BB685A1CBA60CAB2F0
:102E60001A707B6901337B617A697B689A42F0DB77
:102E70007B6818461837BD4680BD80B586B000AF68
:102E8000F860B9607A6000237B6109E0BB685A1C76
:102E9000BA601B781846AFF300807B6901337B6111
:102EA0007A697B689A42F1DB7B6818461837BD4621
:102EB00080BD80B483B000AF78604FF0FF33184618
:102EC0000C37BD465DF8047B704780B483B000AF1B
:102ED000786039603B684FF400525A60002318460E
:102EE0000C37BD465DF8047B704780B483B000AFFB
:102EF0007860012318460C37BD465DF8047B7047A7
:102F000080B485B000AFF860B9607A6000231846DD
:102F10001437BD465DF8047B7047000080B586B06D
:102F200000AF7860144A154BD31A7B617B693B6113
:102F3000134B1B68002B02D1114B124A1A60104B25
:102F40001A687B6813443A699A4207D20DF05CFE16
:102F500003460C221A604FF0FF3309E0084B1B6850
:102F6000FB60074B1A687B681344054A1360FB68D3
:102F700018461837BD4680BD000008200004000038
:102F8000C48300207057012080B400AF064BD3F8F3
:102F90008830054A43F47003C2F8883000BFBD464C
:102FA0005DF8047B704700BF00ED00E0DFF834D02F
:102FB000FFF7EAFF0C480D490D4A002302E0D45800
:102FC000C4500433C4188C42F9D30A4A0A4C002373
:102FD00001E013600432A242FBD30DF01BFEFEF7AA
:102FE00009FA70470000082000000020A883002094
:102FF000E04E0108A883002070570120FEE780B54D
:1030000082B000AF7860396005F05AF804F086FFAE
:103010007B6814330A220A2118460BF017F900BF07
:103020000837BD4680BD000080B584B002AF78602F
:1030300039607B68002B03D100210E4804F09EFB11
:1030400078683B685A683B689B68009313460A4A55
:103050000A490BF06DF87B6814337A68152118461D
:103060000BF0D2F83B681A687B685A6200BF0837D9
:10307000BD4680BD28450108E5300008FF2F000847
:1030800080B586B002AF02230093042308220949C9
:1030900009480AF0ACFD094A3B1D07CA83E807004E
:1030A0003B1D19460648FFF7BFFF00BF1037BD465E
:1030B00080BD00BF0884002010840020D82A0108A9
:1030C000C883002080B582B000AF0346FB71FB7956
:1030D000194603480BF046F800BF0837BD4680BDCF
:1030E000C883002090B585B000AF786039603B6838
:1030F0001B88152B06D0152B35DC132B08D0142B71
:103100001DD030E004F0E6FF04F04CFF01232BE07B
:103110000023FB730EE0FB7BFC7B184604F0E0FF12
:10312000034619467B6804F1140223F81210FB7B56
:103130000133FB73FB7B072BEDD9012314E0002344
:10314000BB730DE0BB7B184604F0D4FE0346BA7B8C
:1031500019B27B681C3223F81210BB7B0133BB739E
:10316000BB7B012BEED9022318461437BD4690BD18
:1031700080B483B000AF7860054A7B681C3332F9B5
:10318000133018460C37BD465DF8047B704700BF0E
:10319000C883002080B483B000AF7860054A7B68A4
:1031A000143332F9133018460C37BD465DF8047BF2
:1031B000704700BFC883002080B500AF02F0EAFF6F
:1031C00003F04AFCFFF75CFF00F08EF800F0AEFD64
:1031D00000BF80BD80B500AF012000F0A7F804203B
:1031E00003F00AF8022003F05DFC0320FFF76AFFFA
:1031F000052000F0C1FD00BF80BD80B500AF0AF022
:1032000049FF00BF80BD80B582B000AF78603960F3
:1032100004F0B2FD05F08AFD05F038FA7B68012262
:1032200083F855207B68002283F85A2000BF0837B6
:10323000BD4680BD80B584B000AF786039607B68E2
:103240005B69FB607B685B6939687868984703460F
:10325000FB72FB7A002B08D1FB6806497868984717
:103260007B685B6904497868984700BF1037BD46A2
:1032700080BD00BF584501084445010880B584B0B1
:1032800002AF786039607B68002B03D100211348BE
:1032900004F074FA78683B685A683B689B6800934E
:1032A00013460F4A0F490AF043FF3B681A687B68D0
:1032B0005A617B6818337A68162118460AF0A4FF11
:1032C0007B68183318460AF0E1FF3B681A7B7B687D
:1032D00083F8502000BF0837BD4680BD3445010843
:1032E000353200080732000890B587B002AF1223CC
:1032F000009302232422094909480AF078FC094B6B
:103300003C460FCB84E80F003B4619460648FFF7C2
:10331000B5FF00BF1437BD4690BD00BFB8A4002064
:10332000DCA40020E42A01082C84002080B582B0AF
:1033300000AF0346FB71FB79194603480AF012FF00
:1033400000BF0837BD4680BD2C84002080B582B008
:1033500000AF786039603B681B88182B12D0182B9F
:1033600015DC012B02D0172B07D010E07B68183337
:1033700018460AF08BFF01230AE07B68064A5A616F
:10338000002305E07B68054A5A61002300E0022320
:1033900018460837BD4680BDA133000865350008D2
:1033A00080B58CB002AF786039603B681B88013B08
:1033B0001A2B00F2C58001A252F823F0293400082C
:1033C00041350008A73400084135000841350008A0
:1033D00041350008413500084135000841350008F5
:1033E00041350008413500084135000841350008E5
:1033F00041350008413500084135000841350008D5
:1034000041350008413500084135000841350008C4
:103410002F3500084135000841350008B534000853
:10342000D5340008F5340008484B3B6284230093F0
:10343000474B3A6A474948480AF04FFB7B681833C4
:10344000002244F6206118460AF000FF7B6893F8DA
:103450002A301946786800F044FA786800F05AFA81
:103460007B68DB6AFB607B681B6B3B617B685B6B2B
:103470007B617B681B8DBB617B6893F82A30FB61A5
:103480007B6893F82B30184604F0E0FC07F10C033E
:10349000184605F0C3F805F0ADFA7B68002283F802
:1034A000502001234DE07B68183318460AF0EEFEE9
:1034B000012346E07B6893F85030002B04D17B68F1
:1034C000012283F8502003E07B68032283F8502018
:1034D000012336E07B6893F85030012B04D17B68E0
:1034E000022283F8502003E07B68032283F85020F7
:1034F000012326E07B6893F85030022B04D17B68CF
:10350000052283F8502003E07B68032283F85020D3
:103510000E4B7B62BC2300930D4B7A6A0F490E4819
:103520000AF0DBFA7B680E4A5A61002309E07B68E7
:10353000042283F850207B68094A5A61002300E086
:10354000022318462837BD4680BD00BFF42A010873
:10355000FC2A0108242B0108C8AB0020442B0108D9
:103560004D33000880B582B000AF786039603B68A9
:103570001B88013B1D2B00F2A88001A252F823F00A
:10358000F9350008CB360008CB360008CB360008EA
:10359000CB360008CB360008CB360008CB36000807
:1035A000CB360008CB360008CB360008CB360008F7
:1035B000CB360008CB360008CB360008CB360008E7
:1035C000CB360008CB360008CB360008CB360008D7
:1035D000CB360008CB360008CB360008CB360008C7
:1035E000CB360008CB360008CB3600084D36000835
:1035F000673600081F3600087B68183318460AF043
:1036000045FE7B689B6C334A93607B685B6C314AF8
:103610005360314931480AF0CFFD012356E02D4B6C
:103620009B68B3F5805F28BF4FF480539AB22C4B50
:103630001A80284B5B685B00294A128852001146A9
:10364000284A184605F0A4FB01233FE0264B1868E2
:10365000234B1B881A467B6893F84D30214903F0B1
:103660003BF9012332E01B4B9B681D4A12889B1AD1
:10367000184A9360174B5B68194A12881344154A1D
:103680005360144B9B68002B16D0124B9B68B3F50C
:10369000805F28BF4FF480539AB2114B1A800D4BB4
:1036A0005B685B000E4A1288520011460D4A1846AC
:1036B00005F06EFB012309E00C4908480AF07CFD87
:1036C0007B680B4A5A61002300E002231846083742
:1036D000BD4680BD908400209445010828AB0020A1
:1036E000A0A40020A0840020040000209845010828
:1036F0004D33000880B584B000AFF860B9607A60DF
:10370000FB70FB687A681A64FB68BA685A64FB68E5
:103710007A689A64FB68FA7883F84D20074B1B6837
:103720004FF6FF72A3F84220FB68054918460AF0DD
:1037300043FD002318461037BD4680BD040000201D
:103740008045010880B582B000AF78607B68DA6D93
:103750007B681A647B6800225A647B68DA6D7B6838
:103760009A647B68012283F84D20084B1B684FF652
:10377000FF72A3F842207B68054918460AF01CFD39
:10378000002318460837BD4680BD00BF0400002056
:103790008045010880B584B000AFF860B9607A60F8
:1037A000BB68012B02D87B68642B01D9062318E083
:1037B000FB6893F85530002B06D0002004F098FAEF
:1037C000FB68002283F855207968B86804F07EFB16
:1037D0007B68D9B2FA68BB68134451330A461A7041
:1037E000002318461037BD4680BD80B582B000AFBB
:1037F000786039603B68242B01D9062314E07B688C
:1038000093F85530012B06D0012004F071FA7B6843
:10381000012283F85520386804F0E4FA3B68DAB2F4
:103820007B6883F85320002318460837BD4680BDC7
:1038300080B582B000AF78607B6893F85530012B7B
:1038400006D0012004F054FA7B68012283F8552049
:1038500004F0D8FA7B68FF2283F85320002318462F
:103860000837BD4680BD80B582B000AF7860396052
:103870003B68082B01D9062314E07B6893F8553088
:10388000012B06D0012004F033FA7B68012283F873
:103890005520386804F0C0FA3B68DAB27B6883F8D8
:1038A0005420002318460837BD4680BD80B582B03D
:1038B00000AF78607B6893F85530012B06D001206B
:1038C00004F016FA7B68012283F8552004F0B4FA5C
:1038D0007B68FF2283F85420002318460837BD4632
:1038E00080BD80B582B000AF786039603B68242B22
:1038F00001D906230AE004F059FF386804F07EFF7E
:103900003B68DAB27B6883F85620002318460837F4
:10391000BD4680BD80B582B000AF786004F05AFF2C
:10392000002318460837BD4680BDB0B483B000AF51
:10393000786039603B681B88002B04D03B681B888B
:10394000B3F57A7F01D9062328E03B689B78002BEA
:1039500003D03B689B78242B01D906231EE03B68EB
:10396000DB78642B01D9062318E03B681B69B3F5AB
:10397000006F01D9062311E03B685B69002B01D180
:1039800006230BE07B683A6803F1280415460FCD47
:103990000FC495E8030084E80300002318460C37A1
:1039A000BD46B0BC7047B0B483B000AF786039603A
:1039B0003A687B68154603F128040FCC0FC594E8DC
:1039C000030085E8030000BF0C37BD46B0BC70475C
:1039D00080B584B000AF78607B682833FB60FB68FB
:1039E0001B88002B04D0FB681B88B3F57A7F01D9B4
:1039F00006231CE0FB689B78002B03D0FB689B78B8
:103A0000242B01D9062312E0FB68DB78642B01D953
:103A100006230CE0FB681B69B3F5006F01D9062390
:103A200005E07B68044918460AF0C6FB00231846E7
:103A30001037BD4680BD00BF6C45010880B582B01F
:103A400000AF78600B46FB707B68FA781146184629
:103A500009F05CFE7B680121184609F0FFFA00F0CE
:103A60000BFA02467B68C3F804227B68002283F8C5
:103A70000C227B68012283F80D22FB78032B04D8EB
:103A8000FB7804497A6841F8232000BF0837BD4617
:103A900080BD00BF3CA7002080B582B000AF786039
:103AA0007A687B6893F800321946104609F02EFEBA
:103AB0007B680121184609F0D1FA00F0DDF90246D1
:103AC0007B68C3F804227B68002283F80C2200BFC5
:103AD0000837BD4680BD80B483B000AF78603960E0
:103AE0007B683A68C3F8082200BF0C37BD465DF812
:103AF000047B704780B586B000AFF860B9607A602B
:103B0000FB687A68B968184609F060FD00F0B4F9FE
:103B10007861FB6893F8E230002B35D0FB6893F8AE
:103B2000E4301A4613465B0013449B00FA681344C2
:103B30003B613B691B687A69D31A40F6B8329342FD
:103B40001ED9FB6893F80C3283F00103DBB2002B23
:103B50001AD0FB68D3F80832002B04D0FB68D3F8E6
:103B60000832F8689847FB68012283F80C22FB684A
:103B700093F80D32002B07D0F868FFF78DFF03E0B4
:103B8000FB68002283F80C22FB687A69C3F80422E0
:103B900000BF1837BD4680BD80B483B000AF7860E9
:103BA00000BF0C37BD465DF8047B704780B500AFA1
:103BB0004FF48072084909480AF03EF94FF48072C8
:103BC000074908480AF038F9064B044A06490748ED
:103BD00009F082FE00BF80BD14A90020ECA80020DF
:103BE00014AA002000A900200078004014AB002097
:103BF00080B582B000AF786039607B68002B03D15C
:103C000001210F4803F0BAFD7B680E4A9A617B6878
:103C10009B6900211846FFF711FF0B490948FFF780
:103C20005AFF7B6824330A220A2118460AF00EFB49
:103C3000064809F06DFE00BF0837BD4680BD00BFD5
:103C40009C4501082CA50020993B000814AB0020DE
:103C500080B584B000AF786039607B68002B03D1F9
:103C60000421124803F08AFD3B68002B03D1052193
:103C70000E4803F083FD7B685B69FB607B685B69D2
:103C80003968786898470346FB72FB7A002B08D1A5
:103C9000FB680749786898477B685B6905497868DD
:103CA000984700BF1037BD4680BD00BF9C45010846
:103CB000B4450108A845010880B584B002AF78601A
:103CC00039607B68002B03D10221154803F056FDB3
:103CD00078683B68DA683B681B6900931346114AB1
:103CE00011490AF025FA7B6824337A680D211846B9
:103CF0000AF08AFA3B681A687B685A613B685A681E
:103D00007B689A613B689A687B68DA617B682433D8
:103D100018460AF0BBFA00BF0837BD4680BD00BF99
:103D20009C450108513C0008F13B0008B0B588B043
:103D300002AFFFF73BFF0C2300930A2378220A49C6
:103D40000A4809F054FF0A4B3C1D1D460FCD0FC415
:103D50002B6823603B1D19460648FFF7ADFF00BFE7
:103D60001837BD46B0BD00BF58A70020D0A700201F
:103D7000602B0108F8A4002080B582B000AF034694
:103D8000FB71FB79194603480AF0ECF900BF0837CC
:103D9000BD4680BDF8A4002080B582B000AF786039
:103DA00039607B68002B03D103211B4803F0E6FC3C
:103DB0003B681B88012B02D00D2B09D027E07B68C4
:103DC00024330A220A2118460AF040FA01231FE090
:103DD000124B4FF480721A607B68DB690F4A1049FE
:103DE000184609F0B5FD0346002B07D07B689B6998
:103DF0000A4A12680A491846FFF77CFE7B689B69ED
:103E0000002200211846FFF775FE012300E002237F
:103E100018460837BD4680BD9C45010808000020B3
:103E2000ECA7002080B582B000AF0346FB71064BC3
:103E3000DB695B6818460AF007F903469BB218462F
:103E40000837BD4680BD00BFF8A4002080B582B011
:103E500000AF03460A46FB711346BB71054BDB6995
:103E6000BA791146184609F0F2FD00BF0837BD4681
:103E700080BD00BFF8A4002080B500AF0AF078FA3A
:103E80000346184680BD000080B586B000AF39609B
:103E900011461A460346FB710B46BB7113467B71F4
:103EA0007B79032B27D87B79154A52F823303B6165
:103EB00000F09EFEF86000F0A5FEB86000237B6174
:103EC00014E07B69DB00FA6813441B78FA799A42A4
:103ED00009D17B69DB00FA6813445B68BA793968F9
:103EE0003869984708E07B6901337B617A69BB6870
:103EF0009A42E6DB00E000BF1837BD4680BD00BF38
:103F00003CA7002080B584B000AFF8607A601A4604
:103F10000B46FB721346BB72FB68BA7A1146184611
:103F200009F0F8F80346002B05D0F868BB7AF97A57
:103F30007A6809F0A7F800BF1037BD4680BD0000C1
:103F400080B500AF054BDB69184609F0FBFD034B5C
:103F5000DB69184609F018FE00BF80BDF8A40020F8
:103F600080B400AFBFF34F8F00BF064BDB6803F494
:103F7000E0620449044B1343CB60BFF34F8F00BF93
:103F800000BFFDE700ED00E00400FA0580B588B051
:103F900002AFF860B9601346FB71002300220121D3
:103FA000F868FFF7AFFF074B7B61FB79019336237E
:103FB0000093054B7A690549054809F08EFDFFF726
:103FC000CFFF00BF742B01087C2B0108A82B010830
:103FD000C8AB002080B58AB004AFF860B960134662
:103FE000FB71BB681B781A06BB6801331B781B0486
:103FF0001A43BB6802331B781B021343BA680332AF
:10400000127813437B61FB79BA680321F868FFF7E4
:1040100079FF094B3B61FB797A69029201933E2358
:104020000093064B3A690649064809F056FD00BF61
:104030001837BD4680BD00BF742B01087C2B0108DA
:10404000C42B0108C8AB002080B485B000AFF86075
:10405000B9601346FB7100BF1437BD465DF8047BA1
:10406000704780B485B000AFF860B9601346FB714B
:1040700000BF1437BD465DF8047B704780B590B033
:1040800002AFF860B9601346FB714FF63F73BB8215
:104090000023FB86BB681B781BB21B021AB2BB68ED
:1040A00001331B781BB21343BB86BB6802331B78FA
:1040B0001BB21B021AB2BB6803331B781BB213433B
:1040C0007B86BB6804331B781BB21B021AB2BB6829
:1040D00005331B781BB213433B86BB6806331B7842
:1040E00087F82F30BB6807331B7887F82E30BB6802
:1040F00008331B7887F82D30BB6809331B7887F8A5
:104100002C30BB680A331B7887F82B30BB680B3325
:104110001B781BB21B021AB2BB680C331B781BB294
:1041200013431BB23B85BB680D331B7887F82730E0
:10413000B7F93430002B0FD1FB8E0133FB861C4BBB
:104140003B62B7F9343001935D230093194B3A6A0F
:1041500019491A4809F0C1FCB7F93230002B0FD1C8
:10416000FB8E0133FB86124BFB61B7F932300193B2
:10417000622300930F4BFA691149104809F0ADFC16
:10418000B7F93030002B0FD1FB8E0133FB86084B83
:10419000BB61B7F93030019367230093054BBA69CF
:1041A0000849064809F099FC00BF3837BD4680BD74
:1041B000742B01087C2B0108FC2B0108C8AB0020E4
:1041C000182C0108342C010880B588B002AFF860C3
:1041D000B9601346FB71FF23FB740D4B7B61C92350
:1041E00000930C4B7A690C490C4809F076FC0C4B97
:1041F0001B68184602F078FE07F1130201230D2117
:10420000F868FFF77FFE00BF1837BD4680BD00BFCE
:10421000742B01087C2B0108502C0108C8AB00202E
:104220000C00002080B588B002AFF860B96013467A
:10423000FB71FF23FB740D4B7B61D12300930C4B6F
:104240007A690C490C4809F048FC0C4B1B6818466D
:1042500002F066FE07F1130201230F21F868FFF751
:1042600051FE00BF1837BD4680BD00BF742B01084A
:104270007C2B01087C2C0108C8AB00200C0000201E
:1042800080B590B002AFF860B9601346FB714FF68D
:104290003F73BB82002387F83730BB681B781BB2A3
:1042A0001B021AB2BB6801331B781BB213431BB24B
:1042B000BB86BB6802331B7887F83330BB68033397
:1042C0001B781BB21B021AB2BB6804331B781BB2EB
:1042D00013431BB23B86484BFB62DE230093474BE4
:1042E000FA6A4749474809F0F8FB474B1B681846EC
:1042F00003F0A4F8034687F82B3097F83330042BEB
:104300000FD997F83730013387F837303A4B3B6293
:10431000EA230093394B3A6A3C493A4809F0DDFBFD
:104320001FE097F83330032B1BD897F82B2097F812
:10433000333042FA03F303F00103002B11D097F856
:104340003730013387F837302B4B7B6297F83330A7
:104350000193F1230093294B7A6A2D49294809F0EA
:10436000BCFB3B8EB3F5FA7F04D33B8E40F6B832EC
:10437000934210D997F83730013387F837301E4B06
:10438000FB613B8E0193F72300931C4BFA69214993
:104390001C4809F0A2FB97F83730002B1DD197F885
:1043A0003330042B09D1144BBB61FD230093134B15
:1043B000BA691949134809F090FB134B1B6897F829
:1043C00033201146184602F0EBFE0F4B1B683A8E65
:1043D0001146184602F0FAFE03E03E233B753E23E9
:1043E0007B7507F1140202231121F868FFF78AFD9B
:1043F00000BF3837BD4680BD742B01087C2B0108F7
:10440000A82C0108C8AB00200C000020D42C010807
:10441000002D01082C2D0108602D010880B588B001
:1044200002AFF860B9601346FB71FF23FB740D4BBC
:104430007B6140F20D1300930B4B7A690B490C48DA
:1044400009F04BFB0B4B1B68184602F0E2FE07F12C
:10445000130201231321F868FFF754FD00BF18373A
:10446000BD4680BD742B01087C2B0108802D0108FE
:10447000C8AB00200C00002080B588B002AFF86007
:10448000B9601346FB71FF23FB740D4B7B6140F257
:10449000151300930B4B7A690B490C4809F01DFB6F
:1044A0000B4B1B68184602F045FF07F1130201236E
:1044B0001521F868FFF726FD00BF1837BD4680BDFF
:1044C000742B01087C2B0108A42D0108C8AB002027
:1044D0000C00002080B59AB002AFF860B9601346B6
:1044E000FB719D4BBB654FF48E7300939B4BBA6D74
:1044F0009B499C4809F0F1FA4FF63F733B85002336
:10450000A7F85E30BB681B781A06BB6801331B78BE
:104510001B041A43BB6802331B781B021343BA689F
:104520000332127813437B65BB6804331B781BB2DC
:104530001B021AB2BB6805331B781BB213431BB2B4
:10454000A7F85230BB6806331B781BB21B021AB2A5
:10455000BB6807331B781BB213431BB2A7F850305C
:10456000BB6808331B781BB21B021AB2BB68093345
:104570001B781BB213431BB2A7F84E307B6DB3F50B
:104580007A7F03D37B6D784A93420FD9B7F85E30B8
:104590000133A7F85E30704BBB644FF49473009303
:1045A0006E4BBA6C71496F4809F097FA7B6D704A8F
:1045B000A2FB03239B097B65B7F85230002B0FD178
:1045C000B7F85E300133A7F85E30634B7B6440F28E
:1045D0002F130093614B7A6C6649624809F07DFAAB
:1045E000B7F852301A465201D21A92001344DB0037
:1045F000A7F85230B7F85030002B0FD1B7F85E3023
:104600000133A7F85E30544B3B644FF49B73009327
:10461000524B3A6C5849534809F05FFAB7F850309A
:104620001A465201D21A92001344DB00A7F8503008
:10463000B7F84E30002B0FD1B7F85E300133A7F832
:104640005E30454BFB6340F23D130093434BFA6BE6
:104650004A49444809F041FAB7F84E301A46520127
:10466000D21A92001344DB00A7F84E30B7F852205C
:10467000B7F850301A44B7F84E3013441A467B6DE1
:1046800002FB03F33E4AA2FB03239B0CBB63BB6B01
:10469000B3F5006F0FD9B7F85E300133A7F85E307D
:1046A0002D4B7B6340F2451300932C4B7A6B3549BD
:1046B0002C4809F012FAB7F85E30002B3BD17B6D25
:1046C0009BB23B82B7F852307B61B7F85030BB6188
:1046D000B7F84E30FB61BB6B3B622B4A7B6DB2FB84
:1046E000F3F37B62294B1B6807F110021146184651
:1046F000FFF71BF90346002B0BD1174BFB6240F26F
:1047000053130093154BFA6A2149164809F0E5F94D
:1047100017E03E2387F828303E2387F829300E4BD8
:104720003B6340F2591300930C4B3A6B19490D4807
:1047300009F0D3F905E03E2387F828303E2387F8B7
:10474000293007F1280202231721F868FFF7DAFB66
:1047500000BF6037BD4680BD742B01087C2B01086B
:10476000C82D0108C8AB002000350C00E82D010859
:10477000D34D62101C2E01084C2E01087C2E01081E
:1047800083DE1B43AC2E010840420F0010000020C6
:10479000E02E0108082F010880B58AB002AFF8604A
:1047A000B9601346FB714FF63F733B82BB681B78C1
:1047B000FB77FB7F642B16D93E233B743E237B742F
:1047C00007F1100202231921F868FFF79BFB154B34
:1047D0007B6140F26D130093134B7A6913491448BF
:1047E00009F07BF91AE007F1100202231921F86899
:1047F000FFF788FB0F4B1B68FA7F00211846FEF776
:10480000C9FF084BBB61FB7F01934FF4B973009361
:10481000054BBA690849064809F05FF92037BD46DB
:1048200080BD00BF742B01087C2B0108302F0108CC
:10483000C8AB002010000020602F010880B58AB0AE
:1048400002AFF860B9601346FB714FF63F733B82CD
:10485000BB681B78FB77FB7F242B02D8FB7F002BE8
:1048600016D13E233B743E237B7407F110020223D2
:104870001B21F868FFF746FB144B7B614FF4BF73B5
:104880000093134B7A691349134809F026F91AE08B
:1048900007F1100202231B21F868FFF733FB0F4BCF
:1048A0001B68FA7F11461846FEF79FFF074BBB6156
:1048B000FB7F019340F283130093054BBA690849CB
:1048C000054809F00AF92037BD4680BD742B010860
:1048D0007C2B01088C2F0108C8AB002010000020A1
:1048E000B82F010880B588B002AFF860B9601346F0
:1048F000FB713F233B743E233B7407F110020123FD
:104900001C21F868FFF7FEFA074B7B614FF4C77371
:104910000093064B7A690649064809F0DEF800BFA5
:104920001837BD4680BD00BF742B01087C2B0108E1
:10493000EC2F0108C8AB002080B58EB002AFF86044
:10494000B9601346FB714FF63F733B85124B1B68F2
:1049500007F1100211461846FFF725F83B6A1B09BC
:10496000DBB287F8283007F1280202231F21F868FC
:10497000FFF7C8FA094BFB6297F82830019340F221
:104980009F130093064BFA6A0649074809F0A5F8F9
:1049900000BF3037BD4680BD10000020742B0108D9
:1049A0007C2B010814300108C8AB002080B592B000
:1049B00002AFF860B9601346FB714FF63F73BB85D9
:1049C000BB681B7887F83F30324B1B6807F1140235
:1049D00011461846FEF7E7FF7B6A1B0987F83E3051
:1049E00097F83E30002B18D13E2387F82C303E2319
:1049F00087F82D3007F12C0202232121F868FFF7F8
:104A000081FA254B3B634FF4D7730093234B3A6BEA
:104A10002349244809F061F837E097F83F2097F8D8
:104A20003E309A4218D33E2387F82C303E2387F835
:104A30002D3007F12C0202232121F868FFF762FADA
:104A4000154B7B6340F2B5130093144B7A6B1649F8
:104A5000144809F042F818E007F12C020223212142
:104A6000F868FFF74FFA04F0ADFB04F0D1FB0A4BF6
:104A7000BB6397F83F3001934FF4DE730093074B0D
:104A8000BA6B0A49074809F028F800BF4037BD460D
:104A900080BD00BF10000020742B01087C2B010892
:104AA00034300108C8AB00205030010878300108CC
:104AB00080B58CB004AFF860B9601346FB7104F0A8
:104AC00073FC0346FB83FB8B1B0A9BB2DBB23B757B
:104AD000FB8BDBB27B7507F1140202232321F868FC
:104AE000FFF710FA0A4BBB61BB681B781A46FB8BB9
:104AF000029301924FF4E4730093064BBA6906499E
:104B0000064808F0EAFF00BF2037BD4680BD00BF61
:104B1000742B01087C2B010894300108C8AB0020DD
:104B200080B485B000AFF860B9601346FB7100BF78
:104B30001437BD465DF8047B704780B485B000AF84
:104B4000F860B9601346FB7100BF1437BD465DF8CD
:104B5000047B704780B485B000AFF860B96013463D
:104B6000FB7100BF1437BD465DF8047B704780B40D
:104B700085B000AFF860B9601346FB7100BF143711
:104B8000BD465DF8047B704780B485B000AFF86027
:104B9000B9601346FB7100BF1437BD465DF8047B56
:104BA000704780B485B000AFF860B9601346FB7100
:104BB00000BF1437BD465DF8047B704780B485B0F4
:104BC00000AFF860B9601346FB7100BF1437BD46F3
:104BD0005DF8047B704780B485B000AFF860B960C1
:104BE0001346FB7100BF1437BD465DF8047B704768
:104BF00080B400AF024B1846BD465DF8047B704799
:104C0000C045010880B400AF19231846BD465DF8C1
:104C1000047B704780B400AFBFF34F8F00BF064BDB
:104C2000DB6803F4E0620449044B1343CB60BFF339
:104C30004F8F00BF00BFFDE700ED00E00400FA0564
:104C400080B588B000AFF860B9607A6007F11403EE
:104C5000074A0A2118460BF0F1FD07F11403194623
:104C6000F86806F0B4FC00BF2037BD4680BD00BF29
:104C7000B039010880B584B000AFF860B9607A60DF
:104C8000FFF7C8FF80B588B000AFF860B9607A6000
:104C90000023BB610023FB82B86806F089FD034650
:104CA0007B757B7D012B04D02E49F86807F006FF49
:104CB00054E00121B86806F045FD38613B691B7876
:104CC000612B22D10023FB771BE0FB7F1846FEF708
:104CD00061FA0346FB82B7F9163013F5004F06D18F
:104CE000FB7F1A462049F86807F0E8FE06E0FA7FE5
:104CF000B7F916301D49F86807F0E0FEFB7F013375
:104D0000FB77FB7F072BE0D928E03B691B782F2B33
:104D100020D93B691B78372B1CD838690AF0B6FFBD
:104D20000346BB61B869FEF735FA0346FB82B7F963
:104D3000163013F5004F05D1BA690B49F86807F032
:104D4000BDFE0BE0B7F91630BA690849F86807F0FC
:104D5000B5FE03E00649F86807F0B0FE2037BD460F
:104D600080BD00BFB8390108D8390108EC39010805
:104D7000003A010880B588B000AFF860B9607A6089
:104D8000B86806F015FD0346FB61FB69012B04D0F2
:104D90001549F86807F092FE23E0144B1B6818468B
:104DA00002F0EAF9034683F00103DBB2002B04D0E2
:104DB0000F49F86807F082FE13E00121B86806F099
:104DC000C1FCB861B8690AF061FF03467B61074B1B
:104DD0001B687969184602F08EFC0649F86807F0EE
:104DE0006DFE2037BD4680BDB83901081400002093
:104DF000143A0108603A010880B584B000AFF86049
:104E0000B9607A600A4B1B68184602F08DFC0346B5
:104E1000002B04D00749F86807F050FE03E006496C
:104E2000F86807F04BFE00BF1037BD4680BD00BFDD
:104E300014000020603A0108683A010880B588B083
:104E400000AFF860B9607A60B86806F0B1FC03465C
:104E5000BB61BB69012B04D03849F86807F02EFE0E
:104E600069E0374B1B68184602F086F9034683F069
:104E70000103DBB2002B04D03249F86807F01EFEB4
:104E800059E00121B86806F05DFC786100233B61C0
:104E90007B691B78612B25D10023FB611EE0284B29
:104EA0001B68F969184602F022F938613B69002B4A
:104EB0000CD1234B1B680022F969184602F037F920
:104EC000FA692149F86807F0F9FD04E0FA691F4919
:104ED000F86807F0F3FDFB690133FB61FB69032B05
:104EE000DDD928E07B691B782F2B24D97B691B78BF
:104EF000332B20D878690AF0C9FE0346FB61104BBA
:104F00001B68F969184602F0F2F838613B69002B1A
:104F10000CD10B4B1B680022F969184602F007F907
:104F2000FA690949F86807F0C9FD04E0FA69074918
:104F3000F86807F0C3FD2037BD4680BDB8390108C9
:104F400014000020703A0108B83A0108CC3A010870
:104F500080B588B000AFF860B9607A60B86806F0D4
:104F600027FC0346FB61FB69012B04D01549F86857
:104F700007F0A4FD22E00121B86806F0E3FBB86168
:104F8000B8690AF083FE0346FB82FB8AB3F5FA7F19
:104F900004D3FB8A40F6B832934204D90A49F86830
:104FA00007F08CFD0AE0094B1B68FA8A1146184687
:104FB00002F051FA0649F86807F080FD2037BD4637
:104FC00080BD00BFE43A01080C3B0108140000203A
:104FD000603A010880B586B000AFF860B9607A60C9
:104FE000084B1B68184601F072FF0346FB82FB8AE0
:104FF0001A460549F86807F061FD00BF1837BD463D
:1050000080BD00BF14000020403B010880B588B07F
:1050100000AFF860B9607A60B86806F0C9FB034673
:10502000BB61BB69042B04D03149F86807F046FD29
:105030005BE0304B1B68184602F0A2F90346FB7593
:105040000023FB614AE0FB699BB201339BB2194626
:10505000B86806F077FB034618460AF017FE0346C9
:10506000D9B207F11002FB6913440A461A7007F11E
:105070001002FB6913441B78012B05D9FA691E49FC
:10508000F86807F01BFD30E007F11002FB691344DC
:105090001B78002B08D1174B1B68FA69D2B2114656
:1050A000184602F0A8F916E0FB7DFA699A4205D18C
:1050B000FA691249F86807F001FD0CE00D4B1B6816
:1050C000FA69D2B21146184602F074F9FA690C492D
:1050D000F86807F0F3FCFB690133FB61FB69032B04
:1050E000B1D90849F86807F0E9FC2037BD4680BD12
:1050F000643B010814000020883B0108B03B010814
:10510000D43B0108603A010880B586B000AFF86072
:10511000B9607A60134B1B68184602F08FF903469A
:10512000FB7400237B6115E0FA7C7B6942FA03F390
:1051300003F00103002B05D07A690B49F86807F0EA
:10514000BDFC04E07A690949F86807F0B7FC7B699F
:1051500001337B617B69032BE6D900BF00BF1837A1
:10516000BD4680BD14000020D43B0108EC3B010883
:1051700080B58CB000AFF860B9607A60354B1B68C1
:10518000184601F0F9FF034683F00103DBB2002B60
:1051900004D03149F86807F091FC58E0B86806F08F
:1051A00007FB0346FB62FB6A032B04D02B49F8681C
:1051B00007F084FC4BE00121B86806F0C3FAB8623E
:1051C000B86A0AF063FD03467B627B6A032B04D94D
:1051D0002349F86807F072FC39E00221B86806F04C
:1051E000B1FA3862386A0AF051FD0346FB61FB6987
:1051F000012B04D91B49F86807F060FC27E0032164
:10520000B86806F09FFAB861B8690AF03FFD034636
:10521000FB82FB8A40F6B832934204D91249F868FF
:1052200007F04CFC13E00B4B1868FB8AFA69796AAB
:1052300002F0E1F938613B69002B04D00B49F868B2
:1052400007F03CFC03E00A49F86807F037FC303708
:10525000BD4680BD14000020043C0108283C010824
:10526000543C0108783C01089C3C0108683A01085C
:10527000603A010880B58AB000AFF860B9607A6022
:105280002A4B1B68184601F077FF034683F00103A1
:10529000DBB2002B04D02649F86807F00FFC41E090
:1052A000B86806F085FA03467B627B6A022B04D05D
:1052B0002049F86807F002FC34E00121B86806F0E4
:1052C00041FA3862386A0AF0E1FC0346FB61FB6987
:1052D000032B04D91849F86807F0F0FB22E00221FB
:1052E000B86806F02FFAB861B8690AF0CFFC034637
:1052F0007B610E4B18687B69002B14BF01230023D0
:10530000DBB21A46F96901F012FF38613B69002BE4
:1053100004D00A49F86807F0D1FB03E00849F868AF
:1053200007F0CCFB2837BD4680BD00BF140000202D
:10533000043C0108C83C0108543C0108683A0108D3
:10534000603A010880B58AB000AFF860B9607A6051
:10535000B86806F02DFA03463B623B6A022B04D084
:105360003549F86807F0AAFB62E00121B86806F049
:10537000E9F9F861314B1B68184602F05FF8034603
:10538000FB76FB691B786F2B07D1042387F8273046
:105390002B49F86807F092FB1EE0FB691B782F2B66
:1053A0001AD9FB691B78332B16D8F8690AF06EFC02
:1053B000034687F82730FA7E97F8273042FA03F33E
:1053C00003F00103002B07D097F827301A461D4938
:1053D000F86807F073FB2BE00221B86806F0B2F919
:1053E000786178690AF052FC03463B613B69B3F58A
:1053F000FA7F04D33B6940F6B832934204D912498C
:10540000F86807F05BFB13E00C4B1B6897F827204C
:105410001146184601F0C4FE084B1B683A6992B267
:105420001146184601F0D2FE0849F86807F046FB1D
:105430002837BD4680BD00BFE83C010814000020AD
:10544000103D0108283D01080C3B0108603A0108A5
:1054500080B584B000AFF860B9607A60064B1B6815
:10546000184601F0D6FE0549F86807F027FB00BF93
:105470001037BD4680BD00BF14000020603A01080F
:1054800080B584B000AFF860B9607A60064B1B68E5
:10549000184601F04FFF0549F86807F00FFB00BF01
:1054A0001037BD4680BD00BF14000020603A0108DF
:1054B00080B586B000AFF860B9607A600F4B1B68AA
:1054C000184601F05DFF0346FB750C4B1B68184640
:1054D00001F063FF0346BB82FB7D042B04D1084926
:1054E000F86807F0EBFA05E0FA7DBB8A0549F86831
:1054F00007F0E4FA1837BD4680BD00BF1400002055
:10550000103D01084C3D010880B588B000AFF8603F
:10551000B9607A60B86806F04BF90346FB61FB6935
:10552000012B04D01249F86807F0C8FA1CE00121E9
:10553000B86806F007F9B861B8690AF0A7FB034636
:10554000FB75FB7D642B04D90A49F86807F0B6FAAD
:105550000AE0094B1B68FA7D1146184601F097FFD7
:105560000649F86807F0AAFA2037BD4680BD00BF9B
:10557000783D01089C3D010814000020603A0108B4
:1055800080B586B000AFF860B9607A60084B1B68E0
:10559000184601F092FF0346FB75FB7D1A4605494C
:1055A000F86807F08BFA00BF1837BD4680BD00BF12
:1055B00014000020C03D010880B588B000AFF8603D
:1055C000B9607A60B86806F0F3F80346BB61BB695E
:1055D000042B04D02649F86807F070FA45E0002350
:1055E000FB613BE0FB699BB201339BB21946B86893
:1055F00006F0A8F8034618460AF048FB0346D9B25D
:1056000007F11402FB6913440A461A7007F11402E9
:10561000FB6913441B78012B05D9FA691549F86811
:1056200007F04CFA21E007F11402FB6913441B78E0
:10563000002B08D1104B1B68FA69D2B211461846EC
:1056400001F069FF07E00C4B1B68FA69D2B2114602
:10565000184601F03FFFFB690133FB61FB69032B37
:10566000C0D90649F86807F029FA2037BD4680BD41
:10567000DC3D0108883B010814000020603A010865
:1056800080B586B000AFF860B9607A60124B1B68D5
:10569000184601F063FF0346FB7400237B6113E0AF
:1056A000FA7C7B6942FA03F303F00103002B04D078
:1056B0000A49F86807F002FA03E00949F86807F0B8
:1056C000FDF97B6901337B617B69032BE8D900BF5E
:1056D00000BF1837BD4680BD14000020043E0108FD
:1056E0001C3E010880B588B000AFF860B9607A60F0
:1056F000B86806F05DF80346FB61FB69012B04D036
:105700000E49F86807F0DAF915E00121B86806F0EB
:1057100019F8B861B8690AF0B9FA0346FB82084B78
:105720001B68B7F916201146184601F03AFF0549E3
:10573000F86807F0C3F92037BD4680BD383E010840
:1057400014000020603A010880B586B000AFF86010
:10575000B9607A600E4B1B68184601F032FF0346B1
:10576000FB82B7F9163007EE903AB8EEE77AF2EE20
:10577000046AC7EE267AB7EEE77A53EC172B054991
:10578000F86807F09BF900BF1837BD4680BD00BF21
:1057900014000020603E010880B588B000AFF860BA
:1057A000B9607A60B86806F003F80346FB61FB69EC
:1057B000012B04D01249F86807F080F91DE001219F
:1057C000B86805F0BFFFB861B8690AF05FFA034630
:1057D0007B617B69072B04D90A49F86807F06EF9E9
:1057E0000BE0094B1B687A69D2B21146184601F0EA
:1057F000C2FE0649F86807F061F92037BD4680BD52
:10580000843E01089C3E010814000020603A010813
:1058100080B586B000AFF860B9607A600023FB7590
:10582000084B1B68184601F0D9FE0346FB75FB7D4B
:105830001A460549F86807F041F900BF1837BD4618
:1058400080BD00BF14000020BC3E010880B584B0BC
:1058500000AFF860B9607A60064B1B68184601F02B
:1058600043FB0549F86807F029F900BF1037BD462A
:1058700080BD00BF14000020603A010880B584B0EC
:1058800000AFF860B9607A60064B1B68184601F0FB
:1058900047FB0549F86807F011F900BF1037BD460E
:1058A00080BD00BF14000020603A010880B588B0B8
:1058B00000AFF860B9607A60B86805F079FF034618
:1058C000FB61FB69012B04D01349F86807F0F6F877
:1058D0001EE00121B86805F035FFB861B8690AF02B
:1058E000D5F90346FB82B7F91630642B04DD0B496A
:1058F000F86807F0E3F80BE0094B1B68B7F91620CE
:1059000000211846FDF746FF0649F86807F0D6F86B
:105910002037BD4680BD00BFCC3E0108F43E0108E3
:1059200018000020603A010880B588B000AFF86028
:10593000B9607A60B86805F03BFF0346FB61FB691C
:10594000012B04D01349F86807F0B8F81EE00121D4
:10595000B86805F0F7FEB861B8690AF097F9034630
:10596000FB82B7F91630642B04DD0B49F86807F0A9
:10597000A5F80BE0094B1B68B7F916200121184662
:10598000FDF708FF0649F86807F098F82037BD468C
:1059900080BD00BF183F0108F43E01081800002038
:1059A000603A010880B588B000AFF860B9607A60ED
:1059B0000023BB83B86805F0FBFE0346FB76FB7E45
:1059C000012B04D02749F86807F078F846E0012158
:1059D000B86805F0B7FE78617B691B78612B1AD136
:1059E0000023FB7713E0FB7F1846FDF7C1FB03465E
:1059F000BB83FB7F002B01D11B4A00E01B4ABB8B02
:105A00001B49F86807F05AF8FB7F0133FB77FB7FEF
:105A1000012BE8D922E07B691B782F2B1AD97B69EF
:105A20001B78312B16D878690AF030F90346FB74DD
:105A3000FB7C1846FDF79CFB0346BB83FB7C002BDD
:105A400001D1094A00E0094ABB8B0949F86807F00F
:105A500035F803E00749F86807F030F82037BD460D
:105A600080BD00BFB8390108603F0108643F0108EC
:105A7000683F0108003A010880B588B000AFF860BF
:105A8000B9607A60B86805F093FE0346FB61FB6974
:105A9000012B04D01349F86807F010F81EE001212B
:105AA000B86805F04FFEB861B8690AF0EFF87861A0
:105AB0007B69242B02DC7B69002B04DC0A49F86833
:105AC00006F0FCFF0AE0094B1B687A69114618468C
:105AD000FDF78BFE0649F86806F0F0FF2037BD465B
