:020000040800F2
:1000000000000820612F00083D2D0008452D000844
:100010004D2D0008552D00085D2D00080000000042
:10002000000000000000000000000000652D000836
:10003000732D000800000000812D00088F2D00089E
:10004000B12F0008B12F0008B12F0008B12F000810
:10005000B12F0008B12F0008B12F0008B12F000800
:10006000B12F0008B12F0008B12F0008B12F0008F0
:1000700085A80008B12F0008B12F0008B12F000893
:10008000B12F0008B12F0008B12F0008B12F0008D0
:10009000B12F0008B12F0008B12F0008B12F0008C0
:1000A000B12F0008C9A90008B12F0008B12F00081E
:1000B00015AA0008B12F0008B12F0008B12F0008C1
:1000C000B12F0008B12F0008B12F0008A32D0008A0
:1000D000B12F0008B12F0008B12F0008B12F000880
:1000E000B12F0008B12F0008B12F0008B12F000870
:1000F000B12F0008B12F0008B12F0008B12F000860
:10010000B12F0008B12F0008B12F0008B12F00084F
:10011000B12F0008B12F0008B12F0008B12F00083F
:10012000F99E0008C99D0008559E0008E1B200082C
:10013000B12F0008B12F0008B12F0008B12F00081F
:10014000B12F0008B12F0008B12F0008B12F00080F
:10015000B12F0008E9AB0008B12F000815730008A3
:10016000B12F0008B12F0008B12F0008B12F0008EF
:10017000B12F0008B12F0008B12F000800000000C7
:10018000B12F0008B12F000895440008B12F0008D6
:10019000B12F0008B12F0008B12F0008B12F0008BF
:1001A0000000000000000000B12F0008B12F00087F
:1001B000B12F0008B12F0008B12F0008B12F00089F
:1001C000B12F0008B12F000800000000B12F000877
:1001D000B12F0008B12F0008B12F0008B12F00087F
:1001E000B12F0008B12F0008B12F0008B12F00086F
:0801F00000000000B12F00081F
:1002000010B5054C237833B9044B13B10448AFF350
:1002100000800123237010BD0C440020000000006A
:10022000A466010808B5034B1BB103490348AFF3AB
:10023000008008BD0000000010440020A4660108F2
:1002400010F8012B11F8013B012A28BF9A42F7D080
:10025000D01A7047000000000000000000000000FD
:1002600001F0FF01102A2BDB10F0070F08D010F867
:10027000013B013A8B422DD010F0070F42B3F6D16B
:10028000F0B441EA012141EA014122F007047FF084
:1002900000070023F0E80256083C85EA010586EADB
:1002A000010685FA47F5A3FA87F586FA47F6A5FA17
:1002B00087F68EB9EED1F0BC01F0FF0102F0070223
:1002C00032B110F8013B013A83EA010313B1F8D1CE
:1002D0000020704701387047002D06BF35460338AF
:1002E000073815F0010F07D1013015F4807F02BFE8
:1002F000013015F4C03F0130F0BC0138704700BF39
:10030000034613F8012B002AFBD1181A0138704755
:100310007BB972B90029BEBF00204FF0004106E052
:1003200008BF00281CBF6FF000414FF0FF3000F005
:10033000D3B9ADF1080C6DE904CE002909DB002B1F
:100340001ADB00F04DF8DDF804E0DDE9022304B02B
:100350007047404261EB4101002B1BDB00F040F88D
:10036000DDF804E0DDE9022304B0404261EB410125
:10037000524263EB43037047524263EB430300F086
:100380002FF8DDF804E0DDE9022304B0404261EB20
:1003900041017047524263EB430300F021F8DDF85E
:1003A00004E0DDE9022304B0524263EB43037047EB
:1003B00053B94AB9002908BF00281CBF4FF0FF31CC
:1003C0004FF0FF3000F088B9ADF1080C6DE904CEB4
:1003D00000F006F8DDF804E0DDE9022304B0704720
:1003E0002DE9F047089D8E4604468846002B4AD1E9
:1003F0008A42174662D9B2FA82F64EB1C6F120039C
:1004000001FA06F820FA03F3B74043EA0808B440BB
:100410004FEA174E1FFA87FCB8FBFEF1230C0EFBC8
:10042000118843EA084301FB0CF29A4209D9FB18F0
:1004300001F1FF3080F0EA809A4240F2E780023911
:100440003B449A1AA3B2B2FBFEF00EFB102243EA21
:10045000024300FB0CFC9C4509D9FB1800F1FF325C
:1004600080F0D6809C4540F2D3803B44023840EA7D
:100470000140A3EB0C0300211DB1F3400022C5E9AC
:100480000032BDE8F0878B4205D90DB1C5E9000106
:1004900000210846F5E7B3FA83F1002946D17345F8
:1004A00002D3824200F20581841A6EEB030201201E
:1004B0009046002DE5D0C5E90048E2E7002A00F0AB
:1004C0009080B2FA82F6002E40F0A4808A1A030CC3
:1004D0004FEA174E80B2BCB20121B2FBFEFC0EFB0C
:1004E0001C2243EA024304FB0CF29A4207D9FB1890
:1004F0000CF1FF3802D29A4200F2E080C4469B1A07
:10050000B3FBFEF20EFB123340EA034302FB04F49A
:100510009C4207D9FB1802F1FF3002D29C4200F244
:10052000CA8002461B1B42EA0C40A5E7C1F1200627
:100530008B4022FA06F71F430EFA01F420FA06F365
:100540002EFA06FE4FEA1749234300FA01F81FFA74
:1005500087FCBEFBF9F01C0C09FB10EE44EA0E44CC
:1005600000FB0CFEA64502FA01F209D93C1900F184
:10057000FF3A80F09C80A64540F2998002383C44C6
:10058000A4EB0E041FFA83FEB4FBF9F309FB13443A
:100590004EEA044403FB0CFCA44508D93C1903F1C2
:1005A000FF3E80F08280A4457FD9023B3C4443EA71
:1005B0000040A4EB0C04A0FB02EC64457346E1464A
:1005C00062D35FD05DB1B8EB030264EB090404FAB7
:1005D00006F622FA01F31E43CC40C5E9006400216F
:1005E0004FE7B1FBF2FC010C41EA0E4180B240EA58
:1005F00001423B4638463C46B846BE462026B1FB43
:10060000F7F1A2EB080241EA0C4166E7014618E760
:1006100010462CE7C6F120022EFA02F3B740B14093
:1006200020FA02F24FEA174E0A43B3FBFEF8BCB2BF
:100630000EFB1833110C41EA034108FB04F9B040EA
:1006400089454FEA104380B23ED9791808F1FF3C42
:1006500001D289451FD8A1EB0901B1FBFEF909FBC5
:1006600004F80EFB191192B242EA0142424529D226
:10067000BA1809F1FF31C4D24245C2D2A9F1020130
:100680003A44BEE7F0459DD2BEEB02036CEB070C8B
:100690000138E14696E7A7EB09094944A8F1020CA5
:1006A000B1FBFEF909FB04F8DBE773467FE7504630
:1006B00066E70846FDE63B44023A33E7ACF1020C3C
:1006C0003B441CE749469CE7A1EB0901C446B1FB4A
:1006D000FEF909FB04F8C4E7704700BF80B400AF1F
:1006E000044BDB681B0A03F007031846BD465DF8A0
:1006F000047B704700ED00E080B483B000AF034698
:10070000FB7197F90730002B0BDBFB7903F01F021D
:10071000074997F907305B09012000FA02F241F816
:10072000232000BF0C37BD465DF8047B704700BF37
:1007300000E100E080B483B000AF03463960FB7194
:1007400097F90730002B0ADB3B68DAB20C4997F9BE
:1007500007301201D2B20B4483F800230AE03B6851
:10076000DAB20849FB7903F00F03043B1201D2B25D
:100770000B441A7600BF0C37BD465DF8047B70470A
:1007800000E100E000ED00E080B489B000AFF86067
:10079000B9607A60FB6803F00703FB61FB69C3F192
:1007A0000703042B28BF0423BB61FB690433062B1A
:1007B00002D9FB69033B00E000237B614FF0FF326D
:1007C000BB6902FA03F3DA43BB681A407B699A40BB
:1007D0004FF0FF317B6901FA03F3D9437B680B408B
:1007E000134318462437BD465DF8047B704780B438
:1007F00089B000AFF860B9607A60FB682C331946A5
:10080000BB6803F440734FF44072BA61BA6992FA5C
:10081000A2F27A617A69B2FA82F2D2B2D3409B0034
:100820000B44FB61FB691A68BB6803F01F031F21BF
:1008300001FA03F3DB431A407B6803F01F01BB6836
:1008400003F01F0301FA03F31A43FB691A6000BFA8
:100850002437BD465DF8047B704780B483B000AF99
:10086000786039607B689B6823F480623B681A4338
:100870007B689A6000BF0C37BD465DF8047B70470B
:1008800080B48DB000AFF860B9607A60FB680C335B
:100890001946BB6803F000734FF00072BA61BA6981
:1008A00092FAA2F27A617A69B2FA82F2D2B2D340B3
:1008B0009B000B44FB62FB6A1A68BB6803F0F87389
:1008C0004FF0F8713962396A91FAA1F1F961F96969
:1008D000B1FA81F1C9B2CB40072101FA03F3DB433E
:1008E0001A40BB6803F0F8734FF0F871B962B96A47
:1008F00091FAA1F17962796AB1FA81F1C9B2CB407A
:10090000796801FA03F31A43FB6A1A6000BF3437AF
:10091000BD465DF8047B704780B485B000AFF860D9
:10092000B9607A600D4ABB6813441B781A46FB68AD
:1009300013441B6823F0C0020849BB680B441B78B2
:100940001946FB680B4419467B6813430B6000BFD4
:100950001437BD465DF8047B704700BFDC92010888
:1009600080B485B000AFF860B9607A600D4ABB68AA
:1009700013441B781A46FB6813441B6823F49072D7
:100980000849BB680B441B781946FB680B441946A1
:100990007B6813430B6000BF1437BD465DF8047BD2
:1009A000704700BFDC92010880B485B000AFF860EA
:1009B000B9607A600D4ABB6813441B781A46FB681D
:1009C00013441B6823F400720849BB680B441B786E
:1009D0001946FB680B4419467B6813430B6000BF44
:1009E0001437BD465DF8047B704700BFDC920108F8
:1009F00080B485B000AFF860B9607A600D4ABB681A
:100A000013441B781A46FB6813441B6823F4806266
:100A10000849BB680B441B781946FB680B44194610
:100A20007B6813430B6000BF1437BD465DF8047B41
:100A3000704700BFDC92010880B485B000AFF86059
:100A4000B9607A600D4ABB6813441B781A46FB688C
:100A500013441B6823F4C0520849BB680B441B783D
:100A60001946FB680B4419467B6813430B6000BFB3
:100A70001437BD465DF8047B704700BFDC92010867
:100A800080B485B000AFF860B9607A600D4ABB6889
:100A900013441B781A46FB6813441B6823F4C042B6
:100AA0000849BB680B441B781946FB680B44194680
:100AB0007B6813430B6000BF1437BD465DF8047BB1
:100AC000704700BFDC92010880B485B000AFF860C9
:100AD000B9607A600D4ABB6813441B781A46FB68FC
:100AE00013441B6823F440320849BB680B441B784D
:100AF0001946FB680B4419467B6813430B6000BF23
:100B00001437BD465DF8047B704700BFDC920108D6
:100B100080B485B000AFF860B9607A600D4ABB68F8
:100B200013441B781A46FB6813441B6823F0F052E9
:100B30000849BB680B441B781946FB680B441946EF
:100B40007B6813430B6000BF1437BD465DF8047B20
:100B5000704700BFDC92010880B483B000AF7860BA
:100B600039600C4A3B6813441B781A467B6813446F
:100B70005B6908493A680A44127811467A680A445F
:100B800023F00403536100BF0C37BD465DF8047BBE
:100B9000704700BFDC92010880B483B000AF78607A
:100BA0007B681B6843F001027B681A6000BF0C374A
:100BB000BD465DF8047B704780B483B000AF7860B9
:100BC0007B681B6823F400327B681A6000BF0C3717
:100BD000BD465DF8047B704780B483B000AF786099
:100BE0007B681B6823F400227B681A6000BF0C3707
:100BF000BD465DF8047B704780B485B000AFF860F7
:100C0000B9607A60FB68DA68064B1340B9687A68A5
:100C10000A431A43FB68DA6000BF1437BD465DF82B
:100C2000047B704701F8FFFF80B483B000AF7860A9
:100C30007B68DB6823F400427B68DA6000BF0C3716
:100C4000BD465DF8047B704780B483B000AF786028
:100C50007B685B6843F000727B685A6000BF0C37AA
:100C6000BD465DF8047B704780B483B000AF786008
:100C70007B684CF6CC421A6000BF0C37BD465DF86D
:100C8000047B704780B483B000AF78607B6845F226
:100C900055521A6000BF0C37BD465DF8047B7047A3
:100CA00080B483B000AF786039603B6803F007021E
:100CB0007B685A6000BF0C37BD465DF8047B704707
:100CC00080B483B000AF786039603B68C3F30B0237
:100CD0007B689A6000BF0C37BD465DF8047B7047A7
:100CE00080B483B000AF786039603B68C3F30B0217
:100CF0007B681A6100BF0C37BD465DF8047B704706
:100D000080B483B000AF78607B68DB6803F00703D2
:100D1000002B01D1012300E0002318460C37BD460B
:100D20005DF8047B704780B483B000AF78607B6867
:100D30001B6843F040027B681A6000BF0C37BD4659
:100D40005DF8047B704780B483B000AF7860396091
:100D50007B685B6823F010023B681A437B685A602B
:100D600000BF0C37BD465DF8047B704780B483B08C
:100D700000AF78607B685B6843F008027B685A606C
:100D800000BF0C37BD465DF8047B704780B483B06C
:100D900000AF78607B685B6823F008027B685A606C
:100DA00000BF0C37BD465DF8047B704780B483B04C
:100DB00000AF78607B681B6843F080027B681A6034
:100DC00000BF0C37BD465DF8047B704780B483B02C
:100DD00000AF78607B681B6823F080027B681A6034
:100DE00000BF0C37BD465DF8047B704780B485B00A
:100DF00000AF786039603B68012B28D03B68042B3A
:100E000023D03B68102B1ED03B68402B19D03B6889
:100E1000B3F5807F13D03B68B3F5806F0DD03B688E
:100E2000B3F5805F07D03B68B3F5803F01D107235E
:100E30000EE008230CE006230AE0052308E0042363
:100E400006E0032304E0022302E0012300E0002384
:100E5000FB737B6818331946FB7B0B4AD35C0B444E
:100E6000BB60BB681A68FB7B0849CB5C194604234E
:100E70008B40DB431A40BB681A6000BF1437BD4685
:100E80005DF8047B704700BFE4920108F09201080E
:100E900080B485B000AF786039603B68012B28D002
:100EA0003B68042B23D03B68102B1ED03B68402BA3
:100EB00019D03B68B3F5807F13D03B68B3F5806FE2
:100EC0000DD03B68B3F5805F07D03B68B3F5803F3A
:100ED00001D107230EE008230CE006230AE00523D6
:100EE00008E0042306E0032304E0022302E00123D8
:100EF00000E00023FB737B6818331946FB7B0A4A2A
:100F0000D35C0B44BB60BB681A68FB7B0749CB5CB6
:100F1000194608238B401A43BB681A6000BF143778
:100F2000BD465DF8047B7047E4920108F092010829
:100F300080B483B000AF786039607B689A68064BF4
:100F400013403A681A437B689A6000BF0C37BD466D
:100F50005DF8047B704700BFF8BFFEFF80B483B02C
:100F600000AF786039607B685B6823F070023B6893
:100F70001A437B685A6000BF0C37BD465DF8047B9E
:100F8000704780B483B000AF786039607B685B687D
:100F900023F470023B681A437B685A6000BF0C3729
:100FA000BD465DF8047B704780B483B000AF7860C5
:100FB0007B689B6823F080027B689A6000BF0C37D7
:100FC000BD465DF8047B704780B483B000AF7860A5
:100FD0007B681B6843F001027B681A6000BF0C3716
:100FE000BD465DF8047B704780B483B000AF786085
:100FF00039607B681B6823F4F8123B681B041A43B2
:101000007B681A6000BF0C37BD465DF8047B7047F3
:1010100080B483B000AF786039607B681B6823F0D0
:1010200078723B685B051A437B681A6000BF0C3717
:10103000BD465DF8047B704780B483B000AF786034
:101040007B689B6843F480427B689A6000BF0C37E2
:10105000BD465DF8047B704780B483B000AF786014
:1010600039607B689B6823F400423B681A437B68C5
:101070009A6000BF0C37BD465DF8047B704780B4B2
:1010800083B000AF78607B685B6823F490427B6834
:101090005A607B689B6823F02A027B689A6000BFD5
:1010A0000C37BD465DF8047B704780B483B000AF59
:1010B000786039607B683A689A6100BF0C37BD463A
:1010C0005DF8047B704780B483B000AF786039600E
:1010D0003B681A047B689A6100BF0C37BD465DF817
:1010E000047B704780B485B000AF7860084B1A6B02
:1010F00007497B6813430B63054B1A6B7B681340EE
:10110000FB60FB6800BF1437BD465DF8047B704789
:101110000038024080B485B000AF7860084B1A6C8C
:1011200007497B6813430B64054B1A6C7B681340BB
:10113000FB60FB6800BF1437BD465DF8047B704759
:101140000038024080B485B000AF7860084B5A6C1C
:1011500007497B6813434B64054B5A6C7B6813400B
:10116000FB60FB6800BF1437BD465DF8047B704729
:101170000038024080B500AF00F0C6FB00BF80BD64
:1011800080B500AF0FF028FD00F02CF801F0C4FA94
:1011900001F056FA00F0FCFA00F0B6FB00F07AFC21
:1011A00000F02AFD00F08EF800F0A4FD00F084FFAE
:1011B00001F05CF800F01CFE01F0F4F801F0A6F973
:1011C00000F0D4F900F082FA00F0EEFE00F032FFF9
:1011D00000F078FB01F0FEFF02F012F802F02FF8A9
:1011E00000BFFDE780B594B000AF07F11C033422C7
:1011F0000021184613F09CFA07F1080300221A6038
:101200005A609A60DA601A612C4B1B6C2B4A43F0CF
:1012100080531364294B1B6C03F080537B607B6805
:10122000274B1B68264A43F440431360244B1B683A
:1012300003F440433B603B680923FB614FF4803378
:101240003B6201233B6302237B634FF48003BB6358
:101250000C23FB63C0233B6402237B640223BB6437
:101260000223FB6407F11C0318460FF069FE0346D6
:10127000002B01D001F038FD0FF012FE0346002BC9
:1012800001D001F031FD0F23BB600223FB6000237E
:101290003B614FF4A0537B614FF48053BB6107F176
:1012A00008030621184610F0F9F80346002B01D078
:1012B00001F01AFD00BF5037BD4680BD0038024026
:1012C0000070004080B592B000AF07F13C030022EF
:1012D0001A605A609A6007F1280300221A605A6067
:1012E0009A60DA601A6107F1180300221A605A60E6
:1012F0009A60DA603B4600221A605A609A60DA60AF
:101300001A615A614FF48070FFF71CFF0420FFF749
:10131000E9FE0220FFF7E6FE01233B6003237B602A
:1013200000233B613B461946844811F040F80223F4
:101330003B6003237B6000233B613B4619467F48AB
:1013400011F035F804233B6003237B6000233B61ED
:101350003B461946794811F02AF808233B600323DD
:101360007B6000233B613B461946744811F01FF82F
:1013700010233B6003237B6000233B613B461946FF
:101380006E4811F014F820233B6003237B60002398
:101390003B613B461946694811F009F801233B605F
:1013A00003237B6000233B613B461946644810F0F1
:1013B000FEFF02233B6003237B6000233B613B462F
:1013C00019465F4810F0F3FF002200215D48FFF747
:1013D0009FFB002200215B48FFF79EFA00220021BC
:1013E0005848FFF771FB4FF4807200215548FFF712
:1013F000B7FA002200215348FFF7D6FA4FF4806273
:1014000000215048FFF7F4FA4FF4006200214D48E4
:10141000FFF712FB4FF4005200214A48FFF730FB60
:1014200000214848FFF798FB0023FB6300233B643F
:101430004FF480737B6407F13C031946424810F077
:101440003DFE0023BB624FF4E003FB6200233B63DD
:1014500000237B634FF44073BB6307F128031946F5
:10146000394810F057FE00213748FFF7F6F94FF4DE
:101470008033BB610023FB6107F118031946334831
:1014800010F0D4FD0A224FF400712F48FFF7AFF996
:1014900001220A212C48FFF7F3F92D4A40F20521D9
:1014A0002948FFF7A4F9012229492748FFF7E8F95D
:1014B000284A40F20A212448FFF799F901222549D8
:1014C0002148FFF7DDF9244A40F20F211E48FFF7BB
:1014D0008EF9012220491C48FFF7D2F91F4A4FF428
:1014E00005711948FFF783F901221C491648FFF7D7
:1014F000C7F91B4A40F219211348FFF778F9012276
:1015000017491148FFF7BCF9164A4FF480710E488D
:10151000FFF76DF9012213490B48FFF7B1F9124AA1
:1015200040F205110848FFF762F901220E4906480A
:10153000FFF7A6F900BF4837BD4680BD000802404E
:1015400000040240006402400020014000230140EA
:101550000B0030000C0060000D0090000E00C00079
:101560000F00F000080080030900B00380B58EB0C2
:1015700000AF07F12C0300221A605A609A6007F14D
:10158000180300221A605A609A60DA601A613B46BA
:1015900000221A605A609A60DA601A615A614FF448
:1015A0000070FFF7CFFD0120FFF79CFD04233B6097
:1015B00003237B6000233B613B4619463E4810F005
:1015C000F6FE08233B6003237B6000233B613B4620
:1015D0001946394810F0EBFE4FF0007202213748EF
:1015E000FFF796FA002202213448FFF795F900220E
:1015F00002213248FFF768FA4FF4807202212F4827
:10160000FFF7AEF9002202212C48FFF7CDF94FF485
:10161000806202212948FFF7EBF94FF400620221B2
:101620002648FFF709FA4FF4005202212348FFF73A
:1016300027FA02212148FFF78FFA0023FB620023DB
:101640003B634FF480737B6307F12C0319461C48FE
:1016500010F034FD0023BB614FF48013FB610023C5
:101660003B6200237B624FF44073BB6207F11803B7
:101670001946134810F04EFD4FF480611048FFF7F3
:10168000ECF8104A4FF400710D48FFF7B0F8012252
:101690000C490B48FFF7F4F80B4A40F205210848C3
:1016A000FFF7A5F8012208490548FFF7E9F800BF50
:1016B0003837BD4680BD00BF0000024000640240D4
:1016C00000210140030090020200600280B58EB04C
:1016D00000AF07F12C0300221A605A609A6007F1EC
:1016E000180300221A605A609A60DA601A613B4659
:1016F00000221A605A609A60DA601A615A614FF4E7
:101700008060FFF71FFD0120FFF7ECFC02233B6028
:1017100003237B6000233B613B461946194810F0C8
:1017200046FE0023FB6200233B6300237B6307F13B
:101730002C031946144810F0C1FC0023BB610023A0
:10174000FB6100233B6200237B620023BB6207F145
:10175000180319460C4810F0DDFC4FF480610A486C
:10176000FFF77BF8094A4FF400710748FFF73FF88D
:10177000002206490448FFF783F800BF3837BD460A
:1017800080BD00BF00000240002201400100300285
:1017900080B5B2B000AF07F1AC0300221A605A6006
:1017A0009A60DA601A615A619A6107F19403002223
:1017B0001A605A609A60DA601A615A613B1D902281
:1017C0000021184612F0B4FF4FF480437B600023E1
:1017D000BB663B1D184610F013F80346002B01D0E2
:1017E00001F082FA0220FFF77DFC4023C7F8943015
:1017F0000223C7F898300323C7F89C300123C7F8A9
:10180000A0300023C7F8A4300423C7F8A83007F19C
:1018100094031946284810F0CAFD8023C7F8943075
:101820000223C7F898300323C7F89C300123C7F878
:10183000A0300023C7F8A4300423C7F8A83007F16C
:10184000940319461C4810F0B2FD4FF40010FFF746
:1018500061FC1A48FFF7F8F9002200211748FFF74A
:10186000CBF91648FFF7E0F91448FFF7B5F913482C
:10187000FFF7A2F90023C7F8AC30114BC7F8B0301E
:101880000023C7F8B4300023C7F8B8300023C7F8E6
:10189000BC300023C7F8C0300023C7F8C43007F1BC
:1018A000AC031946054810F099FE0448FFF774F997
:1018B00000BFC837BD4680BD000402400054004050
:1018C000FF63106080B500AF0E48FFF7CDF90D48FB
:1018D000FFF7D8F905210B48FFF7E2F94FF47A61D9
:1018E0000848FFF7EDF900BF0648FFF709FA03467D
:1018F000012BF9D14FF47A610248FFF7F1F900BFEB
:1019000080BD00BF0030004080B590B000AF07F14F
:10191000180328220021184612F00AFF3B46002235
:101920001A605A609A60DA601A615A614FF4805006
:10193000FFF708FC0120FFF7D5FB10233B600223D3
:101940007B600323BB600023FB6000233B61052316
:101950007B613B4619464C4810F029FD20233B6033
:1019600002237B600323BB600023FB6000233B61F9
:1019700005237B613B461946434810F018FD402380
:101980003B6002237B600323BB600023FB600023DA
:101990003B6105237B613B4619463B4810F007FD40
:1019A00080233B6002237B600323BB600023FB603A
:1019B00000233B6105237B613B461946324810F00A
:1019C000F6FC4FF0C06203213048FFF7A1F8402237
:1019D00003212E48FEF7A0FF4FF4003203212B48CD
:1019E000FFF772F8002203212848FEF7B9FF002212
:1019F00003212648FEF7D8FF4FF4806203212348D5
:101A0000FEF7F6FF002203212048FFF715F8002219
:101A100003211E48FFF734F803211C48FFF79CF808
:101A2000FEF75CFE0346002200211846FEF7ACFEDE
:101A3000034619462320FEF77DFE2320FEF75CFEB9
:101A40000023BB610023FB614FF4E0633B62022390
:101A50007B620023BB620023FB6200237B630023C5
:101A6000BB630723FB6307F118031946084811F00D
:101A70008DF900210648FFF766F90548FFF786F95A
:101A800000BF4037BD4680BD0000024000640240F8
:101A90000030014080B590B000AF07F11803282254
:101AA0000021184612F044FE3B4600221A605A609C
:101AB0009A60DA601A615A614FF48040FFF72AFB9E
:101AC0000220FFF70FFB4FF400533B6002237B60C3
:101AD0000323BB600023FB6000233B6105237B6184
:101AE0003B461946414810F062FC4FF480433B608E
:101AF00002237B600323BB600023FB6000233B6168
:101B000005237B613B461946384810F050FC4FF4E2
:101B100000433B6002237B600323BB600023FB6028
:101B200000233B6105237B613B4619462F4810F09B
:101B30003EFC4FF0905201212D48FEF7E9FF0022B4
:101B400001212B48FEF7E8FE4FF4403201212848DE
:101B5000FEF7BAFF4FF4807201212548FEF700FF1F
:101B6000002201212248FEF71FFF4FF4806201216D
:101B70001F48FEF73DFF4FF4006201211C48FEF7AD
:101B80005BFF4FF4005201211948FEF779FF012154
:101B90001748FEF7E1FF0023BB614FF48273FB613E
:101BA0004FF470633B6200237B620023BB624FF4FF
:101BB0000073FB6200233B6300237B630023BB6352
:101BC0000723FB6307F1180319460A4811F0DEF8F2
:101BD00000210848FFF7B7F80648FFF7C7F805489F
:101BE000FFF7A1F800BF4037BD4680BD00040240AA
:101BF000006002400038004080B590B000AF07F1AF
:101C0000180328220021184612F092FD3B460022BC
:101C10001A605A609A60DA601A615A614FF40040A3
:101C2000FFF778FA0420FFF75DFA4FF480633B601A
:101C300002237B600323BB600023FB6000233B6126
:101C400006237B613B461946284810F0B0FB4FF451
:101C500000633B6002237B600323BB600023FB60C7
:101C600000233B6106237B613B4619461F4810F069
:101C70009EFB4FF480533B6002237B600323BB60D9
:101C80000023FB6000233B6106237B613B46194632
:101C9000164810F08CFB0023BB614FF48273FB618C
:101CA0004FF4E0633B6200237B620023BB624FF48E
:101CB0000073FB6200233B6300237B630023BB6351
:101CC0000723FB6307F118031946094811F05EF872
:101CD00000210748FFF737F80548FFF747F80448A1
:101CE000FFF721F800BF4037BD4680BD0008024025
:101CF000003C004080B590B000AF07F118032822E7
:101D00000021184612F014FD3B4600221A605A606A
:101D10009A60DA601A615A614FF40050FFF712FAC4
:101D20001020FFF7DFF94FF480533B6002237B6004
:101D30000323BB600023FB6000233B6105237B6121
:101D40003B461946284810F032FB4FF400533B60E5
:101D500002237B600323BB600023FB6000233B6105
:101D600005237B613B4619461F4810F020FB4FF4CA
:101D700080433B6002237B600323BB600023FB6046
:101D800000233B6105237B613B461946164810F052
:101D90000EFB0023BB614FF48273FB614FF4E063E1
:101DA0003B6200237B620123BB624FF40073FB6242
:101DB00020233B6300237B630023BB630723FB6378
:101DC00007F118031946094810F0E0FF0021074801
:101DD000FEF7B9FF0548FEF7D9FF0448FEF7A3FF59
:101DE00000BF4037BD4680BD0010024000340140B6
:101DF00080B590B000AF07F11803282200211846E3
:101E000012F096FC3B4600221A605A609A60DA6033
:101E10001A615A614FF40010FFF794F90220FFF79E
:101E200061F908233B6002237B600323BB6000232E
:101E3000FB6000233B6108237B613B461946574802
:101E400010F0B5FA10233B6002237B600323BB60D4
:101E50000023FB6000233B6108237B613B4619465E
:101E60004E4810F0A4FA20233B6002237B6003233A
:101E7000BB600023FB6000233B6108237B613B4682
:101E80001946464810F093FA4FF000720521444875
:101E9000FEF73EFE402205214148FEF73DFD4FF48E
:101EA000403205213E48FEF70FFE002205213C4846
:101EB000FEF756FD002205213948FEF775FD4FF467
:101EC000806205213648FEF793FD00220521344843
:101ED000FEF7B2FD002205213148FEF7D1FD0521B4
:101EE0002F48FEF739FE4FF0007206212C48FEF70E
:101EF0000FFE002206212A48FEF70EFD4FF4403265
:101F000006212748FEF7E0FD002206212448FEF7BF
:101F100027FD002206212248FEF746FD4FF480628D
:101F200006211F48FEF764FD002206211C48FEF72B
:101F300083FD002206211A48FEF7A2FD062118485B
:101F4000FEF70AFE0023BB614FF48273FB614FF47E
:101F5000E0633B6200237B620023BB624FF40073AB
:101F6000FB6200233B6300237B630023BB630723E7
:101F7000FB6307F1180319460A4810F007FF002118
:101F80000848FEF7E0FE0748FEF7F0FE0548FEF7BA
:101F9000CAFE00BF4037BD4680BD00BF00040240FE
:101FA000006402400054014080B586B000AF3B1D84
:101FB00000221A605A609A60DA601A610120FFF705
:101FC000C1F8FEF78BFB0346002200211846FEF7FE
:101FD000DBFB034619461920FEF7ACFB1920FEF780
:101FE0008BFB0023BB800023BB604FF6FF73FB60BD
:101FF00000233B6100237B613B1D19460C4810F018
:10200000B9FF0B48FEF7E2FE00210948FEF790FFFA
:1020100000210748FEF7A2FF00210548FEF7B1FFA7
:102020000348FEF7C1FF00BF1837BD4680BD00BFA3
:102030000000014080B586B000AF3B1D00221A6051
:102040005A609A60DA601A610120FFF763F8FEF7C0
:1020500045FB0346002202211846FEF795FB034686
:1020600019461C20FEF766FB1C20FEF745FB0023EB
:10207000BB800023BB604FF0FF33FB6000233B615C
:102080003B1D19464FF0804010F074FF4FF0804028
:10209000FEF78CFE00214FF08040FEF749FF002143
:1020A0004FF08040FEF75AFF4FF08040FEF77CFF74
:1020B00000BF1837BD4680BD80B594B000AF07F1B2
:1020C0003C0300221A605A609A60DA601A6107F1D4
:1020D0001C0320220021184612F02AFB3B1D00227F
:1020E0001A605A609A60DA601A615A610420FFF738
:1020F00011F80A23BB8700233B644CF250337B6406
:102100004FF40073BB6407F13C031946554810F0C7
:1021100031FF5448FEF75AFE00215248FEF708FFEF
:1021200001215048FEF7B4FE6023FB6100233B62AF
:1021300000237B620023BB620023FB6207F11C03C8
:102140001A460121474810F0AFFF01214548FEF72C
:102150004DFE10214348FEF79BFE07F11C031A4673
:102160001021404810F0A0FF10213E48FEF73EFE2F
:102170004FF480713B48FEF78BFE07F11C031A46B3
:102180004FF48071374810F08FFF4FF4807135485D
:10219000FEF72CFE4FF480513248FEF779FE07F12E
:1021A0001C031A464FF480512E4810F07DFF4FF467
:1021B00080512C48FEF71AFE00212A48FEF7CEFE79
:1021C0002848FEF7F1FE0820FEF78CFF4FF48053FD
:1021D0007B600223BB600023FB6000233B61002384
:1021E0007B610223BB613B1D19461F4810F0DFF8DD
:1021F0004FF400537B600223BB600023FB6000238D
:102200003B6100237B610223BB613B1D19461648DD
:1022100010F0CDF84FF480437B600223BB600023B5
:10222000FB6000233B6100237B610223BB613B1DFC
:1022300019460D4810F0BBF84FF400437B600223B1
:10224000BB600023FB6000233B6100237B61022312
:10225000BB613B1D1946044810F0A9F800BF503778
:10226000BD4680BD00080040000C024080B5B2B001
:1022700000AF07F1AC0300221A605A609A60DA607E
:102280001A615A619A6107F1940300221A605A6038
:102290009A60DA601A615A613B1D9022002118464B
:1022A00012F046FA4FF480537B6000233B663B1DDF
:1022B00018460FF0A5FA0346002B01D000F014FDDC
:1022C0004FF08040FEF726FF1020FEF70BFF802323
:1022D000C7F894300223C7F898300323C7F89C301E
:1022E0000023C7F8A0300123C7F8A4300823C7F89B
:1022F000A83007F194031946284810F058F84FF415
:102300008073C7F894300223C7F898300323C7F8C6
:102310009C300023C7F8A0300023C7F8A43008235E
:10232000C7F8A83007F1940319461C4810F03FF88D
:10233000FEF7D4F9034600220B211846FEF724FAD3
:10234000034619465220FEF7F5F95220FEF7D4F95C
:102350004FF4E133C7F8AC300023C7F8B0300023A6
:10236000C7F8B4300023C7F8B8300C23C7F8BC3026
:102370000023C7F8C0300023C7F8C43007F1AC030E
:102380001946074811F0B0F90548FEF778FE0448F1
:10239000FEF71AFE00BFC837BD4680BD00100240E0
:1023A0000078004080B5B2B000AF07F1AC03002266
:1023B0001A605A609A60DA601A615A619A6107F18C
:1023C000940300221A605A609A60DA601A615A61B6
:1023D0003B1D90220021184612F0AAF940237B6091
:1023E0000023BB643B1D18460FF00AFA0346002B7E
:1023F00001D000F079FC1020FEF7A4FE0120FEF7CA
:1024000071FE4FF40073C7F894300223C7F8983078
:102410000323C7F89C300023C7F8A0300023C7F877
:10242000A4300723C7F8A83007F1940319463548AC
:102430000FF0BDFF4FF48063C7F894300223C7F854
:1024400098300323C7F89C300023C7F8A03000233E
:10245000C7F8A4300723C7F8A83007F1940319463A
:1024600028480FF0A4FF4FF48053C7F8943002239C
:10247000C7F898300323C7F89C300023C7F8A03072
:102480000023C7F8A4300723C7F8A83007F1940346
:1024900019461C480FF08BFF4FF4E133C7F8AC30FE
:1024A0000023C7F8B0300023C7F8B4300023C7F8C2
:1024B000B8300C23C7F8BC300023C7F8C030002365
:1024C000C7F8C43007F1AC0319460F4811F00CF9F6
:1024D0000D48FEF7B1FD00210B48FEF7BDFD0021C0
:1024E0000948FEF795FD00210748FEF77DFD0648E7
:1024F000FEF7C5FD0448FEF767FD00BFC837BD46BF
:1025000080BD00BF000002400010014080B5B2B0A5
:1025100000AF07F1AC0300221A605A609A60DA60DB
:102520001A615A619A6107F1940300221A605A6095
:102530009A60DA601A615A613B1D902200211846A8
:1025400012F0F6F84FF400637B600023FB653B1D3F
:1025500018460FF055F90346002B01D000F0C4FBDC
:102560002020FEF7EFFD0420FEF7BCFD4023C7F856
:1025700094300223C7F898300323C7F89C30002317
:10258000C7F8A0300023C7F8A4300823C7F8A83044
:1025900007F19403194628480FF009FF8023C7F874
:1025A00094300223C7F898300323C7F89C300023E7
:1025B000C7F8A0300023C7F8A4300823C7F8A83014
:1025C00007F1940319461C480FF0F1FEFEF786F858
:1025D000034600220B211846FEF7D6F8034619469B
:1025E0004720FEF7A7F84720FEF786F84FF4E133BF
:1025F000C7F8AC300023C7F8B0300023C7F8B430B8
:102600000023C7F8B8300C23C7F8BC300023C7F844
:10261000C0300023C7F8C43007F1AC03194607489F
:1026200011F062F80548FEF72AFD0448FEF7CCFCDD
:1026300000BFC837BD4680BD0008024000140140FD
:1026400080B500AF4FF48000FEF74CFD4FF4001052
:10265000FEF748FDFEF742F8034600220021184627
:10266000FEF792F8034619460C20FEF763F80C209B
:10267000FEF742F8FEF732F8034600220A21184618
:10268000FEF782F8034619463820FEF753F8382043
:10269000FEF732F8FEF722F8034600220A21184618
:1026A000FEF772F8034619463A20FEF743F83A203F
:1026B000FEF722F8FEF712F8034600220021184622
:1026C000FEF762F8034619463B20FEF733F83B203D
:1026D000FEF712F8FEF702F8034600220921184619
:1026E000FEF752F8034619464420FEF723F844202B
:1026F000FEF702F8FDF7F2FF03460022012118461B
:10270000FEF742F8034619464520FEF713F8452028
:10271000FDF7F2FF00BF80BD80B586B000AF3B463D
:1027200000221A605A609A60DA601A615A611020B9
:10273000FEF7D8FC0420FEF7D5FC8020FEF7D2FC83
:102740000120FEF7CFFC0220FEF7CCFC0820FEF7AC
:10275000C9FC0421C048FEF7B6FC0821BE48FEF7BC
:10276000B2FC1021BC48FEF7AEFC2021BA48FEF7AF
:10277000AAFC4021B848FEF7A6FC4FF40051B74828
:10278000FEF7A1FC4FF48041B448FEF79CFC4FF4E7
:102790000041B248FEF797FC4FF40061AE48FEF7E7
:1027A00092FC4FF48061AE48FEF78DFC4FF400615F
:1027B000AB48FEF788FC4FF48071A848FEF783FC15
:1027C0004FF40061A748FEF77EFC4FF40041A54896
:1027D000FEF779FC0121A448FEF775FC0221A2480E
:1027E000FEF771FC1021A048FEF76DFC20219E48E9
:1027F000FEF769FC40219C48FEF765FC04219848DF
:10280000FEF753FC4FF480619348FEF74EFC4FF403
:1028100000419148FEF749FC4FF480519048FEF783
:1028200044FC4FF480719048FEF73FFC4FF4007178
:102830008D48FEF73AFC4FF480618B48FEF735FC7B
:1028400004218948FEF731FC80218748FEF72DFCE2
:102850004FF480718248FEF728FC4FF400718048E5
:10286000FEF723FC01217C48FEF71FFC02217A4879
:10287000FEF71BFC04233B6001237B600023BB604D
:102880000023FB6000233B613B46194672480FF072
:102890008EFD08233B6001237B600023BB60002387
:1028A000FB6000233B613B4619466B480FF07FFD00
:1028B00010233B6001237B600023BB600023FB608F
:1028C00000233B613B46194663480FF070FD20230F
:1028D0003B6001237B600023BB600023FB6000237F
:1028E0003B613B4619465C480FF061FD40233B606D
:1028F00001237B600023BB600023FB6000233B615E
:102900003B46194654480FF052FD4FF400533B60CC
:1029100001237B600023BB600023FB6000233B613D
:102920003B4619464D480FF042FD4FF480433B6053
:1029300001237B600023BB600023FB6000233B611D
:102940003B46194645480FF032FD4FF400433B60CB
:1029500001237B600023BB600023FB6000233B61FD
:102960003B4619463D480FF022FD04233B600123FE
:102970007B600023BB600023FB6000233B613B4680
:10298000194637480FF013FD4FF480633B60012375
:102990007B600023BB600023FB6000233B613B4660
:1029A00019462D480FF003FD4FF400633B600123EF
:1029B0007B600023BB600023FB6000233B613B4640
:1029C000194625480FF0F3FC4FF400433B60012308
:1029D0007B600023BB600023FB6000233B613B4620
:1029E00019461D480FF0E3FC4FF480633B60012360
:1029F0007B600023BB600023FB6002233B613B46FE
:102A0000194617480FF0D3FC4FF400633B600123D5
:102A10007B600023BB600023FB6002233B613B46DD
:102A200019460F480FF0C3FC4FF480533B6001235D
:102A30007B600023BB600023FB6000233B613B46BF
:102A4000194607480FF0B3FC4FF480733B60012335
:102A50007B6003230AE000BF001002400008024030
:102A60000004024000000240000C0240BB60002352
:102A7000FB6000233B613B46194696480FF097FCEC
:102A80004FF400733B6001237B600323BB60002392
:102A9000FB6000233B613B4619468E480FF087FCE4
:102AA0004FF480633B6001237B600323BB60002302
:102AB000FB6000233B613B46194686480FF077FCDC
:102AC0004FF400633B6000237B6000233B613B4687
:102AD000194680480FF06BFC4FF480733B60012374
:102AE0007B600023BB600023FB6002233B613B460D
:102AF000194679480FF05BFC4FF400733B600023EC
:102B00007B6000233B613B46194673480FF04FFC46
:102B10004FF480733B6000237B6000233B613B46A6
:102B200019466E480FF043FC4FF400633B600123ED
:102B30007B600023BB600023FB6000233B613B46BE
:102B4000194666480FF033FC4FF400433B60012305
:102B50007B600023BB600023FB6000233B613B469E
:102B600019465E480FF023FC01233B6001237B6084
:102B70000023BB600023FB6000233B613B461946FA
:102B800054480FF014FC02233B6001237B600023B8
:102B9000BB600023FB6000233B613B4619464D4868
:102BA0000FF005FC04233B6001237B600023BB6026
:102BB0000023FB6000233B613B46194645480FF06C
:102BC000F6FB08233B6000237B6000233B613B4610
:102BD000194640480FF0EBFB10233B6001237B605C
:102BE0000023BB600023FB6000233B613B4619468A
:102BF00038480FF0DCFB20233B6001237B6000237F
:102C0000BB600023FB6000233B613B461946314813
:102C10000FF0CDFB40233B6001237B600023BB60B2
:102C20000023FB6000233B613B46194629480FF017
:102C3000BEFB80233B6001237B600023BB6000233D
:102C4000FB6000233B613B46194622480FF0AFFB77
:102C50004FF480733B6001237B600023BB60002343
:102C6000FB6000233B613B4619461D480FF09FFB6C
:102C70004FF400733B6001237B600023BB600023A3
:102C8000FB6000233B613B46194615480FF08FFB64
:102C900001233B6001237B600023BB600023FB60BA
:102CA00000233B613B4619460E480FF080FB022390
:102CB0003B6001237B600023BB600023FB6000239B
:102CC0003B613B46194607480FF071FB00BF1837C0
:102CD000BD4680BD000C02400008024000000240DA
:102CE000000402400010024080B400AF72B600BF82
:102CF00000BFFDE780B483B000AF0F4B1B6C0E4AE2
:102D000043F0805313640C4B1B6C03F080537B60C7
:102D10007B68094B5B6C084A43F480435364064B61
:102D20005B6C03F480433B603B6800BF0C37BD46DF
:102D30005DF8047B704700BF0038024080B400AFEC
:102D400000BFFDE780B400AF00BFFDE780B400AF77
:102D500000BFFDE780B400AF00BFFDE780B400AF67
:102D600000BFFDE780B400AF00BFBD465DF8047B47
:102D7000704780B400AF00BFBD465DF8047B70476C
:102D800080B400AF00BFBD465DF8047B704780B5DE
:102D900000AF0DF0C7FE0DF05DFF08F06FFB00BF48
:102DA00080BD80B400AF00BFBD465DF8047B7047B6
:102DB00080B400AF01231846BD465DF8047B704720
:102DC00080B582B000AF7860396011F011FD034624
:102DD00016221A604FF0FF3318460837BD4680BDF3
:102DE00080B582B000AF78604FF0FF317868FFF7B0
:102DF000E7FF00BFFDE780B586B000AFF860B960BF
:102E00007A6000237B610AE0AFF300800146BB6873
:102E10005A1CBA60CAB21A707B6901337B617A6945
:102E20007B689A42F0DB7B6818461837BD4680BD48
:102E300080B586B000AFF860B9607A6000237B612E
:102E400009E0BB685A1CBA601B781846AFF30080D3
:102E50007B6901337B617A697B689A42F1DB7B682D
:102E600018461837BD4680BD80B483B000AF786087
:102E70004FF0FF3318460C37BD465DF8047B7047B2
:102E800080B483B000AF786039603B684FF4005283
:102E90005A60002318460C37BD465DF8047B704726
:102EA00080B483B000AF7860012318460C37BD466C
:102EB0005DF8047B704780B485B000AFF860B960FE
:102EC0007A60002318461437BD465DF8047B7047CE
:102ED00080B586B000AF7860144A154BD31A7B6179
:102EE0007B693B61134B1B68002B02D1114B124ACB
:102EF0001A60104B1A687B6813443A699A4207D2E9
:102F000011F076FC03460C221A604FF0FF3309E003
:102F1000084B1B68FB60074B1A687B681344054A23
:102F20001360FB6818461837BD4680BD00000820B6
:102F3000000400002844002078FA012080B400AF8B
:102F4000064BD3F88830054A43F47003C2F8883042
:102F500000BFBD465DF8047B704700BF00ED00E098
:102F6000DFF834D0FFF7EAFF0C480D490D4A002383
:102F700002E0D458C4500433C4188C42F9D30A4A2E
:102F80000A4C002301E013600432A242FBD311F08B
:102F900035FCFEF7F5F8704700000820000000201F
:102FA00000440020309F01080C44002078FA0120E2
:102FB000FEE780B582B000AF7860396006F07AFF36
:102FC00006F070FE7B6814330A220A2118460DF0C1
:102FD00065FD00BF0837BD4680BD000080B584B0E8
:102FE00002AF786039607B68002B03D10021104864
:102FF00006F090FA78683B685A683B689B680093D3
:1030000013460C4A0C490DF0BBFC7B6814337A68FC
:10301000192118460DF020FD3B681A687B685A623A
:103020007B6800221A8700BF0837BD4680BD00BFFD
:1030300014930108A1300008B32F000880B586B0B2
:1030400002AF0223009304230822094909480DF026
:1030500069F8094A3B1D07CA83E807003B1D19466A
:103060000648FFF7BBFF00BF1037BD4680BD00BF5D
:103070008844002068440020C06601082C440020D9
:1030800080B582B000AF0346FB71FB791946034857
:103090000DF090FC00BF0837BD4680BD2C440020D9
:1030A00090B585B000AF78603960012006F088F8EF
:1030B0003B681B88192B06D0192B27DC172B08D04F
:1030C000182B1DD022E006F0FFFE06F069FE01235A
:1030D0001DE00023FB730EE0FB7BFC7B184606F033
:1030E000F9FE034619467B6804F1140223F8121016
:1030F000FB7B0133FB73FB7B072BEDD9012306E040
:1031000006F0B8FD03461AB27B685A8702231846B8
:103110001437BD4690BD000080B483B000AF786026
:10312000054A7B681C3332F9133018460C37BD460C
:103130005DF8047B704700BF2C44002080B487B04A
:1031400000AFF860B96011461A460B46FB80134683
:10315000BB80164AFB68143332F91330BB82134A22
:10316000BB68143332F91330FB82B7F91430B7F966
:1031700004209A4210DCB7F91430B7F906209A42BD
:103180000ADBB7F914301A46B7F91630D31A002BF8
:10319000B8BF5B42322B01DD012300E0002318465B
:1031A0001C37BD465DF8047B704700BF2C440020EF
:1031B00080B483B000AF7860054A7B68143332F97D
:1031C000133018460C37BD465DF8047B704700BFCE
:1031D0002C44002080B500AF00F0B4F803F080FF6D
:1031E00004F064FEFFF72AFF02F01CFB00F0A2FFD0
:1031F00004F0D0FC04F0BAFB06F008F900BF80BD73
:1032000080B500AF012000F0BFF8042003F09AFF62
:10321000022004F071FE0320FFF732FF052002F0C8
:1032200023FB062004F0F0FC072000F0A9FF082093
:1032300004F0DCFB0A2006F035F900BF80BD80B544
:1032400000AF0DF04FFB00BF80BD80B582B000AF76
:103250007860396006F050FC07F06CFC07F012F95A
:103260007B68012283F85D207B68002283F862205E
:1032700000BF0837BD4680BD80B584B000AF786020
:1032800039607B685B69FB607B685B69396878687B
:1032900098470346FB72FB7A002B08D1FB6806496E
:1032A000786898477B685B6904497868984700BFED
:1032B0001037BD4680BD00BF44930108309301081C
:1032C00080B584B002AF786039607B68002B03D191
:1032D0000021194806F01EF978683B685A683B6877
:1032E0009B6800931346154A15490DF049FB3B684E
:1032F0001A687B685A617B6818337A681A21184605
:103300000DF0AAFB7B6828337A68242118460DF05B
:10331000A3FB7B68283318460DF0E0FB7B6818336D
:1033200018460DF0DBFB3B681A7B7B6883F858205E
:1033300000BF0837BD4680BD2093010879320008E0
:103340004B32000890B587B002AF122300930223DE
:103350002422094909480CF0E5FE094B3C460FCBF5
:1033600084E80F003B4619460648FFF7A9FF00BF57
:103370001437BD4690BD00BF2C450020FC44002002
:10338000CC6601089044002080B582B000AF0346AF
:10339000FB71FB79194603480DF00CFB00BF0837A1
:1033A000BD4680BD9044002080B582B000AF7860FB
:1033B00039603B681B88013B1C2B53D801A252F893
:1033C00023F000BF39340008653400086534000874
:1033D0006534000865340008653400086534000869
:1033E0006534000865340008653400086534000859
:1033F0006534000865340008653400086534000849
:103400006534000865340008653400086534000838
:103410006534000865340008653400086534000828
:103420006534000865340008653400084734000836
:10343000513400085B3400087B68183318460DF0DF
:103440004DFB01230FE07B68094A5A6100230AE023
:103450007B68084A5A61002305E07B68064A5A6186
:10346000002300E0022318460837BD4680BD00BF98
:103470007D3400081D3700083938000890B58FB03A
:1034800002AF786039603B681B88013B232B00F258
:10349000288101A252F823F029350008E3360008FC
:1034A000BF350008E3360008E3360008E3360008BD
:1034B000E3360008E3360008E3360008E336000888
:1034C000E3360008E3360008E3360008E336000878
:1034D000E3360008E3360008E3360008E336000868
:1034E000E3360008E3360008E3360008E336000858
:1034F000E3360008E3360008E33600089736000894
:10350000E3360008E3360008E3360008D735000844
:103510000B3600083F360008E3360008E3360008A3
:10352000E3360008A9360008704BFB619B2300932B
:103530006F4BFA696F4970480CF065FD7B68183372
:10354000002244F6206118460DF0A8FA7B6893F833
:103550003C301946786800F0E4FA786800F0FAFA2E
:103560007B68DB8FBB607B68B3F84030FB607B68B7
:10357000B3F842303B617B689B6B7B617B6893F85F
:103580003C30BB617B6893F83D30184606F01EFB6B
:1035900007F10803184606F03BFF7B682833012239
:1035A000012118460DF07AFA544B00221A8007F0D8
:1035B0001DF97B68002283F85820012392E07B6884
:1035C000183318460DF08AFA7B68283318460DF038
:1035D00085FA012386E0454B3B62BE230093444BB2
:1035E0003A6A474944480CF00EFD7B6893F858301E
:1035F000002B04D17B68012283F8582003E07B680C
:10360000032283F8582001236CE0384B7B62C923E6
:103610000093374B7A6A3B4937480CF0F4FC7B68DF
:1036200093F85830012B04D17B68022283F858208C
:1036300003E07B68032283F85820012352E02B4BE0
:10364000FB62D32300932A4BFA6A2F492A480CF0D5
:10365000DAFC7B6893F85830022B04D17B68052292
:1036600083F8582003E07B68032283F858201F4B1F
:10367000BB62D92300931E4BBA6A24491E480CF042
:10368000C2FC234B1B68184600F04EFE7B68214AA3
:103690005A61002326E07B68042283F858207B6867
:1036A0001C4A5A6100231DE0144B1B88B3F5005FD0
:1036B00010D2124B1B885A1C91B2104A11801C4622
:1036C00006F0E4FA03461A46134B23F8142006F0DA
:1036D00071FB04E07B68283318460DF0FFF90123E5
:1036E00000E0022318463437BD4690BDDC66010871
:1036F000E46601080C670108C8CC002060C5002002
:103700002C6701085867010880670108AC67010849
:1037100008000020A93300086085002080B582B031
:1037200000AF786039603B681B88232B1ED0232BA9
:1037300073DC222B3ED0222B6FDC012B02D0212BFD
:103740002BD06AE07B68183318460DF0C7F97B6808
:103750001B6D344A53607B68DB6C324A1360324B1A
:103760001B68184604F084F8012357E02D4B5B6872
:10377000B3F5005F28BF4FF400539AB22B4B1A8069
:10378000284B1B685B00294A128852001146284AC0
:10379000184607F001FA012340E0234B1868234B39
:1037A0001B881A467B6893F85530214904F03CF891
:1037B000012333E01B4B5B681C4A12889B1A194A91
:1037C0005360184B1B68194A12881344154A13603A
:1037D000144B5B68002B16D0124B5B68B3F5005F8F
:1037E00028BF4FF400539AB2104B1A800D4B1B6840
:1037F0005B000E4A1288520011460D4A184607F027
:10380000CBF901230AE0084B1B68184604F040F886
:103810007B68084A5A61002300E0022318460837F3
:10382000BD4680BD50450020040000205C8500207E
:103830005C450020A933000880B586B002AF7860EF
:1038400039603B681B88012B02D0212B1BD032E052
:103850001B4BBB604FF4987300931A4BBA681A491C
:103860001A480CF0D0FB7B68183318460DF036F977
:103870007B68DB6C5B00164A4FF48041184607F00A
:103880008BF9012318E00E4BFB604FF49C730093FF
:103890000C4BFA680F490D480CF0B5FB0C4807F0CB
:1038A000D5FB0D4B1B68184604F002F97B680B4AE8
:1038B0005A61002300E0022318461037BD4680BD40
:1038C000DC660108E4660108C8670108C8CC00206E
:1038D0005C450020E46701080C000020A9330008C3
:1038E00080B584B000AFF860B9607A60FB70FB68A7
:1038F000BA68DA64FB687A681A65FB68FA7883F854
:103900005520084B1B684FF6FF72A3F84220FB6856
:10391000054918460DF078F8002318461037BD46C3
:1039200080BD00BF040000206C93010880B582B008
:1039300000AF78607B680022DA647B684FF48042D5
:103940001A657B68012283F85520084B1B684FF6E7
:10395000FF72A3F842207B68054918460DF054F821
:10396000002318460837BD4680BD00BF0400002074
:103970006C93010880B582B000AF78607B68044921
:1039800018460DF041F8002318460837BD4680BDA3
:103990009493010880B582B000AF78607B680449D9
:1039A00018460DF031F8002318460837BD4680BD93
:1039B000A893010880B582B000AF78607B680449A5
:1039C00018460DF021F8002318460837BD4680BD83
:1039D000BC93010880B584B000AFF860B9607A602C
:1039E000BB68012B02D87B68642B01D9062318E041
:1039F000FB6893F85D30002B06D0002006F038F805
:103A0000FB68002283F85D207968B86806F01EF92B
:103A10007B68D9B2FA68BB68134459330A461A70F6
:103A2000002318461037BD4680BD80B582B000AF78
:103A3000786039603B68242B01D9062314E07B6849
:103A400093F85D30012B06D0012006F011F87B6859
:103A5000012283F85D20386806F084F83B68DAB20A
:103A60007B6883F85B20002318460837BD4680BD7D
:103A700080B582B000AF78607B6893F85D30012B31
:103A800006D0012005F0F4FF7B68012283F85D2059
:103A900006F078F87B68FF2283F85B200023184645
:103AA0000837BD4680BD80B582B000AF7860396010
:103AB0003B68082B01D9062314E07B6893F85D303E
:103AC000012B06D0012005F0D3FF7B68012283F88B
:103AD0005D20386806F060F83B68DAB27B6883F8EE
:103AE0005C20002318460837BD4680BD80B582B0F3
:103AF00000AF78607B6893F85D30012B06D0012021
:103B000005F0B6FF7B68012283F85D2006F054F8CB
:103B10007B68FF2283F85C20002318460837BD46E7
:103B200080BD80B582B000AF786039603B68242BDF
:103B300001D906230AE006F035FD386806F05AFD83
:103B40003B68DAB27B6883F85E20002318460837AA
:103B5000BD4680BD80B582B000AF786006F036FD0E
:103B6000002318460837BD4680BD000080B483B0EE
:103B700000AF786039603B681B68002B04D03B685D
:103B80001B68164A934201D9062321E03B68DB6893
:103B9000B3F5006F01D906231AE03B681A687B6809
:103BA0009A633B68DA887B68DA873B681A897B68A6
:103BB000A3F840203B685A897B68A3F842203B6801
:103BC000DA687B685A643B681A697B689A640023E8
:103BD00018460C37BD465DF8047B704700350C0075
:103BE00080B483B000AF786039603B685B79642B48
:103BF00001D9062305E03B685A797B6883F83D20AC
:103C0000002318460C37BD465DF8047B704780B42E
:103C100083B000AF786039603B681B79002B03D01C
:103C20003B681B79242B01D9062305E03B681A79F0
:103C30007B6883F83C20002318460C37BD465DF8AE
:103C4000047B7047B0B483B000AF786039603B68E4
:103C50001B68002B04D03B681B68184A934201D9AB
:103C6000062326E03B681B79002B03D03B681B79B9
:103C7000242B01D906231CE03B685B79642B01D916
:103C8000062316E03B68DB68B3F5006F01D9062315
:103C90000FE03B681B69002B01D1062309E07B681C
:103CA0003A6803F1380415460FCD0FC42B68236022
:103CB000002318460C37BD46B0BC704700350C00D9
:103CC000B0B483B000AF786039603A687B6815465D
:103CD00003F138040FCC0FC523682B6000BF0C37ED
:103CE000BD46B0BC7047000080B584B000AF7860BE
:103CF0007B683833FB60FB681B68002B04D0FB68D3
:103D00001B68134A934201D906231CE0FB681B7908
:103D1000002B03D0FB681B79242B01D9062312E06A
:103D2000FB685B79642B01D906230CE0FB68DB6838
:103D3000B3F5006F01D9062305E07B6805491846F5
:103D40000CF062FE002318461037BD4680BD00BF50
:103D500000350C005893010880B582B000AF786040
:103D60000B467B807B885B031A467B68DA647B6842
:103D70004FF400521A657B68012283F854207B6857
:103D8000044918460CF040FE002318460837BD468B
:103D900080BD00BF8093010880B582B000AF78601D
:103DA000064807F053F9064B1B68184603F080FEDF
:103DB000002318460837BD4680BD00BF608500203F
:103DC0000C00002080B483B000AF786039607B685D
:103DD0003A689A6100BF0C37BD465DF8047B7047B6
:103DE00080B483B000AF786039603B681A047B68A8
:103DF0009A6100BF0C37BD465DF8047B7047000038
:103E000080B582B000AF78600B46FB707B68FA78B3
:103E1000114618460BF0EAFE00F0C8FA02467B682D
:103E2000C3F804227B68002283F80C227B680122FD
:103E300083F80D22FB78032B04D8FB7806497A68B7
:103E400041F823207B68012118460BF02DFA00BFB2
:103E50000837BD4680BD00BF58C8002080B582B07D
:103E600000AF78607A687B6893F800321946104694
:103E70000BF0BCFE7B68012118460BF015FA00F030
:103E800095FA02467B68C3F804227B68002283F817
:103E90000C2200BF0837BD4680BD80B483B000AFA0
:103EA000786039607B683A68C3F8082200BF0C3735
:103EB000BD465DF8047B704780B586B000AFF86002
:103EC000B9607A60FB687A68B96818460BF0E8FD5B
:103ED00000F06CFA7861FB6893F8E230002B35D083
:103EE000FB6893F8E4301A4613465B0013449B00CA
:103EF000FA6813443B613B691B687A69D31A40F640
:103F0000B83293421ED9FB6893F80C3283F0010358
:103F1000DBB2002B1AD0FB68D3F80832002B04D098
:103F2000FB68D3F80832F8689847FB68012283F8E9
:103F30000C22FB6893F80D32002B07D0F868FFF7CE
:103F40008DFF03E0FB68002283F80C22FB687A698E
:103F5000C3F8042200BF1837BD4680BD80B586B0C7
:103F600002AF7860084BFB6066230093074BFA684A
:103F7000074908480CF047F8074906480CF043F891
:103F800000BF1037BD4680BD046801080C680108F9
:103F900030680108C8CC00204C68010880B500AF2B
:103FA0004FF48072084909480CF0E2F94FF480722E
:103FB000074908480CF0DCF9064B044A0649074853
:103FC0000BF020FF00BF80BD90C9002068C9002011
:103FD00090CA00207CC900200078004090CB0020CF
:103FE00080B582B000AF786039607B68002B03D168
:103FF00001210F4805F08EFA7B680E4A9A610E493E
:104000000C48FFF74AFF7B6824330A220A2118462E
:104010000CF044FD09480BF011FF7B689B690021FF
:104020001846FFF7EDFE00BF0837BD4680BD00BF54
:10403000D093010848C600205D3F000890CB0020C7
:1040400080B584B000AF786039607B68002B03D105
:104050000421124805F05EFA3B68002B03D10521CC
:104060000E4805F057FA7B685B69FB607B685B690B
:104070003968786898470346FB72FB7A002B08D1B1
:10408000FB680749786898477B685B6905497868E9
:10409000984700BF1037BD4680BD00BFD0930108D0
:1040A000E8930108DC93010880B584B002AF786022
:1040B00039607B68002B03D102211B4805F02AFAE6
:1040C00078683B68DA683B681B6900931346174AB7
:1040D00017490CF055FC7B6824337A680D2118468B
:1040E0000CF0BAFC7B6834337A68102118460CF067
:1040F000B3FC3B681A687B685A613B685A687B6806
:104100009A613B689A687B68DA617B682433184659
:104110000CF0E4FC7B68343318460CF0DFFC00BF85
:104120000837BD4680BD00BFD0930108414000085C
:10413000E13F0008B0B588B002AFFFF72FFF0C23B6
:1041400000930A2378220A490A480BF0EBFF0A4B36
:104150003C1D1D460FCD0FC42B6823603B1D194627
:104160000648FFF7A1FF00BF1837BD46B0BD00BF2E
:10417000D0C50020A8C500205068010864C50020F3
:1041800080B582B000AF0346FB71FB791946034846
:104190000CF010FC00BF0837BD4680BD64C5002090
:1041A00080B586B002AF786039607B68002B03D1A0
:1041B0000321484805F0AEF93B681B88013B0F2BF3
:1041C00000F2838001A252F823F000BF0D420008E4
:1041D000CB420008CB420008CB420008CB4200088B
:1041E000CB420008CB420008CB420008CB4200087B
:1041F000CB420008CB420008CB4200081F42000817
:104200005542000891420008914200087B6824331F
:104210000A220A2118460CF041FC012356E0032033
:1042200004F0CEFF2C4B4FF480721A607B68DB6980
:10423000294A2A4918460BF021FE0346002B07D0D5
:104240007B689B69244A126824491846FFF734FEAC
:1042500001233BE07B68243318460CF03FFC4FF40D
:1042600000611F48FFF7AEFD1E4BBB60C6230093E5
:104270001D4BBA681D491E480BF0C5FE7B683433E0
:10428000002244F6206118460CF008FC01231DE0D2
:104290007B68343318460CF021FC4FF40061104861
:1042A000FFF79EFD0F4BFB60CE2300930E4BFA6889
:1042B00010490F480BF0A7FE7B6824330A220A211D
:1042C00018460CF0EBFB012300E0022318461037E0
:1042D000BD4680BDD09301081000002068C80020B2
:1042E00000040240046801080C68010864680108C1
:1042F000C8CC00209468010880B586B000AF786013
:1043000007F10C0300221A605A609A600E23BB81E9
:104310007B6807F10C02114618460CF075FB002370
:1043200018461837BD4680BD80B586B000AF7860AE
:1043300007F10C0300221A605A609A600F23BB81B8
:104340007B6807F10C02114618460CF05DFB002358
:1043500018461837BD4680BD80B582B000AF034611
:10436000FB71064BDB699B6818460CF009F90346A4
:104370009BB218460837BD4680BD00BF64C500200B
:1043800080B582B000AF03460A46FB711346BB718D
:10439000054BDB69BA79114618460BF0EEFD00BFFC
:1043A0000837BD4680BD00BF64C5002080B500AFA2
:1043B0000CF006FC0346184680BD000080B586B0B0
:1043C00000AF396011461A460346FB710B46BB71BC
:1043D00013467B717B79032B34D87B791C4A52F8C6
:1043E00023303B613B69002B2ED01A4B1B68002BFE
:1043F00005D0184B1B68BA79F8793968984701F0ED
:1044000097F9F86001F09EF9B86000237B6114E031
:104410007B69DB00FA6813441B78FA799A4209D168
:104420007B69DB00FA6813445B68BA7939683869DC
:1044300098470AE07B6901337B617A69BB689A42DD
:10444000E6DB02E000BF00E000BF1837BD4680BDDC
:1044500058C80020A0CB002080B584B000AFF86021
:104460007A601A460B46FB721346BB72FB68BA7A37
:10447000114618460AF0B6FF0346002B05D0F8682F
:10448000BB7AF97A7A680AF047FF00BF1037BD4659
:1044900080BD000080B500AF054BDB6918460BF00E
:1044A000E7FD034BDB6918460BF009FE00BF80BD3A
:1044B00064C5002080B588B002AFF860B9601346CB
:1044C000FB71002300220121F868FFF7C5FF0A4BAA
:1044D0007B61FB79019347230093084B7A69084974
:1044E00008480BF090FD084B1B68184603F002FCCF
:1044F00000BF1837BD4680BDE4680108EC680108BC
:1045000018690108C8CC00202000002080B58AB0BE
:1045100004AFF860B9601346FB71BB681B781A06DC
:10452000BB6801331B781B041A43BB6802331B783A
:104530001B021343BA680332127813437B61FB7981
:10454000BA680321F868FFF787FF094B3B61FB79E5
:104550007A690292019350230093064B3A69064907
:1045600006480BF050FD00BF1837BD4680BD00BFA8
:10457000E4680108EC68010834690108C8CC00202F
:1045800080B58CB006AFF860B9601346FB71BB68AC
:104590001B78FB75BB6801331B78BB75BB680233A6
:1045A0001B787B75BB6803331B783B75FB79BA6856
:1045B0000521F868FFF750FF3B7D7A7DB97DF87DD6
:1045C00006F034FF0A4B3B61FB7DBA7D797D387D77
:1045D00004900391029201935E230093054B3A6984
:1045E000054906480BF00FFD00BF1837BD4680BDDA
:1045F000E4680108EC6801086C690108C8CC002077
:1046000080B58AB002AFF860B9601346FB71FF2332
:104610003B75BB681B78FB770E4B1B68FA7F114616
:10462000184603F057FB07F1140201230921F8682B
:10463000FFF712FF084BBB61FB7F019367230093D9
:10464000064BBA69064907480BF0DDFC00BF20376E
:10465000BD4680BD24000020E4680108EC68010824
:1046600094690108C8CC002090B5A3B008AFF860E9
:10467000B9601346FB714FF63F73BB820023A7F866
:104680006630BB681B781BB21B021AB2BB680133D1
:104690001B781BB21343A7F86430BB6802331B7846
:1046A0001BB21B021AB2BB6803331B781BB2134345
:1046B000A7F86230BB6804331B781BB21B021AB226
:1046C000BB6805331B781BB21343A7F86030BB6887
:1046D00006331B7887F85F30BB6807331B7887F891
:1046E0005E30BB6808331B7887F85D30BB680933E0
:1046F0001B7887F85C30BB680A331B7887F85B301F
:10470000BB680B331B781BB21B021AB2BB680C339D
:104710001B781BB213431BB2A7F85830BB680D338C
:104720001B7887F8573097F85F30072B0ED9B7F80A
:1047300066300133A7F86630844B3B657C230093D9
:10474000834B3A6D834984480BF05DFC97F85E30EB
:10475000072B0ED9B7F866300133A7F866307B4BCC
:10476000FB64812300937A4BFA6C7C497A480BF006
:104770004AFC97F85C300F2B0ED9B7F8663001333E
:10478000A7F86630714BBB6486230093704BBA6CFC
:10479000734971480BF037FC97F85B300F2B0ED93B
:1047A000B7F866300133A7F86630684B7B648B231B
:1047B0000093674B7A6C6B4967480BF024FCB7F8A1
:1047C0006630002B40F0A880674B1868B7F864107B
:1047D000B7F86220B7F8604097F857300693B7F8FB
:1047E0005830059397F85B30049397F85C30039347
:1047F00097F85D30029397F85E30019397F85F3039
:104800000093234604F0F4FB504B3B64B7F964304B
:104810000193912300934E4B3A6C54494E480BF050
:10482000F2FB4A4BFB63B7F962300193922300938A
:10483000474BFA6B4E4948480BF0E5FB434BBB63D3
:10484000B7F96030019393230093414BBA6B494908
:1048500041480BF0D8FB3D4B7B6397F85F300193E9
:10486000942300933A4B7A6B43493B480BF0CBFBC4
:10487000364B3B6397F85E30019395230093344B9E
:104880003A6B3E4934480BF0BEFB304BFB6297F865
:104890005D30002B01D13A4B00E03A4B0193962357
:1048A00000932B4BFA6A38492B480BF0ACFB274B93
:1048B000BB6297F85C30019397230093244BBA6A4C
:1048C000324925480BF09FFB204B7B6297F85B3009
:1048D0000193982300931E4B7A6A2D491E480BF0D2
:1048E00092FB1A4B3B62B7F858300193992300931F
:1048F000174B3A6A274918480BF085FB134BFB61AD
:1049000097F8573001939A230093114BFA69224983
:1049100011480BF078FB03E03E233B753E237B758B
:1049200007F1140202230B21F868FFF795FD074BEE
:10493000BB61A2230093064BBA69184906480BF0E5
:1049400062FB00BF6C37BD4690BD00BFE468010844
:10495000EC680108B8690108C8CC0020E4690108C6
:10496000106A01083C6A010818000020686A010802
:10497000846A0108A06A0108BC6A0108D86A0108B3
:10498000F46A0108F86A0108FC6A01081C6B010856
:10499000406B0108646B0108806B01089C6B010887
:1049A00080B588B002AFF860B9601346FB71FF2391
:1049B000FB740D4B7B61A82300930C4B7A690C4967
:1049C0000C480BF020FB0C4B1B68184603F058FEFC
:1049D00007F1130201230D21F868FFF73DFD00BF29
:1049E0001837BD4680BD00BFE4680108EC680108C7
:1049F000C06B0108C8CC00201800002080B588B02A
:104A000002AFF860B9601346FB71FF23FB740D4BD6
:104A10007B61B02300930C4B7A690C490C480BF076
:104A2000F2FA0C4B1B68184603F00EFE07F1130256
:104A300001230F21F868FFF70FFD00BF1837BD46AF
:104A400080BD00BFE4680108EC680108EC6B010858
:104A5000C8CC00201800002080B592B002AFF860EA
:104A6000B9601346FB714FF63F73BB82002387F892
:104A70003F30BB681B781B02BA68013212781343BF
:104A80009BB21A465201D21A92001344DB00BB8734
:104A9000BB6802331B7887F83B30BB6803331B7855
:104AA0001BB21B021AB2BB6804331B781BB2134340
:104AB0001BB23B87BB8F4EF6602293420ED997F80C
:104AC0003F30013387F83F30584B7B63C02300935E
:104AD000574B7A6B574958480BF095FA97F83B308B
:104AE000042B0FD997F83F30013387F83F304F4BF5
:104AF0003B62C62300934E4B3A6A50494E480BF036
:104B000082FA49E097F83B30042B21D107F11402D7
:104B100002231121F868FFF79FFC494B1B68042111
:104B2000184604F07FF8414BBB62CC230093404B06
:104B3000BA6A444940480BF066FA3C4B7B62CD238D
:104B400000933B4B7A6A40493B480BF05CFA6AE0C1
:104B50003B4B1B68184603F0B0FE034687F8333022
:104B600097F8332097F83B3042FA03F303F0010340
:104B7000002B11D097F83F30013387F83F302B4B93
:104B8000FB6297F83B300193D6230093284BFA6AD7
:104B90002E4929480BF037FA3B8FB3F5FA7F04D33F
:104BA0003B8F40F6B832934210D997F83F3001332B
:104BB00087F83F301D4BFB613B8F0193DD23009352
:104BC0001B4BFA6922491C480BF01DFA97F83F303D
:104BD000002B13D1BB8F184600F0E0FE184B1B686A
:104BE00097F83B201146184604F01CF8144B1B683C
:104BF0003A8F1146184604F02EF803E03E233B7529
:104C00003E237B7507F1140202231121F868FFF798
:104C100023FC064BBB61ED230093054BBA690A499F
:104C200005480BF0F0F94037BD4680BDE468010847
:104C3000EC680108186C0108C8CC0020506C010811
:104C4000180000207C6C0108AC6C0108D86C0108CD
:104C5000006D010880B588B002AFF860B9601346F6
:104C6000FB71FF23FB7407F1130201231321F86882
:104C7000FFF7F2FB074B7B61F4230093064B7A6945
:104C8000064907480BF0BFF900F04CFE00BF18378B
:104C9000BD4680BDE4680108EC680108346D010878
:104CA000C8CC002080B588B002AFF860B960134668
:104CB000FB71FF23FB7407F1130201231521F86830
:104CC000FFF7CAFB074B7B61FC230093064B7A6915
:104CD000064907480BF097F900F048FE00BF183767
:104CE000BD4680BDE4680108EC680108586D010804
:104CF000C8CC002080B59AB002AFF860B960134606
:104D0000FB71864BBB654FF481730093844BBA6D86
:104D1000844985480BF077F94FF63F733B850023B4
:104D2000A7F85E30BB681B781A06BB6801331B7896
:104D30001B041A43BB6802331B781B021343BA6877
:104D40000332127813437B65BB6804331B781B0264
:104D50009BB2BA68053212781343A7F85230BB6889
:104D600006331B781B029BB2BA68073212781343D2
:104D7000A7F85030BB6808331B781B029BB2BA6897
:104D8000093212781343A7F84E307B6DB3F57A7F62
:104D900003D37B6D654A93420FD9B7F85E30013378
:104DA000A7F85E305D4BBB644FF4877300935C4B98
:104DB000BA6C5F495C480BF026F9B7F85230002B0B
:104DC0000FD1B7F85E300133A7F85E30534B7B64E8
:104DD0004FF48A730093524B7A6C564952480BF049
:104DE00012F9B7F85030002B0FD1B7F85E3001330D
:104DF000A7F85E30494B3B644FF48D730093484BEA
:104E00003A6C4D4948480BF0FEF8B7F84E30002B8D
:104E10000FD1B7F85E300133A7F85E303F4BFB632C
:104E20004FF4907300933E4BFA6B44493E480BF0AD
:104E3000EAF8B7F85220B7F850301A44B7F84E30B5
:104E400013441A467B6D02FB03F33D4AA2FB032386
:104E50009B0CBB63BB6BB3F5006F0FD9B7F85E302B
:104E60000133A7F85E302D4B7B6340F2271300938C
:104E70002B4B7A6B33492C480BF0C5F8B7F85E30F2
:104E8000002B3AD17B6D7B61B7F852307B83B7F84A
:104E90005030BB83B7F84E30FB83BB6B3B622A4A72
:104EA0007B6DB2FBF3F37B62284B1B6807F11402A6
:104EB00011461846FEF75AFE0346002B0BD1174B3E
:104EC000FB6240F235130093154BFA6A20491648ED
:104ED0000BF099F817E03E2387F828303E2387F837
:104EE00029300E4B3B6340F23B1300930C4B3A6B63
:104EF00018490D480BF087F805E03E2387F8283065
:104F00003E2387F8293007F1280202231721F86889
:104F1000FFF7A2FA00BF6037BD4680BDE468010814
:104F2000EC6801087C6D0108C8CC002000350C003D
:104F30009C6D0108D06D0108006E0108306E0108FB
:104F400083DE1B43606E010840420F001C000020FE
:104F5000946E0108B46E010880B590B002AFF8609D
:104F6000B9601346FB714FF63F73BB84BB681B7877
:104F700087F8373097F83730642B11D93E2387F8FC
:104F800024303E2387F82530244BBB6240F24F1378
:104F90000093234BBA6A234923480BF034F839E0D5
:104FA000224B1B6807F1100211461846FEF788FED7
:104FB00097F837307B751D4B1B6807F110021146BF
:104FC0001846FEF70DFE0346002B0BD1134BFB6278
:104FD0004FF4AD730093124BFA6A154912480BF067
:104FE00012F810E03E2387F824303E2387F825305E
:104FF0000A4B3B634FF4B0730093094B3A6B0D4976
:1050000009480BF000F807F1240202231921F8687F
:10501000FFF722FA3837BD4680BD00BFE4680108BB
:10502000EC680108D46E0108C8CC00201C000020E8
:10503000006F01082C6F010880B590B002AFF860D6
:10504000B9601346FB714FF63F73BB84BB681B7896
:1050500087F8373097F83730242B03D897F8373054
:10506000002B11D13E2387F824303E2387F82530CA
:10507000244BBB624FF4B7730093234BBA6A2349A6
:1050800023480AF0C0FF32E0224B1B6807F11002F0
:1050900011461846FEF714FE97F837303B751D4B46
:1050A0001B6807F1100211461846FEF7B0FD0346D3
:1050B000002B0BD1134BFB624FF4BC730093124BCC
:1050C000FA6A154912480AF09EFF10E03E2387F85D
:1050D00024303E2387F825300A4B3B634FF4BF73DF
:1050E0000093094B3A6B0D4909480AF08CFF07F110
:1050F000240202231B21F868FFF7AEF900BF3837FE
:10510000BD4680BDE4680108EC680108586F0108DD
:10511000C8CC00201C000020846F0108A86F010883
:1051200080B58AB002AFF860B9601346FB713F23C7
:105130003B75184B1B681846FEF7D6FD0346002B3F
:105140000DD03E233B75144BBB614FF4C5730093E8
:10515000124BBA69124913480AF055FF0FE0124B7F
:105160001B681846FFF7C8F80B4BFB6140F28F1322
:1051700000930A4BFA690D490A480AF044FF07F107
:10518000140201231D21F868FFF766F900BF2037DC
:10519000BD4680BD1C000020E4680108EC680108E1
:1051A000CC6F0108C8CC002014000020F46F010867
:1051B00080B590B002AFF860B9601346FB71254B23
:1051C0001B6807F1140211461846FEF779FD3B6A89
:1051D000002B11D1002387F82830002387F82930CD
:1051E0001D4BFB624FF4CF7300931C4BFA6A1C49B2
:1051F0001C480AF008FF21E03B6ADB08FB863B6A9B
:1052000003F00703002B02D0FB8E0133FB86124B09
:105210003B63FB8E019340F2A51300930F4B3A6B57
:10522000114910480AF0EFFEFB8E1B0A9BB2DBB25D
:1052300087F82830FB8EDBB287F8293007F1280287
:1052400002231F21F868FFF707F900BF3837BD4672
:1052500080BD00BF1C000020E4680108EC68010864
:105260001C700108C8CC00203C70010880B590B0CB
:1052700002AFF860B9601346FB714FF63F73BB8411
:10528000BB681B7887F83530304B1B6807F110027C
:1052900011461846FEF714FDFB69DB08FB86FB6927
:1052A00003F00703002B02D0FB8E0133FB86FB8E3D
:1052B000002B11D13E2387F824303E2387F8253078
:1052C000234BBB6240F2B9130093224BBA6A2249C6
:1052D00022480AF098FE2EE097F835309BB2FA8EFD
:1052E0009A4211D83E2387F824303E2387F8253090
:1052F000174BFB6240F2BF130093164BFA6A184932
:1053000016480AF080FE16E0104B1B6897F835200F
:1053100092B211461846FEF71FFD0D4B3B6397F8FE
:10532000353001934FF4E27300930A4B3A6B0D4909
:105330000A480AF068FE07F1240202232121F868D6
:10534000FFF78AF800BF3837BD4680BD1C0000203B
:10535000E4680108EC68010860700108C8CC00200E
:105360007C700108A470010880B58CB004AFF860AF
:10537000B9601346FB7105F0A7FF0346FB83FB8B67
:105380001B0A9BB2DBB23B75FB8BDBB27B7507F173
:10539000140202232321F868FFF75EF80A4BBB6171
:1053A000BB681B781A46FB8B0293019240F2D11323
:1053B0000093064BBA69064906480AF024FE00BF6E
:1053C0002037BD4680BD00BFE4680108EC680108D5
:1053D000D0700108C8CC002080B588B002AFF8605A
:1053E000B9601346FB714FF63F733B820D4B1B6850
:1053F0001846FEF7D1FC0C4B7B614FF4EC73009325
:105400000A4B7A690A490B480AF0FDFD07F11002C0
:1054100002232521F868FFF71FF800BF1837BD46A3
:1054200080BD00BF1C000020E4680108EC68010892
:10543000FC700108C8CC002080B58CB004AFF860C7
:10544000B9601346FB7105F03FFF0346FB83FB8BFE
:105450001B0A9BB2DBB23B75FB8BDBB27B7507F1A2
:10546000140202232721F868FEF7F6FF0A4BBB61FE
:10547000BB681B781A46FB8B029301924FF4F273C0
:105480000093064BBA69064906480AF0BCFD00BF06
:105490002037BD4680BD00BFE4680108EC68010804
:1054A00028710108C8CC002080B58AB002AFF8602E
:1054B000B9601346FB714FF63F733B82BB681B78A4
:1054C000FB83B7F91E30642B0FDD3E233B743E2374
:1054D0007B74164B7B6140F2EF130093144B7A6997
:1054E000144915480AF08FFD15E0144B1B68B7F9F5
:1054F0001E2001211846FEF76DFA0C4BBB61B7F96F
:105500001E3001934FF4FA730093094BBA690C49AA
:1055100009480AF078FD07F1100202232921F868F2
:10552000FEF79AFF00BF2037BD4680BDE468010842
:10553000EC68010850710108C8CC00201C00002054
:105540007C71010880B58AB002AFF860B96013467B
:10555000FB714FF63F733B82BB681B78FB77FB7F89
:10556000082B02D8FB7F002B0FD13E233B743E2338
:105570007B74144B7B6140F202230093124B7A69D7
:10558000124913480AF03FFD11E0124B1B68FA7FE5
:1055900011461846FEF787FA0A4BBB6140F2072313
:1055A0000093094BBA690C4909480AF02CFD07F130
:1055B000100202232B21F868FEF74EFF00BF2037B0
:1055C000BD4680BDE4680108EC680108A8710108C7
:1055D000C8CC00201C000020D471010880B588B020
:1055E00002AFF860B9601346FB71FF233B7407F10B
:1055F000100201232D21F868FEF72EFF094B1B68CE
:105600001846FEF773FA084B7B6140F211230093B2
:10561000064B7A69064907480AF0F5FC00BF1837BF
:10562000BD4680BD1C000020E4680108EC6801084C
:10563000F8710108C8CC002080B58CB002AFF860CA
:10564000B9601346FB710020FDF766FD0346FB843D
:105650000120FDF761FD0346BB843F233B75FB8CB6
:105660001B0A9BB2DBB27B75FB8CDBB2BB75BB8CC0
:105670001B0A9BB2DBB2FB75BB8CDBB23B7607F13E
:10568000140205233321F868FEF7E6FE0E4B3B6259
:10569000FB8C019340F21B2300930C4B3A6A0C499C
:1056A0000C480AF0B0FC084BFB61BB8C01934FF433
:1056B00007730093054BFA69074906480AF0A3FCF3
:1056C00000BF2837BD4680BDE4680108EC680108CA
:1056D0001C720108C8CC00204472010880B588B053
:1056E00002AFF860B9601346FB71FF233B740BF007
:1056F000E7F80B4B7B614FF409730093094B7A6910
:1057000009490A480AF07FFC07F1100201233521FC
:10571000F868FEF7A1FE00BF1837BD4680BD00BF88
:10572000E4680108EC6801086C720108C8CC00202C
:1057300080B400AF024B1846BD465DF8047B70474D
:10574000F493010880B400AF18231846BD465DF8F5
:10575000047B704780B582B000AF786039607B68A9
:10576000183318460BF0BAF900BF0837BD4680BDA4
:1057700080B584B000AF786039607B685B69FB609E
:105780007B685B693968786898470346FB72FB7AE7
:10579000002B08D1FB680649786898477B685B69ED
:1057A00004497868984700BF1037BD4680BD00BFE8
:1057B000D8940108C494010880B584B002AF786021
:1057C00039607B68002B03D10021134803F0A2FE4F
:1057D00078683B685A683B689B68009313460F4A99
:1057E0000F490BF0CDF87B6818337A6816211846FC
:1057F0000BF032F93B681A687B685A617B680022BB
:1058000083F828207B68183318460BF067F900BF2F
:105810000837BD4680BD00BFB49401087157000829
:105820005557000880B586B002AF122300930223BB
:105830002422094909480AF075FC094A3B1D07CA98
:1058400083E807003B1D19460648FFF7B5FF00BF78
:105850001037BD4680BD00BFE4CB002008CC00203F
:1058600094720108A4CB002080B582B000AF03463B
:10587000FB71FB79194603480BF09CF800BF083711
:10588000BD4680BDA4CB002080B586B002AF786055
:1058900039603B681B88012B02D0162B02D02FE009
:1058A00001232EE07B6893F82830002B13D1174B8F
:1058B000BB605F230093164BBA68164916480AF07E
:1058C000A2FB164B1B68184603F0E1F97B68012226
:1058D00083F8282012E00D4BFB60652300930C4BEE
:1058E000FA680F490C480AF08EFB0C4B1B681846EF
:1058F00003F05CFA7B68002283F82820012300E093
:10590000022318461037BD4680BD00BFA0720108B3
:10591000A8720108D8720108C8CC00202800002015
:10592000F072010880B500AF0C4B1B68184603F0FD
:10593000AEF90346002B01D001230CE0084B1B8875
:10594000074A1288194607480BF0A8F8064B0122AF
:1059500083F828200023184680BD00BF28000020BF
:105960002C000020BCCB0020A4CB002080B500AFD1
:1059700007480BF0B3F8074B1B68184603F016FAFC
:10598000054B002283F828200023184680BD00BF65
:10599000BCCB002028000020A4CB002080B483B022
:1059A00000AF0346FB80044AFB88138000BF0C371E
:1059B000BD465DF8047B70472C00002080B400AF2A
:1059C000BFF34F8F00BF064BDB6803F4E06204496E
:1059D000044B1343CB60BFF34F8F00BF00BFFDE705
:1059E00000ED00E00400FA0580B588B000AFF86073
:1059F000B9607A6007F11403074A0A2118460EF0CD
:105A000011FD07F114031946F86807F060FE00BFA6
:105A10002037BD4680BD00BF147D010880B584B02D
:105A200000AFF860B9607A60FFF7C8FF80B588B052
:105A300000AFF860B9607A600023BB610023FB828D
:105A4000B86807F035FF03467B757B7D012B04D0DA
:105A50002E49F86809F0B2F854E00121B86807F05F
:105A6000F1FE38613B691B78612B22D10023FB7763
:105A70001BE0FB7F1846FDF79BFB0346FB82B7F953
:105A8000163013F5004F06D1FB7F1A462049F868FF
:105A900009F094F806E0FA7FB7F916301D49F86866
:105AA00009F08CF8FB7F0133FB77FB7F072BE0D9F4
:105AB00028E03B691B782F2B20D93B691B78372BBB
:105AC0001CD838690DF0D6FE0346BB61B869FDF7F6
:105AD0006FFB0346FB82B7F9163013F5004F05D173
