:020000040800F2
:1000000000000820952F0008852D00088D2D000880
:10001000952D00089D2D0008A52D0008000000006A
:10002000000000000000000000000000AD2D0008EE
:10003000BB2D000800000000C92D0008D72D0008C6
:10004000E52F0008E52F0008E52F0008E52F000840
:10005000E52F0008E52F0008E52F0008E52F000830
:10006000E52F0008E52F0008E52F0008E52F000820
:1000700041860008E52F0008E52F0008E52F00085D
:10008000E52F0008E52F0008E52F0008E52F000800
:10009000E52F0008E52F0008E52F0008E52F0008F0
:1000A000E52F000885870008E52F0008E52F0008E8
:1000B000D1870008E52F0008E52F0008E52F00088C
:1000C000E52F0008E52F0008E52F0008E52F0008C0
:1000D000E52F0008E52F0008E52F0008E52F0008B0
:1000E000E52F0008E52F0008E52F0008E52F0008A0
:1000F000E52F0008E52F0008E52F0008E52F000890
:10010000E52F0008E52F0008E52F0008E52F00087F
:10011000E52F0008E52F0008E52F0008E52F00086F
:10012000D17C0008E52F0008857B0008E52F00083A
:10013000E52F0008E52F0008E52F0008E52F00084F
:10014000E52F0008E52F0008E52F0008E52F00083F
:10015000E52F00087D890008E52F0008895F000869
:10016000E52F0008E52F0008E52F0008E52F00081F
:10017000E52F0008E52F0008E52F0008000000002B
:10018000E52F0008E52F00083D3E0008E52F000898
:10019000E52F0008E52F0008E52F0008E52F0008EF
:1001A0000000000000000000E52F0008E52F000817
:1001B000E52F0008E52F0008E52F0008E52F0008CF
:1001C000E52F0008E52F000800000000E52F0008DB
:1001D000E52F0008E52F0008E52F0008E52F0008AF
:1001E000E52F0008E52F0008E52F0008E52F00089F
:0801F00000000000E52F0008EB
:1002000010B5054C237833B9044B13B10448AFF350
:1002100000800123237010BDA843002000000000CF
:100220007420010808B5034B1BB103490348AFF321
:10023000008008BD00000000AC43002074200108CD
:1002400010F8012B11F8013B012A28BF9A42F7D080
:10025000D01A7047000000000000000000000000FD
:1002600001F0FF01102A2BDB10F0070F08D010F867
:10027000013B013A8B422DD010F0070F42B3F6D16B
:10028000F0B441EA012141EA014122F007047FF084
:1002900000070023F0E80256083C85EA010586EADB
:1002A000010685FA47F5A3FA87F586FA47F6A5FA17
:1002B00087F68EB9EED1F0BC01F0FF0102F0070223
:1002C00032B110F8013B013A83EA010313B1F8D1CE
:1002D0000020704701387047002D06BF35460338AF
:1002E000073815F0010F07D1013015F4807F02BFE8
:1002F000013015F4C03F0130F0BC0138704700BF39
:10030000034613F8012B002AFBD1181A0138704755
:100310007BB972B90029BEBF00204FF0004106E052
:1003200008BF00281CBF6FF000414FF0FF3000F005
:10033000BBB9ADF1080C6DE904CE002909DB002B37
:100340001ADB00F035F8DDF804E0DDE9022304B043
:100350007047404261EB4101002B1BDB00F028F8A5
:10036000DDF804E0DDE9022304B0404261EB410125
:10037000524263EB43037047524263EB430300F086
:1003800017F8DDF804E0DDE9022304B0404261EB38
:1003900041017047524263EB430300F009F8DDF876
:1003A00004E0DDE9022304B0524263EB43037047EB
:1003B0002DE9F047089D8E4604468846002B4AD119
:1003C0008A42174662D9B2FA82F64EB1C6F12003CC
:1003D00001FA06F820FA03F3B74043EA0808B440EC
:1003E0004FEA174E1FFA87FCB8FBFEF1230C0EFBF9
:1003F000118843EA084301FB0CF29A4209D9FB1821
:1004000001F1FF3080F0EA809A4240F2E780023941
:100410003B449A1AA3B2B2FBFEF00EFB102243EA51
:10042000024300FB0CFC9C4509D9FB1800F1FF328C
:1004300080F0D6809C4540F2D3803B44023840EAAD
:100440000140A3EB0C0300211DB1F3400022C5E9DC
:100450000032BDE8F0878B4205D90DB1C5E9000136
:1004600000210846F5E7B3FA83F1002946D1734528
:1004700002D3824200F20581841A6EEB030201204E
:100480009046002DE5D0C5E90048E2E7002A00F0DB
:100490009080B2FA82F6002E40F0A4808A1A030CF3
:1004A0004FEA174E80B2BCB20121B2FBFEFC0EFB3C
:1004B0001C2243EA024304FB0CF29A4207D9FB18C0
:1004C0000CF1FF3802D29A4200F2E080C4469B1A37
:1004D000B3FBFEF20EFB123340EA034302FB04F4CB
:1004E0009C4207D9FB1802F1FF3002D29C4200F275
:1004F000CA8002461B1B42EA0C40A5E7C1F1200658
:100500008B4022FA06F71F430EFA01F420FA06F395
:100510002EFA06FE4FEA1749234300FA01F81FFAA4
:1005200087FCBEFBF9F01C0C09FB10EE44EA0E44FC
:1005300000FB0CFEA64502FA01F209D93C1900F1B4
:10054000FF3A80F09C80A64540F2998002383C44F6
:10055000A4EB0E041FFA83FEB4FBF9F309FB13446A
:100560004EEA044403FB0CFCA44508D93C1903F1F2
:10057000FF3E80F08280A4457FD9023B3C4443EAA1
:100580000040A4EB0C04A0FB02EC64457346E1467A
:1005900062D35FD05DB1B8EB030264EB090404FAE7
:1005A00006F622FA01F31E43CC40C5E9006400219F
:1005B0004FE7B1FBF2FC010C41EA0E4180B240EA88
:1005C00001423B4638463C46B846BE462026B1FB73
:1005D000F7F1A2EB080241EA0C4166E7014618E791
:1005E00010462CE7C6F120022EFA02F3B740B140C4
:1005F00020FA02F24FEA174E0A43B3FBFEF8BCB2F0
:100600000EFB1833110C41EA034108FB04F9B0401A
:1006100089454FEA104380B23ED9791808F1FF3C72
:1006200001D289451FD8A1EB0901B1FBFEF909FBF5
:1006300004F80EFB191192B242EA0142424529D256
:10064000BA1809F1FF31C4D24245C2D2A9F1020160
:100650003A44BEE7F0459DD2BEEB02036CEB070CBB
:100660000138E14696E7A7EB09094944A8F1020CD5
:10067000B1FBFEF909FB04F8DBE773467FE7504660
:1006800066E70846FDE63B44023A33E7ACF1020C6C
:100690003B441CE749469CE7A1EB0901C446B1FB7A
:1006A000FEF909FB04F8C4E7704700BF80B485B0C9
:1006B00000AF78607B6803F00703FB600B4BDB68DF
:1006C000BB60BA684FF6FF031340BB60FB681A02B9
:1006D000BB681A43064B1343BB60044ABB68D36034
:1006E00000BF1437BD465DF8047B704700ED00E0A5
:1006F0000000FA0580B400AF044BDB681B0A03F06E
:1007000007031846BD465DF8047B704700ED00E026
:1007100080B483B000AF0346FB7197F90730002B1C
:100720000BDBFB7903F01F02074997F907305B09E0
:10073000012000FA02F241F8232000BF0C37BD4629
:100740005DF8047B704700BF00E100E080B483B037
:1007500000AF03463960FB7197F90730002B0ADBC5
:100760003B68DAB20C4997F907301201D2B20B4458
:1007700083F800230AE03B68DAB20849FB7903F00A
:100780000F03043B1201D2B20B441A7600BF0C37A0
:10079000BD465DF8047B704700E100E000ED00E03D
:1007A00080B489B000AFF860B9607A60FB6803F08C
:1007B0000703FB61FB69C3F10703042B28BF042374
:1007C000BB61FB690433062B02D9FB69033B00E0E4
:1007D00000237B614FF0FF32BB6902FA03F3DA4377
:1007E000BB681A407B699A404FF0FF317B6901FA80
:1007F00003F3D9437B680B40134318462437BD46A7
:100800005DF8047B704780B489B000AFF860B960D0
:100810007A60FB682C331946BB6803F440734FF4CD
:100820004072BA61BA6992FAA2F27A617A69B2FA4E
:1008300082F2D2B2D3409B000B44FB61FB691A6881
:10084000BB6803F01F031F2101FA03F3DB431A40C7
:100850007B6803F01F01BB6803F01F0301FA03F379
:100860001A43FB691A6000BF2437BD465DF8047B5C
:10087000704780B483B000AF786039607B689B6854
:1008800023F480623B681A437B689A6000BF0C3790
:10089000BD465DF8047B704780B48DB000AFF86052
:1008A000B9607A60FB680C331946BB6803F00073CB
:1008B0004FF00072BA61BA6992FAA2F27A617A696B
:1008C000B2FA82F2D2B2D3409B000B44FB62FB6AC5
:1008D0001A68BB6803F0F8734FF0F8713962396A2F
:1008E00091FAA1F1F961F969B1FA81F1C9B2CB408C
:1008F000072101FA03F3DB431A40BB6803F0F873E6
:100900004FF0F871B962B96A91FAA1F17962796A26
:10091000B1FA81F1C9B2CB40796801FA03F31A4305
:10092000FB6A1A6000BF3437BD465DF8047B704730
:1009300080B485B000AFF860B9607A600D4ABB68DA
:1009400013441B781A46FB6813441B6823F0C0024B
:100950000849BB680B441B781946FB680B441946D1
:100960007B6813430B6000BF1437BD465DF8047B02
:10097000704700BF503A010880B485B000AFF860FE
:10098000B9607A600D4ABB6813441B781A46FB684D
:1009900013441B6823F490720849BB680B441B780E
:1009A0001946FB680B4419467B6813430B6000BF74
:1009B0001437BD465DF8047B704700BF503A01080C
:1009C00080B485B000AFF860B9607A600D4ABB684A
:1009D00013441B781A46FB6813441B6823F4007207
:1009E0000849BB680B441B781946FB680B44194641
:1009F0007B6813430B6000BF1437BD465DF8047B72
:100A0000704700BF503A010880B485B000AFF8606D
:100A1000B9607A600D4ABB6813441B781A46FB68BC
:100A200013441B6823F480620849BB680B441B789D
:100A30001946FB680B4419467B6813430B6000BFE3
:100A40001437BD465DF8047B704700BF503A01087B
:100A500080B485B000AFF860B9607A600D4ABB68B9
:100A600013441B781A46FB6813441B6823F4C052D6
:100A70000849BB680B441B781946FB680B441946B0
:100A80007B6813430B6000BF1437BD465DF8047BE1
:100A9000704700BF503A010880B485B000AFF860DD
:100AA000B9607A600D4ABB6813441B781A46FB682C
:100AB00013441B6823F4C0420849BB680B441B78ED
:100AC0001946FB680B4419467B6813430B6000BF53
:100AD0001437BD465DF8047B704700BF503A0108EB
:100AE00080B485B000AFF860B9607A600D4ABB6829
:100AF00013441B781A46FB6813441B6823F44032E6
:100B00000849BB680B441B781946FB680B4419461F
:100B10007B6813430B6000BF1437BD465DF8047B50
:100B2000704700BF503A010880B485B000AFF8604C
:100B3000B9607A600D4ABB6813441B781A46FB689B
:100B400013441B6823F0F0520849BB680B441B7820
:100B50001946FB680B4419467B6813430B6000BFC2
:100B60001437BD465DF8047B704700BF503A01085A
:100B700080B483B000AF786039600C4A3B6813449E
:100B80001B781A467B6813445B6908493A680A4433
:100B9000127811467A680A4423F00403536100BFB7
:100BA0000C37BD465DF8047B704700BF503A010822
:100BB00080B483B000AF78607B681B6843F00102AB
:100BC0007B681A6000BF0C37BD465DF8047B704738
:100BD00080B483B000AF78607B681B6823F4003278
:100BE0007B681A6000BF0C37BD465DF8047B704718
:100BF00080B483B000AF78607B681B6823F4002268
:100C00007B681A6000BF0C37BD465DF8047B7047F7
:100C100080B485B000AFF860B9607A60FB68DA68CC
:100C2000064B1340B9687A680A431A43FB68DA60D6
:100C300000BF1437BD465DF8047B704701F8FFFF25
:100C400080B483B000AF78607B68DB6823F4004237
:100C50007B68DA6000BF0C37BD465DF8047B7047E7
:100C600080B483B000AF78607B685B6843F000724B
:100C70007B685A6000BF0C37BD465DF8047B704747
:100C800080B400AF054B1B68044A43F48033136003
:100C900000BFBD465DF8047B704700BF00380240CE
:100CA00080B400AF074B1B6803F40033B3F5003F7B
:100CB0000CBF01230023DBB21846BD465DF8047B60
:100CC000704700BF0038024080B483B000AF786046
:100CD000064B9B6823F0030204497B6813438B6037
:100CE00000BF0C37BD465DF8047B704700380240FA
:100CF00080B400AF044B9B6803F00C031846BD465C
:100D00005DF8047B704700BF0038024080B483B0B8
:100D100000AF7860064B9B6823F0F00204497B68C3
:100D200013438B6000BF0C37BD465DF8047B7047F2
:100D30000038024080B483B000AF7860064B9B68F7
:100D400023F4E05204497B6813438B6000BF0C37E7
:100D5000BD465DF8047B70470038024080B483B024
:100D600000AF7860064B9B6823F4604204497B68BF
:100D700013438B6000BF0C37BD465DF8047B7047A2
:100D80000038024080B483B000AF7860094BD3F8DC
:100D900090207B681B0CDB431A407B689BB20549A3
:100DA0001343C1F8903000BF0C37BD465DF8047B9B
:100DB000704700BF0038024080B483B000AF786055
:100DC000094BD3F890207B681B0CDB431A407B68EF
:100DD0009BB205491343C1F8903000BF0C37BD46A4
:100DE0005DF8047B704700BF0038024080B483B0D8
:100DF00000AF7860094BD3F890207968084B0B401E
:100E0000DB431A407B681B0404491343C1F890304C
:100E100000BF0C37BD465DF8047B704700380240C8
:100E20000000FFFF80B483B000AF7860074BD3F8B9
:100E30008C3023F0807205497B681343C1F88C30F5
:100E400000BF0C37BD465DF8047B70470038024098
:100E500080B400AF054B1B68044A43F080731360F5
:100E600000BFBD465DF8047B704700BF00380240FC
:100E700080B400AF074B1B6803F00073B3F1007F31
:100E80000CBF01230023DBB21846BD465DF8047B8E
:100E9000704700BF0038024080B485B000AFF860F2
:100EA000B9607A603B600A4B5A680A4B1340F96894
:100EB000BA6811437A68920111433A680A430449B7
:100EC00013434B6000BF1437BD465DF8047B704789
:100ED000003802400080BCFF80B485B000AF78606D
:100EE000084B1A6B07497B6813430B63054B1A6B5E
:100EF0007B681340FB60FB6800BF1437BD465DF89C
:100F0000047B70470038024080B485B000AF786041
:100F1000084B1A6C07497B6813430B64054B1A6C2A
:100F20007B681340FB60FB6800BF1437BD465DF86B
:100F3000047B70470038024080B485B000AF786011
:100F4000084B5A6C07497B6813434B64054B5A6C3A
:100F50007B681340FB60FB6800BF1437BD465DF83B
:100F6000047B70470038024080B483B000AF7860E3
:100F7000064B1B6823F00F0204497B6813430B6088
:100F800000BF0C37BD465DF8047B7047003C024053
:100F900080B400AF044B1B6803F00F031846BD4636
:100FA0005DF8047B704700BF003C024080B400AF96
:100FB000054B1B68044A43F48033136000BFBD46F1
:100FC0005DF8047B704700BF0070004080B483B0C0
:100FD00000AF7860064B1B6823F4404204497B68ED
:100FE00013430B6000BF0C37BD465DF8047B7047B0
:100FF0000070004080B400AF074B5B6803F480438F
:10100000B3F5804F0CBF01230023DBB21846BD4669
:101010005DF8047B704700BF0070004080B483B06F
:1010200000AF78607B681B6843F040027B681A6001
:1010300000BF0C37BD465DF8047B704780B483B0B9
:1010400000AF786039607B685B6823F010023B6812
:101050001A437B685A6000BF0C37BD465DF8047BBD
:10106000704780B483B000AF78607B685B6843F002
:1010700008027B685A6000BF0C37BD465DF8047BF0
:10108000704780B483B000AF78607B685B6823F002
:1010900008027B685A6000BF0C37BD465DF8047BD0
:1010A000704780B483B000AF78607B681B6823F022
:1010B00080027B681A6000BF0C37BD465DF8047B78
:1010C0007047000080B485B000AF786039603B683D
:1010D000012B28D03B68042B23D03B68102B1ED05B
:1010E0003B68402B19D03B68B3F5807F13D03B6839
:1010F000B3F5806F0DD03B68B3F5805F07D03B68D8
:10110000B3F5803F01D107230EE008230CE006234E
:101110000AE0052308E0042306E0032304E0022399
:1011200002E0012300E00023FB737B6818331946BB
:10113000FB7B0B4AD35C0B44BB60BB681A68FB7B30
:101140000849CB5C194604238B40DB431A40BB683B
:101150001A6000BF1437BD465DF8047B704700BFBE
:10116000583A0108643A010880B485B000AF78604D
:1011700039603B68012B28D03B68042B23D03B68A7
:10118000102B1ED03B68402B19D03B68B3F5807FF5
:1011900013D03B68B3F5806F0DD03B68B3F5805F2B
:1011A00007D03B68B3F5803F01D107230EE0082349
:1011B0000CE006230AE0052308E0042306E00323ED
:1011C00004E0022302E0012300E00023FB737B68BC
:1011D00018331946FB7B0A4AD35C0B44BB60BB68DF
:1011E0001A68FB7B0749CB5C194608238B401A43DE
:1011F000BB681A6000BF1437BD465DF8047B7047BA
:10120000583A0108643A010880B483B000AF7860AE
:1012100039607B689A68064B13403A681A437B68CA
:101220009A6000BF0C37BD465DF8047B704700BF75
:10123000F8BFFEFF80B483B000AF786039607B6890
:101240005B6823F070023B681A437B685A6000BFFA
:101250000C37BD465DF8047B704780B483B000AFA7
:10126000786039607B685B6823F470023B681A43DE
:101270007B685A6000BF0C37BD465DF8047B704741
:1012800080B483B000AF78607B689B6823F08002F5
:101290007B689A6000BF0C37BD465DF8047B7047E1
:1012A00080B483B000AF78607B681B6843F00102B4
:1012B0007B681A6000BF0C37BD465DF8047B704741
:1012C00080B483B000AF786039607B681B6823F41A
:1012D000F8123B681B041A437B681A6000BF0C3786
:1012E000BD465DF8047B704780B483B000AF786082
:1012F00039607B681B6823F078723B685B051A4392
:101300007B681A6000BF0C37BD465DF8047B7047F0
:1013100080B483B000AF78607B689B6843F4804200
:101320007B689A6000BF0C37BD465DF8047B704750
:1013300080B483B000AF786039607B689B6823F429
:1013400000423B681A437B689A6000BF0C37BD4679
:101350005DF8047B704780B483B000AF78607B6831
:101360005B6823F490427B685A607B689B6823F03B
:101370002A027B689A6000BF0C37BD465DF8047B8B
:10138000704780B483B000AF786039607B683A689A
:101390009A6100BF0C37BD465DF8047B704780B48E
:1013A00083B000AF786039603B681A047B689A614B
:1013B00000BF0C37BD465DF8047B704780B500AFB9
:1013C0004FF08050FFF7A0FD4FF48040FFF7B4FDD1
:1013D0000320FFF76BF9FFF78DF9034600220F2179
:1013E0001846FFF7DDF9034619464FF0FF30FFF7C7
:1013F000ADF900F02DF801F00FFA01F0B1F900F0AD
:10140000DDFA00F04FFB00F0C1FB00F04BFC00F0F8
:10141000FBFC00F06DF800F075FD00F055FF01F0E9
:101420002DF800F0EDFD01F09FF801F025F900F036
:10143000B3F900F061FA00F0BFFE00F003FF01F025
:10144000AFFE01F0BBFE01F0CCFE00BFFDE70000E7
:1014500080B500AF0620FFF787FD00BFFFF798FDBE
:101460000346062BFAD14FF44040FFF7AFFDFFF7DC
:101470009DFDFFF705FC00BFFFF712FC0346012BA3
:10148000FAD10023C0220C214FF48000FFF704FDA5
:10149000FFF7DEFC00BFFFF7EBFC0346012BFAD1A0
:1014A00000BFFFF7A7FD0346002BFAD00020FFF78F
:1014B0002DFC4FF4A050FFF73DFC4FF40040FFF728
:1014C0004DFC0220FFF700FC00BFFFF711FC0346B4
:1014D000082BFAD105480DF06FFE04480DF0A0FE70
:1014E0000020FFF79FFC00BF80BD00BF00C2EB0BD8
:1014F00080B592B000AF07F13C0300221A605A6039
:101500009A6007F1280300221A605A609A60DA6034
:101510001A6107F1180300221A605A609A60DA60B3
:101520003B4600221A605A609A60DA601A615A617A
:101530004FF48070FFF700FD0420FFF7CDFC022080
:10154000FFF7CAFC01233B6003237B6000233B6160
:101550003B46194684480CF0D8FB02233B6003232A
:101560007B6000233B613B4619467F480CF0CDFB76
:1015700004233B6003237B6000233B613B46194609
:1015800079480CF0C2FB08233B6003237B600023F7
:101590003B613B46194674480CF0B7FB10233B6097
:1015A00003237B6000233B613B4619466E480CF0E9
:1015B000ACFB20233B6003237B6000233B613B4665
:1015C000194669480CF0A1FB01233B6003237B60B3
:1015D00000233B613B46194664480CF096FB02230E
:1015E0003B6003237B6000233B613B4619465F4819
:1015F0000CF08BFB002200215D48FFF795FA0022DA
:1016000000215B48FFF794F9002200215848FFF7BA
:1016100067FA4FF4807200215548FFF7ADF90022B8
:1016200000215348FFF7CCF94FF480620021504865
:10163000FFF7EAF94FF4006200214D48FFF708FA7E
:101640004FF4005200214A48FFF726FA002148488B
:10165000FFF78EFA0023FB6300233B644FF4807393
:101660007B6407F13C03194642480CF0D5F900238E
:10167000BB624FF4E003FB6200233B6300237B6308
:101680004FF44073BB6307F12803194639480CF047
:10169000EFF900213748FFF7ECF84FF48033BB61D6
:1016A0000023FB6107F11803194633480CF06CF96D
:1016B0000A224FF400712F48FFF7A5F801220A21F2
:1016C0002C48FFF7E9F82D4A40F205212948FFF799
:1016D0009AF8012229492748FFF7DEF8284A40F204
:1016E0000A212448FFF78FF8012225492148FFF7F6
:1016F000D3F8244A40F20F211E48FFF784F8012254
:1017000020491C48FFF7C8F81F4A4FF405711948D3
:10171000FFF779F801221C491648FFF7BDF81B4A6C
:1017200040F219211348FFF76EF8012217491148BA
:10173000FFF7B2F8164A4FF480710E48FFF763F8CE
:10174000012213490B48FFF7A7F8124A40F205118E
:101750000848FFF758F801220E490648FFF79CF8A1
:1017600000BF4837BD4680BD00080240000402406B
:101770000064024000200140002301400B003000C3
:101780000C0060000D0090000E00C0000F00F00083
:10179000080080030900B00380B58EB000AF07F1E8
:1017A0002C0300221A605A609A6007F11803002285
:1017B0001A605A609A60DA601A613B4600221A6029
:1017C0005A609A60DA601A615A614FF40070FFF74C
:1017D000B3FB0120FFF780FB04233B6003237B6006
:1017E00000233B613B4619463E480CF08EFA082325
:1017F0003B6003237B6000233B613B46194639482D
:101800000CF083FA4FF0007202213748FFF78CF991
:10181000002202213448FFF78BF8002202213248CF
:10182000FFF75EF94FF4807202212F48FFF7A4F80A
:10183000002202212C48FFF7C3F84FF480620221F6
:101840002948FFF7E1F84FF4006202212648FFF72C
:10185000FFF84FF4005202212348FFF71DF902213F
:101860002148FFF785F90023FB6200233B634FF417
:1018700080737B6307F12C0319461C480CF0CCF8ED
:101880000023BB614FF48013FB6100233B62002304
:101890007B624FF44073BB6207F11803194613488B
:1018A0000CF0E6F84FF480611048FEF7E2FF104AB2
:1018B0004FF400710D48FEF7A6FF01220C490B48BA
:1018C000FEF7EAFF0B4A40F205210848FEF79BFFAE
:1018D000012208490548FEF7DFFF00BF3837BD4643
:1018E00080BD00BF000002400064024000210140B2
:1018F000030090020200600280B58EB000AF07F1D5
:101900002C0300221A605A609A6007F11803002223
:101910001A605A609A60DA601A613B4600221A60C7
:101920005A609A60DA601A615A614FF48060FFF77A
:1019300003FB0120FFF7D0FA02233B6003237B6007
:1019400000233B613B46194619480CF0DEF90023A1
:10195000FB6200233B6300237B6307F12C031946E2
:1019600014480CF059F80023BB610023FB610023ED
:101970003B6200237B620023BB6207F11803194618
:101980000C480CF075F84FF480610A48FEF771FFBF
:10199000094A4FF400710748FEF735FF0022064957
:1019A0000448FEF779FF00BF3837BD4680BD00BF51
:1019B00000000240002201400100300280B58EB0DC
:1019C00000AF07F11C0300221A605A609A60DA60C7
:1019D0001A615A619A613B1D00221A605A609A602E
:1019E000DA601A615A614FF44030FFF7FFF90220C4
:1019F000FFF772FA40237B600223BB600323FB6086
:101A000001233B6100237B610423BB613B1D19461D
:101A100021480CF07AF980237B600223BB6003230A
:101A2000FB6001233B6100237B610423BB613B1D01
:101A3000194619480CF069F94FF40010FFF764FAE1
:101A40001648FFF70DF9002200211448FFF7E0F8CF
:101A50001248FFF7F5F81148FFF7CAF80F48FFF7EB
:101A6000B7F80023FB610E4B3B6200237B6200232F
:101A7000BB620023FB6200233B6300237B6307F10F
:101A80001C03194605480CF057FA0448FFF790F874
:101A900000BF3837BD4680BD0004024000540040FE
:101AA000FF63106080B58EB000AF07F11C03002209
:101AB0001A605A609A60DA601A615A619A613B1D35
:101AC00000221A605A609A60DA601A615A614FF413
:101AD0004020FFF78BF90220FFF7FEF94FF48063F7
:101AE0007B600223BB600323FB6001233B61002377
:101AF0007B610423BB613B1D194621480CF005F9AD
:101B00004FF400637B600223BB600323FB6001236F
:101B10003B6100237B610423BB613B1D19461848D0
:101B20000CF0F3F84FF48000FFF7EEF91548FFF7DB
:101B300097F8002200211348FFF76AF81148FFF7D1
:101B40007FF81048FFF754F80E48FFF741F80023DC
:101B5000FB610D4B3B6200237B620023BB620023D1
:101B6000FB6200233B6300237B6307F11C031946E0
:101B700004480CF0E1F900BF3837BD4680BD00BF16
:101B80000004024000580040FFEAC00080B590B059
:101B900000AF07F118032822002118460EF0B0FA12
:101BA0003B4600221A605A609A60DA601A615A61F4
:101BB0004FF48050FFF7C0F90120FFF78DF9102393
:101BC0003B6002237B600323BB600023FB60002398
:101BD0003B6105237B613B46194630480CF095F884
:101BE00020233B6002237B600323BB600023FB6058
:101BF00000233B6105237B613B46194627480CF0D7
:101C000084F840233B6002237B600323BB600023F6
:101C1000FB6000233B6105237B613B4619461F485F
:101C20000CF073F880233B6002237B600323BB60CE
:101C30000023FB6000233B6105237B613B46194683
:101C400016480CF062F80023BB614FF48273FB610D
:101C50004FF4E0633B6200237B620023BB620023FE
:101C6000FB6200233B6300237B630023BB630723EA
:101C7000FB6307F11803194609480CF035FD0021F4
:101C80000748FFF7DBF90648FFF7EBF90448FFF7D1
:101C9000C5F900BF4037BD4680BD00BF000002400F
:101CA0000030014080B590B000AF07F11803282242
:101CB000002118460EF024FA3B4600221A605A60B2
:101CC0009A60DA601A615A614FF48040FFF71CF99C
:101CD0000220FFF701F94FF400533B6002237B60C1
:101CE0000323BB600023FB6000233B6105237B6172
:101CF0003B46194641480CF008F84FF480433B60DE
:101D000002237B600323BB600023FB6000233B6155
:101D100005237B613B46194638480BF0F6FF4FF42C
:101D200000433B6002237B600323BB600023FB6016
:101D300000233B6105237B613B4619462F480BF08E
:101D4000E4FF4FF0905201212D48FEF7EDFE0022F6
:101D500001212B48FEF7ECFD4FF4403201212848C9
:101D6000FEF7BEFE4FF4807201212548FEF704FE07
:101D7000002201212248FEF723FE4FF48062012158
:101D80001F48FEF741FE4FF4006201211C48FEF798
:101D90005FFE4FF4005201211948FEF77DFE01213C
:101DA0001748FEF7E5FE0023BB614FF48273FB6129
:101DB0004FF470633B6200237B620023BB624FF4ED
:101DC0000073FB6200233B6300237B630023BB6340
:101DD0000723FB6307F1180319460A480CF084FC3B
:101DE00000210848FFF72AF90648FFF73AF90548A5
:101DF000FFF714F900BF4037BD4680BD0004024024
:101E0000006002400038004080B590B000AF07F19C
:101E100018032822002118460EF072F93B460022D2
:101E20001A605A609A60DA601A615A614FF4004091
:101E3000FFF76AF80420FFF74FF84FF480633B6028
:101E400002237B600323BB600023FB6000233B6114
:101E500006237B613B46194628480BF056FF4FF49A
:101E600000633B6002237B600323BB600023FB60B5
:101E700000233B6106237B613B4619461F480BF05C
:101E800044FF4FF480533B6002237B600323BB601D
:101E90000023FB6000233B6106237B613B46194620
:101EA00016480BF032FF0023BB614FF48273FB61D5
:101EB0004FF4E0633B6200237B620023BB624FF47C
:101EC0000073FB6200233B6300237B630023BB633F
:101ED0000723FB6307F11803194609480CF004FCBB
:101EE00000210748FFF7AAF80548FFF7BAF80448A9
:101EF000FFF794F800BF4037BD4680BD00080240A0
:101F0000003C004080B590B000AF07F118032822D4
:101F1000002118460EF0F4F83B4600221A605A6081
:101F20009A60DA601A615A614FF40050FFF704F8C2
:101F30001020FEF7D1FF4FF480533B6002237B60FB
:101F40000323BB600023FB6000233B6105237B610F
:101F50003B46194628480BF0D8FE4FF400533B602F
:101F600002237B600323BB600023FB6000233B61F3
:101F700005237B613B4619461F480BF0C6FE4FF414
:101F800080433B6002237B600323BB600023FB6034
:101F900000233B6105237B613B46194616480BF045
:101FA000B4FE0023BB614FF48273FB614FF4E06326
:101FB0003B6200237B620123BB624FF40073FB6230
:101FC00020233B6300237B630023BB630723FB6366
:101FD00007F11803194609480CF086FB0021074851
:101FE000FFF72CF80548FFF74CF80448FFF716F800
:101FF00000BF4037BD4680BD0010024000340140A4
:1020000080B590B000AF07F11803282200211846D0
:102010000EF076F83B4600221A605A609A60DA6049
:102020001A615A614FF40010FEF786FF0220FEF796
:1020300053FF08233B6002237B600323BB60002324
:10204000FB6000233B6108237B613B4619465748F0
:102050000BF05BFE10233B6002237B600323BB601D
:102060000023FB6000233B6108237B613B4619464C
:102070004E480BF04AFE20233B6002237B60032383
:10208000BB600023FB6000233B6108237B613B4670
:10209000194646480BF039FE4FF0007205214448BE
:1020A000FEF742FD402205214148FEF741FC4FF476
:1020B000403205213E48FEF713FD002205213C4831
:1020C000FEF75AFC002205213948FEF779FC4FF44F
:1020D000806205213648FEF797FC0022052134482E
:1020E000FEF7B6FC002205213148FEF7D5FC05219C
:1020F0002F48FEF73DFD4FF0007206212C48FEF7F9
:1021000013FD002206212A48FEF712FC4FF440324C
:1021100006212748FEF7E4FC002206212448FEF7AA
:102120002BFC002206212248FEF74AFC4FF4806275
:1021300006211F48FEF768FC002206211C48FEF716
:1021400087FC002206211A48FEF7A6FC0621184843
:10215000FEF70EFD0023BB614FF48273FB614FF469
:10216000E0633B6200237B620023BB624FF4007399
:10217000FB6200233B6300237B630023BB630723D5
:10218000FB6307F1180319460A480CF0ADFA002169
:102190000848FEF753FF0748FEF763FF0548FEF7C0
:1021A0003DFF00BF4037BD4680BD00BF0004024078
:1021B000006402400054014080B586B000AF3B1D72
:1021C00000221A605A609A60DA601A610120FEF7F4
:1021D000B3FEFEF78FFA0346002200211846FEF7F1
:1021E000DFFA034619461920FEF7B0FA1920FEF768
:1021F0008FFA0023BB800023BB604FF6FF73FB60A8
:1022000000233B6100237B613B1D19460C480CF009
:102210005FFB0B48FEF745FF00210948FEF7F4FF7E
:1022200000210748FFF706F800210548FFF715F8D9
:102230000348FFF725F800BF1837BD4680BD00BF33
:102240000000014080B586B000AF3B1D00221A603F
:102250005A609A60DA601A610120FEF755FEFEF7B7
:1022600049FA0346002202211846FEF799FA03466E
:1022700019461C20FEF76AFA1C20FEF749FA0023D3
:10228000BB800023BB604FF0FF33FB6000233B614A
:102290003B1D19464FF080400CF01AFB4FF0804078
:1022A000FEF7FFFE00214FF08040FEF7ADFF00215A
:1022B0004FF08040FEF7BEFF4FF08040FEF7E0FF9A
:1022C00000BF1837BD4680BD80B594B000AF07F1A0
:1022D0003C0300221A605A609A60DA601A6107F1C2
:1022E0001C032022002118460DF00AFF3B1D00228E
:1022F0001A605A609A60DA601A615A610420FEF727
:1023000003FE0A23BB8700233B644CF250337B64FB
:102310004FF40073BB6407F13C03194655480CF0B9
:10232000D7FA5448FEF7BDFE00215248FEF76CFF75
:1023300001215048FEF718FF6023FB6100233B6238
:1023400000237B620023BB620023FB6207F11C03B6
:102350001A46012147480CF055FB01214548FEF77C
:10236000B1FE10214348FEF7FFFE07F11C031A4699
:10237000102140480CF046FB10213E48FEF7A2FE1B
:102380004FF480713B48FEF7EFFE07F11C031A463D
:102390004FF4807137480CF035FB4FF480713548AD
:1023A000FEF790FE4FF480513248FEF7DDFE07F154
:1023B0001C031A464FF480512E480CF023FB4FF4B7
:1023C00080512C48FEF77EFE00212A48FEF732FF9E
:1023D0002848FEF755FF0820FEF77EFD4FF4805396
:1023E0007B600223BB600023FB6000233B61002372
:1023F0007B610223BB613B1D19461F480BF085FC26
:102400004FF400537B600223BB600023FB6000237A
:102410003B6100237B610223BB613B1D19461648CB
:102420000BF073FC4FF480437B600223BB600023FE
:10243000FB6000233B6100237B610223BB613B1DEA
:1024400019460D480BF061FC4FF400437B600223FA
:10245000BB600023FB6000233B6100237B61022300
:10246000BB613B1D194604480BF04FFC00BF5037C1
:10247000BD4680BD00080040000C024080B58EB013
:1024800000AF07F11C0300221A605A609A60DA60FC
:102490001A615A619A613B1D00221A605A609A6063
:1024A000DA601A615A614FF04050FEF785FC4FF038
:1024B0008040FEF729FD1020FEF70EFD80237B6093
:1024C0000223BB600323FB6000233B6100237B618D
:1024D0000823BB613B1D194621480BF016FC4FF445
:1024E00080737B600223BB600323FB6000233B619E
:1024F00000237B610823BB613B1D194618480BF084
:1025000004FCFEF7F7F8034600220B211846FEF7FD
:1025100047F9034619465220FEF718F95220FEF7F4
:10252000F7F84FF4E133FB6100233B6200237B6249
:102530000023BB620C23FB6200233B6300237B630D
:1025400007F11C03194607480CF07CFD0548FEF70F
:1025500002FF0448FEF7A4FE00BF3837BD4680BD29
:10256000001002400078004080B58EB000AF07F147
:102570001C0300221A605A609A60DA601A615A617C
:102580009A613B1D00221A605A609A60DA601A61F3
:102590005A614FF44030FEF7F5FB1020FEF7CCFCFB
:1025A0000120FEF799FC4FF400737B600223BB60AF
:1025B0000323FB6000233B6100237B610723BB6196
:1025C0003B1D19462A480BF0A0FB4FF480637B604B
:1025D0000223BB600323FB6000233B6100237B617C
:1025E0000723BB613B1D194621480BF08EFB4FF4BE
:1025F00080537B600223BB600323FB6000233B61AD
:1026000000237B610723BB613B1D194618480BF073
:102610007CFB4FF4E133FB6100233B6200237B62D0
:102620000023BB620C23FB6200233B6300237B631C
:1026300007F11C0319460F480CF004FD0D48FEF786
:1026400067FE00210B48FEF773FE00210948FEF7E4
:102650004BFE00210748FEF733FE0648FEF77BFEDF
:102660000448FEF71DFE00BF3837BD4680BD00BFE1
:10267000000002400010014080B58EB000AF07F1AD
:102680001C0300221A605A609A60DA601A615A616B
:102690009A613B1D00221A605A609A60DA601A61E2
:1026A0005A614FF04060FEF76DFB2020FEF744FCBE
:1026B0000420FEF711FC40237B600223BB60032350
:1026C000FB6000233B6100237B610823BB613B1D52
:1026D000194621480BF019FB80237B600223BB6065
:1026E0000323FB6000233B6100237B610823BB6164
:1026F0003B1D194618480BF008FBFDF7FBFF03468E
:1027000000220B211846FEF74BF8034619464720D6
:10271000FEF71CF84720FDF7FBFF4FF46123FB6138
:1027200000233B6200237B620023BB620C23FB621D
:1027300000233B6300237B6307F11C031946074812
:102740000CF080FC0548FEF706FE0448FEF7A8FDE5
:1027500000BF3837BD4680BD00080240001401406C
:1027600080B500AF4FF48000FEF7B6FB4FF40010C9
:10277000FEF7B2FBFDF7BEFF03460022002118461C
:10278000FEF70EF8034619460C20FDF7DFFF0C207C
:10279000FDF7BEFFFDF7AEFF034600220A211846F3
:1027A000FDF7FEFF034619463820FDF7CFFF38201E
:1027B000FDF7AEFFFDF79EFF034600220A211846F3
:1027C000FDF7EEFF034619463A20FDF7BFFF3A201A
:1027D000FDF79EFFFDF78EFF0346002209211846F4
:1027E000FDF7DEFF034619464420FDF7AFFF442006
:1027F000FDF78EFFFDF77EFF0346002201211846FC
:10280000FDF7CEFF034619464520FDF79FFF452003
:10281000FDF77EFF00BF80BD80B586B000AF3B46B0
:1028200000221A605A609A60DA601A615A611020B8
:10283000FEF752FB0420FEF74FFB8020FEF74CFB17
:102840000120FEF749FB0220FEF746FB0820FEF7B9
:1028500043FB0421BF48FEF7A2FD0821BD48FEF757
:102860009EFD1021BB48FEF79AFD2021B948FEF7D6
:1028700096FD4021B748FEF792FD4FF40051B6484F
:10288000FEF78DFD4FF48041B348FEF788FD4FF40D
:102890000041B148FEF783FD4FF40061AD48FEF7FB
:1028A0007EFD4FF40061AD48FEF779FD4FF4004125
:1028B000AA48FEF774FD0121A948FEF770FD022128
:1028C000A748FEF76CFD1021A548FEF768FD202102
:1028D000A348FEF764FD4021A148FEF760FD0421F6
:1028E000A048FEF74EFD4FF480619A48FEF749FD7F
:1028F0004FF400419748FEF744FD4FF4805199484A
:10290000FEF73FFD4FF480719548FEF73AFD4FF416
:1029100000719348FEF735FD4FF480619048FEF753
:1029200030FD04218E48FEF72CFD80218C48FEF7F7
:1029300028FD4FF480718B48FEF723FD4FF40071A2
:102940008848FEF71EFD01218248FEF71AFD02218C
:102950008048FEF716FD04233B6001237B600023C3
:10296000BB600023FB6000233B613B46194679486E
:102970000BF0CBF908233B6001237B600023BB6095
:102980000023FB6000233B613B46194671480BF076
:10299000BCF910233B6001237B600023BB60002354
:1029A000FB6000233B613B4619466A480BF0ADF9DA
:1029B00020233B6001237B600023BB600023FB607E
:1029C00000233B613B46194662480BF09EF94023C9
:1029D0003B6001237B600023BB600023FB6000237E
:1029E0003B613B4619465B480BF08FF94FF40053AF
:1029F0003B6001237B600023BB600023FB6000235E
:102A00003B613B46194654480BF07FF94FF4804335
:102A10003B6001237B600023BB600023FB6000233D
:102A20003B613B4619464C480BF06FF94FF40043AD
:102A30003B6001237B600023BB600023FB6000231D
:102A40003B613B46194644480BF05FF904233B6069
:102A500001237B600023BB600023FB6000233B61FC
:102A60003B4619463F480BF050F94FF480633B60FA
:102A700001237B600023BB600023FB6000233B61DC
:102A80003B46194633480BF040F94FF400633B6076
:102A900001237B600023BB600023FB6000233B61BC
:102AA0003B4619462B480BF030F94FF400433B608E
:102AB00001237B600023BB600023FB6000233B619C
:102AC0003B46194623480BF020F94FF480533B60F6
:102AD00001237B600023BB600023FB6000233B617C
:102AE0003B4619461F480BF010F94FF480733B60CA
:102AF00001237B600323BB600023FB6000233B6159
:102B00003B46194616480BF000F94FF400733B6042
:102B100001237B600323BB600023FB6000233B6138
:102B20003B4619460E480BF0F0F84FF480633B60CB
:102B300001237B600323BB600023FB6000233B6118
:102B40003B46194606480BF0E0F84FF400633B6043
:102B50000AE000BF001002400008024000000240EE
:102B6000000C02400004024000237B6000233B6114
:102B70003B4619467E480BF0C8F84FF480733B6023
:102B800000237B6000233B613B46194679480BF0EC
:102B9000BCF84FF400733B6000237B6000233B6173
:102BA0003B46194673480BF0B0F84FF480733B6016
:102BB00000237B6000233B613B4619466E480BF0C7
:102BC000A4F84FF400633B6001237B600023BB60EB
:102BD0000023FB6000233B613B46194666480BF02F
:102BE00094F84FF400433B6001237B600023BB60FB
:102BF0000023FB6000233B613B4619465E480BF017
:102C000084F801233B6001237B600023BB60002329
:102C1000FB6000233B613B46194655480BF075F8B5
:102C200002233B6001237B600023BB600023FB6029
:102C300000233B613B4619464D480BF066F80423E0
:102C40003B6001237B600023BB600023FB6000230B
:102C50003B613B46194646480BF057F808233B605A
:102C600000237B6000233B613B46194640480BF044
:102C70004CF810233B6001237B600023BB600023E2
:102C8000FB6000233B613B46194639480BF03DF899
:102C900020233B6001237B600023BB600023FB609B
:102CA00000233B613B46194631480BF02EF8402388
:102CB0003B6001237B600023BB600023FB6000239B
:102CC0003B613B4619462A480BF01FF880233B60C6
:102CD00001237B600023BB600023FB6000233B617A
:102CE0003B46194622480BF010F84FF480733B60C6
:102CF00001237B600023BB600023FB6000233B615A
:102D00003B4619461D480BF000F84FF400733B603A
:102D100001237B600023BB600023FB6000233B6139
:102D20003B46194615480AF0F0FF01233B6001239A
:102D30007B600023BB600023FB6000233B613B46BC
:102D400019460F480AF0E1FF02233B6001237B6034
:102D50000023BB600023FB6000233B613B46194618
:102D600007480AF0D2FF00BF1837BD4680BD00BF3C
:102D7000000C024000080240000002400004024033
:102D80000010024080B400AF00BFFDE780B400AF88
:102D900000BFFDE780B400AF00BFFDE780B400AF27
:102DA00000BFFDE780B400AF00BFFDE780B400AF17
:102DB00000BFBD465DF8047B704780B400AF00BF24
:102DC000BD465DF8047B704780B400AF00BFBD46D0
:102DD0005DF8047B704780B500AF0AF055FD00BF79
:102DE00080BD80B400AF01231846BD465DF8047B6A
:102DF000704780B582B000AF786039600DF0E0F9BF
:102E0000034616221A604FF0FF3318460837BD46B6
:102E100080BD80B582B000AF78604FF0FF31786838
:102E2000FFF7E7FF00BFFDE780B586B000AFF860B1
:102E3000B9607A6000237B610AE0AFF3008001464D
:102E4000BB685A1CBA60CAB21A707B6901337B61D5
:102E50007A697B689A42F0DB7B6818461837BD4672
:102E600080BD80B586B000AFF860B9607A6000239D
:102E70007B6109E0BB685A1CBA601B781846AFF347
:102E800000807B6901337B617A697B689A42F1DB60
:102E90007B6818461837BD4680BD80B483B000AF4C
:102EA00078604FF0FF3318460C37BD465DF8047B61
:102EB000704780B483B000AF786039603B684FF4EE
:102EC00000525A60002318460C37BD465DF8047B5B
:102ED000704780B483B000AF7860012318460C3788
:102EE000BD465DF8047B704780B485B000AFF860E4
:102EF000B9607A60002318461437BD465DF8047B3C
:102F00007047000080B586B000AF7860144A154B5A
:102F1000D31A7B617B693B61134B1B68002B02D189
:102F2000114B124A1A60104B1A687B6813443A69B5
:102F30009A4207D20DF044F903460C221A604FF072
:102F4000FF3309E0084B1B68FB60074B1A687B687E
:102F50001344054A1360FB6818461837BD4680BD08
:102F60000000082000040000C443002028170120AE
:102F700080B400AF064BD3F88830054A43F47003A1
:102F8000C2F8883000BFBD465DF8047B704700BFC3
:102F900000ED00E0DFF834D0FFF7EAFF0C480D4900
:102FA0000D4A002302E0D458C4500433C4188C42A4
:102FB000F9D30A4A0A4C002301E013600432A2420A
:102FC000FBD30DF003F9FEF7F9F970470000082074
:102FD00000000020A843002070430108A8430020FF
:102FE00024170120FEE780B582B000AF7860396019
:102FF00004F04CFE04F078FD7B6814330A220A21A9
:1030000018460AF0FDFB00BF0837BD4680BD000032
:1030100080B584B002AF786039607B68002B03D143
:1030200000210E4804F090F978683B685A683B68C4
:103030009B68009313460A4A0A490AF053FB7B68CF
:1030400014337A68132118460AF0B8FB3B681A68F3
:103050007B685A6200BF0837BD4680BD883A0108C8
:10306000CD300008E72F000880B586B002AF0223FC
:10307000009304230822094909480AF09CF8094AE8
:103080003B1D07CA83E807003B1D19460648FFF7AA
:10309000BFFF00BF1037BD4680BD00BF0844002001
:1030A0001044002090200108C843002080B582B061
:1030B00000AF0346FB71FB79194603480AF02CFB6D
:1030C00000BF0837BD4680BDC843002090B585B01D
:1030D00000AF786039603B681B88132B06D0132B38
:1030E00035DC112B08D0122B1DD030E004F0D8FDB8
:1030F00004F03EFD01232BE00023FB730EE0FB7B7D
:10310000FC7B184604F0D2FD034619467B6804F1A7
:10311000140223F81210FB7B0133FB73FB7B072B9C
:10312000EDD9012314E00023BB730DE0BB7B1846EF
:1031300004F0C6FC0346BA7B19B27B681C3223F844
:103140001210BB7B0133BB73BB7B012BEED9022377
:1031500018461437BD4690BD80B483B000AF786088
:10316000054A7B681C3332F9133018460C37BD46CC
:103170005DF8047B704700BFC843002080B483B073
:1031800000AF7860054A7B68143332F91330184673
:103190000C37BD465DF8047B704700BFC843002074
:1031A00080B500AF02F0DCFD03F03CFAFFF75CFFF6
:1031B00000F08EF800F038FD00BF80BD80B500AF94
:1031C000012000F0A7F8042002F0FCFD022003F02B
:1031D0004FFA0320FFF76AFF022000F04BFD00BF0B
:1031E00080BD80B500AF0AF02FFA00BF80BD80B56A
:1031F00082B000AF7860396004F0A4FB05F070FB8A
:1032000005F02AF87B68012283F851207B680022B0
:1032100083F8562000BF0837BD4680BD80B584B016
:1032200000AF786039607B685B69FB607B685B69D5
:103230003968786898470346FB72FB7A002B08D1FF
:10324000FB680649786898477B685B690449786839
:10325000984700BF1037BD4680BD00BFB83A01088F
:10326000A43A010880B584B002AF786039607B6809
:10327000002B03D10021134804F066F878683B68FE
:103280005A683B689B68009313460F4A0F490AF03F
:1032900029FA3B681A687B685A617B6818337A6838
:1032A000142118460AF08AFA7B68183318460AF087
:1032B000C7FA3B681A7B7B6883F84C2000BF08374D
:1032C000BD4680BD943A01081D320008EF31000868
:1032D00090B587B002AF122300930223242209493C
:1032E000094809F068FF094B3C460FCB84E80F0002
:1032F0003B4619460648FFF7B5FF00BF1437BD46E9
:1033000090BD00BFA8640020CC6400209C20010870
:103310002C44002080B582B000AF0346FB71FB79DE
:10332000194603480AF0F8F900BF0837BD4680BDCA
:103330002C44002080B582B000AF786039603B68D3
:103340001B88162B12D0162B15DC012B02D0152B47
:1033500007D010E07B68183318460AF071FA012391
:103360000AE07B68064A5A61002305E07B68054A4B
:103370005A61002300E0022318460837BD4680BD8D
:10338000893300084535000880B58CB002AF7860FD
:1033900039603B681B88013B182B00F2C18001A2F9
:1033A00052F823F00934000821350008873400085A
:1033B0002135000821350008213500082135000895
:1033C0002135000821350008213500082135000885
:1033D0002135000821350008213500082135000875
:1033E0002135000821350008213500082135000865
:1033F0000F350008213500082135000895340008F4
:10340000B5340008D5340008484B3B628023009354
:10341000474B3A6A4749484809F043FE7B681833EE
:10342000002244F6206118460AF0EAF97B6893F816
:103430002A301946786800F0D4F9786800F0EAF983
:103440007B68DB6AFB607B681B6B3B617B685B6B4B
:103450007B617B681B8DBB617B6893F82A30FB61C5
:103460007B6893F82B30184604F0D6FA07F10C036A
:10347000184604F0B9FE05F0A3F87B68002283F833
:103480004C2001234DE07B68183318460AF0D8F928
:10349000012346E07B6893F84C30002B04D17B6815
:1034A000012283F84C2003E07B68032283F84C2040
:1034B000012336E07B6893F84C30012B04D17B6804
:1034C000022283F84C2003E07B68032283F84C201F
:1034D000012326E07B6893F84C30022B04D17B68F3
:1034E000052283F84C2003E07B68032283F84C20FC
:1034F0000E4B7B62B82300930D4B7A6A0F490E483E
:1035000009F0CFFD7B680E4A5A61002309E07B6811
:10351000042283F84C207B68094A5A61002300E0AA
:10352000022318462837BD4680BD00BFAC200108E5
:10353000B4200108DC200108906B0020FC20010869
:103540003533000880B582B000AF786039603B68E1
:103550001B881B2B37D01B2B63DC012B02D01A2BB3
:1035600024D05EE07B68183318460AF069F97B685E
:103570005B6C2E4A53607B681B6C2C4A13602B4B90
:103580005B68B3F5FA6F28BF4FF4FA639AB2284B21
:103590001A80264B1B685B00254A12885200114690
:1035A000244A184605F0C8F901233BE0224B18686D
:1035B0001F4B1B881A467B6893F849301D4902F05F
:1035C00071FF01232EE0194B5B68194A12889B1A80
:1035D000164A5360154B1B68154A12881344134A48
:1035E0001360124B5B68002B16D0104B5B68B3F571
:1035F000FA6F28BF4FF4FA639AB20D4B1A800B4B47
:103600001B685B000A4A128852001146094A184694
:1036100005F092F9012305E07B68084A5A6100230E
:1036200000E0022318460837BD4680BD84440020D0
:1036300090640020904400200400002035330008EE
:1036400080B584B000AFF860B9607A60FB70FB6849
:10365000BA681A64FB687A685A64FB68FA7883F877
:1036600049200A4B1B684FF6FF72A3F84620074B10
:103670001B687A685A63FB68054918460AF076F8B1
:10368000002318461037BD4680BD00BF040000204F
:10369000E03A010880B584B000AFF860B9607A60A4
:1036A000BB68012B02D87B68642B01D9062318E084
:1036B000FB6893F85130002B06D0002004F0FEF890
:1036C000FB68002283F851207968B86804F0E4F9B7
:1036D0007B68D9B2FA68BB6813444D330A461A7046
:1036E000002318461037BD4680BD80B582B000AFBC
:1036F000786039603B68242B01D9062314E07B688D
:1037000093F85130012B06D0012004F0D7F87B68E4
:10371000012283F85120386804F04AF93B68DAB294
:103720007B6883F84F20002318460837BD4680BDCC
:1037300080B582B000AF78607B6893F85130012B80
:1037400006D0012004F0BAF87B68012283F85120EA
:1037500004F03EF97B68FF2283F84F2000231846CF
:103760000837BD4680BD80B582B000AF7860396053
:103770003B68082B01D9062314E07B6893F851308D
:10378000012B06D0012004F099F87B68012283F810
:103790005120386804F026F93B68DAB27B6883F878
:1037A0005020002318460837BD4680BD80B582B042
:1037B00000AF78607B6893F85130012B06D0012070
:1037C00004F07CF87B68012283F8512004F01AF998
:1037D0007B68FF2283F85020002318460837BD4637
:1037E00080BD80B582B000AF786039603B68242B23
:1037F00001D906230AE004F0BFFD386804F0E4FDB7
:103800003B68DAB27B6883F85220002318460837F9
:10381000BD4680BD80B582B000AF786004F0C0FDC9
:10382000002318460837BD4680BDB0B483B000AF52
:10383000786039603B681B88002B04D03B681B888C
:10384000B3F57A7F01D9062328E03B689B78002BEB
:1038500003D03B689B78242B01D906231EE03B68EC
:10386000DB78642B01D9062318E03B681B69B3F5AC
:10387000006F01D9062311E03B685B69002B01D181
:1038800006230BE07B683A6803F1280415460FCD48
:103890000FC495E8030084E80300002318460C37A2
:1038A000BD46B0BC7047B0B483B000AF786039603B
:1038B0003A687B68154603F128040FCC0FC594E8DD
:1038C000030085E8030000BF0C37BD46B0BC70475D
:1038D00080B584B000AF78607B682833FB60FB68FC
:1038E0001B88002B04D0FB681B88B3F57A7F01D9B5
:1038F00006231CE0FB689B78002B03D0FB689B78B9
:10390000242B01D9062312E0FB68DB78642B01D954
:1039100006230CE0FB681B69B3F5006F01D9062391
:1039200005E07B680449184609F020FF002318468B
:103930001037BD4680BD00BFCC3A010880B582B0CB
:1039400000AF78600B46FB707B68FA78114618462A
:1039500009F0C0F97B680121184608F063FE00F009
:1039600009FA02467B68C3F804227B68002283F8C8
:103970000C227B68012283F80D22FB78032B04D8EC
:10398000FB7804497A6841F8232000BF0837BD4618
:1039900080BD00BF2C67002080B582B000AF78608A
:1039A0007A687B6893F800321946104609F092F95C
:1039B0007B680121184608F035FE00F0DBF902466D
:1039C0007B68C3F804227B68002283F80C2200BFC6
:1039D0000837BD4680BD80B483B000AF78603960E1
:1039E0007B683A68C3F8082200BF0C37BD465DF813
:1039F000047B704780B586B000AFF860B9607A602C
:103A0000FB687A68B968184609F0C4F800F0B2F9A2
:103A10007861FB6893F8E230002B35D0FB6893F8AF
:103A2000E4301A4613465B0013449B00FA681344C3
:103A30003B613B691B687A69D31A40F6B8329342FE
:103A40001ED9FB6893F80C3283F00103DBB2002B24
:103A50001AD0FB68D3F80832002B04D0FB68D3F8E7
:103A60000832F8689847FB68012283F80C22FB684B
:103A700093F80D32002B07D0F868FFF78DFF03E0B5
:103A8000FB68002283F80C22FB687A69C3F80422E1
:103A900000BF1837BD4680BD80B483B000AF7860EA
:103AA00000BF0C37BD465DF8047B704780B500AFA2
:103AB0004FF480720A490B4809F0A2FC4FF480725F
:103AC00009490A4809F09CFC084B064A084909487C
:103AD00009F0E6F9074809F0FFF900BF80BD00BF13
:103AE00004690020DC680020046A0020F0680020DF
:103AF00000780040046B002080B582B000AF786091
:103B000039607B68002B03D101210D4803F01CFCB8
:103B10007B680C4A9A617B689B6900211846FFF715
:103B20000DFF09490748FFF756FF7B6824330A2237
:103B30000A21184609F064FE00BF0837BD4680BD63
:103B4000F43A01081C650020993A000880B584B059
:103B500000AF786039607B68002B03D104211248E4
:103B600003F0F2FB3B68002B03D105210E4803F064
:103B7000EBFB7B685B69FB607B685B693968786835
:103B800098470346FB72FB7A002B08D1FB68074974
:103B9000786898477B685B6905497868984700BFF3
:103BA0001037BD4680BD00BFF43A01080C3B010848
:103BB000003B010880B584B002AF786039607B6853
:103BC000002B03D10221154803F0BEFB78683B6847
:103BD000DA683B681B6900931346114A114909F0E2
:103BE00081FD7B6824337A680B21184609F0E6FDD5
:103BF0003B681A687B685A613B685A687B689A61BF
:103C00003B689A687B68DA617B682433184609F060
:103C100017FE00BF0837BD4680BD00BFF43A01085B
:103C20004D3B0008F93A0008B0B588B002AFFFF785
:103C30003DFF0C2300930A2378220A490A4809F021
:103C4000BAFA0A4B3C1D1D460FCD0FC42B682360EA
:103C50003B1D19460648FFF7ADFF00BF1837BD46AC
:103C6000B0BD00BF48670020C067002018210108D0
:103C7000E864002080B582B000AF0346FB71FB7999
:103C80001946034809F048FD00BF0837BD4680BD0E
:103C9000E864002080B582B000AF786039607B684E
:103CA000002B03D103211B4803F04EFB3B681B880C
:103CB000012B02D00B2B09D027E07B6824330A228A
:103CC0000A21184609F09CFD01231FE0124B4FF416
:103CD00080721A607B68DB690F4A1049184609F048
:103CE0001BF90346002B07D07B689B690A4A1268C0
:103CF0000A491846FFF77EFE7B689B690022002177
:103D00001846FFF777FE012300E002231846083724
:103D1000BD4680BDF43A010808000020DC670020A1
:103D200080B582B000AF0346FB71064BDB695B6870
:103D3000184609F06DFC03469BB218460837BD468D
:103D400080BD00BFE864002080B582B000AF0346AC
:103D50000A46FB711346BB71054BDB69BA79114604
:103D6000184609F058F900BF0837BD4680BD00BFAE
:103D7000E864002080B500AF09F0D4FD0346184682
:103D800080BD000080B586B000AF396011461A468C
:103D90000346FB710B46BB7113467B717B79032B8A
:103DA00027D87B79154A52F823303B6100F02AFD71
:103DB000F86000F031FDB86000237B6114E07B699E
:103DC000DB00FA6813441B78FA799A4209D17B69BF
:103DD000DB00FA6813445B68BA7939683869984738
:103DE00008E07B6901337B617A69BB689A42E6DB54
:103DF00000E000BF1837BD4680BD00BF2C67002023
:103E000080B584B000AFF8607A601A460B46FB724A
:103E10001346BB72FB68BA7A1146184608F05EFC7E
:103E20000346002B05D0F868BB7AF97A7A6808F067
:103E30000DFC00BF1037BD4680BD000080B500AF4F
:103E4000054BDB69184609F061F9034BDB6918463D
:103E500009F07EF900BF80BDE864002080B588B01D
:103E600002AFF860B9601346FB710B4B7B61FB79C5
:103E7000019333230093094B7A690949094809F0F2
:103E800010F9FB79BA680221F868FFF7B9FF00BFA3
:103E90001837BD4680BD00BF2C2101083421010820
:103EA00060210108906B002080B596B002AFF860E9
:103EB000B9601346FB710023A7F84E30BB681B782E
:103EC00087F84B30BB6801331B7887F84A30BB68F2
:103ED00002331B7887F84930BB6803331B781BB269
:103EE0001B021AB2BB6804331B781BB213431BB20C
:103EF000A7F84630BB6805331B7887F84530BB68A8
:103F000006331B781BB21B021AB2BB6807331B783F
:103F10001BB21343A7F8423097F84B30072B11D947
:103F2000B7F84E300133A7F84E30A14BFB6397F83A
:103F30004B300193462300939E4BFA6B9E499F485A
:103F400009F0AFF897F84A300F2B11D9B7F84E3077
:103F50000133A7F84E30964BBB6397F84A30019374
:103F60004B230093934BBA6B9549944809F099F809
:103F700097F849300F2B11D9B7F84E300133A7F815
:103F80004E308B4B7B6397F849300193502300935D
:103F9000884B7A6B8B49894809F083F8B7F846302B
:103FA000B3F5FA7F05D3B7F8463040F6B8329342FE
:103FB00011D9B7F84E300133A7F84E307C4B3B6334
:103FC000B7F846300193552300937A4B3A6B7E49FC
:103FD0007A4809F066F897F84530642B11D9B7F89C
:103FE0004E300133A7F84E30714BFB6297F84530E5
:103FF00001935A2300936F4BFA6A74496F4809F092
:1040000050F8B7F94230B3F57A7F11DDB7F84E308A
:104010000133A7F84E30664BBB62B7F942300193CB
:104020005F230093634BBA6A6949644809F039F821
:10403000B7F84E30002B40F0AB80664B1B6897F80A
:104040004B201146184603F07CF8624B1B6818465B
:1040500002F07CFF034687F82730002387F84D30B5
:1040600040E097F84A2097F84D3042FA03F303F006
:104070000103002B29D097F84D2097F827309A425A
:104080000DD14B4BBB6197F84D3001936C230093DE
:10409000484BBA695049494809F003F81DE04D4BB7
:1040A0001B6897F84D201146184602F069FF404BF7
:1040B000FB6197F84D300193702300933D4BFA69F3
:1040C00046493E4808F0EDFF07E0424B1B6897F871
:1040D0004D201146184602F074FF97F84D30013319
:1040E00087F84D3097F84D30032BBAD9002387F865
:1040F0004C302CE097F8492097F84C3042FA03F303
:1041000003F00103002B15D0324B1B6897F84C20AD
:104110001146184602F0C4FF254B3B6297F84C301D
:1041200001937B230093234B3A6A2D49234808F0DF
:10413000B8FF07E0274B1B6897F84C20114618463C
:1041400002F0CFFF97F84C30013387F84C3097F8E6
:104150004C30032BCED91F4B1B68B7F846201146B5
:10416000184602F05EFF1B4B1B6897F8452011466E
:10417000184602F072FF174B1B68B7F94220114630
:10418000184602F0F4FF3F233B75FF237B7503E0E5
:104190003E233B753E237B7507F114020223042165
:1041A000F868FFF72DFE00BF5037BD4680BD00BF49
:1041B0002C2101083421010894210108906B002072
:1041C000C4210108F4210108242201085C2201080D
:1041D000902201080C000020C8220108F4220108E6
:1041E0001423010880B588B002AFF860B9601346A7
:1041F000FB71FF23FB740D4B7B61972300930C4BEA
:104200007A690C490C4808F04CFF0C4B1B681846A7
:1042100002F050FC07F1130201230621F868FFF7B2
:10422000EFFD00BF1837BD4680BD00BF2C2101083F
:104230003421010838230108906B00200C00002075
:1042400080B588B002AFF860B9601346FB71FF23F8
:10425000FB740D4B7B619F2300930C4B7A690C49D7
:104260000C4808F01EFF0C4B1B68184602F03EFC81
:1042700007F1130201230821F868FFF7C1FD00BF11
:104280001837BD4680BD00BF2C210108342101082C
:1042900064230108906B00200C00002080B590B0D2
:1042A00002AFF860B9601346FB710023FB86BB6860
:1042B0001B7887F83530BB6801331B781BB21B02B3
:1042C0001AB2BB6802331B781BB213431BB27B8646
:1042D000464BFB62AC230093454BFA6A454946487E
:1042E00008F0DFFE97F83530042B0CD9FB8E013334
:1042F000FB863E4BBB62B12300933D4BBA6A3F49FC
:104300003D4808F0CEFE7B8EB3F5FA7F04D37B8E5A
:1043100040F6B83293420ED9FB8E0133FB86334B05
:104320007B627B8E0193B6230093314B7A6A3449CA
:10433000314808F0B6FE334B1B68184602F064FEA5
:10434000034687F8233097F83530032B19D897F8B0
:10435000232097F8353042FA03F303F00103002BD2
:104360000FD0224BFB6197F835300193BE230093A9
:104370001F4BFA692449204808F093FEFB8E013355
:10438000FB86FB8E002B21D197F83530042B09D109
:10439000164BBB61C6230093154BBA691B491648DF
:1043A00008F07FFE174B1B6897F83520114618461A
:1043B00002F0DCFC134B1B687A8E1146184602F0A3
:1043C000EBFC3F233B75FF237B7503E03E233B75EE
:1043D0003E237B7507F1140202230A21F868FFF7D8
:1043E0000FFD00BF3837BD4680BD00BF2C2101083E
:1043F0003421010890230108906B0020BC230108A0
:10440000E82301080C0000201C24010848240108AE
:1044100080B588B002AFF860B9601346FB71FF2326
:10442000FB740D4B7B61D92300930C4B7A690C49CB
:104430000C4808F036FE0C4B1B68184602F0CFFC07
:1044400007F1130201230C21F868FFF7D9FC00BF24
:104450001837BD4680BD00BF2C210108342101085A
:1044600068240108906B00200C00002080B588B003
:1044700002AFF860B9601346FB71FF23FB740D4B6C
:104480007B61E12300930C4B7A690C490C4808F0DE
:1044900008FE0C4B1B68184602F032FD07F11302B0
:1044A00001230E21F868FFF7ABFC00BF1837BD46AB
:1044B00080BD00BF2C210108342101088C24010893
:1044C000906B00200C00002080B59CB002AFF8601B
:1044D000B9601346FB71B14B3B66E9230093B04BC7
:1044E0003A6EB049B04808F0DCFD0023A7F866300A
:1044F000BB681B781BB21B021AB2BB6801331B7866
:104500001BB213431BB2A7F85E30BB6802331B78A3
:1045100087F85D30BB6803331B7887F85C30BB6875
:1045200004331B781BB21B021AB2BB6805331B781D
:104530001BB213431BB2A7F85A30BB6806331B7873
:104540001BB21B021AB2BB6807331B781BB21343A2
:104550001BB2A7F85830BB6808331B781BB21B028C
:104560001AB2BB6809331B781BB213431BB2A7F8FE
:104570005630B7F85E30B3F57A7F0ED2B7F86630B2
:104580000133A7F86630854B3B65F6230093844BD7
:104590003A6D8649844808F084FDB7F85E30844A55
:1045A000A2FB03239B09A7F85E3097F85D30002B30
:1045B00003D097F85D30242B0ED9B7F8663001335D
:1045C000A7F86630754BFB64FD230093744BFA6CBF
:1045D0007849754808F065FD97F85C30642B0FD971
:1045E000B7F866300133A7F866306C4BBB644FF404
:1045F000817300936A4BBA6C6F496B4808F051FDA8
:10460000B7F85A30002B0FD1B7F866300133A7F84E
:104610006630624B7B644FF484730093604B7A6C1A
:104620006649614808F03DFDB7F85A301A46520114
:10463000D21A92001344DB00A7F85A30B7F858306A
:10464000002B0FD1B7F866300133A7F86630534B13
:104650003B6440F20F130093514B3A6C5849524857
:1046600008F01FFDB7F858301A465201D21A9200CE
:104670001344DB00A7F85830B7F85630002B0FD1A1
:10468000B7F866300133A7F86630444BFB634FF44C
:104690008B730093424BFA6B4A49434808F001FD83
:1046A000B7F856301A465201D21A92001344DB0072
:1046B000A7F85630B7F85A20B7F858301A44B7F868
:1046C00056301344B7F85E2002FB03F33E4A82FBE8
:1046D00003129214DB17D31ABB63BB6BB3F5006FE5
:1046E0000FD9B7F866300133A7F866302B4B7B63E0
:1046F0004FF48F7300932A4B7A6B34492A4808F0A1
:10470000D0FCB7F86630002B6AD1B7F85E303B8238
:1047100097F85D30BB7497F85C30FB74B7F85A308B
:104720007B61B7F85830BB61B7F85630FB61BB6BA3
:104730003B62B7F85E30264A92FBF3F37B62254B6F
:104740001B6807F1100211461846FFF76EF8034682
:10475000002B11D13F2387F82830FF2387F8293019
:104760000E4BFB624FF4987300930D4BFA6A1A4993
:104770000D4808F096FC39E03E2387F828303E23A8
:1047800087F82930054B3B634FF49B730093044B30
:104790003A6B1249044808F084FC27E02C210108F8
:1047A00034210108B0240108906B0020D8240108AE
:1047B000D34D62100C250108382501086425010835
:1047C00094250108C425010883DE1B43F425010854
:1047D00040420F0010000020282601085026010842
:1047E0003E2387F828303E2387F8293007F1280236
:1047F00002231221F868FFF703FB00BF6837BD46AC
:1048000080BD00BF80B400AF024B1846BD465DF8C6
:10481000047B7047183B010880B400AF082318469A
:10482000BD465DF8047B704780B400AFBFF34F8F87
:1048300000BF064BDB6803F4E0620449044B1343FA
:10484000CB60BFF34F8F00BF00BFFDE700ED00E07E
:104850000400FA0580B588B000AFF860B9607A60EE
:1048600007F11403074A0A2118460BF0C3FA07F1AF
:1048700014031946F86806F08EF900BF2037BD46CC
:1048800080BD00BF3C2F010880B584B000AFF86048
:10489000B9607A60FFF7C8FF80B588B000AFF860F4
:1048A000B9607A600023BB610023FB82B86806F020
:1048B00063FA03467B757B7D012B04D02E49F86893
:1048C00007F0E0FB54E00121B86806F01FFA3861F8
:1048D0003B691B78612B22D10023FB771BE0FB7F18
:1048E0001846FEF74BFC0346FB82B7F9163013F56A
:1048F000004F06D1FB7F1A462049F86807F0C2FB3B
:1049000006E0FA7FB7F916301D49F86807F0BAFBE0
:10491000FB7F0133FB77FB7F072BE0D928E03B6966
:104920001B782F2B20D93B691B78372B1CD8386973
:104930000AF086FC0346BB61B869FEF71FFC03461C
:10494000FB82B7F9163013F5004F05D1BA690B4950
:10495000F86807F097FB0BE0B7F91630BA69084919
:10496000F86807F08FFB03E00649F86807F08AFB58
:104970002037BD4680BD00BF442F0108642F0108C9
:10498000782F01088C2F010880B588B000AFF8603F
:10499000B9607A60B86806F0EFF90346FB61FB691D
:1049A000012B04D01549F86807F06CFB23E0144B89
:1049B0001B68184602F0C6F9034683F00103DBB218
:1049C000002B04D00F49F86807F05CFB13E00121CD
:1049D000B86806F09BF9B861B8690AF031FC034683
:1049E0007B61074B1B687969184602F06AFC06492F
:1049F000F86807F047FB2037BD4680BD442F01080B
:104A000014000020A02F0108EC2F010880B584B00D
:104A100000AFF860B9607A600A4B1B68184602F074
:104A200069FC0346002B04D00749F86807F02AFB0D
:104A300003E00649F86807F025FB00BF1037BD46C4
:104A400080BD00BF14000020EC2F0108F42F0108E6
:104A500080B588B000AFF860B9607A60B86806F0D9
:104A60008BF90346BB61BB69012B04D03849F86858
:104A700007F008FB69E0374B1B68184602F062F943
:104A8000034683F00103DBB2002B04D03249F868FF
:104A900007F0F8FA59E00121B86806F037F97861B3
:104AA00000233B617B691B78612B25D10023FB61CF
:104AB0001EE0284B1B68F969184602F0FEF83861C1
:104AC0003B69002B0CD1234B1B680022F969184667
:104AD00002F013F9FA692149F86807F0D3FA04E003
:104AE000FA691F49F86807F0CDFAFB690133FB61E9
:104AF000FB69032BDDD928E07B691B782F2B24D998
:104B00007B691B78332B20D878690AF099FB034620
:104B1000FB61104B1B68F969184602F0CEF838614A
:104B20003B69002B0CD10B4B1B680022F96918461E
:104B300002F0E3F8FA690949F86807F0A3FA04E01B
:104B4000FA690749F86807F09DFA2037BD4680BD2D
:104B5000442F010814000020FC2F010844300108F4
:104B60005830010880B588B000AFF860B9607A604D
:104B7000B86806F001F90346FB61FB69012B04D01C
:104B80001549F86807F07EFA22E00121B86806F0BE
:104B9000BDF8B861B8690AF053FB0346FB82FB8A93
:104BA000B3F5FA7F04D3FB8A40F6B832934204D9B6
:104BB0000A49F86807F066FA0AE0094B1B68FA8AA6
:104BC0001146184602F02DFA0649F86807F05AFA1D
:104BD0002037BD4680BD00BF703001089830010805
:104BE00014000020EC2F010880B586B000AFF860FB
:104BF000B9607A60084B1B68184601F04EFF034607
:104C0000FB82FB8A1A460549F86807F03BFA00BFA9
:104C10001837BD4680BD00BF14000020CC3001080D
:104C200080B588B000AFF860B9607A60B86806F007
:104C3000A3F80346BB61BB69042B04D03149F86873
:104C400007F020FA5BE0304B1B68184602F07EF953
:104C50000346FB750023FB614AE0FB699BB201330D
:104C60009BB21946B86806F051F8034618460AF098
:104C7000E7FA0346D9B207F11002FB6913440A466A
:104C80001A7007F11002FB6913441B78012B05D938
:104C9000FA691E49F86807F0F5F930E007F11002EB
:104CA000FB6913441B78002B08D1174B1B68FA696A
:104CB000D2B21146184602F084F916E0FB7DFA697B
:104CC0009A4205D1FA691249F86807F0DBF90CE05D
:104CD0000D4B1B68FA69D2B21146184602F050F922
:104CE000FA690C49F86807F0CDF9FB690133FB61FB
:104CF000FB69032BB1D90849F86807F0C3F92037DD
:104D0000BD4680BDF03001081400002014310108B8
:104D10003C31010860310108EC2F010880B586B0F4
:104D200000AFF860B9607A60134B1B68184602F058
:104D30006BF90346FB7400237B6115E0FA7C7B6909
:104D400042FA03F303F00103002B05D07A690B4903
:104D5000F86807F097F904E07A690949F86807F0FC
:104D600091F97B6901337B617B69032BE6D900BF35
:104D700000BF1837BD4680BD140000206031010817
:104D80007831010880B58CB000AFF860B9607A6006
:104D9000354B1B68184601F0D5FF034683F001032D
:104DA000DBB2002B04D03149F86807F06BF958E00A
:104DB000B86805F0E1FF0346FB62FB6A032B04D0F1
:104DC0002B49F86807F05EF94BE00121B86805F05F
:104DD0009DFFB862B86A0AF033FA03467B627B6AC9
:104DE000032B04D92349F86807F04CF939E0022174
:104DF000B86805F08BFF3862386A0AF021FA03467A
:104E0000FB61FB69012B04D91B49F86807F03AF9EB
:104E100027E00321B86805F079FFB861B8690AF0A6
:104E20000FFA0346FB82FB8A40F6B832934204D95C
:104E30001249F86807F026F913E00B4B1868FB8A53
:104E4000FA69796A02F0BDF938613B69002B04D038
:104E50000B49F86807F016F903E00A49F86807F00B
:104E600011F93037BD4680BD140000209031010893
:104E7000B4310108E0310108043201082832010888
:104E8000F42F0108EC2F010880B58AB000AFF8605C
:104E9000B9607A602A4B1B68184601F053FF03463D
:104EA00083F00103DBB2002B04D02649F86807F039
:104EB000E9F841E0B86805F05FFF03467B627B6A72
:104EC000022B04D02049F86807F0DCF834E0012117
:104ED000B86805F01BFF3862386A0AF0B1F903467A
:104EE000FB61FB69032B04D91849F86807F0CAF87D
:104EF00022E00221B86805F009FFB861B8690AF03C
:104F00009FF903467B610E4B18687B69002B14BF29
:104F100001230023DBB21A46F96901F0EEFE386185
:104F20003B69002B04D00A49F86807F0ABF803E0AE
:104F30000849F86807F0A6F82837BD4680BD00BFCD
:104F4000140000209031010854320108E0310108BA
:104F5000F42F0108EC2F010880B58AB000AFF8608B
:104F6000B9607A60B86805F007FF03463B623B6AA8
:104F7000022B04D03549F86807F084F862E001217B
:104F8000B86805F0C3FEF861314B1B68184602F0A3
:104F90003BF80346FB76FB691B786F2B07D1042394
:104FA00087F827302B49F86807F06CF81EE0FB699A
:104FB0001B782F2B1AD9FB691B78332B16D8F8696D
:104FC0000AF03EF9034687F82730FA7E97F8273033
:104FD00042FA03F303F00103002B07D097F82730C0
:104FE0001A461D49F86807F04DF82BE00221B86811
:104FF00005F08CFE786178690AF022F903463B617E
:105000003B69B3F5FA7F04D33B6940F6B83293426B
:1050100004D91249F86807F035F813E00C4B1B6807
:1050200097F827201146184601F0A0FE084B1B6890
:105030003A6992B21146184601F0AEFE0849F86886
:1050400007F020F82837BD4680BD00BF7432010844
:10505000140000209C320108B43201089830010885
:10506000EC2F010880B584B000AFF860B9607A60B9
:10507000064B1B68184601F0B2FE0549F86807F0B8
:1050800001F800BF1037BD4680BD00BF14000020EE
:10509000EC2F010880B584B000AFF860B9607A6089
:1050A000064B1B68184601F02BFF0549F86806F00F
:1050B000E9FF00BF1037BD4680BD00BF14000020CF
:1050C000EC2F010880B586B000AFF860B9607A6057
:1050D0000F4B1B68184601F039FF0346FB750C4B5C
:1050E0001B68184601F03FFF0346BB82FB7D042B83
:1050F00004D10849F86806F0C5FF05E0FA7DBB8ACF
:105100000549F86806F0BEFF1837BD4680BD00BFF0
:10511000140000209C320108D832010880B588B004
:1051200000AFF860B9607A60B86805F025FE034604
:10513000FB61FB69012B04D01249F86806F0A2FF5D
:105140001CE00121B86805F0E1FDB861B8690AF01A
:1051500077F80346FB75FB7D642B04D90A49F86890
:1051600006F090FF0AE0094B1B68FA7D11461846CD
:1051700001F073FF0649F86806F084FF2037BD464A
:1051800080BD00BF0433010828330108140000204B
:10519000EC2F010880B586B000AFF860B9607A6086
:1051A000084B1B68184601F06EFF0346FB75FB7D3C
:1051B0001A460549F86806F065FF00BF1837BD4676
:1051C00080BD00BF140000204C33010880B588B0BA
:1051D00000AFF860B9607A60B86805F0CDFD0346AD
:1051E000BB61BB69042B04D02649F86806F04AFF6E
:1051F00045E00023FB613BE0FB699BB201339BB2BE
:105200001946B86805F082FD034618460AF018F8FA
:105210000346D9B207F11402FB6913440A461A7017
:1052200007F11402FB6913441B78012B05D9FA69B5
:105230001549F86806F026FF21E007F11402FB6922
:1052400013441B78002B08D1104B1B68FA69D2B2AB
:105250001146184601F045FF07E00C4B1B68FA6940
:10526000D2B21146184601F01BFFFB690133FB6106
:10527000FB69032BC0D90649F86806F003FF203705
:10528000BD4680BD683301081431010814000020B8
:10529000EC2F010880B586B000AFF860B9607A6085
:1052A000124B1B68184601F03FFF0346FB740023B6
:1052B0007B6113E0FA7C7B6942FA03F303F001039C
:1052C000002B04D00A49F86806F0DCFE03E0094927
:1052D000F86806F0D7FE7B6901337B617B69032B9D
:1052E000E8D900BF00BF1837BD4680BD14000020BC
:1052F00090330108A833010880B588B000AFF8608A
:10530000B9607A60B86805F037FD0346FB61FB6958
:10531000012B04D00E49F86806F0B4FE15E0012117
:10532000B86805F0F3FCB861B86909F089FF034675
:10533000FB82084B1B68B7F916201146184601F08E
:1053400016FF0549F86806F09DFE2037BD4680BD72
:10535000C433010814000020EC2F010880B586B08A
:1053600000AFF860B9607A600E4B1B68184601F018
:105370000EFF0346FB82B7F9163007EE903AB8EEFF
:10538000E77AF2EE046AC7EE267AB7EEE77A53ECD4
:10539000172B0549F86806F075FE00BF1837BD46A3
:1053A00080BD00BF14000020EC33010880B588B038
:1053B00000AFF860B9607A60B86805F0DDFC0346BC
:1053C000FB61FB69012B04D01249F86806F05AFE14
:1053D0001DE00121B86805F099FCB861B86909F0D1
:1053E0002FFF03467B617B69072B04D90A49F868C4
:1053F00006F048FE0BE0094B1B687A69D2B21146F1
:10540000184601F09EFE0649F86806F03BFE20377C
:10541000BD4680BD10340108283401081400002066
:10542000EC2F010880B586B000AFF860B9607A60F3
:105430000023FB75084B1B68184601F0B5FE0346B8
:10544000FB75FB7D1A460549F86806F01BFE00BF98
:105450001837BD4680BD00BF140000204834010845
:1054600080B584B000AFF860B9607A60064B1B6805
:10547000184601F01FFB0549F86806F003FE00BF5F
:105480001037BD4680BD00BF14000020EC2F01087E
:1054900080B584B000AFF860B9607A60064B1B68D5
:1054A000184601F023FB0549F86806F0EBFD00BF44
:1054B0001037BD4680BD00BF14000020EC2F01084E
:1054C00080B588B000AFF860B9607A60B86805F060
:1054D00053FC0346FB61FB69012B04D01349F868B8
:1054E00006F0D0FD1EE00121B86805F00FFCB861A0
:1054F000B86909F0A5FE0346FB82B7F91630642BA4
:1055000004DD0B49F86806F0BDFD0BE0094B1B6894
:10551000B7F9162000211846FEF7BCF80649F868CE
:1055200006F0B0FD2037BD4680BD00BF58340108ED
:105530008034010818000020EC2F010880B588B0E5
:1055400000AFF860B9607A60B86805F015FC0346F2
:10555000FB61FB69012B04D01349F86806F092FD4A
:105560001EE00121B86805F0D1FBB861B86909F007
:1055700067FE0346FB82B7F91630642B04DD0B4946
:10558000F86806F07FFD0BE0094B1B68B7F91620A1
:1055900001211846FEF77EF80649F86806F072FD0C
:1055A0002037BD4680BD00BFA43401088034010807
:1055B00018000020EC2F010880B588B000AFF8601B
:1055C000B9607A600023BB83B86805F0D5FB034659
:1055D000FB76FB7E012B04D02749F86806F052FDCC
:1055E00046E00121B86805F091FB78617B691B7882
:1055F000612B1AD10023FB7713E0FB7F1846FDF7E0
:10560000ABFD0346BB83FB7F002B01D11B4A00E0AF
:105610001B4ABB8B1B49F86806F034FDFB7F013346
:10562000FB77FB7F012BE8D922E07B691B782F2BCE
:105630001AD97B691B78312B16D8786909F000FEDE
:105640000346FB74FB7C1846FDF786FD0346BB83CF
:10565000FB7C002B01D1094A00E0094ABB8B0949B8
:10566000F86806F00FFD03E00749F86806F00AFD48
:105670002037BD4680BD00BF442F0108EC3401082F
:10568000F0340108F43401088C2F010880B588B08B
:1056900000AFF860B9607A60B86805F06DFB03464A
:1056A000FB61FB69012B04D01349F86806F0EAFCA2
:1056B0001EE00121B86805F029FBB861B86909F05E
:1056C000BFFD78617B69242B02DC7B69002B04DC45
:1056D0000A49F86806F0D6FC0AE0094B1B687A69AB
:1056E00011461846FEF701F80649F86806F0CAFCAC
:1056F0002037BD4680BD00BF103501083435010894
:1057000018000020EC2F010880B588B000AFF860C9
:10571000B9607A60B86805F02FFB0346FB61FB694E
:10572000012B04D01349F86806F0ACFC1EE00121FF
:10573000B86805F0EBFAB861B86909F081FD7861E5
:105740007B69082B02DC7B69002B04DC0A49F868C2
:1057500006F098FC0AE0094B1B687A691146184666
:10576000FEF701F80649F86806F08CFC2037BD46C4
:1057700080BD00BF583501087C35010818000020A5
:10578000EC2F010880B584B000AFF860B9607A6092
:10579000064B1B681846FDF7CBFF0549F86806F075
:1057A00071FC00BF1037BD4680BD00BF180000204F
:1057B000EC2F010880B584B000AFF860B9607A6062
:1057C000064B1B681846FDF7F1FF0549F86806F01F
:1057D00059FC00BF1037BD4680BD00BF1800002037
:1057E000EC2F010880B592B000AFF860B9607A6024
:1057F000B86805F0C1FA03467B647B6C062B04D0C5
:105800006949F86806F03EFCCBE00121B86805F074
:105810007DFA0346184609F013FD03463B643B6CD2
:10582000B3F57A7F03D33B6C604A934204D9604955
:10583000F86806F027FCB4E03B6C5E4AA2FB032349
:105840009B093B640221B86805F060FA03461846DC
:1058500009F0F6FC0346FB63FB6B002B02D0FB6BED
:10586000242B04D95449F86806F00CFC99E0032174
:10587000B86805F04BFA0346184609F0E1FC034608
:10588000BB63BB6B642B04D94C49F86806F0FAFB88
:1058900087E00421B86805F039FA0346184609F094
:1058A000CFFC03467B637B6B002B04D14449F86833
:1058B00006F0E8FB75E07B6B4FF47A7202FB03F3B2
:1058C0007B630521B86805F021FA0346184609F004
:1058D000B7FC03463B633B6B002B04D13949F868A6
:1058E00006F0D0FB5DE03B6B4FF47A7202FB03F3F2
:1058F0003B630621B86805F009FA0346184609F02B
:105900009FFC0346FB62FB6A002B04D12E49F8681A
:1059100006F0B8FB45E0FB6A4FF47A7202FB03F332
:10592000FB627A6B3B6B1A44FB6A13443A6C02FBD2
:1059300003F3264AA2FB03239B0CBB62BB6AB3F5AD
:10594000006F04D92249F86806F09CFB29E03B6C03
:105950009BB23B82FB6BDBB2BB74BB6BDBB2FB74F9
:105960007B6B7B613B6BBB61FB6AFB61BB6A3B6230
:10597000184A3B6CB2FBF3F37B62174B1B6807F1D1
:10598000100211461846FDF750FF0346002B04D1C4
:105990001249F86806F076FB03E01149F86806F052
:1059A00071FB4837BD4680BD9C35010800350C00B1
:1059B000FC350108D34D6210243601084036010839
:1059C0006036010884360108AC36010883DE1B43CB
:1059D000D036010840420F0018000020EC2F0108CB
:1059E000F42F0108F0B591B006AFF860B9607A60A5
:1059F000184B1B6807F1100211461846FDF753FFBC
:105A00003B8A1A464FF47A7303FB02F4BB7C1E46B2
:105A1000FB7C1D467B69104AA2FB03239B09BA69E4
:105A20000D49A1FB02129209F9690B48A0FB010183
:105A30008909386A049003910292019300953346D4
:105A400022460649F86806F01DFB00BF2C37BD460C
:105A5000F0BD00BF18000020D34D6210F8360108D9
:105A600080B584B000AFF860B9607A60074B1B68FE
:105A70001846FDF72DFF0346002B03D00449F868B4
:105A800006F000FB00BF1037BD4680BD18000020A7
:105A90009437010880B588B000AFF860B9607A60CB
:105AA000B86805F069F90346FB61FB69032B04D074
:105AB0003349F86806F0E6FA5FE0324B1B6893F86A
:105AC0004C30052B10D02F4B1B6893F84C30032B18
:105AD0000AD02C4B1B6893F84C30042B04D02A4975
