:020000040800F2
:100000000000082095300008792E0008812E000895
:10001000892E0008912E0008992E0008000000008B
:10002000000000000000000000000000A12E0008F9
:10003000AF2E000800000000BD2E0008CB2E0008E7
:10004000E5300008E5300008E5300008E53000083C
:10005000E5300008E5300008E5300008E53000082C
:10006000E5300008E5300008E5300008E53000081C
:1000700055A00008E5300008E5300008E53000082C
:10008000E5300008E5300008E5300008E5300008FC
:10009000E5300008E5300008E5300008E5300008EC
:1000A000E530000899A10008E5300008E5300008B7
:1000B000E5A10008E5300008E5300008E53000085B
:1000C000E5300008E5300008E5300008D72E0008CC
:1000D000E5300008E5300008E53000082DF900089B
:1000E000E5300008E5300008E5300008E53000089C
:1000F000E5300008E5300008E5300008E53000088C
:10010000E5300008E5300008E5300008E53000087B
:10011000E5300008E5300008E5300008E53000086B
:10012000C99600089995000825960008B5A9000809
:10013000E5300008E5300008E5300008E53000084B
:10014000E5300008E5300008E5300008E53000083B
:10015000E5300008B9A30008E53000089D710008EB
:10016000E5300008E5300008E5300008E53000081B
:10017000E5300008E5300008E53000080000000028
:10018000E5300008E530000869440008E530000863
:10019000E5300008E5300008E5300008E5300008EB
:1001A0000000000000000000E5300008E530000815
:1001B000E5300008E5300008E5300008E5300008CB
:1001C000E5300008E530000800000000E5300008D8
:1001D000E5300008E5300008E5300008E5300008AB
:1001E000E5300008E5300008E5300008E53000089B
:0801F00000000000E5300008EA
:1002000010B5054C237833B9044B13B10448AFF350
:1002100000800123237010BDC843002000000000AF
:100220006C43010808B5034B1BB103490348AFF306
:10023000008008BD00000000CC4300206C43010892
:1002400010F8012B11F8013B012A28BF9A42F7D080
:10025000D01A7047000000000000000000000000FD
:1002600001F0FF01102A2BDB10F0070F08D010F867
:10027000013B013A8B422DD010F0070F42B3F6D16B
:10028000F0B441EA012141EA014122F007047FF084
:1002900000070023F0E80256083C85EA010586EADB
:1002A000010685FA47F5A3FA87F586FA47F6A5FA17
:1002B00087F68EB9EED1F0BC01F0FF0102F0070223
:1002C00032B110F8013B013A83EA010313B1F8D1CE
:1002D0000020704701387047002D06BF35460338AF
:1002E000073815F0010F07D1013015F4807F02BFE8
:1002F000013015F4C03F0130F0BC0138704700BF39
:10030000034613F8012B002AFBD1181A0138704755
:100310007BB972B90029BEBF00204FF0004106E052
:1003200008BF00281CBF6FF000414FF0FF3000F005
:10033000BBB9ADF1080C6DE904CE002909DB002B37
:100340001ADB00F035F8DDF804E0DDE9022304B043
:100350007047404261EB4101002B1BDB00F028F8A5
:10036000DDF804E0DDE9022304B0404261EB410125
:10037000524263EB43037047524263EB430300F086
:1003800017F8DDF804E0DDE9022304B0404261EB38
:1003900041017047524263EB430300F009F8DDF876
:1003A00004E0DDE9022304B0524263EB43037047EB
:1003B0002DE9F047089D8E4604468846002B4AD119
:1003C0008A42174662D9B2FA82F64EB1C6F12003CC
:1003D00001FA06F820FA03F3B74043EA0808B440EC
:1003E0004FEA174E1FFA87FCB8FBFEF1230C0EFBF9
:1003F000118843EA084301FB0CF29A4209D9FB1821
:1004000001F1FF3080F0EA809A4240F2E780023941
:100410003B449A1AA3B2B2FBFEF00EFB102243EA51
:10042000024300FB0CFC9C4509D9FB1800F1FF328C
:1004300080F0D6809C4540F2D3803B44023840EAAD
:100440000140A3EB0C0300211DB1F3400022C5E9DC
:100450000032BDE8F0878B4205D90DB1C5E9000136
:1004600000210846F5E7B3FA83F1002946D1734528
:1004700002D3824200F20581841A6EEB030201204E
:100480009046002DE5D0C5E90048E2E7002A00F0DB
:100490009080B2FA82F6002E40F0A4808A1A030CF3
:1004A0004FEA174E80B2BCB20121B2FBFEFC0EFB3C
:1004B0001C2243EA024304FB0CF29A4207D9FB18C0
:1004C0000CF1FF3802D29A4200F2E080C4469B1A37
:1004D000B3FBFEF20EFB123340EA034302FB04F4CB
:1004E0009C4207D9FB1802F1FF3002D29C4200F275
:1004F000CA8002461B1B42EA0C40A5E7C1F1200658
:100500008B4022FA06F71F430EFA01F420FA06F395
:100510002EFA06FE4FEA1749234300FA01F81FFAA4
:1005200087FCBEFBF9F01C0C09FB10EE44EA0E44FC
:1005300000FB0CFEA64502FA01F209D93C1900F1B4
:10054000FF3A80F09C80A64540F2998002383C44F6
:10055000A4EB0E041FFA83FEB4FBF9F309FB13446A
:100560004EEA044403FB0CFCA44508D93C1903F1F2
:10057000FF3E80F08280A4457FD9023B3C4443EAA1
:100580000040A4EB0C04A0FB02EC64457346E1467A
:1005900062D35FD05DB1B8EB030264EB090404FAE7
:1005A00006F622FA01F31E43CC40C5E9006400219F
:1005B0004FE7B1FBF2FC010C41EA0E4180B240EA88
:1005C00001423B4638463C46B846BE462026B1FB73
:1005D000F7F1A2EB080241EA0C4166E7014618E791
:1005E00010462CE7C6F120022EFA02F3B740B140C4
:1005F00020FA02F24FEA174E0A43B3FBFEF8BCB2F0
:100600000EFB1833110C41EA034108FB04F9B0401A
:1006100089454FEA104380B23ED9791808F1FF3C72
:1006200001D289451FD8A1EB0901B1FBFEF909FBF5
:1006300004F80EFB191192B242EA0142424529D256
:10064000BA1809F1FF31C4D24245C2D2A9F1020160
:100650003A44BEE7F0459DD2BEEB02036CEB070CBB
:100660000138E14696E7A7EB09094944A8F1020CD5
:10067000B1FBFEF909FB04F8DBE773467FE7504660
:1006800066E70846FDE63B44023A33E7ACF1020C6C
:100690003B441CE749469CE7A1EB0901C446B1FB7A
:1006A000FEF909FB04F8C4E7704700BF80B485B0C9
:1006B00000AF78607B6803F00703FB600B4BDB68DF
:1006C000BB60BA684FF6FF031340BB60FB681A02B9
:1006D000BB681A43064B1343BB60044ABB68D36034
:1006E00000BF1437BD465DF8047B704700ED00E0A5
:1006F0000000FA0580B400AF044BDB681B0A03F06E
:1007000007031846BD465DF8047B704700ED00E026
:1007100080B483B000AF0346FB7197F90730002B1C
:100720000BDBFB7903F01F02074997F907305B09E0
:10073000012000FA02F241F8232000BF0C37BD4629
:100740005DF8047B704700BF00E100E080B483B037
:1007500000AF03463960FB7197F90730002B0ADBC5
:100760003B68DAB20C4997F907301201D2B20B4458
:1007700083F800230AE03B68DAB20849FB7903F00A
:100780000F03043B1201D2B20B441A7600BF0C37A0
:10079000BD465DF8047B704700E100E000ED00E03D
:1007A00080B489B000AFF860B9607A60FB6803F08C
:1007B0000703FB61FB69C3F10703042B28BF042374
:1007C000BB61FB690433062B02D9FB69033B00E0E4
:1007D00000237B614FF0FF32BB6902FA03F3DA4377
:1007E000BB681A407B699A404FF0FF317B6901FA80
:1007F00003F3D9437B680B40134318462437BD46A7
:100800005DF8047B704780B489B000AFF860B960D0
:100810007A60FB682C331946BB6803F440734FF4CD
:100820004072BA61BA6992FAA2F27A617A69B2FA4E
:1008300082F2D2B2D3409B000B44FB61FB691A6881
:10084000BB6803F01F031F2101FA03F3DB431A40C7
:100850007B6803F01F01BB6803F01F0301FA03F379
:100860001A43FB691A6000BF2437BD465DF8047B5C
:10087000704780B483B000AF786039607B689B6854
:1008800023F480623B681A437B689A6000BF0C3790
:10089000BD465DF8047B704780B48DB000AFF86052
:1008A000B9607A60FB680C331946BB6803F00073CB
:1008B0004FF00072BA61BA6992FAA2F27A617A696B
:1008C000B2FA82F2D2B2D3409B000B44FB62FB6AC5
:1008D0001A68BB6803F0F8734FF0F8713962396A2F
:1008E00091FAA1F1F961F969B1FA81F1C9B2CB408C
:1008F000072101FA03F3DB431A40BB6803F0F873E6
:100900004FF0F871B962B96A91FAA1F17962796A26
:10091000B1FA81F1C9B2CB40796801FA03F31A4305
:10092000FB6A1A6000BF3437BD465DF8047B704730
:1009300080B485B000AFF860B9607A600D4ABB68DA
:1009400013441B781A46FB6813441B6823F0C0024B
:100950000849BB680B441B781946FB680B441946D1
:100960007B6813430B6000BF1437BD465DF8047B02
:10097000704700BF086B010880B485B000AFF86015
:10098000B9607A600D4ABB6813441B781A46FB684D
:1009900013441B6823F490720849BB680B441B780E
:1009A0001946FB680B4419467B6813430B6000BF74
:1009B0001437BD465DF8047B704700BF086B010823
:1009C00080B485B000AFF860B9607A600D4ABB684A
:1009D00013441B781A46FB6813441B6823F4007207
:1009E0000849BB680B441B781946FB680B44194641
:1009F0007B6813430B6000BF1437BD465DF8047B72
:100A0000704700BF086B010880B485B000AFF86084
:100A1000B9607A600D4ABB6813441B781A46FB68BC
:100A200013441B6823F480620849BB680B441B789D
:100A30001946FB680B4419467B6813430B6000BFE3
:100A40001437BD465DF8047B704700BF086B010892
:100A500080B485B000AFF860B9607A600D4ABB68B9
:100A600013441B781A46FB6813441B6823F4C052D6
:100A70000849BB680B441B781946FB680B441946B0
:100A80007B6813430B6000BF1437BD465DF8047BE1
:100A9000704700BF086B010880B485B000AFF860F4
:100AA000B9607A600D4ABB6813441B781A46FB682C
:100AB00013441B6823F4C0420849BB680B441B78ED
:100AC0001946FB680B4419467B6813430B6000BF53
:100AD0001437BD465DF8047B704700BF086B010802
:100AE00080B485B000AFF860B9607A600D4ABB6829
:100AF00013441B781A46FB6813441B6823F44032E6
:100B00000849BB680B441B781946FB680B4419461F
:100B10007B6813430B6000BF1437BD465DF8047B50
:100B2000704700BF086B010880B485B000AFF86063
:100B3000B9607A600D4ABB6813441B781A46FB689B
:100B400013441B6823F0F0520849BB680B441B7820
:100B50001946FB680B4419467B6813430B6000BFC2
:100B60001437BD465DF8047B704700BF086B010871
:100B700080B483B000AF786039600C4A3B6813449E
:100B80001B781A467B6813445B6908493A680A4433
:100B9000127811467A680A4423F00403536100BFB7
:100BA0000C37BD465DF8047B704700BF086B010839
:100BB00080B483B000AF78607B681B6843F00102AB
:100BC0007B681A6000BF0C37BD465DF8047B704738
:100BD00080B483B000AF78607B681B6823F4003278
:100BE0007B681A6000BF0C37BD465DF8047B704718
:100BF00080B483B000AF78607B681B6823F4002268
:100C00007B681A6000BF0C37BD465DF8047B7047F7
:100C100080B485B000AFF860B9607A60FB68DA68CC
:100C2000064B1340B9687A680A431A43FB68DA60D6
:100C300000BF1437BD465DF8047B704701F8FFFF25
:100C400080B483B000AF78607B68DB6823F4004237
:100C50007B68DA6000BF0C37BD465DF8047B7047E7
:100C600080B483B000AF78607B685B6843F000724B
:100C70007B685A6000BF0C37BD465DF8047B704747
:100C800080B400AF054B1B68044A43F48033136003
:100C900000BFBD465DF8047B704700BF00380240CE
:100CA00080B400AF074B1B6803F40033B3F5003F7B
:100CB0000CBF01230023DBB21846BD465DF8047B60
:100CC000704700BF0038024080B483B000AF786046
:100CD000064B9B6823F0030204497B6813438B6037
:100CE00000BF0C37BD465DF8047B704700380240FA
:100CF00080B400AF044B9B6803F00C031846BD465C
:100D00005DF8047B704700BF0038024080B483B0B8
:100D100000AF7860064B9B6823F0F00204497B68C3
:100D200013438B6000BF0C37BD465DF8047B7047F2
:100D30000038024080B483B000AF7860064B9B68F7
:100D400023F4E05204497B6813438B6000BF0C37E7
:100D5000BD465DF8047B70470038024080B483B024
:100D600000AF7860064B9B6823F4604204497B68BF
:100D700013438B6000BF0C37BD465DF8047B7047A2
:100D80000038024080B483B000AF7860094BD3F8DC
:100D900090207B681B0CDB431A407B689BB20549A3
:100DA0001343C1F8903000BF0C37BD465DF8047B9B
:100DB000704700BF0038024080B483B000AF786055
:100DC000094BD3F890207B681B0CDB431A407B68EF
:100DD0009BB205491343C1F8903000BF0C37BD46A4
:100DE0005DF8047B704700BF0038024080B483B0D8
:100DF00000AF7860094BD3F890207968084B0B401E
:100E0000DB431A407B681B0404491343C1F890304C
:100E100000BF0C37BD465DF8047B704700380240C8
:100E20000000FFFF80B483B000AF7860074BD3F8B9
:100E30008C3023F0807205497B681343C1F88C30F5
:100E400000BF0C37BD465DF8047B70470038024098
:100E500080B400AF054B1B68044A43F080731360F5
:100E600000BFBD465DF8047B704700BF00380240FC
:100E700080B400AF074B1B6803F00073B3F1007F31
:100E80000CBF01230023DBB21846BD465DF8047B8E
:100E9000704700BF0038024080B485B000AFF860F2
:100EA000B9607A603B600A4B5A680A4B1340F96894
:100EB000BA6811437A68920111433A680A430449B7
:100EC00013434B6000BF1437BD465DF8047B704789
:100ED000003802400080BCFF80B485B000AF78606D
:100EE000084B1A6B07497B6813430B63054B1A6B5E
:100EF0007B681340FB60FB6800BF1437BD465DF89C
:100F0000047B70470038024080B485B000AF786041
:100F1000084B1A6C07497B6813430B64054B1A6C2A
:100F20007B681340FB60FB6800BF1437BD465DF86B
:100F3000047B70470038024080B485B000AF786011
:100F4000084B5A6C07497B6813434B64054B5A6C3A
:100F50007B681340FB60FB6800BF1437BD465DF83B
:100F6000047B70470038024080B483B000AF7860E3
:100F7000064B1B6823F00F0204497B6813430B6088
:100F800000BF0C37BD465DF8047B7047003C024053
:100F900080B400AF044B1B6803F00F031846BD4636
:100FA0005DF8047B704700BF003C024080B400AF96
:100FB000054B1B68044A43F48033136000BFBD46F1
:100FC0005DF8047B704700BF0070004080B483B0C0
:100FD00000AF7860064B1B6823F4404204497B68ED
:100FE00013430B6000BF0C37BD465DF8047B7047B0
:100FF0000070004080B400AF074B5B6803F480438F
:10100000B3F5804F0CBF01230023DBB21846BD4669
:101010005DF8047B704700BF0070004080B483B06F
:1010200000AF78607B681B6843F040027B681A6001
:1010300000BF0C37BD465DF8047B704780B483B0B9
:1010400000AF786039607B685B6823F010023B6812
:101050001A437B685A6000BF0C37BD465DF8047BBD
:10106000704780B483B000AF78607B685B6843F002
:1010700008027B685A6000BF0C37BD465DF8047BF0
:10108000704780B483B000AF78607B685B6823F002
:1010900008027B685A6000BF0C37BD465DF8047BD0
:1010A000704780B483B000AF78607B681B6843F002
:1010B00080027B681A6000BF0C37BD465DF8047B78
:1010C000704780B483B000AF78607B681B6823F002
:1010D00080027B681A6000BF0C37BD465DF8047B58
:1010E0007047000080B485B000AF786039603B681D
:1010F000012B28D03B68042B23D03B68102B1ED03B
:101100003B68402B19D03B68B3F5807F13D03B6818
:10111000B3F5806F0DD03B68B3F5805F07D03B68B7
:10112000B3F5803F01D107230EE008230CE006232E
:101130000AE0052308E0042306E0032304E0022379
:1011400002E0012300E00023FB737B68183319469B
:10115000FB7B0B4AD35C0B44BB60BB681A68FB7B10
:101160000849CB5C194604238B40DB431A40BB681B
:101170001A6000BF1437BD465DF8047B704700BF9E
:10118000106B01081C6B010880B485B000AF78605B
:1011900039603B68012B28D03B68042B23D03B6887
:1011A000102B1ED03B68402B19D03B68B3F5807FD5
:1011B00013D03B68B3F5806F0DD03B68B3F5805F0B
:1011C00007D03B68B3F5803F01D107230EE0082329
:1011D0000CE006230AE0052308E0042306E00323CD
:1011E00004E0022302E0012300E00023FB737B689C
:1011F00018331946FB7B0A4AD35C0B44BB60BB68BF
:101200001A68FB7B0749CB5C194608238B401A43BD
:10121000BB681A6000BF1437BD465DF8047B704799
:10122000106B01081C6B010880B483B000AF7860BC
:1012300039607B689A68064B13403A681A437B68AA
:101240009A6000BF0C37BD465DF8047B704700BF55
:10125000F8BFFEFF80B483B000AF786039607B6870
:101260005B6823F070023B681A437B685A6000BFDA
:101270000C37BD465DF8047B704780B483B000AF87
:10128000786039607B685B6823F470023B681A43BE
:101290007B685A6000BF0C37BD465DF8047B704721
:1012A00080B483B000AF78607B689B6823F08002D5
:1012B0007B689A6000BF0C37BD465DF8047B7047C1
:1012C00080B483B000AF78607B681B6843F0010294
:1012D0007B681A6000BF0C37BD465DF8047B704721
:1012E00080B483B000AF786039607B681B6823F4FA
:1012F000F8123B681B041A437B681A6000BF0C3766
:10130000BD465DF8047B704780B483B000AF786061
:1013100039607B681B6823F078723B685B051A4371
:101320007B681A6000BF0C37BD465DF8047B7047D0
:1013300080B483B000AF78607B689B6843F48042E0
:101340007B689A6000BF0C37BD465DF8047B704730
:1013500080B483B000AF786039607B689B6823F409
:1013600000423B681A437B689A6000BF0C37BD4659
:101370005DF8047B704780B483B000AF78607B6811
:101380005B6823F490427B685A607B689B6823F01B
:101390002A027B689A6000BF0C37BD465DF8047B6B
:1013A000704780B483B000AF78607B685B6823F4DB
:1013B00090427B685A607B689B6823F022027B68BE
:1013C0009A607B689B6843F008027B689A6000BF64
:1013D0000C37BD465DF8047B704780B483B000AF26
:1013E000786039607B683A689A6100BF0C37BD4607
:1013F0005DF8047B704780B483B000AF78603960DB
:101400003B681A047B689A6100BF0C37BD465DF8E3
:10141000047B704780B500AF4FF08050FFF774FD3C
:101420004FF48040FFF788FD0320FFF73FF9FFF7F7
:1014300061F9034600220F211846FFF7B1F9034670
:1014400019464FF0FF30FFF781F900F02DF801F059
:1014500049FA01F0DBF900F0DDFA00F04FFB00F093
:1014600013FC00F0C3FC00F06FF800F03DFD00F04D
:101470001DFF00F0F5FF00F0B5FD01F067F801F089
:1014800051F900F0B5F900F063FA00F087FE00F0C2
:10149000CBFE01F0E3F801F033FF01F045FF01F06E
:1014A0005FFF00BFFDE7000080B500AF0620FFF73B
:1014B0005BFD00BFFFF76CFD0346062BFAD14FF42E
:1014C0004040FFF783FDFFF771FDFFF7D9FB00BF39
:1014D000FFF7E6FB0346012BFAD10023C0220C21C3
:1014E0004FF48000FFF7D8FCFFF7B2FC00BFFFF716
:1014F000BFFC0346012BFAD100BFFFF77BFD03467B
:10150000002BFAD00020FFF701FC4FF4A050FFF7AA
:1015100011FC4FF40040FFF721FC0220FFF7D4FB41
:1015200000BFFFF7E5FB0346082BFAD105480FF093
:10153000BFFF04480FF0F0FF0020FFF773FC00BF6F
:1015400080BD00BF00C2EB0B80B592B000AF07F1C9
:101550003C0300221A605A609A6007F128030022B7
:101560001A605A609A60DA601A6107F11803002263
:101570001A605A609A60DA603B4600221A605A602C
:101580009A60DA601A615A614FF48070FFF7D4FCF8
:101590000420FFF7A1FC0220FFF79EFC01233B6023
:1015A00003237B6000233B613B46194684480EF0D1
:1015B00028FD02233B6003237B6000233B613B4605
:1015C00019467F480EF01DFD04233B6003237B601A
:1015D00000233B613B46194679480EF012FD082373
:1015E0003B6003237B6000233B613B461946744804
:1015F0000EF007FD10233B6003237B6000233B615B
:101600003B4619466E480EF0FCFC20233B6003234A
:101610007B6000233B613B46194669480EF0F1FCB4
:1016200001233B6003237B6000233B613B4619465B
:1016300064480EF0E6FC02233B6003237B6000233A
:101640003B613B4619465F480EF0DBFC002200215F
:101650005D48FFF769FA002200215B48FFF768F94F
:10166000002200215848FFF73BFA4FF48072002116
:101670005548FFF781F9002200215348FFF7A0F9F0
:101680004FF4806200215048FFF7BEF94FF400622A
:1016900000214D48FFF7DCF94FF4005200214A4881
:1016A000FFF7FAF900214848FFF762FA0023FB63CD
:1016B00000233B644FF480737B6407F13C031946BD
:1016C00042480EF025FB0023BB624FF4E003FB62AF
:1016D00000233B6300237B634FF44073BB6307F13C
:1016E0002803194639480EF03FFB00213748FFF721
:1016F000C0F84FF48033BB610023FB6107F118038E
:10170000194633480EF0BCFA0A224FF400712F48F4
:10171000FFF779F801220A212C48FFF7BDF82D4A7E
:1017200040F205212948FFF76EF801222949274890
:10173000FFF7B2F8284A40F20A212448FFF763F87D
:10174000012225492148FFF7A7F8244A40F20F213A
:101750001E48FFF758F8012220491C48FFF79CF863
:101760001F4A4FF405711948FFF74DF801221C4933
:101770001648FFF791F81B4A40F219211348FFF76A
:1017800042F8012217491148FFF786F8164A4FF42C
:1017900080710E48FFF737F8012213490B48FFF715
:1017A0007BF8124A40F205110848FFF72CF8012295
:1017B0000E490648FFF770F800BF4837BD4680BDA8
:1017C0000008024000040240006402400020014082
:1017D000002301400B0030000C0060000D00900061
:1017E0000E00C0000F00F000080080030900B003E5
:1017F00080B58EB000AF07F12C0300221A605A604A
:101800009A6007F1180300221A605A609A60DA6041
:101810001A613B4600221A605A609A60DA601A61C7
:101820005A614FF40070FFF787FB0120FFF754FB6C
:1018300004233B6003237B6000233B613B46194646
:101840003E480EF0DEFB08233B6003237B60002351
:101850003B613B46194639480EF0D3FB4FF000720E
:1018600002213748FFF760F9002202213448FFF7D0
:101870005FF8002202213248FFF732F94FF48072FC
:1018800002212F48FFF778F8002202212C48FFF7A9
:1018900097F84FF4806202212948FFF7B5F84FF41A
:1018A000006202212648FFF7D3F84FF400520221CC
:1018B0002348FFF7F1F802212148FFF759F90023E7
:1018C000FB6200233B634FF480737B6307F12C03BF
:1018D00019461C480EF01CFA0023BB614FF480131C
:1018E000FB6100233B6200237B624FF44073BB62C9
:1018F00007F11803194613480EF036FA4FF48061C9
:101900001048FEF7B6FF104A4FF400710D48FEF77D
:101910007AFF01220C490B48FEF7BEFF0B4A40F24A
:1019200005210848FEF76FFF012208490548FEF728
:10193000B3FF00BF3837BD4680BD00BF0000024086
:101940000064024000210140030090020200600296
:1019500080B58EB000AF07F12C0300221A605A60E8
:101960009A6007F1180300221A605A609A60DA60E0
:101970001A613B4600221A605A609A60DA601A6166
:101980005A614FF48060FFF7D7FA0120FFF7A4FAFD
:1019900002233B6003237B6000233B613B461946E7
:1019A00019480EF02EFB0023FB6200233B6300234B
:1019B0007B6307F12C03194614480EF0A9F90023A4
:1019C000BB610023FB6100233B6200237B62002399
:1019D000BB6207F1180319460C480EF0C5F94FF425
:1019E00080610A48FEF745FF094A4FF40071074835
:1019F000FEF709FF002206490448FEF74DFF00BF2D
:101A00003837BD4680BD00BF0000024000220140C3
:101A10000100300280B58EB000AF07F11C03002238
:101A20001A605A609A60DA601A615A619A613B1DC5
:101A300000221A605A609A60DA601A615A614FF4A3
:101A40004030FFF7D3F90220FFF746FA40237B60CE
:101A50000223BB600323FB6001233B6100237B6106
:101A60000423BB613B1D194621480EF0CAFA8023AE
:101A70007B600223BB600323FB6001233B610023E7
:101A80007B610423BB613B1D194619480EF0B9FA6E
:101A90004FF40010FFF738FA1648FFF7E1F800227C
:101AA00000211448FFF7B4F81248FFF7C9F81148AD
:101AB000FFF79EF80F48FFF78BF80023FB610E4BF2
:101AC0003B6200237B620023BB620023FB62002396
:101AD0003B6300237B6307F11C03194605480EF0A6
:101AE000A7FB0448FFF764F800BF3837BD4680BD48
:101AF0000004024000540040FF63106080B590B0C5
:101B000000AF07F1180328220021184610F074FCDA
:101B10003B4600221A605A609A60DA601A615A6184
:101B20004FF48050FFF708FA0120FFF7D5F9102392
:101B30003B6002237B600323BB600023FB60002328
:101B40003B6105237B613B4619464C480EF059FA30
:101B500020233B6002237B600323BB600023FB60E8
:101B600000233B6105237B613B46194643480EF049
:101B700048FA40233B6002237B600323BB600023C1
:101B8000FB6000233B6105237B613B4619463B48D4
:101B90000EF037FA80233B6002237B600323BB6097
:101BA0000023FB6000233B6105237B613B46194614
:101BB00032480EF026FA4FF0C06203213048FEF79B
:101BC000B3FF402203212E48FEF7B2FE4FF400324D
:101BD00003212B48FEF784FF002203212848FEF74B
:101BE000CBFE002203212648FEF7EAFE4FF4806276
:101BF00003212348FEF708FF002203212048FEF7B7
:101C000027FF002203211E48FEF746FF03211C4840
:101C1000FEF7AEFFFEF76EFD0346002200211846D8
:101C2000FEF7BEFD034619462320FEF78FFD232055
:101C3000FEF76EFD0023BB610023FB614FF4E06300
:101C40003B6202237B620023BB620023FB62002312
:101C50007B630023BB630723FB6307F1180319466B
:101C600008480EF0BDFE00210648FFF7E7F90548D9
:101C7000FFF707FA00BF4037BD4680BD00000240B5
:101C8000006402400030014080B590B000AF07F121
:101C9000180328220021184610F0AEFB3B46002214
:101CA0001A605A609A60DA601A615A614FF4804093
:101CB000FFF72AF90220FFF70FF94FF400533B60BA
:101CC00002237B600323BB600023FB6000233B6196
:101CD00005237B613B46194641480EF092F94FF4CB
:101CE00080433B6002237B600323BB600023FB60D7
:101CF00000233B6105237B613B46194638480EF0C3
:101D000080F94FF400433B6002237B600323BB60F8
:101D10000023FB6000233B6105237B613B461946A2
:101D20002F480EF06EF94FF0905201212D48FEF72A
:101D3000FBFE002201212B48FEF7FAFD4FF4403252
:101D400001212848FEF7CCFE4FF48072012125487E
:101D5000FEF712FE002201212248FEF731FE4FF469
:101D6000806201211F48FEF74FFE4FF400620121FF
:101D70001C48FEF76DFE4FF4005201211948FEF792
:101D80008BFE01211748FEF7F3FE0023BB614FF4E1
:101D90008273FB614FF470633B6200237B6200231C
:101DA000BB624FF40073FB6200233B6300237B6341
:101DB0000023BB630723FB6307F1180319460A4896
:101DC0000EF00EFE00210848FFF738F90648FFF72D
:101DD00048F90548FFF722F900BF4037BD4680BDEE
:101DE00000040240006002400038004080B590B01E
:101DF00000AF07F1180328220021184610F0FCFA62
:101E00003B4600221A605A609A60DA601A615A6191
:101E10004FF40040FFF778F80420FFF75DF84FF427
:101E200080633B6002237B600323BB600023FB6075
:101E300000233B6106237B613B46194628480EF090
:101E4000E0F84FF400633B6002237B600323BB6038
:101E50000023FB6000233B6106237B613B46194660
:101E60001F480EF0CEF84FF480533B6002237B6096
:101E70000323BB600023FB6000233B6106237B61DF
:101E80003B46194616480EF0BCF80023BB614FF4E0
:101E90008273FB614FF4E0633B6200237B620023AB
:101EA000BB624FF40073FB6200233B6300237B6340
:101EB0000023BB630723FB6307F118031946094896
:101EC0000EF08EFD00210748FFF7B8F80548FFF730
:101ED000C8F80448FFF7A2F800BF4037BD4680BDF0
:101EE00000080240003C004080B590B000AF07F110
:101EF000180328220021184610F07EFA3B460022E3
:101F00001A605A609A60DA601A615A614FF40050A0
:101F1000FFF712F81020FEF7DFFF4FF480533B600D
:101F200002237B600323BB600023FB6000233B6133
:101F300005237B613B46194628480EF062F84FF4B2
:101F400000533B6002237B600323BB600023FB60E4
:101F500000233B6105237B613B4619461F480EF079
:101F600050F84FF480433B6002237B600323BB6047
:101F70000023FB6000233B6105237B613B46194640
:101F800016480EF03EF80023BB614FF48273FB61EC
:101F90004FF4E0633B6200237B620123BB624FF49A
:101FA0000073FB6220233B6300237B630023BB633E
:101FB0000723FB6307F11803194609480EF010FDCB
:101FC00000210748FFF73AF80548FFF75AF8044898
:101FD000FFF724F800BF4037BD4680BD0010024027
:101FE0000034014080B590B000AF07F118032822FB
:101FF0000021184610F000FA3B4600221A605A6091
:102000009A60DA601A615A614FF40010FEF794FF8B
:102010000220FEF761FF08233B6002237B6003235D
:10202000BB600023FB6000233B6108237B613B46D0
:10203000194657480DF0E5FF10233B6002237B60F3
:102040000323BB600023FB6000233B6108237B610B
:102050003B4619464E480DF0D4FF20233B60022337
:102060007B600323BB600023FB6000233B610823EC
:102070007B613B46194646480DF0C3FF4FF00072A6
:1020800005214448FEF750FD402205214148FEF756
:102090004FFC4FF4403205213E48FEF721FD00225F
:1020A00005213C48FEF768FC002205213948FEF76F
:1020B00087FC4FF4806205213648FEF7A5FC00221C
:1020C00005213448FEF7C4FC002205213148FEF703
:1020D000E3FC05212F48FEF74BFD4FF0007206216F
:1020E0002C48FEF721FD002206212A48FEF720FC9D
:1020F0004FF4403206212748FEF7F2FC0022062169
:102100002448FEF739FC002206212248FEF758FC3D
:102110004FF4806206211F48FEF776FC002206215C
:102120001C48FEF795FC002206211A48FEF7B4FC75
:1021300006211848FEF71CFD0023BB614FF4827393
:10214000FB614FF4E0633B6200237B620023BB62D0
:102150004FF40073FB6200233B6300237B63002387
:10216000BB630723FB6307F1180319460A480EF007
:1021700037FC00210848FEF761FF0748FEF771FFB2
:102180000548FEF74BFF00BF4037BD4680BD00BF8E
:1021900000040240006402400054014080B586B053
:1021A00000AF3B1D00221A605A609A60DA601A6123
:1021B0000120FEF7C1FEFEF79DFA03460022002132
:1021C0001846FEF7EDFA034619461920FEF7BEFA47
:1021D0001920FEF79DFA0023BB800023BB604FF659
:1021E000FF73FB6000233B6100237B613B1D1946AD
:1021F0000C480EF0E9FC0B48FEF763FF002109488C
:10220000FFF712F800210748FFF724F800210548DE
:10221000FFF733F80348FFF743F800BF1837BD4610
:1022200080BD00BF0000014080B586B000AF3B1DFF
:1022300000221A605A609A60DA601A610120FEF783
:1022400063FEFEF757FA0346002202211846FEF706
:10225000A7FA034619461C20FEF778FA1C20FEF761
:1022600057FA0023BB800023BB604FF0FF33FB60B5
:1022700000233B613B1D19464FF080400EF0A4FC4B
:102280004FF08040FEF70DFF00214FF08040FEF739
:10229000CBFF00214FF08040FEF7DCFF4FF0804085
:1022A000FEF7FEFF00BF1837BD4680BD80B594B075
:1022B00000AF07F13C0300221A605A609A60DA60AE
:1022C0001A6107F11C0320220021184610F094F82F
:1022D0003B1D00221A605A609A60DA601A615A61E6
:1022E0000420FEF711FE0A23BB8700233B644CF257
:1022F00050337B644FF40073BB6407F13C03194611
:1023000055480EF061FC5448FEF7DBFE00215248B0
:10231000FEF78AFF01215048FEF736FF6023FB617C
:1023200000233B6200237B620023BB620023FB622D
:1023300007F11C031A46012147480EF0DFFC01217A
:102340004548FEF7CFFE10214348FEF71DFF07F179
:102350001C031A46102140480EF0D0FC10213E48C4
:10236000FEF7C0FE4FF480713B48FEF70DFF07F10A
:102370001C031A464FF4807137480EF0BFFC4FF42F
:1023800080713548FEF7AEFE4FF480513248FEF7BB
:10239000FBFE07F11C031A464FF480512E480EF045
:1023A000ADFC4FF480512C48FEF79CFE00212A48DA
:1023B000FEF750FF2848FEF773FF0820FEF78CFD5C
:1023C0004FF480537B600223BB600023FB6000233B
:1023D0003B6100237B610223BB613B1D19461F4803
:1023E0000DF00FFE4FF400537B600223BB6000230F
:1023F000FB6000233B6100237B610223BB613B1D2B
:10240000194616480DF0FDFD4FF480437B60022312
:10241000BB600023FB6000233B6100237B61022340
:10242000BB613B1D19460D480DF0EBFD4FF4004319
:102430007B600223BB600023FB6000233B61002321
:102440007B610223BB613B1D194604480DF0D9FD99
:1024500000BF5037BD4680BD00080040000C024060
:1024600080B58EB000AF07F11C0300221A605A60DD
:102470009A60DA601A615A619A613B1D00221A6003
:102480005A609A60DA601A615A614FF04050FEF764
:1024900093FC4FF08040FEF737FD1020FEF71CFD47
:1024A00080237B600223BB600323FB6000233B612E
:1024B00001237B610823BB613B1D194621480DF0B8
:1024C000A0FD4FF480737B600223BB600323FB609D
:1024D00000233B6100237B610823BB613B1D194640
:1024E00018480DF08EFDFEF705F9034600220B217A
:1024F0001846FEF755F9034619465220FEF726F90D
:102500005220FEF705F94FF4E133FB6100233B62F3
:1025100000237B620023BB620C23FB6200233B632E
:1025200000237B6307F11C03194607480EF006FFE2
:102530000548FEF720FF0448FEF7C2FE00BF38370B
:10254000BD4680BD001002400078004080B58EB0CE
:1025500000AF07F11C0300221A605A609A60DA602B
:102560001A615A619A613B1D00221A605A609A6092
:10257000DA601A615A614FF44030FEF703FC102014
:10258000FEF7DAFC0120FEF7A7FC4FF400737B6036
:102590000223BB600323FB6000233B6100237B61BC
:1025A0000723BB613B1D19462A480DF02AFD4FF455
:1025B00080637B600223BB600323FB6000233B61DD
:1025C00000237B610723BB613B1D194621480DF0A9
:1025D00018FD4FF480537B600223BB600323FB6034
:1025E00000233B6100237B610723BB613B1D194630
:1025F00018480DF006FD4FF4E133FB6100233B6208
:1026000000237B620023BB620C23FB6200233B633D
:1026100000237B6307F11C0319460F480EF08EFE62
:102620000D48FEF785FE00210B48FEF791FE0021C4
:102630000948FEF769FE00210748FEF751FE0648EB
:10264000FEF799FE0448FEF73BFE00BF3837BD4653
:1026500080BD00BF000002400010014080B58EB078
:1026600000AF07F11C0300221A605A609A60DA601A
:102670001A615A619A613B1D00221A605A609A6081
:10268000DA601A615A614FF44010FEF77BFB4FF499
:102690008020FEF739FC0220FEF71EFC4FF4806319
:1026A0007B600223BB600323FB6001233B610023AB
:1026B0007B610723BB613B1D194618480DF0A1FC47
:1026C000FEF718F80346002200211846FEF768F8C6
:1026D000034619462720FEF739F82720FEF718F899
:1026E0004FF4E133FB6100233B6200237B62002354
:1026F000BB620823FB6200237B6307F11C031946BE
:1027000007480EF01BFE0648FEF74BFE0448FEF796
:10271000D7FD00BF3837BD4680BD00BF0004024072
:102720000048004080B58EB000AF07F11C030022C6
:102730001A605A609A60DA601A615A619A613B1DA8
:1027400000221A605A609A60DA601A615A614FF08A
:102750004060FEF717FB2020FEF7EEFB0420FEF79B
:10276000BBFB40237B600223BB600323FB60002391
:102770003B6100237B610823BB613B1D1946214857
:102780000DF03FFC80237B600223BB600323FB60D2
:1027900000233B6100237B610823BB613B1D19467D
:1027A00018480DF02EFCFDF7A5FF034600220B2173
:1027B0001846FDF7F5FF034619464720FDF7C6FF0B
:1027C0004720FDF7A5FF4FF4E133FB6100233B6297
:1027D00000237B620023BB620C23FB6200233B636C
:1027E00000237B6307F11C03194607480EF0A6FD82
:1027F0000548FEF7C0FD0448FEF762FD00BF38370C
:10280000BD4680BD000802400014014080B500AF05
:102810004FF48000FEF760FB4FF40010FEF75CFB06
:10282000FDF768FF0346002200211846FDF7B8FFB8
:10283000034619460C20FDF789FF0C20FDF768FFC1
:10284000FDF758FF034600220A211846FDF7A8FFAE
:10285000034619463820FDF779FF3820FDF758FF69
:10286000FDF748FF034600220A211846FDF798FFAE
:10287000034619463A20FDF769FF3A20FDF748FF65
:10288000FDF738FF0346002200211846FDF788FFB8
:10289000034619463B20FDF759FF3B20FDF738FF63
:1028A000FDF728FF0346002209211846FDF778FFAF
:1028B000034619464420FDF749FF4420FDF728FF51
:1028C000FDF718FF0346002201211846FDF768FFB7
:1028D000034619464520FDF739FF4520FDF718FF4F
:1028E00000BF80BD80B586B000AF3B4600221A60B5
:1028F0005A609A60DA601A615A611020FEF7ECFAA9
:102900000420FEF7E9FA8020FEF7E6FA0120FEF740
:10291000E3FA0220FEF7E0FA0820FEF7DDFA0421D0
:10292000BE48FEF768FD0821BC48FEF764FD102193
:10293000BA48FEF760FD2021B848FEF75CFD402153
:10294000B648FEF758FD4FF40051B548FEF753FD69
:102950004FF48041B248FEF74EFD4FF40041B048BD
:10296000FEF749FD4FF40061AC48FEF744FD4FF41B
:102970000061AC48FEF73FFD4FF40061AA48FEF746
:102980003AFD4FF40041A848FEF735FD0121A74864
:10299000FEF731FD0221A548FEF72DFD1021A348C9
:1029A000FEF729FD2021A148FEF725FD40219F4883
:1029B000FEF721FD04219B48FEF70FFD4FF48061D7
:1029C0009648FEF70AFD4FF400419448FEF705FDD6
:1029D0004FF480519348FEF700FD4FF48071934807
:1029E000FEF7FBFC4FF400719048FEF7F6FC4FF445
:1029F00080618E48FEF7F1FC04218C48FEF7EDFC67
:102A000080218A48FEF7E9FC4FF480718548FEF783
:102A1000E4FC4FF400718348FEF7DFFC01217F489E
:102A2000FEF7DBFC02217D48FEF7D7FC04233B6068
:102A300001237B600023BB600023FB6000233B611C
:102A40003B46194675480DF0DCFA08233B6001232C
:102A50007B600023BB600023FB6000233B613B469F
:102A600019466E480DF0CDFA10233B6001237B60C0
:102A70000023BB600023FB6000233B613B461946FB
:102A800066480DF0BEFA20233B6001237B600023E3
:102A9000BB600023FB6000233B613B4619465F4857
:102AA0000DF0AFFA40233B6001237B600023BB6045
:102AB0000023FB6000233B613B46194657480DF05D
:102AC000A0FA4FF400533B6001237B600023BB60FE
:102AD0000023FB6000233B613B46194650480DF044
:102AE00090FA4FF480433B6001237B600023BB607E
:102AF0000023FB6000233B613B46194648480DF02C
:102B000080FA4FF400433B6001237B600023BB60ED
:102B10000023FB6000233B613B46194640480DF013
:102B200070FA04233B6001237B600023BB60002319
:102B3000FB6000233B613B4619463A480DF061FAC1
:102B40004FF480633B6001237B600023BB60002364
:102B5000FB6000233B613B46194630480DF051FABB
:102B60004FF400633B6001237B600023BB600023C4
:102B7000FB6000233B613B46194628480DF041FAB3
:102B80004FF400433B6001237B600023BB600023C4
:102B9000FB6000233B613B46194620480DF031FAAB
:102BA0004FF400633B6001237B600023BB60002384
:102BB000FB6000233B613B4619461A480DF021FAA1
:102BC0004FF480533B6001237B600023BB600023F4
:102BD000FB6000233B613B46194612480DF011FA99
:102BE0004FF480733B6001237B600323BB600023B1
:102BF000FB6000233B613B4619460C480DF001FA8F
:102C00004FF400733B6001237B600323BB60002310
:102C1000FB6000233B613B46194609E0001002407F
:102C2000000802400004024000000240000C024084
:102C30008C480DF0E6F94FF480633B6001237B6024
:102C40000323BB600023FB6000233B613B46194626
:102C500084480DF0D6F94FF400633B6000237B609D
:102C600000233B613B4619467E480DF0CAF94FF4FC
:102C700080733B6000237B6000233B613B46194629
:102C800079480DF0BEF94FF400733B6000237B6080
:102C900000233B613B46194673480DF0B2F94FF4EF
:102CA00080733B6000237B6000233B613B461946F9
:102CB0006E480DF0A6F94FF400633B6001237B6082
:102CC0000023BB600023FB6000233B613B461946A9
:102CD00066480DF096F94FF400433B6001237B609A
:102CE0000023BB600023FB6000233B613B46194689
:102CF0005E480DF086F901233B6001237B600023D1
:102D0000BB600023FB6000233B613B4619465548EE
:102D10000DF077F902233B6001237B600023BB6049
:102D20000023FB6000233B613B4619464D480DF0F4
:102D300068F904233B6001237B600023BB60002310
:102D4000FB6000233B613B46194646480DF059F9AC
:102D500008233B6000237B6000233B613B46194610
:102D600040480DF04EF910233B6001237B600023A7
:102D7000BB600023FB6000233B613B46194639489A
:102D80000DF03FF920233B6001237B600023BB60F3
:102D90000023FB6000233B613B46194631480DF0A0
:102DA00030F940233B6001237B600023BB6000239C
:102DB000FB6000233B613B4619462A480DF021F990
:102DC00080233B6001237B600023BB600023FB600A
:102DD00000233B613B46194622480DF012F94FF49F
:102DE00080733B6001237B600023BB600023FB609A
:102DF00000233B613B4619461D480DF002F94FF494
:102E000000733B6001237B600023BB600023FB60F9
:102E100000233B613B46194615480DF0F2F80123AB
:102E20003B6001237B600023BB600023FB60002329
:102E30003B613B4619460F480DF0E3F802233B6027
:102E400001237B600023BB600023FB6000233B6108
:102E50003B46194607480DF0D4F800BF1837BD4669
:102E600080BD00BF000C024000080240000002408C
:102E7000000402400010024080B400AF00BFFDE734
:102E800080B400AF00BFFDE780B400AF00BFFDE736
:102E900080B400AF00BFFDE780B400AF00BFFDE726
:102EA00080B400AF00BFBD465DF8047B704780B4BE
:102EB00000AF00BFBD465DF8047B704780B400AF33
:102EC00000BFBD465DF8047B704780B500AF0CF0D5
:102ED00057FE00BF80BD80B400AF00BFBD465DF8A7
:102EE000047B704780B400AF01231846BD465DF8EF
:102EF000047B704780B582B000AF786039600FF016
:102F0000DBFA034616221A604FF0FF3318460837E3
:102F1000BD4680BD80B582B000AF78604FF0FF3114
:102F20007868FFF7E7FF00BFFDE780B586B000AF28
:102F3000F860B9607A6000237B610AE0AFF300803B
:102F40000146BB685A1CBA60CAB21A707B69013369
:102F50007B617A697B689A42F0DB7B681846183798
:102F6000BD4680BD80B586B000AFF860B9607A60BC
:102F700000237B6109E0BB685A1CBA601B781846C5
:102F8000AFF300807B6901337B617A697B689A4289
:102F9000F1DB7B6818461837BD4680BD80B483B02E
:102FA00000AF78604FF0FF3318460C37BD465DF830
:102FB000047B704780B483B000AF786039603B68B1
:102FC0004FF400525A60002318460C37BD465DF896
:102FD000047B704780B483B000AF7860012318464B
:102FE0000C37BD465DF8047B704780B485B000AFF8
:102FF000F860B9607A60002318461437BD465DF862
:10300000047B704780B586B000AF7860144A154BDA
:10301000D31A7B617B693B61134B1B68002B02D188
:10302000114B124A1A60104B1A687B6813443A69B4
:103030009A4207D20FF040FA03460C221A604FF072
:10304000FF3309E0084B1B68FB60074B1A687B687D
:103050001344054A1360FB6818461837BD4680BD07
:103060000000082000040000E4430020B8FD012017
:1030700080B400AF064BD3F88830054A43F47003A0
:10308000C2F8883000BFBD465DF8047B704700BFC2
:1030900000ED00E0DFF834D0FFF7EAFF0C480D49FF
:1030A0000D4A002302E0D458C4500433C4188C42A3
:1030B000F9D30A4A0A4C002301E013600432A24209
:1030C000FBD30FF0FFF9FEF7A5F9704700000820C9
:1030D00000000020C843002050770108C8430020AA
:1030E000B8FD0120FEE780B582B000AF786039609E
:1030F00006F0C8FA06F0BEF97B6814330A220A21EA
:1031000018460CF0F9FC00BF0837BD4680BD000032
:1031100080B584B002AF786039607B68002B03D142
:103120000021104805F0B0FD78683B685A683B689C
:103130009B68009313460C4A0C490CF04FFC7B68CB
:1031400014337A68162118460CF0B4FC3B681A68F0
:103150007B685A627B6800221A8700BF0837BD4629
:1031600080BD00BF406B0108D5310008E730000882
:1031700080B586B002AF02230093042308220949D8
:1031800009480CF00CF8094A3B1D07CA83E8070000
:103190003B1D19460648FFF7BBFF00BF1037BD4671
:1031A00080BD00BF4444002024440020884301081F
:1031B000E843002080B582B000AF0346FB71FB7985
:1031C000194603480CF024FC00BF0837BD4680BDFB
:1031D000E843002090B585B000AF786039603B6867
:1031E0001B88162B06D0162B27DC142B08D0152B8A
:1031F0001DD022E006F050FA06F0BAF901231DE0D6
:103200000023FB730EE0FB7BFC7B184606F04AFABA
:10321000034619467B6804F1140223F81210FB7B65
:103220000133FB73FB7B072BEDD9012306E006F08E
:1032300009F903461AB27B685A87022318461437E5
:10324000BD4690BD80B483B000AF7860054A7B680E
:103250001C3332F9133018460C37BD465DF8047B39
:10326000704700BFE843002080B487B000AFF8602B
:10327000B96011461A460B46FB801346BB80164ABE
:10328000FB68143332F91330BB82134ABB68143322
:1032900032F91330FB82B7F91430B7F904209A429F
:1032A00010DCB7F91430B7F906209A420ADBB7F9F7
:1032B00014301A46B7F91630D31A002BB8BF5B4248
:1032C000322B01DD012300E0002318461C37BD46E8
:1032D0005DF8047B704700BFE843002080B483B0F2
:1032E00000AF7860054A7B68143332F91330184612
:1032F0000C37BD465DF8047B704700BFE8430020F3
:1033000080B500AF03F030FE04F09EFCFFF730FF05
:1033100000F0AAF802F0E2F900F09CFF04F038FA9D
:1033200004F052FB00BF80BD80B500AF012000F06B
:10333000BDF8042003F04AFE022004F0ABFC032099
:10334000FFF738FF052002F0EBF9062004F05CFAE5
:10335000072000F0A5FF0A2004F06EFB00BF80BD2F
:1033600080B500AF0CF0ECFA00BF80BD80B582B034
:1033700000AF7860396005F0A7FF06F0C3FF06F0E4
:1033800069FC7B68012283F85D207B68002283F85A
:10339000622000BF0837BD4680BD000080B584B004
:1033A00000AF786039607B685B69FB607B685B6954
:1033B0003968786898470346FB72FB7A002B08D17E
:1033C000FB680649786898477B685B6904497868B8
:1033D000984700BF1037BD4680BD00BF706B010825
:1033E0005C6B010880B584B002AF786039607B689F
:1033F000002B03D10021194805F046FC78683B6892
:103400005A683B689B6800931346154A15490CF0AF
:10341000E5FA3B681A687B685A617B6818337A68FA
:10342000172118460CF046FB7B6828337A68212167
:1034300018460CF03FFB7B68283318460CF07CFBE9
:103440007B68183318460CF077FB3B681A7B7B6867
:1034500083F8582000BF0837BD4680BD4C6B01087B
:103460009D3300086D33000890B587B002AF12237A
:10347000009302232422094909480BF090FE094BCE
:103480003C460FCB84E80F003B4619460648FFF741
:10349000A9FF00BF1437BD4690BD00BFE044012026
:1034A00004450120944301084C44002080B582B0BB
:1034B00000AF0346FB71FB79194603480CF0A8FAEC
:1034C00000BF0837BD4680BD4C44002080B582B0A7
:1034D00000AF786039603B681B88013B192B4DD8E1
:1034E00001A252F823F000BF513500087D350008D5
:1034F0007D3500087D3500087D3500087D350008E4
:103500007D3500087D3500087D3500087D350008D3
:103510007D3500087D3500087D3500087D350008C3
:103520007D3500087D3500087D3500087D350008B3
:103530007D3500087D3500087D3500087D350008A3
:103540007D3500085F3500086935000873350008CF
:103550007B68183318460CF0EFFA01230FE07B6804
:10356000094A5A6100230AE07B68084A5A6100232D
:1035700005E07B68064A5A61002300E002231846F2
:103580000837BD4680BD00BF9535000839380008B2
:10359000C939000890B591B002AF786039603B68D6
:1035A0001B88013B202B00F2298101A252F823F055
:1035B00035360008FD370008CB360008FD37000817
:1035C000FD370008FD370008FD370008FD3700080B
:1035D000FD370008FD370008FD370008FD370008FB
:1035E000FD370008FD370008FD370008FD370008EB
:1035F000FD370008FD370008FD370008FD370008DB
:10360000FD370008FD370008B1370008FD37000816
:10361000FD370008FD370008F73600082B37000893
:103620005F370008FD370008FD370008FD37000848
:10363000C3370008744B3B6295230093734B3A6A7F
:10364000734974480BF021FD7B681833002244F65F
:10365000206118460CF050FA7B6893F83C3019460C
:10366000786800F002FB786800F018FB7B68DB8F5D
:10367000FB607B68B3F840303B617B68B3F8423055
:103680007B617B689B6BBB617B6893F83C30FB6123
:103690007B6893F83D30184605F080FE07F10C0377
:1036A000184606F09DFA7B6828330122012118464E
:1036B0000CF022FA584B00221A8006F07FFC7B683F
:1036C000002283F85820012399E04F4B7B62B123FD
:1036D00000934E4B7A6A51494E480BF0D6FC7B68FA
:1036E000183318460CF028FA7B68283318460CF07B
:1036F00023FA012383E0444BBB62B8230093434B7E
:10370000BA6A474943480BF0C0FC7B6893F85830CD
:10371000002B04D17B68012283F8582003E07B68EA
:10372000032283F85820012369E0374BFB62C3234F
:103730000093364BFA6A3B4936480BF0A6FC7B688F
:1037400093F85830012B04D17B68022283F858206B
:1037500003E07B68032283F8582001234FE02A4BC3
:103760007B63CD230093294B7A6B2F4929480BF0BB
:103770008CFC7B6893F85830022B04D17B680522BF
:1037800083F8582003E07B68032283F858201E4BFF
:103790003B63D32300931D4B3A6B24491D480BF028
:1037A00074FC00F0BBFB7B68214A5A61002326E0D1
:1037B0007B68042283F858207B681D4A5A610023E5
:1037C0001DE0154B1B88B3F5804F10D2124B1B88A0
:1037D0005A1C91B2104A11801C4605F03FFE034668
:1037E0001A46144B23F8142005F0CCFE04E07B6845
:1037F000283318460CF0A0F9012300E002231846F4
:103800003C37BD4690BD00BFA4430108AC4301084E
:10381000D4430108704C0120C8440120F44301083E
:10382000304401085C44010884440108B0440108A4
:10383000CD340008C8C4002080B582B000AF7860E5
:1038400039603B681B88013B1F2B00F2AE8001A250
:1038500052F823F0D5380008AB390008AB3900081E
:10386000AB390008AB390008AB390008AB390008A8
:10387000AB390008AB390008AB390008AB39000898
:10388000AB390008AB390008AB390008AB39000888
:10389000AB390008AB390008AB390008AB39000878
:1038A000AB390008AB390008AB390008AB39000868
:1038B000AB390008AB390008AB390008AB39000858
:1038C000AB390008AB3900082B390008453900082E
:1038D000FD3800087B68183318460CF02DF97B681A
:1038E0001B6D344A53607B68DB6C324A1360324B89
:1038F0001B68184603F000FF012357E02D4B5B685F
:10390000B3F5804F28BF4FF480439AB22B4B1A80F7
:10391000284B1B685B00294A128852001146284A2E
:10392000184606F021FD012340E0234B1868234B85
:103930001B881A467B6893F85530214903F0B8FE7E
:10394000012333E01B4B5B681C4A12889B1A194AFF
:103950005360184B1B68194A12881344154A1360A8
:10396000144B5B68002B16D0124B5B68B3F5804F8D
:1039700028BF4FF480439AB2104B1A800D4B1B683E
:103980005B000E4A1288520011460D4A184606F096
:10399000EBFC01230AE0084B1B68184603F0BCFE51
:1039A0007B68084A5A61002300E002231846083762
:1039B000BD4680BDB844002004000020C4C40020DF
:1039C000C4440020CD34000880B582B000AF7860D8
:1039D00039603B681B88012B02D01E2B12D01AE0E5
:1039E0007B68183318460CF0A7F80D4806F0F0FE77
:1039F0007B68DB6C0A4A4FF48041184606F0B4FC41
:103A0000012309E006F008FF00F0A0FA7B68054AF0
:103A10005A61002300E0022318460837BD4680BDE6
:103A2000C4440020CD34000880B584B000AFF860F5
:103A3000B9607A60FB70FB68BA68DA64FB687A6820
:103A40001A65FB68FA7883F85520084B1B684FF617
:103A5000FF72A3F84220FB68054918460CF002F8F3
:103A6000002318461037BD4680BD00BF040000206B
:103A7000986B010880B582B000AF78607B68002247
:103A8000DA647B685A6E7B681A657B68012283F86A
:103A90005520084B1B684FF6FF72A3F842207B6845
:103AA000054918460BF0DEFF002318460837BD46CF
:103AB00080BD00BF04000020986B010880B582B073
:103AC00000AF78607B68044918460BF0CBFF0023F9
:103AD00018460837BD4680BDC06B010880B582B06E
:103AE00000AF78607B68044918460BF0BBFF0023E9
:103AF00018460837BD4680BDD46B010880B582B03A
:103B000000AF78607B68044918460BF0ABFF0023D8
:103B100018460837BD4680BDE86B010880B584B003
:103B200000AFF860B9607A60BB68012B02D87B688F
:103B3000642B01D9062318E0FB6893F85D30002B55
:103B400006D0002005F07CFBFB68002283F85D2096
:103B50007968B86805F062FC7B68D9B2FA68BB681E
:103B6000134459330A461A70002318461037BD46CD
:103B700080BD80B582B000AF786039603B68242B8F
:103B800001D9062314E07B6893F85D30012B06D041
:103B9000012005F055FB7B68012283F85D20386821
:103BA00005F0C8FB3B68DAB27B6883F85B20002332
:103BB00018460837BD4680BD80B582B000AF78603A
:103BC0007B6893F85D30012B06D0012005F038FBAF
:103BD0007B68012283F85D2005F0BCFB7B68FF2237
:103BE00083F85B20002318460837BD4680BD80B5AA
:103BF00082B000AF786039603B68082B01D906239A
:103C000014E07B6893F85D30012B06D0012005F0AD
:103C100017FB7B68012283F85D20386805F0A4FB60
:103C20003B68DAB27B6883F85C20002318460837CB
:103C3000BD4680BD80B582B000AF78607B6893F8E8
:103C40005D30012B06D0012005F0FAFA7B680122D5
:103C500083F85D2005F098FB7B68FF2283F85C20E9
:103C6000002318460837BD4680BD80B582B000AF3E
:103C7000786039603B68242B01D906230AE006F0FE
:103C800079F8386806F09EF83B68DAB27B6883F80A
:103C90005E20002318460837BD4680BD80B582B03F
:103CA00000AF786006F07AF8002318460837BD4662
:103CB00080BD000080B483B000AF786039603B689D
:103CC0001B68002B04D03B681B68164A934201D93D
:103CD000062321E03B68DB68B3F5006F01D90623BA
:103CE0001AE03B681A687B689A633B68DA887B68ED
:103CF000DA873B681A897B68A3F840203B685A89B9
:103D00007B68A3F842203B68DA687B685A643B68AA
:103D10001A697B689A64002318460C37BD465DF823
:103D2000047B704700350C0080B483B000AF78602E
:103D300039603B685B79642B01D9062305E03B6859
:103D40005A797B6883F83D20002318460C37BD461E
:103D50005DF8047B704780B483B000AF7860396051
:103D60003B681B79002B03D03B681B79242B01D9BE
:103D7000062305E03B681A797B6883F83C20002322
:103D800018460C37BD465DF8047B7047B0B483B06D
:103D900000AF786039603B681B68002B04D03B683B
:103DA0001B68184A934201D9062326E03B681B7919
:103DB000002B03D03B681B79242B01D906231CE080
:103DC0003B685B79642B01D9062316E03B68DB680E
:103DD000B3F5006F01D906230FE03B681B69002B88
:103DE00001D1062309E07B683A6803F138041546DF
:103DF0000FCD0FC42B682360002318460C37BD4637
:103E0000B0BC704700350C00B0B483B000AF786030
:103E100039603A687B68154603F138040FCC0FC54A
:103E200023682B6000BF0C37BD46B0BC7047000054
:103E300080B584B000AF78607B683833FB60FB6886
:103E40001B68002B04D0FB681B68134A934201D9FE
:103E500006231CE0FB681B79002B03D0FB681B7951
:103E6000242B01D9062312E0FB685B79642B01D96E
:103E700006230CE0FB68DB68B3F5006F01D906236D
:103E800005E07B68054918460BF0ECFD0023184659
:103E90001037BD4680BD00BF00350C00846B0108A3
:103EA00080B582B000AF78600B467B807B889B0337
:103EB0001A467B68DA647B684FF480421A657B6837
:103EC000012283F854207B68044918460BF0CAFD90
:103ED000002318460837BD4680BD00BFAC6B010803
:103EE00080B483B000AF786039607B683A689A61CB
:103EF00000BF0C37BD465DF8047B704780B483B0CB
:103F000000AF786039603B681A047B689A6100BF33
:103F10000C37BD465DF8047B7047000080B500AFEC
:103F20004FF400610248FFF7E9FF00BF80BD00BF0A
:103F30000004024080B500AF4FF400610248FFF773
:103F4000CFFF00BF80BD00BF0004024080B500AFBE
:103F50004FF480710248FFF7C3FF00BF80BD00BF70
:103F60000008024080B582B000AF78600B46FB705D
:103F70007B68FA78114618460AF0A0FE7B6801219A
:103F800018460AF043FB00F00BFA02467B68C3F8C0
:103F900004227B68002283F80C227B68012283F8CC
:103FA0000D22FB78032B04D8FB7804497A6841F88A
:103FB000232000BF0837BD4680BD00BF64470120F5
:103FC00080B582B000AF78607A687B6893F8003281
:103FD000194610460AF072FE7B68012118460AF065
:103FE00015FB00F0DDF902467B68C3F804227B680C
:103FF000002283F80C2200BF0837BD4680BD80B484
:1040000083B000AF786039607B683A68C3F80822F3
:1040100000BF0C37BD465DF8047B704780B586B0A5
:1040200000AFF860B9607A60FB687A68B9681846D2
:104030000AF0A4FD00F0B4F97861FB6893F8E2306F
:10404000002B35D0FB6893F8E4301A4613465B002A
:1040500013449B00FA6813443B613B691B687A690F
:10406000D31A40F6B83293421ED9FB6893F80C324B
:1040700083F00103DBB2002B1AD0FB68D3F80832BF
:10408000002B04D0FB68D3F80832F8689847FB6827
:10409000012283F80C22FB6893F80D32002B07D025
:1040A000F868FFF78DFF03E0FB68002283F80C221D
:1040B000FB687A69C3F8042200BF1837BD4680BD8B
:1040C00080B483B000AF786000BF0C37BD465DF8A8
:1040D000047B704780B500AF4FF4807208490948EF
:1040E0000BF082F94FF48072074908480BF07CF915
:1040F000064B044A064907480AF0C6FE00BF80BDC9
:104100003C490120144901203C4A01202849012052
:10411000007800403C4B012080B582B000AF786051
:1041200039607B68002B03D101210F4804F0ACFDFE
:104130007B680E4A9A617B689B6900211846FFF7ED
:1041400011FF0B490948FFF75AFF7B6824330A2205
:104150000A2118460BF0D0FC06480AF0B1FE00BF59
:104160000837BD4680BD00BFFC6B010854450120E7
:10417000C14000083C4B012080B584B000AF78609E
:1041800039607B68002B03D10421124804F07CFDC8
:104190003B68002B03D105210E4804F075FD7B68B8
:1041A0005B69FB607B685B693968786898470346A0
:1041B000FB72FB7A002B08D1FB68074978689847A7
:1041C0007B685B6905497868984700BF1037BD4632
:1041D00080BD00BFFC6B0108146C0108086C01086D
:1041E00080B584B002AF786039607B68002B03D162
:1041F0000221154804F048FD78683B68DA683B689E
:104200001B6900931346114A11490BF0E7FB7B68C9
:1042100024337A680D2118460BF04CFC3B681A6871
:104220007B685A613B685A687B689A613B689A6808
:104230007B68DA617B68243318460BF07DFC00BF95
:104240000837BD4680BD00BFFC6B010879410008FE
:1042500019410008B0B588B002AFFFF73BFF0C234F
:1042600000930A2378220A490A480AF098FF0A4B69
:104270003C1D1D460FCD0FC42B6823603B1D194606
:104280000648FFF7ADFF00BF1837BD46B0BD00BF01
:1042900080470120F8470120CC4401082045012037
:1042A00080B582B000AF0346FB71FB791946034825
:1042B0000BF0AEFB00BF0837BD4680BD2045012096
:1042C00080B582B000AF786039607B68002B03D185
:1042D00003211B4804F0D8FC3B681B88012B02D04B
:1042E0000D2B09D027E07B6824330A220A211846C7
:1042F0000BF002FC01231FE0124B4FF480721A6096
:104300007B68DB690F4A104918460AF0F9FD03463D
:10431000002B07D07B689B690A4A12680A49184635
:10432000FFF77CFE7B689B69002200211846FFF79F
:1043300075FE012300E0022318460837BD4680BD04
:10434000FC6B0108080000201448012080B582B0F1
:1043500000AF0346FB71064BDB695B6818460BF048
:104360004BF903469BB218460837BD4680BD00BFD7
:104370002045012080B582B000AF03460A46FB719C
:104380001346BB71054BDB69BA79114618460AF032
:1043900036FE00BF0837BD4680BD00BF2045012066
:1043A00080B500AF0BF03AFC0346184680BD000014
:1043B00080B586B000AF396011461A460346FB71DE
:1043C0000B46BB7113467B717B79032B27D87B7916
:1043D000154A52F823303B6101F006F9F86001F00C
:1043E0000DF9B86000237B6114E07B69DB00FA689B
:1043F00013441B78FA799A4209D17B69DB00FA6889
:1044000013445B68BA7939683869984708E07B6972
:1044100001337B617A69BB689A42E6DB00E000BF4A
:104420001837BD4680BD00BF6447012080B584B009
:1044300000AFF8607A601A460B46FB721346BB72F7
:10444000FB68BA7A114618460AF03CF90346002B7D
:1044500005D0F868BB7AF97A7A680AF0EBF800BF01
:104460001037BD4680BD000080B500AF054BDB694D
:1044700018460AF03FFE034BDB6918460AF05CFE63
:1044800000BF80BD2045012080B588B002AFF86034
:10449000B9601346FB71002300220121F868FFF781
:1044A000C5FF0A4B7B61FB7901933F230093084BC7
:1044B0007A69084908480AF0E8FD084B1B68184665
:1044C00003F0F8FA00BF1837BD4680BDE04401088C
:1044D000E844010814450108704C01201400002034
:1044E00080B58AB004AFF860B9601346FB71BB6851
:1044F0001B781A06BB6801331B781B041A43BB6880
:1045000002331B781B021343BA6803321278134339
:104510007B61FB79BA680321F868FFF787FF094BD5
:104520003B61FB797A690292019348230093064B21
:104530003A69064906480AF0A8FD00BF1837BD468B
:1045400080BD00BFE0440108E8440108304501088F
:10455000704C012080B58CB006AFF860B96013468E
:10456000FB71BB681B78FB75BB6801331B78BB759F
:10457000BB6802331B787B75BB6803331B783B75C4
:10458000FB79BA680521F868FFF750FF0A4B3B61D9
:10459000FB7DBA7D797D387D049003910292019371
:1045A00058230093054B3A69054906480AF06DFD0A
:1045B00000BF1837BD4680BDE0440108E84401084B
:1045C00068450108704C012080B58AB002AFF860E0
:1045D000B9601346FB71FF233B75BB681B78FB7703
:1045E0000E4B1B68FA7F1146184603F073F907F16A
:1045F000140201230921F868FFF718FF084BBB617B
:10460000FB7F019361230093064BBA690649074873
:104610000AF03BFD00BF2037BD4680BD18000020DA
:10462000E0440108E844010890450108704C01206D
:1046300090B5A3B008AFF860B9601346FB714FF6B0
:104640003F73BB820023A7F86630BB681B781BB2A0
:104650001B021AB2BB6801331B781BB21343A7F8C5
:104660006430BB6802331B781BB21B021AB2BB68F2
:1046700003331B781BB21343A7F86230BB680433C3
:104680001B781BB21B021AB2BB6805331B781BB226
:104690001343A7F86030BB6806331B7887F85F3098
:1046A000BB6807331B7887F85E30BB6808331B781C
:1046B00087F85D30BB6809331B7887F85C30BB68CE
:1046C0000A331B7887F85B30BB680B331B781BB24F
:1046D0001B021AB2BB680C331B781BB213431BB20C
:1046E000A7F85830BB680D331B7887F8573097F818
:1046F0005F30072B0ED9B7F866300133A7F8663064
:10470000844B3B6576230093834B3A6D8349844801
:104710000AF0BBFC97F85E30072B0ED9B7F866306D
:104720000133A7F866307B4BFB647B2300937A4B05
:10473000FA6C7C497A480AF0A8FC97F85C300F2B99
:104740000ED9B7F866300133A7F86630714BBB64F9
:1047500080230093704BBA6C734971480AF095FC42
:1047600097F85B300F2B0ED9B7F866300133A7F8F6
:104770006630684B7B6485230093674B7A6C6B498A
:1047800067480AF082FCB7F86630002B40F0A8803A
:10479000674B1868B7F86410B7F86220B7F8604044
:1047A00097F857300693B7F85830059397F85B3071
:1047B000049397F85C30039397F85D30029397F871
:1047C0005E30019397F85F300093234604F001FABE
:1047D000504B3B64B7F9643001938B2300934E4BED
:1047E0003A6C54494E480AF050FC4A4BFB63B7F907
:1047F000623001938C230093474BFA6B4E49484833
:104800000AF043FC434BBB63B7F9603001938D233F
:104810000093414BBA6B494941480AF036FC3D4B85
:104820007B6397F85F3001938E2300933A4B7A6B4A
:1048300043493B480AF029FC364B3B6397F85E300E
:1048400001938F230093344B3A6B3E4934480AF06E
:104850001CFC304BFB6297F85D30002B01D13A4BCA
:1048600000E03A4B0193902300932B4BFA6A3849AE
:104870002B480AF00AFC274BBB6297F85C30019387
:1048800091230093244BBA6A324925480AF0FDFB74
:10489000204B7B6297F85B300193922300931E4B71
:1048A0007A6A2D491E480AF0F0FB1A4B3B62B7F8B2
:1048B0005830019393230093174B3A6A27491848BD
:1048C0000AF0E3FB134BFB6197F8573001939423F5
:1048D0000093114BFA69224911480AF0D6FB03E014
:1048E0003E233B753E237B7507F1140202230B2107
:1048F000F868FFF79BFD074BBB619C230093064BB9
:10490000BA69184906480AF0C0FB00BF6C37BD46BB
:1049100090BD00BFE0440108E8440108B445010827
:10492000704C0120E04501080C460108384601089A
:104930000C00002064460108804601089C460108DE
:10494000B8460108D4460108F0460108F4460108BB
:10495000F8460108184701083C470108604701086C
:104960007C4701089847010880B588B002AFF8601D
:10497000B9601346FB71FF23FB740D4B7B61A223CF
:1049800000930C4B7A690C490C480AF07EFB0C4BE7
:104990001B68184603F0ECFC07F1130201230D21FC
:1049A000F868FFF743FD00BF1837BD4680BD00BF64
:1049B000E0440108E8440108BC470108704C0120AC
:1049C0000C00002080B588B002AFF860B9601346D3
:1049D000FB71FF23FB740D4B7B61AA2300930C4BEF
:1049E0007A690C490C480AF050FB0C4B1B681846BE
:1049F00003F0DAFC07F1130201230F21F868FFF737
:104A000015FD00BF1837BD4680BD00BFE04401085A
:104A1000E8440108E8470108704C01200C00002020
:104A200080B592B002AFF860B9601346FB714FF6E3
:104A30003F73BB82002387F83F30BB681B781BB2F3
:104A40001B021AB2BB6801331B781BB213431BB2A3
:104A5000BB87BB6802331B7887F83B30BB680333E6
:104A60001B781BB21B021AB2BB6804331B781BB243
:104A700013431BB23B87BB8F4EF6602293420ED985
:104A800097F83F30013387F83F30594B7B63BA23A7
:104A90000093584B7A6B584958480AF0F6FA97F841
:104AA0003B30042B0FD997F83F30013387F83F3064
:104AB0004F4B3B62C02300934E4B3A6A50494F48DC
:104AC0000AF0E3FA49E097F83B30042B21D107F1D3
:104AD000140202231121F868FFF7A8FC494B1B6858
:104AE0000421184603F04AFD414BBB62C6230093E4
:104AF000404BBA6A444941480AF0C7FA3C4B7B62D2
:104B0000C72300933B4B7A6A40493C480AF0BDFA00
:104B10006AE03C4B1B68184603F073FE034687F8B7
:104B2000333097F8332097F83B3042FA03F303F021
:104B30000103002B11D097F83F30013387F83F3045
:104B40002B4BFB6297F83B300193D0230093294B0A
:104B5000FA6A2F4929480AF098FA3B8FB3F5FA7F91
:104B600004D33B8F40F6B832934210D997F83F30C8
:104B7000013387F83F301E4BFB613B8F0193D723F6
:104B800000931C4BFA6923491C480AF07EFA97F8F7
:104B90003F30002B13D1BB8F184600F043FE194B5A
:104BA0001B6897F83B201146184603F0E7FC154BAD
:104BB0001B683A8F1146184603F0F9FC03E03E23C8
:104BC0003B753E237B7507F1140202231121F8681F
:104BD000FFF72CFC064BBB61E7230093054BBA693A
:104BE0000A4906480AF051FA4037BD4680BD00BF69
:104BF000E0440108E844010814480108704C012011
:104C00004C4801080C00002078480108A848010819
:104C1000D4480108FC48010880B588B002AFF860AC
:104C2000B9601346FB71FF23FB7407F113020123E4
:104C30001321F868FFF7FAFB074B7B61EE23009323
:104C4000064B7A69064907480AF01FFA00F0C6FDCC
:104C500000BF1837BD4680BDE0440108E8440108A4
:104C600030490108704C012080B588B002AFF8606F
:104C7000B9601346FB71FF23FB7407F11302012394
:104C80001521F868FFF7D2FB074B7B61F6230093F1
:104C9000064B7A69064907480AF0F7F900F0B0FDBB
:104CA00000BF1837BD4680BDE0440108E844010854
:104CB00054490108704C012080B59AB002AFF860E9
:104CC000B9601346FB71864BBB65FC230093854B93
:104CD000BA6D854985480AF0D8F94FF63F733B8590
:104CE0000023A7F85E30BB681B781A06BB68013347
:104CF0001B781B041A43BB6802331B781B02134347
:104D0000BA680332127813437B65BB6804331B789F
:104D10001B029BB2BA68053212781343A7F85230CF
:104D2000BB6806331B781B029BB2BA680732127845
:104D30001343A7F85030BB6808331B781B029BB2A3
:104D4000BA68093212781343A7F84E307B6DB3F579
:104D50007A7F03D37B6D664A93420FD9B7F85E30F2
:104D60000133A7F85E305E4BBB644FF4847300934D
:104D70005C4BBA6C5F495D480AF087F9B7F852306E
:104D8000002B0FD1B7F85E300133A7F85E30544BDB
:104D90007B6440F20F130093524B7A6C5649534890
:104DA0000AF073F9B7F85030002B0FD1B7F85E3026
:104DB0000133A7F85E304A4B3B644FF48B7300938A
:104DC000484B3A6C4D4949480AF05FF9B7F84E3004
:104DD000002B0FD1B7F85E300133A7F85E30404B9F
:104DE000FB6340F21D1300933E4BFA6B44493F486E
:104DF0000AF04BF9B7F85220B7F850301A44B7F818
:104E00004E3013441A467B6D02FB03F33D4AA2FB6E
:104E100003239B0CBB63BB6BB3F5006F0FD9B7F8D3
:104E20005E300133A7F85E302D4B7B6340F22513D3
:104E300000932C4B7A6B34492C480AF026F9B7F8CA
:104E40005E30002B3AD17B6D7B61B7F852307B83AB
:104E5000B7F85030BB83B7F84E30FB83BB6B3B6277
:104E60002A4A7B6DB2FBF3F37B62294B1B6807F187
:104E7000140211461846FEF71DFF0346002B0BD106
:104E8000174BFB6240F233130093164BFA6A214929
:104E900016480AF0FAF817E03E2387F828303E2338
:104EA00087F829300E4B3B6340F2391300930D4BCA
:104EB0003A6B19490D480AF0E8F805E03E2387F8F7
:104EC00028303E2387F8293007F1280202231721D2
:104ED000F868FFF7ABFA00BF6037BD4680BD00BF82
:104EE000E0440108E844010878490108704C0120B9
:104EF00000350C0098490108CC490108FC4901081B
:104F00002C4A010883DE1B435C4A010840420F0023
:104F100010000020904A0108B04A010880B590B006
:104F200002AFF860B9601346FB714FF63F73BB8464
:104F3000BB681B7887F8373097F83730642B11D966
:104F40003E2387F824303E2387F82530244BBB626C
:104F500040F24D130093234BBA6A234923480AF0C9
:104F600094F839E0224B1B6807F1100211461846ED
:104F7000FEF74AFF97F837307B751D4B1B6807F12A
:104F8000100211461846FEF7CFFE0346002B0BD148
:104F9000134BFB624FF4AC730093124BFA6A154942
:104FA00012480AF072F810E03E2387F824303E23BE
:104FB00087F825300A4B3B634FF4AF730093094BDE
:104FC0003A6B0D4909480AF060F807F12402022300
:104FD0001921F868FFF72AFA3837BD4680BD00BFAF
:104FE000E0440108E8440108D04A0108704C01205F
:104FF00010000020FC4A0108284B010880B590B041
:1050000002AFF860B9601346FB714FF63F73BB8483
:10501000BB681B7887F8373097F83730242B03D8D4
:1050200097F83730002B11D13E2387F824303E23E8
:1050300087F82530244BBB624FF4B6730093234BA3
:10504000BA6A234923480AF020F832E0224B1B6851
:1050500007F1100211461846FEF7D6FE97F83730D2
:105060003B751D4B1B6807F1100211461846FEF7F1
:1050700072FE0346002B0BD1134BFB624FF4BB7344
:105080000093124BFA6A1549124809F0FEFF10E02E
:105090003E2387F824303E2387F825300A4B3B63B4
:1050A0004FF4BE730093094B3A6B0D49094809F060
:1050B000ECFF07F1240202231B21F868FFF7B6F981
:1050C00000BF3837BD4680BDE0440108E844010810
:1050D000544B0108704C012010000020804B010847
:1050E000A44B010880B58AB002AFF860B9601346DE
:1050F000FB713F233B75174B1B681846FEF798FE64
:105100000346002B0DD03E233B75134BBB614FF480
:10511000C4730093114BBA691149124809F0B5FFE5
:105120000CE0FEF707FF0C4BFB6140F28D13009380
:105130000A4BFA690C490B4809F0A7FF07F1140262
:1051400001231D21F868FFF771F900BF2037BD4624
:1051500080BD00BF10000020E0440108E8440108C1
:10516000C84B0108704C0120F04B010880B58EB08F
:1051700002AFF860B9601346FB714FF63F73BB8412
:10518000214B1B6807F1100211461846FEF73CFE42
:10519000FB69002B0ED1002387F824301B4BBB6228
:1051A00040F29B1300931A4BBA6A1A491A4809F045
:1051B0006CFF1DE0FB691B09DBB287F82430FB693B
:1051C00003F00F03002B05D097F824300133DBB236
:1051D00087F824300D4BFB6297F8243001934FF48D
:1051E000D17300930A4BFA6A0C490B4809F04DFF42
:1051F00007F1240202231F21F868FFF717F900BF07
:105200003037BD4680BD00BF10000020E0440108DB
:10521000E8440108184C0108704C0120384C010882
:1052200080B590B002AFF860B9601346FB714FF6DD
:105230003F73BB84BB681B7887F837302D4B1B68E6
:1052400007F1100211461846FEF7DEFDFB691B0947
:1052500087F8363097F83630002B11D13E2387F887
:1052600024303E2387F82530234BBB624FF4D9739B
:105270000093224BBA6A2249224809F006FF2EE029
:1052800097F8372097F836309A4211D33E2387F8A3
:1052900024303E2387F82530174BFB624FF4DC7334
:1052A0000093164BFA6A1849164809F0EEFE16E00C
:1052B000104B1B6897F8372092B211461846FEF73C
:1052C000EFFD0D4B3B6397F83730019340F2BF136E
:1052D00000930A4B3A6B0D490A4809F0D6FE07F1D4
:1052E000240202232121F868FFF7A0F800BF383715
:1052F000BD4680BD10000020E0440108E8440108DC
:105300005C4C0108704C0120784C0108A04C01084D
:1053100080B58CB004AFF860B9601346FB7105F03E
:105320003DFB0346FB83FB8B1B0A9BB2DBB23B7549
:10533000FB8BDBB27B7507F1140202232321F86893
:10534000FFF774F80A4BBB61BB681B781A46FB8BEE
:10535000029301924FF4E6730093064BBA69064933
:10536000064809F092FE00BF2037BD4680BD00BF51
:10537000E0440108E8440108BC4C0108704C0120DD
:1053800080B485B000AFF860B9601346FB7100BF10
:105390001437BD465DF8047B704780B485B000AF1C
:1053A000F860B9601346FB7100BF1437BD465DF865
:1053B000047B704780B58AB002AFF860B9601346CD
:1053C000FB714FF63F733B82BB681B78FB83B7F9D9
:1053D0001E30642B0FDD3E233B743E237B74164B43
:1053E0007B6140F2E1130093144B7A69144915482C
:1053F00009F04BFE15E0144B1B68B7F91E20012184
:105400001846FEF78BFB0C4BBB61B7F91E300193BE
:105410004FF4F3730093094BBA690C49094809F03A
:1054200034FE07F1100202232921F868FEF7FEFF7F
:1054300000BF2037BD4680BDE0440108E8440108B4
:10544000E84C0108704C012010000020144D0108A8
:1054500080B58AB002AFF860B9601346FB714FF6B1
:105460003F733B82BB681B78FB77FB7F082B02D81E
:10547000FB7F002B0FD13E233B743E237B74144BE8
:105480007B614FF4FA730093124B7A691249134807
:1054900009F0FBFD11E0124B1B68FA7F114618461C
:1054A000FEF7A5FB0A4BBB6140F2F9130093094BD1
:1054B000BA690C49094809F0E8FD07F11002022316
:1054C0002B21F868FEF7B2FF00BF2037BD4680BD34
:1054D000E0440108E8440108404D0108704C0120F7
:1054E000100000206C4D010880B588B002AFF86054
:1054F000B9601346FB71FF233B7407F110020123CF
:105500002D21F868FEF792FF094B1B681846FEF73D
:1055100091FB084B7B6140F203230093064B7A69B1
:105520000649074809F0B1FD00BF1837BD4680BDE8
:1055300010000020E0440108E8440108904D0108F3
:10554000704C012080B58CB002AFF860B960134692
:10555000FB710020FDF776FE0346FB840120FDF77A
:1055600071FE0346BB843F233B75FB8C1B0A9BB239
:10557000DBB27B75FB8CDBB2BB75BB8C1B0A9BB2B1
:10558000DBB2FB75BB8CDBB23B7607F11402052363
:105590003321F868FEF74AFF0E4B3B62FB8C019308
:1055A00040F24F2300930C4B3A6A0C490C4809F027
:1055B0006CFD084BFB61BB8C01934FF4147300939B
:1055C000054BFA690749064809F05FFD00BF283717
:1055D000BD4680BDE0440108E8440108B44D01081F
:1055E000704C0120DC4D010880B400AF024B18461E
:1055F000BD465DF8047B7047206C010880B400AFA5
:1056000017231846BD465DF8047B704780B582B00D
:1056100000AF786039607B68183318460AF08CFA5E
:1056200000BF0837BD4680BD80B584B000AF78604C
:1056300039607B685B69FB607B685B6939687868A7
:1056400098470346FB72FB7A002B08D1FB6806499A
:10565000786898477B685B6904497868984700BF19
:105660001037BD4680BD00BFFC6C0108E86C010826
:1056700080B584B002AF786039607B68002B03D1BD
:105680000021134803F000FB78683B685A683B68C8
:105690009B68009313460F4A0F490AF09FF97B68F5
:1056A00018337A68132118460AF004FA3B681A681E
:1056B0007B685A617B68002283F828207B68183356
:1056C00018460AF039FA00BF0837BD4680BD00BF52
:1056D000D86C0108295600080D56000880B586B020
:1056E00002AF12230093022324220949094809F03A
:1056F00056FD094A3B1D07CA83E807003B1D1946B2
:105700000648FFF7B5FF00BF1037BD4680BD00BF9C
:105710008C4B0120B04B0120044E01084C4B012062
:1057200080B582B000AF0346FB71FB791946034890
:105730000AF06EF900BF0837BD4680BD4C4B012012
:1057400080B586B002AF786039603B681B88012B5A
:1057500002D0132B02D02FE001232EE07B6893F8B8
:105760002830002B13D1174BBB605F230093164BDF
:10577000BA681649164809F088FC164B1B6818468B
:1057800002F031FF7B68012283F8282012E00D4BE4
:10579000FB60652300930C4BFA680F490C4809F035
:1057A00074FC0C4B1B68184602F0A7FF7B680022B4
:1057B00083F82820012300E0022318461037BD4655
:1057C00080BD00BF104E0108184E0108484E010868
:1057D000704C01201C000020604E010880B500AF15
:1057E000054B1B88044A1288194604480AF084F9BC
:1057F0000023184680BD00BF20000020644B01201C
:1058000080B500AF05480AF097F9054B1B681846AC
:1058100002F073FF0023184680BD00BF644B0120D7
:105820001C00002080B483B000AF0346FB80044A14
:10583000FB88138000BF0C37BD465DF8047B7047C2
:105840002000002080B400AFBFF34F8F00BF064B95
:10585000DB6803F4E0620449044B1343CB60BFF3FD
:105860004F8F00BF00BFFDE700ED00E00400FA0528
:1058700080B588B000AFF860B9607A6007F11403B2
:10588000074A0A2118460CF031FC07F114031946A7
:10589000F86807F074F900BF2037BD4680BD00BF2F
:1058A0008458010880B584B000AFF860B9607A60B0
:1058B000FFF7C8FF80B588B000AFF860B9607A60C4
:1058C0000023BB610023FB82B86807F049FA034656
:1058D0007B757B7D012B04D02E49F86808F0C6FB50
:1058E00054E00121B86807F005FA38613B691B787C
:1058F000612B22D10023FB771BE0FB7F1846FDF7CD
:10590000EDFC0346FB82B7F9163013F5004F06D1C4
:10591000FB7F1A462049F86808F0A8FB06E0FA7FEA
:10592000B7F916301D49F86808F0A0FBFB7F01337A
:10593000FB77FB7F072BE0D928E03B691B782F2BF7
:1059400020D93B691B78372B1CD838690BF0F4FD44
:105950000346BB61B869FDF7C1FC0346FB82B7F99A
:10596000163013F5004F05D1BA690B49F86808F0F5
:105970007DFB0BE0B7F91630BA690849F86808F002
:1059800075FB03E00649F86808F070FB2037BD4658
:1059900080BD00BF8C580108AC580108C0580108F0
:1059A000D458010880B588B000AFF860B9607A605B
:1059B000B86807F0D5F90346FB61FB69012B04D0F9
:1059C0001549F86808F052FB23E0144B1B68184691
:1059D00002F0C0FD034683F00103DBB2002B04D0CC
:1059E0000F49F86808F042FB13E00121B86807F09E
:1059F00081F9B861B8690BF09FFD03467B61074BE5
:105A00001B687969184603F0B9F80649F86808F088
:105A10002DFB2037BD4680BD8C5801082400002096
:105A2000E85801083459010880B584B000AFF86027
:105A3000B9607A600A4B1B68184603F0B8F8034651
:105A4000002B04D00749F86808F010FB03E0064972
:105A5000F86808F00BFB00BF1037BD4680BD00BFE3
:105A600024000020345901083C59010880B588B051
:105A700000AFF860B9607A60B86807F071F9034662
:105A8000BB61BB69012B04D03849F86808F0EEFA15
:105A900069E0374B1B68184602F05CFD034683F053
:105AA0000103DBB2002B04D03249F86808F0DEFABB
:105AB00059E00121B86807F01DF9786100233B61C6
:105AC0007B691B78612B25D10023FB611EE0284BED
:105AD0001B68F969184602F0F9FC38613B69002B34
